{"abi":[{"type":"function","name":"ADMIN_ROLE","inputs":[],"outputs":[{"name":"","type":"bytes32","internalType":"bytes32"}],"stateMutability":"view"},{"type":"function","name":"DEFAULT_ADMIN_ROLE","inputs":[],"outputs":[{"name":"","type":"bytes32","internalType":"bytes32"}],"stateMutability":"view"},{"type":"function","name":"ETH_PID","inputs":[],"outputs":[{"name":"","type":"uint256","internalType":"uint256"}],"stateMutability":"view"},{"type":"function","name":"RCC","inputs":[],"outputs":[{"name":"","type":"address","internalType":"contract IERC20"}],"stateMutability":"view"},{"type":"function","name":"UPGRADE_INTERFACE_VERSION","inputs":[],"outputs":[{"name":"","type":"string","internalType":"string"}],"stateMutability":"view"},{"type":"function","name":"UPGRADE_ROLE","inputs":[],"outputs":[{"name":"","type":"bytes32","internalType":"bytes32"}],"stateMutability":"view"},{"type":"function","name":"addPool","inputs":[{"name":"_stakeTokenAddress","type":"address","internalType":"address"},{"name":"_poolWeight","type":"uint256","internalType":"uint256"},{"name":"_minDepositAmount","type":"uint256","internalType":"uint256"},{"name":"_unStakeLockedBlocks","type":"uint256","internalType":"uint256"},{"name":"_withUpdate","type":"bool","internalType":"bool"}],"outputs":[],"stateMutability":"nonpayable"},{"type":"function","name":"claim","inputs":[{"name":"_pid","type":"uint256","internalType":"uint256"}],"outputs":[],"stateMutability":"nonpayable"},{"type":"function","name":"claimPaused","inputs":[],"outputs":[{"name":"","type":"bool","internalType":"bool"}],"stateMutability":"view"},{"type":"function","name":"deposit","inputs":[{"name":"_pid","type":"uint256","internalType":"uint256"},{"name":"_amount","type":"uint256","internalType":"uint256"}],"outputs":[],"stateMutability":"nonpayable"},{"type":"function","name":"depositETH","inputs":[],"outputs":[],"stateMutability":"payable"},{"type":"function","name":"endBlock","inputs":[],"outputs":[{"name":"","type":"uint256","internalType":"uint256"}],"stateMutability":"view"},{"type":"function","name":"getMultiplier","inputs":[{"name":"_from","type":"uint256","internalType":"uint256"},{"name":"_to","type":"uint256","internalType":"uint256"}],"outputs":[{"name":"multiplier","type":"uint256","internalType":"uint256"}],"stateMutability":"view"},{"type":"function","name":"getPendingRCC","inputs":[{"name":"_poolId","type":"uint256","internalType":"uint256"},{"name":"_user","type":"address","internalType":"address"}],"outputs":[{"name":"","type":"uint256","internalType":"uint256"}],"stateMutability":"view"},{"type":"function","name":"getPoolLength","inputs":[],"outputs":[{"name":"","type":"uint256","internalType":"uint256"}],"stateMutability":"view"},{"type":"function","name":"getRoleAdmin","inputs":[{"name":"role","type":"bytes32","internalType":"bytes32"}],"outputs":[{"name":"","type":"bytes32","internalType":"bytes32"}],"stateMutability":"view"},{"type":"function","name":"grantRole","inputs":[{"name":"role","type":"bytes32","internalType":"bytes32"},{"name":"account","type":"address","internalType":"address"}],"outputs":[],"stateMutability":"nonpayable"},{"type":"function","name":"hasRole","inputs":[{"name":"role","type":"bytes32","internalType":"bytes32"},{"name":"account","type":"address","internalType":"address"}],"outputs":[{"name":"","type":"bool","internalType":"bool"}],"stateMutability":"view"},{"type":"function","name":"initialize","inputs":[{"name":"_RCC","type":"address","internalType":"contract IERC20"},{"name":"_startBlock","type":"uint256","internalType":"uint256"},{"name":"_endBlock","type":"uint256","internalType":"uint256"},{"name":"_rccPerBlock","type":"uint256","internalType":"uint256"}],"outputs":[],"stateMutability":"nonpayable"},{"type":"function","name":"massUpdatePools","inputs":[],"outputs":[],"stateMutability":"nonpayable"},{"type":"function","name":"pauseClaim","inputs":[],"outputs":[],"stateMutability":"nonpayable"},{"type":"function","name":"pauseWithdraw","inputs":[],"outputs":[],"stateMutability":"nonpayable"},{"type":"function","name":"paused","inputs":[],"outputs":[{"name":"","type":"bool","internalType":"bool"}],"stateMutability":"view"},{"type":"function","name":"pendingRCCByBlockNumber","inputs":[{"name":"_poolId","type":"uint256","internalType":"uint256"},{"name":"_user","type":"address","internalType":"address"},{"name":"_blockNumber","type":"uint256","internalType":"uint256"}],"outputs":[{"name":"","type":"uint256","internalType":"uint256"}],"stateMutability":"view"},{"type":"function","name":"pool","inputs":[{"name":"","type":"uint256","internalType":"uint256"}],"outputs":[{"name":"stakeTokenAddress","type":"address","internalType":"address"},{"name":"poolWeight","type":"uint256","internalType":"uint256"},{"name":"lastRewardBlock","type":"uint256","internalType":"uint256"},{"name":"accumulateRewardsPerStake","type":"uint256","internalType":"uint256"},{"name":"stakeTokenAmount","type":"uint256","internalType":"uint256"},{"name":"minDepositAmount","type":"uint256","internalType":"uint256"},{"name":"unStakeLockedBlocks","type":"uint256","internalType":"uint256"}],"stateMutability":"view"},{"type":"function","name":"pools","inputs":[{"name":"","type":"uint256","internalType":"uint256"}],"outputs":[{"name":"stakeTokenAddress","type":"address","internalType":"address"},{"name":"poolWeight","type":"uint256","internalType":"uint256"},{"name":"lastRewardBlock","type":"uint256","internalType":"uint256"},{"name":"accumulateRewardsPerStake","type":"uint256","internalType":"uint256"},{"name":"stakeTokenAmount","type":"uint256","internalType":"uint256"},{"name":"minDepositAmount","type":"uint256","internalType":"uint256"},{"name":"unStakeLockedBlocks","type":"uint256","internalType":"uint256"}],"stateMutability":"view"},{"type":"function","name":"proxiableUUID","inputs":[],"outputs":[{"name":"","type":"bytes32","internalType":"bytes32"}],"stateMutability":"view"},{"type":"function","name":"rccPerBlock","inputs":[],"outputs":[{"name":"","type":"uint256","internalType":"uint256"}],"stateMutability":"view"},{"type":"function","name":"renounceRole","inputs":[{"name":"role","type":"bytes32","internalType":"bytes32"},{"name":"callerConfirmation","type":"address","internalType":"address"}],"outputs":[],"stateMutability":"nonpayable"},{"type":"function","name":"revokeRole","inputs":[{"name":"role","type":"bytes32","internalType":"bytes32"},{"name":"account","type":"address","internalType":"address"}],"outputs":[],"stateMutability":"nonpayable"},{"type":"function","name":"setEndBlock","inputs":[{"name":"_endBlock","type":"uint256","internalType":"uint256"}],"outputs":[],"stateMutability":"nonpayable"},{"type":"function","name":"setPoolWeight","inputs":[{"name":"_poolId","type":"uint256","internalType":"uint256"},{"name":"_poolWeight","type":"uint256","internalType":"uint256"},{"name":"_withUpdate","type":"bool","internalType":"bool"}],"outputs":[],"stateMutability":"nonpayable"},{"type":"function","name":"setRCC","inputs":[{"name":"_RCC","type":"address","internalType":"contract IERC20"}],"outputs":[],"stateMutability":"nonpayable"},{"type":"function","name":"setRCCPerBlock","inputs":[{"name":"_rccPerBlock","type":"uint256","internalType":"uint256"}],"outputs":[],"stateMutability":"nonpayable"},{"type":"function","name":"setStartBlock","inputs":[{"name":"_startBlock","type":"uint256","internalType":"uint256"}],"outputs":[],"stateMutability":"nonpayable"},{"type":"function","name":"stToken","inputs":[],"outputs":[{"name":"","type":"address","internalType":"contract IERC20"}],"stateMutability":"view"},{"type":"function","name":"stakingBalance","inputs":[{"name":"_pid","type":"uint256","internalType":"uint256"},{"name":"_user","type":"address","internalType":"address"}],"outputs":[{"name":"","type":"uint256","internalType":"uint256"}],"stateMutability":"view"},{"type":"function","name":"startBlock","inputs":[],"outputs":[{"name":"","type":"uint256","internalType":"uint256"}],"stateMutability":"view"},{"type":"function","name":"supportsInterface","inputs":[{"name":"interfaceId","type":"bytes4","internalType":"bytes4"}],"outputs":[{"name":"","type":"bool","internalType":"bool"}],"stateMutability":"view"},{"type":"function","name":"totalPoolWeight","inputs":[],"outputs":[{"name":"","type":"uint256","internalType":"uint256"}],"stateMutability":"view"},{"type":"function","name":"unpPauseWithdraw","inputs":[],"outputs":[],"stateMutability":"nonpayable"},{"type":"function","name":"unpauseClaim","inputs":[],"outputs":[],"stateMutability":"nonpayable"},{"type":"function","name":"unstake","inputs":[{"name":"_pid","type":"uint256","internalType":"uint256"},{"name":"_amount","type":"uint256","internalType":"uint256"}],"outputs":[],"stateMutability":"nonpayable"},{"type":"function","name":"unstakeReleaseBlocks","inputs":[],"outputs":[{"name":"","type":"uint256","internalType":"uint256"}],"stateMutability":"view"},{"type":"function","name":"updatePool","inputs":[{"name":"_pid","type":"uint256","internalType":"uint256"}],"outputs":[],"stateMutability":"nonpayable"},{"type":"function","name":"updatePool","inputs":[{"name":"_poolId","type":"uint256","internalType":"uint256"},{"name":"_minDepositAmount","type":"uint256","internalType":"uint256"},{"name":"_unStakeLockedBlocks","type":"uint256","internalType":"uint256"}],"outputs":[],"stateMutability":"nonpayable"},{"type":"function","name":"upgradeToAndCall","inputs":[{"name":"newImplementation","type":"address","internalType":"address"},{"name":"data","type":"bytes","internalType":"bytes"}],"outputs":[],"stateMutability":"payable"},{"type":"function","name":"user","inputs":[{"name":"","type":"uint256","internalType":"uint256"},{"name":"","type":"address","internalType":"address"}],"outputs":[{"name":"stakeAmount","type":"uint256","internalType":"uint256"},{"name":"finishedRewards","type":"uint256","internalType":"uint256"},{"name":"pendingRewards","type":"uint256","internalType":"uint256"}],"stateMutability":"view"},{"type":"function","name":"users","inputs":[{"name":"","type":"address","internalType":"address"}],"outputs":[{"name":"stakeAmount","type":"uint256","internalType":"uint256"},{"name":"finishedRewards","type":"uint256","internalType":"uint256"},{"name":"pendingRewards","type":"uint256","internalType":"uint256"}],"stateMutability":"view"},{"type":"function","name":"withdraw","inputs":[{"name":"_pid","type":"uint256","internalType":"uint256"}],"outputs":[],"stateMutability":"nonpayable"},{"type":"function","name":"withdrawAmount","inputs":[{"name":"_poolId","type":"uint256","internalType":"uint256"},{"name":"_user","type":"address","internalType":"address"}],"outputs":[{"name":"requestAmount","type":"uint256","internalType":"uint256"},{"name":"pendingWithdrawAmount","type":"uint256","internalType":"uint256"}],"stateMutability":"view"},{"type":"function","name":"withdrawPaused","inputs":[],"outputs":[{"name":"","type":"bool","internalType":"bool"}],"stateMutability":"view"},{"type":"event","name":"AddPool","inputs":[{"name":"stakeTokenAddress","type":"address","indexed":true,"internalType":"address"},{"name":"poolWeight","type":"uint256","indexed":true,"internalType":"uint256"},{"name":"lastRewardBlock","type":"uint256","indexed":true,"internalType":"uint256"},{"name":"minDepositAmount","type":"uint256","indexed":false,"internalType":"uint256"},{"name":"unStakeLockedBlocks","type":"uint256","indexed":false,"internalType":"uint256"}],"anonymous":false},{"type":"event","name":"Claim","inputs":[{"name":"user","type":"address","indexed":true,"internalType":"address"},{"name":"poolId","type":"uint256","indexed":true,"internalType":"uint256"},{"name":"RccReward","type":"uint256","indexed":false,"internalType":"uint256"}],"anonymous":false},{"type":"event","name":"Deposit","inputs":[{"name":"user","type":"address","indexed":true,"internalType":"address"},{"name":"poolId","type":"uint256","indexed":true,"internalType":"uint256"},{"name":"amount","type":"uint256","indexed":false,"internalType":"uint256"}],"anonymous":false},{"type":"event","name":"GetRewards","inputs":[{"name":"user","type":"address","indexed":true,"internalType":"address"},{"name":"pid","type":"address","indexed":true,"internalType":"address"},{"name":"amount","type":"uint256","indexed":false,"internalType":"uint256"}],"anonymous":false},{"type":"event","name":"Initialized","inputs":[{"name":"version","type":"uint64","indexed":false,"internalType":"uint64"}],"anonymous":false},{"type":"event","name":"Paused","inputs":[{"name":"account","type":"address","indexed":false,"internalType":"address"}],"anonymous":false},{"type":"event","name":"PausedClaim","inputs":[],"anonymous":false},{"type":"event","name":"PausedWithdraw","inputs":[],"anonymous":false},{"type":"event","name":"RequestUnstake","inputs":[{"name":"user","type":"address","indexed":true,"internalType":"address"},{"name":"poolId","type":"uint256","indexed":true,"internalType":"uint256"},{"name":"amount","type":"uint256","indexed":false,"internalType":"uint256"}],"anonymous":false},{"type":"event","name":"RoleAdminChanged","inputs":[{"name":"role","type":"bytes32","indexed":true,"internalType":"bytes32"},{"name":"previousAdminRole","type":"bytes32","indexed":true,"internalType":"bytes32"},{"name":"newAdminRole","type":"bytes32","indexed":true,"internalType":"bytes32"}],"anonymous":false},{"type":"event","name":"RoleGranted","inputs":[{"name":"role","type":"bytes32","indexed":true,"internalType":"bytes32"},{"name":"account","type":"address","indexed":true,"internalType":"address"},{"name":"sender","type":"address","indexed":true,"internalType":"address"}],"anonymous":false},{"type":"event","name":"RoleRevoked","inputs":[{"name":"role","type":"bytes32","indexed":true,"internalType":"bytes32"},{"name":"account","type":"address","indexed":true,"internalType":"address"},{"name":"sender","type":"address","indexed":true,"internalType":"address"}],"anonymous":false},{"type":"event","name":"SetEndBlock","inputs":[{"name":"endBlock","type":"uint256","indexed":true,"internalType":"uint256"}],"anonymous":false},{"type":"event","name":"SetPoolWeight","inputs":[{"name":"poolId","type":"uint256","indexed":true,"internalType":"uint256"},{"name":"poolWeight","type":"uint256","indexed":false,"internalType":"uint256"},{"name":"totalPoolWeight","type":"uint256","indexed":false,"internalType":"uint256"}],"anonymous":false},{"type":"event","name":"SetRCC","inputs":[{"name":"RCC","type":"address","indexed":true,"internalType":"contract IERC20"}],"anonymous":false},{"type":"event","name":"SetRCCPerBlock","inputs":[{"name":"rccPerBlock","type":"uint256","indexed":true,"internalType":"uint256"}],"anonymous":false},{"type":"event","name":"SetStartBlock","inputs":[{"name":"startBlock","type":"uint256","indexed":true,"internalType":"uint256"}],"anonymous":false},{"type":"event","name":"Stake","inputs":[{"name":"user","type":"address","indexed":true,"internalType":"address"},{"name":"pid","type":"address","indexed":true,"internalType":"address"},{"name":"amount","type":"uint256","indexed":false,"internalType":"uint256"}],"anonymous":false},{"type":"event","name":"UnStake","inputs":[{"name":"user","type":"address","indexed":true,"internalType":"address"},{"name":"pid","type":"address","indexed":true,"internalType":"address"},{"name":"amount","type":"uint256","indexed":false,"internalType":"uint256"}],"anonymous":false},{"type":"event","name":"Unpaused","inputs":[{"name":"account","type":"address","indexed":false,"internalType":"address"}],"anonymous":false},{"type":"event","name":"UnpausedClaim","inputs":[],"anonymous":false},{"type":"event","name":"UnpausedWithdraw","inputs":[],"anonymous":false},{"type":"event","name":"UpdatePool","inputs":[{"name":"poolId","type":"uint256","indexed":true,"internalType":"uint256"},{"name":"lastRewardBlock","type":"uint256","indexed":true,"internalType":"uint256"},{"name":"totalRCC","type":"uint256","indexed":false,"internalType":"uint256"}],"anonymous":false},{"type":"event","name":"UpdatePoolInfo","inputs":[{"name":"poolId","type":"uint256","indexed":true,"internalType":"uint256"},{"name":"minDepositAmount","type":"uint256","indexed":true,"internalType":"uint256"},{"name":"unStakeLockedBlocks","type":"uint256","indexed":true,"internalType":"uint256"}],"anonymous":false},{"type":"event","name":"Upgraded","inputs":[{"name":"implementation","type":"address","indexed":true,"internalType":"address"}],"anonymous":false},{"type":"event","name":"Withdraw","inputs":[{"name":"user","type":"address","indexed":true,"internalType":"address"},{"name":"poolId","type":"uint256","indexed":true,"internalType":"uint256"},{"name":"amount","type":"uint256","indexed":false,"internalType":"uint256"},{"name":"blockNumber","type":"uint256","indexed":true,"internalType":"uint256"}],"anonymous":false},{"type":"error","name":"AccessControlBadConfirmation","inputs":[]},{"type":"error","name":"AccessControlUnauthorizedAccount","inputs":[{"name":"account","type":"address","internalType":"address"},{"name":"neededRole","type":"bytes32","internalType":"bytes32"}]},{"type":"error","name":"AddressEmptyCode","inputs":[{"name":"target","type":"address","internalType":"address"}]},{"type":"error","name":"ERC1967InvalidImplementation","inputs":[{"name":"implementation","type":"address","internalType":"address"}]},{"type":"error","name":"ERC1967NonPayable","inputs":[]},{"type":"error","name":"EnforcedPause","inputs":[]},{"type":"error","name":"ExpectedPause","inputs":[]},{"type":"error","name":"FailedCall","inputs":[]},{"type":"error","name":"InvalidInitialization","inputs":[]},{"type":"error","name":"NotInitializing","inputs":[]},{"type":"error","name":"SafeERC20FailedOperation","inputs":[{"name":"token","type":"address","internalType":"address"}]},{"type":"error","name":"UUPSUnauthorizedCallContext","inputs":[]},{"type":"error","name":"UUPSUnsupportedProxiableUUID","inputs":[{"name":"slot","type":"bytes32","internalType":"bytes32"}]}],"bytecode":{"object":"0x60a08060405234602957306080526130ea908161002e823960805181818161167d01526117760152f35b5f80fdfe6080806040526004361015610012575f80fd5b5f3560e01c90816301ffc9a71461231b5750806302559004146122fe578063083c6323146122e1578063115482341461228f57806323b6443e14612267578063248a9ca3146122305780632e1a7d4d14611f5f5780632f2ff15d14611f155780632f3ffb9f14611ef357806336568abe14611eaf57806337849b3c14611e4a578063379607f514611b9a57806341721ab714611b7057806348cd4cb114611b545780634ec81af1146119695780634f1ef286146116fa57806351eb05a6146116d157806352d1902d1461166b5780635c975abb1461162a5780636155e3de14611586578063630b5ba11461156e57806370ff01731461155157806375b238fc146115175780638dbb1e3a146114fe5780638ff095f9146114a157806391d148541461144c5780639e2c8a5b1461124a578063a17bff831461122d578063a217fddf14610c58578063a27d9279146111f0578063a72d5bf4146111c4578063a87430ba1461116b578063ab5e124a14611146578063ac4afa3814610fc7578063ad3cb1cc14610f69578063b3944d5214610f4c578063b6d9d91914610cfd578063b908afa814610cc3578063bed66c0814610c72578063bfc3ebba14610c58578063c397920e14610bc4578063c713aa9414610b71578063d547741f14610b20578063d86c044414610aa3578063de065caa14610a4b578063e2bbb1581461084a578063f35e4a6e146107f7578063f5485d3214610780578063f6326fb3146104a0578063fad07ece146103ab578063fe3131121461031e5763ff42335714610258575f80fd5b3461031a57604036600319011261031a5760043561027461236e565b610281600554831061243c565b5f905f925f52600a60205260405f209060018060a01b03165f5260205260405f209160035f93019283545b8082106102c3576040848482519182526020820152f35b90926102cf84866124b7565b5060014391015411156102fd575b6102f56001916102ed86886124b7565b5054906124d0565b9301906102ac565b916102f56103116001926102ed87896124b7565b939150506102dd565b5f80fd5b3461031a57602036600319011261031a5760043560055481101561031a57610345906123ee565b50805460018201546002830154600384015460048501546005860154600690960154604080516001600160a01b0390971687526020870195909552938501929092526060840152608083015260a082019290925260c08101919091528060e081015b0390f35b3461031a57606036600319011261031a57600435602435604435801515810361031a576103d6612a7c565b6103e36005548410612978565b8115610465577f4b8fa3d6a87cb21d1bf4978bf60628ae358a28ac7f39de1751a481c6dd95761791604091610458575b610436816104316004546001610428896123ee565b500154906124dd565b6124d0565b600455806001610445866123ee565b50015560045482519182526020820152a2005b6104606127d4565b610413565b60405162461bcd60e51b81526020600482015260136024820152721a5b9d985b1a59081c1bdbdb081dd95a59da1d606a1b6044820152606490fd5b5f36600319011261031a576104b36129fb565b6104bb61240a565b5080546001600160a01b031661073b5760056104da91015434116129b6565b6104e35f6123ee565b50335f9081527f13da86008ba1c6922daee3e07db95305ef49ebced9f5467a0b8613fcc6b343e36020526040902060055490919061052290151561243c565b61052b5f6126ff565b815480610691575b34610635575b50600481019061054a348354612ede565b90156105f05761056292556003835491015490612ea3565b91901561059c57600101555f6040513481527f90890809c654f11d6e72a28fa60149770a0d11ec6c92319d6ceb2bb0a4ea1a1560203392a3005b60405162461bcd60e51b815260206004820152602660248201527f75736572207374416d6f756e74206d756c206163635243435065725354206f766044820152656572666c6f7760d01b6064820152608490fd5b60405162461bcd60e51b815260206004820152601b60248201527f7374616b6520746f6b656e20616d6f756e74206f766572666c6f7700000000006044820152606490fd5b61063f9034612ea3565b901561064d57825582610539565b606460405162461bcd60e51b815260206004820152602060248201527f616363756d756c617465207374616b6520616d6f756e74206f766572666c6f776044820152fd5b61069f600383015482612ea3565b90156106f657670de0b6b3a764000090046106c26106c991600186015490612fbe565b9190612eef565b806106d5575b50610533565b6106ef906106e860028601918254612ede565b9290612eef565b55836106cf565b60405162461bcd60e51b815260206004820152601a60248201527f75736572207374616b6520616d6f756e74206f766572666c6f770000000000006044820152606490fd5b60405162461bcd60e51b815260206004820152601e60248201527f45544820706f6f6c206d757374206265206372656174656420666972737400006044820152606490fd5b3461031a57602036600319011261031a57610799612384565b6107a1612a7c565b6003805462010000600160b01b031916601092831b62010000600160b01b03161790819055901c6001600160a01b03167f153aae53b92218044bd5f43922617c6b253e50ac98a41b44c3acb5625ded34885f80a2005b3461031a57602036600319011261031a57600435610813612a7c565b610821600154821115612614565b805f557f63b90b79f11a0f132bcb2c4a4ddd44abda45c1308a83b2919318df7f5f8b7be45f80a2005b3461031a57610858366123d8565b61086760ff6003541615612476565b610874600554831061243c565b8115610a0657610883826123ee565b50610893600582015483116129b6565b81151590816109bc575b506108a7836123ee565b50835f52600a60205260405f2060018060a01b0333165f5260205260405f20916108d4600554861061243c565b6108dd856126ff565b82549081610965575b61094d575b5060048101906108fc848354612ede565b90156105f05761091492556003835491015490612ea3565b91901561059c57600101556040519081527f90890809c654f11d6e72a28fa60149770a0d11ec6c92319d6ceb2bb0a4ea1a1560203392a3005b6109579084612ea3565b901561064d578255846108eb565b610973600384015483612ea3565b90156106f657670de0b6b3a764000090046106c261099691600187015490612fbe565b806109a2575b506108e6565b6109b5906106e860028701918254612ede565b558661099c565b546040516323b872dd60e01b602082015233602482015230604482015260648082018590528152610a00916001600160a01b03166109fb60848361239a565b612f3b565b8361089d565b60405162461bcd60e51b815260206004820152601f60248201527f6465706f736974206e6f7420737570706f727420455448207374616b696e67006044820152606490fd5b3461031a575f36600319011261031a57610a63612a7c565b600354610a7560ff8260081c166128e0565b61ff0019166003557f07c8faf23a72a53eb5c2c466dc81386a58b2a27d0cc3c7c580a3c12e372ba3135f80a1005b3461031a57606036600319011261031a5760043560243560443591610adc6005548210610acf8161243c565b610ad7612a7c565b612978565b816005610ae8836123ee565b500155826006610af7836123ee565b5001557f30dffdedaa3e3b4849298233f7cd71d229956e875ab09270498c96b7cf9181fd5f80a4005b3461031a57604036600319011261031a57610b6f600435610b3f61236e565b90610b6a610b65825f525f5160206130755f395f51905f52602052600160405f20015490565b612aeb565b612dd0565b005b3461031a57602036600319011261031a57600435610b8d612a7c565b610b9a815f541115612614565b806001557f1132c5baccb51da3d049fabc819697dc845fa224ad59d9b555507d6446b408505f80a2005b3461031a575f36600319011261031a57610bdc612a7c565b60035460ff8116610c145760ff19166003557f027c975733baceca09666fae356a901e083676848aaf9710150079385daae7435f80a1005b606460405162461bcd60e51b815260206004820152602060248201527f77697468647261772068617320616c7265616479206265656e207061757365646044820152fd5b3461031a575f36600319011261031a5760206040515f8152f35b3461031a57602036600319011261031a57600435610c8e612a7c565b610c99811515612670565b806002557f4c70925b625536dd633f6bd2d615c67fddc2e7c63c31164047a981a0df3fee545f80a2005b3461031a575f36600319011261031a5760206040517ff47fc0c09ebbfe308d89b8035681a1164b9882bcfd49eb89861067738a30f5ab8152f35b3461031a5760a036600319011261031a57610d16612384565b60243560443560643592608435801515810361031a57610d34612a7c565b60055415610f3457610d58610d4761240a565b50546001600160a01b03161561292c565b8415610eef57600154431015610eba57610ead575b5f548043115f14610ea7575043935b610d88846004546124d0565b6004556040519160e0830183811067ffffffffffffffff821117610e935760405260018060a01b0316928383526020830191858352604084019387855260608101905f8252608081015f815260a0820185815260c0830191858352600554600160401b811015610e9357806001610e0292016005556123ee565b959095610e80577f0fa296fce13e7a0e622b3a892e66220c248337289483a3cfa4130cde0caa13469960409960069660018060a01b039051166bffffffffffffffffffffffff60a01b8954161788555160018801555160028701555160038601555160048501555160058401555191015582519182526020820152a4005b634e487b7160e01b5f525f60045260245ffd5b634e487b7160e01b5f52604160045260245ffd5b93610d7c565b610eb56127d4565b610d6d565b60405162461bcd60e51b815260206004820152600d60248201526c185b1c9958591e48195b991959609a1b6044820152606490fd5b60405162461bcd60e51b815260206004820152601e60248201527f696e76616c6964207769746864726177206c6f636b656420626c6f636b7300006044820152606490fd5b610f476001600160a01b0383161561292c565b610d58565b3461031a575f36600319011261031a576020600554604051908152f35b3461031a575f36600319011261031a576040805190610f88818361239a565b600582526020820191640352e302e360dc1b83528151928391602083525180918160208501528484015e5f828201840152601f01601f19168101030190f35b3461031a57602036600319011261031a5760043560095481101561031a576009548110156111325760095f526007027f6e1540171b6c0c960b71a7020d9f60077f6af931a8bbf590da0223dacf75c7af8101547f6e1540171b6c0c960b71a7020d9f60077f6af931a8bbf590da0223dacf75c7b08201547f6e1540171b6c0c960b71a7020d9f60077f6af931a8bbf590da0223dacf75c7b18301547f6e1540171b6c0c960b71a7020d9f60077f6af931a8bbf590da0223dacf75c7b28401547f6e1540171b6c0c960b71a7020d9f60077f6af931a8bbf590da0223dacf75c7b38501547f6e1540171b6c0c960b71a7020d9f60077f6af931a8bbf590da0223dacf75c7b48601547f6e1540171b6c0c960b71a7020d9f60077f6af931a8bbf590da0223dacf75c7b590960154604080516001600160a01b0390971687526020870195909552938501929092526060840152608083015260a082019290925260c081019190915260e090f35b634e487b7160e01b5f52603260045260245ffd5b3461031a575f36600319011261031a57602060ff60035460081c166040519015158152f35b3461031a57602036600319011261031a576001600160a01b0361118c612384565b165f52600660205260405f2080546103a760026001840154930154604051938493846040919493926060820195825260208201520152565b3461031a575f36600319011261031a5760035460405160109190911c6001600160a01b03168152602090f35b3461031a57604036600319011261031a57602061122560043561121161236e565b61121e600554831061243c565b439161251b565b604051908152f35b3461031a575f36600319011261031a576020600754604051908152f35b3461031a57611258366123d8565b6112606129fb565b61126f60ff6003541615612476565b600554821061127d8161243c565b611286836123ee565b50835f52600a60205260405f2060018060a01b0333165f5260205260405f209183835410611407576112b79061243c565b6112c0846126ff565b815491600382019184670de0b6b3a76400006112dd8554876124ea565b04946112ef60018501968754906124dd565b806113f0575b5081611361575b505061133192670de0b6b3a7640000926004611329930161131e8882546124dd565b9055549054906124ea565b0482546124d0565b90556040519081527fc80277265097707f6f12a4ac4c09d46c9926e2eea2536f63616cb04d9fcad7d660203392a3005b9061136e919492946124dd565b825560038201906113836006850154436124d0565b92604051926040840184811067ffffffffffffffff821117610e9357604052878452602084019485528054600160401b811015610e93576113c9916001820181556124b7565b949094610e8057925184559151600190930192909255909184670de0b6b3a76400006112fc565b6113ff600286019182546124d0565b9055886112f5565b60405162461bcd60e51b815260206004820152601b60248201527f696e73756666696369656e74207374616b696e6720616d6f756e7400000000006044820152606490fd5b3461031a57604036600319011261031a5761146561236e565b6004355f525f5160206130755f395f51905f5260205260405f209060018060a01b03165f52602052602060ff60405f2054166040519015158152f35b3461031a575f36600319011261031a576114b9612a7c565b6101006003546114cf60ff8260081c16156128e0565b61ff001916176003557f443bf540e8151617cd5c39a681cc35a5a22be078b6f0cf16e5bd822b4c4b61ff5f80a1005b3461031a576020611225611511366123d8565b9061283f565b3461031a575f36600319011261031a5760206040517f589d473ba17c0f47d494622893831497bad25919b9afb8e33e9521b8963fccde8152f35b3461031a575f36600319011261031a576020600254604051908152f35b3461031a575f36600319011261031a57610b6f6127d4565b3461031a575f36600319011261031a5761159e612a7c565b60035460ff8116156115da5760ff19166001176003557f2523dfdafa00190f21a4cbd0c25179c8dd3cb34a6c17fea952ecca8fa8332c0e5f80a1005b60405162461bcd60e51b815260206004820152602260248201527f77697468647261772068617320616c7265616479206265656e20756e70617573604482015261195960f21b6064820152608490fd5b3461031a575f36600319011261031a57602060ff7fcd5ed15c6e187e77e9aee88184c21f4f2182ab5827cb3b7e07fbedcd63f0330054166040519015158152f35b3461031a575f36600319011261031a577f00000000000000000000000000000000000000000000000000000000000000006001600160a01b031630036116c25760206040515f5160206130555f395f51905f528152f35b63703e46dd60e11b5f5260045ffd5b3461031a57602036600319011261031a57610b6f6004356116f5600554821061243c565b6126ff565b604036600319011261031a5761170e612384565b6024359067ffffffffffffffff821161031a573660238301121561031a5781600401359061173b826123bc565b91611749604051938461239a565b8083526020830193366024838301011161031a57815f926024602093018737840101526001600160a01b037f000000000000000000000000000000000000000000000000000000000000000016308114908115611947575b506116c257335f9081527f631d65fceddf8df681182ac849d0c3e5428086a5caa8fc5f4a5529b43a94fd45602052604090205460ff1615611910576040516352d1902d60e01b81526001600160a01b0382169390602081600481885afa5f91816118dc575b5061181e5784634c9c8ce360e01b5f5260045260245ffd5b805f5160206130555f395f51905f528692036118ca5750823b156118b8575f5160206130555f395f51905f5280546001600160a01b031916821790557fbc7cd75a20ee27fd9adebab32041f755214dbc6bffa90cc0225b39da2e5c2d3b5f80a282511561189f575f8091610b6f945190845af4611899612a35565b91612fd6565b505050346118a957005b63b398979f60e01b5f5260045ffd5b634c9c8ce360e01b5f5260045260245ffd5b632a87526960e21b5f5260045260245ffd5b9091506020813d602011611908575b816118f86020938361239a565b8101031261031a57519086611806565b3d91506118eb565b63e2517d3f60e01b5f52336004527ff47fc0c09ebbfe308d89b8035681a1164b9882bcfd49eb89861067738a30f5ab60245260445ffd5b5f5160206130555f395f51905f52546001600160a01b031614159050846117a1565b3461031a57608036600319011261031a57611982612384565b60243590604435606435905f5160206130955f395f51905f52549260ff8460401c16159367ffffffffffffffff811680159081611b4c575b6001149081611b42575b159081611b39575b50611b2a5767ffffffffffffffff1981166001175f5160206130955f395f51905f525584611afe575b50611a0282861115612614565b611a0d831515612670565b611a15612f93565b611a1d612f93565b611a2633612b31565b50611a3033612bcd565b50611a3a33612c86565b50611a43612a7c565b6003805462010000600160b01b031916601092831b62010000600160b01b0316179081905560405195911c6001600160a01b03167f153aae53b92218044bd5f43922617c6b253e50ac98a41b44c3acb5625ded34885f80a25f55600155600255611aa957005b60207fc7f505b2f371ae2175ee4913f4499e1f2633a7b5936321eed1cdaeb6115181d29168ff0000000000000000195f5160206130955f395f51905f5254165f5160206130955f395f51905f525560018152a1005b68ffffffffffffffffff191668010000000000000001175f5160206130955f395f51905f5255856119f5565b63f92ee8a960e01b5f5260045ffd5b905015876119cc565b303b1591506119c4565b8691506119ba565b3461031a575f36600319011261031a5760205f54604051908152f35b3461031a57606036600319011261031a576020611225611b8e61236e565b6044359060043561251b565b3461031a57602036600319011261031a57600435611bb66129fb565b6005548110611bc48161243c565b60ff60035460081c16611e1357611bda826123ee565b505f838152600a60209081526040808320338452909152902091611bfd9061243c565b611c06836126ff565b670de0b6b3a7640000611c21600384549301928354906124ea565b0490611c3360018401928354906124dd565b92611c4460028201948554906124d0565b9384611c94575b50670de0b6b3a764000091611c6391549054906124ea565b0490556040519081527f34fcbac0073d7c3d388e51312faf357774904998eeb8fca628b9e6f65ee1cbf760203392a3005b5f90556003546040516370a0823160e01b815230600482015260109190911c6001600160a01b031690602081602481855afa908115611d6c575f91611de1575b50808611611d7757505060035460405163a9059cbb60e01b8152336004820152602481018690529290602090849060101c6001600160a01b0316815f816044810103925af1918215611d6c57670de0b6b3a764000093611c6393611d3d575b505b915091611c4b565b611d5e9060203d602011611d65575b611d56818361239a565b810190612a64565b5087611d33565b503d611d4c565b6040513d5f823e3d90fd5b60405163a9059cbb60e01b815233600482015260248101919091529290602090849060449082905f905af1918215611d6c57670de0b6b3a764000093611c6393611dc2575b50611d35565b611dda9060203d602011611d6557611d56818361239a565b5087611dbc565b90506020813d602011611e0b575b81611dfc6020938361239a565b8101031261031a575187611cd4565b3d9150611def565b60405162461bcd60e51b815260206004820152600f60248201526e18db185a5b481a5cc81c185d5cd959608a1b6044820152606490fd5b3461031a57604036600319011261031a57611e6361236e565b6004355f52600a60205260405f209060018060a01b03165f5260205260405f2080546103a760026001840154930154604051938493846040919493926060820195825260208201520152565b3461031a57604036600319011261031a57611ec861236e565b336001600160a01b03821603611ee457610b6f90600435612dd0565b63334bd91960e11b5f5260045ffd5b3461031a575f36600319011261031a57602060ff600354166040519015158152f35b3461031a57604036600319011261031a57610b6f600435611f3461236e565b90611f5a610b65825f525f5160206130755f395f51905f52602052600160405f20015490565b612d3f565b3461031a57602036600319011261031a57600435611f7b6129fb565b611f8a60ff6003541615612476565b611f97600554821061243c565b611fa0816123ee565b505f828152600a60209081526040808320338452909152812060030180549093829182905b8082106121d7575b50505f5b611fdc8487546124dd565b81101561202b57611ff6611ff085836124d0565b876124b7565b509061200281886124b7565b610e8057826001938203612019575b505001611fd1565b80548255830154908301558780612011565b508385845f5b8181106121945750505082612072575b5060405191825243917f02f25270a4d87bea75db541cdfe559334a275b4a233520ed6c0a2429667cca9460203392a4005b546001600160a01b03168061216057505f80808085335af1612092612a35565b901561211b57805190816120aa575b50505b82612041565b6020806120bb938301019101612a64565b156120c75782806120a1565b60405162461bcd60e51b815260206004820152602660248201527f455448207472616e73666572206f7065726174696f6e20646964206e6f7420736044820152651d58d8d9595960d21b6064820152608490fd5b60405162461bcd60e51b815260206004820152601860248201527f455448207472616e736665722063616c6c206661696c656400000000000000006044820152606490fd5b60405163a9059cbb60e01b60208201523360248201526044808201859052815261218f916109fb60648361239a565b6120a4565b825480156121c3575f1901906121aa82856124b7565b929092610e80575f600184828296550155845501612031565b634e487b7160e01b5f52603160045260245ffd5b9093926121e485886124b7565b506001439101541115612229576121ff906102ed86896124b7565b925f198114612215576001809101940190611fc5565b634e487b7160e01b5f52601160045260245ffd5b9293611fcd565b3461031a57602036600319011261031a5760206112256004355f525f5160206130755f395f51905f52602052600160405f20015490565b3461031a575f36600319011261031a576008546040516001600160a01b039091168152602090f35b3461031a57604036600319011261031a576004356122ab61236e565b906122b9600554821061243c565b5f52600a60205260405f209060018060a01b03165f52602052602060405f2054604051908152f35b3461031a575f36600319011261031a576020600154604051908152f35b3461031a575f36600319011261031a576020600454604051908152f35b3461031a57602036600319011261031a576004359063ffffffff60e01b821680920361031a57602091637965db0b60e01b811490811561235d575b5015158152f35b6301ffc9a760e01b14905083612356565b602435906001600160a01b038216820361031a57565b600435906001600160a01b038216820361031a57565b90601f8019910116810190811067ffffffffffffffff821117610e9357604052565b67ffffffffffffffff8111610e9357601f01601f191660200190565b604090600319011261031a576004359060243590565b6005548110156111325760055f52600760205f20910201905f90565b600554156111325760055f9081527f036b6384b5eca791c62761152d0c79bb0604c104a5fb6f4eb0703f3154bb3db091565b1561244357565b60405162461bcd60e51b815260206004820152600b60248201526a1a5b9d985b1a59081c1a5960aa1b6044820152606490fd5b1561247d57565b60405162461bcd60e51b81526020600482015260126024820152711dda5d1a191c985dc81a5cc81c185d5cd95960721b6044820152606490fd5b8054821015611132575f5260205f209060011b01905f90565b9190820180921161221557565b9190820391821161221557565b8181029291811591840414171561221557565b8115612507570490565b634e487b7160e01b5f52601260045260245ffd5b9190612526836123ee565b50925f52600a60205260405f209060018060a01b03165f5260205260405f209060038301549260048101549160028201548082108061260b575b61259f575b50505050600261259361258861259c94670de0b6b3a764000085549104906124d0565b6001840154906124dd565b910154906124d0565b90565b9160016125b26125bb936125c49561283f565b910154906124ea565b600454906124fd565b92670de0b6b3a7640000840293808504670de0b6b3a7640000149015171561221557612588612605612593926125ff60029561259c986124fd565b906124d0565b94612565565b50831515612560565b1561261b57565b60405162461bcd60e51b815260206004820152602760248201527f737461727420626c6f636b206d757374206265206c657373207468616e20656e6044820152666420626c6f636b60c81b6064820152608490fd5b1561267757565b60405162461bcd60e51b8152602060048201526024808201527f7263632070657220626c6f636b206d75737420626520677265617465722074686044820152630616e20360e41b6064820152608490fd5b156126cf57565b60405162461bcd60e51b81526020600482015260086024820152676f766572666c6f7760c01b6044820152606490fd5b612708816123ee565b5090600282019182544311156127cf57600481015480156127c75761278561278e600361276d969461277e6127959561276661275d61275661274b438c5461283f565b600187015490612ea3565b91906126c8565b60045490612ec1565b9a906126c8565b6127796127568b612e6c565b612ec1565b94906126c8565b01918254612ede565b92906126c8565b554390556040519182527ff5d2d72d9b25d6853afd7d0554a113b705234b6a68bb36b7f14366299463241160204393a3565b505050439055565b505050565b6005545f5b8181106127e4575050565b6001906127f4600554821061243c565b6127fd816126ff565b016127d9565b1561280a57565b60405162461bcd60e51b815260206004820152600d60248201526c696e76616c69642072616e676560981b6044820152606490fd5b6128839061288c9261285381831115612803565b5f548083106128d8575b506001548082116128d0575b5061287e61287783836124dd565b1515612803565b6124dd565b60025490612ea3565b91901561289557565b60405162461bcd60e51b81526020600482015260136024820152726d756c7469706c696572206f766572666c6f7760681b6044820152606490fd5b90505f612869565b91505f61285d565b156128e757565b60405162461bcd60e51b815260206004820152601f60248201527f636c61696d2068617320616c7265616479206265656e20756e706175736564006044820152606490fd5b1561293357565b60405162461bcd60e51b815260206004820152601f60248201527f74686520666972737420706f6f6c206d7573742062652045544820706f6f6c006044820152606490fd5b1561297f57565b60405162461bcd60e51b815260206004820152600f60248201526e1a5b9d985b1a59081c1bdbdb081a59608a1b6044820152606490fd5b156129bd57565b60405162461bcd60e51b81526020600482015260166024820152751a5b9d985b1a590819195c1bdcda5d08185b5bdd5b9d60521b6044820152606490fd5b60ff7fcd5ed15c6e187e77e9aee88184c21f4f2182ab5827cb3b7e07fbedcd63f033005416612a2657565b63d93c066560e01b5f5260045ffd5b3d15612a5f573d90612a46826123bc565b91612a54604051938461239a565b82523d5f602084013e565b606090565b9081602091031261031a5751801515810361031a5790565b335f9081527f815c33bd98d444bcaa7dfb99335d415d1e5d00cd15dfa75058f74fb29033f5e9602052604090205460ff1615612ab457565b63e2517d3f60e01b5f52336004527f589d473ba17c0f47d494622893831497bad25919b9afb8e33e9521b8963fccde60245260445ffd5b5f8181525f5160206130755f395f51905f526020908152604080832033845290915290205460ff1615612b1b5750565b63e2517d3f60e01b5f523360045260245260445ffd5b6001600160a01b0381165f9081527fb7db2dd08fcb62d0c9e08c51941cae53c267786a0b75803fb7960902fc8ef97d602052604090205460ff16612bc8576001600160a01b03165f8181527fb7db2dd08fcb62d0c9e08c51941cae53c267786a0b75803fb7960902fc8ef97d60205260408120805460ff191660011790553391905f5160206130355f395f51905f528180a4600190565b505f90565b6001600160a01b0381165f9081527f631d65fceddf8df681182ac849d0c3e5428086a5caa8fc5f4a5529b43a94fd45602052604090205460ff16612bc8576001600160a01b03165f8181527f631d65fceddf8df681182ac849d0c3e5428086a5caa8fc5f4a5529b43a94fd4560205260408120805460ff191660011790553391907ff47fc0c09ebbfe308d89b8035681a1164b9882bcfd49eb89861067738a30f5ab905f5160206130355f395f51905f529080a4600190565b6001600160a01b0381165f9081527f815c33bd98d444bcaa7dfb99335d415d1e5d00cd15dfa75058f74fb29033f5e9602052604090205460ff16612bc8576001600160a01b03165f8181527f815c33bd98d444bcaa7dfb99335d415d1e5d00cd15dfa75058f74fb29033f5e960205260408120805460ff191660011790553391907f589d473ba17c0f47d494622893831497bad25919b9afb8e33e9521b8963fccde905f5160206130355f395f51905f529080a4600190565b5f8181525f5160206130755f395f51905f52602090815260408083206001600160a01b038616845290915290205460ff16612dca575f8181525f5160206130755f395f51905f52602090815260408083206001600160a01b0395909516808452949091528120805460ff19166001179055339291905f5160206130355f395f51905f529080a4600190565b50505f90565b5f8181525f5160206130755f395f51905f52602090815260408083206001600160a01b038616845290915290205460ff1615612dca575f8181525f5160206130755f395f51905f52602090815260408083206001600160a01b0395909516808452949091528120805460ff19169055339291907ff6391f5c32d9c69d2a47ea670b442974b53935d1edc7fd64eb21e047a839171b9080a4600190565b908115612e9b57670de0b6b3a7640000612e8981840293846124fd565b03612e945760019190565b5f91508190565b600191505f90565b91908215612eb857612e8981840293846124fd565b50600191505f90565b908015612ed657612ed1916124fd565b600191565b50505f905f90565b91908201918210612e945760019190565b15612ef657565b60405162461bcd60e51b815260206004820152601860248201527f70656e64696e672072657761726473206f766572666c6f7700000000000000006044820152606490fd5b905f602091828151910182855af115611d6c575f513d612f8a57506001600160a01b0381163b155b612f6a5750565b635274afe760e01b5f9081526001600160a01b0391909116600452602490fd5b60011415612f63565b60ff5f5160206130955f395f51905f525460401c1615612faf57565b631afcd79f60e31b5f5260045ffd5b9190828111612fce576001920390565b505f91508190565b90612ffa5750805115612feb57805190602001fd5b63d6bda27560e01b5f5260045ffd5b8151158061302b575b61300b575090565b639996b31560e01b5f9081526001600160a01b0391909116600452602490fd5b50803b1561300356fe2f8788117e7eff1d82e926ec794901d17c78024a50270940304540a733656f0d360894a13ba1a3210667c828492db98dca3e2076cc3735a920a3ca505d382bbc02dd7bc7dec4dceedda775e58dd541e08a116c6c53815c0bd028192f7b626800f0c57e16840df040f15088dc2f81fe391c3923bec73e23a9662efc9c229c6a00a2646970667358221220761c070a50fa669ba3894b9f4970584ba5f922b967415f5aaaab463a5c0e8eba64736f6c634300081c0033","linkReferences":{}},"methodIdentifiers":{"ADMIN_ROLE()":"75b238fc","DEFAULT_ADMIN_ROLE()":"a217fddf","ETH_PID()":"bfc3ebba","RCC()":"a72d5bf4","UPGRADE_INTERFACE_VERSION()":"ad3cb1cc","UPGRADE_ROLE()":"b908afa8","addPool(address,uint256,uint256,uint256,bool)":"b6d9d919","claim(uint256)":"379607f5","claimPaused()":"ab5e124a","deposit(uint256,uint256)":"e2bbb158","depositETH()":"f6326fb3","endBlock()":"083c6323","getMultiplier(uint256,uint256)":"8dbb1e3a","getPendingRCC(uint256,address)":"a27d9279","getPoolLength()":"b3944d52","getRoleAdmin(bytes32)":"248a9ca3","grantRole(bytes32,address)":"2f2ff15d","hasRole(bytes32,address)":"91d14854","initialize(address,uint256,uint256,uint256)":"4ec81af1","massUpdatePools()":"630b5ba1","pauseClaim()":"8ff095f9","pauseWithdraw()":"6155e3de","paused()":"5c975abb","pendingRCCByBlockNumber(uint256,address,uint256)":"41721ab7","pool(uint256)":"fe313112","pools(uint256)":"ac4afa38","proxiableUUID()":"52d1902d","rccPerBlock()":"70ff0173","renounceRole(bytes32,address)":"36568abe","revokeRole(bytes32,address)":"d547741f","setEndBlock(uint256)":"c713aa94","setPoolWeight(uint256,uint256,bool)":"fad07ece","setRCC(address)":"f5485d32","setRCCPerBlock(uint256)":"bed66c08","setStartBlock(uint256)":"f35e4a6e","stToken()":"23b6443e","stakingBalance(uint256,address)":"11548234","startBlock()":"48cd4cb1","supportsInterface(bytes4)":"01ffc9a7","totalPoolWeight()":"02559004","unpPauseWithdraw()":"c397920e","unpauseClaim()":"de065caa","unstake(uint256,uint256)":"9e2c8a5b","unstakeReleaseBlocks()":"a17bff83","updatePool(uint256)":"51eb05a6","updatePool(uint256,uint256,uint256)":"d86c0444","upgradeToAndCall(address,bytes)":"4f1ef286","user(uint256,address)":"37849b3c","users(address)":"a87430ba","withdraw(uint256)":"2e1a7d4d","withdrawAmount(uint256,address)":"ff423357","withdrawPaused()":"2f3ffb9f"},"id":1}