{"contracts/rcc-stake.sol":{"RCCStake":{"abi":[{"inputs":[],"name":"AccessControlBadConfirmation","type":"error"},{"inputs":[{"internalType":"address","name":"account","type":"address"},{"internalType":"bytes32","name":"neededRole","type":"bytes32"}],"name":"AccessControlUnauthorizedAccount","type":"error"},{"inputs":[{"internalType":"address","name":"target","type":"address"}],"name":"AddressEmptyCode","type":"error"},{"inputs":[{"internalType":"address","name":"implementation","type":"address"}],"name":"ERC1967InvalidImplementation","type":"error"},{"inputs":[],"name":"ERC1967NonPayable","type":"error"},{"inputs":[],"name":"EnforcedPause","type":"error"},{"inputs":[],"name":"ExpectedPause","type":"error"},{"inputs":[],"name":"FailedCall","type":"error"},{"inputs":[],"name":"InvalidInitialization","type":"error"},{"inputs":[],"name":"NotInitializing","type":"error"},{"inputs":[{"internalType":"address","name":"token","type":"address"}],"name":"SafeERC20FailedOperation","type":"error"},{"inputs":[],"name":"UUPSUnauthorizedCallContext","type":"error"},{"inputs":[{"internalType":"bytes32","name":"slot","type":"bytes32"}],"name":"UUPSUnsupportedProxiableUUID","type":"error"},{"anonymous":false,"inputs":[{"indexed":true,"internalType":"address","name":"stakeTokenAddress","type":"address"},{"indexed":true,"internalType":"uint256","name":"poolWeight","type":"uint256"},{"indexed":true,"internalType":"uint256","name":"lastRewardBlock","type":"uint256"},{"indexed":false,"internalType":"uint256","name":"minDepositAmount","type":"uint256"},{"indexed":false,"internalType":"uint256","name":"unStakeLockedBlocks","type":"uint256"}],"name":"AddPool","type":"event"},{"anonymous":false,"inputs":[{"indexed":true,"internalType":"address","name":"user","type":"address"},{"indexed":true,"internalType":"uint256","name":"poolId","type":"uint256"},{"indexed":false,"internalType":"uint256","name":"RccReward","type":"uint256"}],"name":"Claim","type":"event"},{"anonymous":false,"inputs":[{"indexed":true,"internalType":"address","name":"user","type":"address"},{"indexed":true,"internalType":"uint256","name":"poolId","type":"uint256"},{"indexed":false,"internalType":"uint256","name":"amount","type":"uint256"}],"name":"Deposit","type":"event"},{"anonymous":false,"inputs":[{"indexed":true,"internalType":"address","name":"user","type":"address"},{"indexed":true,"internalType":"address","name":"pid","type":"address"},{"indexed":false,"internalType":"uint256","name":"amount","type":"uint256"}],"name":"GetRewards","type":"event"},{"anonymous":false,"inputs":[{"indexed":false,"internalType":"uint64","name":"version","type":"uint64"}],"name":"Initialized","type":"event"},{"anonymous":false,"inputs":[{"indexed":false,"internalType":"address","name":"account","type":"address"}],"name":"Paused","type":"event"},{"anonymous":false,"inputs":[],"name":"PausedClaim","type":"event"},{"anonymous":false,"inputs":[],"name":"PausedWithdraw","type":"event"},{"anonymous":false,"inputs":[{"indexed":true,"internalType":"address","name":"user","type":"address"},{"indexed":true,"internalType":"uint256","name":"poolId","type":"uint256"},{"indexed":false,"internalType":"uint256","name":"amount","type":"uint256"}],"name":"RequestUnstake","type":"event"},{"anonymous":false,"inputs":[{"indexed":true,"internalType":"bytes32","name":"role","type":"bytes32"},{"indexed":true,"internalType":"bytes32","name":"previousAdminRole","type":"bytes32"},{"indexed":true,"internalType":"bytes32","name":"newAdminRole","type":"bytes32"}],"name":"RoleAdminChanged","type":"event"},{"anonymous":false,"inputs":[{"indexed":true,"internalType":"bytes32","name":"role","type":"bytes32"},{"indexed":true,"internalType":"address","name":"account","type":"address"},{"indexed":true,"internalType":"address","name":"sender","type":"address"}],"name":"RoleGranted","type":"event"},{"anonymous":false,"inputs":[{"indexed":true,"internalType":"bytes32","name":"role","type":"bytes32"},{"indexed":true,"internalType":"address","name":"account","type":"address"},{"indexed":true,"internalType":"address","name":"sender","type":"address"}],"name":"RoleRevoked","type":"event"},{"anonymous":false,"inputs":[{"indexed":true,"internalType":"uint256","name":"endBlock","type":"uint256"}],"name":"SetEndBlock","type":"event"},{"anonymous":false,"inputs":[{"indexed":true,"internalType":"uint256","name":"poolId","type":"uint256"},{"indexed":false,"internalType":"uint256","name":"poolWeight","type":"uint256"},{"indexed":false,"internalType":"uint256","name":"totalPoolWeight","type":"uint256"}],"name":"SetPoolWeight","type":"event"},{"anonymous":false,"inputs":[{"indexed":true,"internalType":"contract IERC20","name":"RCC","type":"address"}],"name":"SetRCC","type":"event"},{"anonymous":false,"inputs":[{"indexed":true,"internalType":"uint256","name":"rccPerBlock","type":"uint256"}],"name":"SetRCCPerBlock","type":"event"},{"anonymous":false,"inputs":[{"indexed":true,"internalType":"uint256","name":"startBlock","type":"uint256"}],"name":"SetStartBlock","type":"event"},{"anonymous":false,"inputs":[{"indexed":true,"internalType":"address","name":"user","type":"address"},{"indexed":true,"internalType":"address","name":"pid","type":"address"},{"indexed":false,"internalType":"uint256","name":"amount","type":"uint256"}],"name":"Stake","type":"event"},{"anonymous":false,"inputs":[{"indexed":true,"internalType":"address","name":"user","type":"address"},{"indexed":true,"internalType":"address","name":"pid","type":"address"},{"indexed":false,"internalType":"uint256","name":"amount","type":"uint256"}],"name":"UnStake","type":"event"},{"anonymous":false,"inputs":[{"indexed":false,"internalType":"address","name":"account","type":"address"}],"name":"Unpaused","type":"event"},{"anonymous":false,"inputs":[],"name":"UnpausedClaim","type":"event"},{"anonymous":false,"inputs":[],"name":"UnpausedWithdraw","type":"event"},{"anonymous":false,"inputs":[{"indexed":true,"internalType":"uint256","name":"poolId","type":"uint256"},{"indexed":true,"internalType":"uint256","name":"lastRewardBlock","type":"uint256"},{"indexed":false,"internalType":"uint256","name":"totalRCC","type":"uint256"}],"name":"UpdatePool","type":"event"},{"anonymous":false,"inputs":[{"indexed":true,"internalType":"uint256","name":"poolId","type":"uint256"},{"indexed":true,"internalType":"uint256","name":"minDepositAmount","type":"uint256"},{"indexed":true,"internalType":"uint256","name":"unStakeLockedBlocks","type":"uint256"}],"name":"UpdatePoolInfo","type":"event"},{"anonymous":false,"inputs":[{"indexed":true,"internalType":"address","name":"implementation","type":"address"}],"name":"Upgraded","type":"event"},{"anonymous":false,"inputs":[{"indexed":true,"internalType":"address","name":"user","type":"address"},{"indexed":true,"internalType":"uint256","name":"poolId","type":"uint256"},{"indexed":false,"internalType":"uint256","name":"amount","type":"uint256"},{"indexed":true,"internalType":"uint256","name":"blockNumber","type":"uint256"}],"name":"Withdraw","type":"event"},{"inputs":[],"name":"ADMIN_ROLE","outputs":[{"internalType":"bytes32","name":"","type":"bytes32"}],"stateMutability":"view","type":"function"},{"inputs":[],"name":"DEFAULT_ADMIN_ROLE","outputs":[{"internalType":"bytes32","name":"","type":"bytes32"}],"stateMutability":"view","type":"function"},{"inputs":[],"name":"ETH_PID","outputs":[{"internalType":"uint256","name":"","type":"uint256"}],"stateMutability":"view","type":"function"},{"inputs":[],"name":"RCC","outputs":[{"internalType":"contract IERC20","name":"","type":"address"}],"stateMutability":"view","type":"function"},{"inputs":[],"name":"UPGRADE_INTERFACE_VERSION","outputs":[{"internalType":"string","name":"","type":"string"}],"stateMutability":"view","type":"function"},{"inputs":[],"name":"UPGRADE_ROLE","outputs":[{"internalType":"bytes32","name":"","type":"bytes32"}],"stateMutability":"view","type":"function"},{"inputs":[{"internalType":"address","name":"_stakeTokenAddress","type":"address"},{"internalType":"uint256","name":"_poolWeight","type":"uint256"},{"internalType":"uint256","name":"_minDepositAmount","type":"uint256"},{"internalType":"uint256","name":"_unStakeLockedBlocks","type":"uint256"},{"internalType":"bool","name":"_withUpdate","type":"bool"}],"name":"addPool","outputs":[],"stateMutability":"nonpayable","type":"function"},{"inputs":[{"internalType":"uint256","name":"_pid","type":"uint256"}],"name":"claim","outputs":[],"stateMutability":"nonpayable","type":"function"},{"inputs":[],"name":"claimPaused","outputs":[{"internalType":"bool","name":"","type":"bool"}],"stateMutability":"view","type":"function"},{"inputs":[{"internalType":"uint256","name":"_pid","type":"uint256"},{"internalType":"uint256","name":"_amount","type":"uint256"}],"name":"deposit","outputs":[],"stateMutability":"nonpayable","type":"function"},{"inputs":[],"name":"depositETH","outputs":[],"stateMutability":"payable","type":"function"},{"inputs":[],"name":"endBlock","outputs":[{"internalType":"uint256","name":"","type":"uint256"}],"stateMutability":"view","type":"function"},{"inputs":[{"internalType":"uint256","name":"_from","type":"uint256"},{"internalType":"uint256","name":"_to","type":"uint256"}],"name":"getMultiplier","outputs":[{"internalType":"uint256","name":"multiplier","type":"uint256"}],"stateMutability":"view","type":"function"},{"inputs":[{"internalType":"uint256","name":"_poolId","type":"uint256"},{"internalType":"address","name":"_user","type":"address"}],"name":"getPendingRCC","outputs":[{"internalType":"uint256","name":"","type":"uint256"}],"stateMutability":"view","type":"function"},{"inputs":[],"name":"getPoolLength","outputs":[{"internalType":"uint256","name":"","type":"uint256"}],"stateMutability":"view","type":"function"},{"inputs":[{"internalType":"bytes32","name":"role","type":"bytes32"}],"name":"getRoleAdmin","outputs":[{"internalType":"bytes32","name":"","type":"bytes32"}],"stateMutability":"view","type":"function"},{"inputs":[{"internalType":"bytes32","name":"role","type":"bytes32"},{"internalType":"address","name":"account","type":"address"}],"name":"grantRole","outputs":[],"stateMutability":"nonpayable","type":"function"},{"inputs":[{"internalType":"bytes32","name":"role","type":"bytes32"},{"internalType":"address","name":"account","type":"address"}],"name":"hasRole","outputs":[{"internalType":"bool","name":"","type":"bool"}],"stateMutability":"view","type":"function"},{"inputs":[{"internalType":"contract IERC20","name":"_RCC","type":"address"},{"internalType":"uint256","name":"_startBlock","type":"uint256"},{"internalType":"uint256","name":"_endBlock","type":"uint256"},{"internalType":"uint256","name":"_rccPerBlock","type":"uint256"}],"name":"initialize","outputs":[],"stateMutability":"nonpayable","type":"function"},{"inputs":[],"name":"massUpdatePools","outputs":[],"stateMutability":"nonpayable","type":"function"},{"inputs":[],"name":"pauseClaim","outputs":[],"stateMutability":"nonpayable","type":"function"},{"inputs":[],"name":"pauseWithdraw","outputs":[],"stateMutability":"nonpayable","type":"function"},{"inputs":[],"name":"paused","outputs":[{"internalType":"bool","name":"","type":"bool"}],"stateMutability":"view","type":"function"},{"inputs":[{"internalType":"uint256","name":"_poolId","type":"uint256"},{"internalType":"address","name":"_user","type":"address"},{"internalType":"uint256","name":"_blockNumber","type":"uint256"}],"name":"pendingRCCByBlockNumber","outputs":[{"internalType":"uint256","name":"","type":"uint256"}],"stateMutability":"view","type":"function"},{"inputs":[{"internalType":"uint256","name":"","type":"uint256"}],"name":"pool","outputs":[{"internalType":"address","name":"stakeTokenAddress","type":"address"},{"internalType":"uint256","name":"poolWeight","type":"uint256"},{"internalType":"uint256","name":"lastRewardBlock","type":"uint256"},{"internalType":"uint256","name":"accumulateRewardsPerStake","type":"uint256"},{"internalType":"uint256","name":"stakeTokenAmount","type":"uint256"},{"internalType":"uint256","name":"minDepositAmount","type":"uint256"},{"internalType":"uint256","name":"unStakeLockedBlocks","type":"uint256"}],"stateMutability":"view","type":"function"},{"inputs":[{"internalType":"uint256","name":"","type":"uint256"}],"name":"pools","outputs":[{"internalType":"address","name":"stakeTokenAddress","type":"address"},{"internalType":"uint256","name":"poolWeight","type":"uint256"},{"internalType":"uint256","name":"lastRewardBlock","type":"uint256"},{"internalType":"uint256","name":"accumulateRewardsPerStake","type":"uint256"},{"internalType":"uint256","name":"stakeTokenAmount","type":"uint256"},{"internalType":"uint256","name":"minDepositAmount","type":"uint256"},{"internalType":"uint256","name":"unStakeLockedBlocks","type":"uint256"}],"stateMutability":"view","type":"function"},{"inputs":[],"name":"proxiableUUID","outputs":[{"internalType":"bytes32","name":"","type":"bytes32"}],"stateMutability":"view","type":"function"},{"inputs":[],"name":"rccPerBlock","outputs":[{"internalType":"uint256","name":"","type":"uint256"}],"stateMutability":"view","type":"function"},{"inputs":[{"internalType":"bytes32","name":"role","type":"bytes32"},{"internalType":"address","name":"callerConfirmation","type":"address"}],"name":"renounceRole","outputs":[],"stateMutability":"nonpayable","type":"function"},{"inputs":[{"internalType":"bytes32","name":"role","type":"bytes32"},{"internalType":"address","name":"account","type":"address"}],"name":"revokeRole","outputs":[],"stateMutability":"nonpayable","type":"function"},{"inputs":[{"internalType":"uint256","name":"_endBlock","type":"uint256"}],"name":"setEndBlock","outputs":[],"stateMutability":"nonpayable","type":"function"},{"inputs":[{"internalType":"uint256","name":"_poolId","type":"uint256"},{"internalType":"uint256","name":"_poolWeight","type":"uint256"},{"internalType":"bool","name":"_withUpdate","type":"bool"}],"name":"setPoolWeight","outputs":[],"stateMutability":"nonpayable","type":"function"},{"inputs":[{"internalType":"contract IERC20","name":"_RCC","type":"address"}],"name":"setRCC","outputs":[],"stateMutability":"nonpayable","type":"function"},{"inputs":[{"internalType":"uint256","name":"_rccPerBlock","type":"uint256"}],"name":"setRCCPerBlock","outputs":[],"stateMutability":"nonpayable","type":"function"},{"inputs":[{"internalType":"uint256","name":"_startBlock","type":"uint256"}],"name":"setStartBlock","outputs":[],"stateMutability":"nonpayable","type":"function"},{"inputs":[],"name":"stToken","outputs":[{"internalType":"contract IERC20","name":"","type":"address"}],"stateMutability":"view","type":"function"},{"inputs":[{"internalType":"uint256","name":"_pid","type":"uint256"},{"internalType":"address","name":"_user","type":"address"}],"name":"stakingBalance","outputs":[{"internalType":"uint256","name":"","type":"uint256"}],"stateMutability":"view","type":"function"},{"inputs":[],"name":"startBlock","outputs":[{"internalType":"uint256","name":"","type":"uint256"}],"stateMutability":"view","type":"function"},{"inputs":[{"internalType":"bytes4","name":"interfaceId","type":"bytes4"}],"name":"supportsInterface","outputs":[{"internalType":"bool","name":"","type":"bool"}],"stateMutability":"view","type":"function"},{"inputs":[],"name":"totalPoolWeight","outputs":[{"internalType":"uint256","name":"","type":"uint256"}],"stateMutability":"view","type":"function"},{"inputs":[],"name":"unpPauseWithdraw","outputs":[],"stateMutability":"nonpayable","type":"function"},{"inputs":[],"name":"unpauseClaim","outputs":[],"stateMutability":"nonpayable","type":"function"},{"inputs":[{"internalType":"uint256","name":"_pid","type":"uint256"},{"internalType":"uint256","name":"_amount","type":"uint256"}],"name":"unstake","outputs":[],"stateMutability":"nonpayable","type":"function"},{"inputs":[],"name":"unstakeReleaseBlocks","outputs":[{"internalType":"uint256","name":"","type":"uint256"}],"stateMutability":"view","type":"function"},{"inputs":[{"internalType":"uint256","name":"_pid","type":"uint256"}],"name":"updatePool","outputs":[],"stateMutability":"nonpayable","type":"function"},{"inputs":[{"internalType":"uint256","name":"_poolId","type":"uint256"},{"internalType":"uint256","name":"_minDepositAmount","type":"uint256"},{"internalType":"uint256","name":"_unStakeLockedBlocks","type":"uint256"}],"name":"updatePool","outputs":[],"stateMutability":"nonpayable","type":"function"},{"inputs":[{"internalType":"address","name":"newImplementation","type":"address"},{"internalType":"bytes","name":"data","type":"bytes"}],"name":"upgradeToAndCall","outputs":[],"stateMutability":"payable","type":"function"},{"inputs":[{"internalType":"uint256","name":"","type":"uint256"},{"internalType":"address","name":"","type":"address"}],"name":"user","outputs":[{"internalType":"uint256","name":"stakeAmount","type":"uint256"},{"internalType":"uint256","name":"finishedRewards","type":"uint256"},{"internalType":"uint256","name":"pendingRewards","type":"uint256"}],"stateMutability":"view","type":"function"},{"inputs":[{"internalType":"address","name":"","type":"address"}],"name":"users","outputs":[{"internalType":"uint256","name":"stakeAmount","type":"uint256"},{"internalType":"uint256","name":"finishedRewards","type":"uint256"},{"internalType":"uint256","name":"pendingRewards","type":"uint256"}],"stateMutability":"view","type":"function"},{"inputs":[{"internalType":"uint256","name":"_pid","type":"uint256"}],"name":"withdraw","outputs":[],"stateMutability":"nonpayable","type":"function"},{"inputs":[{"internalType":"uint256","name":"_poolId","type":"uint256"},{"internalType":"address","name":"_user","type":"address"}],"name":"withdrawAmount","outputs":[{"internalType":"uint256","name":"requestAmount","type":"uint256"},{"internalType":"uint256","name":"pendingWithdrawAmount","type":"uint256"}],"stateMutability":"view","type":"function"},{"inputs":[],"name":"withdrawPaused","outputs":[{"internalType":"bool","name":"","type":"bool"}],"stateMutability":"view","type":"function"}],"evm":{"bytecode":{"linkReferences":{},"object":"60a06040523073ffffffffffffffffffffffffffffffffffffffff1660809073ffffffffffffffffffffffffffffffffffffffff16815250348015604257600080fd5b50608051615a8261006c600039600081816139b301528181613a080152613c9e0152615a826000f3fe6080604052600436106102ff5760003560e01c80639e2c8a5b11610190578063bfc3ebba116100dc578063e2bbb15811610095578063f6326fb31161006f578063f6326fb314610b41578063fad07ece14610b4b578063fe31311214610b74578063ff42335714610bb7576102ff565b8063e2bbb15814610ac6578063f35e4a6e14610aef578063f5485d3214610b18576102ff565b8063bfc3ebba146109f2578063c397920e14610a1d578063c713aa9414610a34578063d547741f14610a5d578063d86c044414610a86578063de065caa14610aaf576102ff565b8063ab5e124a11610149578063b3944d5211610123578063b3944d521461094a578063b6d9d91914610975578063b908afa81461099e578063bed66c08146109c9576102ff565b8063ab5e124a146108b1578063ac4afa38146108dc578063ad3cb1cc1461091f576102ff565b80639e2c8a5b1461078b578063a17bff83146107b4578063a217fddf146107df578063a27d92791461080a578063a72d5bf414610847578063a87430ba14610872576102ff565b806348cd4cb11161024f5780636155e3de1161020857806375b238fc116101e257806375b238fc146106cf5780638dbb1e3a146106fa5780638ff095f91461073757806391d148541461074e576102ff565b80636155e3de14610676578063630b5ba11461068d57806370ff0173146106a4576102ff565b806348cd4cb1146105875780634ec81af1146105b25780634f1ef286146105db57806351eb05a6146105f757806352d1902d146106205780635c975abb1461064b576102ff565b80632e1a7d4d116102bc57806336568abe1161029657806336568abe146104b957806337849b3c146104e2578063379607f51461052157806341721ab71461054a576102ff565b80632e1a7d4d1461043c5780632f2ff15d146104655780632f3ffb9f1461048e576102ff565b806301ffc9a7146103045780630255900414610341578063083c63231461036c578063115482341461039757806323b6443e146103d4578063248a9ca3146103ff575b600080fd5b34801561031057600080fd5b5061032b6004803603810190610326919061434b565b610bf5565b6040516103389190614393565b60405180910390f35b34801561034d57600080fd5b50610356610c6f565b60405161036391906143c7565b60405180910390f35b34801561037857600080fd5b50610381610c75565b60405161038e91906143c7565b60405180910390f35b3480156103a357600080fd5b506103be60048036038101906103b9919061446c565b610c7b565b6040516103cb91906143c7565b60405180910390f35b3480156103e057600080fd5b506103e9610d22565b6040516103f6919061450b565b60405180910390f35b34801561040b57600080fd5b506104266004803603810190610421919061455c565b610d48565b6040516104339190614598565b60405180910390f35b34801561044857600080fd5b50610463600480360381019061045e91906145b3565b610d76565b005b34801561047157600080fd5b5061048c600480360381019061048791906145e0565b611129565b005b34801561049a57600080fd5b506104a361114b565b6040516104b09190614393565b60405180910390f35b3480156104c557600080fd5b506104e060048036038101906104db91906145e0565b61115e565b005b3480156104ee57600080fd5b506105096004803603810190610504919061446c565b6111d9565b60405161051893929190614620565b60405180910390f35b34801561052d57600080fd5b50610548600480360381019061054391906145b3565b611210565b005b34801561055657600080fd5b50610571600480360381019061056c9190614657565b61141f565b60405161057e91906143c7565b60405180910390f35b34801561059357600080fd5b5061059c611575565b6040516105a991906143c7565b60405180910390f35b3480156105be57600080fd5b506105d960048036038101906105d491906146e8565b61157b565b005b6105f560048036038101906105f09190614895565b61181c565b005b34801561060357600080fd5b5061061e600480360381019061061991906145b3565b61183b565b005b34801561062c57600080fd5b50610635611b2e565b6040516106429190614598565b60405180910390f35b34801561065757600080fd5b50610660611b61565b60405161066d9190614393565b60405180910390f35b34801561068257600080fd5b5061068b611b86565b005b34801561069957600080fd5b506106a2611c49565b005b3480156106b057600080fd5b506106b9611c78565b6040516106c691906143c7565b60405180910390f35b3480156106db57600080fd5b506106e4611c7e565b6040516106f19190614598565b60405180910390f35b34801561070657600080fd5b50610721600480360381019061071c91906148f1565b611ca2565b60405161072e91906143c7565b60405180910390f35b34801561074357600080fd5b5061074c611dc6565b005b34801561075a57600080fd5b50610775600480360381019061077091906145e0565b611e8a565b6040516107829190614393565b60405180910390f35b34801561079757600080fd5b506107b260048036038101906107ad91906148f1565b611f03565b005b3480156107c057600080fd5b506107c961220b565b6040516107d691906143c7565b60405180910390f35b3480156107eb57600080fd5b506107f4612211565b6040516108019190614598565b60405180910390f35b34801561081657600080fd5b50610831600480360381019061082c919061446c565b612218565b60405161083e91906143c7565b60405180910390f35b34801561085357600080fd5b5061085c612276565b604051610869919061450b565b60405180910390f35b34801561087e57600080fd5b5061089960048036038101906108949190614931565b61229c565b6040516108a893929190614620565b60405180910390f35b3480156108bd57600080fd5b506108c66122c6565b6040516108d39190614393565b60405180910390f35b3480156108e857600080fd5b5061090360048036038101906108fe91906145b3565b6122d9565b604051610916979695949392919061496d565b60405180910390f35b34801561092b57600080fd5b5061093461234b565b6040516109419190614a5b565b60405180910390f35b34801561095657600080fd5b5061095f612384565b60405161096c91906143c7565b60405180910390f35b34801561098157600080fd5b5061099c60048036038101906109979190614aa9565b612391565b005b3480156109aa57600080fd5b506109b361270e565b6040516109c09190614598565b60405180910390f35b3480156109d557600080fd5b506109f060048036038101906109eb91906145b3565b612732565b005b3480156109fe57600080fd5b50610a076127d7565b604051610a1491906143c7565b60405180910390f35b348015610a2957600080fd5b50610a326127dc565b005b348015610a4057600080fd5b50610a5b6004803603810190610a5691906145b3565b6128a0565b005b348015610a6957600080fd5b50610a846004803603810190610a7f91906145e0565b612947565b005b348015610a9257600080fd5b50610aad6004803603810190610aa89190614b24565b612969565b005b348015610abb57600080fd5b50610ac4612aac565b005b348015610ad257600080fd5b50610aed6004803603810190610ae891906148f1565b612b6f565b005b348015610afb57600080fd5b50610b166004803603810190610b1191906145b3565b612d21565b005b348015610b2457600080fd5b50610b3f6004803603810190610b3a9190614b77565b612dc8565b005b610b49612e9c565b005b348015610b5757600080fd5b50610b726004803603810190610b6d9190614ba4565b612fb8565b005b348015610b8057600080fd5b50610b9b6004803603810190610b9691906145b3565b61312b565b604051610bae979695949392919061496d565b60405180910390f35b348015610bc357600080fd5b50610bde6004803603810190610bd9919061446c565b61319d565b604051610bec929190614bf7565b60405180910390f35b60007f7965db0b000000000000000000000000000000000000000000000000000000007bffffffffffffffffffffffffffffffffffffffffffffffffffffffff1916827bffffffffffffffffffffffffffffffffffffffffffffffffffffffff19161480610c685750610c67826132fe565b5b9050919050565b60045481565b60015481565b6000826005805490508110610cc5576040517f08c379a0000000000000000000000000000000000000000000000000000000008152600401610cbc90614c6c565b60405180910390fd5b600a600085815260200190815260200160002060008473ffffffffffffffffffffffffffffffffffffffff1673ffffffffffffffffffffffffffffffffffffffff1681526020019081526020016000206000015491505092915050565b600860009054906101000a900473ffffffffffffffffffffffffffffffffffffffff1681565b600080610d53613368565b905080600001600084815260200190815260200160002060010154915050919050565b610d7e613390565b600360009054906101000a900460ff1615610dce576040517f08c379a0000000000000000000000000000000000000000000000000000000008152600401610dc590614cd8565b60405180910390fd5b806005805490508110610e16576040517f08c379a0000000000000000000000000000000000000000000000000000000008152600401610e0d90614c6c565b60405180910390fd5b600060058381548110610e2c57610e2b614cf8565b5b906000526020600020906007020190506000600a600085815260200190815260200160002060003373ffffffffffffffffffffffffffffffffffffffff1673ffffffffffffffffffffffffffffffffffffffff168152602001908152602001600020905060008060005b8360030180549050811015610f245743846003018281548110610ebc57610ebb614cf8565b5b9060005260206000209060020201600101541115610f2457836003018181548110610eea57610ee9614cf8565b5b90600052602060002090600202016000015483610f079190614d56565b92508180610f1490614d8a565b9250508080600101915050610e96565b5060005b818460030180549050610f3b9190614dd2565b811015610fb957836003018282610f529190614d56565b81548110610f6357610f62614cf8565b5b9060005260206000209060020201846003018281548110610f8757610f86614cf8565b5b906000526020600020906002020160008201548160000155600182015481600101559050508080600101915050610f28565b5060005b8181101561100f5783600301805480610fd957610fd8614e06565b5b60019003818190600052602060002090600202016000808201600090556001820160009055505090558080600101915050610fbd565b5060008211156110d157600073ffffffffffffffffffffffffffffffffffffffff168460000160009054906101000a900473ffffffffffffffffffffffffffffffffffffffff1673ffffffffffffffffffffffffffffffffffffffff16036110805761107b33836133d1565b6110d0565b6110cf33838660000160009054906101000a900473ffffffffffffffffffffffffffffffffffffffff1673ffffffffffffffffffffffffffffffffffffffff166134e39092919063ffffffff16565b5b5b43863373ffffffffffffffffffffffffffffffffffffffff167f02f25270a4d87bea75db541cdfe559334a275b4a233520ed6c0a2429667cca948560405161111991906143c7565b60405180910390a4505050505050565b61113282610d48565b61113b81613562565b6111458383613576565b50505050565b600360009054906101000a900460ff1681565b611166613677565b73ffffffffffffffffffffffffffffffffffffffff168173ffffffffffffffffffffffffffffffffffffffff16146111ca576040517f6697b23200000000000000000000000000000000000000000000000000000000815260040160405180910390fd5b6111d4828261367f565b505050565b600a602052816000526040600020602052806000526040600020600091509150508060000154908060010154908060020154905083565b611218613390565b806005805490508110611260576040517f08c379a000000000000000000000000000000000000000000000000000000000815260040161125790614c6c565b60405180910390fd5b600360019054906101000a900460ff16156112b0576040517f08c379a00000000000000000000000000000000000000000000000000000000081526004016112a790614e81565b60405180910390fd5b6000600583815481106112c6576112c5614cf8565b5b906000526020600020906007020190506000600a600085815260200190815260200160002060003373ffffffffffffffffffffffffffffffffffffffff1673ffffffffffffffffffffffffffffffffffffffff16815260200190815260200160002090506113338461183b565b600081600201548260010154670de0b6b3a76400008560030154856000015461135c9190614ea1565b6113669190614f12565b6113709190614dd2565b61137a9190614d56565b9050600081111561139a57600082600201819055506113993382613781565b5b670de0b6b3a7640000836003015483600001546113b79190614ea1565b6113c19190614f12565b8260010181905550843373ffffffffffffffffffffffffffffffffffffffff167f34fcbac0073d7c3d388e51312faf357774904998eeb8fca628b9e6f65ee1cbf78360405161141091906143c7565b60405180910390a35050505050565b6000806005858154811061143657611435614cf8565b5b906000526020600020906007020190506000600a600087815260200190815260200160002060008673ffffffffffffffffffffffffffffffffffffffff1673ffffffffffffffffffffffffffffffffffffffff16815260200190815260200160002090506000826003015490506000836004015490508360020154861080156114c0575060008114155b156115275760006114d5856002015488611ca2565b905060006004548660010154836114ec9190614ea1565b6114f69190614f12565b905082670de0b6b3a76400008261150d9190614ea1565b6115179190614f12565b846115229190614d56565b935050505b82600201548360010154670de0b6b3a7640000846115459190614f12565b85600001546115549190614d56565b61155e9190614dd2565b6115689190614d56565b9450505050509392505050565b60005481565b6000611585613975565b905060008160000160089054906101000a900460ff1615905060008260000160009054906101000a900467ffffffffffffffff1690506000808267ffffffffffffffff161480156115d35750825b9050600060018367ffffffffffffffff16148015611608575060003073ffffffffffffffffffffffffffffffffffffffff163b145b905081158015611616575080155b1561164d576040517ff92ee8a900000000000000000000000000000000000000000000000000000000815260040160405180910390fd5b60018560000160006101000a81548167ffffffffffffffff021916908367ffffffffffffffff160217905550831561169d5760018560000160086101000a81548160ff0219169083151502179055505b868811156116e0576040517f08c379a00000000000000000000000000000000000000000000000000000000081526004016116d790614fb5565b60405180910390fd5b60008611611723576040517f08c379a000000000000000000000000000000000000000000000000000000000815260040161171a90615047565b60405180910390fd5b61172b61399d565b6117336139a7565b6117406000801b33613576565b5061176b7ff47fc0c09ebbfe308d89b8035681a1164b9882bcfd49eb89861067738a30f5ab33613576565b506117967f589d473ba17c0f47d494622893831497bad25919b9afb8e33e9521b8963fccde33613576565b506117a089612dc8565b87600081905550866001819055508560028190555083156118115760008560000160086101000a81548160ff0219169083151502179055507fc7f505b2f371ae2175ee4913f4499e1f2633a7b5936321eed1cdaeb6115181d2600160405161180891906150b6565b60405180910390a15b505050505050505050565b6118246139b1565b61182d82613a97565b6118378282613ac5565b5050565b806005805490508110611883576040517f08c379a000000000000000000000000000000000000000000000000000000000815260040161187a90614c6c565b60405180910390fd5b60006005838154811061189957611898614cf8565b5b90600052602060002090600702019050806002015443116118ba5750611b2a565b600081600401549050600081036118db574382600201819055505050611b2a565b60008061190284600101546118f4866002015443611ca2565b613be490919063ffffffff16565b9150915081611946576040517f08c379a000000000000000000000000000000000000000000000000000000000815260040161193d9061511d565b60405180910390fd5b61195b60045482613c3790919063ffffffff16565b8092508193505050816119a3576040517f08c379a000000000000000000000000000000000000000000000000000000000815260040161199a9061511d565b60405180910390fd5b6000846004015490506000811115611ade576000806119d3670de0b6b3a764000085613be490919063ffffffff16565b9150915081611a17576040517f08c379a0000000000000000000000000000000000000000000000000000000008152600401611a0e9061511d565b60405180910390fd5b611a2a8382613c3790919063ffffffff16565b809250819350505081611a72576040517f08c379a0000000000000000000000000000000000000000000000000000000008152600401611a699061511d565b60405180910390fd5b600080611a8c838a60030154613c6d90919063ffffffff16565b9150915081611ad0576040517f08c379a0000000000000000000000000000000000000000000000000000000008152600401611ac79061511d565b60405180910390fd5b808960030181905550505050505b4385600201819055508460020154877ff5d2d72d9b25d6853afd7d0554a113b705234b6a68bb36b7f14366299463241184604051611b1c91906143c7565b60405180910390a350505050505b5050565b6000611b38613c9c565b7f360894a13ba1a3210667c828492db98dca3e2076cc3735a920a3ca505d382bbc60001b905090565b600080611b6c613d23565b90508060000160009054906101000a900460ff1691505090565b7f589d473ba17c0f47d494622893831497bad25919b9afb8e33e9521b8963fccde611bb081613562565b600360009054906101000a900460ff16611bff576040517f08c379a0000000000000000000000000000000000000000000000000000000008152600401611bf6906151af565b60405180910390fd5b6001600360006101000a81548160ff0219169083151502179055507f2523dfdafa00190f21a4cbd0c25179c8dd3cb34a6c17fea952ecca8fa8332c0e60405160405180910390a150565b6000600580549050905060005b81811015611c7457611c678161183b565b8080600101915050611c56565b5050565b60025481565b7f589d473ba17c0f47d494622893831497bad25919b9afb8e33e9521b8963fccde81565b600081831115611ce7576040517f08c379a0000000000000000000000000000000000000000000000000000000008152600401611cde9061521b565b60405180910390fd5b600054831015611cf75760005492505b600154821115611d075760015491505b60008383611d159190614dd2565b11611d55576040517f08c379a0000000000000000000000000000000000000000000000000000000008152600401611d4c9061521b565b60405180910390fd5b6000611d776002548585611d699190614dd2565b613be490919063ffffffff16565b809350819250505080611dbf576040517f08c379a0000000000000000000000000000000000000000000000000000000008152600401611db690615287565b60405180910390fd5b5092915050565b7f589d473ba17c0f47d494622893831497bad25919b9afb8e33e9521b8963fccde611df081613562565b600360019054906101000a900460ff1615611e40576040517f08c379a0000000000000000000000000000000000000000000000000000000008152600401611e37906152f3565b60405180910390fd5b6001600360016101000a81548160ff0219169083151502179055507f443bf540e8151617cd5c39a681cc35a5a22be078b6f0cf16e5bd822b4c4b61ff60405160405180910390a150565b600080611e95613368565b905080600001600085815260200190815260200160002060000160008473ffffffffffffffffffffffffffffffffffffffff1673ffffffffffffffffffffffffffffffffffffffff16815260200190815260200160002060009054906101000a900460ff1691505092915050565b611f0b613390565b600360009054906101000a900460ff1615611f5b576040517f08c379a0000000000000000000000000000000000000000000000000000000008152600401611f5290614cd8565b60405180910390fd5b816005805490508110611fa3576040517f08c379a0000000000000000000000000000000000000000000000000000000008152600401611f9a90614c6c565b60405180910390fd5b600060058481548110611fb957611fb8614cf8565b5b906000526020600020906007020190506000600a600086815260200190815260200160002060003373ffffffffffffffffffffffffffffffffffffffff1673ffffffffffffffffffffffffffffffffffffffff16815260200190815260200160002090508381600001541015612064576040517f08c379a000000000000000000000000000000000000000000000000000000000815260040161205b9061535f565b60405180910390fd5b61206d8561183b565b60008160010154670de0b6b3a7640000846003015484600001546120919190614ea1565b61209b9190614f12565b6120a59190614dd2565b905060008111156120cc57808260020160008282546120c49190614d56565b925050819055505b600085111561215857848260000160008282546120e99190614dd2565b925050819055508160030160405180604001604052808781526020018560060154436121159190614d56565b8152509080600181540180825580915050600190039060005260206000209060020201600090919091909150600082015181600001556020820151816001015550505b8483600401600082825461216c9190614dd2565b92505081905550670de0b6b3a7640000836003015483600001546121909190614ea1565b61219a9190614f12565b8260010160008282546121ad9190614d56565b92505081905550853373ffffffffffffffffffffffffffffffffffffffff167fc80277265097707f6f12a4ac4c09d46c9926e2eea2536f63616cb04d9fcad7d6876040516121fb91906143c7565b60405180910390a3505050505050565b60075481565b6000801b81565b6000826005805490508110612262576040517f08c379a000000000000000000000000000000000000000000000000000000000815260040161225990614c6c565b60405180910390fd5b61226d84844361141f565b91505092915050565b600360029054906101000a900473ffffffffffffffffffffffffffffffffffffffff1681565b60066020528060005260406000206000915090508060000154908060010154908060020154905083565b600360019054906101000a900460ff1681565b600981815481106122e957600080fd5b90600052602060002090600702016000915090508060000160009054906101000a900473ffffffffffffffffffffffffffffffffffffffff16908060010154908060020154908060030154908060040154908060050154908060060154905087565b6040518060400160405280600581526020017f352e302e3000000000000000000000000000000000000000000000000000000081525081565b6000600580549050905090565b7f589d473ba17c0f47d494622893831497bad25919b9afb8e33e9521b8963fccde6123bb81613562565b6000600580549050111561248357600073ffffffffffffffffffffffffffffffffffffffff1660056000815481106123f6576123f5614cf8565b5b906000526020600020906007020160000160009054906101000a900473ffffffffffffffffffffffffffffffffffffffff1673ffffffffffffffffffffffffffffffffffffffff161461247e576040517f08c379a0000000000000000000000000000000000000000000000000000000008152600401612475906153cb565b60405180910390fd5b6124f3565b600073ffffffffffffffffffffffffffffffffffffffff168673ffffffffffffffffffffffffffffffffffffffff16146124f2576040517f08c379a00000000000000000000000000000000000000000000000000000000081526004016124e9906153cb565b60405180910390fd5b5b60008311612536576040517f08c379a000000000000000000000000000000000000000000000000000000000815260040161252d90615437565b60405180910390fd5b600154431061257a576040517f08c379a0000000000000000000000000000000000000000000000000000000008152600401612571906154a3565b60405180910390fd5b811561258957612588611c49565b5b60008054431161259b5760005461259d565b435b905085600460008282546125b19190614d56565b9250508190555060056040518060e001604052808973ffffffffffffffffffffffffffffffffffffffff168152602001888152602001838152602001600081526020016000815260200187815260200186815250908060018154018082558091505060019003906000526020600020906007020160009091909190915060008201518160000160006101000a81548173ffffffffffffffffffffffffffffffffffffffff021916908373ffffffffffffffffffffffffffffffffffffffff1602179055506020820151816001015560408201518160020155606082015181600301556080820151816004015560a0820151816005015560c08201518160060155505080868873ffffffffffffffffffffffffffffffffffffffff167f0fa296fce13e7a0e622b3a892e66220c248337289483a3cfa4130cde0caa134688886040516126fd929190614bf7565b60405180910390a450505050505050565b7ff47fc0c09ebbfe308d89b8035681a1164b9882bcfd49eb89861067738a30f5ab81565b7f589d473ba17c0f47d494622893831497bad25919b9afb8e33e9521b8963fccde61275c81613562565b6000821161279f576040517f08c379a000000000000000000000000000000000000000000000000000000000815260040161279690615047565b60405180910390fd5b81600281905550817f4c70925b625536dd633f6bd2d615c67fddc2e7c63c31164047a981a0df3fee5460405160405180910390a25050565b600081565b7f589d473ba17c0f47d494622893831497bad25919b9afb8e33e9521b8963fccde61280681613562565b600360009054906101000a900460ff1615612856576040517f08c379a000000000000000000000000000000000000000000000000000000000815260040161284d9061550f565b60405180910390fd5b6000600360006101000a81548160ff0219169083151502179055507f027c975733baceca09666fae356a901e083676848aaf9710150079385daae74360405160405180910390a150565b7f589d473ba17c0f47d494622893831497bad25919b9afb8e33e9521b8963fccde6128ca81613562565b81600054111561290f576040517f08c379a000000000000000000000000000000000000000000000000000000000815260040161290690614fb5565b60405180910390fd5b81600181905550817f1132c5baccb51da3d049fabc819697dc845fa224ad59d9b555507d6446b4085060405160405180910390a25050565b61295082610d48565b61295981613562565b612963838361367f565b50505050565b8260058054905081106129b1576040517f08c379a00000000000000000000000000000000000000000000000000000000081526004016129a890614c6c565b60405180910390fd5b7f589d473ba17c0f47d494622893831497bad25919b9afb8e33e9521b8963fccde6129db81613562565b6005805490508510612a22576040517f08c379a0000000000000000000000000000000000000000000000000000000008152600401612a199061557b565b60405180910390fd5b8360058681548110612a3757612a36614cf8565b5b9060005260206000209060070201600501819055508260058681548110612a6157612a60614cf8565b5b9060005260206000209060070201600601819055508284867f30dffdedaa3e3b4849298233f7cd71d229956e875ab09270498c96b7cf9181fd60405160405180910390a45050505050565b7f589d473ba17c0f47d494622893831497bad25919b9afb8e33e9521b8963fccde612ad681613562565b600360019054906101000a900460ff16612b25576040517f08c379a0000000000000000000000000000000000000000000000000000000008152600401612b1c906152f3565b60405180910390fd5b6000600360016101000a81548160ff0219169083151502179055507f07c8faf23a72a53eb5c2c466dc81386a58b2a27d0cc3c7c580a3c12e372ba31360405160405180910390a150565b600360009054906101000a900460ff1615612bbf576040517f08c379a0000000000000000000000000000000000000000000000000000000008152600401612bb690614cd8565b60405180910390fd5b816005805490508110612c07576040517f08c379a0000000000000000000000000000000000000000000000000000000008152600401612bfe90614c6c565b60405180910390fd5b60008303612c4a576040517f08c379a0000000000000000000000000000000000000000000000000000000008152600401612c41906155e7565b60405180910390fd5b600060058481548110612c6057612c5f614cf8565b5b9060005260206000209060070201905080600501548311612cb6576040517f08c379a0000000000000000000000000000000000000000000000000000000008152600401612cad90615653565b60405180910390fd5b6000831115612d1157612d103330858460000160009054906101000a900473ffffffffffffffffffffffffffffffffffffffff1673ffffffffffffffffffffffffffffffffffffffff16613d4b909392919063ffffffff16565b5b612d1b8484613dcd565b50505050565b7f589d473ba17c0f47d494622893831497bad25919b9afb8e33e9521b8963fccde612d4b81613562565b600154821115612d90576040517f08c379a0000000000000000000000000000000000000000000000000000000008152600401612d8790614fb5565b60405180910390fd5b81600081905550817f63b90b79f11a0f132bcb2c4a4ddd44abda45c1308a83b2919318df7f5f8b7be460405160405180910390a25050565b7f589d473ba17c0f47d494622893831497bad25919b9afb8e33e9521b8963fccde612df281613562565b81600360026101000a81548173ffffffffffffffffffffffffffffffffffffffff021916908373ffffffffffffffffffffffffffffffffffffffff160217905550600360029054906101000a900473ffffffffffffffffffffffffffffffffffffffff1673ffffffffffffffffffffffffffffffffffffffff167f153aae53b92218044bd5f43922617c6b253e50ac98a41b44c3acb5625ded348860405160405180910390a25050565b612ea4613390565b60006005600081548110612ebb57612eba614cf8565b5b90600052602060002090600702019050600073ffffffffffffffffffffffffffffffffffffffff168160000160009054906101000a900473ffffffffffffffffffffffffffffffffffffffff1673ffffffffffffffffffffffffffffffffffffffff1614612f5e576040517f08c379a0000000000000000000000000000000000000000000000000000000008152600401612f55906156bf565b60405180910390fd5b600034905081600501548111612fa9576040517f08c379a0000000000000000000000000000000000000000000000000000000008152600401612fa090615653565b60405180910390fd5b612fb4600082613dcd565b5050565b7f589d473ba17c0f47d494622893831497bad25919b9afb8e33e9521b8963fccde612fe281613562565b6005805490508410613029576040517f08c379a00000000000000000000000000000000000000000000000000000000081526004016130209061557b565b60405180910390fd5b6000831161306c576040517f08c379a00000000000000000000000000000000000000000000000000000000081526004016130639061572b565b60405180910390fd5b811561307b5761307a611c49565b5b82600585815481106130905761308f614cf8565b5b9060005260206000209060070201600101546004546130af9190614dd2565b6130b99190614d56565b60048190555082600585815481106130d4576130d3614cf8565b5b906000526020600020906007020160010181905550837f4b8fa3d6a87cb21d1bf4978bf60628ae358a28ac7f39de1751a481c6dd9576178460045460405161311d929190614bf7565b60405180910390a250505050565b6005818154811061313b57600080fd5b90600052602060002090600702016000915090508060000160009054906101000a900473ffffffffffffffffffffffffffffffffffffffff16908060010154908060020154908060030154908060040154908060050154908060060154905087565b6000808360058054905081106131e8576040517f08c379a00000000000000000000000000000000000000000000000000000000081526004016131df90614c6c565b60405180910390fd5b6000600a600087815260200190815260200160002060008673ffffffffffffffffffffffffffffffffffffffff1673ffffffffffffffffffffffffffffffffffffffff168152602001908152602001600020905060005b81600301805490508110156132f4574382600301828154811061326557613264614cf8565b5b906000526020600020906002020160010154116132b25781600301818154811061329257613291614cf8565b5b906000526020600020906002020160000154846132af9190614d56565b93505b8160030181815481106132c8576132c7614cf8565b5b906000526020600020906002020160000154856132e59190614d56565b9450808060010191505061323f565b5050509250929050565b60007f01ffc9a7000000000000000000000000000000000000000000000000000000007bffffffffffffffffffffffffffffffffffffffffffffffffffffffff1916827bffffffffffffffffffffffffffffffffffffffffffffffffffffffff1916149050919050565b60007f02dd7bc7dec4dceedda775e58dd541e08a116c6c53815c0bd028192f7b626800905090565b613398611b61565b156133cf576040517fd93c066500000000000000000000000000000000000000000000000000000000815260040160405180910390fd5b565b6000808373ffffffffffffffffffffffffffffffffffffffff16836040516133f89061577c565b60006040518083038185875af1925050503d8060008114613435576040519150601f19603f3d011682016040523d82523d6000602084013e61343a565b606091505b50915091508161347f576040517f08c379a0000000000000000000000000000000000000000000000000000000008152600401613476906157dd565b60405180910390fd5b6000815111156134dd578080602001905181019061349d9190615812565b6134dc576040517f08c379a00000000000000000000000000000000000000000000000000000000081526004016134d3906158b1565b60405180910390fd5b5b50505050565b61355d838473ffffffffffffffffffffffffffffffffffffffff1663a9059cbb85856040516024016135169291906158d1565b604051602081830303815290604052915060e01b6020820180517bffffffffffffffffffffffffffffffffffffffffffffffffffffffff8381831617835250505050613e56565b505050565b6135738161356e613677565b613ef8565b50565b600080613581613368565b905061358d8484611e8a565b61366b57600181600001600086815260200190815260200160002060000160008573ffffffffffffffffffffffffffffffffffffffff1673ffffffffffffffffffffffffffffffffffffffff16815260200190815260200160002060006101000a81548160ff021916908315150217905550613607613677565b73ffffffffffffffffffffffffffffffffffffffff168373ffffffffffffffffffffffffffffffffffffffff16857f2f8788117e7eff1d82e926ec794901d17c78024a50270940304540a733656f0d60405160405180910390a46001915050613671565b60009150505b92915050565b600033905090565b60008061368a613368565b90506136968484611e8a565b1561377557600081600001600086815260200190815260200160002060000160008573ffffffffffffffffffffffffffffffffffffffff1673ffffffffffffffffffffffffffffffffffffffff16815260200190815260200160002060006101000a81548160ff021916908315150217905550613711613677565b73ffffffffffffffffffffffffffffffffffffffff168373ffffffffffffffffffffffffffffffffffffffff16857ff6391f5c32d9c69d2a47ea670b442974b53935d1edc7fd64eb21e047a839171b60405160405180910390a4600191505061377b565b60009150505b92915050565b6000600360029054906101000a900473ffffffffffffffffffffffffffffffffffffffff1673ffffffffffffffffffffffffffffffffffffffff166370a08231306040518263ffffffff1660e01b81526004016137de91906158fa565b602060405180830381865afa1580156137fb573d6000803e3d6000fd5b505050506040513d601f19601f8201168201806040525081019061381f919061592a565b90508082116138ce57600360029054906101000a900473ffffffffffffffffffffffffffffffffffffffff1673ffffffffffffffffffffffffffffffffffffffff1663a9059cbb84846040518363ffffffff1660e01b81526004016138859291906158d1565b6020604051808303816000875af11580156138a4573d6000803e3d6000fd5b505050506040513d601f19601f820116820180604052508101906138c89190615812565b50613970565b600360029054906101000a900473ffffffffffffffffffffffffffffffffffffffff1673ffffffffffffffffffffffffffffffffffffffff1663a9059cbb84836040518363ffffffff1660e01b815260040161392b9291906158d1565b6020604051808303816000875af115801561394a573d6000803e3d6000fd5b505050506040513d601f19601f8201168201806040525081019061396e9190615812565b505b505050565b60007ff0c57e16840df040f15088dc2f81fe391c3923bec73e23a9662efc9c229c6a00905090565b6139a5613f49565b565b6139af613f49565b565b7f000000000000000000000000000000000000000000000000000000000000000073ffffffffffffffffffffffffffffffffffffffff163073ffffffffffffffffffffffffffffffffffffffff161480613a5e57507f000000000000000000000000000000000000000000000000000000000000000073ffffffffffffffffffffffffffffffffffffffff16613a45613f89565b73ffffffffffffffffffffffffffffffffffffffff1614155b15613a95576040517fe07c8dba00000000000000000000000000000000000000000000000000000000815260040160405180910390fd5b565b7ff47fc0c09ebbfe308d89b8035681a1164b9882bcfd49eb89861067738a30f5ab613ac181613562565b5050565b8173ffffffffffffffffffffffffffffffffffffffff166352d1902d6040518163ffffffff1660e01b8152600401602060405180830381865afa925050508015613b2d57506040513d601f19601f82011682018060405250810190613b2a919061596c565b60015b613b6e57816040517f4c9c8ce3000000000000000000000000000000000000000000000000000000008152600401613b6591906158fa565b60405180910390fd5b7f360894a13ba1a3210667c828492db98dca3e2076cc3735a920a3ca505d382bbc60001b8114613bd557806040517faa1d49a4000000000000000000000000000000000000000000000000000000008152600401613bcc9190614598565b60405180910390fd5b613bdf8383613fe0565b505050565b60008060008403613bfc576001600091509150613c30565b6000838502905083858281613c1457613c13614ee3565b5b0414613c27576000809250925050613c30565b60018192509250505b9250929050565b60008060008303613c4e5760008091509150613c66565b6001838581613c6057613c5f614ee3565b5b04915091505b9250929050565b6000806000838501905084811015613c8c576000809250925050613c95565b60018192509250505b9250929050565b7f000000000000000000000000000000000000000000000000000000000000000073ffffffffffffffffffffffffffffffffffffffff163073ffffffffffffffffffffffffffffffffffffffff1614613d21576040517fe07c8dba00000000000000000000000000000000000000000000000000000000815260040160405180910390fd5b565b60007fcd5ed15c6e187e77e9aee88184c21f4f2182ab5827cb3b7e07fbedcd63f03300905090565b613dc7848573ffffffffffffffffffffffffffffffffffffffff166323b872dd868686604051602401613d8093929190615999565b604051602081830303815290604052915060e01b6020820180517bffffffffffffffffffffffffffffffffffffffffffffffffffffffff8381831617835250505050613e56565b50505050565b600060058381548110613de357613de2614cf8565b5b906000526020600020906007020190506000600a600085815260200190815260200160002060003373ffffffffffffffffffffffffffffffffffffffff1673ffffffffffffffffffffffffffffffffffffffff1681526020019081526020016000209050613e508461183b565b50505050565b600080602060008451602086016000885af180613e79576040513d6000823e3d81fd5b3d925060005191505060008214613e94576001811415613eb0565b60008473ffffffffffffffffffffffffffffffffffffffff163b145b15613ef257836040517f5274afe7000000000000000000000000000000000000000000000000000000008152600401613ee991906158fa565b60405180910390fd5b50505050565b613f028282611e8a565b613f455780826040517fe2517d3f000000000000000000000000000000000000000000000000000000008152600401613f3c9291906159d0565b60405180910390fd5b5050565b613f51614053565b613f87576040517fd7e6bcf800000000000000000000000000000000000000000000000000000000815260040160405180910390fd5b565b6000613fb77f360894a13ba1a3210667c828492db98dca3e2076cc3735a920a3ca505d382bbc60001b614073565b60000160009054906101000a900473ffffffffffffffffffffffffffffffffffffffff16905090565b613fe98261407d565b8173ffffffffffffffffffffffffffffffffffffffff167fbc7cd75a20ee27fd9adebab32041f755214dbc6bffa90cc0225b39da2e5c2d3b60405160405180910390a260008151111561404657614040828261414a565b5061404f565b61404e6141ce565b5b5050565b600061405d613975565b60000160089054906101000a900460ff16905090565b6000819050919050565b60008173ffffffffffffffffffffffffffffffffffffffff163b036140d957806040517f4c9c8ce30000000000000000000000000000000000000000000000000000000081526004016140d091906158fa565b60405180910390fd5b806141067f360894a13ba1a3210667c828492db98dca3e2076cc3735a920a3ca505d382bbc60001b614073565b60000160006101000a81548173ffffffffffffffffffffffffffffffffffffffff021916908373ffffffffffffffffffffffffffffffffffffffff16021790555050565b60606000808473ffffffffffffffffffffffffffffffffffffffff16846040516141749190615a35565b600060405180830381855af49150503d80600081146141af576040519150601f19603f3d011682016040523d82523d6000602084013e6141b4565b606091505b50915091506141c485838361420b565b9250505092915050565b6000341115614209576040517fb398979f00000000000000000000000000000000000000000000000000000000815260040160405180910390fd5b565b6060826142205761421b8261429a565b614292565b60008251148015614248575060008473ffffffffffffffffffffffffffffffffffffffff163b145b1561428a57836040517f9996b31500000000000000000000000000000000000000000000000000000000815260040161428191906158fa565b60405180910390fd5b819050614293565b5b9392505050565b6000815111156142ad5780518082602001fd5b6040517fd6bda27500000000000000000000000000000000000000000000000000000000815260040160405180910390fd5b6000604051905090565b600080fd5b600080fd5b60007fffffffff0000000000000000000000000000000000000000000000000000000082169050919050565b614328816142f3565b811461433357600080fd5b50565b6000813590506143458161431f565b92915050565b600060208284031215614361576143606142e9565b5b600061436f84828501614336565b91505092915050565b60008115159050919050565b61438d81614378565b82525050565b60006020820190506143a86000830184614384565b92915050565b6000819050919050565b6143c1816143ae565b82525050565b60006020820190506143dc60008301846143b8565b92915050565b6143eb816143ae565b81146143f657600080fd5b50565b600081359050614408816143e2565b92915050565b600073ffffffffffffffffffffffffffffffffffffffff82169050919050565b60006144398261440e565b9050919050565b6144498161442e565b811461445457600080fd5b50565b60008135905061446681614440565b92915050565b60008060408385031215614483576144826142e9565b5b6000614491858286016143f9565b92505060206144a285828601614457565b9150509250929050565b6000819050919050565b60006144d16144cc6144c78461440e565b6144ac565b61440e565b9050919050565b60006144e3826144b6565b9050919050565b60006144f5826144d8565b9050919050565b614505816144ea565b82525050565b600060208201905061452060008301846144fc565b92915050565b6000819050919050565b61453981614526565b811461454457600080fd5b50565b60008135905061455681614530565b92915050565b600060208284031215614572576145716142e9565b5b600061458084828501614547565b91505092915050565b61459281614526565b82525050565b60006020820190506145ad6000830184614589565b92915050565b6000602082840312156145c9576145c86142e9565b5b60006145d7848285016143f9565b91505092915050565b600080604083850312156145f7576145f66142e9565b5b600061460585828601614547565b925050602061461685828601614457565b9150509250929050565b600060608201905061463560008301866143b8565b61464260208301856143b8565b61464f60408301846143b8565b949350505050565b6000806000606084860312156146705761466f6142e9565b5b600061467e868287016143f9565b935050602061468f86828701614457565b92505060406146a0868287016143f9565b9150509250925092565b60006146b58261442e565b9050919050565b6146c5816146aa565b81146146d057600080fd5b50565b6000813590506146e2816146bc565b92915050565b60008060008060808587031215614702576147016142e9565b5b6000614710878288016146d3565b9450506020614721878288016143f9565b9350506040614732878288016143f9565b9250506060614743878288016143f9565b91505092959194509250565b600080fd5b600080fd5b6000601f19601f8301169050919050565b7f4e487b7100000000000000000000000000000000000000000000000000000000600052604160045260246000fd5b6147a282614759565b810181811067ffffffffffffffff821117156147c1576147c061476a565b5b80604052505050565b60006147d46142df565b90506147e08282614799565b919050565b600067ffffffffffffffff821115614800576147ff61476a565b5b61480982614759565b9050602081019050919050565b82818337600083830152505050565b6000614838614833846147e5565b6147ca565b90508281526020810184848401111561485457614853614754565b5b61485f848285614816565b509392505050565b600082601f83011261487c5761487b61474f565b5b813561488c848260208601614825565b91505092915050565b600080604083850312156148ac576148ab6142e9565b5b60006148ba85828601614457565b925050602083013567ffffffffffffffff8111156148db576148da6142ee565b5b6148e785828601614867565b9150509250929050565b60008060408385031215614908576149076142e9565b5b6000614916858286016143f9565b9250506020614927858286016143f9565b9150509250929050565b600060208284031215614947576149466142e9565b5b600061495584828501614457565b91505092915050565b6149678161442e565b82525050565b600060e082019050614982600083018a61495e565b61498f60208301896143b8565b61499c60408301886143b8565b6149a960608301876143b8565b6149b660808301866143b8565b6149c360a08301856143b8565b6149d060c08301846143b8565b98975050505050505050565b600081519050919050565b600082825260208201905092915050565b60005b83811015614a165780820151818401526020810190506149fb565b60008484015250505050565b6000614a2d826149dc565b614a3781856149e7565b9350614a478185602086016149f8565b614a5081614759565b840191505092915050565b60006020820190508181036000830152614a758184614a22565b905092915050565b614a8681614378565b8114614a9157600080fd5b50565b600081359050614aa381614a7d565b92915050565b600080600080600060a08688031215614ac557614ac46142e9565b5b6000614ad388828901614457565b9550506020614ae4888289016143f9565b9450506040614af5888289016143f9565b9350506060614b06888289016143f9565b9250506080614b1788828901614a94565b9150509295509295909350565b600080600060608486031215614b3d57614b3c6142e9565b5b6000614b4b868287016143f9565b9350506020614b5c868287016143f9565b9250506040614b6d868287016143f9565b9150509250925092565b600060208284031215614b8d57614b8c6142e9565b5b6000614b9b848285016146d3565b91505092915050565b600080600060608486031215614bbd57614bbc6142e9565b5b6000614bcb868287016143f9565b9350506020614bdc868287016143f9565b9250506040614bed86828701614a94565b9150509250925092565b6000604082019050614c0c60008301856143b8565b614c1960208301846143b8565b9392505050565b7f696e76616c696420706964000000000000000000000000000000000000000000600082015250565b6000614c56600b836149e7565b9150614c6182614c20565b602082019050919050565b60006020820190508181036000830152614c8581614c49565b9050919050565b7f7769746864726177206973207061757365640000000000000000000000000000600082015250565b6000614cc26012836149e7565b9150614ccd82614c8c565b602082019050919050565b60006020820190508181036000830152614cf181614cb5565b9050919050565b7f4e487b7100000000000000000000000000000000000000000000000000000000600052603260045260246000fd5b7f4e487b7100000000000000000000000000000000000000000000000000000000600052601160045260246000fd5b6000614d61826143ae565b9150614d6c836143ae565b9250828201905080821115614d8457614d83614d27565b5b92915050565b6000614d95826143ae565b91507fffffffffffffffffffffffffffffffffffffffffffffffffffffffffffffffff8203614dc757614dc6614d27565b5b600182019050919050565b6000614ddd826143ae565b9150614de8836143ae565b9250828203905081811115614e0057614dff614d27565b5b92915050565b7f4e487b7100000000000000000000000000000000000000000000000000000000600052603160045260246000fd5b7f636c61696d206973207061757365640000000000000000000000000000000000600082015250565b6000614e6b600f836149e7565b9150614e7682614e35565b602082019050919050565b60006020820190508181036000830152614e9a81614e5e565b9050919050565b6000614eac826143ae565b9150614eb7836143ae565b9250828202614ec5816143ae565b91508282048414831517614edc57614edb614d27565b5b5092915050565b7f4e487b7100000000000000000000000000000000000000000000000000000000600052601260045260246000fd5b6000614f1d826143ae565b9150614f28836143ae565b925082614f3857614f37614ee3565b5b828204905092915050565b7f737461727420626c6f636b206d757374206265206c657373207468616e20656e60008201527f6420626c6f636b00000000000000000000000000000000000000000000000000602082015250565b6000614f9f6027836149e7565b9150614faa82614f43565b604082019050919050565b60006020820190508181036000830152614fce81614f92565b9050919050565b7f7263632070657220626c6f636b206d757374206265206772656174657220746860008201527f616e203000000000000000000000000000000000000000000000000000000000602082015250565b60006150316024836149e7565b915061503c82614fd5565b604082019050919050565b6000602082019050818103600083015261506081615024565b9050919050565b6000819050919050565b600067ffffffffffffffff82169050919050565b60006150a061509b61509684615067565b6144ac565b615071565b9050919050565b6150b081615085565b82525050565b60006020820190506150cb60008301846150a7565b92915050565b7f6f766572666c6f77000000000000000000000000000000000000000000000000600082015250565b60006151076008836149e7565b9150615112826150d1565b602082019050919050565b60006020820190508181036000830152615136816150fa565b9050919050565b7f77697468647261772068617320616c7265616479206265656e20756e7061757360008201527f6564000000000000000000000000000000000000000000000000000000000000602082015250565b60006151996022836149e7565b91506151a48261513d565b604082019050919050565b600060208201905081810360008301526151c88161518c565b9050919050565b7f696e76616c69642072616e676500000000000000000000000000000000000000600082015250565b6000615205600d836149e7565b9150615210826151cf565b602082019050919050565b60006020820190508181036000830152615234816151f8565b9050919050565b7f6d756c7469706c696572206f766572666c6f7700000000000000000000000000600082015250565b60006152716013836149e7565b915061527c8261523b565b602082019050919050565b600060208201905081810360008301526152a081615264565b9050919050565b7f636c61696d2068617320616c7265616479206265656e20756e70617573656400600082015250565b60006152dd601f836149e7565b91506152e8826152a7565b602082019050919050565b6000602082019050818103600083015261530c816152d0565b9050919050565b7f696e73756666696369656e74207374616b696e6720616d6f756e740000000000600082015250565b6000615349601b836149e7565b915061535482615313565b602082019050919050565b600060208201905081810360008301526153788161533c565b9050919050565b7f74686520666972737420706f6f6c206d7573742062652045544820706f6f6c00600082015250565b60006153b5601f836149e7565b91506153c08261537f565b602082019050919050565b600060208201905081810360008301526153e4816153a8565b9050919050565b7f696e76616c6964207769746864726177206c6f636b656420626c6f636b730000600082015250565b6000615421601e836149e7565b915061542c826153eb565b602082019050919050565b6000602082019050818103600083015261545081615414565b9050919050565b7f616c726561647920656e64656400000000000000000000000000000000000000600082015250565b600061548d600d836149e7565b915061549882615457565b602082019050919050565b600060208201905081810360008301526154bc81615480565b9050919050565b7f77697468647261772068617320616c7265616479206265656e20706175736564600082015250565b60006154f96020836149e7565b9150615504826154c3565b602082019050919050565b60006020820190508181036000830152615528816154ec565b9050919050565b7f696e76616c696420706f6f6c2069640000000000000000000000000000000000600082015250565b6000615565600f836149e7565b91506155708261552f565b602082019050919050565b6000602082019050818103600083015261559481615558565b9050919050565b7f6465706f736974206e6f7420737570706f727420455448207374616b696e6700600082015250565b60006155d1601f836149e7565b91506155dc8261559b565b602082019050919050565b60006020820190508181036000830152615600816155c4565b9050919050565b7f696e76616c6964206465706f73697420616d6f756e7400000000000000000000600082015250565b600061563d6016836149e7565b915061564882615607565b602082019050919050565b6000602082019050818103600083015261566c81615630565b9050919050565b7f45544820706f6f6c206d75737420626520637265617465642066697273740000600082015250565b60006156a9601e836149e7565b91506156b482615673565b602082019050919050565b600060208201905081810360008301526156d88161569c565b9050919050565b7f696e76616c696420706f6f6c2077656967687400000000000000000000000000600082015250565b60006157156013836149e7565b9150615720826156df565b602082019050919050565b6000602082019050818103600083015261574481615708565b9050919050565b600081905092915050565b50565b600061576660008361574b565b915061577182615756565b600082019050919050565b600061578782615759565b9150819050919050565b7f455448207472616e736665722063616c6c206661696c65640000000000000000600082015250565b60006157c76018836149e7565b91506157d282615791565b602082019050919050565b600060208201905081810360008301526157f6816157ba565b9050919050565b60008151905061580c81614a7d565b92915050565b600060208284031215615828576158276142e9565b5b6000615836848285016157fd565b91505092915050565b7f455448207472616e73666572206f7065726174696f6e20646964206e6f74207360008201527f7563636565640000000000000000000000000000000000000000000000000000602082015250565b600061589b6026836149e7565b91506158a68261583f565b604082019050919050565b600060208201905081810360008301526158ca8161588e565b9050919050565b60006040820190506158e6600083018561495e565b6158f360208301846143b8565b9392505050565b600060208201905061590f600083018461495e565b92915050565b600081519050615924816143e2565b92915050565b6000602082840312156159405761593f6142e9565b5b600061594e84828501615915565b91505092915050565b60008151905061596681614530565b92915050565b600060208284031215615982576159816142e9565b5b600061599084828501615957565b91505092915050565b60006060820190506159ae600083018661495e565b6159bb602083018561495e565b6159c860408301846143b8565b949350505050565b60006040820190506159e5600083018561495e565b6159f26020830184614589565b9392505050565b600081519050919050565b6000615a0f826159f9565b615a19818561574b565b9350615a298185602086016149f8565b80840191505092915050565b6000615a418284615a04565b91508190509291505056fea26469706673582212203829470f8d44065ce8d5a3a233b0548eff09a4dd80f243e0762b72c8485372d264736f6c634300081c0033","opcodes":"PUSH1 0xA0 PUSH1 0x40 MSTORE ADDRESS PUSH20 0xFFFFFFFFFFFFFFFFFFFFFFFFFFFFFFFFFFFFFFFF AND PUSH1 0x80 SWAP1 PUSH20 0xFFFFFFFFFFFFFFFFFFFFFFFFFFFFFFFFFFFFFFFF AND DUP2 MSTORE POP CALLVALUE DUP1 ISZERO PUSH1 0x42 JUMPI PUSH1 0x0 DUP1 REVERT JUMPDEST POP PUSH1 0x80 MLOAD PUSH2 0x5A82 PUSH2 0x6C PUSH1 0x0 CODECOPY PUSH1 0x0 DUP2 DUP2 PUSH2 0x39B3 ADD MSTORE DUP2 DUP2 PUSH2 0x3A08 ADD MSTORE PUSH2 0x3C9E ADD MSTORE PUSH2 0x5A82 PUSH1 0x0 RETURN INVALID PUSH1 0x80 PUSH1 0x40 MSTORE PUSH1 0x4 CALLDATASIZE LT PUSH2 0x2FF JUMPI PUSH1 0x0 CALLDATALOAD PUSH1 0xE0 SHR DUP1 PUSH4 0x9E2C8A5B GT PUSH2 0x190 JUMPI DUP1 PUSH4 0xBFC3EBBA GT PUSH2 0xDC JUMPI DUP1 PUSH4 0xE2BBB158 GT PUSH2 0x95 JUMPI DUP1 PUSH4 0xF6326FB3 GT PUSH2 0x6F JUMPI DUP1 PUSH4 0xF6326FB3 EQ PUSH2 0xB41 JUMPI DUP1 PUSH4 0xFAD07ECE EQ PUSH2 0xB4B JUMPI DUP1 PUSH4 0xFE313112 EQ PUSH2 0xB74 JUMPI DUP1 PUSH4 0xFF423357 EQ PUSH2 0xBB7 JUMPI PUSH2 0x2FF JUMP JUMPDEST DUP1 PUSH4 0xE2BBB158 EQ PUSH2 0xAC6 JUMPI DUP1 PUSH4 0xF35E4A6E EQ PUSH2 0xAEF JUMPI DUP1 PUSH4 0xF5485D32 EQ PUSH2 0xB18 JUMPI PUSH2 0x2FF JUMP JUMPDEST DUP1 PUSH4 0xBFC3EBBA EQ PUSH2 0x9F2 JUMPI DUP1 PUSH4 0xC397920E EQ PUSH2 0xA1D JUMPI DUP1 PUSH4 0xC713AA94 EQ PUSH2 0xA34 JUMPI DUP1 PUSH4 0xD547741F EQ PUSH2 0xA5D JUMPI DUP1 PUSH4 0xD86C0444 EQ PUSH2 0xA86 JUMPI DUP1 PUSH4 0xDE065CAA EQ PUSH2 0xAAF JUMPI PUSH2 0x2FF JUMP JUMPDEST DUP1 PUSH4 0xAB5E124A GT PUSH2 0x149 JUMPI DUP1 PUSH4 0xB3944D52 GT PUSH2 0x123 JUMPI DUP1 PUSH4 0xB3944D52 EQ PUSH2 0x94A JUMPI DUP1 PUSH4 0xB6D9D919 EQ PUSH2 0x975 JUMPI DUP1 PUSH4 0xB908AFA8 EQ PUSH2 0x99E JUMPI DUP1 PUSH4 0xBED66C08 EQ PUSH2 0x9C9 JUMPI PUSH2 0x2FF JUMP JUMPDEST DUP1 PUSH4 0xAB5E124A EQ PUSH2 0x8B1 JUMPI DUP1 PUSH4 0xAC4AFA38 EQ PUSH2 0x8DC JUMPI DUP1 PUSH4 0xAD3CB1CC EQ PUSH2 0x91F JUMPI PUSH2 0x2FF JUMP JUMPDEST DUP1 PUSH4 0x9E2C8A5B EQ PUSH2 0x78B JUMPI DUP1 PUSH4 0xA17BFF83 EQ PUSH2 0x7B4 JUMPI DUP1 PUSH4 0xA217FDDF EQ PUSH2 0x7DF JUMPI DUP1 PUSH4 0xA27D9279 EQ PUSH2 0x80A JUMPI DUP1 PUSH4 0xA72D5BF4 EQ PUSH2 0x847 JUMPI DUP1 PUSH4 0xA87430BA EQ PUSH2 0x872 JUMPI PUSH2 0x2FF JUMP JUMPDEST DUP1 PUSH4 0x48CD4CB1 GT PUSH2 0x24F JUMPI DUP1 PUSH4 0x6155E3DE GT PUSH2 0x208 JUMPI DUP1 PUSH4 0x75B238FC GT PUSH2 0x1E2 JUMPI DUP1 PUSH4 0x75B238FC EQ PUSH2 0x6CF JUMPI DUP1 PUSH4 0x8DBB1E3A EQ PUSH2 0x6FA JUMPI DUP1 PUSH4 0x8FF095F9 EQ PUSH2 0x737 JUMPI DUP1 PUSH4 0x91D14854 EQ PUSH2 0x74E JUMPI PUSH2 0x2FF JUMP JUMPDEST DUP1 PUSH4 0x6155E3DE EQ PUSH2 0x676 JUMPI DUP1 PUSH4 0x630B5BA1 EQ PUSH2 0x68D JUMPI DUP1 PUSH4 0x70FF0173 EQ PUSH2 0x6A4 JUMPI PUSH2 0x2FF JUMP JUMPDEST DUP1 PUSH4 0x48CD4CB1 EQ PUSH2 0x587 JUMPI DUP1 PUSH4 0x4EC81AF1 EQ PUSH2 0x5B2 JUMPI DUP1 PUSH4 0x4F1EF286 EQ PUSH2 0x5DB JUMPI DUP1 PUSH4 0x51EB05A6 EQ PUSH2 0x5F7 JUMPI DUP1 PUSH4 0x52D1902D EQ PUSH2 0x620 JUMPI DUP1 PUSH4 0x5C975ABB EQ PUSH2 0x64B JUMPI PUSH2 0x2FF JUMP JUMPDEST DUP1 PUSH4 0x2E1A7D4D GT PUSH2 0x2BC JUMPI DUP1 PUSH4 0x36568ABE GT PUSH2 0x296 JUMPI DUP1 PUSH4 0x36568ABE EQ PUSH2 0x4B9 JUMPI DUP1 PUSH4 0x37849B3C EQ PUSH2 0x4E2 JUMPI DUP1 PUSH4 0x379607F5 EQ PUSH2 0x521 JUMPI DUP1 PUSH4 0x41721AB7 EQ PUSH2 0x54A JUMPI PUSH2 0x2FF JUMP JUMPDEST DUP1 PUSH4 0x2E1A7D4D EQ PUSH2 0x43C JUMPI DUP1 PUSH4 0x2F2FF15D EQ PUSH2 0x465 JUMPI DUP1 PUSH4 0x2F3FFB9F EQ PUSH2 0x48E JUMPI PUSH2 0x2FF JUMP JUMPDEST DUP1 PUSH4 0x1FFC9A7 EQ PUSH2 0x304 JUMPI DUP1 PUSH4 0x2559004 EQ PUSH2 0x341 JUMPI DUP1 PUSH4 0x83C6323 EQ PUSH2 0x36C JUMPI DUP1 PUSH4 0x11548234 EQ PUSH2 0x397 JUMPI DUP1 PUSH4 0x23B6443E EQ PUSH2 0x3D4 JUMPI DUP1 PUSH4 0x248A9CA3 EQ PUSH2 0x3FF JUMPI JUMPDEST PUSH1 0x0 DUP1 REVERT JUMPDEST CALLVALUE DUP1 ISZERO PUSH2 0x310 JUMPI PUSH1 0x0 DUP1 REVERT JUMPDEST POP PUSH2 0x32B PUSH1 0x4 DUP1 CALLDATASIZE SUB DUP2 ADD SWAP1 PUSH2 0x326 SWAP2 SWAP1 PUSH2 0x434B JUMP JUMPDEST PUSH2 0xBF5 JUMP JUMPDEST PUSH1 0x40 MLOAD PUSH2 0x338 SWAP2 SWAP1 PUSH2 0x4393 JUMP JUMPDEST PUSH1 0x40 MLOAD DUP1 SWAP2 SUB SWAP1 RETURN JUMPDEST CALLVALUE DUP1 ISZERO PUSH2 0x34D JUMPI PUSH1 0x0 DUP1 REVERT JUMPDEST POP PUSH2 0x356 PUSH2 0xC6F JUMP JUMPDEST PUSH1 0x40 MLOAD PUSH2 0x363 SWAP2 SWAP1 PUSH2 0x43C7 JUMP JUMPDEST PUSH1 0x40 MLOAD DUP1 SWAP2 SUB SWAP1 RETURN JUMPDEST CALLVALUE DUP1 ISZERO PUSH2 0x378 JUMPI PUSH1 0x0 DUP1 REVERT JUMPDEST POP PUSH2 0x381 PUSH2 0xC75 JUMP JUMPDEST PUSH1 0x40 MLOAD PUSH2 0x38E SWAP2 SWAP1 PUSH2 0x43C7 JUMP JUMPDEST PUSH1 0x40 MLOAD DUP1 SWAP2 SUB SWAP1 RETURN JUMPDEST CALLVALUE DUP1 ISZERO PUSH2 0x3A3 JUMPI PUSH1 0x0 DUP1 REVERT JUMPDEST POP PUSH2 0x3BE PUSH1 0x4 DUP1 CALLDATASIZE SUB DUP2 ADD SWAP1 PUSH2 0x3B9 SWAP2 SWAP1 PUSH2 0x446C JUMP JUMPDEST PUSH2 0xC7B JUMP JUMPDEST PUSH1 0x40 MLOAD PUSH2 0x3CB SWAP2 SWAP1 PUSH2 0x43C7 JUMP JUMPDEST PUSH1 0x40 MLOAD DUP1 SWAP2 SUB SWAP1 RETURN JUMPDEST CALLVALUE DUP1 ISZERO PUSH2 0x3E0 JUMPI PUSH1 0x0 DUP1 REVERT JUMPDEST POP PUSH2 0x3E9 PUSH2 0xD22 JUMP JUMPDEST PUSH1 0x40 MLOAD PUSH2 0x3F6 SWAP2 SWAP1 PUSH2 0x450B JUMP JUMPDEST PUSH1 0x40 MLOAD DUP1 SWAP2 SUB SWAP1 RETURN JUMPDEST CALLVALUE DUP1 ISZERO PUSH2 0x40B JUMPI PUSH1 0x0 DUP1 REVERT JUMPDEST POP PUSH2 0x426 PUSH1 0x4 DUP1 CALLDATASIZE SUB DUP2 ADD SWAP1 PUSH2 0x421 SWAP2 SWAP1 PUSH2 0x455C JUMP JUMPDEST PUSH2 0xD48 JUMP JUMPDEST PUSH1 0x40 MLOAD PUSH2 0x433 SWAP2 SWAP1 PUSH2 0x4598 JUMP JUMPDEST PUSH1 0x40 MLOAD DUP1 SWAP2 SUB SWAP1 RETURN JUMPDEST CALLVALUE DUP1 ISZERO PUSH2 0x448 JUMPI PUSH1 0x0 DUP1 REVERT JUMPDEST POP PUSH2 0x463 PUSH1 0x4 DUP1 CALLDATASIZE SUB DUP2 ADD SWAP1 PUSH2 0x45E SWAP2 SWAP1 PUSH2 0x45B3 JUMP JUMPDEST PUSH2 0xD76 JUMP JUMPDEST STOP JUMPDEST CALLVALUE DUP1 ISZERO PUSH2 0x471 JUMPI PUSH1 0x0 DUP1 REVERT JUMPDEST POP PUSH2 0x48C PUSH1 0x4 DUP1 CALLDATASIZE SUB DUP2 ADD SWAP1 PUSH2 0x487 SWAP2 SWAP1 PUSH2 0x45E0 JUMP JUMPDEST PUSH2 0x1129 JUMP JUMPDEST STOP JUMPDEST CALLVALUE DUP1 ISZERO PUSH2 0x49A JUMPI PUSH1 0x0 DUP1 REVERT JUMPDEST POP PUSH2 0x4A3 PUSH2 0x114B JUMP JUMPDEST PUSH1 0x40 MLOAD PUSH2 0x4B0 SWAP2 SWAP1 PUSH2 0x4393 JUMP JUMPDEST PUSH1 0x40 MLOAD DUP1 SWAP2 SUB SWAP1 RETURN JUMPDEST CALLVALUE DUP1 ISZERO PUSH2 0x4C5 JUMPI PUSH1 0x0 DUP1 REVERT JUMPDEST POP PUSH2 0x4E0 PUSH1 0x4 DUP1 CALLDATASIZE SUB DUP2 ADD SWAP1 PUSH2 0x4DB SWAP2 SWAP1 PUSH2 0x45E0 JUMP JUMPDEST PUSH2 0x115E JUMP JUMPDEST STOP JUMPDEST CALLVALUE DUP1 ISZERO PUSH2 0x4EE JUMPI PUSH1 0x0 DUP1 REVERT JUMPDEST POP PUSH2 0x509 PUSH1 0x4 DUP1 CALLDATASIZE SUB DUP2 ADD SWAP1 PUSH2 0x504 SWAP2 SWAP1 PUSH2 0x446C JUMP JUMPDEST PUSH2 0x11D9 JUMP JUMPDEST PUSH1 0x40 MLOAD PUSH2 0x518 SWAP4 SWAP3 SWAP2 SWAP1 PUSH2 0x4620 JUMP JUMPDEST PUSH1 0x40 MLOAD DUP1 SWAP2 SUB SWAP1 RETURN JUMPDEST CALLVALUE DUP1 ISZERO PUSH2 0x52D JUMPI PUSH1 0x0 DUP1 REVERT JUMPDEST POP PUSH2 0x548 PUSH1 0x4 DUP1 CALLDATASIZE SUB DUP2 ADD SWAP1 PUSH2 0x543 SWAP2 SWAP1 PUSH2 0x45B3 JUMP JUMPDEST PUSH2 0x1210 JUMP JUMPDEST STOP JUMPDEST CALLVALUE DUP1 ISZERO PUSH2 0x556 JUMPI PUSH1 0x0 DUP1 REVERT JUMPDEST POP PUSH2 0x571 PUSH1 0x4 DUP1 CALLDATASIZE SUB DUP2 ADD SWAP1 PUSH2 0x56C SWAP2 SWAP1 PUSH2 0x4657 JUMP JUMPDEST PUSH2 0x141F JUMP JUMPDEST PUSH1 0x40 MLOAD PUSH2 0x57E SWAP2 SWAP1 PUSH2 0x43C7 JUMP JUMPDEST PUSH1 0x40 MLOAD DUP1 SWAP2 SUB SWAP1 RETURN JUMPDEST CALLVALUE DUP1 ISZERO PUSH2 0x593 JUMPI PUSH1 0x0 DUP1 REVERT JUMPDEST POP PUSH2 0x59C PUSH2 0x1575 JUMP JUMPDEST PUSH1 0x40 MLOAD PUSH2 0x5A9 SWAP2 SWAP1 PUSH2 0x43C7 JUMP JUMPDEST PUSH1 0x40 MLOAD DUP1 SWAP2 SUB SWAP1 RETURN JUMPDEST CALLVALUE DUP1 ISZERO PUSH2 0x5BE JUMPI PUSH1 0x0 DUP1 REVERT JUMPDEST POP PUSH2 0x5D9 PUSH1 0x4 DUP1 CALLDATASIZE SUB DUP2 ADD SWAP1 PUSH2 0x5D4 SWAP2 SWAP1 PUSH2 0x46E8 JUMP JUMPDEST PUSH2 0x157B JUMP JUMPDEST STOP JUMPDEST PUSH2 0x5F5 PUSH1 0x4 DUP1 CALLDATASIZE SUB DUP2 ADD SWAP1 PUSH2 0x5F0 SWAP2 SWAP1 PUSH2 0x4895 JUMP JUMPDEST PUSH2 0x181C JUMP JUMPDEST STOP JUMPDEST CALLVALUE DUP1 ISZERO PUSH2 0x603 JUMPI PUSH1 0x0 DUP1 REVERT JUMPDEST POP PUSH2 0x61E PUSH1 0x4 DUP1 CALLDATASIZE SUB DUP2 ADD SWAP1 PUSH2 0x619 SWAP2 SWAP1 PUSH2 0x45B3 JUMP JUMPDEST PUSH2 0x183B JUMP JUMPDEST STOP JUMPDEST CALLVALUE DUP1 ISZERO PUSH2 0x62C JUMPI PUSH1 0x0 DUP1 REVERT JUMPDEST POP PUSH2 0x635 PUSH2 0x1B2E JUMP JUMPDEST PUSH1 0x40 MLOAD PUSH2 0x642 SWAP2 SWAP1 PUSH2 0x4598 JUMP JUMPDEST PUSH1 0x40 MLOAD DUP1 SWAP2 SUB SWAP1 RETURN JUMPDEST CALLVALUE DUP1 ISZERO PUSH2 0x657 JUMPI PUSH1 0x0 DUP1 REVERT JUMPDEST POP PUSH2 0x660 PUSH2 0x1B61 JUMP JUMPDEST PUSH1 0x40 MLOAD PUSH2 0x66D SWAP2 SWAP1 PUSH2 0x4393 JUMP JUMPDEST PUSH1 0x40 MLOAD DUP1 SWAP2 SUB SWAP1 RETURN JUMPDEST CALLVALUE DUP1 ISZERO PUSH2 0x682 JUMPI PUSH1 0x0 DUP1 REVERT JUMPDEST POP PUSH2 0x68B PUSH2 0x1B86 JUMP JUMPDEST STOP JUMPDEST CALLVALUE DUP1 ISZERO PUSH2 0x699 JUMPI PUSH1 0x0 DUP1 REVERT JUMPDEST POP PUSH2 0x6A2 PUSH2 0x1C49 JUMP JUMPDEST STOP JUMPDEST CALLVALUE DUP1 ISZERO PUSH2 0x6B0 JUMPI PUSH1 0x0 DUP1 REVERT JUMPDEST POP PUSH2 0x6B9 PUSH2 0x1C78 JUMP JUMPDEST PUSH1 0x40 MLOAD PUSH2 0x6C6 SWAP2 SWAP1 PUSH2 0x43C7 JUMP JUMPDEST PUSH1 0x40 MLOAD DUP1 SWAP2 SUB SWAP1 RETURN JUMPDEST CALLVALUE DUP1 ISZERO PUSH2 0x6DB JUMPI PUSH1 0x0 DUP1 REVERT JUMPDEST POP PUSH2 0x6E4 PUSH2 0x1C7E JUMP JUMPDEST PUSH1 0x40 MLOAD PUSH2 0x6F1 SWAP2 SWAP1 PUSH2 0x4598 JUMP JUMPDEST PUSH1 0x40 MLOAD DUP1 SWAP2 SUB SWAP1 RETURN JUMPDEST CALLVALUE DUP1 ISZERO PUSH2 0x706 JUMPI PUSH1 0x0 DUP1 REVERT JUMPDEST POP PUSH2 0x721 PUSH1 0x4 DUP1 CALLDATASIZE SUB DUP2 ADD SWAP1 PUSH2 0x71C SWAP2 SWAP1 PUSH2 0x48F1 JUMP JUMPDEST PUSH2 0x1CA2 JUMP JUMPDEST PUSH1 0x40 MLOAD PUSH2 0x72E SWAP2 SWAP1 PUSH2 0x43C7 JUMP JUMPDEST PUSH1 0x40 MLOAD DUP1 SWAP2 SUB SWAP1 RETURN JUMPDEST CALLVALUE DUP1 ISZERO PUSH2 0x743 JUMPI PUSH1 0x0 DUP1 REVERT JUMPDEST POP PUSH2 0x74C PUSH2 0x1DC6 JUMP JUMPDEST STOP JUMPDEST CALLVALUE DUP1 ISZERO PUSH2 0x75A JUMPI PUSH1 0x0 DUP1 REVERT JUMPDEST POP PUSH2 0x775 PUSH1 0x4 DUP1 CALLDATASIZE SUB DUP2 ADD SWAP1 PUSH2 0x770 SWAP2 SWAP1 PUSH2 0x45E0 JUMP JUMPDEST PUSH2 0x1E8A JUMP JUMPDEST PUSH1 0x40 MLOAD PUSH2 0x782 SWAP2 SWAP1 PUSH2 0x4393 JUMP JUMPDEST PUSH1 0x40 MLOAD DUP1 SWAP2 SUB SWAP1 RETURN JUMPDEST CALLVALUE DUP1 ISZERO PUSH2 0x797 JUMPI PUSH1 0x0 DUP1 REVERT JUMPDEST POP PUSH2 0x7B2 PUSH1 0x4 DUP1 CALLDATASIZE SUB DUP2 ADD SWAP1 PUSH2 0x7AD SWAP2 SWAP1 PUSH2 0x48F1 JUMP JUMPDEST PUSH2 0x1F03 JUMP JUMPDEST STOP JUMPDEST CALLVALUE DUP1 ISZERO PUSH2 0x7C0 JUMPI PUSH1 0x0 DUP1 REVERT JUMPDEST POP PUSH2 0x7C9 PUSH2 0x220B JUMP JUMPDEST PUSH1 0x40 MLOAD PUSH2 0x7D6 SWAP2 SWAP1 PUSH2 0x43C7 JUMP JUMPDEST PUSH1 0x40 MLOAD DUP1 SWAP2 SUB SWAP1 RETURN JUMPDEST CALLVALUE DUP1 ISZERO PUSH2 0x7EB JUMPI PUSH1 0x0 DUP1 REVERT JUMPDEST POP PUSH2 0x7F4 PUSH2 0x2211 JUMP JUMPDEST PUSH1 0x40 MLOAD PUSH2 0x801 SWAP2 SWAP1 PUSH2 0x4598 JUMP JUMPDEST PUSH1 0x40 MLOAD DUP1 SWAP2 SUB SWAP1 RETURN JUMPDEST CALLVALUE DUP1 ISZERO PUSH2 0x816 JUMPI PUSH1 0x0 DUP1 REVERT JUMPDEST POP PUSH2 0x831 PUSH1 0x4 DUP1 CALLDATASIZE SUB DUP2 ADD SWAP1 PUSH2 0x82C SWAP2 SWAP1 PUSH2 0x446C JUMP JUMPDEST PUSH2 0x2218 JUMP JUMPDEST PUSH1 0x40 MLOAD PUSH2 0x83E SWAP2 SWAP1 PUSH2 0x43C7 JUMP JUMPDEST PUSH1 0x40 MLOAD DUP1 SWAP2 SUB SWAP1 RETURN JUMPDEST CALLVALUE DUP1 ISZERO PUSH2 0x853 JUMPI PUSH1 0x0 DUP1 REVERT JUMPDEST POP PUSH2 0x85C PUSH2 0x2276 JUMP JUMPDEST PUSH1 0x40 MLOAD PUSH2 0x869 SWAP2 SWAP1 PUSH2 0x450B JUMP JUMPDEST PUSH1 0x40 MLOAD DUP1 SWAP2 SUB SWAP1 RETURN JUMPDEST CALLVALUE DUP1 ISZERO PUSH2 0x87E JUMPI PUSH1 0x0 DUP1 REVERT JUMPDEST POP PUSH2 0x899 PUSH1 0x4 DUP1 CALLDATASIZE SUB DUP2 ADD SWAP1 PUSH2 0x894 SWAP2 SWAP1 PUSH2 0x4931 JUMP JUMPDEST PUSH2 0x229C JUMP JUMPDEST PUSH1 0x40 MLOAD PUSH2 0x8A8 SWAP4 SWAP3 SWAP2 SWAP1 PUSH2 0x4620 JUMP JUMPDEST PUSH1 0x40 MLOAD DUP1 SWAP2 SUB SWAP1 RETURN JUMPDEST CALLVALUE DUP1 ISZERO PUSH2 0x8BD JUMPI PUSH1 0x0 DUP1 REVERT JUMPDEST POP PUSH2 0x8C6 PUSH2 0x22C6 JUMP JUMPDEST PUSH1 0x40 MLOAD PUSH2 0x8D3 SWAP2 SWAP1 PUSH2 0x4393 JUMP JUMPDEST PUSH1 0x40 MLOAD DUP1 SWAP2 SUB SWAP1 RETURN JUMPDEST CALLVALUE DUP1 ISZERO PUSH2 0x8E8 JUMPI PUSH1 0x0 DUP1 REVERT JUMPDEST POP PUSH2 0x903 PUSH1 0x4 DUP1 CALLDATASIZE SUB DUP2 ADD SWAP1 PUSH2 0x8FE SWAP2 SWAP1 PUSH2 0x45B3 JUMP JUMPDEST PUSH2 0x22D9 JUMP JUMPDEST PUSH1 0x40 MLOAD PUSH2 0x916 SWAP8 SWAP7 SWAP6 SWAP5 SWAP4 SWAP3 SWAP2 SWAP1 PUSH2 0x496D JUMP JUMPDEST PUSH1 0x40 MLOAD DUP1 SWAP2 SUB SWAP1 RETURN JUMPDEST CALLVALUE DUP1 ISZERO PUSH2 0x92B JUMPI PUSH1 0x0 DUP1 REVERT JUMPDEST POP PUSH2 0x934 PUSH2 0x234B JUMP JUMPDEST PUSH1 0x40 MLOAD PUSH2 0x941 SWAP2 SWAP1 PUSH2 0x4A5B JUMP JUMPDEST PUSH1 0x40 MLOAD DUP1 SWAP2 SUB SWAP1 RETURN JUMPDEST CALLVALUE DUP1 ISZERO PUSH2 0x956 JUMPI PUSH1 0x0 DUP1 REVERT JUMPDEST POP PUSH2 0x95F PUSH2 0x2384 JUMP JUMPDEST PUSH1 0x40 MLOAD PUSH2 0x96C SWAP2 SWAP1 PUSH2 0x43C7 JUMP JUMPDEST PUSH1 0x40 MLOAD DUP1 SWAP2 SUB SWAP1 RETURN JUMPDEST CALLVALUE DUP1 ISZERO PUSH2 0x981 JUMPI PUSH1 0x0 DUP1 REVERT JUMPDEST POP PUSH2 0x99C PUSH1 0x4 DUP1 CALLDATASIZE SUB DUP2 ADD SWAP1 PUSH2 0x997 SWAP2 SWAP1 PUSH2 0x4AA9 JUMP JUMPDEST PUSH2 0x2391 JUMP JUMPDEST STOP JUMPDEST CALLVALUE DUP1 ISZERO PUSH2 0x9AA JUMPI PUSH1 0x0 DUP1 REVERT JUMPDEST POP PUSH2 0x9B3 PUSH2 0x270E JUMP JUMPDEST PUSH1 0x40 MLOAD PUSH2 0x9C0 SWAP2 SWAP1 PUSH2 0x4598 JUMP JUMPDEST PUSH1 0x40 MLOAD DUP1 SWAP2 SUB SWAP1 RETURN JUMPDEST CALLVALUE DUP1 ISZERO PUSH2 0x9D5 JUMPI PUSH1 0x0 DUP1 REVERT JUMPDEST POP PUSH2 0x9F0 PUSH1 0x4 DUP1 CALLDATASIZE SUB DUP2 ADD SWAP1 PUSH2 0x9EB SWAP2 SWAP1 PUSH2 0x45B3 JUMP JUMPDEST PUSH2 0x2732 JUMP JUMPDEST STOP JUMPDEST CALLVALUE DUP1 ISZERO PUSH2 0x9FE JUMPI PUSH1 0x0 DUP1 REVERT JUMPDEST POP PUSH2 0xA07 PUSH2 0x27D7 JUMP JUMPDEST PUSH1 0x40 MLOAD PUSH2 0xA14 SWAP2 SWAP1 PUSH2 0x43C7 JUMP JUMPDEST PUSH1 0x40 MLOAD DUP1 SWAP2 SUB SWAP1 RETURN JUMPDEST CALLVALUE DUP1 ISZERO PUSH2 0xA29 JUMPI PUSH1 0x0 DUP1 REVERT JUMPDEST POP PUSH2 0xA32 PUSH2 0x27DC JUMP JUMPDEST STOP JUMPDEST CALLVALUE DUP1 ISZERO PUSH2 0xA40 JUMPI PUSH1 0x0 DUP1 REVERT JUMPDEST POP PUSH2 0xA5B PUSH1 0x4 DUP1 CALLDATASIZE SUB DUP2 ADD SWAP1 PUSH2 0xA56 SWAP2 SWAP1 PUSH2 0x45B3 JUMP JUMPDEST PUSH2 0x28A0 JUMP JUMPDEST STOP JUMPDEST CALLVALUE DUP1 ISZERO PUSH2 0xA69 JUMPI PUSH1 0x0 DUP1 REVERT JUMPDEST POP PUSH2 0xA84 PUSH1 0x4 DUP1 CALLDATASIZE SUB DUP2 ADD SWAP1 PUSH2 0xA7F SWAP2 SWAP1 PUSH2 0x45E0 JUMP JUMPDEST PUSH2 0x2947 JUMP JUMPDEST STOP JUMPDEST CALLVALUE DUP1 ISZERO PUSH2 0xA92 JUMPI PUSH1 0x0 DUP1 REVERT JUMPDEST POP PUSH2 0xAAD PUSH1 0x4 DUP1 CALLDATASIZE SUB DUP2 ADD SWAP1 PUSH2 0xAA8 SWAP2 SWAP1 PUSH2 0x4B24 JUMP JUMPDEST PUSH2 0x2969 JUMP JUMPDEST STOP JUMPDEST CALLVALUE DUP1 ISZERO PUSH2 0xABB JUMPI PUSH1 0x0 DUP1 REVERT JUMPDEST POP PUSH2 0xAC4 PUSH2 0x2AAC JUMP JUMPDEST STOP JUMPDEST CALLVALUE DUP1 ISZERO PUSH2 0xAD2 JUMPI PUSH1 0x0 DUP1 REVERT JUMPDEST POP PUSH2 0xAED PUSH1 0x4 DUP1 CALLDATASIZE SUB DUP2 ADD SWAP1 PUSH2 0xAE8 SWAP2 SWAP1 PUSH2 0x48F1 JUMP JUMPDEST PUSH2 0x2B6F JUMP JUMPDEST STOP JUMPDEST CALLVALUE DUP1 ISZERO PUSH2 0xAFB JUMPI PUSH1 0x0 DUP1 REVERT JUMPDEST POP PUSH2 0xB16 PUSH1 0x4 DUP1 CALLDATASIZE SUB DUP2 ADD SWAP1 PUSH2 0xB11 SWAP2 SWAP1 PUSH2 0x45B3 JUMP JUMPDEST PUSH2 0x2D21 JUMP JUMPDEST STOP JUMPDEST CALLVALUE DUP1 ISZERO PUSH2 0xB24 JUMPI PUSH1 0x0 DUP1 REVERT JUMPDEST POP PUSH2 0xB3F PUSH1 0x4 DUP1 CALLDATASIZE SUB DUP2 ADD SWAP1 PUSH2 0xB3A SWAP2 SWAP1 PUSH2 0x4B77 JUMP JUMPDEST PUSH2 0x2DC8 JUMP JUMPDEST STOP JUMPDEST PUSH2 0xB49 PUSH2 0x2E9C JUMP JUMPDEST STOP JUMPDEST CALLVALUE DUP1 ISZERO PUSH2 0xB57 JUMPI PUSH1 0x0 DUP1 REVERT JUMPDEST POP PUSH2 0xB72 PUSH1 0x4 DUP1 CALLDATASIZE SUB DUP2 ADD SWAP1 PUSH2 0xB6D SWAP2 SWAP1 PUSH2 0x4BA4 JUMP JUMPDEST PUSH2 0x2FB8 JUMP JUMPDEST STOP JUMPDEST CALLVALUE DUP1 ISZERO PUSH2 0xB80 JUMPI PUSH1 0x0 DUP1 REVERT JUMPDEST POP PUSH2 0xB9B PUSH1 0x4 DUP1 CALLDATASIZE SUB DUP2 ADD SWAP1 PUSH2 0xB96 SWAP2 SWAP1 PUSH2 0x45B3 JUMP JUMPDEST PUSH2 0x312B JUMP JUMPDEST PUSH1 0x40 MLOAD PUSH2 0xBAE SWAP8 SWAP7 SWAP6 SWAP5 SWAP4 SWAP3 SWAP2 SWAP1 PUSH2 0x496D JUMP JUMPDEST PUSH1 0x40 MLOAD DUP1 SWAP2 SUB SWAP1 RETURN JUMPDEST CALLVALUE DUP1 ISZERO PUSH2 0xBC3 JUMPI PUSH1 0x0 DUP1 REVERT JUMPDEST POP PUSH2 0xBDE PUSH1 0x4 DUP1 CALLDATASIZE SUB DUP2 ADD SWAP1 PUSH2 0xBD9 SWAP2 SWAP1 PUSH2 0x446C JUMP JUMPDEST PUSH2 0x319D JUMP JUMPDEST PUSH1 0x40 MLOAD PUSH2 0xBEC SWAP3 SWAP2 SWAP1 PUSH2 0x4BF7 JUMP JUMPDEST PUSH1 0x40 MLOAD DUP1 SWAP2 SUB SWAP1 RETURN JUMPDEST PUSH1 0x0 PUSH32 0x7965DB0B00000000000000000000000000000000000000000000000000000000 PUSH28 0xFFFFFFFFFFFFFFFFFFFFFFFFFFFFFFFFFFFFFFFFFFFFFFFFFFFFFFFF NOT AND DUP3 PUSH28 0xFFFFFFFFFFFFFFFFFFFFFFFFFFFFFFFFFFFFFFFFFFFFFFFFFFFFFFFF NOT AND EQ DUP1 PUSH2 0xC68 JUMPI POP PUSH2 0xC67 DUP3 PUSH2 0x32FE JUMP JUMPDEST JUMPDEST SWAP1 POP SWAP2 SWAP1 POP JUMP JUMPDEST PUSH1 0x4 SLOAD DUP2 JUMP JUMPDEST PUSH1 0x1 SLOAD DUP2 JUMP JUMPDEST PUSH1 0x0 DUP3 PUSH1 0x5 DUP1 SLOAD SWAP1 POP DUP2 LT PUSH2 0xCC5 JUMPI PUSH1 0x40 MLOAD PUSH32 0x8C379A000000000000000000000000000000000000000000000000000000000 DUP2 MSTORE PUSH1 0x4 ADD PUSH2 0xCBC SWAP1 PUSH2 0x4C6C JUMP JUMPDEST PUSH1 0x40 MLOAD DUP1 SWAP2 SUB SWAP1 REVERT JUMPDEST PUSH1 0xA PUSH1 0x0 DUP6 DUP2 MSTORE PUSH1 0x20 ADD SWAP1 DUP2 MSTORE PUSH1 0x20 ADD PUSH1 0x0 KECCAK256 PUSH1 0x0 DUP5 PUSH20 0xFFFFFFFFFFFFFFFFFFFFFFFFFFFFFFFFFFFFFFFF AND PUSH20 0xFFFFFFFFFFFFFFFFFFFFFFFFFFFFFFFFFFFFFFFF AND DUP2 MSTORE PUSH1 0x20 ADD SWAP1 DUP2 MSTORE PUSH1 0x20 ADD PUSH1 0x0 KECCAK256 PUSH1 0x0 ADD SLOAD SWAP2 POP POP SWAP3 SWAP2 POP POP JUMP JUMPDEST PUSH1 0x8 PUSH1 0x0 SWAP1 SLOAD SWAP1 PUSH2 0x100 EXP SWAP1 DIV PUSH20 0xFFFFFFFFFFFFFFFFFFFFFFFFFFFFFFFFFFFFFFFF AND DUP2 JUMP JUMPDEST PUSH1 0x0 DUP1 PUSH2 0xD53 PUSH2 0x3368 JUMP JUMPDEST SWAP1 POP DUP1 PUSH1 0x0 ADD PUSH1 0x0 DUP5 DUP2 MSTORE PUSH1 0x20 ADD SWAP1 DUP2 MSTORE PUSH1 0x20 ADD PUSH1 0x0 KECCAK256 PUSH1 0x1 ADD SLOAD SWAP2 POP POP SWAP2 SWAP1 POP JUMP JUMPDEST PUSH2 0xD7E PUSH2 0x3390 JUMP JUMPDEST PUSH1 0x3 PUSH1 0x0 SWAP1 SLOAD SWAP1 PUSH2 0x100 EXP SWAP1 DIV PUSH1 0xFF AND ISZERO PUSH2 0xDCE JUMPI PUSH1 0x40 MLOAD PUSH32 0x8C379A000000000000000000000000000000000000000000000000000000000 DUP2 MSTORE PUSH1 0x4 ADD PUSH2 0xDC5 SWAP1 PUSH2 0x4CD8 JUMP JUMPDEST PUSH1 0x40 MLOAD DUP1 SWAP2 SUB SWAP1 REVERT JUMPDEST DUP1 PUSH1 0x5 DUP1 SLOAD SWAP1 POP DUP2 LT PUSH2 0xE16 JUMPI PUSH1 0x40 MLOAD PUSH32 0x8C379A000000000000000000000000000000000000000000000000000000000 DUP2 MSTORE PUSH1 0x4 ADD PUSH2 0xE0D SWAP1 PUSH2 0x4C6C JUMP JUMPDEST PUSH1 0x40 MLOAD DUP1 SWAP2 SUB SWAP1 REVERT JUMPDEST PUSH1 0x0 PUSH1 0x5 DUP4 DUP2 SLOAD DUP2 LT PUSH2 0xE2C JUMPI PUSH2 0xE2B PUSH2 0x4CF8 JUMP JUMPDEST JUMPDEST SWAP1 PUSH1 0x0 MSTORE PUSH1 0x20 PUSH1 0x0 KECCAK256 SWAP1 PUSH1 0x7 MUL ADD SWAP1 POP PUSH1 0x0 PUSH1 0xA PUSH1 0x0 DUP6 DUP2 MSTORE PUSH1 0x20 ADD SWAP1 DUP2 MSTORE PUSH1 0x20 ADD PUSH1 0x0 KECCAK256 PUSH1 0x0 CALLER PUSH20 0xFFFFFFFFFFFFFFFFFFFFFFFFFFFFFFFFFFFFFFFF AND PUSH20 0xFFFFFFFFFFFFFFFFFFFFFFFFFFFFFFFFFFFFFFFF AND DUP2 MSTORE PUSH1 0x20 ADD SWAP1 DUP2 MSTORE PUSH1 0x20 ADD PUSH1 0x0 KECCAK256 SWAP1 POP PUSH1 0x0 DUP1 PUSH1 0x0 JUMPDEST DUP4 PUSH1 0x3 ADD DUP1 SLOAD SWAP1 POP DUP2 LT ISZERO PUSH2 0xF24 JUMPI NUMBER DUP5 PUSH1 0x3 ADD DUP3 DUP2 SLOAD DUP2 LT PUSH2 0xEBC JUMPI PUSH2 0xEBB PUSH2 0x4CF8 JUMP JUMPDEST JUMPDEST SWAP1 PUSH1 0x0 MSTORE PUSH1 0x20 PUSH1 0x0 KECCAK256 SWAP1 PUSH1 0x2 MUL ADD PUSH1 0x1 ADD SLOAD GT ISZERO PUSH2 0xF24 JUMPI DUP4 PUSH1 0x3 ADD DUP2 DUP2 SLOAD DUP2 LT PUSH2 0xEEA JUMPI PUSH2 0xEE9 PUSH2 0x4CF8 JUMP JUMPDEST JUMPDEST SWAP1 PUSH1 0x0 MSTORE PUSH1 0x20 PUSH1 0x0 KECCAK256 SWAP1 PUSH1 0x2 MUL ADD PUSH1 0x0 ADD SLOAD DUP4 PUSH2 0xF07 SWAP2 SWAP1 PUSH2 0x4D56 JUMP JUMPDEST SWAP3 POP DUP2 DUP1 PUSH2 0xF14 SWAP1 PUSH2 0x4D8A JUMP JUMPDEST SWAP3 POP POP DUP1 DUP1 PUSH1 0x1 ADD SWAP2 POP POP PUSH2 0xE96 JUMP JUMPDEST POP PUSH1 0x0 JUMPDEST DUP2 DUP5 PUSH1 0x3 ADD DUP1 SLOAD SWAP1 POP PUSH2 0xF3B SWAP2 SWAP1 PUSH2 0x4DD2 JUMP JUMPDEST DUP2 LT ISZERO PUSH2 0xFB9 JUMPI DUP4 PUSH1 0x3 ADD DUP3 DUP3 PUSH2 0xF52 SWAP2 SWAP1 PUSH2 0x4D56 JUMP JUMPDEST DUP2 SLOAD DUP2 LT PUSH2 0xF63 JUMPI PUSH2 0xF62 PUSH2 0x4CF8 JUMP JUMPDEST JUMPDEST SWAP1 PUSH1 0x0 MSTORE PUSH1 0x20 PUSH1 0x0 KECCAK256 SWAP1 PUSH1 0x2 MUL ADD DUP5 PUSH1 0x3 ADD DUP3 DUP2 SLOAD DUP2 LT PUSH2 0xF87 JUMPI PUSH2 0xF86 PUSH2 0x4CF8 JUMP JUMPDEST JUMPDEST SWAP1 PUSH1 0x0 MSTORE PUSH1 0x20 PUSH1 0x0 KECCAK256 SWAP1 PUSH1 0x2 MUL ADD PUSH1 0x0 DUP3 ADD SLOAD DUP2 PUSH1 0x0 ADD SSTORE PUSH1 0x1 DUP3 ADD SLOAD DUP2 PUSH1 0x1 ADD SSTORE SWAP1 POP POP DUP1 DUP1 PUSH1 0x1 ADD SWAP2 POP POP PUSH2 0xF28 JUMP JUMPDEST POP PUSH1 0x0 JUMPDEST DUP2 DUP2 LT ISZERO PUSH2 0x100F JUMPI DUP4 PUSH1 0x3 ADD DUP1 SLOAD DUP1 PUSH2 0xFD9 JUMPI PUSH2 0xFD8 PUSH2 0x4E06 JUMP JUMPDEST JUMPDEST PUSH1 0x1 SWAP1 SUB DUP2 DUP2 SWAP1 PUSH1 0x0 MSTORE PUSH1 0x20 PUSH1 0x0 KECCAK256 SWAP1 PUSH1 0x2 MUL ADD PUSH1 0x0 DUP1 DUP3 ADD PUSH1 0x0 SWAP1 SSTORE PUSH1 0x1 DUP3 ADD PUSH1 0x0 SWAP1 SSTORE POP POP SWAP1 SSTORE DUP1 DUP1 PUSH1 0x1 ADD SWAP2 POP POP PUSH2 0xFBD JUMP JUMPDEST POP PUSH1 0x0 DUP3 GT ISZERO PUSH2 0x10D1 JUMPI PUSH1 0x0 PUSH20 0xFFFFFFFFFFFFFFFFFFFFFFFFFFFFFFFFFFFFFFFF AND DUP5 PUSH1 0x0 ADD PUSH1 0x0 SWAP1 SLOAD SWAP1 PUSH2 0x100 EXP SWAP1 DIV PUSH20 0xFFFFFFFFFFFFFFFFFFFFFFFFFFFFFFFFFFFFFFFF AND PUSH20 0xFFFFFFFFFFFFFFFFFFFFFFFFFFFFFFFFFFFFFFFF AND SUB PUSH2 0x1080 JUMPI PUSH2 0x107B CALLER DUP4 PUSH2 0x33D1 JUMP JUMPDEST PUSH2 0x10D0 JUMP JUMPDEST PUSH2 0x10CF CALLER DUP4 DUP7 PUSH1 0x0 ADD PUSH1 0x0 SWAP1 SLOAD SWAP1 PUSH2 0x100 EXP SWAP1 DIV PUSH20 0xFFFFFFFFFFFFFFFFFFFFFFFFFFFFFFFFFFFFFFFF AND PUSH20 0xFFFFFFFFFFFFFFFFFFFFFFFFFFFFFFFFFFFFFFFF AND PUSH2 0x34E3 SWAP1 SWAP3 SWAP2 SWAP1 PUSH4 0xFFFFFFFF AND JUMP JUMPDEST JUMPDEST JUMPDEST NUMBER DUP7 CALLER PUSH20 0xFFFFFFFFFFFFFFFFFFFFFFFFFFFFFFFFFFFFFFFF AND PUSH32 0x2F25270A4D87BEA75DB541CDFE559334A275B4A233520ED6C0A2429667CCA94 DUP6 PUSH1 0x40 MLOAD PUSH2 0x1119 SWAP2 SWAP1 PUSH2 0x43C7 JUMP JUMPDEST PUSH1 0x40 MLOAD DUP1 SWAP2 SUB SWAP1 LOG4 POP POP POP POP POP POP JUMP JUMPDEST PUSH2 0x1132 DUP3 PUSH2 0xD48 JUMP JUMPDEST PUSH2 0x113B DUP2 PUSH2 0x3562 JUMP JUMPDEST PUSH2 0x1145 DUP4 DUP4 PUSH2 0x3576 JUMP JUMPDEST POP POP POP POP JUMP JUMPDEST PUSH1 0x3 PUSH1 0x0 SWAP1 SLOAD SWAP1 PUSH2 0x100 EXP SWAP1 DIV PUSH1 0xFF AND DUP2 JUMP JUMPDEST PUSH2 0x1166 PUSH2 0x3677 JUMP JUMPDEST PUSH20 0xFFFFFFFFFFFFFFFFFFFFFFFFFFFFFFFFFFFFFFFF AND DUP2 PUSH20 0xFFFFFFFFFFFFFFFFFFFFFFFFFFFFFFFFFFFFFFFF AND EQ PUSH2 0x11CA JUMPI PUSH1 0x40 MLOAD PUSH32 0x6697B23200000000000000000000000000000000000000000000000000000000 DUP2 MSTORE PUSH1 0x4 ADD PUSH1 0x40 MLOAD DUP1 SWAP2 SUB SWAP1 REVERT JUMPDEST PUSH2 0x11D4 DUP3 DUP3 PUSH2 0x367F JUMP JUMPDEST POP POP POP JUMP JUMPDEST PUSH1 0xA PUSH1 0x20 MSTORE DUP2 PUSH1 0x0 MSTORE PUSH1 0x40 PUSH1 0x0 KECCAK256 PUSH1 0x20 MSTORE DUP1 PUSH1 0x0 MSTORE PUSH1 0x40 PUSH1 0x0 KECCAK256 PUSH1 0x0 SWAP2 POP SWAP2 POP POP DUP1 PUSH1 0x0 ADD SLOAD SWAP1 DUP1 PUSH1 0x1 ADD SLOAD SWAP1 DUP1 PUSH1 0x2 ADD SLOAD SWAP1 POP DUP4 JUMP JUMPDEST PUSH2 0x1218 PUSH2 0x3390 JUMP JUMPDEST DUP1 PUSH1 0x5 DUP1 SLOAD SWAP1 POP DUP2 LT PUSH2 0x1260 JUMPI PUSH1 0x40 MLOAD PUSH32 0x8C379A000000000000000000000000000000000000000000000000000000000 DUP2 MSTORE PUSH1 0x4 ADD PUSH2 0x1257 SWAP1 PUSH2 0x4C6C JUMP JUMPDEST PUSH1 0x40 MLOAD DUP1 SWAP2 SUB SWAP1 REVERT JUMPDEST PUSH1 0x3 PUSH1 0x1 SWAP1 SLOAD SWAP1 PUSH2 0x100 EXP SWAP1 DIV PUSH1 0xFF AND ISZERO PUSH2 0x12B0 JUMPI PUSH1 0x40 MLOAD PUSH32 0x8C379A000000000000000000000000000000000000000000000000000000000 DUP2 MSTORE PUSH1 0x4 ADD PUSH2 0x12A7 SWAP1 PUSH2 0x4E81 JUMP JUMPDEST PUSH1 0x40 MLOAD DUP1 SWAP2 SUB SWAP1 REVERT JUMPDEST PUSH1 0x0 PUSH1 0x5 DUP4 DUP2 SLOAD DUP2 LT PUSH2 0x12C6 JUMPI PUSH2 0x12C5 PUSH2 0x4CF8 JUMP JUMPDEST JUMPDEST SWAP1 PUSH1 0x0 MSTORE PUSH1 0x20 PUSH1 0x0 KECCAK256 SWAP1 PUSH1 0x7 MUL ADD SWAP1 POP PUSH1 0x0 PUSH1 0xA PUSH1 0x0 DUP6 DUP2 MSTORE PUSH1 0x20 ADD SWAP1 DUP2 MSTORE PUSH1 0x20 ADD PUSH1 0x0 KECCAK256 PUSH1 0x0 CALLER PUSH20 0xFFFFFFFFFFFFFFFFFFFFFFFFFFFFFFFFFFFFFFFF AND PUSH20 0xFFFFFFFFFFFFFFFFFFFFFFFFFFFFFFFFFFFFFFFF AND DUP2 MSTORE PUSH1 0x20 ADD SWAP1 DUP2 MSTORE PUSH1 0x20 ADD PUSH1 0x0 KECCAK256 SWAP1 POP PUSH2 0x1333 DUP5 PUSH2 0x183B JUMP JUMPDEST PUSH1 0x0 DUP2 PUSH1 0x2 ADD SLOAD DUP3 PUSH1 0x1 ADD SLOAD PUSH8 0xDE0B6B3A7640000 DUP6 PUSH1 0x3 ADD SLOAD DUP6 PUSH1 0x0 ADD SLOAD PUSH2 0x135C SWAP2 SWAP1 PUSH2 0x4EA1 JUMP JUMPDEST PUSH2 0x1366 SWAP2 SWAP1 PUSH2 0x4F12 JUMP JUMPDEST PUSH2 0x1370 SWAP2 SWAP1 PUSH2 0x4DD2 JUMP JUMPDEST PUSH2 0x137A SWAP2 SWAP1 PUSH2 0x4D56 JUMP JUMPDEST SWAP1 POP PUSH1 0x0 DUP2 GT ISZERO PUSH2 0x139A JUMPI PUSH1 0x0 DUP3 PUSH1 0x2 ADD DUP2 SWAP1 SSTORE POP PUSH2 0x1399 CALLER DUP3 PUSH2 0x3781 JUMP JUMPDEST JUMPDEST PUSH8 0xDE0B6B3A7640000 DUP4 PUSH1 0x3 ADD SLOAD DUP4 PUSH1 0x0 ADD SLOAD PUSH2 0x13B7 SWAP2 SWAP1 PUSH2 0x4EA1 JUMP JUMPDEST PUSH2 0x13C1 SWAP2 SWAP1 PUSH2 0x4F12 JUMP JUMPDEST DUP3 PUSH1 0x1 ADD DUP2 SWAP1 SSTORE POP DUP5 CALLER PUSH20 0xFFFFFFFFFFFFFFFFFFFFFFFFFFFFFFFFFFFFFFFF AND PUSH32 0x34FCBAC0073D7C3D388E51312FAF357774904998EEB8FCA628B9E6F65EE1CBF7 DUP4 PUSH1 0x40 MLOAD PUSH2 0x1410 SWAP2 SWAP1 PUSH2 0x43C7 JUMP JUMPDEST PUSH1 0x40 MLOAD DUP1 SWAP2 SUB SWAP1 LOG3 POP POP POP POP POP JUMP JUMPDEST PUSH1 0x0 DUP1 PUSH1 0x5 DUP6 DUP2 SLOAD DUP2 LT PUSH2 0x1436 JUMPI PUSH2 0x1435 PUSH2 0x4CF8 JUMP JUMPDEST JUMPDEST SWAP1 PUSH1 0x0 MSTORE PUSH1 0x20 PUSH1 0x0 KECCAK256 SWAP1 PUSH1 0x7 MUL ADD SWAP1 POP PUSH1 0x0 PUSH1 0xA PUSH1 0x0 DUP8 DUP2 MSTORE PUSH1 0x20 ADD SWAP1 DUP2 MSTORE PUSH1 0x20 ADD PUSH1 0x0 KECCAK256 PUSH1 0x0 DUP7 PUSH20 0xFFFFFFFFFFFFFFFFFFFFFFFFFFFFFFFFFFFFFFFF AND PUSH20 0xFFFFFFFFFFFFFFFFFFFFFFFFFFFFFFFFFFFFFFFF AND DUP2 MSTORE PUSH1 0x20 ADD SWAP1 DUP2 MSTORE PUSH1 0x20 ADD PUSH1 0x0 KECCAK256 SWAP1 POP PUSH1 0x0 DUP3 PUSH1 0x3 ADD SLOAD SWAP1 POP PUSH1 0x0 DUP4 PUSH1 0x4 ADD SLOAD SWAP1 POP DUP4 PUSH1 0x2 ADD SLOAD DUP7 LT DUP1 ISZERO PUSH2 0x14C0 JUMPI POP PUSH1 0x0 DUP2 EQ ISZERO JUMPDEST ISZERO PUSH2 0x1527 JUMPI PUSH1 0x0 PUSH2 0x14D5 DUP6 PUSH1 0x2 ADD SLOAD DUP9 PUSH2 0x1CA2 JUMP JUMPDEST SWAP1 POP PUSH1 0x0 PUSH1 0x4 SLOAD DUP7 PUSH1 0x1 ADD SLOAD DUP4 PUSH2 0x14EC SWAP2 SWAP1 PUSH2 0x4EA1 JUMP JUMPDEST PUSH2 0x14F6 SWAP2 SWAP1 PUSH2 0x4F12 JUMP JUMPDEST SWAP1 POP DUP3 PUSH8 0xDE0B6B3A7640000 DUP3 PUSH2 0x150D SWAP2 SWAP1 PUSH2 0x4EA1 JUMP JUMPDEST PUSH2 0x1517 SWAP2 SWAP1 PUSH2 0x4F12 JUMP JUMPDEST DUP5 PUSH2 0x1522 SWAP2 SWAP1 PUSH2 0x4D56 JUMP JUMPDEST SWAP4 POP POP POP JUMPDEST DUP3 PUSH1 0x2 ADD SLOAD DUP4 PUSH1 0x1 ADD SLOAD PUSH8 0xDE0B6B3A7640000 DUP5 PUSH2 0x1545 SWAP2 SWAP1 PUSH2 0x4F12 JUMP JUMPDEST DUP6 PUSH1 0x0 ADD SLOAD PUSH2 0x1554 SWAP2 SWAP1 PUSH2 0x4D56 JUMP JUMPDEST PUSH2 0x155E SWAP2 SWAP1 PUSH2 0x4DD2 JUMP JUMPDEST PUSH2 0x1568 SWAP2 SWAP1 PUSH2 0x4D56 JUMP JUMPDEST SWAP5 POP POP POP POP POP SWAP4 SWAP3 POP POP POP JUMP JUMPDEST PUSH1 0x0 SLOAD DUP2 JUMP JUMPDEST PUSH1 0x0 PUSH2 0x1585 PUSH2 0x3975 JUMP JUMPDEST SWAP1 POP PUSH1 0x0 DUP2 PUSH1 0x0 ADD PUSH1 0x8 SWAP1 SLOAD SWAP1 PUSH2 0x100 EXP SWAP1 DIV PUSH1 0xFF AND ISZERO SWAP1 POP PUSH1 0x0 DUP3 PUSH1 0x0 ADD PUSH1 0x0 SWAP1 SLOAD SWAP1 PUSH2 0x100 EXP SWAP1 DIV PUSH8 0xFFFFFFFFFFFFFFFF AND SWAP1 POP PUSH1 0x0 DUP1 DUP3 PUSH8 0xFFFFFFFFFFFFFFFF AND EQ DUP1 ISZERO PUSH2 0x15D3 JUMPI POP DUP3 JUMPDEST SWAP1 POP PUSH1 0x0 PUSH1 0x1 DUP4 PUSH8 0xFFFFFFFFFFFFFFFF AND EQ DUP1 ISZERO PUSH2 0x1608 JUMPI POP PUSH1 0x0 ADDRESS PUSH20 0xFFFFFFFFFFFFFFFFFFFFFFFFFFFFFFFFFFFFFFFF AND EXTCODESIZE EQ JUMPDEST SWAP1 POP DUP2 ISZERO DUP1 ISZERO PUSH2 0x1616 JUMPI POP DUP1 ISZERO JUMPDEST ISZERO PUSH2 0x164D JUMPI PUSH1 0x40 MLOAD PUSH32 0xF92EE8A900000000000000000000000000000000000000000000000000000000 DUP2 MSTORE PUSH1 0x4 ADD PUSH1 0x40 MLOAD DUP1 SWAP2 SUB SWAP1 REVERT JUMPDEST PUSH1 0x1 DUP6 PUSH1 0x0 ADD PUSH1 0x0 PUSH2 0x100 EXP DUP2 SLOAD DUP2 PUSH8 0xFFFFFFFFFFFFFFFF MUL NOT AND SWAP1 DUP4 PUSH8 0xFFFFFFFFFFFFFFFF AND MUL OR SWAP1 SSTORE POP DUP4 ISZERO PUSH2 0x169D JUMPI PUSH1 0x1 DUP6 PUSH1 0x0 ADD PUSH1 0x8 PUSH2 0x100 EXP DUP2 SLOAD DUP2 PUSH1 0xFF MUL NOT AND SWAP1 DUP4 ISZERO ISZERO MUL OR SWAP1 SSTORE POP JUMPDEST DUP7 DUP9 GT ISZERO PUSH2 0x16E0 JUMPI PUSH1 0x40 MLOAD PUSH32 0x8C379A000000000000000000000000000000000000000000000000000000000 DUP2 MSTORE PUSH1 0x4 ADD PUSH2 0x16D7 SWAP1 PUSH2 0x4FB5 JUMP JUMPDEST PUSH1 0x40 MLOAD DUP1 SWAP2 SUB SWAP1 REVERT JUMPDEST PUSH1 0x0 DUP7 GT PUSH2 0x1723 JUMPI PUSH1 0x40 MLOAD PUSH32 0x8C379A000000000000000000000000000000000000000000000000000000000 DUP2 MSTORE PUSH1 0x4 ADD PUSH2 0x171A SWAP1 PUSH2 0x5047 JUMP JUMPDEST PUSH1 0x40 MLOAD DUP1 SWAP2 SUB SWAP1 REVERT JUMPDEST PUSH2 0x172B PUSH2 0x399D JUMP JUMPDEST PUSH2 0x1733 PUSH2 0x39A7 JUMP JUMPDEST PUSH2 0x1740 PUSH1 0x0 DUP1 SHL CALLER PUSH2 0x3576 JUMP JUMPDEST POP PUSH2 0x176B PUSH32 0xF47FC0C09EBBFE308D89B8035681A1164B9882BCFD49EB89861067738A30F5AB CALLER PUSH2 0x3576 JUMP JUMPDEST POP PUSH2 0x1796 PUSH32 0x589D473BA17C0F47D494622893831497BAD25919B9AFB8E33E9521B8963FCCDE CALLER PUSH2 0x3576 JUMP JUMPDEST POP PUSH2 0x17A0 DUP10 PUSH2 0x2DC8 JUMP JUMPDEST DUP8 PUSH1 0x0 DUP2 SWAP1 SSTORE POP DUP7 PUSH1 0x1 DUP2 SWAP1 SSTORE POP DUP6 PUSH1 0x2 DUP2 SWAP1 SSTORE POP DUP4 ISZERO PUSH2 0x1811 JUMPI PUSH1 0x0 DUP6 PUSH1 0x0 ADD PUSH1 0x8 PUSH2 0x100 EXP DUP2 SLOAD DUP2 PUSH1 0xFF MUL NOT AND SWAP1 DUP4 ISZERO ISZERO MUL OR SWAP1 SSTORE POP PUSH32 0xC7F505B2F371AE2175EE4913F4499E1F2633A7B5936321EED1CDAEB6115181D2 PUSH1 0x1 PUSH1 0x40 MLOAD PUSH2 0x1808 SWAP2 SWAP1 PUSH2 0x50B6 JUMP JUMPDEST PUSH1 0x40 MLOAD DUP1 SWAP2 SUB SWAP1 LOG1 JUMPDEST POP POP POP POP POP POP POP POP POP JUMP JUMPDEST PUSH2 0x1824 PUSH2 0x39B1 JUMP JUMPDEST PUSH2 0x182D DUP3 PUSH2 0x3A97 JUMP JUMPDEST PUSH2 0x1837 DUP3 DUP3 PUSH2 0x3AC5 JUMP JUMPDEST POP POP JUMP JUMPDEST DUP1 PUSH1 0x5 DUP1 SLOAD SWAP1 POP DUP2 LT PUSH2 0x1883 JUMPI PUSH1 0x40 MLOAD PUSH32 0x8C379A000000000000000000000000000000000000000000000000000000000 DUP2 MSTORE PUSH1 0x4 ADD PUSH2 0x187A SWAP1 PUSH2 0x4C6C JUMP JUMPDEST PUSH1 0x40 MLOAD DUP1 SWAP2 SUB SWAP1 REVERT JUMPDEST PUSH1 0x0 PUSH1 0x5 DUP4 DUP2 SLOAD DUP2 LT PUSH2 0x1899 JUMPI PUSH2 0x1898 PUSH2 0x4CF8 JUMP JUMPDEST JUMPDEST SWAP1 PUSH1 0x0 MSTORE PUSH1 0x20 PUSH1 0x0 KECCAK256 SWAP1 PUSH1 0x7 MUL ADD SWAP1 POP DUP1 PUSH1 0x2 ADD SLOAD NUMBER GT PUSH2 0x18BA JUMPI POP PUSH2 0x1B2A JUMP JUMPDEST PUSH1 0x0 DUP2 PUSH1 0x4 ADD SLOAD SWAP1 POP PUSH1 0x0 DUP2 SUB PUSH2 0x18DB JUMPI NUMBER DUP3 PUSH1 0x2 ADD DUP2 SWAP1 SSTORE POP POP POP PUSH2 0x1B2A JUMP JUMPDEST PUSH1 0x0 DUP1 PUSH2 0x1902 DUP5 PUSH1 0x1 ADD SLOAD PUSH2 0x18F4 DUP7 PUSH1 0x2 ADD SLOAD NUMBER PUSH2 0x1CA2 JUMP JUMPDEST PUSH2 0x3BE4 SWAP1 SWAP2 SWAP1 PUSH4 0xFFFFFFFF AND JUMP JUMPDEST SWAP2 POP SWAP2 POP DUP2 PUSH2 0x1946 JUMPI PUSH1 0x40 MLOAD PUSH32 0x8C379A000000000000000000000000000000000000000000000000000000000 DUP2 MSTORE PUSH1 0x4 ADD PUSH2 0x193D SWAP1 PUSH2 0x511D JUMP JUMPDEST PUSH1 0x40 MLOAD DUP1 SWAP2 SUB SWAP1 REVERT JUMPDEST PUSH2 0x195B PUSH1 0x4 SLOAD DUP3 PUSH2 0x3C37 SWAP1 SWAP2 SWAP1 PUSH4 0xFFFFFFFF AND JUMP JUMPDEST DUP1 SWAP3 POP DUP2 SWAP4 POP POP POP DUP2 PUSH2 0x19A3 JUMPI PUSH1 0x40 MLOAD PUSH32 0x8C379A000000000000000000000000000000000000000000000000000000000 DUP2 MSTORE PUSH1 0x4 ADD PUSH2 0x199A SWAP1 PUSH2 0x511D JUMP JUMPDEST PUSH1 0x40 MLOAD DUP1 SWAP2 SUB SWAP1 REVERT JUMPDEST PUSH1 0x0 DUP5 PUSH1 0x4 ADD SLOAD SWAP1 POP PUSH1 0x0 DUP2 GT ISZERO PUSH2 0x1ADE JUMPI PUSH1 0x0 DUP1 PUSH2 0x19D3 PUSH8 0xDE0B6B3A7640000 DUP6 PUSH2 0x3BE4 SWAP1 SWAP2 SWAP1 PUSH4 0xFFFFFFFF AND JUMP JUMPDEST SWAP2 POP SWAP2 POP DUP2 PUSH2 0x1A17 JUMPI PUSH1 0x40 MLOAD PUSH32 0x8C379A000000000000000000000000000000000000000000000000000000000 DUP2 MSTORE PUSH1 0x4 ADD PUSH2 0x1A0E SWAP1 PUSH2 0x511D JUMP JUMPDEST PUSH1 0x40 MLOAD DUP1 SWAP2 SUB SWAP1 REVERT JUMPDEST PUSH2 0x1A2A DUP4 DUP3 PUSH2 0x3C37 SWAP1 SWAP2 SWAP1 PUSH4 0xFFFFFFFF AND JUMP JUMPDEST DUP1 SWAP3 POP DUP2 SWAP4 POP POP POP DUP2 PUSH2 0x1A72 JUMPI PUSH1 0x40 MLOAD PUSH32 0x8C379A000000000000000000000000000000000000000000000000000000000 DUP2 MSTORE PUSH1 0x4 ADD PUSH2 0x1A69 SWAP1 PUSH2 0x511D JUMP JUMPDEST PUSH1 0x40 MLOAD DUP1 SWAP2 SUB SWAP1 REVERT JUMPDEST PUSH1 0x0 DUP1 PUSH2 0x1A8C DUP4 DUP11 PUSH1 0x3 ADD SLOAD PUSH2 0x3C6D SWAP1 SWAP2 SWAP1 PUSH4 0xFFFFFFFF AND JUMP JUMPDEST SWAP2 POP SWAP2 POP DUP2 PUSH2 0x1AD0 JUMPI PUSH1 0x40 MLOAD PUSH32 0x8C379A000000000000000000000000000000000000000000000000000000000 DUP2 MSTORE PUSH1 0x4 ADD PUSH2 0x1AC7 SWAP1 PUSH2 0x511D JUMP JUMPDEST PUSH1 0x40 MLOAD DUP1 SWAP2 SUB SWAP1 REVERT JUMPDEST DUP1 DUP10 PUSH1 0x3 ADD DUP2 SWAP1 SSTORE POP POP POP POP POP JUMPDEST NUMBER DUP6 PUSH1 0x2 ADD DUP2 SWAP1 SSTORE POP DUP5 PUSH1 0x2 ADD SLOAD DUP8 PUSH32 0xF5D2D72D9B25D6853AFD7D0554A113B705234B6A68BB36B7F143662994632411 DUP5 PUSH1 0x40 MLOAD PUSH2 0x1B1C SWAP2 SWAP1 PUSH2 0x43C7 JUMP JUMPDEST PUSH1 0x40 MLOAD DUP1 SWAP2 SUB SWAP1 LOG3 POP POP POP POP POP JUMPDEST POP POP JUMP JUMPDEST PUSH1 0x0 PUSH2 0x1B38 PUSH2 0x3C9C JUMP JUMPDEST PUSH32 0x360894A13BA1A3210667C828492DB98DCA3E2076CC3735A920A3CA505D382BBC PUSH1 0x0 SHL SWAP1 POP SWAP1 JUMP JUMPDEST PUSH1 0x0 DUP1 PUSH2 0x1B6C PUSH2 0x3D23 JUMP JUMPDEST SWAP1 POP DUP1 PUSH1 0x0 ADD PUSH1 0x0 SWAP1 SLOAD SWAP1 PUSH2 0x100 EXP SWAP1 DIV PUSH1 0xFF AND SWAP2 POP POP SWAP1 JUMP JUMPDEST PUSH32 0x589D473BA17C0F47D494622893831497BAD25919B9AFB8E33E9521B8963FCCDE PUSH2 0x1BB0 DUP2 PUSH2 0x3562 JUMP JUMPDEST PUSH1 0x3 PUSH1 0x0 SWAP1 SLOAD SWAP1 PUSH2 0x100 EXP SWAP1 DIV PUSH1 0xFF AND PUSH2 0x1BFF JUMPI PUSH1 0x40 MLOAD PUSH32 0x8C379A000000000000000000000000000000000000000000000000000000000 DUP2 MSTORE PUSH1 0x4 ADD PUSH2 0x1BF6 SWAP1 PUSH2 0x51AF JUMP JUMPDEST PUSH1 0x40 MLOAD DUP1 SWAP2 SUB SWAP1 REVERT JUMPDEST PUSH1 0x1 PUSH1 0x3 PUSH1 0x0 PUSH2 0x100 EXP DUP2 SLOAD DUP2 PUSH1 0xFF MUL NOT AND SWAP1 DUP4 ISZERO ISZERO MUL OR SWAP1 SSTORE POP PUSH32 0x2523DFDAFA00190F21A4CBD0C25179C8DD3CB34A6C17FEA952ECCA8FA8332C0E PUSH1 0x40 MLOAD PUSH1 0x40 MLOAD DUP1 SWAP2 SUB SWAP1 LOG1 POP JUMP JUMPDEST PUSH1 0x0 PUSH1 0x5 DUP1 SLOAD SWAP1 POP SWAP1 POP PUSH1 0x0 JUMPDEST DUP2 DUP2 LT ISZERO PUSH2 0x1C74 JUMPI PUSH2 0x1C67 DUP2 PUSH2 0x183B JUMP JUMPDEST DUP1 DUP1 PUSH1 0x1 ADD SWAP2 POP POP PUSH2 0x1C56 JUMP JUMPDEST POP POP JUMP JUMPDEST PUSH1 0x2 SLOAD DUP2 JUMP JUMPDEST PUSH32 0x589D473BA17C0F47D494622893831497BAD25919B9AFB8E33E9521B8963FCCDE DUP2 JUMP JUMPDEST PUSH1 0x0 DUP2 DUP4 GT ISZERO PUSH2 0x1CE7 JUMPI PUSH1 0x40 MLOAD PUSH32 0x8C379A000000000000000000000000000000000000000000000000000000000 DUP2 MSTORE PUSH1 0x4 ADD PUSH2 0x1CDE SWAP1 PUSH2 0x521B JUMP JUMPDEST PUSH1 0x40 MLOAD DUP1 SWAP2 SUB SWAP1 REVERT JUMPDEST PUSH1 0x0 SLOAD DUP4 LT ISZERO PUSH2 0x1CF7 JUMPI PUSH1 0x0 SLOAD SWAP3 POP JUMPDEST PUSH1 0x1 SLOAD DUP3 GT ISZERO PUSH2 0x1D07 JUMPI PUSH1 0x1 SLOAD SWAP2 POP JUMPDEST PUSH1 0x0 DUP4 DUP4 PUSH2 0x1D15 SWAP2 SWAP1 PUSH2 0x4DD2 JUMP JUMPDEST GT PUSH2 0x1D55 JUMPI PUSH1 0x40 MLOAD PUSH32 0x8C379A000000000000000000000000000000000000000000000000000000000 DUP2 MSTORE PUSH1 0x4 ADD PUSH2 0x1D4C SWAP1 PUSH2 0x521B JUMP JUMPDEST PUSH1 0x40 MLOAD DUP1 SWAP2 SUB SWAP1 REVERT JUMPDEST PUSH1 0x0 PUSH2 0x1D77 PUSH1 0x2 SLOAD DUP6 DUP6 PUSH2 0x1D69 SWAP2 SWAP1 PUSH2 0x4DD2 JUMP JUMPDEST PUSH2 0x3BE4 SWAP1 SWAP2 SWAP1 PUSH4 0xFFFFFFFF AND JUMP JUMPDEST DUP1 SWAP4 POP DUP2 SWAP3 POP POP POP DUP1 PUSH2 0x1DBF JUMPI PUSH1 0x40 MLOAD PUSH32 0x8C379A000000000000000000000000000000000000000000000000000000000 DUP2 MSTORE PUSH1 0x4 ADD PUSH2 0x1DB6 SWAP1 PUSH2 0x5287 JUMP JUMPDEST PUSH1 0x40 MLOAD DUP1 SWAP2 SUB SWAP1 REVERT JUMPDEST POP SWAP3 SWAP2 POP POP JUMP JUMPDEST PUSH32 0x589D473BA17C0F47D494622893831497BAD25919B9AFB8E33E9521B8963FCCDE PUSH2 0x1DF0 DUP2 PUSH2 0x3562 JUMP JUMPDEST PUSH1 0x3 PUSH1 0x1 SWAP1 SLOAD SWAP1 PUSH2 0x100 EXP SWAP1 DIV PUSH1 0xFF AND ISZERO PUSH2 0x1E40 JUMPI PUSH1 0x40 MLOAD PUSH32 0x8C379A000000000000000000000000000000000000000000000000000000000 DUP2 MSTORE PUSH1 0x4 ADD PUSH2 0x1E37 SWAP1 PUSH2 0x52F3 JUMP JUMPDEST PUSH1 0x40 MLOAD DUP1 SWAP2 SUB SWAP1 REVERT JUMPDEST PUSH1 0x1 PUSH1 0x3 PUSH1 0x1 PUSH2 0x100 EXP DUP2 SLOAD DUP2 PUSH1 0xFF MUL NOT AND SWAP1 DUP4 ISZERO ISZERO MUL OR SWAP1 SSTORE POP PUSH32 0x443BF540E8151617CD5C39A681CC35A5A22BE078B6F0CF16E5BD822B4C4B61FF PUSH1 0x40 MLOAD PUSH1 0x40 MLOAD DUP1 SWAP2 SUB SWAP1 LOG1 POP JUMP JUMPDEST PUSH1 0x0 DUP1 PUSH2 0x1E95 PUSH2 0x3368 JUMP JUMPDEST SWAP1 POP DUP1 PUSH1 0x0 ADD PUSH1 0x0 DUP6 DUP2 MSTORE PUSH1 0x20 ADD SWAP1 DUP2 MSTORE PUSH1 0x20 ADD PUSH1 0x0 KECCAK256 PUSH1 0x0 ADD PUSH1 0x0 DUP5 PUSH20 0xFFFFFFFFFFFFFFFFFFFFFFFFFFFFFFFFFFFFFFFF AND PUSH20 0xFFFFFFFFFFFFFFFFFFFFFFFFFFFFFFFFFFFFFFFF AND DUP2 MSTORE PUSH1 0x20 ADD SWAP1 DUP2 MSTORE PUSH1 0x20 ADD PUSH1 0x0 KECCAK256 PUSH1 0x0 SWAP1 SLOAD SWAP1 PUSH2 0x100 EXP SWAP1 DIV PUSH1 0xFF AND SWAP2 POP POP SWAP3 SWAP2 POP POP JUMP JUMPDEST PUSH2 0x1F0B PUSH2 0x3390 JUMP JUMPDEST PUSH1 0x3 PUSH1 0x0 SWAP1 SLOAD SWAP1 PUSH2 0x100 EXP SWAP1 DIV PUSH1 0xFF AND ISZERO PUSH2 0x1F5B JUMPI PUSH1 0x40 MLOAD PUSH32 0x8C379A000000000000000000000000000000000000000000000000000000000 DUP2 MSTORE PUSH1 0x4 ADD PUSH2 0x1F52 SWAP1 PUSH2 0x4CD8 JUMP JUMPDEST PUSH1 0x40 MLOAD DUP1 SWAP2 SUB SWAP1 REVERT JUMPDEST DUP2 PUSH1 0x5 DUP1 SLOAD SWAP1 POP DUP2 LT PUSH2 0x1FA3 JUMPI PUSH1 0x40 MLOAD PUSH32 0x8C379A000000000000000000000000000000000000000000000000000000000 DUP2 MSTORE PUSH1 0x4 ADD PUSH2 0x1F9A SWAP1 PUSH2 0x4C6C JUMP JUMPDEST PUSH1 0x40 MLOAD DUP1 SWAP2 SUB SWAP1 REVERT JUMPDEST PUSH1 0x0 PUSH1 0x5 DUP5 DUP2 SLOAD DUP2 LT PUSH2 0x1FB9 JUMPI PUSH2 0x1FB8 PUSH2 0x4CF8 JUMP JUMPDEST JUMPDEST SWAP1 PUSH1 0x0 MSTORE PUSH1 0x20 PUSH1 0x0 KECCAK256 SWAP1 PUSH1 0x7 MUL ADD SWAP1 POP PUSH1 0x0 PUSH1 0xA PUSH1 0x0 DUP7 DUP2 MSTORE PUSH1 0x20 ADD SWAP1 DUP2 MSTORE PUSH1 0x20 ADD PUSH1 0x0 KECCAK256 PUSH1 0x0 CALLER PUSH20 0xFFFFFFFFFFFFFFFFFFFFFFFFFFFFFFFFFFFFFFFF AND PUSH20 0xFFFFFFFFFFFFFFFFFFFFFFFFFFFFFFFFFFFFFFFF AND DUP2 MSTORE PUSH1 0x20 ADD SWAP1 DUP2 MSTORE PUSH1 0x20 ADD PUSH1 0x0 KECCAK256 SWAP1 POP DUP4 DUP2 PUSH1 0x0 ADD SLOAD LT ISZERO PUSH2 0x2064 JUMPI PUSH1 0x40 MLOAD PUSH32 0x8C379A000000000000000000000000000000000000000000000000000000000 DUP2 MSTORE PUSH1 0x4 ADD PUSH2 0x205B SWAP1 PUSH2 0x535F JUMP JUMPDEST PUSH1 0x40 MLOAD DUP1 SWAP2 SUB SWAP1 REVERT JUMPDEST PUSH2 0x206D DUP6 PUSH2 0x183B JUMP JUMPDEST PUSH1 0x0 DUP2 PUSH1 0x1 ADD SLOAD PUSH8 0xDE0B6B3A7640000 DUP5 PUSH1 0x3 ADD SLOAD DUP5 PUSH1 0x0 ADD SLOAD PUSH2 0x2091 SWAP2 SWAP1 PUSH2 0x4EA1 JUMP JUMPDEST PUSH2 0x209B SWAP2 SWAP1 PUSH2 0x4F12 JUMP JUMPDEST PUSH2 0x20A5 SWAP2 SWAP1 PUSH2 0x4DD2 JUMP JUMPDEST SWAP1 POP PUSH1 0x0 DUP2 GT ISZERO PUSH2 0x20CC JUMPI DUP1 DUP3 PUSH1 0x2 ADD PUSH1 0x0 DUP3 DUP3 SLOAD PUSH2 0x20C4 SWAP2 SWAP1 PUSH2 0x4D56 JUMP JUMPDEST SWAP3 POP POP DUP2 SWAP1 SSTORE POP JUMPDEST PUSH1 0x0 DUP6 GT ISZERO PUSH2 0x2158 JUMPI DUP5 DUP3 PUSH1 0x0 ADD PUSH1 0x0 DUP3 DUP3 SLOAD PUSH2 0x20E9 SWAP2 SWAP1 PUSH2 0x4DD2 JUMP JUMPDEST SWAP3 POP POP DUP2 SWAP1 SSTORE POP DUP2 PUSH1 0x3 ADD PUSH1 0x40 MLOAD DUP1 PUSH1 0x40 ADD PUSH1 0x40 MSTORE DUP1 DUP8 DUP2 MSTORE PUSH1 0x20 ADD DUP6 PUSH1 0x6 ADD SLOAD NUMBER PUSH2 0x2115 SWAP2 SWAP1 PUSH2 0x4D56 JUMP JUMPDEST DUP2 MSTORE POP SWAP1 DUP1 PUSH1 0x1 DUP2 SLOAD ADD DUP1 DUP3 SSTORE DUP1 SWAP2 POP POP PUSH1 0x1 SWAP1 SUB SWAP1 PUSH1 0x0 MSTORE PUSH1 0x20 PUSH1 0x0 KECCAK256 SWAP1 PUSH1 0x2 MUL ADD PUSH1 0x0 SWAP1 SWAP2 SWAP1 SWAP2 SWAP1 SWAP2 POP PUSH1 0x0 DUP3 ADD MLOAD DUP2 PUSH1 0x0 ADD SSTORE PUSH1 0x20 DUP3 ADD MLOAD DUP2 PUSH1 0x1 ADD SSTORE POP POP JUMPDEST DUP5 DUP4 PUSH1 0x4 ADD PUSH1 0x0 DUP3 DUP3 SLOAD PUSH2 0x216C SWAP2 SWAP1 PUSH2 0x4DD2 JUMP JUMPDEST SWAP3 POP POP DUP2 SWAP1 SSTORE POP PUSH8 0xDE0B6B3A7640000 DUP4 PUSH1 0x3 ADD SLOAD DUP4 PUSH1 0x0 ADD SLOAD PUSH2 0x2190 SWAP2 SWAP1 PUSH2 0x4EA1 JUMP JUMPDEST PUSH2 0x219A SWAP2 SWAP1 PUSH2 0x4F12 JUMP JUMPDEST DUP3 PUSH1 0x1 ADD PUSH1 0x0 DUP3 DUP3 SLOAD PUSH2 0x21AD SWAP2 SWAP1 PUSH2 0x4D56 JUMP JUMPDEST SWAP3 POP POP DUP2 SWAP1 SSTORE POP DUP6 CALLER PUSH20 0xFFFFFFFFFFFFFFFFFFFFFFFFFFFFFFFFFFFFFFFF AND PUSH32 0xC80277265097707F6F12A4AC4C09D46C9926E2EEA2536F63616CB04D9FCAD7D6 DUP8 PUSH1 0x40 MLOAD PUSH2 0x21FB SWAP2 SWAP1 PUSH2 0x43C7 JUMP JUMPDEST PUSH1 0x40 MLOAD DUP1 SWAP2 SUB SWAP1 LOG3 POP POP POP POP POP POP JUMP JUMPDEST PUSH1 0x7 SLOAD DUP2 JUMP JUMPDEST PUSH1 0x0 DUP1 SHL DUP2 JUMP JUMPDEST PUSH1 0x0 DUP3 PUSH1 0x5 DUP1 SLOAD SWAP1 POP DUP2 LT PUSH2 0x2262 JUMPI PUSH1 0x40 MLOAD PUSH32 0x8C379A000000000000000000000000000000000000000000000000000000000 DUP2 MSTORE PUSH1 0x4 ADD PUSH2 0x2259 SWAP1 PUSH2 0x4C6C JUMP JUMPDEST PUSH1 0x40 MLOAD DUP1 SWAP2 SUB SWAP1 REVERT JUMPDEST PUSH2 0x226D DUP5 DUP5 NUMBER PUSH2 0x141F JUMP JUMPDEST SWAP2 POP POP SWAP3 SWAP2 POP POP JUMP JUMPDEST PUSH1 0x3 PUSH1 0x2 SWAP1 SLOAD SWAP1 PUSH2 0x100 EXP SWAP1 DIV PUSH20 0xFFFFFFFFFFFFFFFFFFFFFFFFFFFFFFFFFFFFFFFF AND DUP2 JUMP JUMPDEST PUSH1 0x6 PUSH1 0x20 MSTORE DUP1 PUSH1 0x0 MSTORE PUSH1 0x40 PUSH1 0x0 KECCAK256 PUSH1 0x0 SWAP2 POP SWAP1 POP DUP1 PUSH1 0x0 ADD SLOAD SWAP1 DUP1 PUSH1 0x1 ADD SLOAD SWAP1 DUP1 PUSH1 0x2 ADD SLOAD SWAP1 POP DUP4 JUMP JUMPDEST PUSH1 0x3 PUSH1 0x1 SWAP1 SLOAD SWAP1 PUSH2 0x100 EXP SWAP1 DIV PUSH1 0xFF AND DUP2 JUMP JUMPDEST PUSH1 0x9 DUP2 DUP2 SLOAD DUP2 LT PUSH2 0x22E9 JUMPI PUSH1 0x0 DUP1 REVERT JUMPDEST SWAP1 PUSH1 0x0 MSTORE PUSH1 0x20 PUSH1 0x0 KECCAK256 SWAP1 PUSH1 0x7 MUL ADD PUSH1 0x0 SWAP2 POP SWAP1 POP DUP1 PUSH1 0x0 ADD PUSH1 0x0 SWAP1 SLOAD SWAP1 PUSH2 0x100 EXP SWAP1 DIV PUSH20 0xFFFFFFFFFFFFFFFFFFFFFFFFFFFFFFFFFFFFFFFF AND SWAP1 DUP1 PUSH1 0x1 ADD SLOAD SWAP1 DUP1 PUSH1 0x2 ADD SLOAD SWAP1 DUP1 PUSH1 0x3 ADD SLOAD SWAP1 DUP1 PUSH1 0x4 ADD SLOAD SWAP1 DUP1 PUSH1 0x5 ADD SLOAD SWAP1 DUP1 PUSH1 0x6 ADD SLOAD SWAP1 POP DUP8 JUMP JUMPDEST PUSH1 0x40 MLOAD DUP1 PUSH1 0x40 ADD PUSH1 0x40 MSTORE DUP1 PUSH1 0x5 DUP2 MSTORE PUSH1 0x20 ADD PUSH32 0x352E302E30000000000000000000000000000000000000000000000000000000 DUP2 MSTORE POP DUP2 JUMP JUMPDEST PUSH1 0x0 PUSH1 0x5 DUP1 SLOAD SWAP1 POP SWAP1 POP SWAP1 JUMP JUMPDEST PUSH32 0x589D473BA17C0F47D494622893831497BAD25919B9AFB8E33E9521B8963FCCDE PUSH2 0x23BB DUP2 PUSH2 0x3562 JUMP JUMPDEST PUSH1 0x0 PUSH1 0x5 DUP1 SLOAD SWAP1 POP GT ISZERO PUSH2 0x2483 JUMPI PUSH1 0x0 PUSH20 0xFFFFFFFFFFFFFFFFFFFFFFFFFFFFFFFFFFFFFFFF AND PUSH1 0x5 PUSH1 0x0 DUP2 SLOAD DUP2 LT PUSH2 0x23F6 JUMPI PUSH2 0x23F5 PUSH2 0x4CF8 JUMP JUMPDEST JUMPDEST SWAP1 PUSH1 0x0 MSTORE PUSH1 0x20 PUSH1 0x0 KECCAK256 SWAP1 PUSH1 0x7 MUL ADD PUSH1 0x0 ADD PUSH1 0x0 SWAP1 SLOAD SWAP1 PUSH2 0x100 EXP SWAP1 DIV PUSH20 0xFFFFFFFFFFFFFFFFFFFFFFFFFFFFFFFFFFFFFFFF AND PUSH20 0xFFFFFFFFFFFFFFFFFFFFFFFFFFFFFFFFFFFFFFFF AND EQ PUSH2 0x247E JUMPI PUSH1 0x40 MLOAD PUSH32 0x8C379A000000000000000000000000000000000000000000000000000000000 DUP2 MSTORE PUSH1 0x4 ADD PUSH2 0x2475 SWAP1 PUSH2 0x53CB JUMP JUMPDEST PUSH1 0x40 MLOAD DUP1 SWAP2 SUB SWAP1 REVERT JUMPDEST PUSH2 0x24F3 JUMP JUMPDEST PUSH1 0x0 PUSH20 0xFFFFFFFFFFFFFFFFFFFFFFFFFFFFFFFFFFFFFFFF AND DUP7 PUSH20 0xFFFFFFFFFFFFFFFFFFFFFFFFFFFFFFFFFFFFFFFF AND EQ PUSH2 0x24F2 JUMPI PUSH1 0x40 MLOAD PUSH32 0x8C379A000000000000000000000000000000000000000000000000000000000 DUP2 MSTORE PUSH1 0x4 ADD PUSH2 0x24E9 SWAP1 PUSH2 0x53CB JUMP JUMPDEST PUSH1 0x40 MLOAD DUP1 SWAP2 SUB SWAP1 REVERT JUMPDEST JUMPDEST PUSH1 0x0 DUP4 GT PUSH2 0x2536 JUMPI PUSH1 0x40 MLOAD PUSH32 0x8C379A000000000000000000000000000000000000000000000000000000000 DUP2 MSTORE PUSH1 0x4 ADD PUSH2 0x252D SWAP1 PUSH2 0x5437 JUMP JUMPDEST PUSH1 0x40 MLOAD DUP1 SWAP2 SUB SWAP1 REVERT JUMPDEST PUSH1 0x1 SLOAD NUMBER LT PUSH2 0x257A JUMPI PUSH1 0x40 MLOAD PUSH32 0x8C379A000000000000000000000000000000000000000000000000000000000 DUP2 MSTORE PUSH1 0x4 ADD PUSH2 0x2571 SWAP1 PUSH2 0x54A3 JUMP JUMPDEST PUSH1 0x40 MLOAD DUP1 SWAP2 SUB SWAP1 REVERT JUMPDEST DUP2 ISZERO PUSH2 0x2589 JUMPI PUSH2 0x2588 PUSH2 0x1C49 JUMP JUMPDEST JUMPDEST PUSH1 0x0 DUP1 SLOAD NUMBER GT PUSH2 0x259B JUMPI PUSH1 0x0 SLOAD PUSH2 0x259D JUMP JUMPDEST NUMBER JUMPDEST SWAP1 POP DUP6 PUSH1 0x4 PUSH1 0x0 DUP3 DUP3 SLOAD PUSH2 0x25B1 SWAP2 SWAP1 PUSH2 0x4D56 JUMP JUMPDEST SWAP3 POP POP DUP2 SWAP1 SSTORE POP PUSH1 0x5 PUSH1 0x40 MLOAD DUP1 PUSH1 0xE0 ADD PUSH1 0x40 MSTORE DUP1 DUP10 PUSH20 0xFFFFFFFFFFFFFFFFFFFFFFFFFFFFFFFFFFFFFFFF AND DUP2 MSTORE PUSH1 0x20 ADD DUP9 DUP2 MSTORE PUSH1 0x20 ADD DUP4 DUP2 MSTORE PUSH1 0x20 ADD PUSH1 0x0 DUP2 MSTORE PUSH1 0x20 ADD PUSH1 0x0 DUP2 MSTORE PUSH1 0x20 ADD DUP8 DUP2 MSTORE PUSH1 0x20 ADD DUP7 DUP2 MSTORE POP SWAP1 DUP1 PUSH1 0x1 DUP2 SLOAD ADD DUP1 DUP3 SSTORE DUP1 SWAP2 POP POP PUSH1 0x1 SWAP1 SUB SWAP1 PUSH1 0x0 MSTORE PUSH1 0x20 PUSH1 0x0 KECCAK256 SWAP1 PUSH1 0x7 MUL ADD PUSH1 0x0 SWAP1 SWAP2 SWAP1 SWAP2 SWAP1 SWAP2 POP PUSH1 0x0 DUP3 ADD MLOAD DUP2 PUSH1 0x0 ADD PUSH1 0x0 PUSH2 0x100 EXP DUP2 SLOAD DUP2 PUSH20 0xFFFFFFFFFFFFFFFFFFFFFFFFFFFFFFFFFFFFFFFF MUL NOT AND SWAP1 DUP4 PUSH20 0xFFFFFFFFFFFFFFFFFFFFFFFFFFFFFFFFFFFFFFFF AND MUL OR SWAP1 SSTORE POP PUSH1 0x20 DUP3 ADD MLOAD DUP2 PUSH1 0x1 ADD SSTORE PUSH1 0x40 DUP3 ADD MLOAD DUP2 PUSH1 0x2 ADD SSTORE PUSH1 0x60 DUP3 ADD MLOAD DUP2 PUSH1 0x3 ADD SSTORE PUSH1 0x80 DUP3 ADD MLOAD DUP2 PUSH1 0x4 ADD SSTORE PUSH1 0xA0 DUP3 ADD MLOAD DUP2 PUSH1 0x5 ADD SSTORE PUSH1 0xC0 DUP3 ADD MLOAD DUP2 PUSH1 0x6 ADD SSTORE POP POP DUP1 DUP7 DUP9 PUSH20 0xFFFFFFFFFFFFFFFFFFFFFFFFFFFFFFFFFFFFFFFF AND PUSH32 0xFA296FCE13E7A0E622B3A892E66220C248337289483A3CFA4130CDE0CAA1346 DUP9 DUP9 PUSH1 0x40 MLOAD PUSH2 0x26FD SWAP3 SWAP2 SWAP1 PUSH2 0x4BF7 JUMP JUMPDEST PUSH1 0x40 MLOAD DUP1 SWAP2 SUB SWAP1 LOG4 POP POP POP POP POP POP POP JUMP JUMPDEST PUSH32 0xF47FC0C09EBBFE308D89B8035681A1164B9882BCFD49EB89861067738A30F5AB DUP2 JUMP JUMPDEST PUSH32 0x589D473BA17C0F47D494622893831497BAD25919B9AFB8E33E9521B8963FCCDE PUSH2 0x275C DUP2 PUSH2 0x3562 JUMP JUMPDEST PUSH1 0x0 DUP3 GT PUSH2 0x279F JUMPI PUSH1 0x40 MLOAD PUSH32 0x8C379A000000000000000000000000000000000000000000000000000000000 DUP2 MSTORE PUSH1 0x4 ADD PUSH2 0x2796 SWAP1 PUSH2 0x5047 JUMP JUMPDEST PUSH1 0x40 MLOAD DUP1 SWAP2 SUB SWAP1 REVERT JUMPDEST DUP2 PUSH1 0x2 DUP2 SWAP1 SSTORE POP DUP2 PUSH32 0x4C70925B625536DD633F6BD2D615C67FDDC2E7C63C31164047A981A0DF3FEE54 PUSH1 0x40 MLOAD PUSH1 0x40 MLOAD DUP1 SWAP2 SUB SWAP1 LOG2 POP POP JUMP JUMPDEST PUSH1 0x0 DUP2 JUMP JUMPDEST PUSH32 0x589D473BA17C0F47D494622893831497BAD25919B9AFB8E33E9521B8963FCCDE PUSH2 0x2806 DUP2 PUSH2 0x3562 JUMP JUMPDEST PUSH1 0x3 PUSH1 0x0 SWAP1 SLOAD SWAP1 PUSH2 0x100 EXP SWAP1 DIV PUSH1 0xFF AND ISZERO PUSH2 0x2856 JUMPI PUSH1 0x40 MLOAD PUSH32 0x8C379A000000000000000000000000000000000000000000000000000000000 DUP2 MSTORE PUSH1 0x4 ADD PUSH2 0x284D SWAP1 PUSH2 0x550F JUMP JUMPDEST PUSH1 0x40 MLOAD DUP1 SWAP2 SUB SWAP1 REVERT JUMPDEST PUSH1 0x0 PUSH1 0x3 PUSH1 0x0 PUSH2 0x100 EXP DUP2 SLOAD DUP2 PUSH1 0xFF MUL NOT AND SWAP1 DUP4 ISZERO ISZERO MUL OR SWAP1 SSTORE POP PUSH32 0x27C975733BACECA09666FAE356A901E083676848AAF9710150079385DAAE743 PUSH1 0x40 MLOAD PUSH1 0x40 MLOAD DUP1 SWAP2 SUB SWAP1 LOG1 POP JUMP JUMPDEST PUSH32 0x589D473BA17C0F47D494622893831497BAD25919B9AFB8E33E9521B8963FCCDE PUSH2 0x28CA DUP2 PUSH2 0x3562 JUMP JUMPDEST DUP2 PUSH1 0x0 SLOAD GT ISZERO PUSH2 0x290F JUMPI PUSH1 0x40 MLOAD PUSH32 0x8C379A000000000000000000000000000000000000000000000000000000000 DUP2 MSTORE PUSH1 0x4 ADD PUSH2 0x2906 SWAP1 PUSH2 0x4FB5 JUMP JUMPDEST PUSH1 0x40 MLOAD DUP1 SWAP2 SUB SWAP1 REVERT JUMPDEST DUP2 PUSH1 0x1 DUP2 SWAP1 SSTORE POP DUP2 PUSH32 0x1132C5BACCB51DA3D049FABC819697DC845FA224AD59D9B555507D6446B40850 PUSH1 0x40 MLOAD PUSH1 0x40 MLOAD DUP1 SWAP2 SUB SWAP1 LOG2 POP POP JUMP JUMPDEST PUSH2 0x2950 DUP3 PUSH2 0xD48 JUMP JUMPDEST PUSH2 0x2959 DUP2 PUSH2 0x3562 JUMP JUMPDEST PUSH2 0x2963 DUP4 DUP4 PUSH2 0x367F JUMP JUMPDEST POP POP POP POP JUMP JUMPDEST DUP3 PUSH1 0x5 DUP1 SLOAD SWAP1 POP DUP2 LT PUSH2 0x29B1 JUMPI PUSH1 0x40 MLOAD PUSH32 0x8C379A000000000000000000000000000000000000000000000000000000000 DUP2 MSTORE PUSH1 0x4 ADD PUSH2 0x29A8 SWAP1 PUSH2 0x4C6C JUMP JUMPDEST PUSH1 0x40 MLOAD DUP1 SWAP2 SUB SWAP1 REVERT JUMPDEST PUSH32 0x589D473BA17C0F47D494622893831497BAD25919B9AFB8E33E9521B8963FCCDE PUSH2 0x29DB DUP2 PUSH2 0x3562 JUMP JUMPDEST PUSH1 0x5 DUP1 SLOAD SWAP1 POP DUP6 LT PUSH2 0x2A22 JUMPI PUSH1 0x40 MLOAD PUSH32 0x8C379A000000000000000000000000000000000000000000000000000000000 DUP2 MSTORE PUSH1 0x4 ADD PUSH2 0x2A19 SWAP1 PUSH2 0x557B JUMP JUMPDEST PUSH1 0x40 MLOAD DUP1 SWAP2 SUB SWAP1 REVERT JUMPDEST DUP4 PUSH1 0x5 DUP7 DUP2 SLOAD DUP2 LT PUSH2 0x2A37 JUMPI PUSH2 0x2A36 PUSH2 0x4CF8 JUMP JUMPDEST JUMPDEST SWAP1 PUSH1 0x0 MSTORE PUSH1 0x20 PUSH1 0x0 KECCAK256 SWAP1 PUSH1 0x7 MUL ADD PUSH1 0x5 ADD DUP2 SWAP1 SSTORE POP DUP3 PUSH1 0x5 DUP7 DUP2 SLOAD DUP2 LT PUSH2 0x2A61 JUMPI PUSH2 0x2A60 PUSH2 0x4CF8 JUMP JUMPDEST JUMPDEST SWAP1 PUSH1 0x0 MSTORE PUSH1 0x20 PUSH1 0x0 KECCAK256 SWAP1 PUSH1 0x7 MUL ADD PUSH1 0x6 ADD DUP2 SWAP1 SSTORE POP DUP3 DUP5 DUP7 PUSH32 0x30DFFDEDAA3E3B4849298233F7CD71D229956E875AB09270498C96B7CF9181FD PUSH1 0x40 MLOAD PUSH1 0x40 MLOAD DUP1 SWAP2 SUB SWAP1 LOG4 POP POP POP POP POP JUMP JUMPDEST PUSH32 0x589D473BA17C0F47D494622893831497BAD25919B9AFB8E33E9521B8963FCCDE PUSH2 0x2AD6 DUP2 PUSH2 0x3562 JUMP JUMPDEST PUSH1 0x3 PUSH1 0x1 SWAP1 SLOAD SWAP1 PUSH2 0x100 EXP SWAP1 DIV PUSH1 0xFF AND PUSH2 0x2B25 JUMPI PUSH1 0x40 MLOAD PUSH32 0x8C379A000000000000000000000000000000000000000000000000000000000 DUP2 MSTORE PUSH1 0x4 ADD PUSH2 0x2B1C SWAP1 PUSH2 0x52F3 JUMP JUMPDEST PUSH1 0x40 MLOAD DUP1 SWAP2 SUB SWAP1 REVERT JUMPDEST PUSH1 0x0 PUSH1 0x3 PUSH1 0x1 PUSH2 0x100 EXP DUP2 SLOAD DUP2 PUSH1 0xFF MUL NOT AND SWAP1 DUP4 ISZERO ISZERO MUL OR SWAP1 SSTORE POP PUSH32 0x7C8FAF23A72A53EB5C2C466DC81386A58B2A27D0CC3C7C580A3C12E372BA313 PUSH1 0x40 MLOAD PUSH1 0x40 MLOAD DUP1 SWAP2 SUB SWAP1 LOG1 POP JUMP JUMPDEST PUSH1 0x3 PUSH1 0x0 SWAP1 SLOAD SWAP1 PUSH2 0x100 EXP SWAP1 DIV PUSH1 0xFF AND ISZERO PUSH2 0x2BBF JUMPI PUSH1 0x40 MLOAD PUSH32 0x8C379A000000000000000000000000000000000000000000000000000000000 DUP2 MSTORE PUSH1 0x4 ADD PUSH2 0x2BB6 SWAP1 PUSH2 0x4CD8 JUMP JUMPDEST PUSH1 0x40 MLOAD DUP1 SWAP2 SUB SWAP1 REVERT JUMPDEST DUP2 PUSH1 0x5 DUP1 SLOAD SWAP1 POP DUP2 LT PUSH2 0x2C07 JUMPI PUSH1 0x40 MLOAD PUSH32 0x8C379A000000000000000000000000000000000000000000000000000000000 DUP2 MSTORE PUSH1 0x4 ADD PUSH2 0x2BFE SWAP1 PUSH2 0x4C6C JUMP JUMPDEST PUSH1 0x40 MLOAD DUP1 SWAP2 SUB SWAP1 REVERT JUMPDEST PUSH1 0x0 DUP4 SUB PUSH2 0x2C4A JUMPI PUSH1 0x40 MLOAD PUSH32 0x8C379A000000000000000000000000000000000000000000000000000000000 DUP2 MSTORE PUSH1 0x4 ADD PUSH2 0x2C41 SWAP1 PUSH2 0x55E7 JUMP JUMPDEST PUSH1 0x40 MLOAD DUP1 SWAP2 SUB SWAP1 REVERT JUMPDEST PUSH1 0x0 PUSH1 0x5 DUP5 DUP2 SLOAD DUP2 LT PUSH2 0x2C60 JUMPI PUSH2 0x2C5F PUSH2 0x4CF8 JUMP JUMPDEST JUMPDEST SWAP1 PUSH1 0x0 MSTORE PUSH1 0x20 PUSH1 0x0 KECCAK256 SWAP1 PUSH1 0x7 MUL ADD SWAP1 POP DUP1 PUSH1 0x5 ADD SLOAD DUP4 GT PUSH2 0x2CB6 JUMPI PUSH1 0x40 MLOAD PUSH32 0x8C379A000000000000000000000000000000000000000000000000000000000 DUP2 MSTORE PUSH1 0x4 ADD PUSH2 0x2CAD SWAP1 PUSH2 0x5653 JUMP JUMPDEST PUSH1 0x40 MLOAD DUP1 SWAP2 SUB SWAP1 REVERT JUMPDEST PUSH1 0x0 DUP4 GT ISZERO PUSH2 0x2D11 JUMPI PUSH2 0x2D10 CALLER ADDRESS DUP6 DUP5 PUSH1 0x0 ADD PUSH1 0x0 SWAP1 SLOAD SWAP1 PUSH2 0x100 EXP SWAP1 DIV PUSH20 0xFFFFFFFFFFFFFFFFFFFFFFFFFFFFFFFFFFFFFFFF AND PUSH20 0xFFFFFFFFFFFFFFFFFFFFFFFFFFFFFFFFFFFFFFFF AND PUSH2 0x3D4B SWAP1 SWAP4 SWAP3 SWAP2 SWAP1 PUSH4 0xFFFFFFFF AND JUMP JUMPDEST JUMPDEST PUSH2 0x2D1B DUP5 DUP5 PUSH2 0x3DCD JUMP JUMPDEST POP POP POP POP JUMP JUMPDEST PUSH32 0x589D473BA17C0F47D494622893831497BAD25919B9AFB8E33E9521B8963FCCDE PUSH2 0x2D4B DUP2 PUSH2 0x3562 JUMP JUMPDEST PUSH1 0x1 SLOAD DUP3 GT ISZERO PUSH2 0x2D90 JUMPI PUSH1 0x40 MLOAD PUSH32 0x8C379A000000000000000000000000000000000000000000000000000000000 DUP2 MSTORE PUSH1 0x4 ADD PUSH2 0x2D87 SWAP1 PUSH2 0x4FB5 JUMP JUMPDEST PUSH1 0x40 MLOAD DUP1 SWAP2 SUB SWAP1 REVERT JUMPDEST DUP2 PUSH1 0x0 DUP2 SWAP1 SSTORE POP DUP2 PUSH32 0x63B90B79F11A0F132BCB2C4A4DDD44ABDA45C1308A83B2919318DF7F5F8B7BE4 PUSH1 0x40 MLOAD PUSH1 0x40 MLOAD DUP1 SWAP2 SUB SWAP1 LOG2 POP POP JUMP JUMPDEST PUSH32 0x589D473BA17C0F47D494622893831497BAD25919B9AFB8E33E9521B8963FCCDE PUSH2 0x2DF2 DUP2 PUSH2 0x3562 JUMP JUMPDEST DUP2 PUSH1 0x3 PUSH1 0x2 PUSH2 0x100 EXP DUP2 SLOAD DUP2 PUSH20 0xFFFFFFFFFFFFFFFFFFFFFFFFFFFFFFFFFFFFFFFF MUL NOT AND SWAP1 DUP4 PUSH20 0xFFFFFFFFFFFFFFFFFFFFFFFFFFFFFFFFFFFFFFFF AND MUL OR SWAP1 SSTORE POP PUSH1 0x3 PUSH1 0x2 SWAP1 SLOAD SWAP1 PUSH2 0x100 EXP SWAP1 DIV PUSH20 0xFFFFFFFFFFFFFFFFFFFFFFFFFFFFFFFFFFFFFFFF AND PUSH20 0xFFFFFFFFFFFFFFFFFFFFFFFFFFFFFFFFFFFFFFFF AND PUSH32 0x153AAE53B92218044BD5F43922617C6B253E50AC98A41B44C3ACB5625DED3488 PUSH1 0x40 MLOAD PUSH1 0x40 MLOAD DUP1 SWAP2 SUB SWAP1 LOG2 POP POP JUMP JUMPDEST PUSH2 0x2EA4 PUSH2 0x3390 JUMP JUMPDEST PUSH1 0x0 PUSH1 0x5 PUSH1 0x0 DUP2 SLOAD DUP2 LT PUSH2 0x2EBB JUMPI PUSH2 0x2EBA PUSH2 0x4CF8 JUMP JUMPDEST JUMPDEST SWAP1 PUSH1 0x0 MSTORE PUSH1 0x20 PUSH1 0x0 KECCAK256 SWAP1 PUSH1 0x7 MUL ADD SWAP1 POP PUSH1 0x0 PUSH20 0xFFFFFFFFFFFFFFFFFFFFFFFFFFFFFFFFFFFFFFFF AND DUP2 PUSH1 0x0 ADD PUSH1 0x0 SWAP1 SLOAD SWAP1 PUSH2 0x100 EXP SWAP1 DIV PUSH20 0xFFFFFFFFFFFFFFFFFFFFFFFFFFFFFFFFFFFFFFFF AND PUSH20 0xFFFFFFFFFFFFFFFFFFFFFFFFFFFFFFFFFFFFFFFF AND EQ PUSH2 0x2F5E JUMPI PUSH1 0x40 MLOAD PUSH32 0x8C379A000000000000000000000000000000000000000000000000000000000 DUP2 MSTORE PUSH1 0x4 ADD PUSH2 0x2F55 SWAP1 PUSH2 0x56BF JUMP JUMPDEST PUSH1 0x40 MLOAD DUP1 SWAP2 SUB SWAP1 REVERT JUMPDEST PUSH1 0x0 CALLVALUE SWAP1 POP DUP2 PUSH1 0x5 ADD SLOAD DUP2 GT PUSH2 0x2FA9 JUMPI PUSH1 0x40 MLOAD PUSH32 0x8C379A000000000000000000000000000000000000000000000000000000000 DUP2 MSTORE PUSH1 0x4 ADD PUSH2 0x2FA0 SWAP1 PUSH2 0x5653 JUMP JUMPDEST PUSH1 0x40 MLOAD DUP1 SWAP2 SUB SWAP1 REVERT JUMPDEST PUSH2 0x2FB4 PUSH1 0x0 DUP3 PUSH2 0x3DCD JUMP JUMPDEST POP POP JUMP JUMPDEST PUSH32 0x589D473BA17C0F47D494622893831497BAD25919B9AFB8E33E9521B8963FCCDE PUSH2 0x2FE2 DUP2 PUSH2 0x3562 JUMP JUMPDEST PUSH1 0x5 DUP1 SLOAD SWAP1 POP DUP5 LT PUSH2 0x3029 JUMPI PUSH1 0x40 MLOAD PUSH32 0x8C379A000000000000000000000000000000000000000000000000000000000 DUP2 MSTORE PUSH1 0x4 ADD PUSH2 0x3020 SWAP1 PUSH2 0x557B JUMP JUMPDEST PUSH1 0x40 MLOAD DUP1 SWAP2 SUB SWAP1 REVERT JUMPDEST PUSH1 0x0 DUP4 GT PUSH2 0x306C JUMPI PUSH1 0x40 MLOAD PUSH32 0x8C379A000000000000000000000000000000000000000000000000000000000 DUP2 MSTORE PUSH1 0x4 ADD PUSH2 0x3063 SWAP1 PUSH2 0x572B JUMP JUMPDEST PUSH1 0x40 MLOAD DUP1 SWAP2 SUB SWAP1 REVERT JUMPDEST DUP2 ISZERO PUSH2 0x307B JUMPI PUSH2 0x307A PUSH2 0x1C49 JUMP JUMPDEST JUMPDEST DUP3 PUSH1 0x5 DUP6 DUP2 SLOAD DUP2 LT PUSH2 0x3090 JUMPI PUSH2 0x308F PUSH2 0x4CF8 JUMP JUMPDEST JUMPDEST SWAP1 PUSH1 0x0 MSTORE PUSH1 0x20 PUSH1 0x0 KECCAK256 SWAP1 PUSH1 0x7 MUL ADD PUSH1 0x1 ADD SLOAD PUSH1 0x4 SLOAD PUSH2 0x30AF SWAP2 SWAP1 PUSH2 0x4DD2 JUMP JUMPDEST PUSH2 0x30B9 SWAP2 SWAP1 PUSH2 0x4D56 JUMP JUMPDEST PUSH1 0x4 DUP2 SWAP1 SSTORE POP DUP3 PUSH1 0x5 DUP6 DUP2 SLOAD DUP2 LT PUSH2 0x30D4 JUMPI PUSH2 0x30D3 PUSH2 0x4CF8 JUMP JUMPDEST JUMPDEST SWAP1 PUSH1 0x0 MSTORE PUSH1 0x20 PUSH1 0x0 KECCAK256 SWAP1 PUSH1 0x7 MUL ADD PUSH1 0x1 ADD DUP2 SWAP1 SSTORE POP DUP4 PUSH32 0x4B8FA3D6A87CB21D1BF4978BF60628AE358A28AC7F39DE1751A481C6DD957617 DUP5 PUSH1 0x4 SLOAD PUSH1 0x40 MLOAD PUSH2 0x311D SWAP3 SWAP2 SWAP1 PUSH2 0x4BF7 JUMP JUMPDEST PUSH1 0x40 MLOAD DUP1 SWAP2 SUB SWAP1 LOG2 POP POP POP POP JUMP JUMPDEST PUSH1 0x5 DUP2 DUP2 SLOAD DUP2 LT PUSH2 0x313B JUMPI PUSH1 0x0 DUP1 REVERT JUMPDEST SWAP1 PUSH1 0x0 MSTORE PUSH1 0x20 PUSH1 0x0 KECCAK256 SWAP1 PUSH1 0x7 MUL ADD PUSH1 0x0 SWAP2 POP SWAP1 POP DUP1 PUSH1 0x0 ADD PUSH1 0x0 SWAP1 SLOAD SWAP1 PUSH2 0x100 EXP SWAP1 DIV PUSH20 0xFFFFFFFFFFFFFFFFFFFFFFFFFFFFFFFFFFFFFFFF AND SWAP1 DUP1 PUSH1 0x1 ADD SLOAD SWAP1 DUP1 PUSH1 0x2 ADD SLOAD SWAP1 DUP1 PUSH1 0x3 ADD SLOAD SWAP1 DUP1 PUSH1 0x4 ADD SLOAD SWAP1 DUP1 PUSH1 0x5 ADD SLOAD SWAP1 DUP1 PUSH1 0x6 ADD SLOAD SWAP1 POP DUP8 JUMP JUMPDEST PUSH1 0x0 DUP1 DUP4 PUSH1 0x5 DUP1 SLOAD SWAP1 POP DUP2 LT PUSH2 0x31E8 JUMPI PUSH1 0x40 MLOAD PUSH32 0x8C379A000000000000000000000000000000000000000000000000000000000 DUP2 MSTORE PUSH1 0x4 ADD PUSH2 0x31DF SWAP1 PUSH2 0x4C6C JUMP JUMPDEST PUSH1 0x40 MLOAD DUP1 SWAP2 SUB SWAP1 REVERT JUMPDEST PUSH1 0x0 PUSH1 0xA PUSH1 0x0 DUP8 DUP2 MSTORE PUSH1 0x20 ADD SWAP1 DUP2 MSTORE PUSH1 0x20 ADD PUSH1 0x0 KECCAK256 PUSH1 0x0 DUP7 PUSH20 0xFFFFFFFFFFFFFFFFFFFFFFFFFFFFFFFFFFFFFFFF AND PUSH20 0xFFFFFFFFFFFFFFFFFFFFFFFFFFFFFFFFFFFFFFFF AND DUP2 MSTORE PUSH1 0x20 ADD SWAP1 DUP2 MSTORE PUSH1 0x20 ADD PUSH1 0x0 KECCAK256 SWAP1 POP PUSH1 0x0 JUMPDEST DUP2 PUSH1 0x3 ADD DUP1 SLOAD SWAP1 POP DUP2 LT ISZERO PUSH2 0x32F4 JUMPI NUMBER DUP3 PUSH1 0x3 ADD DUP3 DUP2 SLOAD DUP2 LT PUSH2 0x3265 JUMPI PUSH2 0x3264 PUSH2 0x4CF8 JUMP JUMPDEST JUMPDEST SWAP1 PUSH1 0x0 MSTORE PUSH1 0x20 PUSH1 0x0 KECCAK256 SWAP1 PUSH1 0x2 MUL ADD PUSH1 0x1 ADD SLOAD GT PUSH2 0x32B2 JUMPI DUP2 PUSH1 0x3 ADD DUP2 DUP2 SLOAD DUP2 LT PUSH2 0x3292 JUMPI PUSH2 0x3291 PUSH2 0x4CF8 JUMP JUMPDEST JUMPDEST SWAP1 PUSH1 0x0 MSTORE PUSH1 0x20 PUSH1 0x0 KECCAK256 SWAP1 PUSH1 0x2 MUL ADD PUSH1 0x0 ADD SLOAD DUP5 PUSH2 0x32AF SWAP2 SWAP1 PUSH2 0x4D56 JUMP JUMPDEST SWAP4 POP JUMPDEST DUP2 PUSH1 0x3 ADD DUP2 DUP2 SLOAD DUP2 LT PUSH2 0x32C8 JUMPI PUSH2 0x32C7 PUSH2 0x4CF8 JUMP JUMPDEST JUMPDEST SWAP1 PUSH1 0x0 MSTORE PUSH1 0x20 PUSH1 0x0 KECCAK256 SWAP1 PUSH1 0x2 MUL ADD PUSH1 0x0 ADD SLOAD DUP6 PUSH2 0x32E5 SWAP2 SWAP1 PUSH2 0x4D56 JUMP JUMPDEST SWAP5 POP DUP1 DUP1 PUSH1 0x1 ADD SWAP2 POP POP PUSH2 0x323F JUMP JUMPDEST POP POP POP SWAP3 POP SWAP3 SWAP1 POP JUMP JUMPDEST PUSH1 0x0 PUSH32 0x1FFC9A700000000000000000000000000000000000000000000000000000000 PUSH28 0xFFFFFFFFFFFFFFFFFFFFFFFFFFFFFFFFFFFFFFFFFFFFFFFFFFFFFFFF NOT AND DUP3 PUSH28 0xFFFFFFFFFFFFFFFFFFFFFFFFFFFFFFFFFFFFFFFFFFFFFFFFFFFFFFFF NOT AND EQ SWAP1 POP SWAP2 SWAP1 POP JUMP JUMPDEST PUSH1 0x0 PUSH32 0x2DD7BC7DEC4DCEEDDA775E58DD541E08A116C6C53815C0BD028192F7B626800 SWAP1 POP SWAP1 JUMP JUMPDEST PUSH2 0x3398 PUSH2 0x1B61 JUMP JUMPDEST ISZERO PUSH2 0x33CF JUMPI PUSH1 0x40 MLOAD PUSH32 0xD93C066500000000000000000000000000000000000000000000000000000000 DUP2 MSTORE PUSH1 0x4 ADD PUSH1 0x40 MLOAD DUP1 SWAP2 SUB SWAP1 REVERT JUMPDEST JUMP JUMPDEST PUSH1 0x0 DUP1 DUP4 PUSH20 0xFFFFFFFFFFFFFFFFFFFFFFFFFFFFFFFFFFFFFFFF AND DUP4 PUSH1 0x40 MLOAD PUSH2 0x33F8 SWAP1 PUSH2 0x577C JUMP JUMPDEST PUSH1 0x0 PUSH1 0x40 MLOAD DUP1 DUP4 SUB DUP2 DUP6 DUP8 GAS CALL SWAP3 POP POP POP RETURNDATASIZE DUP1 PUSH1 0x0 DUP2 EQ PUSH2 0x3435 JUMPI PUSH1 0x40 MLOAD SWAP2 POP PUSH1 0x1F NOT PUSH1 0x3F RETURNDATASIZE ADD AND DUP3 ADD PUSH1 0x40 MSTORE RETURNDATASIZE DUP3 MSTORE RETURNDATASIZE PUSH1 0x0 PUSH1 0x20 DUP5 ADD RETURNDATACOPY PUSH2 0x343A JUMP JUMPDEST PUSH1 0x60 SWAP2 POP JUMPDEST POP SWAP2 POP SWAP2 POP DUP2 PUSH2 0x347F JUMPI PUSH1 0x40 MLOAD PUSH32 0x8C379A000000000000000000000000000000000000000000000000000000000 DUP2 MSTORE PUSH1 0x4 ADD PUSH2 0x3476 SWAP1 PUSH2 0x57DD JUMP JUMPDEST PUSH1 0x40 MLOAD DUP1 SWAP2 SUB SWAP1 REVERT JUMPDEST PUSH1 0x0 DUP2 MLOAD GT ISZERO PUSH2 0x34DD JUMPI DUP1 DUP1 PUSH1 0x20 ADD SWAP1 MLOAD DUP2 ADD SWAP1 PUSH2 0x349D SWAP2 SWAP1 PUSH2 0x5812 JUMP JUMPDEST PUSH2 0x34DC JUMPI PUSH1 0x40 MLOAD PUSH32 0x8C379A000000000000000000000000000000000000000000000000000000000 DUP2 MSTORE PUSH1 0x4 ADD PUSH2 0x34D3 SWAP1 PUSH2 0x58B1 JUMP JUMPDEST PUSH1 0x40 MLOAD DUP1 SWAP2 SUB SWAP1 REVERT JUMPDEST JUMPDEST POP POP POP POP JUMP JUMPDEST PUSH2 0x355D DUP4 DUP5 PUSH20 0xFFFFFFFFFFFFFFFFFFFFFFFFFFFFFFFFFFFFFFFF AND PUSH4 0xA9059CBB DUP6 DUP6 PUSH1 0x40 MLOAD PUSH1 0x24 ADD PUSH2 0x3516 SWAP3 SWAP2 SWAP1 PUSH2 0x58D1 JUMP JUMPDEST PUSH1 0x40 MLOAD PUSH1 0x20 DUP2 DUP4 SUB SUB DUP2 MSTORE SWAP1 PUSH1 0x40 MSTORE SWAP2 POP PUSH1 0xE0 SHL PUSH1 0x20 DUP3 ADD DUP1 MLOAD PUSH28 0xFFFFFFFFFFFFFFFFFFFFFFFFFFFFFFFFFFFFFFFFFFFFFFFFFFFFFFFF DUP4 DUP2 DUP4 AND OR DUP4 MSTORE POP POP POP POP PUSH2 0x3E56 JUMP JUMPDEST POP POP POP JUMP JUMPDEST PUSH2 0x3573 DUP2 PUSH2 0x356E PUSH2 0x3677 JUMP JUMPDEST PUSH2 0x3EF8 JUMP JUMPDEST POP JUMP JUMPDEST PUSH1 0x0 DUP1 PUSH2 0x3581 PUSH2 0x3368 JUMP JUMPDEST SWAP1 POP PUSH2 0x358D DUP5 DUP5 PUSH2 0x1E8A JUMP JUMPDEST PUSH2 0x366B JUMPI PUSH1 0x1 DUP2 PUSH1 0x0 ADD PUSH1 0x0 DUP7 DUP2 MSTORE PUSH1 0x20 ADD SWAP1 DUP2 MSTORE PUSH1 0x20 ADD PUSH1 0x0 KECCAK256 PUSH1 0x0 ADD PUSH1 0x0 DUP6 PUSH20 0xFFFFFFFFFFFFFFFFFFFFFFFFFFFFFFFFFFFFFFFF AND PUSH20 0xFFFFFFFFFFFFFFFFFFFFFFFFFFFFFFFFFFFFFFFF AND DUP2 MSTORE PUSH1 0x20 ADD SWAP1 DUP2 MSTORE PUSH1 0x20 ADD PUSH1 0x0 KECCAK256 PUSH1 0x0 PUSH2 0x100 EXP DUP2 SLOAD DUP2 PUSH1 0xFF MUL NOT AND SWAP1 DUP4 ISZERO ISZERO MUL OR SWAP1 SSTORE POP PUSH2 0x3607 PUSH2 0x3677 JUMP JUMPDEST PUSH20 0xFFFFFFFFFFFFFFFFFFFFFFFFFFFFFFFFFFFFFFFF AND DUP4 PUSH20 0xFFFFFFFFFFFFFFFFFFFFFFFFFFFFFFFFFFFFFFFF AND DUP6 PUSH32 0x2F8788117E7EFF1D82E926EC794901D17C78024A50270940304540A733656F0D PUSH1 0x40 MLOAD PUSH1 0x40 MLOAD DUP1 SWAP2 SUB SWAP1 LOG4 PUSH1 0x1 SWAP2 POP POP PUSH2 0x3671 JUMP JUMPDEST PUSH1 0x0 SWAP2 POP POP JUMPDEST SWAP3 SWAP2 POP POP JUMP JUMPDEST PUSH1 0x0 CALLER SWAP1 POP SWAP1 JUMP JUMPDEST PUSH1 0x0 DUP1 PUSH2 0x368A PUSH2 0x3368 JUMP JUMPDEST SWAP1 POP PUSH2 0x3696 DUP5 DUP5 PUSH2 0x1E8A JUMP JUMPDEST ISZERO PUSH2 0x3775 JUMPI PUSH1 0x0 DUP2 PUSH1 0x0 ADD PUSH1 0x0 DUP7 DUP2 MSTORE PUSH1 0x20 ADD SWAP1 DUP2 MSTORE PUSH1 0x20 ADD PUSH1 0x0 KECCAK256 PUSH1 0x0 ADD PUSH1 0x0 DUP6 PUSH20 0xFFFFFFFFFFFFFFFFFFFFFFFFFFFFFFFFFFFFFFFF AND PUSH20 0xFFFFFFFFFFFFFFFFFFFFFFFFFFFFFFFFFFFFFFFF AND DUP2 MSTORE PUSH1 0x20 ADD SWAP1 DUP2 MSTORE PUSH1 0x20 ADD PUSH1 0x0 KECCAK256 PUSH1 0x0 PUSH2 0x100 EXP DUP2 SLOAD DUP2 PUSH1 0xFF MUL NOT AND SWAP1 DUP4 ISZERO ISZERO MUL OR SWAP1 SSTORE POP PUSH2 0x3711 PUSH2 0x3677 JUMP JUMPDEST PUSH20 0xFFFFFFFFFFFFFFFFFFFFFFFFFFFFFFFFFFFFFFFF AND DUP4 PUSH20 0xFFFFFFFFFFFFFFFFFFFFFFFFFFFFFFFFFFFFFFFF AND DUP6 PUSH32 0xF6391F5C32D9C69D2A47EA670B442974B53935D1EDC7FD64EB21E047A839171B PUSH1 0x40 MLOAD PUSH1 0x40 MLOAD DUP1 SWAP2 SUB SWAP1 LOG4 PUSH1 0x1 SWAP2 POP POP PUSH2 0x377B JUMP JUMPDEST PUSH1 0x0 SWAP2 POP POP JUMPDEST SWAP3 SWAP2 POP POP JUMP JUMPDEST PUSH1 0x0 PUSH1 0x3 PUSH1 0x2 SWAP1 SLOAD SWAP1 PUSH2 0x100 EXP SWAP1 DIV PUSH20 0xFFFFFFFFFFFFFFFFFFFFFFFFFFFFFFFFFFFFFFFF AND PUSH20 0xFFFFFFFFFFFFFFFFFFFFFFFFFFFFFFFFFFFFFFFF AND PUSH4 0x70A08231 ADDRESS PUSH1 0x40 MLOAD DUP3 PUSH4 0xFFFFFFFF AND PUSH1 0xE0 SHL DUP2 MSTORE PUSH1 0x4 ADD PUSH2 0x37DE SWAP2 SWAP1 PUSH2 0x58FA JUMP JUMPDEST PUSH1 0x20 PUSH1 0x40 MLOAD DUP1 DUP4 SUB DUP2 DUP7 GAS STATICCALL ISZERO DUP1 ISZERO PUSH2 0x37FB JUMPI RETURNDATASIZE PUSH1 0x0 DUP1 RETURNDATACOPY RETURNDATASIZE PUSH1 0x0 REVERT JUMPDEST POP POP POP POP PUSH1 0x40 MLOAD RETURNDATASIZE PUSH1 0x1F NOT PUSH1 0x1F DUP3 ADD AND DUP3 ADD DUP1 PUSH1 0x40 MSTORE POP DUP2 ADD SWAP1 PUSH2 0x381F SWAP2 SWAP1 PUSH2 0x592A JUMP JUMPDEST SWAP1 POP DUP1 DUP3 GT PUSH2 0x38CE JUMPI PUSH1 0x3 PUSH1 0x2 SWAP1 SLOAD SWAP1 PUSH2 0x100 EXP SWAP1 DIV PUSH20 0xFFFFFFFFFFFFFFFFFFFFFFFFFFFFFFFFFFFFFFFF AND PUSH20 0xFFFFFFFFFFFFFFFFFFFFFFFFFFFFFFFFFFFFFFFF AND PUSH4 0xA9059CBB DUP5 DUP5 PUSH1 0x40 MLOAD DUP4 PUSH4 0xFFFFFFFF AND PUSH1 0xE0 SHL DUP2 MSTORE PUSH1 0x4 ADD PUSH2 0x3885 SWAP3 SWAP2 SWAP1 PUSH2 0x58D1 JUMP JUMPDEST PUSH1 0x20 PUSH1 0x40 MLOAD DUP1 DUP4 SUB DUP2 PUSH1 0x0 DUP8 GAS CALL ISZERO DUP1 ISZERO PUSH2 0x38A4 JUMPI RETURNDATASIZE PUSH1 0x0 DUP1 RETURNDATACOPY RETURNDATASIZE PUSH1 0x0 REVERT JUMPDEST POP POP POP POP PUSH1 0x40 MLOAD RETURNDATASIZE PUSH1 0x1F NOT PUSH1 0x1F DUP3 ADD AND DUP3 ADD DUP1 PUSH1 0x40 MSTORE POP DUP2 ADD SWAP1 PUSH2 0x38C8 SWAP2 SWAP1 PUSH2 0x5812 JUMP JUMPDEST POP PUSH2 0x3970 JUMP JUMPDEST PUSH1 0x3 PUSH1 0x2 SWAP1 SLOAD SWAP1 PUSH2 0x100 EXP SWAP1 DIV PUSH20 0xFFFFFFFFFFFFFFFFFFFFFFFFFFFFFFFFFFFFFFFF AND PUSH20 0xFFFFFFFFFFFFFFFFFFFFFFFFFFFFFFFFFFFFFFFF AND PUSH4 0xA9059CBB DUP5 DUP4 PUSH1 0x40 MLOAD DUP4 PUSH4 0xFFFFFFFF AND PUSH1 0xE0 SHL DUP2 MSTORE PUSH1 0x4 ADD PUSH2 0x392B SWAP3 SWAP2 SWAP1 PUSH2 0x58D1 JUMP JUMPDEST PUSH1 0x20 PUSH1 0x40 MLOAD DUP1 DUP4 SUB DUP2 PUSH1 0x0 DUP8 GAS CALL ISZERO DUP1 ISZERO PUSH2 0x394A JUMPI RETURNDATASIZE PUSH1 0x0 DUP1 RETURNDATACOPY RETURNDATASIZE PUSH1 0x0 REVERT JUMPDEST POP POP POP POP PUSH1 0x40 MLOAD RETURNDATASIZE PUSH1 0x1F NOT PUSH1 0x1F DUP3 ADD AND DUP3 ADD DUP1 PUSH1 0x40 MSTORE POP DUP2 ADD SWAP1 PUSH2 0x396E SWAP2 SWAP1 PUSH2 0x5812 JUMP JUMPDEST POP JUMPDEST POP POP POP JUMP JUMPDEST PUSH1 0x0 PUSH32 0xF0C57E16840DF040F15088DC2F81FE391C3923BEC73E23A9662EFC9C229C6A00 SWAP1 POP SWAP1 JUMP JUMPDEST PUSH2 0x39A5 PUSH2 0x3F49 JUMP JUMPDEST JUMP JUMPDEST PUSH2 0x39AF PUSH2 0x3F49 JUMP JUMPDEST JUMP JUMPDEST PUSH32 0x0 PUSH20 0xFFFFFFFFFFFFFFFFFFFFFFFFFFFFFFFFFFFFFFFF AND ADDRESS PUSH20 0xFFFFFFFFFFFFFFFFFFFFFFFFFFFFFFFFFFFFFFFF AND EQ DUP1 PUSH2 0x3A5E JUMPI POP PUSH32 0x0 PUSH20 0xFFFFFFFFFFFFFFFFFFFFFFFFFFFFFFFFFFFFFFFF AND PUSH2 0x3A45 PUSH2 0x3F89 JUMP JUMPDEST PUSH20 0xFFFFFFFFFFFFFFFFFFFFFFFFFFFFFFFFFFFFFFFF AND EQ ISZERO JUMPDEST ISZERO PUSH2 0x3A95 JUMPI PUSH1 0x40 MLOAD PUSH32 0xE07C8DBA00000000000000000000000000000000000000000000000000000000 DUP2 MSTORE PUSH1 0x4 ADD PUSH1 0x40 MLOAD DUP1 SWAP2 SUB SWAP1 REVERT JUMPDEST JUMP JUMPDEST PUSH32 0xF47FC0C09EBBFE308D89B8035681A1164B9882BCFD49EB89861067738A30F5AB PUSH2 0x3AC1 DUP2 PUSH2 0x3562 JUMP JUMPDEST POP POP JUMP JUMPDEST DUP2 PUSH20 0xFFFFFFFFFFFFFFFFFFFFFFFFFFFFFFFFFFFFFFFF AND PUSH4 0x52D1902D PUSH1 0x40 MLOAD DUP2 PUSH4 0xFFFFFFFF AND PUSH1 0xE0 SHL DUP2 MSTORE PUSH1 0x4 ADD PUSH1 0x20 PUSH1 0x40 MLOAD DUP1 DUP4 SUB DUP2 DUP7 GAS STATICCALL SWAP3 POP POP POP DUP1 ISZERO PUSH2 0x3B2D JUMPI POP PUSH1 0x40 MLOAD RETURNDATASIZE PUSH1 0x1F NOT PUSH1 0x1F DUP3 ADD AND DUP3 ADD DUP1 PUSH1 0x40 MSTORE POP DUP2 ADD SWAP1 PUSH2 0x3B2A SWAP2 SWAP1 PUSH2 0x596C JUMP JUMPDEST PUSH1 0x1 JUMPDEST PUSH2 0x3B6E JUMPI DUP2 PUSH1 0x40 MLOAD PUSH32 0x4C9C8CE300000000000000000000000000000000000000000000000000000000 DUP2 MSTORE PUSH1 0x4 ADD PUSH2 0x3B65 SWAP2 SWAP1 PUSH2 0x58FA JUMP JUMPDEST PUSH1 0x40 MLOAD DUP1 SWAP2 SUB SWAP1 REVERT JUMPDEST PUSH32 0x360894A13BA1A3210667C828492DB98DCA3E2076CC3735A920A3CA505D382BBC PUSH1 0x0 SHL DUP2 EQ PUSH2 0x3BD5 JUMPI DUP1 PUSH1 0x40 MLOAD PUSH32 0xAA1D49A400000000000000000000000000000000000000000000000000000000 DUP2 MSTORE PUSH1 0x4 ADD PUSH2 0x3BCC SWAP2 SWAP1 PUSH2 0x4598 JUMP JUMPDEST PUSH1 0x40 MLOAD DUP1 SWAP2 SUB SWAP1 REVERT JUMPDEST PUSH2 0x3BDF DUP4 DUP4 PUSH2 0x3FE0 JUMP JUMPDEST POP POP POP JUMP JUMPDEST PUSH1 0x0 DUP1 PUSH1 0x0 DUP5 SUB PUSH2 0x3BFC JUMPI PUSH1 0x1 PUSH1 0x0 SWAP2 POP SWAP2 POP PUSH2 0x3C30 JUMP JUMPDEST PUSH1 0x0 DUP4 DUP6 MUL SWAP1 POP DUP4 DUP6 DUP3 DUP2 PUSH2 0x3C14 JUMPI PUSH2 0x3C13 PUSH2 0x4EE3 JUMP JUMPDEST JUMPDEST DIV EQ PUSH2 0x3C27 JUMPI PUSH1 0x0 DUP1 SWAP3 POP SWAP3 POP POP PUSH2 0x3C30 JUMP JUMPDEST PUSH1 0x1 DUP2 SWAP3 POP SWAP3 POP POP JUMPDEST SWAP3 POP SWAP3 SWAP1 POP JUMP JUMPDEST PUSH1 0x0 DUP1 PUSH1 0x0 DUP4 SUB PUSH2 0x3C4E JUMPI PUSH1 0x0 DUP1 SWAP2 POP SWAP2 POP PUSH2 0x3C66 JUMP JUMPDEST PUSH1 0x1 DUP4 DUP6 DUP2 PUSH2 0x3C60 JUMPI PUSH2 0x3C5F PUSH2 0x4EE3 JUMP JUMPDEST JUMPDEST DIV SWAP2 POP SWAP2 POP JUMPDEST SWAP3 POP SWAP3 SWAP1 POP JUMP JUMPDEST PUSH1 0x0 DUP1 PUSH1 0x0 DUP4 DUP6 ADD SWAP1 POP DUP5 DUP2 LT ISZERO PUSH2 0x3C8C JUMPI PUSH1 0x0 DUP1 SWAP3 POP SWAP3 POP POP PUSH2 0x3C95 JUMP JUMPDEST PUSH1 0x1 DUP2 SWAP3 POP SWAP3 POP POP JUMPDEST SWAP3 POP SWAP3 SWAP1 POP JUMP JUMPDEST PUSH32 0x0 PUSH20 0xFFFFFFFFFFFFFFFFFFFFFFFFFFFFFFFFFFFFFFFF AND ADDRESS PUSH20 0xFFFFFFFFFFFFFFFFFFFFFFFFFFFFFFFFFFFFFFFF AND EQ PUSH2 0x3D21 JUMPI PUSH1 0x40 MLOAD PUSH32 0xE07C8DBA00000000000000000000000000000000000000000000000000000000 DUP2 MSTORE PUSH1 0x4 ADD PUSH1 0x40 MLOAD DUP1 SWAP2 SUB SWAP1 REVERT JUMPDEST JUMP JUMPDEST PUSH1 0x0 PUSH32 0xCD5ED15C6E187E77E9AEE88184C21F4F2182AB5827CB3B7E07FBEDCD63F03300 SWAP1 POP SWAP1 JUMP JUMPDEST PUSH2 0x3DC7 DUP5 DUP6 PUSH20 0xFFFFFFFFFFFFFFFFFFFFFFFFFFFFFFFFFFFFFFFF AND PUSH4 0x23B872DD DUP7 DUP7 DUP7 PUSH1 0x40 MLOAD PUSH1 0x24 ADD PUSH2 0x3D80 SWAP4 SWAP3 SWAP2 SWAP1 PUSH2 0x5999 JUMP JUMPDEST PUSH1 0x40 MLOAD PUSH1 0x20 DUP2 DUP4 SUB SUB DUP2 MSTORE SWAP1 PUSH1 0x40 MSTORE SWAP2 POP PUSH1 0xE0 SHL PUSH1 0x20 DUP3 ADD DUP1 MLOAD PUSH28 0xFFFFFFFFFFFFFFFFFFFFFFFFFFFFFFFFFFFFFFFFFFFFFFFFFFFFFFFF DUP4 DUP2 DUP4 AND OR DUP4 MSTORE POP POP POP POP PUSH2 0x3E56 JUMP JUMPDEST POP POP POP POP JUMP JUMPDEST PUSH1 0x0 PUSH1 0x5 DUP4 DUP2 SLOAD DUP2 LT PUSH2 0x3DE3 JUMPI PUSH2 0x3DE2 PUSH2 0x4CF8 JUMP JUMPDEST JUMPDEST SWAP1 PUSH1 0x0 MSTORE PUSH1 0x20 PUSH1 0x0 KECCAK256 SWAP1 PUSH1 0x7 MUL ADD SWAP1 POP PUSH1 0x0 PUSH1 0xA PUSH1 0x0 DUP6 DUP2 MSTORE PUSH1 0x20 ADD SWAP1 DUP2 MSTORE PUSH1 0x20 ADD PUSH1 0x0 KECCAK256 PUSH1 0x0 CALLER PUSH20 0xFFFFFFFFFFFFFFFFFFFFFFFFFFFFFFFFFFFFFFFF AND PUSH20 0xFFFFFFFFFFFFFFFFFFFFFFFFFFFFFFFFFFFFFFFF AND DUP2 MSTORE PUSH1 0x20 ADD SWAP1 DUP2 MSTORE PUSH1 0x20 ADD PUSH1 0x0 KECCAK256 SWAP1 POP PUSH2 0x3E50 DUP5 PUSH2 0x183B JUMP JUMPDEST POP POP POP POP JUMP JUMPDEST PUSH1 0x0 DUP1 PUSH1 0x20 PUSH1 0x0 DUP5 MLOAD PUSH1 0x20 DUP7 ADD PUSH1 0x0 DUP9 GAS CALL DUP1 PUSH2 0x3E79 JUMPI PUSH1 0x40 MLOAD RETURNDATASIZE PUSH1 0x0 DUP3 RETURNDATACOPY RETURNDATASIZE DUP2 REVERT JUMPDEST RETURNDATASIZE SWAP3 POP PUSH1 0x0 MLOAD SWAP2 POP POP PUSH1 0x0 DUP3 EQ PUSH2 0x3E94 JUMPI PUSH1 0x1 DUP2 EQ ISZERO PUSH2 0x3EB0 JUMP JUMPDEST PUSH1 0x0 DUP5 PUSH20 0xFFFFFFFFFFFFFFFFFFFFFFFFFFFFFFFFFFFFFFFF AND EXTCODESIZE EQ JUMPDEST ISZERO PUSH2 0x3EF2 JUMPI DUP4 PUSH1 0x40 MLOAD PUSH32 0x5274AFE700000000000000000000000000000000000000000000000000000000 DUP2 MSTORE PUSH1 0x4 ADD PUSH2 0x3EE9 SWAP2 SWAP1 PUSH2 0x58FA JUMP JUMPDEST PUSH1 0x40 MLOAD DUP1 SWAP2 SUB SWAP1 REVERT JUMPDEST POP POP POP POP JUMP JUMPDEST PUSH2 0x3F02 DUP3 DUP3 PUSH2 0x1E8A JUMP JUMPDEST PUSH2 0x3F45 JUMPI DUP1 DUP3 PUSH1 0x40 MLOAD PUSH32 0xE2517D3F00000000000000000000000000000000000000000000000000000000 DUP2 MSTORE PUSH1 0x4 ADD PUSH2 0x3F3C SWAP3 SWAP2 SWAP1 PUSH2 0x59D0 JUMP JUMPDEST PUSH1 0x40 MLOAD DUP1 SWAP2 SUB SWAP1 REVERT JUMPDEST POP POP JUMP JUMPDEST PUSH2 0x3F51 PUSH2 0x4053 JUMP JUMPDEST PUSH2 0x3F87 JUMPI PUSH1 0x40 MLOAD PUSH32 0xD7E6BCF800000000000000000000000000000000000000000000000000000000 DUP2 MSTORE PUSH1 0x4 ADD PUSH1 0x40 MLOAD DUP1 SWAP2 SUB SWAP1 REVERT JUMPDEST JUMP JUMPDEST PUSH1 0x0 PUSH2 0x3FB7 PUSH32 0x360894A13BA1A3210667C828492DB98DCA3E2076CC3735A920A3CA505D382BBC PUSH1 0x0 SHL PUSH2 0x4073 JUMP JUMPDEST PUSH1 0x0 ADD PUSH1 0x0 SWAP1 SLOAD SWAP1 PUSH2 0x100 EXP SWAP1 DIV PUSH20 0xFFFFFFFFFFFFFFFFFFFFFFFFFFFFFFFFFFFFFFFF AND SWAP1 POP SWAP1 JUMP JUMPDEST PUSH2 0x3FE9 DUP3 PUSH2 0x407D JUMP JUMPDEST DUP2 PUSH20 0xFFFFFFFFFFFFFFFFFFFFFFFFFFFFFFFFFFFFFFFF AND PUSH32 0xBC7CD75A20EE27FD9ADEBAB32041F755214DBC6BFFA90CC0225B39DA2E5C2D3B PUSH1 0x40 MLOAD PUSH1 0x40 MLOAD DUP1 SWAP2 SUB SWAP1 LOG2 PUSH1 0x0 DUP2 MLOAD GT ISZERO PUSH2 0x4046 JUMPI PUSH2 0x4040 DUP3 DUP3 PUSH2 0x414A JUMP JUMPDEST POP PUSH2 0x404F JUMP JUMPDEST PUSH2 0x404E PUSH2 0x41CE JUMP JUMPDEST JUMPDEST POP POP JUMP JUMPDEST PUSH1 0x0 PUSH2 0x405D PUSH2 0x3975 JUMP JUMPDEST PUSH1 0x0 ADD PUSH1 0x8 SWAP1 SLOAD SWAP1 PUSH2 0x100 EXP SWAP1 DIV PUSH1 0xFF AND SWAP1 POP SWAP1 JUMP JUMPDEST PUSH1 0x0 DUP2 SWAP1 POP SWAP2 SWAP1 POP JUMP JUMPDEST PUSH1 0x0 DUP2 PUSH20 0xFFFFFFFFFFFFFFFFFFFFFFFFFFFFFFFFFFFFFFFF AND EXTCODESIZE SUB PUSH2 0x40D9 JUMPI DUP1 PUSH1 0x40 MLOAD PUSH32 0x4C9C8CE300000000000000000000000000000000000000000000000000000000 DUP2 MSTORE PUSH1 0x4 ADD PUSH2 0x40D0 SWAP2 SWAP1 PUSH2 0x58FA JUMP JUMPDEST PUSH1 0x40 MLOAD DUP1 SWAP2 SUB SWAP1 REVERT JUMPDEST DUP1 PUSH2 0x4106 PUSH32 0x360894A13BA1A3210667C828492DB98DCA3E2076CC3735A920A3CA505D382BBC PUSH1 0x0 SHL PUSH2 0x4073 JUMP JUMPDEST PUSH1 0x0 ADD PUSH1 0x0 PUSH2 0x100 EXP DUP2 SLOAD DUP2 PUSH20 0xFFFFFFFFFFFFFFFFFFFFFFFFFFFFFFFFFFFFFFFF MUL NOT AND SWAP1 DUP4 PUSH20 0xFFFFFFFFFFFFFFFFFFFFFFFFFFFFFFFFFFFFFFFF AND MUL OR SWAP1 SSTORE POP POP JUMP JUMPDEST PUSH1 0x60 PUSH1 0x0 DUP1 DUP5 PUSH20 0xFFFFFFFFFFFFFFFFFFFFFFFFFFFFFFFFFFFFFFFF AND DUP5 PUSH1 0x40 MLOAD PUSH2 0x4174 SWAP2 SWAP1 PUSH2 0x5A35 JUMP JUMPDEST PUSH1 0x0 PUSH1 0x40 MLOAD DUP1 DUP4 SUB DUP2 DUP6 GAS DELEGATECALL SWAP2 POP POP RETURNDATASIZE DUP1 PUSH1 0x0 DUP2 EQ PUSH2 0x41AF JUMPI PUSH1 0x40 MLOAD SWAP2 POP PUSH1 0x1F NOT PUSH1 0x3F RETURNDATASIZE ADD AND DUP3 ADD PUSH1 0x40 MSTORE RETURNDATASIZE DUP3 MSTORE RETURNDATASIZE PUSH1 0x0 PUSH1 0x20 DUP5 ADD RETURNDATACOPY PUSH2 0x41B4 JUMP JUMPDEST PUSH1 0x60 SWAP2 POP JUMPDEST POP SWAP2 POP SWAP2 POP PUSH2 0x41C4 DUP6 DUP4 DUP4 PUSH2 0x420B JUMP JUMPDEST SWAP3 POP POP POP SWAP3 SWAP2 POP POP JUMP JUMPDEST PUSH1 0x0 CALLVALUE GT ISZERO PUSH2 0x4209 JUMPI PUSH1 0x40 MLOAD PUSH32 0xB398979F00000000000000000000000000000000000000000000000000000000 DUP2 MSTORE PUSH1 0x4 ADD PUSH1 0x40 MLOAD DUP1 SWAP2 SUB SWAP1 REVERT JUMPDEST JUMP JUMPDEST PUSH1 0x60 DUP3 PUSH2 0x4220 JUMPI PUSH2 0x421B DUP3 PUSH2 0x429A JUMP JUMPDEST PUSH2 0x4292 JUMP JUMPDEST PUSH1 0x0 DUP3 MLOAD EQ DUP1 ISZERO PUSH2 0x4248 JUMPI POP PUSH1 0x0 DUP5 PUSH20 0xFFFFFFFFFFFFFFFFFFFFFFFFFFFFFFFFFFFFFFFF AND EXTCODESIZE EQ JUMPDEST ISZERO PUSH2 0x428A JUMPI DUP4 PUSH1 0x40 MLOAD PUSH32 0x9996B31500000000000000000000000000000000000000000000000000000000 DUP2 MSTORE PUSH1 0x4 ADD PUSH2 0x4281 SWAP2 SWAP1 PUSH2 0x58FA JUMP JUMPDEST PUSH1 0x40 MLOAD DUP1 SWAP2 SUB SWAP1 REVERT JUMPDEST DUP2 SWAP1 POP PUSH2 0x4293 JUMP JUMPDEST JUMPDEST SWAP4 SWAP3 POP POP POP JUMP JUMPDEST PUSH1 0x0 DUP2 MLOAD GT ISZERO PUSH2 0x42AD JUMPI DUP1 MLOAD DUP1 DUP3 PUSH1 0x20 ADD REVERT JUMPDEST PUSH1 0x40 MLOAD PUSH32 0xD6BDA27500000000000000000000000000000000000000000000000000000000 DUP2 MSTORE PUSH1 0x4 ADD PUSH1 0x40 MLOAD DUP1 SWAP2 SUB SWAP1 REVERT JUMPDEST PUSH1 0x0 PUSH1 0x40 MLOAD SWAP1 POP SWAP1 JUMP JUMPDEST PUSH1 0x0 DUP1 REVERT JUMPDEST PUSH1 0x0 DUP1 REVERT JUMPDEST PUSH1 0x0 PUSH32 0xFFFFFFFF00000000000000000000000000000000000000000000000000000000 DUP3 AND SWAP1 POP SWAP2 SWAP1 POP JUMP JUMPDEST PUSH2 0x4328 DUP2 PUSH2 0x42F3 JUMP JUMPDEST DUP2 EQ PUSH2 0x4333 JUMPI PUSH1 0x0 DUP1 REVERT JUMPDEST POP JUMP JUMPDEST PUSH1 0x0 DUP2 CALLDATALOAD SWAP1 POP PUSH2 0x4345 DUP2 PUSH2 0x431F JUMP JUMPDEST SWAP3 SWAP2 POP POP JUMP JUMPDEST PUSH1 0x0 PUSH1 0x20 DUP3 DUP5 SUB SLT ISZERO PUSH2 0x4361 JUMPI PUSH2 0x4360 PUSH2 0x42E9 JUMP JUMPDEST JUMPDEST PUSH1 0x0 PUSH2 0x436F DUP5 DUP3 DUP6 ADD PUSH2 0x4336 JUMP JUMPDEST SWAP2 POP POP SWAP3 SWAP2 POP POP JUMP JUMPDEST PUSH1 0x0 DUP2 ISZERO ISZERO SWAP1 POP SWAP2 SWAP1 POP JUMP JUMPDEST PUSH2 0x438D DUP2 PUSH2 0x4378 JUMP JUMPDEST DUP3 MSTORE POP POP JUMP JUMPDEST PUSH1 0x0 PUSH1 0x20 DUP3 ADD SWAP1 POP PUSH2 0x43A8 PUSH1 0x0 DUP4 ADD DUP5 PUSH2 0x4384 JUMP JUMPDEST SWAP3 SWAP2 POP POP JUMP JUMPDEST PUSH1 0x0 DUP2 SWAP1 POP SWAP2 SWAP1 POP JUMP JUMPDEST PUSH2 0x43C1 DUP2 PUSH2 0x43AE JUMP JUMPDEST DUP3 MSTORE POP POP JUMP JUMPDEST PUSH1 0x0 PUSH1 0x20 DUP3 ADD SWAP1 POP PUSH2 0x43DC PUSH1 0x0 DUP4 ADD DUP5 PUSH2 0x43B8 JUMP JUMPDEST SWAP3 SWAP2 POP POP JUMP JUMPDEST PUSH2 0x43EB DUP2 PUSH2 0x43AE JUMP JUMPDEST DUP2 EQ PUSH2 0x43F6 JUMPI PUSH1 0x0 DUP1 REVERT JUMPDEST POP JUMP JUMPDEST PUSH1 0x0 DUP2 CALLDATALOAD SWAP1 POP PUSH2 0x4408 DUP2 PUSH2 0x43E2 JUMP JUMPDEST SWAP3 SWAP2 POP POP JUMP JUMPDEST PUSH1 0x0 PUSH20 0xFFFFFFFFFFFFFFFFFFFFFFFFFFFFFFFFFFFFFFFF DUP3 AND SWAP1 POP SWAP2 SWAP1 POP JUMP JUMPDEST PUSH1 0x0 PUSH2 0x4439 DUP3 PUSH2 0x440E JUMP JUMPDEST SWAP1 POP SWAP2 SWAP1 POP JUMP JUMPDEST PUSH2 0x4449 DUP2 PUSH2 0x442E JUMP JUMPDEST DUP2 EQ PUSH2 0x4454 JUMPI PUSH1 0x0 DUP1 REVERT JUMPDEST POP JUMP JUMPDEST PUSH1 0x0 DUP2 CALLDATALOAD SWAP1 POP PUSH2 0x4466 DUP2 PUSH2 0x4440 JUMP JUMPDEST SWAP3 SWAP2 POP POP JUMP JUMPDEST PUSH1 0x0 DUP1 PUSH1 0x40 DUP4 DUP6 SUB SLT ISZERO PUSH2 0x4483 JUMPI PUSH2 0x4482 PUSH2 0x42E9 JUMP JUMPDEST JUMPDEST PUSH1 0x0 PUSH2 0x4491 DUP6 DUP3 DUP7 ADD PUSH2 0x43F9 JUMP JUMPDEST SWAP3 POP POP PUSH1 0x20 PUSH2 0x44A2 DUP6 DUP3 DUP7 ADD PUSH2 0x4457 JUMP JUMPDEST SWAP2 POP POP SWAP3 POP SWAP3 SWAP1 POP JUMP JUMPDEST PUSH1 0x0 DUP2 SWAP1 POP SWAP2 SWAP1 POP JUMP JUMPDEST PUSH1 0x0 PUSH2 0x44D1 PUSH2 0x44CC PUSH2 0x44C7 DUP5 PUSH2 0x440E JUMP JUMPDEST PUSH2 0x44AC JUMP JUMPDEST PUSH2 0x440E JUMP JUMPDEST SWAP1 POP SWAP2 SWAP1 POP JUMP JUMPDEST PUSH1 0x0 PUSH2 0x44E3 DUP3 PUSH2 0x44B6 JUMP JUMPDEST SWAP1 POP SWAP2 SWAP1 POP JUMP JUMPDEST PUSH1 0x0 PUSH2 0x44F5 DUP3 PUSH2 0x44D8 JUMP JUMPDEST SWAP1 POP SWAP2 SWAP1 POP JUMP JUMPDEST PUSH2 0x4505 DUP2 PUSH2 0x44EA JUMP JUMPDEST DUP3 MSTORE POP POP JUMP JUMPDEST PUSH1 0x0 PUSH1 0x20 DUP3 ADD SWAP1 POP PUSH2 0x4520 PUSH1 0x0 DUP4 ADD DUP5 PUSH2 0x44FC JUMP JUMPDEST SWAP3 SWAP2 POP POP JUMP JUMPDEST PUSH1 0x0 DUP2 SWAP1 POP SWAP2 SWAP1 POP JUMP JUMPDEST PUSH2 0x4539 DUP2 PUSH2 0x4526 JUMP JUMPDEST DUP2 EQ PUSH2 0x4544 JUMPI PUSH1 0x0 DUP1 REVERT JUMPDEST POP JUMP JUMPDEST PUSH1 0x0 DUP2 CALLDATALOAD SWAP1 POP PUSH2 0x4556 DUP2 PUSH2 0x4530 JUMP JUMPDEST SWAP3 SWAP2 POP POP JUMP JUMPDEST PUSH1 0x0 PUSH1 0x20 DUP3 DUP5 SUB SLT ISZERO PUSH2 0x4572 JUMPI PUSH2 0x4571 PUSH2 0x42E9 JUMP JUMPDEST JUMPDEST PUSH1 0x0 PUSH2 0x4580 DUP5 DUP3 DUP6 ADD PUSH2 0x4547 JUMP JUMPDEST SWAP2 POP POP SWAP3 SWAP2 POP POP JUMP JUMPDEST PUSH2 0x4592 DUP2 PUSH2 0x4526 JUMP JUMPDEST DUP3 MSTORE POP POP JUMP JUMPDEST PUSH1 0x0 PUSH1 0x20 DUP3 ADD SWAP1 POP PUSH2 0x45AD PUSH1 0x0 DUP4 ADD DUP5 PUSH2 0x4589 JUMP JUMPDEST SWAP3 SWAP2 POP POP JUMP JUMPDEST PUSH1 0x0 PUSH1 0x20 DUP3 DUP5 SUB SLT ISZERO PUSH2 0x45C9 JUMPI PUSH2 0x45C8 PUSH2 0x42E9 JUMP JUMPDEST JUMPDEST PUSH1 0x0 PUSH2 0x45D7 DUP5 DUP3 DUP6 ADD PUSH2 0x43F9 JUMP JUMPDEST SWAP2 POP POP SWAP3 SWAP2 POP POP JUMP JUMPDEST PUSH1 0x0 DUP1 PUSH1 0x40 DUP4 DUP6 SUB SLT ISZERO PUSH2 0x45F7 JUMPI PUSH2 0x45F6 PUSH2 0x42E9 JUMP JUMPDEST JUMPDEST PUSH1 0x0 PUSH2 0x4605 DUP6 DUP3 DUP7 ADD PUSH2 0x4547 JUMP JUMPDEST SWAP3 POP POP PUSH1 0x20 PUSH2 0x4616 DUP6 DUP3 DUP7 ADD PUSH2 0x4457 JUMP JUMPDEST SWAP2 POP POP SWAP3 POP SWAP3 SWAP1 POP JUMP JUMPDEST PUSH1 0x0 PUSH1 0x60 DUP3 ADD SWAP1 POP PUSH2 0x4635 PUSH1 0x0 DUP4 ADD DUP7 PUSH2 0x43B8 JUMP JUMPDEST PUSH2 0x4642 PUSH1 0x20 DUP4 ADD DUP6 PUSH2 0x43B8 JUMP JUMPDEST PUSH2 0x464F PUSH1 0x40 DUP4 ADD DUP5 PUSH2 0x43B8 JUMP JUMPDEST SWAP5 SWAP4 POP POP POP POP JUMP JUMPDEST PUSH1 0x0 DUP1 PUSH1 0x0 PUSH1 0x60 DUP5 DUP7 SUB SLT ISZERO PUSH2 0x4670 JUMPI PUSH2 0x466F PUSH2 0x42E9 JUMP JUMPDEST JUMPDEST PUSH1 0x0 PUSH2 0x467E DUP7 DUP3 DUP8 ADD PUSH2 0x43F9 JUMP JUMPDEST SWAP4 POP POP PUSH1 0x20 PUSH2 0x468F DUP7 DUP3 DUP8 ADD PUSH2 0x4457 JUMP JUMPDEST SWAP3 POP POP PUSH1 0x40 PUSH2 0x46A0 DUP7 DUP3 DUP8 ADD PUSH2 0x43F9 JUMP JUMPDEST SWAP2 POP POP SWAP3 POP SWAP3 POP SWAP3 JUMP JUMPDEST PUSH1 0x0 PUSH2 0x46B5 DUP3 PUSH2 0x442E JUMP JUMPDEST SWAP1 POP SWAP2 SWAP1 POP JUMP JUMPDEST PUSH2 0x46C5 DUP2 PUSH2 0x46AA JUMP JUMPDEST DUP2 EQ PUSH2 0x46D0 JUMPI PUSH1 0x0 DUP1 REVERT JUMPDEST POP JUMP JUMPDEST PUSH1 0x0 DUP2 CALLDATALOAD SWAP1 POP PUSH2 0x46E2 DUP2 PUSH2 0x46BC JUMP JUMPDEST SWAP3 SWAP2 POP POP JUMP JUMPDEST PUSH1 0x0 DUP1 PUSH1 0x0 DUP1 PUSH1 0x80 DUP6 DUP8 SUB SLT ISZERO PUSH2 0x4702 JUMPI PUSH2 0x4701 PUSH2 0x42E9 JUMP JUMPDEST JUMPDEST PUSH1 0x0 PUSH2 0x4710 DUP8 DUP3 DUP9 ADD PUSH2 0x46D3 JUMP JUMPDEST SWAP5 POP POP PUSH1 0x20 PUSH2 0x4721 DUP8 DUP3 DUP9 ADD PUSH2 0x43F9 JUMP JUMPDEST SWAP4 POP POP PUSH1 0x40 PUSH2 0x4732 DUP8 DUP3 DUP9 ADD PUSH2 0x43F9 JUMP JUMPDEST SWAP3 POP POP PUSH1 0x60 PUSH2 0x4743 DUP8 DUP3 DUP9 ADD PUSH2 0x43F9 JUMP JUMPDEST SWAP2 POP POP SWAP3 SWAP6 SWAP2 SWAP5 POP SWAP3 POP JUMP JUMPDEST PUSH1 0x0 DUP1 REVERT JUMPDEST PUSH1 0x0 DUP1 REVERT JUMPDEST PUSH1 0x0 PUSH1 0x1F NOT PUSH1 0x1F DUP4 ADD AND SWAP1 POP SWAP2 SWAP1 POP JUMP JUMPDEST PUSH32 0x4E487B7100000000000000000000000000000000000000000000000000000000 PUSH1 0x0 MSTORE PUSH1 0x41 PUSH1 0x4 MSTORE PUSH1 0x24 PUSH1 0x0 REVERT JUMPDEST PUSH2 0x47A2 DUP3 PUSH2 0x4759 JUMP JUMPDEST DUP2 ADD DUP2 DUP2 LT PUSH8 0xFFFFFFFFFFFFFFFF DUP3 GT OR ISZERO PUSH2 0x47C1 JUMPI PUSH2 0x47C0 PUSH2 0x476A JUMP JUMPDEST JUMPDEST DUP1 PUSH1 0x40 MSTORE POP POP POP JUMP JUMPDEST PUSH1 0x0 PUSH2 0x47D4 PUSH2 0x42DF JUMP JUMPDEST SWAP1 POP PUSH2 0x47E0 DUP3 DUP3 PUSH2 0x4799 JUMP JUMPDEST SWAP2 SWAP1 POP JUMP JUMPDEST PUSH1 0x0 PUSH8 0xFFFFFFFFFFFFFFFF DUP3 GT ISZERO PUSH2 0x4800 JUMPI PUSH2 0x47FF PUSH2 0x476A JUMP JUMPDEST JUMPDEST PUSH2 0x4809 DUP3 PUSH2 0x4759 JUMP JUMPDEST SWAP1 POP PUSH1 0x20 DUP2 ADD SWAP1 POP SWAP2 SWAP1 POP JUMP JUMPDEST DUP3 DUP2 DUP4 CALLDATACOPY PUSH1 0x0 DUP4 DUP4 ADD MSTORE POP POP POP JUMP JUMPDEST PUSH1 0x0 PUSH2 0x4838 PUSH2 0x4833 DUP5 PUSH2 0x47E5 JUMP JUMPDEST PUSH2 0x47CA JUMP JUMPDEST SWAP1 POP DUP3 DUP2 MSTORE PUSH1 0x20 DUP2 ADD DUP5 DUP5 DUP5 ADD GT ISZERO PUSH2 0x4854 JUMPI PUSH2 0x4853 PUSH2 0x4754 JUMP JUMPDEST JUMPDEST PUSH2 0x485F DUP5 DUP3 DUP6 PUSH2 0x4816 JUMP JUMPDEST POP SWAP4 SWAP3 POP POP POP JUMP JUMPDEST PUSH1 0x0 DUP3 PUSH1 0x1F DUP4 ADD SLT PUSH2 0x487C JUMPI PUSH2 0x487B PUSH2 0x474F JUMP JUMPDEST JUMPDEST DUP2 CALLDATALOAD PUSH2 0x488C DUP5 DUP3 PUSH1 0x20 DUP7 ADD PUSH2 0x4825 JUMP JUMPDEST SWAP2 POP POP SWAP3 SWAP2 POP POP JUMP JUMPDEST PUSH1 0x0 DUP1 PUSH1 0x40 DUP4 DUP6 SUB SLT ISZERO PUSH2 0x48AC JUMPI PUSH2 0x48AB PUSH2 0x42E9 JUMP JUMPDEST JUMPDEST PUSH1 0x0 PUSH2 0x48BA DUP6 DUP3 DUP7 ADD PUSH2 0x4457 JUMP JUMPDEST SWAP3 POP POP PUSH1 0x20 DUP4 ADD CALLDATALOAD PUSH8 0xFFFFFFFFFFFFFFFF DUP2 GT ISZERO PUSH2 0x48DB JUMPI PUSH2 0x48DA PUSH2 0x42EE JUMP JUMPDEST JUMPDEST PUSH2 0x48E7 DUP6 DUP3 DUP7 ADD PUSH2 0x4867 JUMP JUMPDEST SWAP2 POP POP SWAP3 POP SWAP3 SWAP1 POP JUMP JUMPDEST PUSH1 0x0 DUP1 PUSH1 0x40 DUP4 DUP6 SUB SLT ISZERO PUSH2 0x4908 JUMPI PUSH2 0x4907 PUSH2 0x42E9 JUMP JUMPDEST JUMPDEST PUSH1 0x0 PUSH2 0x4916 DUP6 DUP3 DUP7 ADD PUSH2 0x43F9 JUMP JUMPDEST SWAP3 POP POP PUSH1 0x20 PUSH2 0x4927 DUP6 DUP3 DUP7 ADD PUSH2 0x43F9 JUMP JUMPDEST SWAP2 POP POP SWAP3 POP SWAP3 SWAP1 POP JUMP JUMPDEST PUSH1 0x0 PUSH1 0x20 DUP3 DUP5 SUB SLT ISZERO PUSH2 0x4947 JUMPI PUSH2 0x4946 PUSH2 0x42E9 JUMP JUMPDEST JUMPDEST PUSH1 0x0 PUSH2 0x4955 DUP5 DUP3 DUP6 ADD PUSH2 0x4457 JUMP JUMPDEST SWAP2 POP POP SWAP3 SWAP2 POP POP JUMP JUMPDEST PUSH2 0x4967 DUP2 PUSH2 0x442E JUMP JUMPDEST DUP3 MSTORE POP POP JUMP JUMPDEST PUSH1 0x0 PUSH1 0xE0 DUP3 ADD SWAP1 POP PUSH2 0x4982 PUSH1 0x0 DUP4 ADD DUP11 PUSH2 0x495E JUMP JUMPDEST PUSH2 0x498F PUSH1 0x20 DUP4 ADD DUP10 PUSH2 0x43B8 JUMP JUMPDEST PUSH2 0x499C PUSH1 0x40 DUP4 ADD DUP9 PUSH2 0x43B8 JUMP JUMPDEST PUSH2 0x49A9 PUSH1 0x60 DUP4 ADD DUP8 PUSH2 0x43B8 JUMP JUMPDEST PUSH2 0x49B6 PUSH1 0x80 DUP4 ADD DUP7 PUSH2 0x43B8 JUMP JUMPDEST PUSH2 0x49C3 PUSH1 0xA0 DUP4 ADD DUP6 PUSH2 0x43B8 JUMP JUMPDEST PUSH2 0x49D0 PUSH1 0xC0 DUP4 ADD DUP5 PUSH2 0x43B8 JUMP JUMPDEST SWAP9 SWAP8 POP POP POP POP POP POP POP POP JUMP JUMPDEST PUSH1 0x0 DUP2 MLOAD SWAP1 POP SWAP2 SWAP1 POP JUMP JUMPDEST PUSH1 0x0 DUP3 DUP3 MSTORE PUSH1 0x20 DUP3 ADD SWAP1 POP SWAP3 SWAP2 POP POP JUMP JUMPDEST PUSH1 0x0 JUMPDEST DUP4 DUP2 LT ISZERO PUSH2 0x4A16 JUMPI DUP1 DUP3 ADD MLOAD DUP2 DUP5 ADD MSTORE PUSH1 0x20 DUP2 ADD SWAP1 POP PUSH2 0x49FB JUMP JUMPDEST PUSH1 0x0 DUP5 DUP5 ADD MSTORE POP POP POP POP JUMP JUMPDEST PUSH1 0x0 PUSH2 0x4A2D DUP3 PUSH2 0x49DC JUMP JUMPDEST PUSH2 0x4A37 DUP2 DUP6 PUSH2 0x49E7 JUMP JUMPDEST SWAP4 POP PUSH2 0x4A47 DUP2 DUP6 PUSH1 0x20 DUP7 ADD PUSH2 0x49F8 JUMP JUMPDEST PUSH2 0x4A50 DUP2 PUSH2 0x4759 JUMP JUMPDEST DUP5 ADD SWAP2 POP POP SWAP3 SWAP2 POP POP JUMP JUMPDEST PUSH1 0x0 PUSH1 0x20 DUP3 ADD SWAP1 POP DUP2 DUP2 SUB PUSH1 0x0 DUP4 ADD MSTORE PUSH2 0x4A75 DUP2 DUP5 PUSH2 0x4A22 JUMP JUMPDEST SWAP1 POP SWAP3 SWAP2 POP POP JUMP JUMPDEST PUSH2 0x4A86 DUP2 PUSH2 0x4378 JUMP JUMPDEST DUP2 EQ PUSH2 0x4A91 JUMPI PUSH1 0x0 DUP1 REVERT JUMPDEST POP JUMP JUMPDEST PUSH1 0x0 DUP2 CALLDATALOAD SWAP1 POP PUSH2 0x4AA3 DUP2 PUSH2 0x4A7D JUMP JUMPDEST SWAP3 SWAP2 POP POP JUMP JUMPDEST PUSH1 0x0 DUP1 PUSH1 0x0 DUP1 PUSH1 0x0 PUSH1 0xA0 DUP7 DUP9 SUB SLT ISZERO PUSH2 0x4AC5 JUMPI PUSH2 0x4AC4 PUSH2 0x42E9 JUMP JUMPDEST JUMPDEST PUSH1 0x0 PUSH2 0x4AD3 DUP9 DUP3 DUP10 ADD PUSH2 0x4457 JUMP JUMPDEST SWAP6 POP POP PUSH1 0x20 PUSH2 0x4AE4 DUP9 DUP3 DUP10 ADD PUSH2 0x43F9 JUMP JUMPDEST SWAP5 POP POP PUSH1 0x40 PUSH2 0x4AF5 DUP9 DUP3 DUP10 ADD PUSH2 0x43F9 JUMP JUMPDEST SWAP4 POP POP PUSH1 0x60 PUSH2 0x4B06 DUP9 DUP3 DUP10 ADD PUSH2 0x43F9 JUMP JUMPDEST SWAP3 POP POP PUSH1 0x80 PUSH2 0x4B17 DUP9 DUP3 DUP10 ADD PUSH2 0x4A94 JUMP JUMPDEST SWAP2 POP POP SWAP3 SWAP6 POP SWAP3 SWAP6 SWAP1 SWAP4 POP JUMP JUMPDEST PUSH1 0x0 DUP1 PUSH1 0x0 PUSH1 0x60 DUP5 DUP7 SUB SLT ISZERO PUSH2 0x4B3D JUMPI PUSH2 0x4B3C PUSH2 0x42E9 JUMP JUMPDEST JUMPDEST PUSH1 0x0 PUSH2 0x4B4B DUP7 DUP3 DUP8 ADD PUSH2 0x43F9 JUMP JUMPDEST SWAP4 POP POP PUSH1 0x20 PUSH2 0x4B5C DUP7 DUP3 DUP8 ADD PUSH2 0x43F9 JUMP JUMPDEST SWAP3 POP POP PUSH1 0x40 PUSH2 0x4B6D DUP7 DUP3 DUP8 ADD PUSH2 0x43F9 JUMP JUMPDEST SWAP2 POP POP SWAP3 POP SWAP3 POP SWAP3 JUMP JUMPDEST PUSH1 0x0 PUSH1 0x20 DUP3 DUP5 SUB SLT ISZERO PUSH2 0x4B8D JUMPI PUSH2 0x4B8C PUSH2 0x42E9 JUMP JUMPDEST JUMPDEST PUSH1 0x0 PUSH2 0x4B9B DUP5 DUP3 DUP6 ADD PUSH2 0x46D3 JUMP JUMPDEST SWAP2 POP POP SWAP3 SWAP2 POP POP JUMP JUMPDEST PUSH1 0x0 DUP1 PUSH1 0x0 PUSH1 0x60 DUP5 DUP7 SUB SLT ISZERO PUSH2 0x4BBD JUMPI PUSH2 0x4BBC PUSH2 0x42E9 JUMP JUMPDEST JUMPDEST PUSH1 0x0 PUSH2 0x4BCB DUP7 DUP3 DUP8 ADD PUSH2 0x43F9 JUMP JUMPDEST SWAP4 POP POP PUSH1 0x20 PUSH2 0x4BDC DUP7 DUP3 DUP8 ADD PUSH2 0x43F9 JUMP JUMPDEST SWAP3 POP POP PUSH1 0x40 PUSH2 0x4BED DUP7 DUP3 DUP8 ADD PUSH2 0x4A94 JUMP JUMPDEST SWAP2 POP POP SWAP3 POP SWAP3 POP SWAP3 JUMP JUMPDEST PUSH1 0x0 PUSH1 0x40 DUP3 ADD SWAP1 POP PUSH2 0x4C0C PUSH1 0x0 DUP4 ADD DUP6 PUSH2 0x43B8 JUMP JUMPDEST PUSH2 0x4C19 PUSH1 0x20 DUP4 ADD DUP5 PUSH2 0x43B8 JUMP JUMPDEST SWAP4 SWAP3 POP POP POP JUMP JUMPDEST PUSH32 0x696E76616C696420706964000000000000000000000000000000000000000000 PUSH1 0x0 DUP3 ADD MSTORE POP JUMP JUMPDEST PUSH1 0x0 PUSH2 0x4C56 PUSH1 0xB DUP4 PUSH2 0x49E7 JUMP JUMPDEST SWAP2 POP PUSH2 0x4C61 DUP3 PUSH2 0x4C20 JUMP JUMPDEST PUSH1 0x20 DUP3 ADD SWAP1 POP SWAP2 SWAP1 POP JUMP JUMPDEST PUSH1 0x0 PUSH1 0x20 DUP3 ADD SWAP1 POP DUP2 DUP2 SUB PUSH1 0x0 DUP4 ADD MSTORE PUSH2 0x4C85 DUP2 PUSH2 0x4C49 JUMP JUMPDEST SWAP1 POP SWAP2 SWAP1 POP JUMP JUMPDEST PUSH32 0x7769746864726177206973207061757365640000000000000000000000000000 PUSH1 0x0 DUP3 ADD MSTORE POP JUMP JUMPDEST PUSH1 0x0 PUSH2 0x4CC2 PUSH1 0x12 DUP4 PUSH2 0x49E7 JUMP JUMPDEST SWAP2 POP PUSH2 0x4CCD DUP3 PUSH2 0x4C8C JUMP JUMPDEST PUSH1 0x20 DUP3 ADD SWAP1 POP SWAP2 SWAP1 POP JUMP JUMPDEST PUSH1 0x0 PUSH1 0x20 DUP3 ADD SWAP1 POP DUP2 DUP2 SUB PUSH1 0x0 DUP4 ADD MSTORE PUSH2 0x4CF1 DUP2 PUSH2 0x4CB5 JUMP JUMPDEST SWAP1 POP SWAP2 SWAP1 POP JUMP JUMPDEST PUSH32 0x4E487B7100000000000000000000000000000000000000000000000000000000 PUSH1 0x0 MSTORE PUSH1 0x32 PUSH1 0x4 MSTORE PUSH1 0x24 PUSH1 0x0 REVERT JUMPDEST PUSH32 0x4E487B7100000000000000000000000000000000000000000000000000000000 PUSH1 0x0 MSTORE PUSH1 0x11 PUSH1 0x4 MSTORE PUSH1 0x24 PUSH1 0x0 REVERT JUMPDEST PUSH1 0x0 PUSH2 0x4D61 DUP3 PUSH2 0x43AE JUMP JUMPDEST SWAP2 POP PUSH2 0x4D6C DUP4 PUSH2 0x43AE JUMP JUMPDEST SWAP3 POP DUP3 DUP3 ADD SWAP1 POP DUP1 DUP3 GT ISZERO PUSH2 0x4D84 JUMPI PUSH2 0x4D83 PUSH2 0x4D27 JUMP JUMPDEST JUMPDEST SWAP3 SWAP2 POP POP JUMP JUMPDEST PUSH1 0x0 PUSH2 0x4D95 DUP3 PUSH2 0x43AE JUMP JUMPDEST SWAP2 POP PUSH32 0xFFFFFFFFFFFFFFFFFFFFFFFFFFFFFFFFFFFFFFFFFFFFFFFFFFFFFFFFFFFFFFFF DUP3 SUB PUSH2 0x4DC7 JUMPI PUSH2 0x4DC6 PUSH2 0x4D27 JUMP JUMPDEST JUMPDEST PUSH1 0x1 DUP3 ADD SWAP1 POP SWAP2 SWAP1 POP JUMP JUMPDEST PUSH1 0x0 PUSH2 0x4DDD DUP3 PUSH2 0x43AE JUMP JUMPDEST SWAP2 POP PUSH2 0x4DE8 DUP4 PUSH2 0x43AE JUMP JUMPDEST SWAP3 POP DUP3 DUP3 SUB SWAP1 POP DUP2 DUP2 GT ISZERO PUSH2 0x4E00 JUMPI PUSH2 0x4DFF PUSH2 0x4D27 JUMP JUMPDEST JUMPDEST SWAP3 SWAP2 POP POP JUMP JUMPDEST PUSH32 0x4E487B7100000000000000000000000000000000000000000000000000000000 PUSH1 0x0 MSTORE PUSH1 0x31 PUSH1 0x4 MSTORE PUSH1 0x24 PUSH1 0x0 REVERT JUMPDEST PUSH32 0x636C61696D206973207061757365640000000000000000000000000000000000 PUSH1 0x0 DUP3 ADD MSTORE POP JUMP JUMPDEST PUSH1 0x0 PUSH2 0x4E6B PUSH1 0xF DUP4 PUSH2 0x49E7 JUMP JUMPDEST SWAP2 POP PUSH2 0x4E76 DUP3 PUSH2 0x4E35 JUMP JUMPDEST PUSH1 0x20 DUP3 ADD SWAP1 POP SWAP2 SWAP1 POP JUMP JUMPDEST PUSH1 0x0 PUSH1 0x20 DUP3 ADD SWAP1 POP DUP2 DUP2 SUB PUSH1 0x0 DUP4 ADD MSTORE PUSH2 0x4E9A DUP2 PUSH2 0x4E5E JUMP JUMPDEST SWAP1 POP SWAP2 SWAP1 POP JUMP JUMPDEST PUSH1 0x0 PUSH2 0x4EAC DUP3 PUSH2 0x43AE JUMP JUMPDEST SWAP2 POP PUSH2 0x4EB7 DUP4 PUSH2 0x43AE JUMP JUMPDEST SWAP3 POP DUP3 DUP3 MUL PUSH2 0x4EC5 DUP2 PUSH2 0x43AE JUMP JUMPDEST SWAP2 POP DUP3 DUP3 DIV DUP5 EQ DUP4 ISZERO OR PUSH2 0x4EDC JUMPI PUSH2 0x4EDB PUSH2 0x4D27 JUMP JUMPDEST JUMPDEST POP SWAP3 SWAP2 POP POP JUMP JUMPDEST PUSH32 0x4E487B7100000000000000000000000000000000000000000000000000000000 PUSH1 0x0 MSTORE PUSH1 0x12 PUSH1 0x4 MSTORE PUSH1 0x24 PUSH1 0x0 REVERT JUMPDEST PUSH1 0x0 PUSH2 0x4F1D DUP3 PUSH2 0x43AE JUMP JUMPDEST SWAP2 POP PUSH2 0x4F28 DUP4 PUSH2 0x43AE JUMP JUMPDEST SWAP3 POP DUP3 PUSH2 0x4F38 JUMPI PUSH2 0x4F37 PUSH2 0x4EE3 JUMP JUMPDEST JUMPDEST DUP3 DUP3 DIV SWAP1 POP SWAP3 SWAP2 POP POP JUMP JUMPDEST PUSH32 0x737461727420626C6F636B206D757374206265206C657373207468616E20656E PUSH1 0x0 DUP3 ADD MSTORE PUSH32 0x6420626C6F636B00000000000000000000000000000000000000000000000000 PUSH1 0x20 DUP3 ADD MSTORE POP JUMP JUMPDEST PUSH1 0x0 PUSH2 0x4F9F PUSH1 0x27 DUP4 PUSH2 0x49E7 JUMP JUMPDEST SWAP2 POP PUSH2 0x4FAA DUP3 PUSH2 0x4F43 JUMP JUMPDEST PUSH1 0x40 DUP3 ADD SWAP1 POP SWAP2 SWAP1 POP JUMP JUMPDEST PUSH1 0x0 PUSH1 0x20 DUP3 ADD SWAP1 POP DUP2 DUP2 SUB PUSH1 0x0 DUP4 ADD MSTORE PUSH2 0x4FCE DUP2 PUSH2 0x4F92 JUMP JUMPDEST SWAP1 POP SWAP2 SWAP1 POP JUMP JUMPDEST PUSH32 0x7263632070657220626C6F636B206D7573742062652067726561746572207468 PUSH1 0x0 DUP3 ADD MSTORE PUSH32 0x616E203000000000000000000000000000000000000000000000000000000000 PUSH1 0x20 DUP3 ADD MSTORE POP JUMP JUMPDEST PUSH1 0x0 PUSH2 0x5031 PUSH1 0x24 DUP4 PUSH2 0x49E7 JUMP JUMPDEST SWAP2 POP PUSH2 0x503C DUP3 PUSH2 0x4FD5 JUMP JUMPDEST PUSH1 0x40 DUP3 ADD SWAP1 POP SWAP2 SWAP1 POP JUMP JUMPDEST PUSH1 0x0 PUSH1 0x20 DUP3 ADD SWAP1 POP DUP2 DUP2 SUB PUSH1 0x0 DUP4 ADD MSTORE PUSH2 0x5060 DUP2 PUSH2 0x5024 JUMP JUMPDEST SWAP1 POP SWAP2 SWAP1 POP JUMP JUMPDEST PUSH1 0x0 DUP2 SWAP1 POP SWAP2 SWAP1 POP JUMP JUMPDEST PUSH1 0x0 PUSH8 0xFFFFFFFFFFFFFFFF DUP3 AND SWAP1 POP SWAP2 SWAP1 POP JUMP JUMPDEST PUSH1 0x0 PUSH2 0x50A0 PUSH2 0x509B PUSH2 0x5096 DUP5 PUSH2 0x5067 JUMP JUMPDEST PUSH2 0x44AC JUMP JUMPDEST PUSH2 0x5071 JUMP JUMPDEST SWAP1 POP SWAP2 SWAP1 POP JUMP JUMPDEST PUSH2 0x50B0 DUP2 PUSH2 0x5085 JUMP JUMPDEST DUP3 MSTORE POP POP JUMP JUMPDEST PUSH1 0x0 PUSH1 0x20 DUP3 ADD SWAP1 POP PUSH2 0x50CB PUSH1 0x0 DUP4 ADD DUP5 PUSH2 0x50A7 JUMP JUMPDEST SWAP3 SWAP2 POP POP JUMP JUMPDEST PUSH32 0x6F766572666C6F77000000000000000000000000000000000000000000000000 PUSH1 0x0 DUP3 ADD MSTORE POP JUMP JUMPDEST PUSH1 0x0 PUSH2 0x5107 PUSH1 0x8 DUP4 PUSH2 0x49E7 JUMP JUMPDEST SWAP2 POP PUSH2 0x5112 DUP3 PUSH2 0x50D1 JUMP JUMPDEST PUSH1 0x20 DUP3 ADD SWAP1 POP SWAP2 SWAP1 POP JUMP JUMPDEST PUSH1 0x0 PUSH1 0x20 DUP3 ADD SWAP1 POP DUP2 DUP2 SUB PUSH1 0x0 DUP4 ADD MSTORE PUSH2 0x5136 DUP2 PUSH2 0x50FA JUMP JUMPDEST SWAP1 POP SWAP2 SWAP1 POP JUMP JUMPDEST PUSH32 0x77697468647261772068617320616C7265616479206265656E20756E70617573 PUSH1 0x0 DUP3 ADD MSTORE PUSH32 0x6564000000000000000000000000000000000000000000000000000000000000 PUSH1 0x20 DUP3 ADD MSTORE POP JUMP JUMPDEST PUSH1 0x0 PUSH2 0x5199 PUSH1 0x22 DUP4 PUSH2 0x49E7 JUMP JUMPDEST SWAP2 POP PUSH2 0x51A4 DUP3 PUSH2 0x513D JUMP JUMPDEST PUSH1 0x40 DUP3 ADD SWAP1 POP SWAP2 SWAP1 POP JUMP JUMPDEST PUSH1 0x0 PUSH1 0x20 DUP3 ADD SWAP1 POP DUP2 DUP2 SUB PUSH1 0x0 DUP4 ADD MSTORE PUSH2 0x51C8 DUP2 PUSH2 0x518C JUMP JUMPDEST SWAP1 POP SWAP2 SWAP1 POP JUMP JUMPDEST PUSH32 0x696E76616C69642072616E676500000000000000000000000000000000000000 PUSH1 0x0 DUP3 ADD MSTORE POP JUMP JUMPDEST PUSH1 0x0 PUSH2 0x5205 PUSH1 0xD DUP4 PUSH2 0x49E7 JUMP JUMPDEST SWAP2 POP PUSH2 0x5210 DUP3 PUSH2 0x51CF JUMP JUMPDEST PUSH1 0x20 DUP3 ADD SWAP1 POP SWAP2 SWAP1 POP JUMP JUMPDEST PUSH1 0x0 PUSH1 0x20 DUP3 ADD SWAP1 POP DUP2 DUP2 SUB PUSH1 0x0 DUP4 ADD MSTORE PUSH2 0x5234 DUP2 PUSH2 0x51F8 JUMP JUMPDEST SWAP1 POP SWAP2 SWAP1 POP JUMP JUMPDEST PUSH32 0x6D756C7469706C696572206F766572666C6F7700000000000000000000000000 PUSH1 0x0 DUP3 ADD MSTORE POP JUMP JUMPDEST PUSH1 0x0 PUSH2 0x5271 PUSH1 0x13 DUP4 PUSH2 0x49E7 JUMP JUMPDEST SWAP2 POP PUSH2 0x527C DUP3 PUSH2 0x523B JUMP JUMPDEST PUSH1 0x20 DUP3 ADD SWAP1 POP SWAP2 SWAP1 POP JUMP JUMPDEST PUSH1 0x0 PUSH1 0x20 DUP3 ADD SWAP1 POP DUP2 DUP2 SUB PUSH1 0x0 DUP4 ADD MSTORE PUSH2 0x52A0 DUP2 PUSH2 0x5264 JUMP JUMPDEST SWAP1 POP SWAP2 SWAP1 POP JUMP JUMPDEST PUSH32 0x636C61696D2068617320616C7265616479206265656E20756E70617573656400 PUSH1 0x0 DUP3 ADD MSTORE POP JUMP JUMPDEST PUSH1 0x0 PUSH2 0x52DD PUSH1 0x1F DUP4 PUSH2 0x49E7 JUMP JUMPDEST SWAP2 POP PUSH2 0x52E8 DUP3 PUSH2 0x52A7 JUMP JUMPDEST PUSH1 0x20 DUP3 ADD SWAP1 POP SWAP2 SWAP1 POP JUMP JUMPDEST PUSH1 0x0 PUSH1 0x20 DUP3 ADD SWAP1 POP DUP2 DUP2 SUB PUSH1 0x0 DUP4 ADD MSTORE PUSH2 0x530C DUP2 PUSH2 0x52D0 JUMP JUMPDEST SWAP1 POP SWAP2 SWAP1 POP JUMP JUMPDEST PUSH32 0x696E73756666696369656E74207374616B696E6720616D6F756E740000000000 PUSH1 0x0 DUP3 ADD MSTORE POP JUMP JUMPDEST PUSH1 0x0 PUSH2 0x5349 PUSH1 0x1B DUP4 PUSH2 0x49E7 JUMP JUMPDEST SWAP2 POP PUSH2 0x5354 DUP3 PUSH2 0x5313 JUMP JUMPDEST PUSH1 0x20 DUP3 ADD SWAP1 POP SWAP2 SWAP1 POP JUMP JUMPDEST PUSH1 0x0 PUSH1 0x20 DUP3 ADD SWAP1 POP DUP2 DUP2 SUB PUSH1 0x0 DUP4 ADD MSTORE PUSH2 0x5378 DUP2 PUSH2 0x533C JUMP JUMPDEST SWAP1 POP SWAP2 SWAP1 POP JUMP JUMPDEST PUSH32 0x74686520666972737420706F6F6C206D7573742062652045544820706F6F6C00 PUSH1 0x0 DUP3 ADD MSTORE POP JUMP JUMPDEST PUSH1 0x0 PUSH2 0x53B5 PUSH1 0x1F DUP4 PUSH2 0x49E7 JUMP JUMPDEST SWAP2 POP PUSH2 0x53C0 DUP3 PUSH2 0x537F JUMP JUMPDEST PUSH1 0x20 DUP3 ADD SWAP1 POP SWAP2 SWAP1 POP JUMP JUMPDEST PUSH1 0x0 PUSH1 0x20 DUP3 ADD SWAP1 POP DUP2 DUP2 SUB PUSH1 0x0 DUP4 ADD MSTORE PUSH2 0x53E4 DUP2 PUSH2 0x53A8 JUMP JUMPDEST SWAP1 POP SWAP2 SWAP1 POP JUMP JUMPDEST PUSH32 0x696E76616C6964207769746864726177206C6F636B656420626C6F636B730000 PUSH1 0x0 DUP3 ADD MSTORE POP JUMP JUMPDEST PUSH1 0x0 PUSH2 0x5421 PUSH1 0x1E DUP4 PUSH2 0x49E7 JUMP JUMPDEST SWAP2 POP PUSH2 0x542C DUP3 PUSH2 0x53EB JUMP JUMPDEST PUSH1 0x20 DUP3 ADD SWAP1 POP SWAP2 SWAP1 POP JUMP JUMPDEST PUSH1 0x0 PUSH1 0x20 DUP3 ADD SWAP1 POP DUP2 DUP2 SUB PUSH1 0x0 DUP4 ADD MSTORE PUSH2 0x5450 DUP2 PUSH2 0x5414 JUMP JUMPDEST SWAP1 POP SWAP2 SWAP1 POP JUMP JUMPDEST PUSH32 0x616C726561647920656E64656400000000000000000000000000000000000000 PUSH1 0x0 DUP3 ADD MSTORE POP JUMP JUMPDEST PUSH1 0x0 PUSH2 0x548D PUSH1 0xD DUP4 PUSH2 0x49E7 JUMP JUMPDEST SWAP2 POP PUSH2 0x5498 DUP3 PUSH2 0x5457 JUMP JUMPDEST PUSH1 0x20 DUP3 ADD SWAP1 POP SWAP2 SWAP1 POP JUMP JUMPDEST PUSH1 0x0 PUSH1 0x20 DUP3 ADD SWAP1 POP DUP2 DUP2 SUB PUSH1 0x0 DUP4 ADD MSTORE PUSH2 0x54BC DUP2 PUSH2 0x5480 JUMP JUMPDEST SWAP1 POP SWAP2 SWAP1 POP JUMP JUMPDEST PUSH32 0x77697468647261772068617320616C7265616479206265656E20706175736564 PUSH1 0x0 DUP3 ADD MSTORE POP JUMP JUMPDEST PUSH1 0x0 PUSH2 0x54F9 PUSH1 0x20 DUP4 PUSH2 0x49E7 JUMP JUMPDEST SWAP2 POP PUSH2 0x5504 DUP3 PUSH2 0x54C3 JUMP JUMPDEST PUSH1 0x20 DUP3 ADD SWAP1 POP SWAP2 SWAP1 POP JUMP JUMPDEST PUSH1 0x0 PUSH1 0x20 DUP3 ADD SWAP1 POP DUP2 DUP2 SUB PUSH1 0x0 DUP4 ADD MSTORE PUSH2 0x5528 DUP2 PUSH2 0x54EC JUMP JUMPDEST SWAP1 POP SWAP2 SWAP1 POP JUMP JUMPDEST PUSH32 0x696E76616C696420706F6F6C2069640000000000000000000000000000000000 PUSH1 0x0 DUP3 ADD MSTORE POP JUMP JUMPDEST PUSH1 0x0 PUSH2 0x5565 PUSH1 0xF DUP4 PUSH2 0x49E7 JUMP JUMPDEST SWAP2 POP PUSH2 0x5570 DUP3 PUSH2 0x552F JUMP JUMPDEST PUSH1 0x20 DUP3 ADD SWAP1 POP SWAP2 SWAP1 POP JUMP JUMPDEST PUSH1 0x0 PUSH1 0x20 DUP3 ADD SWAP1 POP DUP2 DUP2 SUB PUSH1 0x0 DUP4 ADD MSTORE PUSH2 0x5594 DUP2 PUSH2 0x5558 JUMP JUMPDEST SWAP1 POP SWAP2 SWAP1 POP JUMP JUMPDEST PUSH32 0x6465706F736974206E6F7420737570706F727420455448207374616B696E6700 PUSH1 0x0 DUP3 ADD MSTORE POP JUMP JUMPDEST PUSH1 0x0 PUSH2 0x55D1 PUSH1 0x1F DUP4 PUSH2 0x49E7 JUMP JUMPDEST SWAP2 POP PUSH2 0x55DC DUP3 PUSH2 0x559B JUMP JUMPDEST PUSH1 0x20 DUP3 ADD SWAP1 POP SWAP2 SWAP1 POP JUMP JUMPDEST PUSH1 0x0 PUSH1 0x20 DUP3 ADD SWAP1 POP DUP2 DUP2 SUB PUSH1 0x0 DUP4 ADD MSTORE PUSH2 0x5600 DUP2 PUSH2 0x55C4 JUMP JUMPDEST SWAP1 POP SWAP2 SWAP1 POP JUMP JUMPDEST PUSH32 0x696E76616C6964206465706F73697420616D6F756E7400000000000000000000 PUSH1 0x0 DUP3 ADD MSTORE POP JUMP JUMPDEST PUSH1 0x0 PUSH2 0x563D PUSH1 0x16 DUP4 PUSH2 0x49E7 JUMP JUMPDEST SWAP2 POP PUSH2 0x5648 DUP3 PUSH2 0x5607 JUMP JUMPDEST PUSH1 0x20 DUP3 ADD SWAP1 POP SWAP2 SWAP1 POP JUMP JUMPDEST PUSH1 0x0 PUSH1 0x20 DUP3 ADD SWAP1 POP DUP2 DUP2 SUB PUSH1 0x0 DUP4 ADD MSTORE PUSH2 0x566C DUP2 PUSH2 0x5630 JUMP JUMPDEST SWAP1 POP SWAP2 SWAP1 POP JUMP JUMPDEST PUSH32 0x45544820706F6F6C206D75737420626520637265617465642066697273740000 PUSH1 0x0 DUP3 ADD MSTORE POP JUMP JUMPDEST PUSH1 0x0 PUSH2 0x56A9 PUSH1 0x1E DUP4 PUSH2 0x49E7 JUMP JUMPDEST SWAP2 POP PUSH2 0x56B4 DUP3 PUSH2 0x5673 JUMP JUMPDEST PUSH1 0x20 DUP3 ADD SWAP1 POP SWAP2 SWAP1 POP JUMP JUMPDEST PUSH1 0x0 PUSH1 0x20 DUP3 ADD SWAP1 POP DUP2 DUP2 SUB PUSH1 0x0 DUP4 ADD MSTORE PUSH2 0x56D8 DUP2 PUSH2 0x569C JUMP JUMPDEST SWAP1 POP SWAP2 SWAP1 POP JUMP JUMPDEST PUSH32 0x696E76616C696420706F6F6C2077656967687400000000000000000000000000 PUSH1 0x0 DUP3 ADD MSTORE POP JUMP JUMPDEST PUSH1 0x0 PUSH2 0x5715 PUSH1 0x13 DUP4 PUSH2 0x49E7 JUMP JUMPDEST SWAP2 POP PUSH2 0x5720 DUP3 PUSH2 0x56DF JUMP JUMPDEST PUSH1 0x20 DUP3 ADD SWAP1 POP SWAP2 SWAP1 POP JUMP JUMPDEST PUSH1 0x0 PUSH1 0x20 DUP3 ADD SWAP1 POP DUP2 DUP2 SUB PUSH1 0x0 DUP4 ADD MSTORE PUSH2 0x5744 DUP2 PUSH2 0x5708 JUMP JUMPDEST SWAP1 POP SWAP2 SWAP1 POP JUMP JUMPDEST PUSH1 0x0 DUP2 SWAP1 POP SWAP3 SWAP2 POP POP JUMP JUMPDEST POP JUMP JUMPDEST PUSH1 0x0 PUSH2 0x5766 PUSH1 0x0 DUP4 PUSH2 0x574B JUMP JUMPDEST SWAP2 POP PUSH2 0x5771 DUP3 PUSH2 0x5756 JUMP JUMPDEST PUSH1 0x0 DUP3 ADD SWAP1 POP SWAP2 SWAP1 POP JUMP JUMPDEST PUSH1 0x0 PUSH2 0x5787 DUP3 PUSH2 0x5759 JUMP JUMPDEST SWAP2 POP DUP2 SWAP1 POP SWAP2 SWAP1 POP JUMP JUMPDEST PUSH32 0x455448207472616E736665722063616C6C206661696C65640000000000000000 PUSH1 0x0 DUP3 ADD MSTORE POP JUMP JUMPDEST PUSH1 0x0 PUSH2 0x57C7 PUSH1 0x18 DUP4 PUSH2 0x49E7 JUMP JUMPDEST SWAP2 POP PUSH2 0x57D2 DUP3 PUSH2 0x5791 JUMP JUMPDEST PUSH1 0x20 DUP3 ADD SWAP1 POP SWAP2 SWAP1 POP JUMP JUMPDEST PUSH1 0x0 PUSH1 0x20 DUP3 ADD SWAP1 POP DUP2 DUP2 SUB PUSH1 0x0 DUP4 ADD MSTORE PUSH2 0x57F6 DUP2 PUSH2 0x57BA JUMP JUMPDEST SWAP1 POP SWAP2 SWAP1 POP JUMP JUMPDEST PUSH1 0x0 DUP2 MLOAD SWAP1 POP PUSH2 0x580C DUP2 PUSH2 0x4A7D JUMP JUMPDEST SWAP3 SWAP2 POP POP JUMP JUMPDEST PUSH1 0x0 PUSH1 0x20 DUP3 DUP5 SUB SLT ISZERO PUSH2 0x5828 JUMPI PUSH2 0x5827 PUSH2 0x42E9 JUMP JUMPDEST JUMPDEST PUSH1 0x0 PUSH2 0x5836 DUP5 DUP3 DUP6 ADD PUSH2 0x57FD JUMP JUMPDEST SWAP2 POP POP SWAP3 SWAP2 POP POP JUMP JUMPDEST PUSH32 0x455448207472616E73666572206F7065726174696F6E20646964206E6F742073 PUSH1 0x0 DUP3 ADD MSTORE PUSH32 0x7563636565640000000000000000000000000000000000000000000000000000 PUSH1 0x20 DUP3 ADD MSTORE POP JUMP JUMPDEST PUSH1 0x0 PUSH2 0x589B PUSH1 0x26 DUP4 PUSH2 0x49E7 JUMP JUMPDEST SWAP2 POP PUSH2 0x58A6 DUP3 PUSH2 0x583F JUMP JUMPDEST PUSH1 0x40 DUP3 ADD SWAP1 POP SWAP2 SWAP1 POP JUMP JUMPDEST PUSH1 0x0 PUSH1 0x20 DUP3 ADD SWAP1 POP DUP2 DUP2 SUB PUSH1 0x0 DUP4 ADD MSTORE PUSH2 0x58CA DUP2 PUSH2 0x588E JUMP JUMPDEST SWAP1 POP SWAP2 SWAP1 POP JUMP JUMPDEST PUSH1 0x0 PUSH1 0x40 DUP3 ADD SWAP1 POP PUSH2 0x58E6 PUSH1 0x0 DUP4 ADD DUP6 PUSH2 0x495E JUMP JUMPDEST PUSH2 0x58F3 PUSH1 0x20 DUP4 ADD DUP5 PUSH2 0x43B8 JUMP JUMPDEST SWAP4 SWAP3 POP POP POP JUMP JUMPDEST PUSH1 0x0 PUSH1 0x20 DUP3 ADD SWAP1 POP PUSH2 0x590F PUSH1 0x0 DUP4 ADD DUP5 PUSH2 0x495E JUMP JUMPDEST SWAP3 SWAP2 POP POP JUMP JUMPDEST PUSH1 0x0 DUP2 MLOAD SWAP1 POP PUSH2 0x5924 DUP2 PUSH2 0x43E2 JUMP JUMPDEST SWAP3 SWAP2 POP POP JUMP JUMPDEST PUSH1 0x0 PUSH1 0x20 DUP3 DUP5 SUB SLT ISZERO PUSH2 0x5940 JUMPI PUSH2 0x593F PUSH2 0x42E9 JUMP JUMPDEST JUMPDEST PUSH1 0x0 PUSH2 0x594E DUP5 DUP3 DUP6 ADD PUSH2 0x5915 JUMP JUMPDEST SWAP2 POP POP SWAP3 SWAP2 POP POP JUMP JUMPDEST PUSH1 0x0 DUP2 MLOAD SWAP1 POP PUSH2 0x5966 DUP2 PUSH2 0x4530 JUMP JUMPDEST SWAP3 SWAP2 POP POP JUMP JUMPDEST PUSH1 0x0 PUSH1 0x20 DUP3 DUP5 SUB SLT ISZERO PUSH2 0x5982 JUMPI PUSH2 0x5981 PUSH2 0x42E9 JUMP JUMPDEST JUMPDEST PUSH1 0x0 PUSH2 0x5990 DUP5 DUP3 DUP6 ADD PUSH2 0x5957 JUMP JUMPDEST SWAP2 POP POP SWAP3 SWAP2 POP POP JUMP JUMPDEST PUSH1 0x0 PUSH1 0x60 DUP3 ADD SWAP1 POP PUSH2 0x59AE PUSH1 0x0 DUP4 ADD DUP7 PUSH2 0x495E JUMP JUMPDEST PUSH2 0x59BB PUSH1 0x20 DUP4 ADD DUP6 PUSH2 0x495E JUMP JUMPDEST PUSH2 0x59C8 PUSH1 0x40 DUP4 ADD DUP5 PUSH2 0x43B8 JUMP JUMPDEST SWAP5 SWAP4 POP POP POP POP JUMP JUMPDEST PUSH1 0x0 PUSH1 0x40 DUP3 ADD SWAP1 POP PUSH2 0x59E5 PUSH1 0x0 DUP4 ADD DUP6 PUSH2 0x495E JUMP JUMPDEST PUSH2 0x59F2 PUSH1 0x20 DUP4 ADD DUP5 PUSH2 0x4589 JUMP JUMPDEST SWAP4 SWAP3 POP POP POP JUMP JUMPDEST PUSH1 0x0 DUP2 MLOAD SWAP1 POP SWAP2 SWAP1 POP JUMP JUMPDEST PUSH1 0x0 PUSH2 0x5A0F DUP3 PUSH2 0x59F9 JUMP JUMPDEST PUSH2 0x5A19 DUP2 DUP6 PUSH2 0x574B JUMP JUMPDEST SWAP4 POP PUSH2 0x5A29 DUP2 DUP6 PUSH1 0x20 DUP7 ADD PUSH2 0x49F8 JUMP JUMPDEST DUP1 DUP5 ADD SWAP2 POP POP SWAP3 SWAP2 POP POP JUMP JUMPDEST PUSH1 0x0 PUSH2 0x5A41 DUP3 DUP5 PUSH2 0x5A04 JUMP JUMPDEST SWAP2 POP DUP2 SWAP1 POP SWAP3 SWAP2 POP POP JUMP INVALID LOG2 PUSH5 0x6970667358 0x22 SLT KECCAK256 CODESIZE 0x29 SELFBALANCE 0xF DUP14 PREVRANDAO MOD TLOAD 0xE8 0xD5 LOG3 LOG2 CALLER 0xB0 SLOAD DUP15 SELFDESTRUCT MULMOD LOG4 0xDD DUP1 CALLCODE NUMBER 0xE0 PUSH23 0x2B72C8485372D264736F6C634300081C00330000000000 "},"methodIdentifiers":{"ADMIN_ROLE()":"75b238fc","DEFAULT_ADMIN_ROLE()":"a217fddf","ETH_PID()":"bfc3ebba","RCC()":"a72d5bf4","UPGRADE_INTERFACE_VERSION()":"ad3cb1cc","UPGRADE_ROLE()":"b908afa8","addPool(address,uint256,uint256,uint256,bool)":"b6d9d919","claim(uint256)":"379607f5","claimPaused()":"ab5e124a","deposit(uint256,uint256)":"e2bbb158","depositETH()":"f6326fb3","endBlock()":"083c6323","getMultiplier(uint256,uint256)":"8dbb1e3a","getPendingRCC(uint256,address)":"a27d9279","getPoolLength()":"b3944d52","getRoleAdmin(bytes32)":"248a9ca3","grantRole(bytes32,address)":"2f2ff15d","hasRole(bytes32,address)":"91d14854","initialize(address,uint256,uint256,uint256)":"4ec81af1","massUpdatePools()":"630b5ba1","pauseClaim()":"8ff095f9","pauseWithdraw()":"6155e3de","paused()":"5c975abb","pendingRCCByBlockNumber(uint256,address,uint256)":"41721ab7","pool(uint256)":"fe313112","pools(uint256)":"ac4afa38","proxiableUUID()":"52d1902d","rccPerBlock()":"70ff0173","renounceRole(bytes32,address)":"36568abe","revokeRole(bytes32,address)":"d547741f","setEndBlock(uint256)":"c713aa94","setPoolWeight(uint256,uint256,bool)":"fad07ece","setRCC(address)":"f5485d32","setRCCPerBlock(uint256)":"bed66c08","setStartBlock(uint256)":"f35e4a6e","stToken()":"23b6443e","stakingBalance(uint256,address)":"11548234","startBlock()":"48cd4cb1","supportsInterface(bytes4)":"01ffc9a7","totalPoolWeight()":"02559004","unpPauseWithdraw()":"c397920e","unpauseClaim()":"de065caa","unstake(uint256,uint256)":"9e2c8a5b","unstakeReleaseBlocks()":"a17bff83","updatePool(uint256)":"51eb05a6","updatePool(uint256,uint256,uint256)":"d86c0444","upgradeToAndCall(address,bytes)":"4f1ef286","user(uint256,address)":"37849b3c","users(address)":"a87430ba","withdraw(uint256)":"2e1a7d4d","withdrawAmount(uint256,address)":"ff423357","withdrawPaused()":"2f3ffb9f"}}}}}