{"contracts/RCCStake.sol":{"RCCStake":{"abi":[{"inputs":[],"name":"AccessControlBadConfirmation","type":"error"},{"inputs":[{"internalType":"address","name":"account","type":"address"},{"internalType":"bytes32","name":"neededRole","type":"bytes32"}],"name":"AccessControlUnauthorizedAccount","type":"error"},{"inputs":[{"internalType":"address","name":"target","type":"address"}],"name":"AddressEmptyCode","type":"error"},{"inputs":[{"internalType":"address","name":"implementation","type":"address"}],"name":"ERC1967InvalidImplementation","type":"error"},{"inputs":[],"name":"ERC1967NonPayable","type":"error"},{"inputs":[],"name":"EnforcedPause","type":"error"},{"inputs":[],"name":"ExpectedPause","type":"error"},{"inputs":[],"name":"FailedCall","type":"error"},{"inputs":[],"name":"InvalidInitialization","type":"error"},{"inputs":[],"name":"NotInitializing","type":"error"},{"inputs":[{"internalType":"address","name":"token","type":"address"}],"name":"SafeERC20FailedOperation","type":"error"},{"inputs":[],"name":"UUPSUnauthorizedCallContext","type":"error"},{"inputs":[{"internalType":"bytes32","name":"slot","type":"bytes32"}],"name":"UUPSUnsupportedProxiableUUID","type":"error"},{"anonymous":false,"inputs":[{"indexed":true,"internalType":"address","name":"stakeTokenAddress","type":"address"},{"indexed":true,"internalType":"uint256","name":"poolWeight","type":"uint256"},{"indexed":true,"internalType":"uint256","name":"lastRewardBlock","type":"uint256"},{"indexed":false,"internalType":"uint256","name":"minDepositAmount","type":"uint256"},{"indexed":false,"internalType":"uint256","name":"unStakeLockedBlocks","type":"uint256"}],"name":"AddPool","type":"event"},{"anonymous":false,"inputs":[{"indexed":true,"internalType":"address","name":"user","type":"address"},{"indexed":true,"internalType":"uint256","name":"poolId","type":"uint256"},{"indexed":false,"internalType":"uint256","name":"RccReward","type":"uint256"}],"name":"Claim","type":"event"},{"anonymous":false,"inputs":[{"indexed":true,"internalType":"address","name":"user","type":"address"},{"indexed":true,"internalType":"uint256","name":"poolId","type":"uint256"},{"indexed":false,"internalType":"uint256","name":"amount","type":"uint256"}],"name":"Deposit","type":"event"},{"anonymous":false,"inputs":[{"indexed":true,"internalType":"address","name":"user","type":"address"},{"indexed":true,"internalType":"address","name":"pid","type":"address"},{"indexed":false,"internalType":"uint256","name":"amount","type":"uint256"}],"name":"GetRewards","type":"event"},{"anonymous":false,"inputs":[{"indexed":false,"internalType":"uint64","name":"version","type":"uint64"}],"name":"Initialized","type":"event"},{"anonymous":false,"inputs":[{"indexed":false,"internalType":"address","name":"account","type":"address"}],"name":"Paused","type":"event"},{"anonymous":false,"inputs":[],"name":"PausedClaim","type":"event"},{"anonymous":false,"inputs":[],"name":"PausedWithdraw","type":"event"},{"anonymous":false,"inputs":[{"indexed":true,"internalType":"address","name":"user","type":"address"},{"indexed":true,"internalType":"uint256","name":"poolId","type":"uint256"},{"indexed":false,"internalType":"uint256","name":"amount","type":"uint256"}],"name":"RequestUnstake","type":"event"},{"anonymous":false,"inputs":[{"indexed":true,"internalType":"bytes32","name":"role","type":"bytes32"},{"indexed":true,"internalType":"bytes32","name":"previousAdminRole","type":"bytes32"},{"indexed":true,"internalType":"bytes32","name":"newAdminRole","type":"bytes32"}],"name":"RoleAdminChanged","type":"event"},{"anonymous":false,"inputs":[{"indexed":true,"internalType":"bytes32","name":"role","type":"bytes32"},{"indexed":true,"internalType":"address","name":"account","type":"address"},{"indexed":true,"internalType":"address","name":"sender","type":"address"}],"name":"RoleGranted","type":"event"},{"anonymous":false,"inputs":[{"indexed":true,"internalType":"bytes32","name":"role","type":"bytes32"},{"indexed":true,"internalType":"address","name":"account","type":"address"},{"indexed":true,"internalType":"address","name":"sender","type":"address"}],"name":"RoleRevoked","type":"event"},{"anonymous":false,"inputs":[{"indexed":true,"internalType":"uint256","name":"endBlock","type":"uint256"}],"name":"SetEndBlock","type":"event"},{"anonymous":false,"inputs":[{"indexed":true,"internalType":"uint256","name":"poolId","type":"uint256"},{"indexed":false,"internalType":"uint256","name":"poolWeight","type":"uint256"},{"indexed":false,"internalType":"uint256","name":"totalPoolWeight","type":"uint256"}],"name":"SetPoolWeight","type":"event"},{"anonymous":false,"inputs":[{"indexed":true,"internalType":"contract IERC20","name":"RCC","type":"address"}],"name":"SetRCC","type":"event"},{"anonymous":false,"inputs":[{"indexed":true,"internalType":"uint256","name":"rccPerBlock","type":"uint256"}],"name":"SetRCCPerBlock","type":"event"},{"anonymous":false,"inputs":[{"indexed":true,"internalType":"uint256","name":"startBlock","type":"uint256"}],"name":"SetStartBlock","type":"event"},{"anonymous":false,"inputs":[{"indexed":true,"internalType":"address","name":"user","type":"address"},{"indexed":true,"internalType":"address","name":"pid","type":"address"},{"indexed":false,"internalType":"uint256","name":"amount","type":"uint256"}],"name":"Stake","type":"event"},{"anonymous":false,"inputs":[{"indexed":true,"internalType":"address","name":"user","type":"address"},{"indexed":true,"internalType":"address","name":"pid","type":"address"},{"indexed":false,"internalType":"uint256","name":"amount","type":"uint256"}],"name":"UnStake","type":"event"},{"anonymous":false,"inputs":[{"indexed":false,"internalType":"address","name":"account","type":"address"}],"name":"Unpaused","type":"event"},{"anonymous":false,"inputs":[],"name":"UnpausedClaim","type":"event"},{"anonymous":false,"inputs":[],"name":"UnpausedWithdraw","type":"event"},{"anonymous":false,"inputs":[{"indexed":true,"internalType":"uint256","name":"poolId","type":"uint256"},{"indexed":true,"internalType":"uint256","name":"lastRewardBlock","type":"uint256"},{"indexed":false,"internalType":"uint256","name":"totalRCC","type":"uint256"}],"name":"UpdatePool","type":"event"},{"anonymous":false,"inputs":[{"indexed":true,"internalType":"uint256","name":"poolId","type":"uint256"},{"indexed":true,"internalType":"uint256","name":"minDepositAmount","type":"uint256"},{"indexed":true,"internalType":"uint256","name":"unStakeLockedBlocks","type":"uint256"}],"name":"UpdatePoolInfo","type":"event"},{"anonymous":false,"inputs":[{"indexed":true,"internalType":"address","name":"implementation","type":"address"}],"name":"Upgraded","type":"event"},{"anonymous":false,"inputs":[{"indexed":true,"internalType":"address","name":"user","type":"address"},{"indexed":true,"internalType":"uint256","name":"poolId","type":"uint256"},{"indexed":false,"internalType":"uint256","name":"amount","type":"uint256"},{"indexed":true,"internalType":"uint256","name":"blockNumber","type":"uint256"}],"name":"Withdraw","type":"event"},{"stateMutability":"payable","type":"fallback"},{"inputs":[],"name":"ADMIN_ROLE","outputs":[{"internalType":"bytes32","name":"","type":"bytes32"}],"stateMutability":"view","type":"function"},{"inputs":[],"name":"DEFAULT_ADMIN_ROLE","outputs":[{"internalType":"bytes32","name":"","type":"bytes32"}],"stateMutability":"view","type":"function"},{"inputs":[],"name":"ETH_PID","outputs":[{"internalType":"uint256","name":"","type":"uint256"}],"stateMutability":"view","type":"function"},{"inputs":[],"name":"RCC","outputs":[{"internalType":"contract IERC20","name":"","type":"address"}],"stateMutability":"view","type":"function"},{"inputs":[],"name":"UPGRADE_INTERFACE_VERSION","outputs":[{"internalType":"string","name":"","type":"string"}],"stateMutability":"view","type":"function"},{"inputs":[],"name":"UPGRADE_ROLE","outputs":[{"internalType":"bytes32","name":"","type":"bytes32"}],"stateMutability":"view","type":"function"},{"inputs":[{"internalType":"address","name":"_stakeTokenAddress","type":"address"},{"internalType":"uint256","name":"_poolWeight","type":"uint256"},{"internalType":"uint256","name":"_minDepositAmount","type":"uint256"},{"internalType":"uint256","name":"_unStakeLockedBlocks","type":"uint256"},{"internalType":"bool","name":"_withUpdate","type":"bool"}],"name":"addPool","outputs":[],"stateMutability":"nonpayable","type":"function"},{"inputs":[{"internalType":"uint256","name":"_pid","type":"uint256"}],"name":"claim","outputs":[],"stateMutability":"nonpayable","type":"function"},{"inputs":[],"name":"claimPaused","outputs":[{"internalType":"bool","name":"","type":"bool"}],"stateMutability":"view","type":"function"},{"inputs":[{"internalType":"uint256","name":"_pid","type":"uint256"},{"internalType":"uint256","name":"_amount","type":"uint256"}],"name":"deposit","outputs":[],"stateMutability":"nonpayable","type":"function"},{"inputs":[],"name":"depositETH","outputs":[],"stateMutability":"payable","type":"function"},{"inputs":[],"name":"endBlock","outputs":[{"internalType":"uint256","name":"","type":"uint256"}],"stateMutability":"view","type":"function"},{"inputs":[{"internalType":"uint256","name":"_from","type":"uint256"},{"internalType":"uint256","name":"_to","type":"uint256"}],"name":"getMultiplier","outputs":[{"internalType":"uint256","name":"multiplier","type":"uint256"}],"stateMutability":"view","type":"function"},{"inputs":[{"internalType":"uint256","name":"_poolId","type":"uint256"},{"internalType":"address","name":"_user","type":"address"}],"name":"getPendingRCC","outputs":[{"internalType":"uint256","name":"","type":"uint256"}],"stateMutability":"view","type":"function"},{"inputs":[],"name":"getPoolLength","outputs":[{"internalType":"uint256","name":"","type":"uint256"}],"stateMutability":"view","type":"function"},{"inputs":[{"internalType":"bytes32","name":"role","type":"bytes32"}],"name":"getRoleAdmin","outputs":[{"internalType":"bytes32","name":"","type":"bytes32"}],"stateMutability":"view","type":"function"},{"inputs":[{"internalType":"bytes32","name":"role","type":"bytes32"},{"internalType":"address","name":"account","type":"address"}],"name":"grantRole","outputs":[],"stateMutability":"nonpayable","type":"function"},{"inputs":[{"internalType":"bytes32","name":"role","type":"bytes32"},{"internalType":"address","name":"account","type":"address"}],"name":"hasRole","outputs":[{"internalType":"bool","name":"","type":"bool"}],"stateMutability":"view","type":"function"},{"inputs":[{"internalType":"contract IERC20","name":"_RCC","type":"address"},{"internalType":"uint256","name":"_startBlock","type":"uint256"},{"internalType":"uint256","name":"_endBlock","type":"uint256"},{"internalType":"uint256","name":"_rccPerBlock","type":"uint256"}],"name":"initialize","outputs":[],"stateMutability":"nonpayable","type":"function"},{"inputs":[],"name":"massUpdatePools","outputs":[],"stateMutability":"nonpayable","type":"function"},{"inputs":[],"name":"pauseWithdraw","outputs":[],"stateMutability":"nonpayable","type":"function"},{"inputs":[],"name":"paused","outputs":[{"internalType":"bool","name":"","type":"bool"}],"stateMutability":"view","type":"function"},{"inputs":[{"internalType":"uint256","name":"_poolId","type":"uint256"},{"internalType":"address","name":"_user","type":"address"},{"internalType":"uint256","name":"_blockNumber","type":"uint256"}],"name":"pendingRCCByBlockNumber","outputs":[{"internalType":"uint256","name":"","type":"uint256"}],"stateMutability":"view","type":"function"},{"inputs":[{"internalType":"uint256","name":"","type":"uint256"}],"name":"pool","outputs":[{"internalType":"address","name":"stakeTokenAddress","type":"address"},{"internalType":"uint256","name":"poolWeight","type":"uint256"},{"internalType":"uint256","name":"lastRewardBlock","type":"uint256"},{"internalType":"uint256","name":"accumulateRewardsPerStake","type":"uint256"},{"internalType":"uint256","name":"stakeTokenAmount","type":"uint256"},{"internalType":"uint256","name":"minDepositAmount","type":"uint256"},{"internalType":"uint256","name":"unStakeLockedBlocks","type":"uint256"}],"stateMutability":"view","type":"function"},{"inputs":[],"name":"proxiableUUID","outputs":[{"internalType":"bytes32","name":"","type":"bytes32"}],"stateMutability":"view","type":"function"},{"inputs":[],"name":"rccPerBlock","outputs":[{"internalType":"uint256","name":"","type":"uint256"}],"stateMutability":"view","type":"function"},{"inputs":[{"internalType":"bytes32","name":"role","type":"bytes32"},{"internalType":"address","name":"callerConfirmation","type":"address"}],"name":"renounceRole","outputs":[],"stateMutability":"nonpayable","type":"function"},{"inputs":[{"internalType":"bytes32","name":"role","type":"bytes32"},{"internalType":"address","name":"account","type":"address"}],"name":"revokeRole","outputs":[],"stateMutability":"nonpayable","type":"function"},{"inputs":[{"internalType":"uint256","name":"_endBlock","type":"uint256"}],"name":"setEndBlock","outputs":[],"stateMutability":"nonpayable","type":"function"},{"inputs":[{"internalType":"uint256","name":"_poolId","type":"uint256"},{"internalType":"uint256","name":"_poolWeight","type":"uint256"},{"internalType":"bool","name":"_withUpdate","type":"bool"}],"name":"setPoolWeight","outputs":[],"stateMutability":"nonpayable","type":"function"},{"inputs":[{"internalType":"contract IERC20","name":"_RCC","type":"address"}],"name":"setRCC","outputs":[],"stateMutability":"nonpayable","type":"function"},{"inputs":[{"internalType":"uint256","name":"_rccPerBlock","type":"uint256"}],"name":"setRCCPerBlock","outputs":[],"stateMutability":"nonpayable","type":"function"},{"inputs":[{"internalType":"uint256","name":"_startBlock","type":"uint256"}],"name":"setStartBlock","outputs":[],"stateMutability":"nonpayable","type":"function"},{"inputs":[{"internalType":"uint256","name":"_pid","type":"uint256"},{"internalType":"address","name":"_user","type":"address"}],"name":"stakingBalance","outputs":[{"internalType":"uint256","name":"","type":"uint256"}],"stateMutability":"view","type":"function"},{"inputs":[],"name":"startBlock","outputs":[{"internalType":"uint256","name":"","type":"uint256"}],"stateMutability":"view","type":"function"},{"inputs":[{"internalType":"bytes4","name":"interfaceId","type":"bytes4"}],"name":"supportsInterface","outputs":[{"internalType":"bool","name":"","type":"bool"}],"stateMutability":"view","type":"function"},{"inputs":[],"name":"toggleClaimPause","outputs":[],"stateMutability":"nonpayable","type":"function"},{"inputs":[],"name":"toggleWithdrawPause","outputs":[],"stateMutability":"nonpayable","type":"function"},{"inputs":[],"name":"totalPoolWeight","outputs":[{"internalType":"uint256","name":"","type":"uint256"}],"stateMutability":"view","type":"function"},{"inputs":[{"internalType":"uint256","name":"_pid","type":"uint256"},{"internalType":"uint256","name":"_amount","type":"uint256"}],"name":"unstake","outputs":[],"stateMutability":"nonpayable","type":"function"},{"inputs":[{"internalType":"uint256","name":"_pid","type":"uint256"}],"name":"updatePool","outputs":[],"stateMutability":"nonpayable","type":"function"},{"inputs":[{"internalType":"uint256","name":"_poolId","type":"uint256"},{"internalType":"uint256","name":"_minDepositAmount","type":"uint256"},{"internalType":"uint256","name":"_unStakeLockedBlocks","type":"uint256"}],"name":"updatePool","outputs":[],"stateMutability":"nonpayable","type":"function"},{"inputs":[{"internalType":"address","name":"newImplementation","type":"address"},{"internalType":"bytes","name":"data","type":"bytes"}],"name":"upgradeToAndCall","outputs":[],"stateMutability":"payable","type":"function"},{"inputs":[{"internalType":"uint256","name":"","type":"uint256"},{"internalType":"address","name":"","type":"address"}],"name":"user","outputs":[{"internalType":"uint256","name":"stakeAmount","type":"uint256"},{"internalType":"uint256","name":"finishedRewards","type":"uint256"},{"internalType":"uint256","name":"pendingRewards","type":"uint256"}],"stateMutability":"view","type":"function"},{"inputs":[{"internalType":"uint256","name":"_pid","type":"uint256"}],"name":"withdraw","outputs":[],"stateMutability":"nonpayable","type":"function"},{"inputs":[{"internalType":"uint256","name":"_poolId","type":"uint256"},{"internalType":"address","name":"_user","type":"address"}],"name":"withdrawAmount","outputs":[{"internalType":"uint256","name":"requestAmount","type":"uint256"},{"internalType":"uint256","name":"pendingWithdrawAmount","type":"uint256"}],"stateMutability":"view","type":"function"},{"inputs":[],"name":"withdrawPaused","outputs":[{"internalType":"bool","name":"","type":"bool"}],"stateMutability":"view","type":"function"},{"stateMutability":"payable","type":"receive"}],"evm":{"bytecode":{"linkReferences":{},"object":"60a06040523060805234801561001457600080fd5b5060805161382a61003e600039600081816129730152818161299c0152612b98015261382a6000f3fe6080604052600436106102745760003560e01c80638dbb1e3a1161014e578063bed66c08116100bb578063f35e4a6e11610077578063f35e4a6e146107c2578063f5485d32146107e2578063f6326fb314610802578063fad07ece1461080a578063fe3131121461082a578063ff4233571461088957005b8063bed66c0814610722578063bfc3ebba146105d4578063c713aa9414610742578063d547741f14610762578063d86c044414610782578063e2bbb158146107a257005b8063ab5e124a1161010a578063ab5e124a14610647578063ad3cb1cc14610666578063ae35a8d5146106a4578063b3944d52146106b9578063b6d9d919146106ce578063b908afa8146106ee57005b80638dbb1e3a1461057457806391d14854146105945780639e2c8a5b146105b4578063a217fddf146105d4578063a27d9279146105e9578063a72d5bf41461060957005b806341721ab7116101ec5780635c975abb116101a85780635c975abb146104c65780636155e3de146104fd578063630b5ba11461051257806370ff01731461052757806375b238fc1461053d57806380cce73f1461055f57005b806341721ab71461042857806348cd4cb1146104485780634ec81af11461045e5780634f1ef2861461047e57806351eb05a61461049157806352d1902d146104b157005b80632e1a7d4d1161023b5780632e1a7d4d1461032c5780632f2ff15d1461034c5780632f3ffb9f1461036c57806336568abe1461038657806337849b3c146103a6578063379607f51461040857005b806301ffc9a71461027d57806302559004146102b2578063083c6323146102d657806311548234146102ec578063248a9ca31461030c57005b3661027b57005b005b34801561028957600080fd5b5061029d6102983660046132cb565b6108be565b60405190151581526020015b60405180910390f35b3480156102be57600080fd5b506102c860045481565b6040519081526020016102a9565b3480156102e257600080fd5b506102c860015481565b3480156102f857600080fd5b506102c861030736600461330a565b6108f5565b34801561031857600080fd5b506102c861032736600461333a565b610951565b34801561033857600080fd5b5061027b61034736600461333a565b610973565b34801561035857600080fd5b5061027b61036736600461330a565b610bd4565b34801561037857600080fd5b5060035461029d9060ff1681565b34801561039257600080fd5b5061027b6103a136600461330a565b610bf6565b3480156103b257600080fd5b506103ed6103c136600461330a565b600660209081526000928352604080842090915290825290208054600182015460029092015490919083565b604080519384526020840192909252908201526060016102a9565b34801561041457600080fd5b5061027b61042336600461333a565b610c2e565b34801561043457600080fd5b506102c8610443366004613353565b610d9d565b34801561045457600080fd5b506102c860005481565b34801561046a57600080fd5b5061027b61047936600461338b565b610eb5565b61027b61048c3660046133dc565b6110fb565b34801561049d57600080fd5b5061027b6104ac36600461333a565b61111a565b3480156104bd57600080fd5b506102c86112ed565b3480156104d257600080fd5b507fcd5ed15c6e187e77e9aee88184c21f4f2182ab5827cb3b7e07fbedcd63f033005460ff1661029d565b34801561050957600080fd5b5061027b61130a565b34801561051e57600080fd5b5061027b6113b8565b34801561053357600080fd5b506102c860025481565b34801561054957600080fd5b506102c860008051602061379583398151915281565b34801561056b57600080fd5b5061027b6113d7565b34801561058057600080fd5b506102c861058f3660046134a0565b611463565b3480156105a057600080fd5b5061029d6105af36600461330a565b611569565b3480156105c057600080fd5b5061027b6105cf3660046134a0565b6115a1565b3480156105e057600080fd5b506102c8600081565b3480156105f557600080fd5b506102c861060436600461330a565b611859565b34801561061557600080fd5b5060035461062f906201000090046001600160a01b031681565b6040516001600160a01b0390911681526020016102a9565b34801561065357600080fd5b5060035461029d90610100900460ff1681565b34801561067257600080fd5b50610697604051806040016040528060058152602001640352e302e360dc1b81525081565b6040516102a991906134e6565b3480156106b057600080fd5b5061027b611892565b3480156106c557600080fd5b506005546102c8565b3480156106da57600080fd5b5061027b6106e9366004613527565b61192a565b3480156106fa57600080fd5b506102c87ff47fc0c09ebbfe308d89b8035681a1164b9882bcfd49eb89861067738a30f5ab81565b34801561072e57600080fd5b5061027b61073d36600461333a565b611cb2565b34801561074e57600080fd5b5061027b61075d36600461333a565b611d46565b34801561076e57600080fd5b5061027b61077d36600461330a565b611dd8565b34801561078e57600080fd5b5061027b61079d36600461357d565b611df4565b3480156107ae57600080fd5b5061027b6107bd3660046134a0565b611efa565b3480156107ce57600080fd5b5061027b6107dd36600461333a565b612028565b3480156107ee57600080fd5b5061027b6107fd3660046135a9565b6120b9565b61027b61212b565b34801561081657600080fd5b5061027b6108253660046135c6565b61220e565b34801561083657600080fd5b5061084a61084536600461333a565b6123d2565b604080516001600160a01b0390981688526020880196909652948601939093526060850191909152608084015260a083015260c082015260e0016102a9565b34801561089557600080fd5b506108a96108a436600461330a565b61242b565b604080519283526020830191909152016102a9565b60006001600160e01b03198216637965db0b60e01b14806108ef57506301ffc9a760e01b6001600160e01b03198316145b92915050565b600554600090839081106109245760405162461bcd60e51b815260040161091b906135ff565b60405180910390fd5b60008481526006602090815260408083206001600160a01b038716845290915290205491505b5092915050565b60009081526000805160206137d5833981519152602052604090206001015490565b61097b61252b565b60035460ff161561099e5760405162461bcd60e51b815260040161091b90613624565b600554819081106109c15760405162461bcd60e51b815260040161091b906135ff565b6000600583815481106109d6576109d6613650565b6000918252602080832086845260068252604080852033865290925290832060079092020192509080805b6003840154811015610a835743846003018281548110610a2357610a23613650565b90600052602060002090600202016001015411610a8357836003018181548110610a4f57610a4f613650565b90600052602060002090600202016000015483610a6c919061367c565b925081610a788161368f565b925050600101610a01565b5060005b6003840154610a979083906136a8565b811015610b045760038401610aac838361367c565b81548110610abc57610abc613650565b9060005260206000209060020201846003018281548110610adf57610adf613650565b6000918252602090912082546002909202019081556001918201549082015501610a87565b5060005b81811015610b4c5783600301805480610b2357610b236136bb565b600082815260208120600260001990930192830201818155600190810191909155915501610b08565b508115610b875783546001600160a01b0316610b7157610b6c3383612570565b610b87565b8354610b87906001600160a01b0316338461268b565b4386336001600160a01b03167f02f25270a4d87bea75db541cdfe559334a275b4a233520ed6c0a2429667cca9485604051610bc491815260200190565b60405180910390a4505050505050565b610bdd82610951565b610be6816126ea565b610bf083836126f4565b50505050565b6001600160a01b0381163314610c1f5760405163334bd91960e11b815260040160405180910390fd5b610c298282612799565b505050565b610c3661252b565b60055481908110610c595760405162461bcd60e51b815260040161091b906135ff565b600354610100900460ff1615610ca35760405162461bcd60e51b815260206004820152600f60248201526e18db185a5b481a5cc81c185d5cd959608a1b604482015260640161091b565b600060058381548110610cb857610cb8613650565b60009182526020808320868452600682526040808520338652909252922060079091029091019150610ce98461111a565b60008160020154826001015484600301548460000154610d0991906136d1565b610d1391906136a8565b610d1d919061367c565b90508015610d365760006002830155610d363382612815565b60038301548254670de0b6b3a764000091610d50916136d1565b610d5a91906136fe565b6001830155604051818152859033907f34fcbac0073d7c3d388e51312faf357774904998eeb8fca628b9e6f65ee1cbf79060200160405180910390a35050505050565b60008060058581548110610db357610db3613650565b600091825260208083208884526006825260408085206001600160a01b038a1686529092529220600360079092029092019081015460048201546002830154929450909186108015610e0457508015155b15610e68576000610e19856002015488611463565b90506000600454866001015483610e3091906136d1565b610e3a91906136fe565b905082610e4f82670de0b6b3a76400006136d1565b610e5991906136fe565b610e63908561367c565b935050505b600283015460018401548454670de0b6b3a764000090610e899086906136d1565b610e9391906136fe565b610e9d91906136a8565b610ea7919061367c565b9450505050505b9392505050565b7ff0c57e16840df040f15088dc2f81fe391c3923bec73e23a9662efc9c229c6a008054600160401b810460ff16159067ffffffffffffffff16600081158015610efb5750825b905060008267ffffffffffffffff166001148015610f185750303b155b905081158015610f26575080155b15610f445760405163f92ee8a960e01b815260040160405180910390fd5b845467ffffffffffffffff191660011785558315610f6e57845460ff60401b1916600160401b1785555b86881115610fce5760405162461bcd60e51b815260206004820152602760248201527f737461727420626c6f636b206d757374206265206c657373207468616e20656e6044820152666420626c6f636b60c81b606482015260840161091b565b6000861161102a5760405162461bcd60e51b8152602060048201526024808201527f7263632070657220626c6f636b206d75737420626520677265617465722074686044820152630616e20360e41b606482015260840161091b565b611032612950565b61103a612950565b611042612958565b61104d6000336126f4565b506110787ff47fc0c09ebbfe308d89b8035681a1164b9882bcfd49eb89861067738a30f5ab336126f4565b50611091600080516020613795833981519152336126f4565b5061109b896120b9565b60008890556001879055600286905583156110f057845460ff60401b19168555604051600181527fc7f505b2f371ae2175ee4913f4499e1f2633a7b5936321eed1cdaeb6115181d29060200160405180910390a15b505050505050505050565b611103612968565b61110c82612a0d565b6111168282612a37565b5050565b6005548190811061113d5760405162461bcd60e51b815260040161091b906135ff565b60006005838154811061115257611152613650565b906000526020600020906007020190508060020154431161117257505050565b6004810154600081900361118c5750436002909101555050565b6000806111ab84600101546111a5866002015443611463565b90612af4565b91509150816111cc5760405162461bcd60e51b815260040161091b90613720565b6004546111da908290612b3f565b9092509050816111fc5760405162461bcd60e51b815260040161091b90613720565b600484015480156112a657600080611215846001612af4565b91509150816112365760405162461bcd60e51b815260040161091b90613720565b6112408184612b3f565b9092509050816112625760405162461bcd60e51b815260040161091b90613720565b60008061127c838a60030154612b7290919063ffffffff16565b915091508161129d5760405162461bcd60e51b815260040161091b90613720565b60038901555050505b436002860181905560405183815288907ff5d2d72d9b25d6853afd7d0554a113b705234b6a68bb36b7f143662994632411906020015b60405180910390a350505050505050565b60006112f7612b8d565b506000805160206137b583398151915290565b600080516020613795833981519152611322816126ea565b60035460ff1661137f5760405162461bcd60e51b815260206004820152602260248201527f77697468647261772068617320616c7265616479206265656e20756e70617573604482015261195960f21b606482015260840161091b565b6003805460ff191660011790556040517f2523dfdafa00190f21a4cbd0c25179c8dd3cb34a6c17fea952ecca8fa8332c0e90600090a150565b60055460005b81811015611116576113cf8161111a565b6001016113be565b6000805160206137958339815191526113ef816126ea565b6003805460ff19811660ff918216159081179092551615611436576040517f2523dfdafa00190f21a4cbd0c25179c8dd3cb34a6c17fea952ecca8fa8332c0e90600090a150565b6040517f027c975733baceca09666fae356a901e083676848aaf9710150079385daae74390600090a15b50565b6000818311156114a55760405162461bcd60e51b815260206004820152600d60248201526c696e76616c69642072616e676560981b604482015260640161091b565b6000548310156114b55760005492505b6001548211156114c55760015491505b60006114d184846136a8565b1161150e5760405162461bcd60e51b815260206004820152600d60248201526c696e76616c69642072616e676560981b604482015260640161091b565b600061152260025485856111a591906136a8565b925090508061094a5760405162461bcd60e51b81526020600482015260136024820152726d756c7469706c696572206f766572666c6f7760681b604482015260640161091b565b60009182526000805160206137d5833981519152602090815260408084206001600160a01b0393909316845291905290205460ff1690565b6115a961252b565b60035460ff16156115cc5760405162461bcd60e51b815260040161091b90613624565b600554829081106115ef5760405162461bcd60e51b815260040161091b906135ff565b60006005848154811061160457611604613650565b60009182526020808320878452600682526040808520338652909252922080546007909202909201925084111561167d5760405162461bcd60e51b815260206004820181905260248201527f4e6f7420656e6f756768207374616b696e6720746f6b656e2062616c616e6365604482015260640161091b565b6116868561111a565b60038201548154600091829161169b91612af4565b91509150816116bc5760405162461bcd60e51b815260040161091b90613720565b6116c7816001612b3f565b9092509050816117055760405162461bcd60e51b815260206004820152600960248201526837bb32b9333637bb9960b91b604482015260640161091b565b6001830154611715908290612bd6565b9092509050816117535760405162461bcd60e51b81526020600482015260096024820152686f766572666c6f773360b81b604482015260640161091b565b8015611773578083600201600082825461176d919061367c565b90915550505b85156117e3578583600001600082825461178d91906136a8565b925050819055508260030160405180604001604052808881526020018660060154436117b9919061367c565b90528154600181810184556000938452602093849020835160029093020191825592909101519101555b858460040160008282546117f791906136a8565b909155505060038401548354670de0b6b3a764000091611816916136d1565b61182091906136fe565b6001840155604051868152879033907fc80277265097707f6f12a4ac4c09d46c9926e2eea2536f63616cb04d9fcad7d6906020016112dc565b6005546000908390811061187f5760405162461bcd60e51b815260040161091b906135ff565b61188a848443610d9d565b949350505050565b6000805160206137958339815191526118aa816126ea565b6003805460ff610100808304821615810261ff00199093169290921792839055910416156118fe576040517f443bf540e8151617cd5c39a681cc35a5a22be078b6f0cf16e5bd822b4c4b61ff90600090a150565b6040517f07c8faf23a72a53eb5c2c466dc81386a58b2a27d0cc3c7c580a3c12e372ba31390600090a150565b600080516020613795833981519152611942816126ea565b600554156119d55760006001600160a01b0316600560008154811061196957611969613650565b60009182526020909120600790910201546001600160a01b0316146119d05760405162461bcd60e51b815260206004820152601f60248201527f74686520666972737420706f6f6c206d7573742062652045544820706f6f6c00604482015260640161091b565b611a2c565b6001600160a01b03861615611a2c5760405162461bcd60e51b815260206004820152601f60248201527f74686520666972737420706f6f6c206d7573742062652045544820706f6f6c00604482015260640161091b565b60008311611a7c5760405162461bcd60e51b815260206004820152601e60248201527f696e76616c6964207769746864726177206c6f636b656420626c6f636b730000604482015260640161091b565b6001544310611abd5760405162461bcd60e51b815260206004820152600d60248201526c185b1c9958591e48195b991959609a1b604482015260640161091b565b8115611acb57611acb6113b8565b600080544311611add57600054611adf565b435b90508560046000828254611af3919061367c565b90915550506040805160e0810182526001600160a01b0389811680835260208084018b81528486018781526000606087018181526080880182815260a089018f815260c08a018f815260058054600181018255955299517f036b6384b5eca791c62761152d0c79bb0604c104a5fb6f4eb0703f3154bb3db0600790950294850180546001600160a01b03191691909a161790985593517f036b6384b5eca791c62761152d0c79bb0604c104a5fb6f4eb0703f3154bb3db183015591517f036b6384b5eca791c62761152d0c79bb0604c104a5fb6f4eb0703f3154bb3db282015590517f036b6384b5eca791c62761152d0c79bb0604c104a5fb6f4eb0703f3154bb3db382015590517f036b6384b5eca791c62761152d0c79bb0604c104a5fb6f4eb0703f3154bb3db482015592517f036b6384b5eca791c62761152d0c79bb0604c104a5fb6f4eb0703f3154bb3db584015592517f036b6384b5eca791c62761152d0c79bb0604c104a5fb6f4eb0703f3154bb3db6909201919091558251888152918201879052839289927f0fa296fce13e7a0e622b3a892e66220c248337289483a3cfa4130cde0caa1346910160405180910390a450505050505050565b600080516020613795833981519152611cca816126ea565b60008211611d125760405162461bcd60e51b8152602060048201526015602482015274496e76616c6964205243432070657220626c6f636b60581b604482015260640161091b565b600282905560405182907f4c70925b625536dd633f6bd2d615c67fddc2e7c63c31164047a981a0df3fee5490600090a25050565b600080516020613795833981519152611d5e816126ea565b816000541115611da45760405162461bcd60e51b8152602060048201526011602482015270496e76616c696420656e6420626c6f636b60781b604482015260640161091b565b600182905560405182907f1132c5baccb51da3d049fabc819697dc845fa224ad59d9b555507d6446b4085090600090a25050565b611de182610951565b611dea816126ea565b610bf08383612799565b60055483908110611e175760405162461bcd60e51b815260040161091b906135ff565b600080516020613795833981519152611e2f816126ea565b6005548510611e725760405162461bcd60e51b815260206004820152600f60248201526e1a5b9d985b1a59081c1bdbdb081a59608a1b604482015260640161091b565b8360058681548110611e8657611e86613650565b9060005260206000209060070201600501819055508260058681548110611eaf57611eaf613650565b9060005260206000209060070201600601819055508284867f30dffdedaa3e3b4849298233f7cd71d229956e875ab09270498c96b7cf9181fd60405160405180910390a45050505050565b60035460ff1615611f1d5760405162461bcd60e51b815260040161091b90613624565b60055482908110611f405760405162461bcd60e51b815260040161091b906135ff565b82600003611f905760405162461bcd60e51b815260206004820152601f60248201527f6465706f736974206e6f7420737570706f727420455448207374616b696e6700604482015260640161091b565b600060058481548110611fa557611fa5613650565b90600052602060002090600702019050806005015483116120015760405162461bcd60e51b81526020600482015260166024820152751a5b9d985b1a590819195c1bdcda5d08185b5bdd5b9d60521b604482015260640161091b565b821561201e57805461201e906001600160a01b0316333086612bf8565b610bf08484612c31565b600080516020613795833981519152612040816126ea565b6001548211156120885760405162461bcd60e51b8152602060048201526013602482015272496e76616c696420737461727420626c6f636b60681b604482015260640161091b565b600082815560405183917f63b90b79f11a0f132bcb2c4a4ddd44abda45c1308a83b2919318df7f5f8b7be491a25050565b6000805160206137958339815191526120d1816126ea565b6003805462010000600160b01b031916620100006001600160a01b0385811682029290921792839055604051920416907f153aae53b92218044bd5f43922617c6b253e50ac98a41b44c3acb5625ded348890600090a25050565b61213361252b565b6000600560008154811061214957612149613650565b6000918252602090912060079091020180549091506001600160a01b0316156121b45760405162461bcd60e51b815260206004820152601e60248201527f45544820706f6f6c206d75737420626520637265617465642066697273740000604482015260640161091b565b600581015434908110156122035760405162461bcd60e51b81526020600482015260166024820152751a5b9d985b1a590819195c1bdcda5d08185b5bdd5b9d60521b604482015260640161091b565b611116600082612c31565b600080516020613795833981519152612226816126ea565b60055484106122695760405162461bcd60e51b815260206004820152600f60248201526e1a5b9d985b1a59081c1bdbdb081a59608a1b604482015260640161091b565b600083116122af5760405162461bcd60e51b81526020600482015260136024820152721a5b9d985b1a59081c1bdbdb081dd95a59da1d606a1b604482015260640161091b565b81156122bd576122bd6113b8565b6000806122d585600454612b7290919063ffffffff16565b91509150816123265760405162461bcd60e51b815260206004820152601a60248201527f746f74616c20706f6f6c20776569676874206f766572666c6f77000000000000604482015260640161091b565b6005868154811061233957612339613650565b9060005260206000209060070201600101548161235691906136a8565b600481905550846005878154811061237057612370613650565b906000526020600020906007020160010181905550857f4b8fa3d6a87cb21d1bf4978bf60628ae358a28ac7f39de1751a481c6dd957617866004546040516123c2929190918252602082015260400190565b60405180910390a2505050505050565b600581815481106123e257600080fd5b600091825260209091206007909102018054600182015460028301546003840154600485015460058601546006909601546001600160a01b039095169650929491939092919087565b6000808360058054905081106124535760405162461bcd60e51b815260040161091b906135ff565b60008581526006602090815260408083206001600160a01b03881684529091528120905b6003820154811015612521574382600301828154811061249957612499613650565b906000526020600020906002020160010154116124e5578160030181815481106124c5576124c5613650565b906000526020600020906002020160000154846124e2919061367c565b93505b8160030181815481106124fa576124fa613650565b90600052602060002090600202016000015485612517919061367c565b9450600101612477565b5050509250929050565b7fcd5ed15c6e187e77e9aee88184c21f4f2182ab5827cb3b7e07fbedcd63f033005460ff161561256e5760405163d93c066560e01b815260040160405180910390fd5b565b600080836001600160a01b03168360405160006040518083038185875af1925050503d80600081146125be576040519150601f19603f3d011682016040523d82523d6000602084013e6125c3565b606091505b5091509150816126155760405162461bcd60e51b815260206004820152601860248201527f455448207472616e736665722063616c6c206661696c65640000000000000000604482015260640161091b565b805115610bf057808060200190518101906126309190613742565b610bf05760405162461bcd60e51b815260206004820152602660248201527f455448207472616e73666572206f7065726174696f6e20646964206e6f7420736044820152651d58d8d9595960d21b606482015260840161091b565b6040516001600160a01b03838116602483015260448201839052610c2991859182169063a9059cbb906064015b604051602081830303815290604052915060e01b6020820180516001600160e01b038381831617835250505050612fd0565b6114608133613041565b60006000805160206137d583398151915261270f8484611569565b61278f576000848152602082815260408083206001600160a01b03871684529091529020805460ff191660011790556127453390565b6001600160a01b0316836001600160a01b0316857f2f8788117e7eff1d82e926ec794901d17c78024a50270940304540a733656f0d60405160405180910390a460019150506108ef565b60009150506108ef565b60006000805160206137d58339815191526127b48484611569565b1561278f576000848152602082815260408083206001600160a01b0387168085529252808320805460ff1916905551339287917ff6391f5c32d9c69d2a47ea670b442974b53935d1edc7fd64eb21e047a839171b9190a460019150506108ef565b6003546040516370a0823160e01b81523060048201526000916201000090046001600160a01b0316906370a0823190602401602060405180830381865afa158015612864573d6000803e3d6000fd5b505050506040513d601f19601f82011682018060405250810190612888919061375f565b90508082116129105760035460405163a9059cbb60e01b81526001600160a01b03858116600483015260248201859052620100009092049091169063a9059cbb906044015b6020604051808303816000875af11580156128ec573d6000803e3d6000fd5b505050506040513d601f19601f82011682018060405250810190610bf09190613742565b60035460405163a9059cbb60e01b81526001600160a01b03858116600483015260248201849052620100009092049091169063a9059cbb906044016128cd565b61256e61307a565b61296061307a565b61256e6130c3565b306001600160a01b037f00000000000000000000000000000000000000000000000000000000000000001614806129ef57507f00000000000000000000000000000000000000000000000000000000000000006001600160a01b03166129e36000805160206137b5833981519152546001600160a01b031690565b6001600160a01b031614155b1561256e5760405163703e46dd60e11b815260040160405180910390fd5b7ff47fc0c09ebbfe308d89b8035681a1164b9882bcfd49eb89861067738a30f5ab611116816126ea565b816001600160a01b03166352d1902d6040518163ffffffff1660e01b8152600401602060405180830381865afa925050508015612a91575060408051601f3d908101601f19168201909252612a8e9181019061375f565b60015b612ab957604051634c9c8ce360e01b81526001600160a01b038316600482015260240161091b565b6000805160206137b58339815191528114612aea57604051632a87526960e21b81526004810182905260240161091b565b610c2983836130f6565b60008083600003612b0b5750600190506000612b38565b83830283858281612b1e57612b1e6136e8565b0414612b31576000809250925050612b38565b6001925090505b9250929050565b60008082600003612b5557506000905080612b38565b6001838581612b6657612b666136e8565b04915091509250929050565b60008083830184811015612b31576000809250925050612b38565b306001600160a01b037f0000000000000000000000000000000000000000000000000000000000000000161461256e5760405163703e46dd60e11b815260040160405180910390fd5b60008083831115612bec57506000905080612b38565b50600193919092039150565b6040516001600160a01b038481166024830152838116604483015260648201839052610bf09186918216906323b872dd906084016126b8565b600060058381548110612c4657612c46613650565b60009182526020808320868452600682526040808520338652909252922060079091029091019150612c778461111a565b805415612e3457600382015481546000918291612c9391612af4565b9150915081612ce45760405162461bcd60e51b815260206004820152601a60248201527f75736572207374616b6520616d6f756e74206f766572666c6f77000000000000604482015260640161091b565b612cf681670de0b6b3a7640000612b3f565b909250905081612d565760405162461bcd60e51b815260206004820152602560248201527f616363756d756c617465207265776172647320706572207374616b65206f766560448201526472666c6f7760d81b606482015260840161091b565b600080612d70856001015484612bd690919063ffffffff16565b9150915081612dbc5760405162461bcd60e51b815260206004820152601860248201527770656e64696e672072657761726473206f766572666c6f7760401b604482015260640161091b565b8015612e2f57600080612ddc838860020154612b7290919063ffffffff16565b9150915081612e285760405162461bcd60e51b815260206004820152601860248201527770656e64696e672072657761726473206f766572666c6f7760401b604482015260640161091b565b6002870155505b505050505b8215612ea15780546000908190612e4c908690612b72565b9150915081612e9d5760405162461bcd60e51b815260206004820181905260248201527f616363756d756c617465207374616b6520616d6f756e74206f766572666c6f77604482015260640161091b565b8255505b600080612ebb858560040154612b7290919063ffffffff16565b9150915081612f0c5760405162461bcd60e51b815260206004820152601b60248201527f7374616b6520746f6b656e20616d6f756e74206f766572666c6f770000000000604482015260640161091b565b60048401819055600384015483546000918291612f2891612af4565b9150915081612f885760405162461bcd60e51b815260206004820152602660248201527f75736572207374416d6f756e74206d756c206163635243435065725354206f766044820152656572666c6f7760d01b606482015260840161091b565b60018501819055604051878152889033907f90890809c654f11d6e72a28fa60149770a0d11ec6c92319d6ceb2bb0a4ea1a159060200160405180910390a35050505050505050565b600080602060008451602086016000885af180612ff3576040513d6000823e3d81fd5b50506000513d9150811561300b578060011415613018565b6001600160a01b0384163b155b15610bf057604051635274afe760e01b81526001600160a01b038516600482015260240161091b565b61304b8282611569565b6111165760405163e2517d3f60e01b81526001600160a01b03821660048201526024810183905260440161091b565b7ff0c57e16840df040f15088dc2f81fe391c3923bec73e23a9662efc9c229c6a0054600160401b900460ff1661256e57604051631afcd79f60e31b815260040160405180910390fd5b6130cb61307a565b7fcd5ed15c6e187e77e9aee88184c21f4f2182ab5827cb3b7e07fbedcd63f03300805460ff19169055565b6130ff8261314c565b6040516001600160a01b038316907fbc7cd75a20ee27fd9adebab32041f755214dbc6bffa90cc0225b39da2e5c2d3b90600090a280511561314457610c2982826131b1565b611116613227565b806001600160a01b03163b60000361318257604051634c9c8ce360e01b81526001600160a01b038216600482015260240161091b565b6000805160206137b583398151915280546001600160a01b0319166001600160a01b0392909216919091179055565b6060600080846001600160a01b0316846040516131ce9190613778565b600060405180830381855af49150503d8060008114613209576040519150601f19603f3d011682016040523d82523d6000602084013e61320e565b606091505b509150915061321e858383613246565b95945050505050565b341561256e5760405163b398979f60e01b815260040160405180910390fd5b60608261325b57613256826132a2565b610eae565b815115801561327257506001600160a01b0384163b155b1561329b57604051639996b31560e01b81526001600160a01b038516600482015260240161091b565b5080610eae565b8051156132b25780518082602001fd5b60405163d6bda27560e01b815260040160405180910390fd5b6000602082840312156132dd57600080fd5b81356001600160e01b031981168114610eae57600080fd5b6001600160a01b038116811461146057600080fd5b6000806040838503121561331d57600080fd5b82359150602083013561332f816132f5565b809150509250929050565b60006020828403121561334c57600080fd5b5035919050565b60008060006060848603121561336857600080fd5b83359250602084013561337a816132f5565b929592945050506040919091013590565b600080600080608085870312156133a157600080fd5b84356133ac816132f5565b966020860135965060408601359560600135945092505050565b634e487b7160e01b600052604160045260246000fd5b600080604083850312156133ef57600080fd5b82356133fa816132f5565b9150602083013567ffffffffffffffff8082111561341757600080fd5b818501915085601f83011261342b57600080fd5b81358181111561343d5761343d6133c6565b604051601f8201601f19908116603f01168101908382118183101715613465576134656133c6565b8160405282815288602084870101111561347e57600080fd5b8260208601602083013760006020848301015280955050505050509250929050565b600080604083850312156134b357600080fd5b50508035926020909101359150565b60005b838110156134dd5781810151838201526020016134c5565b50506000910152565b60208152600082518060208401526135058160408501602087016134c2565b601f01601f19169190910160400192915050565b801515811461146057600080fd5b600080600080600060a0868803121561353f57600080fd5b853561354a816132f5565b9450602086013593506040860135925060608601359150608086013561356f81613519565b809150509295509295909350565b60008060006060848603121561359257600080fd5b505081359360208301359350604090920135919050565b6000602082840312156135bb57600080fd5b8135610eae816132f5565b6000806000606084860312156135db57600080fd5b833592506020840135915060408401356135f481613519565b809150509250925092565b6020808252600b908201526a1a5b9d985b1a59081c1a5960aa1b604082015260600190565b6020808252601290820152711dda5d1a191c985dc81a5cc81c185d5cd95960721b604082015260600190565b634e487b7160e01b600052603260045260246000fd5b634e487b7160e01b600052601160045260246000fd5b808201808211156108ef576108ef613666565b6000600182016136a1576136a1613666565b5060010190565b818103818111156108ef576108ef613666565b634e487b7160e01b600052603160045260246000fd5b80820281158282048414176108ef576108ef613666565b634e487b7160e01b600052601260045260246000fd5b60008261371b57634e487b7160e01b600052601260045260246000fd5b500490565b6020808252600890820152676f766572666c6f7760c01b604082015260600190565b60006020828403121561375457600080fd5b8151610eae81613519565b60006020828403121561377157600080fd5b5051919050565b6000825161378a8184602087016134c2565b919091019291505056fe589d473ba17c0f47d494622893831497bad25919b9afb8e33e9521b8963fccde360894a13ba1a3210667c828492db98dca3e2076cc3735a920a3ca505d382bbc02dd7bc7dec4dceedda775e58dd541e08a116c6c53815c0bd028192f7b626800a264697066735822122020fc11adb91303623bd9da8f1ff96a7a881482f5dd4e6ca3791f4970abcf31bf64736f6c63430008160033","opcodes":"PUSH1 0xA0 PUSH1 0x40 MSTORE ADDRESS PUSH1 0x80 MSTORE CALLVALUE DUP1 ISZERO PUSH2 0x14 JUMPI PUSH1 0x0 DUP1 REVERT JUMPDEST POP PUSH1 0x80 MLOAD PUSH2 0x382A PUSH2 0x3E PUSH1 0x0 CODECOPY PUSH1 0x0 DUP2 DUP2 PUSH2 0x2973 ADD MSTORE DUP2 DUP2 PUSH2 0x299C ADD MSTORE PUSH2 0x2B98 ADD MSTORE PUSH2 0x382A PUSH1 0x0 RETURN INVALID PUSH1 0x80 PUSH1 0x40 MSTORE PUSH1 0x4 CALLDATASIZE LT PUSH2 0x274 JUMPI PUSH1 0x0 CALLDATALOAD PUSH1 0xE0 SHR DUP1 PUSH4 0x8DBB1E3A GT PUSH2 0x14E JUMPI DUP1 PUSH4 0xBED66C08 GT PUSH2 0xBB JUMPI DUP1 PUSH4 0xF35E4A6E GT PUSH2 0x77 JUMPI DUP1 PUSH4 0xF35E4A6E EQ PUSH2 0x7C2 JUMPI DUP1 PUSH4 0xF5485D32 EQ PUSH2 0x7E2 JUMPI DUP1 PUSH4 0xF6326FB3 EQ PUSH2 0x802 JUMPI DUP1 PUSH4 0xFAD07ECE EQ PUSH2 0x80A JUMPI DUP1 PUSH4 0xFE313112 EQ PUSH2 0x82A JUMPI DUP1 PUSH4 0xFF423357 EQ PUSH2 0x889 JUMPI STOP JUMPDEST DUP1 PUSH4 0xBED66C08 EQ PUSH2 0x722 JUMPI DUP1 PUSH4 0xBFC3EBBA EQ PUSH2 0x5D4 JUMPI DUP1 PUSH4 0xC713AA94 EQ PUSH2 0x742 JUMPI DUP1 PUSH4 0xD547741F EQ PUSH2 0x762 JUMPI DUP1 PUSH4 0xD86C0444 EQ PUSH2 0x782 JUMPI DUP1 PUSH4 0xE2BBB158 EQ PUSH2 0x7A2 JUMPI STOP JUMPDEST DUP1 PUSH4 0xAB5E124A GT PUSH2 0x10A JUMPI DUP1 PUSH4 0xAB5E124A EQ PUSH2 0x647 JUMPI DUP1 PUSH4 0xAD3CB1CC EQ PUSH2 0x666 JUMPI DUP1 PUSH4 0xAE35A8D5 EQ PUSH2 0x6A4 JUMPI DUP1 PUSH4 0xB3944D52 EQ PUSH2 0x6B9 JUMPI DUP1 PUSH4 0xB6D9D919 EQ PUSH2 0x6CE JUMPI DUP1 PUSH4 0xB908AFA8 EQ PUSH2 0x6EE JUMPI STOP JUMPDEST DUP1 PUSH4 0x8DBB1E3A EQ PUSH2 0x574 JUMPI DUP1 PUSH4 0x91D14854 EQ PUSH2 0x594 JUMPI DUP1 PUSH4 0x9E2C8A5B EQ PUSH2 0x5B4 JUMPI DUP1 PUSH4 0xA217FDDF EQ PUSH2 0x5D4 JUMPI DUP1 PUSH4 0xA27D9279 EQ PUSH2 0x5E9 JUMPI DUP1 PUSH4 0xA72D5BF4 EQ PUSH2 0x609 JUMPI STOP JUMPDEST DUP1 PUSH4 0x41721AB7 GT PUSH2 0x1EC JUMPI DUP1 PUSH4 0x5C975ABB GT PUSH2 0x1A8 JUMPI DUP1 PUSH4 0x5C975ABB EQ PUSH2 0x4C6 JUMPI DUP1 PUSH4 0x6155E3DE EQ PUSH2 0x4FD JUMPI DUP1 PUSH4 0x630B5BA1 EQ PUSH2 0x512 JUMPI DUP1 PUSH4 0x70FF0173 EQ PUSH2 0x527 JUMPI DUP1 PUSH4 0x75B238FC EQ PUSH2 0x53D JUMPI DUP1 PUSH4 0x80CCE73F EQ PUSH2 0x55F JUMPI STOP JUMPDEST DUP1 PUSH4 0x41721AB7 EQ PUSH2 0x428 JUMPI DUP1 PUSH4 0x48CD4CB1 EQ PUSH2 0x448 JUMPI DUP1 PUSH4 0x4EC81AF1 EQ PUSH2 0x45E JUMPI DUP1 PUSH4 0x4F1EF286 EQ PUSH2 0x47E JUMPI DUP1 PUSH4 0x51EB05A6 EQ PUSH2 0x491 JUMPI DUP1 PUSH4 0x52D1902D EQ PUSH2 0x4B1 JUMPI STOP JUMPDEST DUP1 PUSH4 0x2E1A7D4D GT PUSH2 0x23B JUMPI DUP1 PUSH4 0x2E1A7D4D EQ PUSH2 0x32C JUMPI DUP1 PUSH4 0x2F2FF15D EQ PUSH2 0x34C JUMPI DUP1 PUSH4 0x2F3FFB9F EQ PUSH2 0x36C JUMPI DUP1 PUSH4 0x36568ABE EQ PUSH2 0x386 JUMPI DUP1 PUSH4 0x37849B3C EQ PUSH2 0x3A6 JUMPI DUP1 PUSH4 0x379607F5 EQ PUSH2 0x408 JUMPI STOP JUMPDEST DUP1 PUSH4 0x1FFC9A7 EQ PUSH2 0x27D JUMPI DUP1 PUSH4 0x2559004 EQ PUSH2 0x2B2 JUMPI DUP1 PUSH4 0x83C6323 EQ PUSH2 0x2D6 JUMPI DUP1 PUSH4 0x11548234 EQ PUSH2 0x2EC JUMPI DUP1 PUSH4 0x248A9CA3 EQ PUSH2 0x30C JUMPI STOP JUMPDEST CALLDATASIZE PUSH2 0x27B JUMPI STOP JUMPDEST STOP JUMPDEST CALLVALUE DUP1 ISZERO PUSH2 0x289 JUMPI PUSH1 0x0 DUP1 REVERT JUMPDEST POP PUSH2 0x29D PUSH2 0x298 CALLDATASIZE PUSH1 0x4 PUSH2 0x32CB JUMP JUMPDEST PUSH2 0x8BE JUMP JUMPDEST PUSH1 0x40 MLOAD SWAP1 ISZERO ISZERO DUP2 MSTORE PUSH1 0x20 ADD JUMPDEST PUSH1 0x40 MLOAD DUP1 SWAP2 SUB SWAP1 RETURN JUMPDEST CALLVALUE DUP1 ISZERO PUSH2 0x2BE JUMPI PUSH1 0x0 DUP1 REVERT JUMPDEST POP PUSH2 0x2C8 PUSH1 0x4 SLOAD DUP2 JUMP JUMPDEST PUSH1 0x40 MLOAD SWAP1 DUP2 MSTORE PUSH1 0x20 ADD PUSH2 0x2A9 JUMP JUMPDEST CALLVALUE DUP1 ISZERO PUSH2 0x2E2 JUMPI PUSH1 0x0 DUP1 REVERT JUMPDEST POP PUSH2 0x2C8 PUSH1 0x1 SLOAD DUP2 JUMP JUMPDEST CALLVALUE DUP1 ISZERO PUSH2 0x2F8 JUMPI PUSH1 0x0 DUP1 REVERT JUMPDEST POP PUSH2 0x2C8 PUSH2 0x307 CALLDATASIZE PUSH1 0x4 PUSH2 0x330A JUMP JUMPDEST PUSH2 0x8F5 JUMP JUMPDEST CALLVALUE DUP1 ISZERO PUSH2 0x318 JUMPI PUSH1 0x0 DUP1 REVERT JUMPDEST POP PUSH2 0x2C8 PUSH2 0x327 CALLDATASIZE PUSH1 0x4 PUSH2 0x333A JUMP JUMPDEST PUSH2 0x951 JUMP JUMPDEST CALLVALUE DUP1 ISZERO PUSH2 0x338 JUMPI PUSH1 0x0 DUP1 REVERT JUMPDEST POP PUSH2 0x27B PUSH2 0x347 CALLDATASIZE PUSH1 0x4 PUSH2 0x333A JUMP JUMPDEST PUSH2 0x973 JUMP JUMPDEST CALLVALUE DUP1 ISZERO PUSH2 0x358 JUMPI PUSH1 0x0 DUP1 REVERT JUMPDEST POP PUSH2 0x27B PUSH2 0x367 CALLDATASIZE PUSH1 0x4 PUSH2 0x330A JUMP JUMPDEST PUSH2 0xBD4 JUMP JUMPDEST CALLVALUE DUP1 ISZERO PUSH2 0x378 JUMPI PUSH1 0x0 DUP1 REVERT JUMPDEST POP PUSH1 0x3 SLOAD PUSH2 0x29D SWAP1 PUSH1 0xFF AND DUP2 JUMP JUMPDEST CALLVALUE DUP1 ISZERO PUSH2 0x392 JUMPI PUSH1 0x0 DUP1 REVERT JUMPDEST POP PUSH2 0x27B PUSH2 0x3A1 CALLDATASIZE PUSH1 0x4 PUSH2 0x330A JUMP JUMPDEST PUSH2 0xBF6 JUMP JUMPDEST CALLVALUE DUP1 ISZERO PUSH2 0x3B2 JUMPI PUSH1 0x0 DUP1 REVERT JUMPDEST POP PUSH2 0x3ED PUSH2 0x3C1 CALLDATASIZE PUSH1 0x4 PUSH2 0x330A JUMP JUMPDEST PUSH1 0x6 PUSH1 0x20 SWAP1 DUP2 MSTORE PUSH1 0x0 SWAP3 DUP4 MSTORE PUSH1 0x40 DUP1 DUP5 KECCAK256 SWAP1 SWAP2 MSTORE SWAP1 DUP3 MSTORE SWAP1 KECCAK256 DUP1 SLOAD PUSH1 0x1 DUP3 ADD SLOAD PUSH1 0x2 SWAP1 SWAP3 ADD SLOAD SWAP1 SWAP2 SWAP1 DUP4 JUMP JUMPDEST PUSH1 0x40 DUP1 MLOAD SWAP4 DUP5 MSTORE PUSH1 0x20 DUP5 ADD SWAP3 SWAP1 SWAP3 MSTORE SWAP1 DUP3 ADD MSTORE PUSH1 0x60 ADD PUSH2 0x2A9 JUMP JUMPDEST CALLVALUE DUP1 ISZERO PUSH2 0x414 JUMPI PUSH1 0x0 DUP1 REVERT JUMPDEST POP PUSH2 0x27B PUSH2 0x423 CALLDATASIZE PUSH1 0x4 PUSH2 0x333A JUMP JUMPDEST PUSH2 0xC2E JUMP JUMPDEST CALLVALUE DUP1 ISZERO PUSH2 0x434 JUMPI PUSH1 0x0 DUP1 REVERT JUMPDEST POP PUSH2 0x2C8 PUSH2 0x443 CALLDATASIZE PUSH1 0x4 PUSH2 0x3353 JUMP JUMPDEST PUSH2 0xD9D JUMP JUMPDEST CALLVALUE DUP1 ISZERO PUSH2 0x454 JUMPI PUSH1 0x0 DUP1 REVERT JUMPDEST POP PUSH2 0x2C8 PUSH1 0x0 SLOAD DUP2 JUMP JUMPDEST CALLVALUE DUP1 ISZERO PUSH2 0x46A JUMPI PUSH1 0x0 DUP1 REVERT JUMPDEST POP PUSH2 0x27B PUSH2 0x479 CALLDATASIZE PUSH1 0x4 PUSH2 0x338B JUMP JUMPDEST PUSH2 0xEB5 JUMP JUMPDEST PUSH2 0x27B PUSH2 0x48C CALLDATASIZE PUSH1 0x4 PUSH2 0x33DC JUMP JUMPDEST PUSH2 0x10FB JUMP JUMPDEST CALLVALUE DUP1 ISZERO PUSH2 0x49D JUMPI PUSH1 0x0 DUP1 REVERT JUMPDEST POP PUSH2 0x27B PUSH2 0x4AC CALLDATASIZE PUSH1 0x4 PUSH2 0x333A JUMP JUMPDEST PUSH2 0x111A JUMP JUMPDEST CALLVALUE DUP1 ISZERO PUSH2 0x4BD JUMPI PUSH1 0x0 DUP1 REVERT JUMPDEST POP PUSH2 0x2C8 PUSH2 0x12ED JUMP JUMPDEST CALLVALUE DUP1 ISZERO PUSH2 0x4D2 JUMPI PUSH1 0x0 DUP1 REVERT JUMPDEST POP PUSH32 0xCD5ED15C6E187E77E9AEE88184C21F4F2182AB5827CB3B7E07FBEDCD63F03300 SLOAD PUSH1 0xFF AND PUSH2 0x29D JUMP JUMPDEST CALLVALUE DUP1 ISZERO PUSH2 0x509 JUMPI PUSH1 0x0 DUP1 REVERT JUMPDEST POP PUSH2 0x27B PUSH2 0x130A JUMP JUMPDEST CALLVALUE DUP1 ISZERO PUSH2 0x51E JUMPI PUSH1 0x0 DUP1 REVERT JUMPDEST POP PUSH2 0x27B PUSH2 0x13B8 JUMP JUMPDEST CALLVALUE DUP1 ISZERO PUSH2 0x533 JUMPI PUSH1 0x0 DUP1 REVERT JUMPDEST POP PUSH2 0x2C8 PUSH1 0x2 SLOAD DUP2 JUMP JUMPDEST CALLVALUE DUP1 ISZERO PUSH2 0x549 JUMPI PUSH1 0x0 DUP1 REVERT JUMPDEST POP PUSH2 0x2C8 PUSH1 0x0 DUP1 MLOAD PUSH1 0x20 PUSH2 0x3795 DUP4 CODECOPY DUP2 MLOAD SWAP2 MSTORE DUP2 JUMP JUMPDEST CALLVALUE DUP1 ISZERO PUSH2 0x56B JUMPI PUSH1 0x0 DUP1 REVERT JUMPDEST POP PUSH2 0x27B PUSH2 0x13D7 JUMP JUMPDEST CALLVALUE DUP1 ISZERO PUSH2 0x580 JUMPI PUSH1 0x0 DUP1 REVERT JUMPDEST POP PUSH2 0x2C8 PUSH2 0x58F CALLDATASIZE PUSH1 0x4 PUSH2 0x34A0 JUMP JUMPDEST PUSH2 0x1463 JUMP JUMPDEST CALLVALUE DUP1 ISZERO PUSH2 0x5A0 JUMPI PUSH1 0x0 DUP1 REVERT JUMPDEST POP PUSH2 0x29D PUSH2 0x5AF CALLDATASIZE PUSH1 0x4 PUSH2 0x330A JUMP JUMPDEST PUSH2 0x1569 JUMP JUMPDEST CALLVALUE DUP1 ISZERO PUSH2 0x5C0 JUMPI PUSH1 0x0 DUP1 REVERT JUMPDEST POP PUSH2 0x27B PUSH2 0x5CF CALLDATASIZE PUSH1 0x4 PUSH2 0x34A0 JUMP JUMPDEST PUSH2 0x15A1 JUMP JUMPDEST CALLVALUE DUP1 ISZERO PUSH2 0x5E0 JUMPI PUSH1 0x0 DUP1 REVERT JUMPDEST POP PUSH2 0x2C8 PUSH1 0x0 DUP2 JUMP JUMPDEST CALLVALUE DUP1 ISZERO PUSH2 0x5F5 JUMPI PUSH1 0x0 DUP1 REVERT JUMPDEST POP PUSH2 0x2C8 PUSH2 0x604 CALLDATASIZE PUSH1 0x4 PUSH2 0x330A JUMP JUMPDEST PUSH2 0x1859 JUMP JUMPDEST CALLVALUE DUP1 ISZERO PUSH2 0x615 JUMPI PUSH1 0x0 DUP1 REVERT JUMPDEST POP PUSH1 0x3 SLOAD PUSH2 0x62F SWAP1 PUSH3 0x10000 SWAP1 DIV PUSH1 0x1 PUSH1 0x1 PUSH1 0xA0 SHL SUB AND DUP2 JUMP JUMPDEST PUSH1 0x40 MLOAD PUSH1 0x1 PUSH1 0x1 PUSH1 0xA0 SHL SUB SWAP1 SWAP2 AND DUP2 MSTORE PUSH1 0x20 ADD PUSH2 0x2A9 JUMP JUMPDEST CALLVALUE DUP1 ISZERO PUSH2 0x653 JUMPI PUSH1 0x0 DUP1 REVERT JUMPDEST POP PUSH1 0x3 SLOAD PUSH2 0x29D SWAP1 PUSH2 0x100 SWAP1 DIV PUSH1 0xFF AND DUP2 JUMP JUMPDEST CALLVALUE DUP1 ISZERO PUSH2 0x672 JUMPI PUSH1 0x0 DUP1 REVERT JUMPDEST POP PUSH2 0x697 PUSH1 0x40 MLOAD DUP1 PUSH1 0x40 ADD PUSH1 0x40 MSTORE DUP1 PUSH1 0x5 DUP2 MSTORE PUSH1 0x20 ADD PUSH5 0x352E302E3 PUSH1 0xDC SHL DUP2 MSTORE POP DUP2 JUMP JUMPDEST PUSH1 0x40 MLOAD PUSH2 0x2A9 SWAP2 SWAP1 PUSH2 0x34E6 JUMP JUMPDEST CALLVALUE DUP1 ISZERO PUSH2 0x6B0 JUMPI PUSH1 0x0 DUP1 REVERT JUMPDEST POP PUSH2 0x27B PUSH2 0x1892 JUMP JUMPDEST CALLVALUE DUP1 ISZERO PUSH2 0x6C5 JUMPI PUSH1 0x0 DUP1 REVERT JUMPDEST POP PUSH1 0x5 SLOAD PUSH2 0x2C8 JUMP JUMPDEST CALLVALUE DUP1 ISZERO PUSH2 0x6DA JUMPI PUSH1 0x0 DUP1 REVERT JUMPDEST POP PUSH2 0x27B PUSH2 0x6E9 CALLDATASIZE PUSH1 0x4 PUSH2 0x3527 JUMP JUMPDEST PUSH2 0x192A JUMP JUMPDEST CALLVALUE DUP1 ISZERO PUSH2 0x6FA JUMPI PUSH1 0x0 DUP1 REVERT JUMPDEST POP PUSH2 0x2C8 PUSH32 0xF47FC0C09EBBFE308D89B8035681A1164B9882BCFD49EB89861067738A30F5AB DUP2 JUMP JUMPDEST CALLVALUE DUP1 ISZERO PUSH2 0x72E JUMPI PUSH1 0x0 DUP1 REVERT JUMPDEST POP PUSH2 0x27B PUSH2 0x73D CALLDATASIZE PUSH1 0x4 PUSH2 0x333A JUMP JUMPDEST PUSH2 0x1CB2 JUMP JUMPDEST CALLVALUE DUP1 ISZERO PUSH2 0x74E JUMPI PUSH1 0x0 DUP1 REVERT JUMPDEST POP PUSH2 0x27B PUSH2 0x75D CALLDATASIZE PUSH1 0x4 PUSH2 0x333A JUMP JUMPDEST PUSH2 0x1D46 JUMP JUMPDEST CALLVALUE DUP1 ISZERO PUSH2 0x76E JUMPI PUSH1 0x0 DUP1 REVERT JUMPDEST POP PUSH2 0x27B PUSH2 0x77D CALLDATASIZE PUSH1 0x4 PUSH2 0x330A JUMP JUMPDEST PUSH2 0x1DD8 JUMP JUMPDEST CALLVALUE DUP1 ISZERO PUSH2 0x78E JUMPI PUSH1 0x0 DUP1 REVERT JUMPDEST POP PUSH2 0x27B PUSH2 0x79D CALLDATASIZE PUSH1 0x4 PUSH2 0x357D JUMP JUMPDEST PUSH2 0x1DF4 JUMP JUMPDEST CALLVALUE DUP1 ISZERO PUSH2 0x7AE JUMPI PUSH1 0x0 DUP1 REVERT JUMPDEST POP PUSH2 0x27B PUSH2 0x7BD CALLDATASIZE PUSH1 0x4 PUSH2 0x34A0 JUMP JUMPDEST PUSH2 0x1EFA JUMP JUMPDEST CALLVALUE DUP1 ISZERO PUSH2 0x7CE JUMPI PUSH1 0x0 DUP1 REVERT JUMPDEST POP PUSH2 0x27B PUSH2 0x7DD CALLDATASIZE PUSH1 0x4 PUSH2 0x333A JUMP JUMPDEST PUSH2 0x2028 JUMP JUMPDEST CALLVALUE DUP1 ISZERO PUSH2 0x7EE JUMPI PUSH1 0x0 DUP1 REVERT JUMPDEST POP PUSH2 0x27B PUSH2 0x7FD CALLDATASIZE PUSH1 0x4 PUSH2 0x35A9 JUMP JUMPDEST PUSH2 0x20B9 JUMP JUMPDEST PUSH2 0x27B PUSH2 0x212B JUMP JUMPDEST CALLVALUE DUP1 ISZERO PUSH2 0x816 JUMPI PUSH1 0x0 DUP1 REVERT JUMPDEST POP PUSH2 0x27B PUSH2 0x825 CALLDATASIZE PUSH1 0x4 PUSH2 0x35C6 JUMP JUMPDEST PUSH2 0x220E JUMP JUMPDEST CALLVALUE DUP1 ISZERO PUSH2 0x836 JUMPI PUSH1 0x0 DUP1 REVERT JUMPDEST POP PUSH2 0x84A PUSH2 0x845 CALLDATASIZE PUSH1 0x4 PUSH2 0x333A JUMP JUMPDEST PUSH2 0x23D2 JUMP JUMPDEST PUSH1 0x40 DUP1 MLOAD PUSH1 0x1 PUSH1 0x1 PUSH1 0xA0 SHL SUB SWAP1 SWAP9 AND DUP9 MSTORE PUSH1 0x20 DUP9 ADD SWAP7 SWAP1 SWAP7 MSTORE SWAP5 DUP7 ADD SWAP4 SWAP1 SWAP4 MSTORE PUSH1 0x60 DUP6 ADD SWAP2 SWAP1 SWAP2 MSTORE PUSH1 0x80 DUP5 ADD MSTORE PUSH1 0xA0 DUP4 ADD MSTORE PUSH1 0xC0 DUP3 ADD MSTORE PUSH1 0xE0 ADD PUSH2 0x2A9 JUMP JUMPDEST CALLVALUE DUP1 ISZERO PUSH2 0x895 JUMPI PUSH1 0x0 DUP1 REVERT JUMPDEST POP PUSH2 0x8A9 PUSH2 0x8A4 CALLDATASIZE PUSH1 0x4 PUSH2 0x330A JUMP JUMPDEST PUSH2 0x242B JUMP JUMPDEST PUSH1 0x40 DUP1 MLOAD SWAP3 DUP4 MSTORE PUSH1 0x20 DUP4 ADD SWAP2 SWAP1 SWAP2 MSTORE ADD PUSH2 0x2A9 JUMP JUMPDEST PUSH1 0x0 PUSH1 0x1 PUSH1 0x1 PUSH1 0xE0 SHL SUB NOT DUP3 AND PUSH4 0x7965DB0B PUSH1 0xE0 SHL EQ DUP1 PUSH2 0x8EF JUMPI POP PUSH4 0x1FFC9A7 PUSH1 0xE0 SHL PUSH1 0x1 PUSH1 0x1 PUSH1 0xE0 SHL SUB NOT DUP4 AND EQ JUMPDEST SWAP3 SWAP2 POP POP JUMP JUMPDEST PUSH1 0x5 SLOAD PUSH1 0x0 SWAP1 DUP4 SWAP1 DUP2 LT PUSH2 0x924 JUMPI PUSH1 0x40 MLOAD PUSH3 0x461BCD PUSH1 0xE5 SHL DUP2 MSTORE PUSH1 0x4 ADD PUSH2 0x91B SWAP1 PUSH2 0x35FF JUMP JUMPDEST PUSH1 0x40 MLOAD DUP1 SWAP2 SUB SWAP1 REVERT JUMPDEST PUSH1 0x0 DUP5 DUP2 MSTORE PUSH1 0x6 PUSH1 0x20 SWAP1 DUP2 MSTORE PUSH1 0x40 DUP1 DUP4 KECCAK256 PUSH1 0x1 PUSH1 0x1 PUSH1 0xA0 SHL SUB DUP8 AND DUP5 MSTORE SWAP1 SWAP2 MSTORE SWAP1 KECCAK256 SLOAD SWAP2 POP JUMPDEST POP SWAP3 SWAP2 POP POP JUMP JUMPDEST PUSH1 0x0 SWAP1 DUP2 MSTORE PUSH1 0x0 DUP1 MLOAD PUSH1 0x20 PUSH2 0x37D5 DUP4 CODECOPY DUP2 MLOAD SWAP2 MSTORE PUSH1 0x20 MSTORE PUSH1 0x40 SWAP1 KECCAK256 PUSH1 0x1 ADD SLOAD SWAP1 JUMP JUMPDEST PUSH2 0x97B PUSH2 0x252B JUMP JUMPDEST PUSH1 0x3 SLOAD PUSH1 0xFF AND ISZERO PUSH2 0x99E JUMPI PUSH1 0x40 MLOAD PUSH3 0x461BCD PUSH1 0xE5 SHL DUP2 MSTORE PUSH1 0x4 ADD PUSH2 0x91B SWAP1 PUSH2 0x3624 JUMP JUMPDEST PUSH1 0x5 SLOAD DUP2 SWAP1 DUP2 LT PUSH2 0x9C1 JUMPI PUSH1 0x40 MLOAD PUSH3 0x461BCD PUSH1 0xE5 SHL DUP2 MSTORE PUSH1 0x4 ADD PUSH2 0x91B SWAP1 PUSH2 0x35FF JUMP JUMPDEST PUSH1 0x0 PUSH1 0x5 DUP4 DUP2 SLOAD DUP2 LT PUSH2 0x9D6 JUMPI PUSH2 0x9D6 PUSH2 0x3650 JUMP JUMPDEST PUSH1 0x0 SWAP2 DUP3 MSTORE PUSH1 0x20 DUP1 DUP4 KECCAK256 DUP7 DUP5 MSTORE PUSH1 0x6 DUP3 MSTORE PUSH1 0x40 DUP1 DUP6 KECCAK256 CALLER DUP7 MSTORE SWAP1 SWAP3 MSTORE SWAP1 DUP4 KECCAK256 PUSH1 0x7 SWAP1 SWAP3 MUL ADD SWAP3 POP SWAP1 DUP1 DUP1 JUMPDEST PUSH1 0x3 DUP5 ADD SLOAD DUP2 LT ISZERO PUSH2 0xA83 JUMPI NUMBER DUP5 PUSH1 0x3 ADD DUP3 DUP2 SLOAD DUP2 LT PUSH2 0xA23 JUMPI PUSH2 0xA23 PUSH2 0x3650 JUMP JUMPDEST SWAP1 PUSH1 0x0 MSTORE PUSH1 0x20 PUSH1 0x0 KECCAK256 SWAP1 PUSH1 0x2 MUL ADD PUSH1 0x1 ADD SLOAD GT PUSH2 0xA83 JUMPI DUP4 PUSH1 0x3 ADD DUP2 DUP2 SLOAD DUP2 LT PUSH2 0xA4F JUMPI PUSH2 0xA4F PUSH2 0x3650 JUMP JUMPDEST SWAP1 PUSH1 0x0 MSTORE PUSH1 0x20 PUSH1 0x0 KECCAK256 SWAP1 PUSH1 0x2 MUL ADD PUSH1 0x0 ADD SLOAD DUP4 PUSH2 0xA6C SWAP2 SWAP1 PUSH2 0x367C JUMP JUMPDEST SWAP3 POP DUP2 PUSH2 0xA78 DUP2 PUSH2 0x368F JUMP JUMPDEST SWAP3 POP POP PUSH1 0x1 ADD PUSH2 0xA01 JUMP JUMPDEST POP PUSH1 0x0 JUMPDEST PUSH1 0x3 DUP5 ADD SLOAD PUSH2 0xA97 SWAP1 DUP4 SWAP1 PUSH2 0x36A8 JUMP JUMPDEST DUP2 LT ISZERO PUSH2 0xB04 JUMPI PUSH1 0x3 DUP5 ADD PUSH2 0xAAC DUP4 DUP4 PUSH2 0x367C JUMP JUMPDEST DUP2 SLOAD DUP2 LT PUSH2 0xABC JUMPI PUSH2 0xABC PUSH2 0x3650 JUMP JUMPDEST SWAP1 PUSH1 0x0 MSTORE PUSH1 0x20 PUSH1 0x0 KECCAK256 SWAP1 PUSH1 0x2 MUL ADD DUP5 PUSH1 0x3 ADD DUP3 DUP2 SLOAD DUP2 LT PUSH2 0xADF JUMPI PUSH2 0xADF PUSH2 0x3650 JUMP JUMPDEST PUSH1 0x0 SWAP2 DUP3 MSTORE PUSH1 0x20 SWAP1 SWAP2 KECCAK256 DUP3 SLOAD PUSH1 0x2 SWAP1 SWAP3 MUL ADD SWAP1 DUP2 SSTORE PUSH1 0x1 SWAP2 DUP3 ADD SLOAD SWAP1 DUP3 ADD SSTORE ADD PUSH2 0xA87 JUMP JUMPDEST POP PUSH1 0x0 JUMPDEST DUP2 DUP2 LT ISZERO PUSH2 0xB4C JUMPI DUP4 PUSH1 0x3 ADD DUP1 SLOAD DUP1 PUSH2 0xB23 JUMPI PUSH2 0xB23 PUSH2 0x36BB JUMP JUMPDEST PUSH1 0x0 DUP3 DUP2 MSTORE PUSH1 0x20 DUP2 KECCAK256 PUSH1 0x2 PUSH1 0x0 NOT SWAP1 SWAP4 ADD SWAP3 DUP4 MUL ADD DUP2 DUP2 SSTORE PUSH1 0x1 SWAP1 DUP2 ADD SWAP2 SWAP1 SWAP2 SSTORE SWAP2 SSTORE ADD PUSH2 0xB08 JUMP JUMPDEST POP DUP2 ISZERO PUSH2 0xB87 JUMPI DUP4 SLOAD PUSH1 0x1 PUSH1 0x1 PUSH1 0xA0 SHL SUB AND PUSH2 0xB71 JUMPI PUSH2 0xB6C CALLER DUP4 PUSH2 0x2570 JUMP JUMPDEST PUSH2 0xB87 JUMP JUMPDEST DUP4 SLOAD PUSH2 0xB87 SWAP1 PUSH1 0x1 PUSH1 0x1 PUSH1 0xA0 SHL SUB AND CALLER DUP5 PUSH2 0x268B JUMP JUMPDEST NUMBER DUP7 CALLER PUSH1 0x1 PUSH1 0x1 PUSH1 0xA0 SHL SUB AND PUSH32 0x2F25270A4D87BEA75DB541CDFE559334A275B4A233520ED6C0A2429667CCA94 DUP6 PUSH1 0x40 MLOAD PUSH2 0xBC4 SWAP2 DUP2 MSTORE PUSH1 0x20 ADD SWAP1 JUMP JUMPDEST PUSH1 0x40 MLOAD DUP1 SWAP2 SUB SWAP1 LOG4 POP POP POP POP POP POP JUMP JUMPDEST PUSH2 0xBDD DUP3 PUSH2 0x951 JUMP JUMPDEST PUSH2 0xBE6 DUP2 PUSH2 0x26EA JUMP JUMPDEST PUSH2 0xBF0 DUP4 DUP4 PUSH2 0x26F4 JUMP JUMPDEST POP POP POP POP JUMP JUMPDEST PUSH1 0x1 PUSH1 0x1 PUSH1 0xA0 SHL SUB DUP2 AND CALLER EQ PUSH2 0xC1F JUMPI PUSH1 0x40 MLOAD PUSH4 0x334BD919 PUSH1 0xE1 SHL DUP2 MSTORE PUSH1 0x4 ADD PUSH1 0x40 MLOAD DUP1 SWAP2 SUB SWAP1 REVERT JUMPDEST PUSH2 0xC29 DUP3 DUP3 PUSH2 0x2799 JUMP JUMPDEST POP POP POP JUMP JUMPDEST PUSH2 0xC36 PUSH2 0x252B JUMP JUMPDEST PUSH1 0x5 SLOAD DUP2 SWAP1 DUP2 LT PUSH2 0xC59 JUMPI PUSH1 0x40 MLOAD PUSH3 0x461BCD PUSH1 0xE5 SHL DUP2 MSTORE PUSH1 0x4 ADD PUSH2 0x91B SWAP1 PUSH2 0x35FF JUMP JUMPDEST PUSH1 0x3 SLOAD PUSH2 0x100 SWAP1 DIV PUSH1 0xFF AND ISZERO PUSH2 0xCA3 JUMPI PUSH1 0x40 MLOAD PUSH3 0x461BCD PUSH1 0xE5 SHL DUP2 MSTORE PUSH1 0x20 PUSH1 0x4 DUP3 ADD MSTORE PUSH1 0xF PUSH1 0x24 DUP3 ADD MSTORE PUSH15 0x18DB185A5B481A5CC81C185D5CD959 PUSH1 0x8A SHL PUSH1 0x44 DUP3 ADD MSTORE PUSH1 0x64 ADD PUSH2 0x91B JUMP JUMPDEST PUSH1 0x0 PUSH1 0x5 DUP4 DUP2 SLOAD DUP2 LT PUSH2 0xCB8 JUMPI PUSH2 0xCB8 PUSH2 0x3650 JUMP JUMPDEST PUSH1 0x0 SWAP2 DUP3 MSTORE PUSH1 0x20 DUP1 DUP4 KECCAK256 DUP7 DUP5 MSTORE PUSH1 0x6 DUP3 MSTORE PUSH1 0x40 DUP1 DUP6 KECCAK256 CALLER DUP7 MSTORE SWAP1 SWAP3 MSTORE SWAP3 KECCAK256 PUSH1 0x7 SWAP1 SWAP2 MUL SWAP1 SWAP2 ADD SWAP2 POP PUSH2 0xCE9 DUP5 PUSH2 0x111A JUMP JUMPDEST PUSH1 0x0 DUP2 PUSH1 0x2 ADD SLOAD DUP3 PUSH1 0x1 ADD SLOAD DUP5 PUSH1 0x3 ADD SLOAD DUP5 PUSH1 0x0 ADD SLOAD PUSH2 0xD09 SWAP2 SWAP1 PUSH2 0x36D1 JUMP JUMPDEST PUSH2 0xD13 SWAP2 SWAP1 PUSH2 0x36A8 JUMP JUMPDEST PUSH2 0xD1D SWAP2 SWAP1 PUSH2 0x367C JUMP JUMPDEST SWAP1 POP DUP1 ISZERO PUSH2 0xD36 JUMPI PUSH1 0x0 PUSH1 0x2 DUP4 ADD SSTORE PUSH2 0xD36 CALLER DUP3 PUSH2 0x2815 JUMP JUMPDEST PUSH1 0x3 DUP4 ADD SLOAD DUP3 SLOAD PUSH8 0xDE0B6B3A7640000 SWAP2 PUSH2 0xD50 SWAP2 PUSH2 0x36D1 JUMP JUMPDEST PUSH2 0xD5A SWAP2 SWAP1 PUSH2 0x36FE JUMP JUMPDEST PUSH1 0x1 DUP4 ADD SSTORE PUSH1 0x40 MLOAD DUP2 DUP2 MSTORE DUP6 SWAP1 CALLER SWAP1 PUSH32 0x34FCBAC0073D7C3D388E51312FAF357774904998EEB8FCA628B9E6F65EE1CBF7 SWAP1 PUSH1 0x20 ADD PUSH1 0x40 MLOAD DUP1 SWAP2 SUB SWAP1 LOG3 POP POP POP POP POP JUMP JUMPDEST PUSH1 0x0 DUP1 PUSH1 0x5 DUP6 DUP2 SLOAD DUP2 LT PUSH2 0xDB3 JUMPI PUSH2 0xDB3 PUSH2 0x3650 JUMP JUMPDEST PUSH1 0x0 SWAP2 DUP3 MSTORE PUSH1 0x20 DUP1 DUP4 KECCAK256 DUP9 DUP5 MSTORE PUSH1 0x6 DUP3 MSTORE PUSH1 0x40 DUP1 DUP6 KECCAK256 PUSH1 0x1 PUSH1 0x1 PUSH1 0xA0 SHL SUB DUP11 AND DUP7 MSTORE SWAP1 SWAP3 MSTORE SWAP3 KECCAK256 PUSH1 0x3 PUSH1 0x7 SWAP1 SWAP3 MUL SWAP1 SWAP3 ADD SWAP1 DUP2 ADD SLOAD PUSH1 0x4 DUP3 ADD SLOAD PUSH1 0x2 DUP4 ADD SLOAD SWAP3 SWAP5 POP SWAP1 SWAP2 DUP7 LT DUP1 ISZERO PUSH2 0xE04 JUMPI POP DUP1 ISZERO ISZERO JUMPDEST ISZERO PUSH2 0xE68 JUMPI PUSH1 0x0 PUSH2 0xE19 DUP6 PUSH1 0x2 ADD SLOAD DUP9 PUSH2 0x1463 JUMP JUMPDEST SWAP1 POP PUSH1 0x0 PUSH1 0x4 SLOAD DUP7 PUSH1 0x1 ADD SLOAD DUP4 PUSH2 0xE30 SWAP2 SWAP1 PUSH2 0x36D1 JUMP JUMPDEST PUSH2 0xE3A SWAP2 SWAP1 PUSH2 0x36FE JUMP JUMPDEST SWAP1 POP DUP3 PUSH2 0xE4F DUP3 PUSH8 0xDE0B6B3A7640000 PUSH2 0x36D1 JUMP JUMPDEST PUSH2 0xE59 SWAP2 SWAP1 PUSH2 0x36FE JUMP JUMPDEST PUSH2 0xE63 SWAP1 DUP6 PUSH2 0x367C JUMP JUMPDEST SWAP4 POP POP POP JUMPDEST PUSH1 0x2 DUP4 ADD SLOAD PUSH1 0x1 DUP5 ADD SLOAD DUP5 SLOAD PUSH8 0xDE0B6B3A7640000 SWAP1 PUSH2 0xE89 SWAP1 DUP7 SWAP1 PUSH2 0x36D1 JUMP JUMPDEST PUSH2 0xE93 SWAP2 SWAP1 PUSH2 0x36FE JUMP JUMPDEST PUSH2 0xE9D SWAP2 SWAP1 PUSH2 0x36A8 JUMP JUMPDEST PUSH2 0xEA7 SWAP2 SWAP1 PUSH2 0x367C JUMP JUMPDEST SWAP5 POP POP POP POP POP JUMPDEST SWAP4 SWAP3 POP POP POP JUMP JUMPDEST PUSH32 0xF0C57E16840DF040F15088DC2F81FE391C3923BEC73E23A9662EFC9C229C6A00 DUP1 SLOAD PUSH1 0x1 PUSH1 0x40 SHL DUP2 DIV PUSH1 0xFF AND ISZERO SWAP1 PUSH8 0xFFFFFFFFFFFFFFFF AND PUSH1 0x0 DUP2 ISZERO DUP1 ISZERO PUSH2 0xEFB JUMPI POP DUP3 JUMPDEST SWAP1 POP PUSH1 0x0 DUP3 PUSH8 0xFFFFFFFFFFFFFFFF AND PUSH1 0x1 EQ DUP1 ISZERO PUSH2 0xF18 JUMPI POP ADDRESS EXTCODESIZE ISZERO JUMPDEST SWAP1 POP DUP2 ISZERO DUP1 ISZERO PUSH2 0xF26 JUMPI POP DUP1 ISZERO JUMPDEST ISZERO PUSH2 0xF44 JUMPI PUSH1 0x40 MLOAD PUSH4 0xF92EE8A9 PUSH1 0xE0 SHL DUP2 MSTORE PUSH1 0x4 ADD PUSH1 0x40 MLOAD DUP1 SWAP2 SUB SWAP1 REVERT JUMPDEST DUP5 SLOAD PUSH8 0xFFFFFFFFFFFFFFFF NOT AND PUSH1 0x1 OR DUP6 SSTORE DUP4 ISZERO PUSH2 0xF6E JUMPI DUP5 SLOAD PUSH1 0xFF PUSH1 0x40 SHL NOT AND PUSH1 0x1 PUSH1 0x40 SHL OR DUP6 SSTORE JUMPDEST DUP7 DUP9 GT ISZERO PUSH2 0xFCE JUMPI PUSH1 0x40 MLOAD PUSH3 0x461BCD PUSH1 0xE5 SHL DUP2 MSTORE PUSH1 0x20 PUSH1 0x4 DUP3 ADD MSTORE PUSH1 0x27 PUSH1 0x24 DUP3 ADD MSTORE PUSH32 0x737461727420626C6F636B206D757374206265206C657373207468616E20656E PUSH1 0x44 DUP3 ADD MSTORE PUSH7 0x6420626C6F636B PUSH1 0xC8 SHL PUSH1 0x64 DUP3 ADD MSTORE PUSH1 0x84 ADD PUSH2 0x91B JUMP JUMPDEST PUSH1 0x0 DUP7 GT PUSH2 0x102A JUMPI PUSH1 0x40 MLOAD PUSH3 0x461BCD PUSH1 0xE5 SHL DUP2 MSTORE PUSH1 0x20 PUSH1 0x4 DUP3 ADD MSTORE PUSH1 0x24 DUP1 DUP3 ADD MSTORE PUSH32 0x7263632070657220626C6F636B206D7573742062652067726561746572207468 PUSH1 0x44 DUP3 ADD MSTORE PUSH4 0x616E203 PUSH1 0xE4 SHL PUSH1 0x64 DUP3 ADD MSTORE PUSH1 0x84 ADD PUSH2 0x91B JUMP JUMPDEST PUSH2 0x1032 PUSH2 0x2950 JUMP JUMPDEST PUSH2 0x103A PUSH2 0x2950 JUMP JUMPDEST PUSH2 0x1042 PUSH2 0x2958 JUMP JUMPDEST PUSH2 0x104D PUSH1 0x0 CALLER PUSH2 0x26F4 JUMP JUMPDEST POP PUSH2 0x1078 PUSH32 0xF47FC0C09EBBFE308D89B8035681A1164B9882BCFD49EB89861067738A30F5AB CALLER PUSH2 0x26F4 JUMP JUMPDEST POP PUSH2 0x1091 PUSH1 0x0 DUP1 MLOAD PUSH1 0x20 PUSH2 0x3795 DUP4 CODECOPY DUP2 MLOAD SWAP2 MSTORE CALLER PUSH2 0x26F4 JUMP JUMPDEST POP PUSH2 0x109B DUP10 PUSH2 0x20B9 JUMP JUMPDEST PUSH1 0x0 DUP9 SWAP1 SSTORE PUSH1 0x1 DUP8 SWAP1 SSTORE PUSH1 0x2 DUP7 SWAP1 SSTORE DUP4 ISZERO PUSH2 0x10F0 JUMPI DUP5 SLOAD PUSH1 0xFF PUSH1 0x40 SHL NOT AND DUP6 SSTORE PUSH1 0x40 MLOAD PUSH1 0x1 DUP2 MSTORE PUSH32 0xC7F505B2F371AE2175EE4913F4499E1F2633A7B5936321EED1CDAEB6115181D2 SWAP1 PUSH1 0x20 ADD PUSH1 0x40 MLOAD DUP1 SWAP2 SUB SWAP1 LOG1 JUMPDEST POP POP POP POP POP POP POP POP POP JUMP JUMPDEST PUSH2 0x1103 PUSH2 0x2968 JUMP JUMPDEST PUSH2 0x110C DUP3 PUSH2 0x2A0D JUMP JUMPDEST PUSH2 0x1116 DUP3 DUP3 PUSH2 0x2A37 JUMP JUMPDEST POP POP JUMP JUMPDEST PUSH1 0x5 SLOAD DUP2 SWAP1 DUP2 LT PUSH2 0x113D JUMPI PUSH1 0x40 MLOAD PUSH3 0x461BCD PUSH1 0xE5 SHL DUP2 MSTORE PUSH1 0x4 ADD PUSH2 0x91B SWAP1 PUSH2 0x35FF JUMP JUMPDEST PUSH1 0x0 PUSH1 0x5 DUP4 DUP2 SLOAD DUP2 LT PUSH2 0x1152 JUMPI PUSH2 0x1152 PUSH2 0x3650 JUMP JUMPDEST SWAP1 PUSH1 0x0 MSTORE PUSH1 0x20 PUSH1 0x0 KECCAK256 SWAP1 PUSH1 0x7 MUL ADD SWAP1 POP DUP1 PUSH1 0x2 ADD SLOAD NUMBER GT PUSH2 0x1172 JUMPI POP POP POP JUMP JUMPDEST PUSH1 0x4 DUP2 ADD SLOAD PUSH1 0x0 DUP2 SWAP1 SUB PUSH2 0x118C JUMPI POP NUMBER PUSH1 0x2 SWAP1 SWAP2 ADD SSTORE POP POP JUMP JUMPDEST PUSH1 0x0 DUP1 PUSH2 0x11AB DUP5 PUSH1 0x1 ADD SLOAD PUSH2 0x11A5 DUP7 PUSH1 0x2 ADD SLOAD NUMBER PUSH2 0x1463 JUMP JUMPDEST SWAP1 PUSH2 0x2AF4 JUMP JUMPDEST SWAP2 POP SWAP2 POP DUP2 PUSH2 0x11CC JUMPI PUSH1 0x40 MLOAD PUSH3 0x461BCD PUSH1 0xE5 SHL DUP2 MSTORE PUSH1 0x4 ADD PUSH2 0x91B SWAP1 PUSH2 0x3720 JUMP JUMPDEST PUSH1 0x4 SLOAD PUSH2 0x11DA SWAP1 DUP3 SWAP1 PUSH2 0x2B3F JUMP JUMPDEST SWAP1 SWAP3 POP SWAP1 POP DUP2 PUSH2 0x11FC JUMPI PUSH1 0x40 MLOAD PUSH3 0x461BCD PUSH1 0xE5 SHL DUP2 MSTORE PUSH1 0x4 ADD PUSH2 0x91B SWAP1 PUSH2 0x3720 JUMP JUMPDEST PUSH1 0x4 DUP5 ADD SLOAD DUP1 ISZERO PUSH2 0x12A6 JUMPI PUSH1 0x0 DUP1 PUSH2 0x1215 DUP5 PUSH1 0x1 PUSH2 0x2AF4 JUMP JUMPDEST SWAP2 POP SWAP2 POP DUP2 PUSH2 0x1236 JUMPI PUSH1 0x40 MLOAD PUSH3 0x461BCD PUSH1 0xE5 SHL DUP2 MSTORE PUSH1 0x4 ADD PUSH2 0x91B SWAP1 PUSH2 0x3720 JUMP JUMPDEST PUSH2 0x1240 DUP2 DUP5 PUSH2 0x2B3F JUMP JUMPDEST SWAP1 SWAP3 POP SWAP1 POP DUP2 PUSH2 0x1262 JUMPI PUSH1 0x40 MLOAD PUSH3 0x461BCD PUSH1 0xE5 SHL DUP2 MSTORE PUSH1 0x4 ADD PUSH2 0x91B SWAP1 PUSH2 0x3720 JUMP JUMPDEST PUSH1 0x0 DUP1 PUSH2 0x127C DUP4 DUP11 PUSH1 0x3 ADD SLOAD PUSH2 0x2B72 SWAP1 SWAP2 SWAP1 PUSH4 0xFFFFFFFF AND JUMP JUMPDEST SWAP2 POP SWAP2 POP DUP2 PUSH2 0x129D JUMPI PUSH1 0x40 MLOAD PUSH3 0x461BCD PUSH1 0xE5 SHL DUP2 MSTORE PUSH1 0x4 ADD PUSH2 0x91B SWAP1 PUSH2 0x3720 JUMP JUMPDEST PUSH1 0x3 DUP10 ADD SSTORE POP POP POP JUMPDEST NUMBER PUSH1 0x2 DUP7 ADD DUP2 SWAP1 SSTORE PUSH1 0x40 MLOAD DUP4 DUP2 MSTORE DUP9 SWAP1 PUSH32 0xF5D2D72D9B25D6853AFD7D0554A113B705234B6A68BB36B7F143662994632411 SWAP1 PUSH1 0x20 ADD JUMPDEST PUSH1 0x40 MLOAD DUP1 SWAP2 SUB SWAP1 LOG3 POP POP POP POP POP POP POP JUMP JUMPDEST PUSH1 0x0 PUSH2 0x12F7 PUSH2 0x2B8D JUMP JUMPDEST POP PUSH1 0x0 DUP1 MLOAD PUSH1 0x20 PUSH2 0x37B5 DUP4 CODECOPY DUP2 MLOAD SWAP2 MSTORE SWAP1 JUMP JUMPDEST PUSH1 0x0 DUP1 MLOAD PUSH1 0x20 PUSH2 0x3795 DUP4 CODECOPY DUP2 MLOAD SWAP2 MSTORE PUSH2 0x1322 DUP2 PUSH2 0x26EA JUMP JUMPDEST PUSH1 0x3 SLOAD PUSH1 0xFF AND PUSH2 0x137F JUMPI PUSH1 0x40 MLOAD PUSH3 0x461BCD PUSH1 0xE5 SHL DUP2 MSTORE PUSH1 0x20 PUSH1 0x4 DUP3 ADD MSTORE PUSH1 0x22 PUSH1 0x24 DUP3 ADD MSTORE PUSH32 0x77697468647261772068617320616C7265616479206265656E20756E70617573 PUSH1 0x44 DUP3 ADD MSTORE PUSH2 0x1959 PUSH1 0xF2 SHL PUSH1 0x64 DUP3 ADD MSTORE PUSH1 0x84 ADD PUSH2 0x91B JUMP JUMPDEST PUSH1 0x3 DUP1 SLOAD PUSH1 0xFF NOT AND PUSH1 0x1 OR SWAP1 SSTORE PUSH1 0x40 MLOAD PUSH32 0x2523DFDAFA00190F21A4CBD0C25179C8DD3CB34A6C17FEA952ECCA8FA8332C0E SWAP1 PUSH1 0x0 SWAP1 LOG1 POP JUMP JUMPDEST PUSH1 0x5 SLOAD PUSH1 0x0 JUMPDEST DUP2 DUP2 LT ISZERO PUSH2 0x1116 JUMPI PUSH2 0x13CF DUP2 PUSH2 0x111A JUMP JUMPDEST PUSH1 0x1 ADD PUSH2 0x13BE JUMP JUMPDEST PUSH1 0x0 DUP1 MLOAD PUSH1 0x20 PUSH2 0x3795 DUP4 CODECOPY DUP2 MLOAD SWAP2 MSTORE PUSH2 0x13EF DUP2 PUSH2 0x26EA JUMP JUMPDEST PUSH1 0x3 DUP1 SLOAD PUSH1 0xFF NOT DUP2 AND PUSH1 0xFF SWAP2 DUP3 AND ISZERO SWAP1 DUP2 OR SWAP1 SWAP3 SSTORE AND ISZERO PUSH2 0x1436 JUMPI PUSH1 0x40 MLOAD PUSH32 0x2523DFDAFA00190F21A4CBD0C25179C8DD3CB34A6C17FEA952ECCA8FA8332C0E SWAP1 PUSH1 0x0 SWAP1 LOG1 POP JUMP JUMPDEST PUSH1 0x40 MLOAD PUSH32 0x27C975733BACECA09666FAE356A901E083676848AAF9710150079385DAAE743 SWAP1 PUSH1 0x0 SWAP1 LOG1 JUMPDEST POP JUMP JUMPDEST PUSH1 0x0 DUP2 DUP4 GT ISZERO PUSH2 0x14A5 JUMPI PUSH1 0x40 MLOAD PUSH3 0x461BCD PUSH1 0xE5 SHL DUP2 MSTORE PUSH1 0x20 PUSH1 0x4 DUP3 ADD MSTORE PUSH1 0xD PUSH1 0x24 DUP3 ADD MSTORE PUSH13 0x696E76616C69642072616E6765 PUSH1 0x98 SHL PUSH1 0x44 DUP3 ADD MSTORE PUSH1 0x64 ADD PUSH2 0x91B JUMP JUMPDEST PUSH1 0x0 SLOAD DUP4 LT ISZERO PUSH2 0x14B5 JUMPI PUSH1 0x0 SLOAD SWAP3 POP JUMPDEST PUSH1 0x1 SLOAD DUP3 GT ISZERO PUSH2 0x14C5 JUMPI PUSH1 0x1 SLOAD SWAP2 POP JUMPDEST PUSH1 0x0 PUSH2 0x14D1 DUP5 DUP5 PUSH2 0x36A8 JUMP JUMPDEST GT PUSH2 0x150E JUMPI PUSH1 0x40 MLOAD PUSH3 0x461BCD PUSH1 0xE5 SHL DUP2 MSTORE PUSH1 0x20 PUSH1 0x4 DUP3 ADD MSTORE PUSH1 0xD PUSH1 0x24 DUP3 ADD MSTORE PUSH13 0x696E76616C69642072616E6765 PUSH1 0x98 SHL PUSH1 0x44 DUP3 ADD MSTORE PUSH1 0x64 ADD PUSH2 0x91B JUMP JUMPDEST PUSH1 0x0 PUSH2 0x1522 PUSH1 0x2 SLOAD DUP6 DUP6 PUSH2 0x11A5 SWAP2 SWAP1 PUSH2 0x36A8 JUMP JUMPDEST SWAP3 POP SWAP1 POP DUP1 PUSH2 0x94A JUMPI PUSH1 0x40 MLOAD PUSH3 0x461BCD PUSH1 0xE5 SHL DUP2 MSTORE PUSH1 0x20 PUSH1 0x4 DUP3 ADD MSTORE PUSH1 0x13 PUSH1 0x24 DUP3 ADD MSTORE PUSH19 0x6D756C7469706C696572206F766572666C6F77 PUSH1 0x68 SHL PUSH1 0x44 DUP3 ADD MSTORE PUSH1 0x64 ADD PUSH2 0x91B JUMP JUMPDEST PUSH1 0x0 SWAP2 DUP3 MSTORE PUSH1 0x0 DUP1 MLOAD PUSH1 0x20 PUSH2 0x37D5 DUP4 CODECOPY DUP2 MLOAD SWAP2 MSTORE PUSH1 0x20 SWAP1 DUP2 MSTORE PUSH1 0x40 DUP1 DUP5 KECCAK256 PUSH1 0x1 PUSH1 0x1 PUSH1 0xA0 SHL SUB SWAP4 SWAP1 SWAP4 AND DUP5 MSTORE SWAP2 SWAP1 MSTORE SWAP1 KECCAK256 SLOAD PUSH1 0xFF AND SWAP1 JUMP JUMPDEST PUSH2 0x15A9 PUSH2 0x252B JUMP JUMPDEST PUSH1 0x3 SLOAD PUSH1 0xFF AND ISZERO PUSH2 0x15CC JUMPI PUSH1 0x40 MLOAD PUSH3 0x461BCD PUSH1 0xE5 SHL DUP2 MSTORE PUSH1 0x4 ADD PUSH2 0x91B SWAP1 PUSH2 0x3624 JUMP JUMPDEST PUSH1 0x5 SLOAD DUP3 SWAP1 DUP2 LT PUSH2 0x15EF JUMPI PUSH1 0x40 MLOAD PUSH3 0x461BCD PUSH1 0xE5 SHL DUP2 MSTORE PUSH1 0x4 ADD PUSH2 0x91B SWAP1 PUSH2 0x35FF JUMP JUMPDEST PUSH1 0x0 PUSH1 0x5 DUP5 DUP2 SLOAD DUP2 LT PUSH2 0x1604 JUMPI PUSH2 0x1604 PUSH2 0x3650 JUMP JUMPDEST PUSH1 0x0 SWAP2 DUP3 MSTORE PUSH1 0x20 DUP1 DUP4 KECCAK256 DUP8 DUP5 MSTORE PUSH1 0x6 DUP3 MSTORE PUSH1 0x40 DUP1 DUP6 KECCAK256 CALLER DUP7 MSTORE SWAP1 SWAP3 MSTORE SWAP3 KECCAK256 DUP1 SLOAD PUSH1 0x7 SWAP1 SWAP3 MUL SWAP1 SWAP3 ADD SWAP3 POP DUP5 GT ISZERO PUSH2 0x167D JUMPI PUSH1 0x40 MLOAD PUSH3 0x461BCD PUSH1 0xE5 SHL DUP2 MSTORE PUSH1 0x20 PUSH1 0x4 DUP3 ADD DUP2 SWAP1 MSTORE PUSH1 0x24 DUP3 ADD MSTORE PUSH32 0x4E6F7420656E6F756768207374616B696E6720746F6B656E2062616C616E6365 PUSH1 0x44 DUP3 ADD MSTORE PUSH1 0x64 ADD PUSH2 0x91B JUMP JUMPDEST PUSH2 0x1686 DUP6 PUSH2 0x111A JUMP JUMPDEST PUSH1 0x3 DUP3 ADD SLOAD DUP2 SLOAD PUSH1 0x0 SWAP2 DUP3 SWAP2 PUSH2 0x169B SWAP2 PUSH2 0x2AF4 JUMP JUMPDEST SWAP2 POP SWAP2 POP DUP2 PUSH2 0x16BC JUMPI PUSH1 0x40 MLOAD PUSH3 0x461BCD PUSH1 0xE5 SHL DUP2 MSTORE PUSH1 0x4 ADD PUSH2 0x91B SWAP1 PUSH2 0x3720 JUMP JUMPDEST PUSH2 0x16C7 DUP2 PUSH1 0x1 PUSH2 0x2B3F JUMP JUMPDEST SWAP1 SWAP3 POP SWAP1 POP DUP2 PUSH2 0x1705 JUMPI PUSH1 0x40 MLOAD PUSH3 0x461BCD PUSH1 0xE5 SHL DUP2 MSTORE PUSH1 0x20 PUSH1 0x4 DUP3 ADD MSTORE PUSH1 0x9 PUSH1 0x24 DUP3 ADD MSTORE PUSH9 0x37BB32B9333637BB99 PUSH1 0xB9 SHL PUSH1 0x44 DUP3 ADD MSTORE PUSH1 0x64 ADD PUSH2 0x91B JUMP JUMPDEST PUSH1 0x1 DUP4 ADD SLOAD PUSH2 0x1715 SWAP1 DUP3 SWAP1 PUSH2 0x2BD6 JUMP JUMPDEST SWAP1 SWAP3 POP SWAP1 POP DUP2 PUSH2 0x1753 JUMPI PUSH1 0x40 MLOAD PUSH3 0x461BCD PUSH1 0xE5 SHL DUP2 MSTORE PUSH1 0x20 PUSH1 0x4 DUP3 ADD MSTORE PUSH1 0x9 PUSH1 0x24 DUP3 ADD MSTORE PUSH9 0x6F766572666C6F7733 PUSH1 0xB8 SHL PUSH1 0x44 DUP3 ADD MSTORE PUSH1 0x64 ADD PUSH2 0x91B JUMP JUMPDEST DUP1 ISZERO PUSH2 0x1773 JUMPI DUP1 DUP4 PUSH1 0x2 ADD PUSH1 0x0 DUP3 DUP3 SLOAD PUSH2 0x176D SWAP2 SWAP1 PUSH2 0x367C JUMP JUMPDEST SWAP1 SWAP2 SSTORE POP POP JUMPDEST DUP6 ISZERO PUSH2 0x17E3 JUMPI DUP6 DUP4 PUSH1 0x0 ADD PUSH1 0x0 DUP3 DUP3 SLOAD PUSH2 0x178D SWAP2 SWAP1 PUSH2 0x36A8 JUMP JUMPDEST SWAP3 POP POP DUP2 SWAP1 SSTORE POP DUP3 PUSH1 0x3 ADD PUSH1 0x40 MLOAD DUP1 PUSH1 0x40 ADD PUSH1 0x40 MSTORE DUP1 DUP9 DUP2 MSTORE PUSH1 0x20 ADD DUP7 PUSH1 0x6 ADD SLOAD NUMBER PUSH2 0x17B9 SWAP2 SWAP1 PUSH2 0x367C JUMP JUMPDEST SWAP1 MSTORE DUP2 SLOAD PUSH1 0x1 DUP2 DUP2 ADD DUP5 SSTORE PUSH1 0x0 SWAP4 DUP5 MSTORE PUSH1 0x20 SWAP4 DUP5 SWAP1 KECCAK256 DUP4 MLOAD PUSH1 0x2 SWAP1 SWAP4 MUL ADD SWAP2 DUP3 SSTORE SWAP3 SWAP1 SWAP2 ADD MLOAD SWAP2 ADD SSTORE JUMPDEST DUP6 DUP5 PUSH1 0x4 ADD PUSH1 0x0 DUP3 DUP3 SLOAD PUSH2 0x17F7 SWAP2 SWAP1 PUSH2 0x36A8 JUMP JUMPDEST SWAP1 SWAP2 SSTORE POP POP PUSH1 0x3 DUP5 ADD SLOAD DUP4 SLOAD PUSH8 0xDE0B6B3A7640000 SWAP2 PUSH2 0x1816 SWAP2 PUSH2 0x36D1 JUMP JUMPDEST PUSH2 0x1820 SWAP2 SWAP1 PUSH2 0x36FE JUMP JUMPDEST PUSH1 0x1 DUP5 ADD SSTORE PUSH1 0x40 MLOAD DUP7 DUP2 MSTORE DUP8 SWAP1 CALLER SWAP1 PUSH32 0xC80277265097707F6F12A4AC4C09D46C9926E2EEA2536F63616CB04D9FCAD7D6 SWAP1 PUSH1 0x20 ADD PUSH2 0x12DC JUMP JUMPDEST PUSH1 0x5 SLOAD PUSH1 0x0 SWAP1 DUP4 SWAP1 DUP2 LT PUSH2 0x187F JUMPI PUSH1 0x40 MLOAD PUSH3 0x461BCD PUSH1 0xE5 SHL DUP2 MSTORE PUSH1 0x4 ADD PUSH2 0x91B SWAP1 PUSH2 0x35FF JUMP JUMPDEST PUSH2 0x188A DUP5 DUP5 NUMBER PUSH2 0xD9D JUMP JUMPDEST SWAP5 SWAP4 POP POP POP POP JUMP JUMPDEST PUSH1 0x0 DUP1 MLOAD PUSH1 0x20 PUSH2 0x3795 DUP4 CODECOPY DUP2 MLOAD SWAP2 MSTORE PUSH2 0x18AA DUP2 PUSH2 0x26EA JUMP JUMPDEST PUSH1 0x3 DUP1 SLOAD PUSH1 0xFF PUSH2 0x100 DUP1 DUP4 DIV DUP3 AND ISZERO DUP2 MUL PUSH2 0xFF00 NOT SWAP1 SWAP4 AND SWAP3 SWAP1 SWAP3 OR SWAP3 DUP4 SWAP1 SSTORE SWAP2 DIV AND ISZERO PUSH2 0x18FE JUMPI PUSH1 0x40 MLOAD PUSH32 0x443BF540E8151617CD5C39A681CC35A5A22BE078B6F0CF16E5BD822B4C4B61FF SWAP1 PUSH1 0x0 SWAP1 LOG1 POP JUMP JUMPDEST PUSH1 0x40 MLOAD PUSH32 0x7C8FAF23A72A53EB5C2C466DC81386A58B2A27D0CC3C7C580A3C12E372BA313 SWAP1 PUSH1 0x0 SWAP1 LOG1 POP JUMP JUMPDEST PUSH1 0x0 DUP1 MLOAD PUSH1 0x20 PUSH2 0x3795 DUP4 CODECOPY DUP2 MLOAD SWAP2 MSTORE PUSH2 0x1942 DUP2 PUSH2 0x26EA JUMP JUMPDEST PUSH1 0x5 SLOAD ISZERO PUSH2 0x19D5 JUMPI PUSH1 0x0 PUSH1 0x1 PUSH1 0x1 PUSH1 0xA0 SHL SUB AND PUSH1 0x5 PUSH1 0x0 DUP2 SLOAD DUP2 LT PUSH2 0x1969 JUMPI PUSH2 0x1969 PUSH2 0x3650 JUMP JUMPDEST PUSH1 0x0 SWAP2 DUP3 MSTORE PUSH1 0x20 SWAP1 SWAP2 KECCAK256 PUSH1 0x7 SWAP1 SWAP2 MUL ADD SLOAD PUSH1 0x1 PUSH1 0x1 PUSH1 0xA0 SHL SUB AND EQ PUSH2 0x19D0 JUMPI PUSH1 0x40 MLOAD PUSH3 0x461BCD PUSH1 0xE5 SHL DUP2 MSTORE PUSH1 0x20 PUSH1 0x4 DUP3 ADD MSTORE PUSH1 0x1F PUSH1 0x24 DUP3 ADD MSTORE PUSH32 0x74686520666972737420706F6F6C206D7573742062652045544820706F6F6C00 PUSH1 0x44 DUP3 ADD MSTORE PUSH1 0x64 ADD PUSH2 0x91B JUMP JUMPDEST PUSH2 0x1A2C JUMP JUMPDEST PUSH1 0x1 PUSH1 0x1 PUSH1 0xA0 SHL SUB DUP7 AND ISZERO PUSH2 0x1A2C JUMPI PUSH1 0x40 MLOAD PUSH3 0x461BCD PUSH1 0xE5 SHL DUP2 MSTORE PUSH1 0x20 PUSH1 0x4 DUP3 ADD MSTORE PUSH1 0x1F PUSH1 0x24 DUP3 ADD MSTORE PUSH32 0x74686520666972737420706F6F6C206D7573742062652045544820706F6F6C00 PUSH1 0x44 DUP3 ADD MSTORE PUSH1 0x64 ADD PUSH2 0x91B JUMP JUMPDEST PUSH1 0x0 DUP4 GT PUSH2 0x1A7C JUMPI PUSH1 0x40 MLOAD PUSH3 0x461BCD PUSH1 0xE5 SHL DUP2 MSTORE PUSH1 0x20 PUSH1 0x4 DUP3 ADD MSTORE PUSH1 0x1E PUSH1 0x24 DUP3 ADD MSTORE PUSH32 0x696E76616C6964207769746864726177206C6F636B656420626C6F636B730000 PUSH1 0x44 DUP3 ADD MSTORE PUSH1 0x64 ADD PUSH2 0x91B JUMP JUMPDEST PUSH1 0x1 SLOAD NUMBER LT PUSH2 0x1ABD JUMPI PUSH1 0x40 MLOAD PUSH3 0x461BCD PUSH1 0xE5 SHL DUP2 MSTORE PUSH1 0x20 PUSH1 0x4 DUP3 ADD MSTORE PUSH1 0xD PUSH1 0x24 DUP3 ADD MSTORE PUSH13 0x185B1C9958591E48195B991959 PUSH1 0x9A SHL PUSH1 0x44 DUP3 ADD MSTORE PUSH1 0x64 ADD PUSH2 0x91B JUMP JUMPDEST DUP2 ISZERO PUSH2 0x1ACB JUMPI PUSH2 0x1ACB PUSH2 0x13B8 JUMP JUMPDEST PUSH1 0x0 DUP1 SLOAD NUMBER GT PUSH2 0x1ADD JUMPI PUSH1 0x0 SLOAD PUSH2 0x1ADF JUMP JUMPDEST NUMBER JUMPDEST SWAP1 POP DUP6 PUSH1 0x4 PUSH1 0x0 DUP3 DUP3 SLOAD PUSH2 0x1AF3 SWAP2 SWAP1 PUSH2 0x367C JUMP JUMPDEST SWAP1 SWAP2 SSTORE POP POP PUSH1 0x40 DUP1 MLOAD PUSH1 0xE0 DUP2 ADD DUP3 MSTORE PUSH1 0x1 PUSH1 0x1 PUSH1 0xA0 SHL SUB DUP10 DUP2 AND DUP1 DUP4 MSTORE PUSH1 0x20 DUP1 DUP5 ADD DUP12 DUP2 MSTORE DUP5 DUP7 ADD DUP8 DUP2 MSTORE PUSH1 0x0 PUSH1 0x60 DUP8 ADD DUP2 DUP2 MSTORE PUSH1 0x80 DUP9 ADD DUP3 DUP2 MSTORE PUSH1 0xA0 DUP10 ADD DUP16 DUP2 MSTORE PUSH1 0xC0 DUP11 ADD DUP16 DUP2 MSTORE PUSH1 0x5 DUP1 SLOAD PUSH1 0x1 DUP2 ADD DUP3 SSTORE SWAP6 MSTORE SWAP10 MLOAD PUSH32 0x36B6384B5ECA791C62761152D0C79BB0604C104A5FB6F4EB0703F3154BB3DB0 PUSH1 0x7 SWAP1 SWAP6 MUL SWAP5 DUP6 ADD DUP1 SLOAD PUSH1 0x1 PUSH1 0x1 PUSH1 0xA0 SHL SUB NOT AND SWAP2 SWAP1 SWAP11 AND OR SWAP1 SWAP9 SSTORE SWAP4 MLOAD PUSH32 0x36B6384B5ECA791C62761152D0C79BB0604C104A5FB6F4EB0703F3154BB3DB1 DUP4 ADD SSTORE SWAP2 MLOAD PUSH32 0x36B6384B5ECA791C62761152D0C79BB0604C104A5FB6F4EB0703F3154BB3DB2 DUP3 ADD SSTORE SWAP1 MLOAD PUSH32 0x36B6384B5ECA791C62761152D0C79BB0604C104A5FB6F4EB0703F3154BB3DB3 DUP3 ADD SSTORE SWAP1 MLOAD PUSH32 0x36B6384B5ECA791C62761152D0C79BB0604C104A5FB6F4EB0703F3154BB3DB4 DUP3 ADD SSTORE SWAP3 MLOAD PUSH32 0x36B6384B5ECA791C62761152D0C79BB0604C104A5FB6F4EB0703F3154BB3DB5 DUP5 ADD SSTORE SWAP3 MLOAD PUSH32 0x36B6384B5ECA791C62761152D0C79BB0604C104A5FB6F4EB0703F3154BB3DB6 SWAP1 SWAP3 ADD SWAP2 SWAP1 SWAP2 SSTORE DUP3 MLOAD DUP9 DUP2 MSTORE SWAP2 DUP3 ADD DUP8 SWAP1 MSTORE DUP4 SWAP3 DUP10 SWAP3 PUSH32 0xFA296FCE13E7A0E622B3A892E66220C248337289483A3CFA4130CDE0CAA1346 SWAP2 ADD PUSH1 0x40 MLOAD DUP1 SWAP2 SUB SWAP1 LOG4 POP POP POP POP POP POP POP JUMP JUMPDEST PUSH1 0x0 DUP1 MLOAD PUSH1 0x20 PUSH2 0x3795 DUP4 CODECOPY DUP2 MLOAD SWAP2 MSTORE PUSH2 0x1CCA DUP2 PUSH2 0x26EA JUMP JUMPDEST PUSH1 0x0 DUP3 GT PUSH2 0x1D12 JUMPI PUSH1 0x40 MLOAD PUSH3 0x461BCD PUSH1 0xE5 SHL DUP2 MSTORE PUSH1 0x20 PUSH1 0x4 DUP3 ADD MSTORE PUSH1 0x15 PUSH1 0x24 DUP3 ADD MSTORE PUSH21 0x496E76616C6964205243432070657220626C6F636B PUSH1 0x58 SHL PUSH1 0x44 DUP3 ADD MSTORE PUSH1 0x64 ADD PUSH2 0x91B JUMP JUMPDEST PUSH1 0x2 DUP3 SWAP1 SSTORE PUSH1 0x40 MLOAD DUP3 SWAP1 PUSH32 0x4C70925B625536DD633F6BD2D615C67FDDC2E7C63C31164047A981A0DF3FEE54 SWAP1 PUSH1 0x0 SWAP1 LOG2 POP POP JUMP JUMPDEST PUSH1 0x0 DUP1 MLOAD PUSH1 0x20 PUSH2 0x3795 DUP4 CODECOPY DUP2 MLOAD SWAP2 MSTORE PUSH2 0x1D5E DUP2 PUSH2 0x26EA JUMP JUMPDEST DUP2 PUSH1 0x0 SLOAD GT ISZERO PUSH2 0x1DA4 JUMPI PUSH1 0x40 MLOAD PUSH3 0x461BCD PUSH1 0xE5 SHL DUP2 MSTORE PUSH1 0x20 PUSH1 0x4 DUP3 ADD MSTORE PUSH1 0x11 PUSH1 0x24 DUP3 ADD MSTORE PUSH17 0x496E76616C696420656E6420626C6F636B PUSH1 0x78 SHL PUSH1 0x44 DUP3 ADD MSTORE PUSH1 0x64 ADD PUSH2 0x91B JUMP JUMPDEST PUSH1 0x1 DUP3 SWAP1 SSTORE PUSH1 0x40 MLOAD DUP3 SWAP1 PUSH32 0x1132C5BACCB51DA3D049FABC819697DC845FA224AD59D9B555507D6446B40850 SWAP1 PUSH1 0x0 SWAP1 LOG2 POP POP JUMP JUMPDEST PUSH2 0x1DE1 DUP3 PUSH2 0x951 JUMP JUMPDEST PUSH2 0x1DEA DUP2 PUSH2 0x26EA JUMP JUMPDEST PUSH2 0xBF0 DUP4 DUP4 PUSH2 0x2799 JUMP JUMPDEST PUSH1 0x5 SLOAD DUP4 SWAP1 DUP2 LT PUSH2 0x1E17 JUMPI PUSH1 0x40 MLOAD PUSH3 0x461BCD PUSH1 0xE5 SHL DUP2 MSTORE PUSH1 0x4 ADD PUSH2 0x91B SWAP1 PUSH2 0x35FF JUMP JUMPDEST PUSH1 0x0 DUP1 MLOAD PUSH1 0x20 PUSH2 0x3795 DUP4 CODECOPY DUP2 MLOAD SWAP2 MSTORE PUSH2 0x1E2F DUP2 PUSH2 0x26EA JUMP JUMPDEST PUSH1 0x5 SLOAD DUP6 LT PUSH2 0x1E72 JUMPI PUSH1 0x40 MLOAD PUSH3 0x461BCD PUSH1 0xE5 SHL DUP2 MSTORE PUSH1 0x20 PUSH1 0x4 DUP3 ADD MSTORE PUSH1 0xF PUSH1 0x24 DUP3 ADD MSTORE PUSH15 0x1A5B9D985B1A59081C1BDBDB081A59 PUSH1 0x8A SHL PUSH1 0x44 DUP3 ADD MSTORE PUSH1 0x64 ADD PUSH2 0x91B JUMP JUMPDEST DUP4 PUSH1 0x5 DUP7 DUP2 SLOAD DUP2 LT PUSH2 0x1E86 JUMPI PUSH2 0x1E86 PUSH2 0x3650 JUMP JUMPDEST SWAP1 PUSH1 0x0 MSTORE PUSH1 0x20 PUSH1 0x0 KECCAK256 SWAP1 PUSH1 0x7 MUL ADD PUSH1 0x5 ADD DUP2 SWAP1 SSTORE POP DUP3 PUSH1 0x5 DUP7 DUP2 SLOAD DUP2 LT PUSH2 0x1EAF JUMPI PUSH2 0x1EAF PUSH2 0x3650 JUMP JUMPDEST SWAP1 PUSH1 0x0 MSTORE PUSH1 0x20 PUSH1 0x0 KECCAK256 SWAP1 PUSH1 0x7 MUL ADD PUSH1 0x6 ADD DUP2 SWAP1 SSTORE POP DUP3 DUP5 DUP7 PUSH32 0x30DFFDEDAA3E3B4849298233F7CD71D229956E875AB09270498C96B7CF9181FD PUSH1 0x40 MLOAD PUSH1 0x40 MLOAD DUP1 SWAP2 SUB SWAP1 LOG4 POP POP POP POP POP JUMP JUMPDEST PUSH1 0x3 SLOAD PUSH1 0xFF AND ISZERO PUSH2 0x1F1D JUMPI PUSH1 0x40 MLOAD PUSH3 0x461BCD PUSH1 0xE5 SHL DUP2 MSTORE PUSH1 0x4 ADD PUSH2 0x91B SWAP1 PUSH2 0x3624 JUMP JUMPDEST PUSH1 0x5 SLOAD DUP3 SWAP1 DUP2 LT PUSH2 0x1F40 JUMPI PUSH1 0x40 MLOAD PUSH3 0x461BCD PUSH1 0xE5 SHL DUP2 MSTORE PUSH1 0x4 ADD PUSH2 0x91B SWAP1 PUSH2 0x35FF JUMP JUMPDEST DUP3 PUSH1 0x0 SUB PUSH2 0x1F90 JUMPI PUSH1 0x40 MLOAD PUSH3 0x461BCD PUSH1 0xE5 SHL DUP2 MSTORE PUSH1 0x20 PUSH1 0x4 DUP3 ADD MSTORE PUSH1 0x1F PUSH1 0x24 DUP3 ADD MSTORE PUSH32 0x6465706F736974206E6F7420737570706F727420455448207374616B696E6700 PUSH1 0x44 DUP3 ADD MSTORE PUSH1 0x64 ADD PUSH2 0x91B JUMP JUMPDEST PUSH1 0x0 PUSH1 0x5 DUP5 DUP2 SLOAD DUP2 LT PUSH2 0x1FA5 JUMPI PUSH2 0x1FA5 PUSH2 0x3650 JUMP JUMPDEST SWAP1 PUSH1 0x0 MSTORE PUSH1 0x20 PUSH1 0x0 KECCAK256 SWAP1 PUSH1 0x7 MUL ADD SWAP1 POP DUP1 PUSH1 0x5 ADD SLOAD DUP4 GT PUSH2 0x2001 JUMPI PUSH1 0x40 MLOAD PUSH3 0x461BCD PUSH1 0xE5 SHL DUP2 MSTORE PUSH1 0x20 PUSH1 0x4 DUP3 ADD MSTORE PUSH1 0x16 PUSH1 0x24 DUP3 ADD MSTORE PUSH22 0x1A5B9D985B1A590819195C1BDCDA5D08185B5BDD5B9D PUSH1 0x52 SHL PUSH1 0x44 DUP3 ADD MSTORE PUSH1 0x64 ADD PUSH2 0x91B JUMP JUMPDEST DUP3 ISZERO PUSH2 0x201E JUMPI DUP1 SLOAD PUSH2 0x201E SWAP1 PUSH1 0x1 PUSH1 0x1 PUSH1 0xA0 SHL SUB AND CALLER ADDRESS DUP7 PUSH2 0x2BF8 JUMP JUMPDEST PUSH2 0xBF0 DUP5 DUP5 PUSH2 0x2C31 JUMP JUMPDEST PUSH1 0x0 DUP1 MLOAD PUSH1 0x20 PUSH2 0x3795 DUP4 CODECOPY DUP2 MLOAD SWAP2 MSTORE PUSH2 0x2040 DUP2 PUSH2 0x26EA JUMP JUMPDEST PUSH1 0x1 SLOAD DUP3 GT ISZERO PUSH2 0x2088 JUMPI PUSH1 0x40 MLOAD PUSH3 0x461BCD PUSH1 0xE5 SHL DUP2 MSTORE PUSH1 0x20 PUSH1 0x4 DUP3 ADD MSTORE PUSH1 0x13 PUSH1 0x24 DUP3 ADD MSTORE PUSH19 0x496E76616C696420737461727420626C6F636B PUSH1 0x68 SHL PUSH1 0x44 DUP3 ADD MSTORE PUSH1 0x64 ADD PUSH2 0x91B JUMP JUMPDEST PUSH1 0x0 DUP3 DUP2 SSTORE PUSH1 0x40 MLOAD DUP4 SWAP2 PUSH32 0x63B90B79F11A0F132BCB2C4A4DDD44ABDA45C1308A83B2919318DF7F5F8B7BE4 SWAP2 LOG2 POP POP JUMP JUMPDEST PUSH1 0x0 DUP1 MLOAD PUSH1 0x20 PUSH2 0x3795 DUP4 CODECOPY DUP2 MLOAD SWAP2 MSTORE PUSH2 0x20D1 DUP2 PUSH2 0x26EA JUMP JUMPDEST PUSH1 0x3 DUP1 SLOAD PUSH3 0x10000 PUSH1 0x1 PUSH1 0xB0 SHL SUB NOT AND PUSH3 0x10000 PUSH1 0x1 PUSH1 0x1 PUSH1 0xA0 SHL SUB DUP6 DUP2 AND DUP3 MUL SWAP3 SWAP1 SWAP3 OR SWAP3 DUP4 SWAP1 SSTORE PUSH1 0x40 MLOAD SWAP3 DIV AND SWAP1 PUSH32 0x153AAE53B92218044BD5F43922617C6B253E50AC98A41B44C3ACB5625DED3488 SWAP1 PUSH1 0x0 SWAP1 LOG2 POP POP JUMP JUMPDEST PUSH2 0x2133 PUSH2 0x252B JUMP JUMPDEST PUSH1 0x0 PUSH1 0x5 PUSH1 0x0 DUP2 SLOAD DUP2 LT PUSH2 0x2149 JUMPI PUSH2 0x2149 PUSH2 0x3650 JUMP JUMPDEST PUSH1 0x0 SWAP2 DUP3 MSTORE PUSH1 0x20 SWAP1 SWAP2 KECCAK256 PUSH1 0x7 SWAP1 SWAP2 MUL ADD DUP1 SLOAD SWAP1 SWAP2 POP PUSH1 0x1 PUSH1 0x1 PUSH1 0xA0 SHL SUB AND ISZERO PUSH2 0x21B4 JUMPI PUSH1 0x40 MLOAD PUSH3 0x461BCD PUSH1 0xE5 SHL DUP2 MSTORE PUSH1 0x20 PUSH1 0x4 DUP3 ADD MSTORE PUSH1 0x1E PUSH1 0x24 DUP3 ADD MSTORE PUSH32 0x45544820706F6F6C206D75737420626520637265617465642066697273740000 PUSH1 0x44 DUP3 ADD MSTORE PUSH1 0x64 ADD PUSH2 0x91B JUMP JUMPDEST PUSH1 0x5 DUP2 ADD SLOAD CALLVALUE SWAP1 DUP2 LT ISZERO PUSH2 0x2203 JUMPI PUSH1 0x40 MLOAD PUSH3 0x461BCD PUSH1 0xE5 SHL DUP2 MSTORE PUSH1 0x20 PUSH1 0x4 DUP3 ADD MSTORE PUSH1 0x16 PUSH1 0x24 DUP3 ADD MSTORE PUSH22 0x1A5B9D985B1A590819195C1BDCDA5D08185B5BDD5B9D PUSH1 0x52 SHL PUSH1 0x44 DUP3 ADD MSTORE PUSH1 0x64 ADD PUSH2 0x91B JUMP JUMPDEST PUSH2 0x1116 PUSH1 0x0 DUP3 PUSH2 0x2C31 JUMP JUMPDEST PUSH1 0x0 DUP1 MLOAD PUSH1 0x20 PUSH2 0x3795 DUP4 CODECOPY DUP2 MLOAD SWAP2 MSTORE PUSH2 0x2226 DUP2 PUSH2 0x26EA JUMP JUMPDEST PUSH1 0x5 SLOAD DUP5 LT PUSH2 0x2269 JUMPI PUSH1 0x40 MLOAD PUSH3 0x461BCD PUSH1 0xE5 SHL DUP2 MSTORE PUSH1 0x20 PUSH1 0x4 DUP3 ADD MSTORE PUSH1 0xF PUSH1 0x24 DUP3 ADD MSTORE PUSH15 0x1A5B9D985B1A59081C1BDBDB081A59 PUSH1 0x8A SHL PUSH1 0x44 DUP3 ADD MSTORE PUSH1 0x64 ADD PUSH2 0x91B JUMP JUMPDEST PUSH1 0x0 DUP4 GT PUSH2 0x22AF JUMPI PUSH1 0x40 MLOAD PUSH3 0x461BCD PUSH1 0xE5 SHL DUP2 MSTORE PUSH1 0x20 PUSH1 0x4 DUP3 ADD MSTORE PUSH1 0x13 PUSH1 0x24 DUP3 ADD MSTORE PUSH19 0x1A5B9D985B1A59081C1BDBDB081DD95A59DA1D PUSH1 0x6A SHL PUSH1 0x44 DUP3 ADD MSTORE PUSH1 0x64 ADD PUSH2 0x91B JUMP JUMPDEST DUP2 ISZERO PUSH2 0x22BD JUMPI PUSH2 0x22BD PUSH2 0x13B8 JUMP JUMPDEST PUSH1 0x0 DUP1 PUSH2 0x22D5 DUP6 PUSH1 0x4 SLOAD PUSH2 0x2B72 SWAP1 SWAP2 SWAP1 PUSH4 0xFFFFFFFF AND JUMP JUMPDEST SWAP2 POP SWAP2 POP DUP2 PUSH2 0x2326 JUMPI PUSH1 0x40 MLOAD PUSH3 0x461BCD PUSH1 0xE5 SHL DUP2 MSTORE PUSH1 0x20 PUSH1 0x4 DUP3 ADD MSTORE PUSH1 0x1A PUSH1 0x24 DUP3 ADD MSTORE PUSH32 0x746F74616C20706F6F6C20776569676874206F766572666C6F77000000000000 PUSH1 0x44 DUP3 ADD MSTORE PUSH1 0x64 ADD PUSH2 0x91B JUMP JUMPDEST PUSH1 0x5 DUP7 DUP2 SLOAD DUP2 LT PUSH2 0x2339 JUMPI PUSH2 0x2339 PUSH2 0x3650 JUMP JUMPDEST SWAP1 PUSH1 0x0 MSTORE PUSH1 0x20 PUSH1 0x0 KECCAK256 SWAP1 PUSH1 0x7 MUL ADD PUSH1 0x1 ADD SLOAD DUP2 PUSH2 0x2356 SWAP2 SWAP1 PUSH2 0x36A8 JUMP JUMPDEST PUSH1 0x4 DUP2 SWAP1 SSTORE POP DUP5 PUSH1 0x5 DUP8 DUP2 SLOAD DUP2 LT PUSH2 0x2370 JUMPI PUSH2 0x2370 PUSH2 0x3650 JUMP JUMPDEST SWAP1 PUSH1 0x0 MSTORE PUSH1 0x20 PUSH1 0x0 KECCAK256 SWAP1 PUSH1 0x7 MUL ADD PUSH1 0x1 ADD DUP2 SWAP1 SSTORE POP DUP6 PUSH32 0x4B8FA3D6A87CB21D1BF4978BF60628AE358A28AC7F39DE1751A481C6DD957617 DUP7 PUSH1 0x4 SLOAD PUSH1 0x40 MLOAD PUSH2 0x23C2 SWAP3 SWAP2 SWAP1 SWAP2 DUP3 MSTORE PUSH1 0x20 DUP3 ADD MSTORE PUSH1 0x40 ADD SWAP1 JUMP JUMPDEST PUSH1 0x40 MLOAD DUP1 SWAP2 SUB SWAP1 LOG2 POP POP POP POP POP POP JUMP JUMPDEST PUSH1 0x5 DUP2 DUP2 SLOAD DUP2 LT PUSH2 0x23E2 JUMPI PUSH1 0x0 DUP1 REVERT JUMPDEST PUSH1 0x0 SWAP2 DUP3 MSTORE PUSH1 0x20 SWAP1 SWAP2 KECCAK256 PUSH1 0x7 SWAP1 SWAP2 MUL ADD DUP1 SLOAD PUSH1 0x1 DUP3 ADD SLOAD PUSH1 0x2 DUP4 ADD SLOAD PUSH1 0x3 DUP5 ADD SLOAD PUSH1 0x4 DUP6 ADD SLOAD PUSH1 0x5 DUP7 ADD SLOAD PUSH1 0x6 SWAP1 SWAP7 ADD SLOAD PUSH1 0x1 PUSH1 0x1 PUSH1 0xA0 SHL SUB SWAP1 SWAP6 AND SWAP7 POP SWAP3 SWAP5 SWAP2 SWAP4 SWAP1 SWAP3 SWAP2 SWAP1 DUP8 JUMP JUMPDEST PUSH1 0x0 DUP1 DUP4 PUSH1 0x5 DUP1 SLOAD SWAP1 POP DUP2 LT PUSH2 0x2453 JUMPI PUSH1 0x40 MLOAD PUSH3 0x461BCD PUSH1 0xE5 SHL DUP2 MSTORE PUSH1 0x4 ADD PUSH2 0x91B SWAP1 PUSH2 0x35FF JUMP JUMPDEST PUSH1 0x0 DUP6 DUP2 MSTORE PUSH1 0x6 PUSH1 0x20 SWAP1 DUP2 MSTORE PUSH1 0x40 DUP1 DUP4 KECCAK256 PUSH1 0x1 PUSH1 0x1 PUSH1 0xA0 SHL SUB DUP9 AND DUP5 MSTORE SWAP1 SWAP2 MSTORE DUP2 KECCAK256 SWAP1 JUMPDEST PUSH1 0x3 DUP3 ADD SLOAD DUP2 LT ISZERO PUSH2 0x2521 JUMPI NUMBER DUP3 PUSH1 0x3 ADD DUP3 DUP2 SLOAD DUP2 LT PUSH2 0x2499 JUMPI PUSH2 0x2499 PUSH2 0x3650 JUMP JUMPDEST SWAP1 PUSH1 0x0 MSTORE PUSH1 0x20 PUSH1 0x0 KECCAK256 SWAP1 PUSH1 0x2 MUL ADD PUSH1 0x1 ADD SLOAD GT PUSH2 0x24E5 JUMPI DUP2 PUSH1 0x3 ADD DUP2 DUP2 SLOAD DUP2 LT PUSH2 0x24C5 JUMPI PUSH2 0x24C5 PUSH2 0x3650 JUMP JUMPDEST SWAP1 PUSH1 0x0 MSTORE PUSH1 0x20 PUSH1 0x0 KECCAK256 SWAP1 PUSH1 0x2 MUL ADD PUSH1 0x0 ADD SLOAD DUP5 PUSH2 0x24E2 SWAP2 SWAP1 PUSH2 0x367C JUMP JUMPDEST SWAP4 POP JUMPDEST DUP2 PUSH1 0x3 ADD DUP2 DUP2 SLOAD DUP2 LT PUSH2 0x24FA JUMPI PUSH2 0x24FA PUSH2 0x3650 JUMP JUMPDEST SWAP1 PUSH1 0x0 MSTORE PUSH1 0x20 PUSH1 0x0 KECCAK256 SWAP1 PUSH1 0x2 MUL ADD PUSH1 0x0 ADD SLOAD DUP6 PUSH2 0x2517 SWAP2 SWAP1 PUSH2 0x367C JUMP JUMPDEST SWAP5 POP PUSH1 0x1 ADD PUSH2 0x2477 JUMP JUMPDEST POP POP POP SWAP3 POP SWAP3 SWAP1 POP JUMP JUMPDEST PUSH32 0xCD5ED15C6E187E77E9AEE88184C21F4F2182AB5827CB3B7E07FBEDCD63F03300 SLOAD PUSH1 0xFF AND ISZERO PUSH2 0x256E JUMPI PUSH1 0x40 MLOAD PUSH4 0xD93C0665 PUSH1 0xE0 SHL DUP2 MSTORE PUSH1 0x4 ADD PUSH1 0x40 MLOAD DUP1 SWAP2 SUB SWAP1 REVERT JUMPDEST JUMP JUMPDEST PUSH1 0x0 DUP1 DUP4 PUSH1 0x1 PUSH1 0x1 PUSH1 0xA0 SHL SUB AND DUP4 PUSH1 0x40 MLOAD PUSH1 0x0 PUSH1 0x40 MLOAD DUP1 DUP4 SUB DUP2 DUP6 DUP8 GAS CALL SWAP3 POP POP POP RETURNDATASIZE DUP1 PUSH1 0x0 DUP2 EQ PUSH2 0x25BE JUMPI PUSH1 0x40 MLOAD SWAP2 POP PUSH1 0x1F NOT PUSH1 0x3F RETURNDATASIZE ADD AND DUP3 ADD PUSH1 0x40 MSTORE RETURNDATASIZE DUP3 MSTORE RETURNDATASIZE PUSH1 0x0 PUSH1 0x20 DUP5 ADD RETURNDATACOPY PUSH2 0x25C3 JUMP JUMPDEST PUSH1 0x60 SWAP2 POP JUMPDEST POP SWAP2 POP SWAP2 POP DUP2 PUSH2 0x2615 JUMPI PUSH1 0x40 MLOAD PUSH3 0x461BCD PUSH1 0xE5 SHL DUP2 MSTORE PUSH1 0x20 PUSH1 0x4 DUP3 ADD MSTORE PUSH1 0x18 PUSH1 0x24 DUP3 ADD MSTORE PUSH32 0x455448207472616E736665722063616C6C206661696C65640000000000000000 PUSH1 0x44 DUP3 ADD MSTORE PUSH1 0x64 ADD PUSH2 0x91B JUMP JUMPDEST DUP1 MLOAD ISZERO PUSH2 0xBF0 JUMPI DUP1 DUP1 PUSH1 0x20 ADD SWAP1 MLOAD DUP2 ADD SWAP1 PUSH2 0x2630 SWAP2 SWAP1 PUSH2 0x3742 JUMP JUMPDEST PUSH2 0xBF0 JUMPI PUSH1 0x40 MLOAD PUSH3 0x461BCD PUSH1 0xE5 SHL DUP2 MSTORE PUSH1 0x20 PUSH1 0x4 DUP3 ADD MSTORE PUSH1 0x26 PUSH1 0x24 DUP3 ADD MSTORE PUSH32 0x455448207472616E73666572206F7065726174696F6E20646964206E6F742073 PUSH1 0x44 DUP3 ADD MSTORE PUSH6 0x1D58D8D95959 PUSH1 0xD2 SHL PUSH1 0x64 DUP3 ADD MSTORE PUSH1 0x84 ADD PUSH2 0x91B JUMP JUMPDEST PUSH1 0x40 MLOAD PUSH1 0x1 PUSH1 0x1 PUSH1 0xA0 SHL SUB DUP4 DUP2 AND PUSH1 0x24 DUP4 ADD MSTORE PUSH1 0x44 DUP3 ADD DUP4 SWAP1 MSTORE PUSH2 0xC29 SWAP2 DUP6 SWAP2 DUP3 AND SWAP1 PUSH4 0xA9059CBB SWAP1 PUSH1 0x64 ADD JUMPDEST PUSH1 0x40 MLOAD PUSH1 0x20 DUP2 DUP4 SUB SUB DUP2 MSTORE SWAP1 PUSH1 0x40 MSTORE SWAP2 POP PUSH1 0xE0 SHL PUSH1 0x20 DUP3 ADD DUP1 MLOAD PUSH1 0x1 PUSH1 0x1 PUSH1 0xE0 SHL SUB DUP4 DUP2 DUP4 AND OR DUP4 MSTORE POP POP POP POP PUSH2 0x2FD0 JUMP JUMPDEST PUSH2 0x1460 DUP2 CALLER PUSH2 0x3041 JUMP JUMPDEST PUSH1 0x0 PUSH1 0x0 DUP1 MLOAD PUSH1 0x20 PUSH2 0x37D5 DUP4 CODECOPY DUP2 MLOAD SWAP2 MSTORE PUSH2 0x270F DUP5 DUP5 PUSH2 0x1569 JUMP JUMPDEST PUSH2 0x278F JUMPI PUSH1 0x0 DUP5 DUP2 MSTORE PUSH1 0x20 DUP3 DUP2 MSTORE PUSH1 0x40 DUP1 DUP4 KECCAK256 PUSH1 0x1 PUSH1 0x1 PUSH1 0xA0 SHL SUB DUP8 AND DUP5 MSTORE SWAP1 SWAP2 MSTORE SWAP1 KECCAK256 DUP1 SLOAD PUSH1 0xFF NOT AND PUSH1 0x1 OR SWAP1 SSTORE PUSH2 0x2745 CALLER SWAP1 JUMP JUMPDEST PUSH1 0x1 PUSH1 0x1 PUSH1 0xA0 SHL SUB AND DUP4 PUSH1 0x1 PUSH1 0x1 PUSH1 0xA0 SHL SUB AND DUP6 PUSH32 0x2F8788117E7EFF1D82E926EC794901D17C78024A50270940304540A733656F0D PUSH1 0x40 MLOAD PUSH1 0x40 MLOAD DUP1 SWAP2 SUB SWAP1 LOG4 PUSH1 0x1 SWAP2 POP POP PUSH2 0x8EF JUMP JUMPDEST PUSH1 0x0 SWAP2 POP POP PUSH2 0x8EF JUMP JUMPDEST PUSH1 0x0 PUSH1 0x0 DUP1 MLOAD PUSH1 0x20 PUSH2 0x37D5 DUP4 CODECOPY DUP2 MLOAD SWAP2 MSTORE PUSH2 0x27B4 DUP5 DUP5 PUSH2 0x1569 JUMP JUMPDEST ISZERO PUSH2 0x278F JUMPI PUSH1 0x0 DUP5 DUP2 MSTORE PUSH1 0x20 DUP3 DUP2 MSTORE PUSH1 0x40 DUP1 DUP4 KECCAK256 PUSH1 0x1 PUSH1 0x1 PUSH1 0xA0 SHL SUB DUP8 AND DUP1 DUP6 MSTORE SWAP3 MSTORE DUP1 DUP4 KECCAK256 DUP1 SLOAD PUSH1 0xFF NOT AND SWAP1 SSTORE MLOAD CALLER SWAP3 DUP8 SWAP2 PUSH32 0xF6391F5C32D9C69D2A47EA670B442974B53935D1EDC7FD64EB21E047A839171B SWAP2 SWAP1 LOG4 PUSH1 0x1 SWAP2 POP POP PUSH2 0x8EF JUMP JUMPDEST PUSH1 0x3 SLOAD PUSH1 0x40 MLOAD PUSH4 0x70A08231 PUSH1 0xE0 SHL DUP2 MSTORE ADDRESS PUSH1 0x4 DUP3 ADD MSTORE PUSH1 0x0 SWAP2 PUSH3 0x10000 SWAP1 DIV PUSH1 0x1 PUSH1 0x1 PUSH1 0xA0 SHL SUB AND SWAP1 PUSH4 0x70A08231 SWAP1 PUSH1 0x24 ADD PUSH1 0x20 PUSH1 0x40 MLOAD DUP1 DUP4 SUB DUP2 DUP7 GAS STATICCALL ISZERO DUP1 ISZERO PUSH2 0x2864 JUMPI RETURNDATASIZE PUSH1 0x0 DUP1 RETURNDATACOPY RETURNDATASIZE PUSH1 0x0 REVERT JUMPDEST POP POP POP POP PUSH1 0x40 MLOAD RETURNDATASIZE PUSH1 0x1F NOT PUSH1 0x1F DUP3 ADD AND DUP3 ADD DUP1 PUSH1 0x40 MSTORE POP DUP2 ADD SWAP1 PUSH2 0x2888 SWAP2 SWAP1 PUSH2 0x375F JUMP JUMPDEST SWAP1 POP DUP1 DUP3 GT PUSH2 0x2910 JUMPI PUSH1 0x3 SLOAD PUSH1 0x40 MLOAD PUSH4 0xA9059CBB PUSH1 0xE0 SHL DUP2 MSTORE PUSH1 0x1 PUSH1 0x1 PUSH1 0xA0 SHL SUB DUP6 DUP2 AND PUSH1 0x4 DUP4 ADD MSTORE PUSH1 0x24 DUP3 ADD DUP6 SWAP1 MSTORE PUSH3 0x10000 SWAP1 SWAP3 DIV SWAP1 SWAP2 AND SWAP1 PUSH4 0xA9059CBB SWAP1 PUSH1 0x44 ADD JUMPDEST PUSH1 0x20 PUSH1 0x40 MLOAD DUP1 DUP4 SUB DUP2 PUSH1 0x0 DUP8 GAS CALL ISZERO DUP1 ISZERO PUSH2 0x28EC JUMPI RETURNDATASIZE PUSH1 0x0 DUP1 RETURNDATACOPY RETURNDATASIZE PUSH1 0x0 REVERT JUMPDEST POP POP POP POP PUSH1 0x40 MLOAD RETURNDATASIZE PUSH1 0x1F NOT PUSH1 0x1F DUP3 ADD AND DUP3 ADD DUP1 PUSH1 0x40 MSTORE POP DUP2 ADD SWAP1 PUSH2 0xBF0 SWAP2 SWAP1 PUSH2 0x3742 JUMP JUMPDEST PUSH1 0x3 SLOAD PUSH1 0x40 MLOAD PUSH4 0xA9059CBB PUSH1 0xE0 SHL DUP2 MSTORE PUSH1 0x1 PUSH1 0x1 PUSH1 0xA0 SHL SUB DUP6 DUP2 AND PUSH1 0x4 DUP4 ADD MSTORE PUSH1 0x24 DUP3 ADD DUP5 SWAP1 MSTORE PUSH3 0x10000 SWAP1 SWAP3 DIV SWAP1 SWAP2 AND SWAP1 PUSH4 0xA9059CBB SWAP1 PUSH1 0x44 ADD PUSH2 0x28CD JUMP JUMPDEST PUSH2 0x256E PUSH2 0x307A JUMP JUMPDEST PUSH2 0x2960 PUSH2 0x307A JUMP JUMPDEST PUSH2 0x256E PUSH2 0x30C3 JUMP JUMPDEST ADDRESS PUSH1 0x1 PUSH1 0x1 PUSH1 0xA0 SHL SUB PUSH32 0x0 AND EQ DUP1 PUSH2 0x29EF JUMPI POP PUSH32 0x0 PUSH1 0x1 PUSH1 0x1 PUSH1 0xA0 SHL SUB AND PUSH2 0x29E3 PUSH1 0x0 DUP1 MLOAD PUSH1 0x20 PUSH2 0x37B5 DUP4 CODECOPY DUP2 MLOAD SWAP2 MSTORE SLOAD PUSH1 0x1 PUSH1 0x1 PUSH1 0xA0 SHL SUB AND SWAP1 JUMP JUMPDEST PUSH1 0x1 PUSH1 0x1 PUSH1 0xA0 SHL SUB AND EQ ISZERO JUMPDEST ISZERO PUSH2 0x256E JUMPI PUSH1 0x40 MLOAD PUSH4 0x703E46DD PUSH1 0xE1 SHL DUP2 MSTORE PUSH1 0x4 ADD PUSH1 0x40 MLOAD DUP1 SWAP2 SUB SWAP1 REVERT JUMPDEST PUSH32 0xF47FC0C09EBBFE308D89B8035681A1164B9882BCFD49EB89861067738A30F5AB PUSH2 0x1116 DUP2 PUSH2 0x26EA JUMP JUMPDEST DUP2 PUSH1 0x1 PUSH1 0x1 PUSH1 0xA0 SHL SUB AND PUSH4 0x52D1902D PUSH1 0x40 MLOAD DUP2 PUSH4 0xFFFFFFFF AND PUSH1 0xE0 SHL DUP2 MSTORE PUSH1 0x4 ADD PUSH1 0x20 PUSH1 0x40 MLOAD DUP1 DUP4 SUB DUP2 DUP7 GAS STATICCALL SWAP3 POP POP POP DUP1 ISZERO PUSH2 0x2A91 JUMPI POP PUSH1 0x40 DUP1 MLOAD PUSH1 0x1F RETURNDATASIZE SWAP1 DUP2 ADD PUSH1 0x1F NOT AND DUP3 ADD SWAP1 SWAP3 MSTORE PUSH2 0x2A8E SWAP2 DUP2 ADD SWAP1 PUSH2 0x375F JUMP JUMPDEST PUSH1 0x1 JUMPDEST PUSH2 0x2AB9 JUMPI PUSH1 0x40 MLOAD PUSH4 0x4C9C8CE3 PUSH1 0xE0 SHL DUP2 MSTORE PUSH1 0x1 PUSH1 0x1 PUSH1 0xA0 SHL SUB DUP4 AND PUSH1 0x4 DUP3 ADD MSTORE PUSH1 0x24 ADD PUSH2 0x91B JUMP JUMPDEST PUSH1 0x0 DUP1 MLOAD PUSH1 0x20 PUSH2 0x37B5 DUP4 CODECOPY DUP2 MLOAD SWAP2 MSTORE DUP2 EQ PUSH2 0x2AEA JUMPI PUSH1 0x40 MLOAD PUSH4 0x2A875269 PUSH1 0xE2 SHL DUP2 MSTORE PUSH1 0x4 DUP2 ADD DUP3 SWAP1 MSTORE PUSH1 0x24 ADD PUSH2 0x91B JUMP JUMPDEST PUSH2 0xC29 DUP4 DUP4 PUSH2 0x30F6 JUMP JUMPDEST PUSH1 0x0 DUP1 DUP4 PUSH1 0x0 SUB PUSH2 0x2B0B JUMPI POP PUSH1 0x1 SWAP1 POP PUSH1 0x0 PUSH2 0x2B38 JUMP JUMPDEST DUP4 DUP4 MUL DUP4 DUP6 DUP3 DUP2 PUSH2 0x2B1E JUMPI PUSH2 0x2B1E PUSH2 0x36E8 JUMP JUMPDEST DIV EQ PUSH2 0x2B31 JUMPI PUSH1 0x0 DUP1 SWAP3 POP SWAP3 POP POP PUSH2 0x2B38 JUMP JUMPDEST PUSH1 0x1 SWAP3 POP SWAP1 POP JUMPDEST SWAP3 POP SWAP3 SWAP1 POP JUMP JUMPDEST PUSH1 0x0 DUP1 DUP3 PUSH1 0x0 SUB PUSH2 0x2B55 JUMPI POP PUSH1 0x0 SWAP1 POP DUP1 PUSH2 0x2B38 JUMP JUMPDEST PUSH1 0x1 DUP4 DUP6 DUP2 PUSH2 0x2B66 JUMPI PUSH2 0x2B66 PUSH2 0x36E8 JUMP JUMPDEST DIV SWAP2 POP SWAP2 POP SWAP3 POP SWAP3 SWAP1 POP JUMP JUMPDEST PUSH1 0x0 DUP1 DUP4 DUP4 ADD DUP5 DUP2 LT ISZERO PUSH2 0x2B31 JUMPI PUSH1 0x0 DUP1 SWAP3 POP SWAP3 POP POP PUSH2 0x2B38 JUMP JUMPDEST ADDRESS PUSH1 0x1 PUSH1 0x1 PUSH1 0xA0 SHL SUB PUSH32 0x0 AND EQ PUSH2 0x256E JUMPI PUSH1 0x40 MLOAD PUSH4 0x703E46DD PUSH1 0xE1 SHL DUP2 MSTORE PUSH1 0x4 ADD PUSH1 0x40 MLOAD DUP1 SWAP2 SUB SWAP1 REVERT JUMPDEST PUSH1 0x0 DUP1 DUP4 DUP4 GT ISZERO PUSH2 0x2BEC JUMPI POP PUSH1 0x0 SWAP1 POP DUP1 PUSH2 0x2B38 JUMP JUMPDEST POP PUSH1 0x1 SWAP4 SWAP2 SWAP1 SWAP3 SUB SWAP2 POP JUMP JUMPDEST PUSH1 0x40 MLOAD PUSH1 0x1 PUSH1 0x1 PUSH1 0xA0 SHL SUB DUP5 DUP2 AND PUSH1 0x24 DUP4 ADD MSTORE DUP4 DUP2 AND PUSH1 0x44 DUP4 ADD MSTORE PUSH1 0x64 DUP3 ADD DUP4 SWAP1 MSTORE PUSH2 0xBF0 SWAP2 DUP7 SWAP2 DUP3 AND SWAP1 PUSH4 0x23B872DD SWAP1 PUSH1 0x84 ADD PUSH2 0x26B8 JUMP JUMPDEST PUSH1 0x0 PUSH1 0x5 DUP4 DUP2 SLOAD DUP2 LT PUSH2 0x2C46 JUMPI PUSH2 0x2C46 PUSH2 0x3650 JUMP JUMPDEST PUSH1 0x0 SWAP2 DUP3 MSTORE PUSH1 0x20 DUP1 DUP4 KECCAK256 DUP7 DUP5 MSTORE PUSH1 0x6 DUP3 MSTORE PUSH1 0x40 DUP1 DUP6 KECCAK256 CALLER DUP7 MSTORE SWAP1 SWAP3 MSTORE SWAP3 KECCAK256 PUSH1 0x7 SWAP1 SWAP2 MUL SWAP1 SWAP2 ADD SWAP2 POP PUSH2 0x2C77 DUP5 PUSH2 0x111A JUMP JUMPDEST DUP1 SLOAD ISZERO PUSH2 0x2E34 JUMPI PUSH1 0x3 DUP3 ADD SLOAD DUP2 SLOAD PUSH1 0x0 SWAP2 DUP3 SWAP2 PUSH2 0x2C93 SWAP2 PUSH2 0x2AF4 JUMP JUMPDEST SWAP2 POP SWAP2 POP DUP2 PUSH2 0x2CE4 JUMPI PUSH1 0x40 MLOAD PUSH3 0x461BCD PUSH1 0xE5 SHL DUP2 MSTORE PUSH1 0x20 PUSH1 0x4 DUP3 ADD MSTORE PUSH1 0x1A PUSH1 0x24 DUP3 ADD MSTORE PUSH32 0x75736572207374616B6520616D6F756E74206F766572666C6F77000000000000 PUSH1 0x44 DUP3 ADD MSTORE PUSH1 0x64 ADD PUSH2 0x91B JUMP JUMPDEST PUSH2 0x2CF6 DUP2 PUSH8 0xDE0B6B3A7640000 PUSH2 0x2B3F JUMP JUMPDEST SWAP1 SWAP3 POP SWAP1 POP DUP2 PUSH2 0x2D56 JUMPI PUSH1 0x40 MLOAD PUSH3 0x461BCD PUSH1 0xE5 SHL DUP2 MSTORE PUSH1 0x20 PUSH1 0x4 DUP3 ADD MSTORE PUSH1 0x25 PUSH1 0x24 DUP3 ADD MSTORE PUSH32 0x616363756D756C617465207265776172647320706572207374616B65206F7665 PUSH1 0x44 DUP3 ADD MSTORE PUSH5 0x72666C6F77 PUSH1 0xD8 SHL PUSH1 0x64 DUP3 ADD MSTORE PUSH1 0x84 ADD PUSH2 0x91B JUMP JUMPDEST PUSH1 0x0 DUP1 PUSH2 0x2D70 DUP6 PUSH1 0x1 ADD SLOAD DUP5 PUSH2 0x2BD6 SWAP1 SWAP2 SWAP1 PUSH4 0xFFFFFFFF AND JUMP JUMPDEST SWAP2 POP SWAP2 POP DUP2 PUSH2 0x2DBC JUMPI PUSH1 0x40 MLOAD PUSH3 0x461BCD PUSH1 0xE5 SHL DUP2 MSTORE PUSH1 0x20 PUSH1 0x4 DUP3 ADD MSTORE PUSH1 0x18 PUSH1 0x24 DUP3 ADD MSTORE PUSH24 0x70656E64696E672072657761726473206F766572666C6F77 PUSH1 0x40 SHL PUSH1 0x44 DUP3 ADD MSTORE PUSH1 0x64 ADD PUSH2 0x91B JUMP JUMPDEST DUP1 ISZERO PUSH2 0x2E2F JUMPI PUSH1 0x0 DUP1 PUSH2 0x2DDC DUP4 DUP9 PUSH1 0x2 ADD SLOAD PUSH2 0x2B72 SWAP1 SWAP2 SWAP1 PUSH4 0xFFFFFFFF AND JUMP JUMPDEST SWAP2 POP SWAP2 POP DUP2 PUSH2 0x2E28 JUMPI PUSH1 0x40 MLOAD PUSH3 0x461BCD PUSH1 0xE5 SHL DUP2 MSTORE PUSH1 0x20 PUSH1 0x4 DUP3 ADD MSTORE PUSH1 0x18 PUSH1 0x24 DUP3 ADD MSTORE PUSH24 0x70656E64696E672072657761726473206F766572666C6F77 PUSH1 0x40 SHL PUSH1 0x44 DUP3 ADD MSTORE PUSH1 0x64 ADD PUSH2 0x91B JUMP JUMPDEST PUSH1 0x2 DUP8 ADD SSTORE POP JUMPDEST POP POP POP POP JUMPDEST DUP3 ISZERO PUSH2 0x2EA1 JUMPI DUP1 SLOAD PUSH1 0x0 SWAP1 DUP2 SWAP1 PUSH2 0x2E4C SWAP1 DUP7 SWAP1 PUSH2 0x2B72 JUMP JUMPDEST SWAP2 POP SWAP2 POP DUP2 PUSH2 0x2E9D JUMPI PUSH1 0x40 MLOAD PUSH3 0x461BCD PUSH1 0xE5 SHL DUP2 MSTORE PUSH1 0x20 PUSH1 0x4 DUP3 ADD DUP2 SWAP1 MSTORE PUSH1 0x24 DUP3 ADD MSTORE PUSH32 0x616363756D756C617465207374616B6520616D6F756E74206F766572666C6F77 PUSH1 0x44 DUP3 ADD MSTORE PUSH1 0x64 ADD PUSH2 0x91B JUMP JUMPDEST DUP3 SSTORE POP JUMPDEST PUSH1 0x0 DUP1 PUSH2 0x2EBB DUP6 DUP6 PUSH1 0x4 ADD SLOAD PUSH2 0x2B72 SWAP1 SWAP2 SWAP1 PUSH4 0xFFFFFFFF AND JUMP JUMPDEST SWAP2 POP SWAP2 POP DUP2 PUSH2 0x2F0C JUMPI PUSH1 0x40 MLOAD PUSH3 0x461BCD PUSH1 0xE5 SHL DUP2 MSTORE PUSH1 0x20 PUSH1 0x4 DUP3 ADD MSTORE PUSH1 0x1B PUSH1 0x24 DUP3 ADD MSTORE PUSH32 0x7374616B6520746F6B656E20616D6F756E74206F766572666C6F770000000000 PUSH1 0x44 DUP3 ADD MSTORE PUSH1 0x64 ADD PUSH2 0x91B JUMP JUMPDEST PUSH1 0x4 DUP5 ADD DUP2 SWAP1 SSTORE PUSH1 0x3 DUP5 ADD SLOAD DUP4 SLOAD PUSH1 0x0 SWAP2 DUP3 SWAP2 PUSH2 0x2F28 SWAP2 PUSH2 0x2AF4 JUMP JUMPDEST SWAP2 POP SWAP2 POP DUP2 PUSH2 0x2F88 JUMPI PUSH1 0x40 MLOAD PUSH3 0x461BCD PUSH1 0xE5 SHL DUP2 MSTORE PUSH1 0x20 PUSH1 0x4 DUP3 ADD MSTORE PUSH1 0x26 PUSH1 0x24 DUP3 ADD MSTORE PUSH32 0x75736572207374416D6F756E74206D756C206163635243435065725354206F76 PUSH1 0x44 DUP3 ADD MSTORE PUSH6 0x6572666C6F77 PUSH1 0xD0 SHL PUSH1 0x64 DUP3 ADD MSTORE PUSH1 0x84 ADD PUSH2 0x91B JUMP JUMPDEST PUSH1 0x1 DUP6 ADD DUP2 SWAP1 SSTORE PUSH1 0x40 MLOAD DUP8 DUP2 MSTORE DUP9 SWAP1 CALLER SWAP1 PUSH32 0x90890809C654F11D6E72A28FA60149770A0D11EC6C92319D6CEB2BB0A4EA1A15 SWAP1 PUSH1 0x20 ADD PUSH1 0x40 MLOAD DUP1 SWAP2 SUB SWAP1 LOG3 POP POP POP POP POP POP POP POP JUMP JUMPDEST PUSH1 0x0 DUP1 PUSH1 0x20 PUSH1 0x0 DUP5 MLOAD PUSH1 0x20 DUP7 ADD PUSH1 0x0 DUP9 GAS CALL DUP1 PUSH2 0x2FF3 JUMPI PUSH1 0x40 MLOAD RETURNDATASIZE PUSH1 0x0 DUP3 RETURNDATACOPY RETURNDATASIZE DUP2 REVERT JUMPDEST POP POP PUSH1 0x0 MLOAD RETURNDATASIZE SWAP2 POP DUP2 ISZERO PUSH2 0x300B JUMPI DUP1 PUSH1 0x1 EQ ISZERO PUSH2 0x3018 JUMP JUMPDEST PUSH1 0x1 PUSH1 0x1 PUSH1 0xA0 SHL SUB DUP5 AND EXTCODESIZE ISZERO JUMPDEST ISZERO PUSH2 0xBF0 JUMPI PUSH1 0x40 MLOAD PUSH4 0x5274AFE7 PUSH1 0xE0 SHL DUP2 MSTORE PUSH1 0x1 PUSH1 0x1 PUSH1 0xA0 SHL SUB DUP6 AND PUSH1 0x4 DUP3 ADD MSTORE PUSH1 0x24 ADD PUSH2 0x91B JUMP JUMPDEST PUSH2 0x304B DUP3 DUP3 PUSH2 0x1569 JUMP JUMPDEST PUSH2 0x1116 JUMPI PUSH1 0x40 MLOAD PUSH4 0xE2517D3F PUSH1 0xE0 SHL DUP2 MSTORE PUSH1 0x1 PUSH1 0x1 PUSH1 0xA0 SHL SUB DUP3 AND PUSH1 0x4 DUP3 ADD MSTORE PUSH1 0x24 DUP2 ADD DUP4 SWAP1 MSTORE PUSH1 0x44 ADD PUSH2 0x91B JUMP JUMPDEST PUSH32 0xF0C57E16840DF040F15088DC2F81FE391C3923BEC73E23A9662EFC9C229C6A00 SLOAD PUSH1 0x1 PUSH1 0x40 SHL SWAP1 DIV PUSH1 0xFF AND PUSH2 0x256E JUMPI PUSH1 0x40 MLOAD PUSH4 0x1AFCD79F PUSH1 0xE3 SHL DUP2 MSTORE PUSH1 0x4 ADD PUSH1 0x40 MLOAD DUP1 SWAP2 SUB SWAP1 REVERT JUMPDEST PUSH2 0x30CB PUSH2 0x307A JUMP JUMPDEST PUSH32 0xCD5ED15C6E187E77E9AEE88184C21F4F2182AB5827CB3B7E07FBEDCD63F03300 DUP1 SLOAD PUSH1 0xFF NOT AND SWAP1 SSTORE JUMP JUMPDEST PUSH2 0x30FF DUP3 PUSH2 0x314C JUMP JUMPDEST PUSH1 0x40 MLOAD PUSH1 0x1 PUSH1 0x1 PUSH1 0xA0 SHL SUB DUP4 AND SWAP1 PUSH32 0xBC7CD75A20EE27FD9ADEBAB32041F755214DBC6BFFA90CC0225B39DA2E5C2D3B SWAP1 PUSH1 0x0 SWAP1 LOG2 DUP1 MLOAD ISZERO PUSH2 0x3144 JUMPI PUSH2 0xC29 DUP3 DUP3 PUSH2 0x31B1 JUMP JUMPDEST PUSH2 0x1116 PUSH2 0x3227 JUMP JUMPDEST DUP1 PUSH1 0x1 PUSH1 0x1 PUSH1 0xA0 SHL SUB AND EXTCODESIZE PUSH1 0x0 SUB PUSH2 0x3182 JUMPI PUSH1 0x40 MLOAD PUSH4 0x4C9C8CE3 PUSH1 0xE0 SHL DUP2 MSTORE PUSH1 0x1 PUSH1 0x1 PUSH1 0xA0 SHL SUB DUP3 AND PUSH1 0x4 DUP3 ADD MSTORE PUSH1 0x24 ADD PUSH2 0x91B JUMP JUMPDEST PUSH1 0x0 DUP1 MLOAD PUSH1 0x20 PUSH2 0x37B5 DUP4 CODECOPY DUP2 MLOAD SWAP2 MSTORE DUP1 SLOAD PUSH1 0x1 PUSH1 0x1 PUSH1 0xA0 SHL SUB NOT AND PUSH1 0x1 PUSH1 0x1 PUSH1 0xA0 SHL SUB SWAP3 SWAP1 SWAP3 AND SWAP2 SWAP1 SWAP2 OR SWAP1 SSTORE JUMP JUMPDEST PUSH1 0x60 PUSH1 0x0 DUP1 DUP5 PUSH1 0x1 PUSH1 0x1 PUSH1 0xA0 SHL SUB AND DUP5 PUSH1 0x40 MLOAD PUSH2 0x31CE SWAP2 SWAP1 PUSH2 0x3778 JUMP JUMPDEST PUSH1 0x0 PUSH1 0x40 MLOAD DUP1 DUP4 SUB DUP2 DUP6 GAS DELEGATECALL SWAP2 POP POP RETURNDATASIZE DUP1 PUSH1 0x0 DUP2 EQ PUSH2 0x3209 JUMPI PUSH1 0x40 MLOAD SWAP2 POP PUSH1 0x1F NOT PUSH1 0x3F RETURNDATASIZE ADD AND DUP3 ADD PUSH1 0x40 MSTORE RETURNDATASIZE DUP3 MSTORE RETURNDATASIZE PUSH1 0x0 PUSH1 0x20 DUP5 ADD RETURNDATACOPY PUSH2 0x320E JUMP JUMPDEST PUSH1 0x60 SWAP2 POP JUMPDEST POP SWAP2 POP SWAP2 POP PUSH2 0x321E DUP6 DUP4 DUP4 PUSH2 0x3246 JUMP JUMPDEST SWAP6 SWAP5 POP POP POP POP POP JUMP JUMPDEST CALLVALUE ISZERO PUSH2 0x256E JUMPI PUSH1 0x40 MLOAD PUSH4 0xB398979F PUSH1 0xE0 SHL DUP2 MSTORE PUSH1 0x4 ADD PUSH1 0x40 MLOAD DUP1 SWAP2 SUB SWAP1 REVERT JUMPDEST PUSH1 0x60 DUP3 PUSH2 0x325B JUMPI PUSH2 0x3256 DUP3 PUSH2 0x32A2 JUMP JUMPDEST PUSH2 0xEAE JUMP JUMPDEST DUP2 MLOAD ISZERO DUP1 ISZERO PUSH2 0x3272 JUMPI POP PUSH1 0x1 PUSH1 0x1 PUSH1 0xA0 SHL SUB DUP5 AND EXTCODESIZE ISZERO JUMPDEST ISZERO PUSH2 0x329B JUMPI PUSH1 0x40 MLOAD PUSH4 0x9996B315 PUSH1 0xE0 SHL DUP2 MSTORE PUSH1 0x1 PUSH1 0x1 PUSH1 0xA0 SHL SUB DUP6 AND PUSH1 0x4 DUP3 ADD MSTORE PUSH1 0x24 ADD PUSH2 0x91B JUMP JUMPDEST POP DUP1 PUSH2 0xEAE JUMP JUMPDEST DUP1 MLOAD ISZERO PUSH2 0x32B2 JUMPI DUP1 MLOAD DUP1 DUP3 PUSH1 0x20 ADD REVERT JUMPDEST PUSH1 0x40 MLOAD PUSH4 0xD6BDA275 PUSH1 0xE0 SHL DUP2 MSTORE PUSH1 0x4 ADD PUSH1 0x40 MLOAD DUP1 SWAP2 SUB SWAP1 REVERT JUMPDEST PUSH1 0x0 PUSH1 0x20 DUP3 DUP5 SUB SLT ISZERO PUSH2 0x32DD JUMPI PUSH1 0x0 DUP1 REVERT JUMPDEST DUP2 CALLDATALOAD PUSH1 0x1 PUSH1 0x1 PUSH1 0xE0 SHL SUB NOT DUP2 AND DUP2 EQ PUSH2 0xEAE JUMPI PUSH1 0x0 DUP1 REVERT JUMPDEST PUSH1 0x1 PUSH1 0x1 PUSH1 0xA0 SHL SUB DUP2 AND DUP2 EQ PUSH2 0x1460 JUMPI PUSH1 0x0 DUP1 REVERT JUMPDEST PUSH1 0x0 DUP1 PUSH1 0x40 DUP4 DUP6 SUB SLT ISZERO PUSH2 0x331D JUMPI PUSH1 0x0 DUP1 REVERT JUMPDEST DUP3 CALLDATALOAD SWAP2 POP PUSH1 0x20 DUP4 ADD CALLDATALOAD PUSH2 0x332F DUP2 PUSH2 0x32F5 JUMP JUMPDEST DUP1 SWAP2 POP POP SWAP3 POP SWAP3 SWAP1 POP JUMP JUMPDEST PUSH1 0x0 PUSH1 0x20 DUP3 DUP5 SUB SLT ISZERO PUSH2 0x334C JUMPI PUSH1 0x0 DUP1 REVERT JUMPDEST POP CALLDATALOAD SWAP2 SWAP1 POP JUMP JUMPDEST PUSH1 0x0 DUP1 PUSH1 0x0 PUSH1 0x60 DUP5 DUP7 SUB SLT ISZERO PUSH2 0x3368 JUMPI PUSH1 0x0 DUP1 REVERT JUMPDEST DUP4 CALLDATALOAD SWAP3 POP PUSH1 0x20 DUP5 ADD CALLDATALOAD PUSH2 0x337A DUP2 PUSH2 0x32F5 JUMP JUMPDEST SWAP3 SWAP6 SWAP3 SWAP5 POP POP POP PUSH1 0x40 SWAP2 SWAP1 SWAP2 ADD CALLDATALOAD SWAP1 JUMP JUMPDEST PUSH1 0x0 DUP1 PUSH1 0x0 DUP1 PUSH1 0x80 DUP6 DUP8 SUB SLT ISZERO PUSH2 0x33A1 JUMPI PUSH1 0x0 DUP1 REVERT JUMPDEST DUP5 CALLDATALOAD PUSH2 0x33AC DUP2 PUSH2 0x32F5 JUMP JUMPDEST SWAP7 PUSH1 0x20 DUP7 ADD CALLDATALOAD SWAP7 POP PUSH1 0x40 DUP7 ADD CALLDATALOAD SWAP6 PUSH1 0x60 ADD CALLDATALOAD SWAP5 POP SWAP3 POP POP POP JUMP JUMPDEST PUSH4 0x4E487B71 PUSH1 0xE0 SHL PUSH1 0x0 MSTORE PUSH1 0x41 PUSH1 0x4 MSTORE PUSH1 0x24 PUSH1 0x0 REVERT JUMPDEST PUSH1 0x0 DUP1 PUSH1 0x40 DUP4 DUP6 SUB SLT ISZERO PUSH2 0x33EF JUMPI PUSH1 0x0 DUP1 REVERT JUMPDEST DUP3 CALLDATALOAD PUSH2 0x33FA DUP2 PUSH2 0x32F5 JUMP JUMPDEST SWAP2 POP PUSH1 0x20 DUP4 ADD CALLDATALOAD PUSH8 0xFFFFFFFFFFFFFFFF DUP1 DUP3 GT ISZERO PUSH2 0x3417 JUMPI PUSH1 0x0 DUP1 REVERT JUMPDEST DUP2 DUP6 ADD SWAP2 POP DUP6 PUSH1 0x1F DUP4 ADD SLT PUSH2 0x342B JUMPI PUSH1 0x0 DUP1 REVERT JUMPDEST DUP2 CALLDATALOAD DUP2 DUP2 GT ISZERO PUSH2 0x343D JUMPI PUSH2 0x343D PUSH2 0x33C6 JUMP JUMPDEST PUSH1 0x40 MLOAD PUSH1 0x1F DUP3 ADD PUSH1 0x1F NOT SWAP1 DUP2 AND PUSH1 0x3F ADD AND DUP2 ADD SWAP1 DUP4 DUP3 GT DUP2 DUP4 LT OR ISZERO PUSH2 0x3465 JUMPI PUSH2 0x3465 PUSH2 0x33C6 JUMP JUMPDEST DUP2 PUSH1 0x40 MSTORE DUP3 DUP2 MSTORE DUP9 PUSH1 0x20 DUP5 DUP8 ADD ADD GT ISZERO PUSH2 0x347E JUMPI PUSH1 0x0 DUP1 REVERT JUMPDEST DUP3 PUSH1 0x20 DUP7 ADD PUSH1 0x20 DUP4 ADD CALLDATACOPY PUSH1 0x0 PUSH1 0x20 DUP5 DUP4 ADD ADD MSTORE DUP1 SWAP6 POP POP POP POP POP POP SWAP3 POP SWAP3 SWAP1 POP JUMP JUMPDEST PUSH1 0x0 DUP1 PUSH1 0x40 DUP4 DUP6 SUB SLT ISZERO PUSH2 0x34B3 JUMPI PUSH1 0x0 DUP1 REVERT JUMPDEST POP POP DUP1 CALLDATALOAD SWAP3 PUSH1 0x20 SWAP1 SWAP2 ADD CALLDATALOAD SWAP2 POP JUMP JUMPDEST PUSH1 0x0 JUMPDEST DUP4 DUP2 LT ISZERO PUSH2 0x34DD JUMPI DUP2 DUP2 ADD MLOAD DUP4 DUP3 ADD MSTORE PUSH1 0x20 ADD PUSH2 0x34C5 JUMP JUMPDEST POP POP PUSH1 0x0 SWAP2 ADD MSTORE JUMP JUMPDEST PUSH1 0x20 DUP2 MSTORE PUSH1 0x0 DUP3 MLOAD DUP1 PUSH1 0x20 DUP5 ADD MSTORE PUSH2 0x3505 DUP2 PUSH1 0x40 DUP6 ADD PUSH1 0x20 DUP8 ADD PUSH2 0x34C2 JUMP JUMPDEST PUSH1 0x1F ADD PUSH1 0x1F NOT AND SWAP2 SWAP1 SWAP2 ADD PUSH1 0x40 ADD SWAP3 SWAP2 POP POP JUMP JUMPDEST DUP1 ISZERO ISZERO DUP2 EQ PUSH2 0x1460 JUMPI PUSH1 0x0 DUP1 REVERT JUMPDEST PUSH1 0x0 DUP1 PUSH1 0x0 DUP1 PUSH1 0x0 PUSH1 0xA0 DUP7 DUP9 SUB SLT ISZERO PUSH2 0x353F JUMPI PUSH1 0x0 DUP1 REVERT JUMPDEST DUP6 CALLDATALOAD PUSH2 0x354A DUP2 PUSH2 0x32F5 JUMP JUMPDEST SWAP5 POP PUSH1 0x20 DUP7 ADD CALLDATALOAD SWAP4 POP PUSH1 0x40 DUP7 ADD CALLDATALOAD SWAP3 POP PUSH1 0x60 DUP7 ADD CALLDATALOAD SWAP2 POP PUSH1 0x80 DUP7 ADD CALLDATALOAD PUSH2 0x356F DUP2 PUSH2 0x3519 JUMP JUMPDEST DUP1 SWAP2 POP POP SWAP3 SWAP6 POP SWAP3 SWAP6 SWAP1 SWAP4 POP JUMP JUMPDEST PUSH1 0x0 DUP1 PUSH1 0x0 PUSH1 0x60 DUP5 DUP7 SUB SLT ISZERO PUSH2 0x3592 JUMPI PUSH1 0x0 DUP1 REVERT JUMPDEST POP POP DUP2 CALLDATALOAD SWAP4 PUSH1 0x20 DUP4 ADD CALLDATALOAD SWAP4 POP PUSH1 0x40 SWAP1 SWAP3 ADD CALLDATALOAD SWAP2 SWAP1 POP JUMP JUMPDEST PUSH1 0x0 PUSH1 0x20 DUP3 DUP5 SUB SLT ISZERO PUSH2 0x35BB JUMPI PUSH1 0x0 DUP1 REVERT JUMPDEST DUP2 CALLDATALOAD PUSH2 0xEAE DUP2 PUSH2 0x32F5 JUMP JUMPDEST PUSH1 0x0 DUP1 PUSH1 0x0 PUSH1 0x60 DUP5 DUP7 SUB SLT ISZERO PUSH2 0x35DB JUMPI PUSH1 0x0 DUP1 REVERT JUMPDEST DUP4 CALLDATALOAD SWAP3 POP PUSH1 0x20 DUP5 ADD CALLDATALOAD SWAP2 POP PUSH1 0x40 DUP5 ADD CALLDATALOAD PUSH2 0x35F4 DUP2 PUSH2 0x3519 JUMP JUMPDEST DUP1 SWAP2 POP POP SWAP3 POP SWAP3 POP SWAP3 JUMP JUMPDEST PUSH1 0x20 DUP1 DUP3 MSTORE PUSH1 0xB SWAP1 DUP3 ADD MSTORE PUSH11 0x1A5B9D985B1A59081C1A59 PUSH1 0xAA SHL PUSH1 0x40 DUP3 ADD MSTORE PUSH1 0x60 ADD SWAP1 JUMP JUMPDEST PUSH1 0x20 DUP1 DUP3 MSTORE PUSH1 0x12 SWAP1 DUP3 ADD MSTORE PUSH18 0x1DDA5D1A191C985DC81A5CC81C185D5CD959 PUSH1 0x72 SHL PUSH1 0x40 DUP3 ADD MSTORE PUSH1 0x60 ADD SWAP1 JUMP JUMPDEST PUSH4 0x4E487B71 PUSH1 0xE0 SHL PUSH1 0x0 MSTORE PUSH1 0x32 PUSH1 0x4 MSTORE PUSH1 0x24 PUSH1 0x0 REVERT JUMPDEST PUSH4 0x4E487B71 PUSH1 0xE0 SHL PUSH1 0x0 MSTORE PUSH1 0x11 PUSH1 0x4 MSTORE PUSH1 0x24 PUSH1 0x0 REVERT JUMPDEST DUP1 DUP3 ADD DUP1 DUP3 GT ISZERO PUSH2 0x8EF JUMPI PUSH2 0x8EF PUSH2 0x3666 JUMP JUMPDEST PUSH1 0x0 PUSH1 0x1 DUP3 ADD PUSH2 0x36A1 JUMPI PUSH2 0x36A1 PUSH2 0x3666 JUMP JUMPDEST POP PUSH1 0x1 ADD SWAP1 JUMP JUMPDEST DUP2 DUP2 SUB DUP2 DUP2 GT ISZERO PUSH2 0x8EF JUMPI PUSH2 0x8EF PUSH2 0x3666 JUMP JUMPDEST PUSH4 0x4E487B71 PUSH1 0xE0 SHL PUSH1 0x0 MSTORE PUSH1 0x31 PUSH1 0x4 MSTORE PUSH1 0x24 PUSH1 0x0 REVERT JUMPDEST DUP1 DUP3 MUL DUP2 ISZERO DUP3 DUP3 DIV DUP5 EQ OR PUSH2 0x8EF JUMPI PUSH2 0x8EF PUSH2 0x3666 JUMP JUMPDEST PUSH4 0x4E487B71 PUSH1 0xE0 SHL PUSH1 0x0 MSTORE PUSH1 0x12 PUSH1 0x4 MSTORE PUSH1 0x24 PUSH1 0x0 REVERT JUMPDEST PUSH1 0x0 DUP3 PUSH2 0x371B JUMPI PUSH4 0x4E487B71 PUSH1 0xE0 SHL PUSH1 0x0 MSTORE PUSH1 0x12 PUSH1 0x4 MSTORE PUSH1 0x24 PUSH1 0x0 REVERT JUMPDEST POP DIV SWAP1 JUMP JUMPDEST PUSH1 0x20 DUP1 DUP3 MSTORE PUSH1 0x8 SWAP1 DUP3 ADD MSTORE PUSH8 0x6F766572666C6F77 PUSH1 0xC0 SHL PUSH1 0x40 DUP3 ADD MSTORE PUSH1 0x60 ADD SWAP1 JUMP JUMPDEST PUSH1 0x0 PUSH1 0x20 DUP3 DUP5 SUB SLT ISZERO PUSH2 0x3754 JUMPI PUSH1 0x0 DUP1 REVERT JUMPDEST DUP2 MLOAD PUSH2 0xEAE DUP2 PUSH2 0x3519 JUMP JUMPDEST PUSH1 0x0 PUSH1 0x20 DUP3 DUP5 SUB SLT ISZERO PUSH2 0x3771 JUMPI PUSH1 0x0 DUP1 REVERT JUMPDEST POP MLOAD SWAP2 SWAP1 POP JUMP JUMPDEST PUSH1 0x0 DUP3 MLOAD PUSH2 0x378A DUP2 DUP5 PUSH1 0x20 DUP8 ADD PUSH2 0x34C2 JUMP JUMPDEST SWAP2 SWAP1 SWAP2 ADD SWAP3 SWAP2 POP POP JUMP INVALID PC SWAP14 SELFBALANCE EXTCODESIZE LOG1 PUSH29 0xF47D494622893831497BAD25919B9AFB8E33E9521B8963FCCDE360894 LOG1 EXTCODESIZE LOG1 LOG3 0x21 MOD PUSH8 0xC828492DB98DCA3E KECCAK256 PUSH23 0xCC3735A920A3CA505D382BBC02DD7BC7DEC4DCEEDDA775 0xE5 DUP14 0xD5 COINBASE 0xE0 DUP11 GT PUSH13 0x6C53815C0BD028192F7B626800 LOG2 PUSH5 0x6970667358 0x22 SLT KECCAK256 KECCAK256 0xFC GT 0xAD 0xB9 SGT SUB PUSH3 0x3BD9DA DUP16 0x1F 0xF9 PUSH11 0x7A881482F5DD4E6CA3791F 0x49 PUSH17 0xABCF31BF64736F6C634300081600330000 "},"methodIdentifiers":{"ADMIN_ROLE()":"75b238fc","DEFAULT_ADMIN_ROLE()":"a217fddf","ETH_PID()":"bfc3ebba","RCC()":"a72d5bf4","UPGRADE_INTERFACE_VERSION()":"ad3cb1cc","UPGRADE_ROLE()":"b908afa8","addPool(address,uint256,uint256,uint256,bool)":"b6d9d919","claim(uint256)":"379607f5","claimPaused()":"ab5e124a","deposit(uint256,uint256)":"e2bbb158","depositETH()":"f6326fb3","endBlock()":"083c6323","getMultiplier(uint256,uint256)":"8dbb1e3a","getPendingRCC(uint256,address)":"a27d9279","getPoolLength()":"b3944d52","getRoleAdmin(bytes32)":"248a9ca3","grantRole(bytes32,address)":"2f2ff15d","hasRole(bytes32,address)":"91d14854","initialize(address,uint256,uint256,uint256)":"4ec81af1","massUpdatePools()":"630b5ba1","pauseWithdraw()":"6155e3de","paused()":"5c975abb","pendingRCCByBlockNumber(uint256,address,uint256)":"41721ab7","pool(uint256)":"fe313112","proxiableUUID()":"52d1902d","rccPerBlock()":"70ff0173","renounceRole(bytes32,address)":"36568abe","revokeRole(bytes32,address)":"d547741f","setEndBlock(uint256)":"c713aa94","setPoolWeight(uint256,uint256,bool)":"fad07ece","setRCC(address)":"f5485d32","setRCCPerBlock(uint256)":"bed66c08","setStartBlock(uint256)":"f35e4a6e","stakingBalance(uint256,address)":"11548234","startBlock()":"48cd4cb1","supportsInterface(bytes4)":"01ffc9a7","toggleClaimPause()":"ae35a8d5","toggleWithdrawPause()":"80cce73f","totalPoolWeight()":"02559004","unstake(uint256,uint256)":"9e2c8a5b","updatePool(uint256)":"51eb05a6","updatePool(uint256,uint256,uint256)":"d86c0444","upgradeToAndCall(address,bytes)":"4f1ef286","user(uint256,address)":"37849b3c","withdraw(uint256)":"2e1a7d4d","withdrawAmount(uint256,address)":"ff423357","withdrawPaused()":"2f3ffb9f"}},"storageLayout":{"storage":[{"astId":6648,"contract":"contracts/RCCStake.sol:RCCStake","label":"startBlock","offset":0,"slot":"0","type":"t_uint256"},{"astId":6650,"contract":"contracts/RCCStake.sol:RCCStake","label":"endBlock","offset":0,"slot":"1","type":"t_uint256"},{"astId":6652,"contract":"contracts/RCCStake.sol:RCCStake","label":"rccPerBlock","offset":0,"slot":"2","type":"t_uint256"},{"astId":6654,"contract":"contracts/RCCStake.sol:RCCStake","label":"withdrawPaused","offset":0,"slot":"3","type":"t_bool"},{"astId":6656,"contract":"contracts/RCCStake.sol:RCCStake","label":"claimPaused","offset":1,"slot":"3","type":"t_bool"},{"astId":6659,"contract":"contracts/RCCStake.sol:RCCStake","label":"RCC","offset":2,"slot":"3","type":"t_contract(IERC20)2298"},{"astId":6661,"contract":"contracts/RCCStake.sol:RCCStake","label":"totalPoolWeight","offset":0,"slot":"4","type":"t_uint256"},{"astId":6665,"contract":"contracts/RCCStake.sol:RCCStake","label":"pool","offset":0,"slot":"5","type":"t_array(t_struct(Pool)8577_storage)dyn_storage"},{"astId":6672,"contract":"contracts/RCCStake.sol:RCCStake","label":"user","offset":0,"slot":"6","type":"t_mapping(t_uint256,t_mapping(t_address,t_struct(User)8593_storage))"}],"types":{"t_address":{"encoding":"inplace","label":"address","numberOfBytes":"20"},"t_array(t_struct(Pool)8577_storage)dyn_storage":{"base":"t_struct(Pool)8577_storage","encoding":"dynamic_array","label":"struct RCCStakeLib.Pool[]","numberOfBytes":"32"},"t_array(t_struct(UnStakeRequest)8582_storage)dyn_storage":{"base":"t_struct(UnStakeRequest)8582_storage","encoding":"dynamic_array","label":"struct RCCStakeLib.UnStakeRequest[]","numberOfBytes":"32"},"t_bool":{"encoding":"inplace","label":"bool","numberOfBytes":"1"},"t_contract(IERC20)2298":{"encoding":"inplace","label":"contract IERC20","numberOfBytes":"20"},"t_mapping(t_address,t_struct(User)8593_storage)":{"encoding":"mapping","key":"t_address","label":"mapping(address => struct RCCStakeLib.User)","numberOfBytes":"32","value":"t_struct(User)8593_storage"},"t_mapping(t_uint256,t_mapping(t_address,t_struct(User)8593_storage))":{"encoding":"mapping","key":"t_uint256","label":"mapping(uint256 => mapping(address => struct RCCStakeLib.User))","numberOfBytes":"32","value":"t_mapping(t_address,t_struct(User)8593_storage)"},"t_struct(Pool)8577_storage":{"encoding":"inplace","label":"struct RCCStakeLib.Pool","members":[{"astId":8564,"contract":"contracts/RCCStake.sol:RCCStake","label":"stakeTokenAddress","offset":0,"slot":"0","type":"t_address"},{"astId":8566,"contract":"contracts/RCCStake.sol:RCCStake","label":"poolWeight","offset":0,"slot":"1","type":"t_uint256"},{"astId":8568,"contract":"contracts/RCCStake.sol:RCCStake","label":"lastRewardBlock","offset":0,"slot":"2","type":"t_uint256"},{"astId":8570,"contract":"contracts/RCCStake.sol:RCCStake","label":"accumulateRewardsPerStake","offset":0,"slot":"3","type":"t_uint256"},{"astId":8572,"contract":"contracts/RCCStake.sol:RCCStake","label":"stakeTokenAmount","offset":0,"slot":"4","type":"t_uint256"},{"astId":8574,"contract":"contracts/RCCStake.sol:RCCStake","label":"minDepositAmount","offset":0,"slot":"5","type":"t_uint256"},{"astId":8576,"contract":"contracts/RCCStake.sol:RCCStake","label":"unStakeLockedBlocks","offset":0,"slot":"6","type":"t_uint256"}],"numberOfBytes":"224"},"t_struct(UnStakeRequest)8582_storage":{"encoding":"inplace","label":"struct RCCStakeLib.UnStakeRequest","members":[{"astId":8579,"contract":"contracts/RCCStake.sol:RCCStake","label":"amount","offset":0,"slot":"0","type":"t_uint256"},{"astId":8581,"contract":"contracts/RCCStake.sol:RCCStake","label":"unlockBlocksCounts","offset":0,"slot":"1","type":"t_uint256"}],"numberOfBytes":"64"},"t_struct(User)8593_storage":{"encoding":"inplace","label":"struct RCCStakeLib.User","members":[{"astId":8584,"contract":"contracts/RCCStake.sol:RCCStake","label":"stakeAmount","offset":0,"slot":"0","type":"t_uint256"},{"astId":8586,"contract":"contracts/RCCStake.sol:RCCStake","label":"finishedRewards","offset":0,"slot":"1","type":"t_uint256"},{"astId":8588,"contract":"contracts/RCCStake.sol:RCCStake","label":"pendingRewards","offset":0,"slot":"2","type":"t_uint256"},{"astId":8592,"contract":"contracts/RCCStake.sol:RCCStake","label":"requests","offset":0,"slot":"3","type":"t_array(t_struct(UnStakeRequest)8582_storage)dyn_storage"}],"numberOfBytes":"128"},"t_uint256":{"encoding":"inplace","label":"uint256","numberOfBytes":"32"}}}}}}