{"contracts/RCCStake.sol":{"RCCStake":{"abi":[{"inputs":[],"name":"AccessControlBadConfirmation","type":"error"},{"inputs":[{"internalType":"address","name":"account","type":"address"},{"internalType":"bytes32","name":"neededRole","type":"bytes32"}],"name":"AccessControlUnauthorizedAccount","type":"error"},{"inputs":[{"internalType":"address","name":"target","type":"address"}],"name":"AddressEmptyCode","type":"error"},{"inputs":[{"internalType":"address","name":"implementation","type":"address"}],"name":"ERC1967InvalidImplementation","type":"error"},{"inputs":[],"name":"ERC1967NonPayable","type":"error"},{"inputs":[],"name":"EnforcedPause","type":"error"},{"inputs":[],"name":"ExpectedPause","type":"error"},{"inputs":[],"name":"FailedCall","type":"error"},{"inputs":[],"name":"InvalidInitialization","type":"error"},{"inputs":[],"name":"NotInitializing","type":"error"},{"inputs":[{"internalType":"address","name":"token","type":"address"}],"name":"SafeERC20FailedOperation","type":"error"},{"inputs":[],"name":"UUPSUnauthorizedCallContext","type":"error"},{"inputs":[{"internalType":"bytes32","name":"slot","type":"bytes32"}],"name":"UUPSUnsupportedProxiableUUID","type":"error"},{"anonymous":false,"inputs":[{"indexed":true,"internalType":"address","name":"stakeTokenAddress","type":"address"},{"indexed":true,"internalType":"uint256","name":"poolWeight","type":"uint256"},{"indexed":true,"internalType":"uint256","name":"lastRewardBlock","type":"uint256"},{"indexed":false,"internalType":"uint256","name":"minDepositAmount","type":"uint256"},{"indexed":false,"internalType":"uint256","name":"unStakeLockedBlocks","type":"uint256"}],"name":"AddPool","type":"event"},{"anonymous":false,"inputs":[{"indexed":true,"internalType":"address","name":"user","type":"address"},{"indexed":true,"internalType":"uint256","name":"poolId","type":"uint256"},{"indexed":false,"internalType":"uint256","name":"RccReward","type":"uint256"}],"name":"Claim","type":"event"},{"anonymous":false,"inputs":[{"indexed":true,"internalType":"address","name":"user","type":"address"},{"indexed":true,"internalType":"uint256","name":"poolId","type":"uint256"},{"indexed":false,"internalType":"uint256","name":"amount","type":"uint256"}],"name":"Deposit","type":"event"},{"anonymous":false,"inputs":[{"indexed":true,"internalType":"address","name":"user","type":"address"},{"indexed":true,"internalType":"address","name":"pid","type":"address"},{"indexed":false,"internalType":"uint256","name":"amount","type":"uint256"}],"name":"GetRewards","type":"event"},{"anonymous":false,"inputs":[{"indexed":false,"internalType":"uint64","name":"version","type":"uint64"}],"name":"Initialized","type":"event"},{"anonymous":false,"inputs":[{"indexed":false,"internalType":"address","name":"account","type":"address"}],"name":"Paused","type":"event"},{"anonymous":false,"inputs":[],"name":"PausedClaim","type":"event"},{"anonymous":false,"inputs":[],"name":"PausedWithdraw","type":"event"},{"anonymous":false,"inputs":[{"indexed":true,"internalType":"address","name":"user","type":"address"},{"indexed":true,"internalType":"uint256","name":"poolId","type":"uint256"},{"indexed":false,"internalType":"uint256","name":"amount","type":"uint256"}],"name":"RequestUnstake","type":"event"},{"anonymous":false,"inputs":[{"indexed":true,"internalType":"bytes32","name":"role","type":"bytes32"},{"indexed":true,"internalType":"bytes32","name":"previousAdminRole","type":"bytes32"},{"indexed":true,"internalType":"bytes32","name":"newAdminRole","type":"bytes32"}],"name":"RoleAdminChanged","type":"event"},{"anonymous":false,"inputs":[{"indexed":true,"internalType":"bytes32","name":"role","type":"bytes32"},{"indexed":true,"internalType":"address","name":"account","type":"address"},{"indexed":true,"internalType":"address","name":"sender","type":"address"}],"name":"RoleGranted","type":"event"},{"anonymous":false,"inputs":[{"indexed":true,"internalType":"bytes32","name":"role","type":"bytes32"},{"indexed":true,"internalType":"address","name":"account","type":"address"},{"indexed":true,"internalType":"address","name":"sender","type":"address"}],"name":"RoleRevoked","type":"event"},{"anonymous":false,"inputs":[{"indexed":true,"internalType":"uint256","name":"endBlock","type":"uint256"}],"name":"SetEndBlock","type":"event"},{"anonymous":false,"inputs":[{"indexed":true,"internalType":"uint256","name":"poolId","type":"uint256"},{"indexed":false,"internalType":"uint256","name":"poolWeight","type":"uint256"},{"indexed":false,"internalType":"uint256","name":"totalPoolWeight","type":"uint256"}],"name":"SetPoolWeight","type":"event"},{"anonymous":false,"inputs":[{"indexed":true,"internalType":"contract IERC20","name":"RCC","type":"address"}],"name":"SetRCC","type":"event"},{"anonymous":false,"inputs":[{"indexed":true,"internalType":"uint256","name":"rccPerBlock","type":"uint256"}],"name":"SetRCCPerBlock","type":"event"},{"anonymous":false,"inputs":[{"indexed":true,"internalType":"uint256","name":"startBlock","type":"uint256"}],"name":"SetStartBlock","type":"event"},{"anonymous":false,"inputs":[{"indexed":true,"internalType":"address","name":"user","type":"address"},{"indexed":true,"internalType":"address","name":"pid","type":"address"},{"indexed":false,"internalType":"uint256","name":"amount","type":"uint256"}],"name":"Stake","type":"event"},{"anonymous":false,"inputs":[{"indexed":true,"internalType":"address","name":"user","type":"address"},{"indexed":true,"internalType":"address","name":"pid","type":"address"},{"indexed":false,"internalType":"uint256","name":"amount","type":"uint256"}],"name":"UnStake","type":"event"},{"anonymous":false,"inputs":[{"indexed":false,"internalType":"address","name":"account","type":"address"}],"name":"Unpaused","type":"event"},{"anonymous":false,"inputs":[],"name":"UnpausedClaim","type":"event"},{"anonymous":false,"inputs":[],"name":"UnpausedWithdraw","type":"event"},{"anonymous":false,"inputs":[{"indexed":true,"internalType":"uint256","name":"poolId","type":"uint256"},{"indexed":true,"internalType":"uint256","name":"lastRewardBlock","type":"uint256"},{"indexed":false,"internalType":"uint256","name":"totalRCC","type":"uint256"}],"name":"UpdatePool","type":"event"},{"anonymous":false,"inputs":[{"indexed":true,"internalType":"uint256","name":"poolId","type":"uint256"},{"indexed":true,"internalType":"uint256","name":"minDepositAmount","type":"uint256"},{"indexed":true,"internalType":"uint256","name":"unStakeLockedBlocks","type":"uint256"}],"name":"UpdatePoolInfo","type":"event"},{"anonymous":false,"inputs":[{"indexed":true,"internalType":"address","name":"implementation","type":"address"}],"name":"Upgraded","type":"event"},{"anonymous":false,"inputs":[{"indexed":true,"internalType":"address","name":"user","type":"address"},{"indexed":true,"internalType":"uint256","name":"poolId","type":"uint256"},{"indexed":false,"internalType":"uint256","name":"amount","type":"uint256"},{"indexed":true,"internalType":"uint256","name":"blockNumber","type":"uint256"}],"name":"Withdraw","type":"event"},{"stateMutability":"payable","type":"fallback"},{"inputs":[],"name":"ADMIN_ROLE","outputs":[{"internalType":"bytes32","name":"","type":"bytes32"}],"stateMutability":"view","type":"function"},{"inputs":[],"name":"DEFAULT_ADMIN_ROLE","outputs":[{"internalType":"bytes32","name":"","type":"bytes32"}],"stateMutability":"view","type":"function"},{"inputs":[],"name":"ETH_PID","outputs":[{"internalType":"uint256","name":"","type":"uint256"}],"stateMutability":"view","type":"function"},{"inputs":[],"name":"RCC","outputs":[{"internalType":"contract IERC20","name":"","type":"address"}],"stateMutability":"view","type":"function"},{"inputs":[],"name":"UPGRADE_INTERFACE_VERSION","outputs":[{"internalType":"string","name":"","type":"string"}],"stateMutability":"view","type":"function"},{"inputs":[],"name":"UPGRADE_ROLE","outputs":[{"internalType":"bytes32","name":"","type":"bytes32"}],"stateMutability":"view","type":"function"},{"inputs":[{"internalType":"address","name":"_stakeTokenAddress","type":"address"},{"internalType":"uint256","name":"_poolWeight","type":"uint256"},{"internalType":"uint256","name":"_minDepositAmount","type":"uint256"},{"internalType":"uint256","name":"_unStakeLockedBlocks","type":"uint256"},{"internalType":"bool","name":"_withUpdate","type":"bool"}],"name":"addPool","outputs":[],"stateMutability":"nonpayable","type":"function"},{"inputs":[{"internalType":"uint256","name":"_pid","type":"uint256"}],"name":"claim","outputs":[],"stateMutability":"nonpayable","type":"function"},{"inputs":[],"name":"claimPaused","outputs":[{"internalType":"bool","name":"","type":"bool"}],"stateMutability":"view","type":"function"},{"inputs":[{"internalType":"uint256","name":"_pid","type":"uint256"},{"internalType":"uint256","name":"_amount","type":"uint256"}],"name":"deposit","outputs":[],"stateMutability":"nonpayable","type":"function"},{"inputs":[],"name":"depositETH","outputs":[],"stateMutability":"payable","type":"function"},{"inputs":[],"name":"endBlock","outputs":[{"internalType":"uint256","name":"","type":"uint256"}],"stateMutability":"view","type":"function"},{"inputs":[{"internalType":"uint256","name":"_from","type":"uint256"},{"internalType":"uint256","name":"_to","type":"uint256"}],"name":"getMultiplier","outputs":[{"internalType":"uint256","name":"multiplier","type":"uint256"}],"stateMutability":"view","type":"function"},{"inputs":[{"internalType":"uint256","name":"_poolId","type":"uint256"},{"internalType":"address","name":"_user","type":"address"}],"name":"getPendingRCC","outputs":[{"internalType":"uint256","name":"","type":"uint256"}],"stateMutability":"view","type":"function"},{"inputs":[],"name":"getPoolLength","outputs":[{"internalType":"uint256","name":"","type":"uint256"}],"stateMutability":"view","type":"function"},{"inputs":[{"internalType":"bytes32","name":"role","type":"bytes32"}],"name":"getRoleAdmin","outputs":[{"internalType":"bytes32","name":"","type":"bytes32"}],"stateMutability":"view","type":"function"},{"inputs":[{"internalType":"bytes32","name":"role","type":"bytes32"},{"internalType":"address","name":"account","type":"address"}],"name":"grantRole","outputs":[],"stateMutability":"nonpayable","type":"function"},{"inputs":[{"internalType":"bytes32","name":"role","type":"bytes32"},{"internalType":"address","name":"account","type":"address"}],"name":"hasRole","outputs":[{"internalType":"bool","name":"","type":"bool"}],"stateMutability":"view","type":"function"},{"inputs":[{"internalType":"contract IERC20","name":"_RCC","type":"address"},{"internalType":"uint256","name":"_startBlock","type":"uint256"},{"internalType":"uint256","name":"_endBlock","type":"uint256"},{"internalType":"uint256","name":"_rccPerBlock","type":"uint256"}],"name":"initialize","outputs":[],"stateMutability":"nonpayable","type":"function"},{"inputs":[],"name":"massUpdatePools","outputs":[],"stateMutability":"nonpayable","type":"function"},{"inputs":[],"name":"pauseClaim","outputs":[],"stateMutability":"nonpayable","type":"function"},{"inputs":[],"name":"pauseWithdraw","outputs":[],"stateMutability":"nonpayable","type":"function"},{"inputs":[],"name":"paused","outputs":[{"internalType":"bool","name":"","type":"bool"}],"stateMutability":"view","type":"function"},{"inputs":[{"internalType":"uint256","name":"_poolId","type":"uint256"},{"internalType":"address","name":"_user","type":"address"},{"internalType":"uint256","name":"_blockNumber","type":"uint256"}],"name":"pendingRCCByBlockNumber","outputs":[{"internalType":"uint256","name":"","type":"uint256"}],"stateMutability":"view","type":"function"},{"inputs":[{"internalType":"uint256","name":"","type":"uint256"}],"name":"pool","outputs":[{"internalType":"address","name":"stakeTokenAddress","type":"address"},{"internalType":"uint256","name":"poolWeight","type":"uint256"},{"internalType":"uint256","name":"lastRewardBlock","type":"uint256"},{"internalType":"uint256","name":"accumulateRewardsPerStake","type":"uint256"},{"internalType":"uint256","name":"stakeTokenAmount","type":"uint256"},{"internalType":"uint256","name":"minDepositAmount","type":"uint256"},{"internalType":"uint256","name":"unStakeLockedBlocks","type":"uint256"}],"stateMutability":"view","type":"function"},{"inputs":[],"name":"proxiableUUID","outputs":[{"internalType":"bytes32","name":"","type":"bytes32"}],"stateMutability":"view","type":"function"},{"inputs":[],"name":"rccPerBlock","outputs":[{"internalType":"uint256","name":"","type":"uint256"}],"stateMutability":"view","type":"function"},{"inputs":[{"internalType":"bytes32","name":"role","type":"bytes32"},{"internalType":"address","name":"callerConfirmation","type":"address"}],"name":"renounceRole","outputs":[],"stateMutability":"nonpayable","type":"function"},{"inputs":[{"internalType":"bytes32","name":"role","type":"bytes32"},{"internalType":"address","name":"account","type":"address"}],"name":"revokeRole","outputs":[],"stateMutability":"nonpayable","type":"function"},{"inputs":[{"internalType":"uint256","name":"_endBlock","type":"uint256"}],"name":"setEndBlock","outputs":[],"stateMutability":"nonpayable","type":"function"},{"inputs":[{"internalType":"uint256","name":"_poolId","type":"uint256"},{"internalType":"uint256","name":"_poolWeight","type":"uint256"},{"internalType":"bool","name":"_withUpdate","type":"bool"}],"name":"setPoolWeight","outputs":[],"stateMutability":"nonpayable","type":"function"},{"inputs":[{"internalType":"contract IERC20","name":"_RCC","type":"address"}],"name":"setRCC","outputs":[],"stateMutability":"nonpayable","type":"function"},{"inputs":[{"internalType":"uint256","name":"_rccPerBlock","type":"uint256"}],"name":"setRCCPerBlock","outputs":[],"stateMutability":"nonpayable","type":"function"},{"inputs":[{"internalType":"uint256","name":"_startBlock","type":"uint256"}],"name":"setStartBlock","outputs":[],"stateMutability":"nonpayable","type":"function"},{"inputs":[{"internalType":"uint256","name":"_pid","type":"uint256"},{"internalType":"address","name":"_user","type":"address"}],"name":"stakingBalance","outputs":[{"internalType":"uint256","name":"","type":"uint256"}],"stateMutability":"view","type":"function"},{"inputs":[],"name":"startBlock","outputs":[{"internalType":"uint256","name":"","type":"uint256"}],"stateMutability":"view","type":"function"},{"inputs":[{"internalType":"bytes4","name":"interfaceId","type":"bytes4"}],"name":"supportsInterface","outputs":[{"internalType":"bool","name":"","type":"bool"}],"stateMutability":"view","type":"function"},{"inputs":[],"name":"totalPoolWeight","outputs":[{"internalType":"uint256","name":"","type":"uint256"}],"stateMutability":"view","type":"function"},{"inputs":[],"name":"unpPauseWithdraw","outputs":[],"stateMutability":"nonpayable","type":"function"},{"inputs":[],"name":"unpauseClaim","outputs":[],"stateMutability":"nonpayable","type":"function"},{"inputs":[{"internalType":"uint256","name":"_pid","type":"uint256"},{"internalType":"uint256","name":"_amount","type":"uint256"}],"name":"unstake","outputs":[],"stateMutability":"nonpayable","type":"function"},{"inputs":[{"internalType":"uint256","name":"_pid","type":"uint256"}],"name":"updatePool","outputs":[],"stateMutability":"nonpayable","type":"function"},{"inputs":[{"internalType":"uint256","name":"_poolId","type":"uint256"},{"internalType":"uint256","name":"_minDepositAmount","type":"uint256"},{"internalType":"uint256","name":"_unStakeLockedBlocks","type":"uint256"}],"name":"updatePool","outputs":[],"stateMutability":"nonpayable","type":"function"},{"inputs":[{"internalType":"address","name":"newImplementation","type":"address"},{"internalType":"bytes","name":"data","type":"bytes"}],"name":"upgradeToAndCall","outputs":[],"stateMutability":"payable","type":"function"},{"inputs":[{"internalType":"uint256","name":"","type":"uint256"},{"internalType":"address","name":"","type":"address"}],"name":"user","outputs":[{"internalType":"uint256","name":"stakeAmount","type":"uint256"},{"internalType":"uint256","name":"finishedRewards","type":"uint256"},{"internalType":"uint256","name":"pendingRewards","type":"uint256"}],"stateMutability":"view","type":"function"},{"inputs":[{"internalType":"uint256","name":"_pid","type":"uint256"}],"name":"withdraw","outputs":[],"stateMutability":"nonpayable","type":"function"},{"inputs":[{"internalType":"uint256","name":"_poolId","type":"uint256"},{"internalType":"address","name":"_user","type":"address"}],"name":"withdrawAmount","outputs":[{"internalType":"uint256","name":"requestAmount","type":"uint256"},{"internalType":"uint256","name":"pendingWithdrawAmount","type":"uint256"}],"stateMutability":"view","type":"function"},{"inputs":[],"name":"withdrawPaused","outputs":[{"internalType":"bool","name":"","type":"bool"}],"stateMutability":"view","type":"function"},{"stateMutability":"payable","type":"receive"}],"evm":{"bytecode":{"linkReferences":{},"object":"60a06040523073ffffffffffffffffffffffffffffffffffffffff1660809073ffffffffffffffffffffffffffffffffffffffff1681525034801561004357600080fd5b506080516161286200006e600039600081816138d2015281816139270152613bbd01526161286000f3fe6080604052600436106102975760003560e01c806391d148541161015a578063c397920e116100c1578063f35e4a6e1161007a578063f35e4a6e146109b3578063f5485d32146109dc578063f6326fb314610a05578063fad07ece14610a0f578063fe31311214610a38578063ff42335714610a7b5761029e565b8063c397920e146108e1578063c713aa94146108f8578063d547741f14610921578063d86c04441461094a578063de065caa14610973578063e2bbb1581461098a5761029e565b8063ad3cb1cc11610113578063ad3cb1cc146107e3578063b3944d521461080e578063b6d9d91914610839578063b908afa814610862578063bed66c081461088d578063bfc3ebba146108b65761029e565b806391d14854146106bf5780639e2c8a5b146106fc578063a217fddf14610725578063a27d927914610750578063a72d5bf41461078d578063ab5e124a146107b85761029e565b806348cd4cb1116101fe5780636155e3de116101b75780636155e3de146105e7578063630b5ba1146105fe57806370ff01731461061557806375b238fc146106405780638dbb1e3a1461066b5780638ff095f9146106a85761029e565b806348cd4cb1146104f85780634ec81af1146105235780634f1ef2861461054c57806351eb05a61461056857806352d1902d146105915780635c975abb146105bc5761029e565b80632f2ff15d116102505780632f2ff15d146103d65780632f3ffb9f146103ff57806336568abe1461042a57806337849b3c14610453578063379607f51461049257806341721ab7146104bb5761029e565b806301ffc9a7146102a057806302559004146102dd578063083c6323146103085780631154823414610333578063248a9ca3146103705780632e1a7d4d146103ad5761029e565b3661029e57005b005b3480156102ac57600080fd5b506102c760048036038101906102c29190614606565b610ab9565b6040516102d4919061464e565b60405180910390f35b3480156102e957600080fd5b506102f2610b33565b6040516102ff9190614682565b60405180910390f35b34801561031457600080fd5b5061031d610b39565b60405161032a9190614682565b60405180910390f35b34801561033f57600080fd5b5061035a60048036038101906103559190614727565b610b3f565b6040516103679190614682565b60405180910390f35b34801561037c57600080fd5b506103976004803603810190610392919061479d565b610be6565b6040516103a491906147d9565b60405180910390f35b3480156103b957600080fd5b506103d460048036038101906103cf91906147f4565b610c14565b005b3480156103e257600080fd5b506103fd60048036038101906103f89190614821565b610fc6565b005b34801561040b57600080fd5b50610414610fe8565b604051610421919061464e565b60405180910390f35b34801561043657600080fd5b50610451600480360381019061044c9190614821565b610ffb565b005b34801561045f57600080fd5b5061047a60048036038101906104759190614727565b611076565b60405161048993929190614861565b60405180910390f35b34801561049e57600080fd5b506104b960048036038101906104b491906147f4565b6110ad565b005b3480156104c757600080fd5b506104e260048036038101906104dd9190614898565b6112a9565b6040516104ef9190614682565b60405180910390f35b34801561050457600080fd5b5061050d6113ff565b60405161051a9190614682565b60405180910390f35b34801561052f57600080fd5b5061054a60048036038101906105459190614929565b611405565b005b61056660048036038101906105619190614ad6565b6116ae565b005b34801561057457600080fd5b5061058f600480360381019061058a91906147f4565b6116cd565b005b34801561059d57600080fd5b506105a66119b9565b6040516105b391906147d9565b60405180910390f35b3480156105c857600080fd5b506105d16119ec565b6040516105de919061464e565b60405180910390f35b3480156105f357600080fd5b506105fc611a11565b005b34801561060a57600080fd5b50610613611ad4565b005b34801561062157600080fd5b5061062a611b03565b6040516106379190614682565b60405180910390f35b34801561064c57600080fd5b50610655611b09565b60405161066291906147d9565b60405180910390f35b34801561067757600080fd5b50610692600480360381019061068d9190614b32565b611b2d565b60405161069f9190614682565b60405180910390f35b3480156106b457600080fd5b506106bd611c51565b005b3480156106cb57600080fd5b506106e660048036038101906106e19190614821565b611d15565b6040516106f3919061464e565b60405180910390f35b34801561070857600080fd5b50610723600480360381019061071e9190614b32565b611d8e565b005b34801561073157600080fd5b5061073a612168565b60405161074791906147d9565b60405180910390f35b34801561075c57600080fd5b5061077760048036038101906107729190614727565b61216f565b6040516107849190614682565b60405180910390f35b34801561079957600080fd5b506107a26121cd565b6040516107af9190614bd1565b60405180910390f35b3480156107c457600080fd5b506107cd6121f3565b6040516107da919061464e565b60405180910390f35b3480156107ef57600080fd5b506107f8612206565b6040516108059190614c6b565b60405180910390f35b34801561081a57600080fd5b5061082361223f565b6040516108309190614682565b60405180910390f35b34801561084557600080fd5b50610860600480360381019061085b9190614cb9565b61224c565b005b34801561086e57600080fd5b506108776125c9565b60405161088491906147d9565b60405180910390f35b34801561089957600080fd5b506108b460048036038101906108af91906147f4565b6125ed565b005b3480156108c257600080fd5b506108cb612692565b6040516108d89190614682565b60405180910390f35b3480156108ed57600080fd5b506108f6612697565b005b34801561090457600080fd5b5061091f600480360381019061091a91906147f4565b61275b565b005b34801561092d57600080fd5b5061094860048036038101906109439190614821565b612802565b005b34801561095657600080fd5b50610971600480360381019061096c9190614d34565b612824565b005b34801561097f57600080fd5b50610988612967565b005b34801561099657600080fd5b506109b160048036038101906109ac9190614b32565b612a2a565b005b3480156109bf57600080fd5b506109da60048036038101906109d591906147f4565b612bdc565b005b3480156109e857600080fd5b50610a0360048036038101906109fe9190614d87565b612c83565b005b610a0d612d57565b005b348015610a1b57600080fd5b50610a366004803603810190610a319190614db4565b612e74565b005b348015610a4457600080fd5b50610a5f6004803603810190610a5a91906147f4565b613038565b604051610a729796959493929190614e16565b60405180910390f35b348015610a8757600080fd5b50610aa26004803603810190610a9d9190614727565b6130aa565b604051610ab0929190614e85565b60405180910390f35b60007f7965db0b000000000000000000000000000000000000000000000000000000007bffffffffffffffffffffffffffffffffffffffffffffffffffffffff1916827bffffffffffffffffffffffffffffffffffffffffffffffffffffffff19161480610b2c5750610b2b8261320b565b5b9050919050565b60045481565b60015481565b6000826005805490508110610b89576040517f08c379a0000000000000000000000000000000000000000000000000000000008152600401610b8090614efa565b60405180910390fd5b6006600085815260200190815260200160002060008473ffffffffffffffffffffffffffffffffffffffff1673ffffffffffffffffffffffffffffffffffffffff1681526020019081526020016000206000015491505092915050565b600080610bf1613275565b905080600001600084815260200190815260200160002060010154915050919050565b610c1c61329d565b600360009054906101000a900460ff1615610c6c576040517f08c379a0000000000000000000000000000000000000000000000000000000008152600401610c6390614f66565b60405180910390fd5b806005805490508110610cb4576040517f08c379a0000000000000000000000000000000000000000000000000000000008152600401610cab90614efa565b60405180910390fd5b600060058381548110610cca57610cc9614f86565b5b9060005260206000209060070201905060006006600085815260200190815260200160002060003373ffffffffffffffffffffffffffffffffffffffff1673ffffffffffffffffffffffffffffffffffffffff168152602001908152602001600020905060008060005b8360030180549050811015610dc15743846003018281548110610d5a57610d59614f86565b5b90600052602060002090600202016001015411610dc157836003018181548110610d8757610d86614f86565b5b90600052602060002090600202016000015483610da49190614fe4565b92508180610db190615018565b9250508080600101915050610d34565b5060005b818460030180549050610dd89190615060565b811015610e5657836003018282610def9190614fe4565b81548110610e0057610dff614f86565b5b9060005260206000209060020201846003018281548110610e2457610e23614f86565b5b906000526020600020906002020160008201548160000155600182015481600101559050508080600101915050610dc5565b5060005b81811015610eac5783600301805480610e7657610e75615094565b5b60019003818190600052602060002090600202016000808201600090556001820160009055505090558080600101915050610e5a565b506000821115610f6e57600073ffffffffffffffffffffffffffffffffffffffff168460000160009054906101000a900473ffffffffffffffffffffffffffffffffffffffff1673ffffffffffffffffffffffffffffffffffffffff1603610f1d57610f1833836132de565b610f6d565b610f6c33838660000160009054906101000a900473ffffffffffffffffffffffffffffffffffffffff1673ffffffffffffffffffffffffffffffffffffffff166133f09092919063ffffffff16565b5b5b43863373ffffffffffffffffffffffffffffffffffffffff167f02f25270a4d87bea75db541cdfe559334a275b4a233520ed6c0a2429667cca9485604051610fb69190614682565b60405180910390a4505050505050565b610fcf82610be6565b610fd88161346f565b610fe28383613483565b50505050565b600360009054906101000a900460ff1681565b611003613584565b73ffffffffffffffffffffffffffffffffffffffff168173ffffffffffffffffffffffffffffffffffffffff1614611067576040517f6697b23200000000000000000000000000000000000000000000000000000000815260040160405180910390fd5b611071828261358c565b505050565b6006602052816000526040600020602052806000526040600020600091509150508060000154908060010154908060020154905083565b6110b561329d565b8060058054905081106110fd576040517f08c379a00000000000000000000000000000000000000000000000000000000081526004016110f490614efa565b60405180910390fd5b600360019054906101000a900460ff161561114d576040517f08c379a00000000000000000000000000000000000000000000000000000000081526004016111449061510f565b60405180910390fd5b60006005838154811061116357611162614f86565b5b9060005260206000209060070201905060006006600085815260200190815260200160002060003373ffffffffffffffffffffffffffffffffffffffff1673ffffffffffffffffffffffffffffffffffffffff16815260200190815260200160002090506111d0846116cd565b600081600201548260010154846003015484600001546111f0919061512f565b6111fa9190615060565b6112049190614fe4565b905060008111156112245760008260020181905550611223338261368e565b5b670de0b6b3a764000083600301548360000154611241919061512f565b61124b91906151a0565b8260010181905550843373ffffffffffffffffffffffffffffffffffffffff167f34fcbac0073d7c3d388e51312faf357774904998eeb8fca628b9e6f65ee1cbf78360405161129a9190614682565b60405180910390a35050505050565b600080600585815481106112c0576112bf614f86565b5b9060005260206000209060070201905060006006600087815260200190815260200160002060008673ffffffffffffffffffffffffffffffffffffffff1673ffffffffffffffffffffffffffffffffffffffff168152602001908152602001600020905060008260030154905060008360040154905083600201548610801561134a575060008114155b156113b157600061135f856002015488611b2d565b90506000600454866001015483611376919061512f565b61138091906151a0565b905082670de0b6b3a764000082611397919061512f565b6113a191906151a0565b846113ac9190614fe4565b935050505b82600201548360010154670de0b6b3a76400008486600001546113d4919061512f565b6113de91906151a0565b6113e89190615060565b6113f29190614fe4565b9450505050509392505050565b60005481565b600061140f613882565b905060008160000160089054906101000a900460ff1615905060008260000160009054906101000a900467ffffffffffffffff1690506000808267ffffffffffffffff1614801561145d5750825b9050600060018367ffffffffffffffff16148015611492575060003073ffffffffffffffffffffffffffffffffffffffff163b145b9050811580156114a0575080155b156114d7576040517ff92ee8a900000000000000000000000000000000000000000000000000000000815260040160405180910390fd5b60018560000160006101000a81548167ffffffffffffffff021916908367ffffffffffffffff16021790555083156115275760018560000160086101000a81548160ff0219169083151502179055505b8688111561156a576040517f08c379a000000000000000000000000000000000000000000000000000000000815260040161156190615243565b60405180910390fd5b600086116115ad576040517f08c379a00000000000000000000000000000000000000000000000000000000081526004016115a4906152d5565b60405180910390fd5b6115b56138aa565b6115bd6138b4565b6115c56138be565b6115d26000801b33613483565b506115fd7ff47fc0c09ebbfe308d89b8035681a1164b9882bcfd49eb89861067738a30f5ab33613483565b506116287f589d473ba17c0f47d494622893831497bad25919b9afb8e33e9521b8963fccde33613483565b5061163289612c83565b87600081905550866001819055508560028190555083156116a35760008560000160086101000a81548160ff0219169083151502179055507fc7f505b2f371ae2175ee4913f4499e1f2633a7b5936321eed1cdaeb6115181d2600160405161169a9190615344565b60405180910390a15b505050505050505050565b6116b66138d0565b6116bf826139b6565b6116c982826139e4565b5050565b806005805490508110611715576040517f08c379a000000000000000000000000000000000000000000000000000000000815260040161170c90614efa565b60405180910390fd5b60006005838154811061172b5761172a614f86565b5b906000526020600020906007020190508060020154431161174c57506119b5565b6000816004015490506000810361176d5743826002018190555050506119b5565b6000806117948460010154611786866002015443611b2d565b613b0390919063ffffffff16565b91509150816117d8576040517f08c379a00000000000000000000000000000000000000000000000000000000081526004016117cf906153ab565b60405180910390fd5b6117ed60045482613b5690919063ffffffff16565b809250819350505081611835576040517f08c379a000000000000000000000000000000000000000000000000000000000815260040161182c906153ab565b60405180910390fd5b60008460040154905060008111156119695760008061185e600185613b0390919063ffffffff16565b91509150816118a2576040517f08c379a0000000000000000000000000000000000000000000000000000000008152600401611899906153ab565b60405180910390fd5b6118b58382613b5690919063ffffffff16565b8092508193505050816118fd576040517f08c379a00000000000000000000000000000000000000000000000000000000081526004016118f4906153ab565b60405180910390fd5b600080611917838a60030154613b8c90919063ffffffff16565b915091508161195b576040517f08c379a0000000000000000000000000000000000000000000000000000000008152600401611952906153ab565b60405180910390fd5b808960030181905550505050505b4385600201819055508460020154877ff5d2d72d9b25d6853afd7d0554a113b705234b6a68bb36b7f143662994632411846040516119a79190614682565b60405180910390a350505050505b5050565b60006119c3613bbb565b7f360894a13ba1a3210667c828492db98dca3e2076cc3735a920a3ca505d382bbc60001b905090565b6000806119f7613c42565b90508060000160009054906101000a900460ff1691505090565b7f589d473ba17c0f47d494622893831497bad25919b9afb8e33e9521b8963fccde611a3b8161346f565b600360009054906101000a900460ff16611a8a576040517f08c379a0000000000000000000000000000000000000000000000000000000008152600401611a819061543d565b60405180910390fd5b6001600360006101000a81548160ff0219169083151502179055507f2523dfdafa00190f21a4cbd0c25179c8dd3cb34a6c17fea952ecca8fa8332c0e60405160405180910390a150565b6000600580549050905060005b81811015611aff57611af2816116cd565b8080600101915050611ae1565b5050565b60025481565b7f589d473ba17c0f47d494622893831497bad25919b9afb8e33e9521b8963fccde81565b600081831115611b72576040517f08c379a0000000000000000000000000000000000000000000000000000000008152600401611b69906154a9565b60405180910390fd5b600054831015611b825760005492505b600154821115611b925760015491505b60008383611ba09190615060565b11611be0576040517f08c379a0000000000000000000000000000000000000000000000000000000008152600401611bd7906154a9565b60405180910390fd5b6000611c026002548585611bf49190615060565b613b0390919063ffffffff16565b809350819250505080611c4a576040517f08c379a0000000000000000000000000000000000000000000000000000000008152600401611c4190615515565b60405180910390fd5b5092915050565b7f589d473ba17c0f47d494622893831497bad25919b9afb8e33e9521b8963fccde611c7b8161346f565b600360019054906101000a900460ff1615611ccb576040517f08c379a0000000000000000000000000000000000000000000000000000000008152600401611cc290615581565b60405180910390fd5b6001600360016101000a81548160ff0219169083151502179055507f443bf540e8151617cd5c39a681cc35a5a22be078b6f0cf16e5bd822b4c4b61ff60405160405180910390a150565b600080611d20613275565b905080600001600085815260200190815260200160002060000160008473ffffffffffffffffffffffffffffffffffffffff1673ffffffffffffffffffffffffffffffffffffffff16815260200190815260200160002060009054906101000a900460ff1691505092915050565b611d9661329d565b600360009054906101000a900460ff1615611de6576040517f08c379a0000000000000000000000000000000000000000000000000000000008152600401611ddd90614f66565b60405180910390fd5b816005805490508110611e2e576040517f08c379a0000000000000000000000000000000000000000000000000000000008152600401611e2590614efa565b60405180910390fd5b600060058481548110611e4457611e43614f86565b5b9060005260206000209060070201905060006006600086815260200190815260200160002060003373ffffffffffffffffffffffffffffffffffffffff1673ffffffffffffffffffffffffffffffffffffffff16815260200190815260200160002090508381600001541015611eef576040517f08c379a0000000000000000000000000000000000000000000000000000000008152600401611ee6906155ed565b60405180910390fd5b611ef8856116cd565b600080611f1684600301548460000154613b0390919063ffffffff16565b9150915081611f5a576040517f08c379a0000000000000000000000000000000000000000000000000000000008152600401611f51906153ab565b60405180910390fd5b611f6e600182613b5690919063ffffffff16565b809250819350505081611fb6576040517f08c379a0000000000000000000000000000000000000000000000000000000008152600401611fad90615659565b60405180910390fd5b611fcd836001015482613c6a90919063ffffffff16565b809250819350505081612015576040517f08c379a000000000000000000000000000000000000000000000000000000000815260040161200c906156c5565b60405180910390fd5b600081111561203a57808360020160008282546120329190614fe4565b925050819055505b60008611156120c657858360000160008282546120579190615060565b925050819055508260030160405180604001604052808881526020018660060154436120839190614fe4565b8152509080600181540180825580915050600190039060005260206000209060020201600090919091909150600082015181600001556020820151816001015550505b858460040160008282546120da9190615060565b92505081905550670de0b6b3a7640000846003015484600001546120fe919061512f565b61210891906151a0565b8360010181905550863373ffffffffffffffffffffffffffffffffffffffff167fc80277265097707f6f12a4ac4c09d46c9926e2eea2536f63616cb04d9fcad7d6886040516121579190614682565b60405180910390a350505050505050565b6000801b81565b60008260058054905081106121b9576040517f08c379a00000000000000000000000000000000000000000000000000000000081526004016121b090614efa565b60405180910390fd5b6121c48484436112a9565b91505092915050565b600360029054906101000a900473ffffffffffffffffffffffffffffffffffffffff1681565b600360019054906101000a900460ff1681565b6040518060400160405280600581526020017f352e302e3000000000000000000000000000000000000000000000000000000081525081565b6000600580549050905090565b7f589d473ba17c0f47d494622893831497bad25919b9afb8e33e9521b8963fccde6122768161346f565b6000600580549050111561233e57600073ffffffffffffffffffffffffffffffffffffffff1660056000815481106122b1576122b0614f86565b5b906000526020600020906007020160000160009054906101000a900473ffffffffffffffffffffffffffffffffffffffff1673ffffffffffffffffffffffffffffffffffffffff1614612339576040517f08c379a000000000000000000000000000000000000000000000000000000000815260040161233090615731565b60405180910390fd5b6123ae565b600073ffffffffffffffffffffffffffffffffffffffff168673ffffffffffffffffffffffffffffffffffffffff16146123ad576040517f08c379a00000000000000000000000000000000000000000000000000000000081526004016123a490615731565b60405180910390fd5b5b600083116123f1576040517f08c379a00000000000000000000000000000000000000000000000000000000081526004016123e89061579d565b60405180910390fd5b6001544310612435576040517f08c379a000000000000000000000000000000000000000000000000000000000815260040161242c90615809565b60405180910390fd5b811561244457612443611ad4565b5b60008054431161245657600054612458565b435b9050856004600082825461246c9190614fe4565b9250508190555060056040518060e001604052808973ffffffffffffffffffffffffffffffffffffffff168152602001888152602001838152602001600081526020016000815260200187815260200186815250908060018154018082558091505060019003906000526020600020906007020160009091909190915060008201518160000160006101000a81548173ffffffffffffffffffffffffffffffffffffffff021916908373ffffffffffffffffffffffffffffffffffffffff1602179055506020820151816001015560408201518160020155606082015181600301556080820151816004015560a0820151816005015560c08201518160060155505080868873ffffffffffffffffffffffffffffffffffffffff167f0fa296fce13e7a0e622b3a892e66220c248337289483a3cfa4130cde0caa134688886040516125b8929190614e85565b60405180910390a450505050505050565b7ff47fc0c09ebbfe308d89b8035681a1164b9882bcfd49eb89861067738a30f5ab81565b7f589d473ba17c0f47d494622893831497bad25919b9afb8e33e9521b8963fccde6126178161346f565b6000821161265a576040517f08c379a0000000000000000000000000000000000000000000000000000000008152600401612651906152d5565b60405180910390fd5b81600281905550817f4c70925b625536dd633f6bd2d615c67fddc2e7c63c31164047a981a0df3fee5460405160405180910390a25050565b600081565b7f589d473ba17c0f47d494622893831497bad25919b9afb8e33e9521b8963fccde6126c18161346f565b600360009054906101000a900460ff1615612711576040517f08c379a000000000000000000000000000000000000000000000000000000000815260040161270890615875565b60405180910390fd5b6000600360006101000a81548160ff0219169083151502179055507f027c975733baceca09666fae356a901e083676848aaf9710150079385daae74360405160405180910390a150565b7f589d473ba17c0f47d494622893831497bad25919b9afb8e33e9521b8963fccde6127858161346f565b8160005411156127ca576040517f08c379a00000000000000000000000000000000000000000000000000000000081526004016127c190615243565b60405180910390fd5b81600181905550817f1132c5baccb51da3d049fabc819697dc845fa224ad59d9b555507d6446b4085060405160405180910390a25050565b61280b82610be6565b6128148161346f565b61281e838361358c565b50505050565b82600580549050811061286c576040517f08c379a000000000000000000000000000000000000000000000000000000000815260040161286390614efa565b60405180910390fd5b7f589d473ba17c0f47d494622893831497bad25919b9afb8e33e9521b8963fccde6128968161346f565b60058054905085106128dd576040517f08c379a00000000000000000000000000000000000000000000000000000000081526004016128d4906158e1565b60405180910390fd5b83600586815481106128f2576128f1614f86565b5b906000526020600020906007020160050181905550826005868154811061291c5761291b614f86565b5b9060005260206000209060070201600601819055508284867f30dffdedaa3e3b4849298233f7cd71d229956e875ab09270498c96b7cf9181fd60405160405180910390a45050505050565b7f589d473ba17c0f47d494622893831497bad25919b9afb8e33e9521b8963fccde6129918161346f565b600360019054906101000a900460ff166129e0576040517f08c379a00000000000000000000000000000000000000000000000000000000081526004016129d790615581565b60405180910390fd5b6000600360016101000a81548160ff0219169083151502179055507f07c8faf23a72a53eb5c2c466dc81386a58b2a27d0cc3c7c580a3c12e372ba31360405160405180910390a150565b600360009054906101000a900460ff1615612a7a576040517f08c379a0000000000000000000000000000000000000000000000000000000008152600401612a7190614f66565b60405180910390fd5b816005805490508110612ac2576040517f08c379a0000000000000000000000000000000000000000000000000000000008152600401612ab990614efa565b60405180910390fd5b60008303612b05576040517f08c379a0000000000000000000000000000000000000000000000000000000008152600401612afc9061594d565b60405180910390fd5b600060058481548110612b1b57612b1a614f86565b5b9060005260206000209060070201905080600501548311612b71576040517f08c379a0000000000000000000000000000000000000000000000000000000008152600401612b68906159b9565b60405180910390fd5b6000831115612bcc57612bcb3330858460000160009054906101000a900473ffffffffffffffffffffffffffffffffffffffff1673ffffffffffffffffffffffffffffffffffffffff16613c92909392919063ffffffff16565b5b612bd68484613d14565b50505050565b7f589d473ba17c0f47d494622893831497bad25919b9afb8e33e9521b8963fccde612c068161346f565b600154821115612c4b576040517f08c379a0000000000000000000000000000000000000000000000000000000008152600401612c4290615243565b60405180910390fd5b81600081905550817f63b90b79f11a0f132bcb2c4a4ddd44abda45c1308a83b2919318df7f5f8b7be460405160405180910390a25050565b7f589d473ba17c0f47d494622893831497bad25919b9afb8e33e9521b8963fccde612cad8161346f565b81600360026101000a81548173ffffffffffffffffffffffffffffffffffffffff021916908373ffffffffffffffffffffffffffffffffffffffff160217905550600360029054906101000a900473ffffffffffffffffffffffffffffffffffffffff1673ffffffffffffffffffffffffffffffffffffffff167f153aae53b92218044bd5f43922617c6b253e50ac98a41b44c3acb5625ded348860405160405180910390a25050565b612d5f61329d565b60006005600081548110612d7657612d75614f86565b5b90600052602060002090600702019050600073ffffffffffffffffffffffffffffffffffffffff168160000160009054906101000a900473ffffffffffffffffffffffffffffffffffffffff1673ffffffffffffffffffffffffffffffffffffffff1614612e19576040517f08c379a0000000000000000000000000000000000000000000000000000000008152600401612e1090615a25565b60405180910390fd5b60003490508160050154811015612e65576040517f08c379a0000000000000000000000000000000000000000000000000000000008152600401612e5c906159b9565b60405180910390fd5b612e70600082613d14565b5050565b7f589d473ba17c0f47d494622893831497bad25919b9afb8e33e9521b8963fccde612e9e8161346f565b6005805490508410612ee5576040517f08c379a0000000000000000000000000000000000000000000000000000000008152600401612edc906158e1565b60405180910390fd5b60008311612f28576040517f08c379a0000000000000000000000000000000000000000000000000000000008152600401612f1f90615a91565b60405180910390fd5b8115612f3757612f36611ad4565b5b600080612f4f85600454613b8c90919063ffffffff16565b9150915081612f93576040517f08c379a0000000000000000000000000000000000000000000000000000000008152600401612f8a90615afd565b60405180910390fd5b60058681548110612fa757612fa6614f86565b5b90600052602060002090600702016001015481612fc49190615060565b6004819055508460058781548110612fdf57612fde614f86565b5b906000526020600020906007020160010181905550857f4b8fa3d6a87cb21d1bf4978bf60628ae358a28ac7f39de1751a481c6dd95761786600454604051613028929190614e85565b60405180910390a2505050505050565b6005818154811061304857600080fd5b90600052602060002090600702016000915090508060000160009054906101000a900473ffffffffffffffffffffffffffffffffffffffff16908060010154908060020154908060030154908060040154908060050154908060060154905087565b6000808360058054905081106130f5576040517f08c379a00000000000000000000000000000000000000000000000000000000081526004016130ec90614efa565b60405180910390fd5b60006006600087815260200190815260200160002060008673ffffffffffffffffffffffffffffffffffffffff1673ffffffffffffffffffffffffffffffffffffffff168152602001908152602001600020905060005b8160030180549050811015613201574382600301828154811061317257613171614f86565b5b906000526020600020906002020160010154116131bf5781600301818154811061319f5761319e614f86565b5b906000526020600020906002020160000154846131bc9190614fe4565b93505b8160030181815481106131d5576131d4614f86565b5b906000526020600020906002020160000154856131f29190614fe4565b9450808060010191505061314c565b5050509250929050565b60007f01ffc9a7000000000000000000000000000000000000000000000000000000007bffffffffffffffffffffffffffffffffffffffffffffffffffffffff1916827bffffffffffffffffffffffffffffffffffffffffffffffffffffffff1916149050919050565b60007f02dd7bc7dec4dceedda775e58dd541e08a116c6c53815c0bd028192f7b626800905090565b6132a56119ec565b156132dc576040517fd93c066500000000000000000000000000000000000000000000000000000000815260040160405180910390fd5b565b6000808373ffffffffffffffffffffffffffffffffffffffff168360405161330590615b4e565b60006040518083038185875af1925050503d8060008114613342576040519150601f19603f3d011682016040523d82523d6000602084013e613347565b606091505b50915091508161338c576040517f08c379a000000000000000000000000000000000000000000000000000000000815260040161338390615baf565b60405180910390fd5b6000815111156133ea57808060200190518101906133aa9190615be4565b6133e9576040517f08c379a00000000000000000000000000000000000000000000000000000000081526004016133e090615c83565b60405180910390fd5b5b50505050565b61346a838473ffffffffffffffffffffffffffffffffffffffff1663a9059cbb8585604051602401613423929190615ca3565b604051602081830303815290604052915060e01b6020820180517bffffffffffffffffffffffffffffffffffffffffffffffffffffffff83818316178352505050506140dd565b505050565b6134808161347b613584565b61417f565b50565b60008061348e613275565b905061349a8484611d15565b61357857600181600001600086815260200190815260200160002060000160008573ffffffffffffffffffffffffffffffffffffffff1673ffffffffffffffffffffffffffffffffffffffff16815260200190815260200160002060006101000a81548160ff021916908315150217905550613514613584565b73ffffffffffffffffffffffffffffffffffffffff168373ffffffffffffffffffffffffffffffffffffffff16857f2f8788117e7eff1d82e926ec794901d17c78024a50270940304540a733656f0d60405160405180910390a4600191505061357e565b60009150505b92915050565b600033905090565b600080613597613275565b90506135a38484611d15565b1561368257600081600001600086815260200190815260200160002060000160008573ffffffffffffffffffffffffffffffffffffffff1673ffffffffffffffffffffffffffffffffffffffff16815260200190815260200160002060006101000a81548160ff02191690831515021790555061361e613584565b73ffffffffffffffffffffffffffffffffffffffff168373ffffffffffffffffffffffffffffffffffffffff16857ff6391f5c32d9c69d2a47ea670b442974b53935d1edc7fd64eb21e047a839171b60405160405180910390a46001915050613688565b60009150505b92915050565b6000600360029054906101000a900473ffffffffffffffffffffffffffffffffffffffff1673ffffffffffffffffffffffffffffffffffffffff166370a08231306040518263ffffffff1660e01b81526004016136eb9190615ccc565b602060405180830381865afa158015613708573d6000803e3d6000fd5b505050506040513d601f19601f8201168201806040525081019061372c9190615cfc565b90508082116137db57600360029054906101000a900473ffffffffffffffffffffffffffffffffffffffff1673ffffffffffffffffffffffffffffffffffffffff1663a9059cbb84846040518363ffffffff1660e01b8152600401613792929190615ca3565b6020604051808303816000875af11580156137b1573d6000803e3d6000fd5b505050506040513d601f19601f820116820180604052508101906137d59190615be4565b5061387d565b600360029054906101000a900473ffffffffffffffffffffffffffffffffffffffff1673ffffffffffffffffffffffffffffffffffffffff1663a9059cbb84836040518363ffffffff1660e01b8152600401613838929190615ca3565b6020604051808303816000875af1158015613857573d6000803e3d6000fd5b505050506040513d601f19601f8201168201806040525081019061387b9190615be4565b505b505050565b60007ff0c57e16840df040f15088dc2f81fe391c3923bec73e23a9662efc9c229c6a00905090565b6138b26141d0565b565b6138bc6141d0565b565b6138c66141d0565b6138ce614210565b565b7f000000000000000000000000000000000000000000000000000000000000000073ffffffffffffffffffffffffffffffffffffffff163073ffffffffffffffffffffffffffffffffffffffff16148061397d57507f000000000000000000000000000000000000000000000000000000000000000073ffffffffffffffffffffffffffffffffffffffff16613964614244565b73ffffffffffffffffffffffffffffffffffffffff1614155b156139b4576040517fe07c8dba00000000000000000000000000000000000000000000000000000000815260040160405180910390fd5b565b7ff47fc0c09ebbfe308d89b8035681a1164b9882bcfd49eb89861067738a30f5ab6139e08161346f565b5050565b8173ffffffffffffffffffffffffffffffffffffffff166352d1902d6040518163ffffffff1660e01b8152600401602060405180830381865afa925050508015613a4c57506040513d601f19601f82011682018060405250810190613a499190615d3e565b60015b613a8d57816040517f4c9c8ce3000000000000000000000000000000000000000000000000000000008152600401613a849190615ccc565b60405180910390fd5b7f360894a13ba1a3210667c828492db98dca3e2076cc3735a920a3ca505d382bbc60001b8114613af457806040517faa1d49a4000000000000000000000000000000000000000000000000000000008152600401613aeb91906147d9565b60405180910390fd5b613afe838361429b565b505050565b60008060008403613b1b576001600091509150613b4f565b6000838502905083858281613b3357613b32615171565b5b0414613b46576000809250925050613b4f565b60018192509250505b9250929050565b60008060008303613b6d5760008091509150613b85565b6001838581613b7f57613b7e615171565b5b04915091505b9250929050565b6000806000838501905084811015613bab576000809250925050613bb4565b60018192509250505b9250929050565b7f000000000000000000000000000000000000000000000000000000000000000073ffffffffffffffffffffffffffffffffffffffff163073ffffffffffffffffffffffffffffffffffffffff1614613c40576040517fe07c8dba00000000000000000000000000000000000000000000000000000000815260040160405180910390fd5b565b60007fcd5ed15c6e187e77e9aee88184c21f4f2182ab5827cb3b7e07fbedcd63f03300905090565b60008083831115613c815760008091509150613c8b565b6001838503915091505b9250929050565b613d0e848573ffffffffffffffffffffffffffffffffffffffff166323b872dd868686604051602401613cc793929190615d6b565b604051602081830303815290604052915060e01b6020820180517bffffffffffffffffffffffffffffffffffffffffffffffffffffffff83818316178352505050506140dd565b50505050565b600060058381548110613d2a57613d29614f86565b5b9060005260206000209060070201905060006006600085815260200190815260200160002060003373ffffffffffffffffffffffffffffffffffffffff1673ffffffffffffffffffffffffffffffffffffffff1681526020019081526020016000209050613d97846116cd565b600081600001541115613f3f57600080613dc284600301548460000154613b0390919063ffffffff16565b9150915081613e06576040517f08c379a0000000000000000000000000000000000000000000000000000000008152600401613dfd90615dee565b60405180910390fd5b613e21670de0b6b3a764000082613b5690919063ffffffff16565b809250819350505081613e69576040517f08c379a0000000000000000000000000000000000000000000000000000000008152600401613e6090615e80565b60405180910390fd5b600080613e83856001015484613c6a90919063ffffffff16565b9150915081613ec7576040517f08c379a0000000000000000000000000000000000000000000000000000000008152600401613ebe90615eec565b60405180910390fd5b6000811115613f3a57600080613eea838860020154613b8c90919063ffffffff16565b9150915081613f2e576040517f08c379a0000000000000000000000000000000000000000000000000000000008152600401613f2590615eec565b60405180910390fd5b80876002018190555050505b505050505b6000831115613fb257600080613f62836000015486613b8c90919063ffffffff16565b9150915081613fa6576040517f08c379a0000000000000000000000000000000000000000000000000000000008152600401613f9d90615f58565b60405180910390fd5b80836000018190555050505b600080613fcc858560040154613b8c90919063ffffffff16565b9150915081614010576040517f08c379a000000000000000000000000000000000000000000000000000000000815260040161400790615fc4565b60405180910390fd5b80846004018190555060008061403786600301548660000154613b0390919063ffffffff16565b915091508161407b576040517f08c379a000000000000000000000000000000000000000000000000000000000815260040161407290616056565b60405180910390fd5b808560010181905550873373ffffffffffffffffffffffffffffffffffffffff167f90890809c654f11d6e72a28fa60149770a0d11ec6c92319d6ceb2bb0a4ea1a15896040516140cb9190614682565b60405180910390a35050505050505050565b600080602060008451602086016000885af180614100576040513d6000823e3d81fd5b3d92506000519150506000821461411b576001811415614137565b60008473ffffffffffffffffffffffffffffffffffffffff163b145b1561417957836040517f5274afe70000000000000000000000000000000000000000000000000000000081526004016141709190615ccc565b60405180910390fd5b50505050565b6141898282611d15565b6141cc5780826040517fe2517d3f0000000000000000000000000000000000000000000000000000000081526004016141c3929190616076565b60405180910390fd5b5050565b6141d861430e565b61420e576040517fd7e6bcf800000000000000000000000000000000000000000000000000000000815260040160405180910390fd5b565b6142186141d0565b6000614222613c42565b905060008160000160006101000a81548160ff02191690831515021790555050565b60006142727f360894a13ba1a3210667c828492db98dca3e2076cc3735a920a3ca505d382bbc60001b61432e565b60000160009054906101000a900473ffffffffffffffffffffffffffffffffffffffff16905090565b6142a482614338565b8173ffffffffffffffffffffffffffffffffffffffff167fbc7cd75a20ee27fd9adebab32041f755214dbc6bffa90cc0225b39da2e5c2d3b60405160405180910390a2600081511115614301576142fb8282614405565b5061430a565b614309614489565b5b5050565b6000614318613882565b60000160089054906101000a900460ff16905090565b6000819050919050565b60008173ffffffffffffffffffffffffffffffffffffffff163b0361439457806040517f4c9c8ce300000000000000000000000000000000000000000000000000000000815260040161438b9190615ccc565b60405180910390fd5b806143c17f360894a13ba1a3210667c828492db98dca3e2076cc3735a920a3ca505d382bbc60001b61432e565b60000160006101000a81548173ffffffffffffffffffffffffffffffffffffffff021916908373ffffffffffffffffffffffffffffffffffffffff16021790555050565b60606000808473ffffffffffffffffffffffffffffffffffffffff168460405161442f91906160db565b600060405180830381855af49150503d806000811461446a576040519150601f19603f3d011682016040523d82523d6000602084013e61446f565b606091505b509150915061447f8583836144c6565b9250505092915050565b60003411156144c4576040517fb398979f00000000000000000000000000000000000000000000000000000000815260040160405180910390fd5b565b6060826144db576144d682614555565b61454d565b60008251148015614503575060008473ffffffffffffffffffffffffffffffffffffffff163b145b1561454557836040517f9996b31500000000000000000000000000000000000000000000000000000000815260040161453c9190615ccc565b60405180910390fd5b81905061454e565b5b9392505050565b6000815111156145685780518082602001fd5b6040517fd6bda27500000000000000000000000000000000000000000000000000000000815260040160405180910390fd5b6000604051905090565b600080fd5b600080fd5b60007fffffffff0000000000000000000000000000000000000000000000000000000082169050919050565b6145e3816145ae565b81146145ee57600080fd5b50565b600081359050614600816145da565b92915050565b60006020828403121561461c5761461b6145a4565b5b600061462a848285016145f1565b91505092915050565b60008115159050919050565b61464881614633565b82525050565b6000602082019050614663600083018461463f565b92915050565b6000819050919050565b61467c81614669565b82525050565b60006020820190506146976000830184614673565b92915050565b6146a681614669565b81146146b157600080fd5b50565b6000813590506146c38161469d565b92915050565b600073ffffffffffffffffffffffffffffffffffffffff82169050919050565b60006146f4826146c9565b9050919050565b614704816146e9565b811461470f57600080fd5b50565b600081359050614721816146fb565b92915050565b6000806040838503121561473e5761473d6145a4565b5b600061474c858286016146b4565b925050602061475d85828601614712565b9150509250929050565b6000819050919050565b61477a81614767565b811461478557600080fd5b50565b60008135905061479781614771565b92915050565b6000602082840312156147b3576147b26145a4565b5b60006147c184828501614788565b91505092915050565b6147d381614767565b82525050565b60006020820190506147ee60008301846147ca565b92915050565b60006020828403121561480a576148096145a4565b5b6000614818848285016146b4565b91505092915050565b60008060408385031215614838576148376145a4565b5b600061484685828601614788565b925050602061485785828601614712565b9150509250929050565b60006060820190506148766000830186614673565b6148836020830185614673565b6148906040830184614673565b949350505050565b6000806000606084860312156148b1576148b06145a4565b5b60006148bf868287016146b4565b93505060206148d086828701614712565b92505060406148e1868287016146b4565b9150509250925092565b60006148f6826146e9565b9050919050565b614906816148eb565b811461491157600080fd5b50565b600081359050614923816148fd565b92915050565b60008060008060808587031215614943576149426145a4565b5b600061495187828801614914565b9450506020614962878288016146b4565b9350506040614973878288016146b4565b9250506060614984878288016146b4565b91505092959194509250565b600080fd5b600080fd5b6000601f19601f8301169050919050565b7f4e487b7100000000000000000000000000000000000000000000000000000000600052604160045260246000fd5b6149e38261499a565b810181811067ffffffffffffffff82111715614a0257614a016149ab565b5b80604052505050565b6000614a1561459a565b9050614a2182826149da565b919050565b600067ffffffffffffffff821115614a4157614a406149ab565b5b614a4a8261499a565b9050602081019050919050565b82818337600083830152505050565b6000614a79614a7484614a26565b614a0b565b905082815260208101848484011115614a9557614a94614995565b5b614aa0848285614a57565b509392505050565b600082601f830112614abd57614abc614990565b5b8135614acd848260208601614a66565b91505092915050565b60008060408385031215614aed57614aec6145a4565b5b6000614afb85828601614712565b925050602083013567ffffffffffffffff811115614b1c57614b1b6145a9565b5b614b2885828601614aa8565b9150509250929050565b60008060408385031215614b4957614b486145a4565b5b6000614b57858286016146b4565b9250506020614b68858286016146b4565b9150509250929050565b6000819050919050565b6000614b97614b92614b8d846146c9565b614b72565b6146c9565b9050919050565b6000614ba982614b7c565b9050919050565b6000614bbb82614b9e565b9050919050565b614bcb81614bb0565b82525050565b6000602082019050614be66000830184614bc2565b92915050565b600081519050919050565b600082825260208201905092915050565b60005b83811015614c26578082015181840152602081019050614c0b565b60008484015250505050565b6000614c3d82614bec565b614c478185614bf7565b9350614c57818560208601614c08565b614c608161499a565b840191505092915050565b60006020820190508181036000830152614c858184614c32565b905092915050565b614c9681614633565b8114614ca157600080fd5b50565b600081359050614cb381614c8d565b92915050565b600080600080600060a08688031215614cd557614cd46145a4565b5b6000614ce388828901614712565b9550506020614cf4888289016146b4565b9450506040614d05888289016146b4565b9350506060614d16888289016146b4565b9250506080614d2788828901614ca4565b9150509295509295909350565b600080600060608486031215614d4d57614d4c6145a4565b5b6000614d5b868287016146b4565b9350506020614d6c868287016146b4565b9250506040614d7d868287016146b4565b9150509250925092565b600060208284031215614d9d57614d9c6145a4565b5b6000614dab84828501614914565b91505092915050565b600080600060608486031215614dcd57614dcc6145a4565b5b6000614ddb868287016146b4565b9350506020614dec868287016146b4565b9250506040614dfd86828701614ca4565b9150509250925092565b614e10816146e9565b82525050565b600060e082019050614e2b600083018a614e07565b614e386020830189614673565b614e456040830188614673565b614e526060830187614673565b614e5f6080830186614673565b614e6c60a0830185614673565b614e7960c0830184614673565b98975050505050505050565b6000604082019050614e9a6000830185614673565b614ea76020830184614673565b9392505050565b7f696e76616c696420706964000000000000000000000000000000000000000000600082015250565b6000614ee4600b83614bf7565b9150614eef82614eae565b602082019050919050565b60006020820190508181036000830152614f1381614ed7565b9050919050565b7f7769746864726177206973207061757365640000000000000000000000000000600082015250565b6000614f50601283614bf7565b9150614f5b82614f1a565b602082019050919050565b60006020820190508181036000830152614f7f81614f43565b9050919050565b7f4e487b7100000000000000000000000000000000000000000000000000000000600052603260045260246000fd5b7f4e487b7100000000000000000000000000000000000000000000000000000000600052601160045260246000fd5b6000614fef82614669565b9150614ffa83614669565b925082820190508082111561501257615011614fb5565b5b92915050565b600061502382614669565b91507fffffffffffffffffffffffffffffffffffffffffffffffffffffffffffffffff820361505557615054614fb5565b5b600182019050919050565b600061506b82614669565b915061507683614669565b925082820390508181111561508e5761508d614fb5565b5b92915050565b7f4e487b7100000000000000000000000000000000000000000000000000000000600052603160045260246000fd5b7f636c61696d206973207061757365640000000000000000000000000000000000600082015250565b60006150f9600f83614bf7565b9150615104826150c3565b602082019050919050565b60006020820190508181036000830152615128816150ec565b9050919050565b600061513a82614669565b915061514583614669565b925082820261515381614669565b9150828204841483151761516a57615169614fb5565b5b5092915050565b7f4e487b7100000000000000000000000000000000000000000000000000000000600052601260045260246000fd5b60006151ab82614669565b91506151b683614669565b9250826151c6576151c5615171565b5b828204905092915050565b7f737461727420626c6f636b206d757374206265206c657373207468616e20656e60008201527f6420626c6f636b00000000000000000000000000000000000000000000000000602082015250565b600061522d602783614bf7565b9150615238826151d1565b604082019050919050565b6000602082019050818103600083015261525c81615220565b9050919050565b7f7263632070657220626c6f636b206d757374206265206772656174657220746860008201527f616e203000000000000000000000000000000000000000000000000000000000602082015250565b60006152bf602483614bf7565b91506152ca82615263565b604082019050919050565b600060208201905081810360008301526152ee816152b2565b9050919050565b6000819050919050565b600067ffffffffffffffff82169050919050565b600061532e615329615324846152f5565b614b72565b6152ff565b9050919050565b61533e81615313565b82525050565b60006020820190506153596000830184615335565b92915050565b7f6f766572666c6f77000000000000000000000000000000000000000000000000600082015250565b6000615395600883614bf7565b91506153a08261535f565b602082019050919050565b600060208201905081810360008301526153c481615388565b9050919050565b7f77697468647261772068617320616c7265616479206265656e20756e7061757360008201527f6564000000000000000000000000000000000000000000000000000000000000602082015250565b6000615427602283614bf7565b9150615432826153cb565b604082019050919050565b600060208201905081810360008301526154568161541a565b9050919050565b7f696e76616c69642072616e676500000000000000000000000000000000000000600082015250565b6000615493600d83614bf7565b915061549e8261545d565b602082019050919050565b600060208201905081810360008301526154c281615486565b9050919050565b7f6d756c7469706c696572206f766572666c6f7700000000000000000000000000600082015250565b60006154ff601383614bf7565b915061550a826154c9565b602082019050919050565b6000602082019050818103600083015261552e816154f2565b9050919050565b7f636c61696d2068617320616c7265616479206265656e20756e70617573656400600082015250565b600061556b601f83614bf7565b915061557682615535565b602082019050919050565b6000602082019050818103600083015261559a8161555e565b9050919050565b7f4e6f7420656e6f756768207374616b696e6720746f6b656e2062616c616e6365600082015250565b60006155d7602083614bf7565b91506155e2826155a1565b602082019050919050565b60006020820190508181036000830152615606816155ca565b9050919050565b7f6f766572666c6f77320000000000000000000000000000000000000000000000600082015250565b6000615643600983614bf7565b915061564e8261560d565b602082019050919050565b6000602082019050818103600083015261567281615636565b9050919050565b7f6f766572666c6f77330000000000000000000000000000000000000000000000600082015250565b60006156af600983614bf7565b91506156ba82615679565b602082019050919050565b600060208201905081810360008301526156de816156a2565b9050919050565b7f74686520666972737420706f6f6c206d7573742062652045544820706f6f6c00600082015250565b600061571b601f83614bf7565b9150615726826156e5565b602082019050919050565b6000602082019050818103600083015261574a8161570e565b9050919050565b7f696e76616c6964207769746864726177206c6f636b656420626c6f636b730000600082015250565b6000615787601e83614bf7565b915061579282615751565b602082019050919050565b600060208201905081810360008301526157b68161577a565b9050919050565b7f616c726561647920656e64656400000000000000000000000000000000000000600082015250565b60006157f3600d83614bf7565b91506157fe826157bd565b602082019050919050565b60006020820190508181036000830152615822816157e6565b9050919050565b7f77697468647261772068617320616c7265616479206265656e20706175736564600082015250565b600061585f602083614bf7565b915061586a82615829565b602082019050919050565b6000602082019050818103600083015261588e81615852565b9050919050565b7f696e76616c696420706f6f6c2069640000000000000000000000000000000000600082015250565b60006158cb600f83614bf7565b91506158d682615895565b602082019050919050565b600060208201905081810360008301526158fa816158be565b9050919050565b7f6465706f736974206e6f7420737570706f727420455448207374616b696e6700600082015250565b6000615937601f83614bf7565b915061594282615901565b602082019050919050565b600060208201905081810360008301526159668161592a565b9050919050565b7f696e76616c6964206465706f73697420616d6f756e7400000000000000000000600082015250565b60006159a3601683614bf7565b91506159ae8261596d565b602082019050919050565b600060208201905081810360008301526159d281615996565b9050919050565b7f45544820706f6f6c206d75737420626520637265617465642066697273740000600082015250565b6000615a0f601e83614bf7565b9150615a1a826159d9565b602082019050919050565b60006020820190508181036000830152615a3e81615a02565b9050919050565b7f696e76616c696420706f6f6c2077656967687400000000000000000000000000600082015250565b6000615a7b601383614bf7565b9150615a8682615a45565b602082019050919050565b60006020820190508181036000830152615aaa81615a6e565b9050919050565b7f746f74616c20706f6f6c20776569676874206f766572666c6f77000000000000600082015250565b6000615ae7601a83614bf7565b9150615af282615ab1565b602082019050919050565b60006020820190508181036000830152615b1681615ada565b9050919050565b600081905092915050565b50565b6000615b38600083615b1d565b9150615b4382615b28565b600082019050919050565b6000615b5982615b2b565b9150819050919050565b7f455448207472616e736665722063616c6c206661696c65640000000000000000600082015250565b6000615b99601883614bf7565b9150615ba482615b63565b602082019050919050565b60006020820190508181036000830152615bc881615b8c565b9050919050565b600081519050615bde81614c8d565b92915050565b600060208284031215615bfa57615bf96145a4565b5b6000615c0884828501615bcf565b91505092915050565b7f455448207472616e73666572206f7065726174696f6e20646964206e6f74207360008201527f7563636565640000000000000000000000000000000000000000000000000000602082015250565b6000615c6d602683614bf7565b9150615c7882615c11565b604082019050919050565b60006020820190508181036000830152615c9c81615c60565b9050919050565b6000604082019050615cb86000830185614e07565b615cc56020830184614673565b9392505050565b6000602082019050615ce16000830184614e07565b92915050565b600081519050615cf68161469d565b92915050565b600060208284031215615d1257615d116145a4565b5b6000615d2084828501615ce7565b91505092915050565b600081519050615d3881614771565b92915050565b600060208284031215615d5457615d536145a4565b5b6000615d6284828501615d29565b91505092915050565b6000606082019050615d806000830186614e07565b615d8d6020830185614e07565b615d9a6040830184614673565b949350505050565b7f75736572207374616b6520616d6f756e74206f766572666c6f77000000000000600082015250565b6000615dd8601a83614bf7565b9150615de382615da2565b602082019050919050565b60006020820190508181036000830152615e0781615dcb565b9050919050565b7f616363756d756c617465207265776172647320706572207374616b65206f766560008201527f72666c6f77000000000000000000000000000000000000000000000000000000602082015250565b6000615e6a602583614bf7565b9150615e7582615e0e565b604082019050919050565b60006020820190508181036000830152615e9981615e5d565b9050919050565b7f70656e64696e672072657761726473206f766572666c6f770000000000000000600082015250565b6000615ed6601883614bf7565b9150615ee182615ea0565b602082019050919050565b60006020820190508181036000830152615f0581615ec9565b9050919050565b7f616363756d756c617465207374616b6520616d6f756e74206f766572666c6f77600082015250565b6000615f42602083614bf7565b9150615f4d82615f0c565b602082019050919050565b60006020820190508181036000830152615f7181615f35565b9050919050565b7f7374616b6520746f6b656e20616d6f756e74206f766572666c6f770000000000600082015250565b6000615fae601b83614bf7565b9150615fb982615f78565b602082019050919050565b60006020820190508181036000830152615fdd81615fa1565b9050919050565b7f75736572207374416d6f756e74206d756c206163635243435065725354206f7660008201527f6572666c6f770000000000000000000000000000000000000000000000000000602082015250565b6000616040602683614bf7565b915061604b82615fe4565b604082019050919050565b6000602082019050818103600083015261606f81616033565b9050919050565b600060408201905061608b6000830185614e07565b61609860208301846147ca565b9392505050565b600081519050919050565b60006160b58261609f565b6160bf8185615b1d565b93506160cf818560208601614c08565b80840191505092915050565b60006160e782846160aa565b91508190509291505056fea2646970667358221220aa7e47dec1b4b96bc062f83ff580314053c5009d267312ace05b26e8884e040464736f6c63430008160033","opcodes":"PUSH1 0xA0 PUSH1 0x40 MSTORE ADDRESS PUSH20 0xFFFFFFFFFFFFFFFFFFFFFFFFFFFFFFFFFFFFFFFF AND PUSH1 0x80 SWAP1 PUSH20 0xFFFFFFFFFFFFFFFFFFFFFFFFFFFFFFFFFFFFFFFF AND DUP2 MSTORE POP CALLVALUE DUP1 ISZERO PUSH2 0x43 JUMPI PUSH1 0x0 DUP1 REVERT JUMPDEST POP PUSH1 0x80 MLOAD PUSH2 0x6128 PUSH3 0x6E PUSH1 0x0 CODECOPY PUSH1 0x0 DUP2 DUP2 PUSH2 0x38D2 ADD MSTORE DUP2 DUP2 PUSH2 0x3927 ADD MSTORE PUSH2 0x3BBD ADD MSTORE PUSH2 0x6128 PUSH1 0x0 RETURN INVALID PUSH1 0x80 PUSH1 0x40 MSTORE PUSH1 0x4 CALLDATASIZE LT PUSH2 0x297 JUMPI PUSH1 0x0 CALLDATALOAD PUSH1 0xE0 SHR DUP1 PUSH4 0x91D14854 GT PUSH2 0x15A JUMPI DUP1 PUSH4 0xC397920E GT PUSH2 0xC1 JUMPI DUP1 PUSH4 0xF35E4A6E GT PUSH2 0x7A JUMPI DUP1 PUSH4 0xF35E4A6E EQ PUSH2 0x9B3 JUMPI DUP1 PUSH4 0xF5485D32 EQ PUSH2 0x9DC JUMPI DUP1 PUSH4 0xF6326FB3 EQ PUSH2 0xA05 JUMPI DUP1 PUSH4 0xFAD07ECE EQ PUSH2 0xA0F JUMPI DUP1 PUSH4 0xFE313112 EQ PUSH2 0xA38 JUMPI DUP1 PUSH4 0xFF423357 EQ PUSH2 0xA7B JUMPI PUSH2 0x29E JUMP JUMPDEST DUP1 PUSH4 0xC397920E EQ PUSH2 0x8E1 JUMPI DUP1 PUSH4 0xC713AA94 EQ PUSH2 0x8F8 JUMPI DUP1 PUSH4 0xD547741F EQ PUSH2 0x921 JUMPI DUP1 PUSH4 0xD86C0444 EQ PUSH2 0x94A JUMPI DUP1 PUSH4 0xDE065CAA EQ PUSH2 0x973 JUMPI DUP1 PUSH4 0xE2BBB158 EQ PUSH2 0x98A JUMPI PUSH2 0x29E JUMP JUMPDEST DUP1 PUSH4 0xAD3CB1CC GT PUSH2 0x113 JUMPI DUP1 PUSH4 0xAD3CB1CC EQ PUSH2 0x7E3 JUMPI DUP1 PUSH4 0xB3944D52 EQ PUSH2 0x80E JUMPI DUP1 PUSH4 0xB6D9D919 EQ PUSH2 0x839 JUMPI DUP1 PUSH4 0xB908AFA8 EQ PUSH2 0x862 JUMPI DUP1 PUSH4 0xBED66C08 EQ PUSH2 0x88D JUMPI DUP1 PUSH4 0xBFC3EBBA EQ PUSH2 0x8B6 JUMPI PUSH2 0x29E JUMP JUMPDEST DUP1 PUSH4 0x91D14854 EQ PUSH2 0x6BF JUMPI DUP1 PUSH4 0x9E2C8A5B EQ PUSH2 0x6FC JUMPI DUP1 PUSH4 0xA217FDDF EQ PUSH2 0x725 JUMPI DUP1 PUSH4 0xA27D9279 EQ PUSH2 0x750 JUMPI DUP1 PUSH4 0xA72D5BF4 EQ PUSH2 0x78D JUMPI DUP1 PUSH4 0xAB5E124A EQ PUSH2 0x7B8 JUMPI PUSH2 0x29E JUMP JUMPDEST DUP1 PUSH4 0x48CD4CB1 GT PUSH2 0x1FE JUMPI DUP1 PUSH4 0x6155E3DE GT PUSH2 0x1B7 JUMPI DUP1 PUSH4 0x6155E3DE EQ PUSH2 0x5E7 JUMPI DUP1 PUSH4 0x630B5BA1 EQ PUSH2 0x5FE JUMPI DUP1 PUSH4 0x70FF0173 EQ PUSH2 0x615 JUMPI DUP1 PUSH4 0x75B238FC EQ PUSH2 0x640 JUMPI DUP1 PUSH4 0x8DBB1E3A EQ PUSH2 0x66B JUMPI DUP1 PUSH4 0x8FF095F9 EQ PUSH2 0x6A8 JUMPI PUSH2 0x29E JUMP JUMPDEST DUP1 PUSH4 0x48CD4CB1 EQ PUSH2 0x4F8 JUMPI DUP1 PUSH4 0x4EC81AF1 EQ PUSH2 0x523 JUMPI DUP1 PUSH4 0x4F1EF286 EQ PUSH2 0x54C JUMPI DUP1 PUSH4 0x51EB05A6 EQ PUSH2 0x568 JUMPI DUP1 PUSH4 0x52D1902D EQ PUSH2 0x591 JUMPI DUP1 PUSH4 0x5C975ABB EQ PUSH2 0x5BC JUMPI PUSH2 0x29E JUMP JUMPDEST DUP1 PUSH4 0x2F2FF15D GT PUSH2 0x250 JUMPI DUP1 PUSH4 0x2F2FF15D EQ PUSH2 0x3D6 JUMPI DUP1 PUSH4 0x2F3FFB9F EQ PUSH2 0x3FF JUMPI DUP1 PUSH4 0x36568ABE EQ PUSH2 0x42A JUMPI DUP1 PUSH4 0x37849B3C EQ PUSH2 0x453 JUMPI DUP1 PUSH4 0x379607F5 EQ PUSH2 0x492 JUMPI DUP1 PUSH4 0x41721AB7 EQ PUSH2 0x4BB JUMPI PUSH2 0x29E JUMP JUMPDEST DUP1 PUSH4 0x1FFC9A7 EQ PUSH2 0x2A0 JUMPI DUP1 PUSH4 0x2559004 EQ PUSH2 0x2DD JUMPI DUP1 PUSH4 0x83C6323 EQ PUSH2 0x308 JUMPI DUP1 PUSH4 0x11548234 EQ PUSH2 0x333 JUMPI DUP1 PUSH4 0x248A9CA3 EQ PUSH2 0x370 JUMPI DUP1 PUSH4 0x2E1A7D4D EQ PUSH2 0x3AD JUMPI PUSH2 0x29E JUMP JUMPDEST CALLDATASIZE PUSH2 0x29E JUMPI STOP JUMPDEST STOP JUMPDEST CALLVALUE DUP1 ISZERO PUSH2 0x2AC JUMPI PUSH1 0x0 DUP1 REVERT JUMPDEST POP PUSH2 0x2C7 PUSH1 0x4 DUP1 CALLDATASIZE SUB DUP2 ADD SWAP1 PUSH2 0x2C2 SWAP2 SWAP1 PUSH2 0x4606 JUMP JUMPDEST PUSH2 0xAB9 JUMP JUMPDEST PUSH1 0x40 MLOAD PUSH2 0x2D4 SWAP2 SWAP1 PUSH2 0x464E JUMP JUMPDEST PUSH1 0x40 MLOAD DUP1 SWAP2 SUB SWAP1 RETURN JUMPDEST CALLVALUE DUP1 ISZERO PUSH2 0x2E9 JUMPI PUSH1 0x0 DUP1 REVERT JUMPDEST POP PUSH2 0x2F2 PUSH2 0xB33 JUMP JUMPDEST PUSH1 0x40 MLOAD PUSH2 0x2FF SWAP2 SWAP1 PUSH2 0x4682 JUMP JUMPDEST PUSH1 0x40 MLOAD DUP1 SWAP2 SUB SWAP1 RETURN JUMPDEST CALLVALUE DUP1 ISZERO PUSH2 0x314 JUMPI PUSH1 0x0 DUP1 REVERT JUMPDEST POP PUSH2 0x31D PUSH2 0xB39 JUMP JUMPDEST PUSH1 0x40 MLOAD PUSH2 0x32A SWAP2 SWAP1 PUSH2 0x4682 JUMP JUMPDEST PUSH1 0x40 MLOAD DUP1 SWAP2 SUB SWAP1 RETURN JUMPDEST CALLVALUE DUP1 ISZERO PUSH2 0x33F JUMPI PUSH1 0x0 DUP1 REVERT JUMPDEST POP PUSH2 0x35A PUSH1 0x4 DUP1 CALLDATASIZE SUB DUP2 ADD SWAP1 PUSH2 0x355 SWAP2 SWAP1 PUSH2 0x4727 JUMP JUMPDEST PUSH2 0xB3F JUMP JUMPDEST PUSH1 0x40 MLOAD PUSH2 0x367 SWAP2 SWAP1 PUSH2 0x4682 JUMP JUMPDEST PUSH1 0x40 MLOAD DUP1 SWAP2 SUB SWAP1 RETURN JUMPDEST CALLVALUE DUP1 ISZERO PUSH2 0x37C JUMPI PUSH1 0x0 DUP1 REVERT JUMPDEST POP PUSH2 0x397 PUSH1 0x4 DUP1 CALLDATASIZE SUB DUP2 ADD SWAP1 PUSH2 0x392 SWAP2 SWAP1 PUSH2 0x479D JUMP JUMPDEST PUSH2 0xBE6 JUMP JUMPDEST PUSH1 0x40 MLOAD PUSH2 0x3A4 SWAP2 SWAP1 PUSH2 0x47D9 JUMP JUMPDEST PUSH1 0x40 MLOAD DUP1 SWAP2 SUB SWAP1 RETURN JUMPDEST CALLVALUE DUP1 ISZERO PUSH2 0x3B9 JUMPI PUSH1 0x0 DUP1 REVERT JUMPDEST POP PUSH2 0x3D4 PUSH1 0x4 DUP1 CALLDATASIZE SUB DUP2 ADD SWAP1 PUSH2 0x3CF SWAP2 SWAP1 PUSH2 0x47F4 JUMP JUMPDEST PUSH2 0xC14 JUMP JUMPDEST STOP JUMPDEST CALLVALUE DUP1 ISZERO PUSH2 0x3E2 JUMPI PUSH1 0x0 DUP1 REVERT JUMPDEST POP PUSH2 0x3FD PUSH1 0x4 DUP1 CALLDATASIZE SUB DUP2 ADD SWAP1 PUSH2 0x3F8 SWAP2 SWAP1 PUSH2 0x4821 JUMP JUMPDEST PUSH2 0xFC6 JUMP JUMPDEST STOP JUMPDEST CALLVALUE DUP1 ISZERO PUSH2 0x40B JUMPI PUSH1 0x0 DUP1 REVERT JUMPDEST POP PUSH2 0x414 PUSH2 0xFE8 JUMP JUMPDEST PUSH1 0x40 MLOAD PUSH2 0x421 SWAP2 SWAP1 PUSH2 0x464E JUMP JUMPDEST PUSH1 0x40 MLOAD DUP1 SWAP2 SUB SWAP1 RETURN JUMPDEST CALLVALUE DUP1 ISZERO PUSH2 0x436 JUMPI PUSH1 0x0 DUP1 REVERT JUMPDEST POP PUSH2 0x451 PUSH1 0x4 DUP1 CALLDATASIZE SUB DUP2 ADD SWAP1 PUSH2 0x44C SWAP2 SWAP1 PUSH2 0x4821 JUMP JUMPDEST PUSH2 0xFFB JUMP JUMPDEST STOP JUMPDEST CALLVALUE DUP1 ISZERO PUSH2 0x45F JUMPI PUSH1 0x0 DUP1 REVERT JUMPDEST POP PUSH2 0x47A PUSH1 0x4 DUP1 CALLDATASIZE SUB DUP2 ADD SWAP1 PUSH2 0x475 SWAP2 SWAP1 PUSH2 0x4727 JUMP JUMPDEST PUSH2 0x1076 JUMP JUMPDEST PUSH1 0x40 MLOAD PUSH2 0x489 SWAP4 SWAP3 SWAP2 SWAP1 PUSH2 0x4861 JUMP JUMPDEST PUSH1 0x40 MLOAD DUP1 SWAP2 SUB SWAP1 RETURN JUMPDEST CALLVALUE DUP1 ISZERO PUSH2 0x49E JUMPI PUSH1 0x0 DUP1 REVERT JUMPDEST POP PUSH2 0x4B9 PUSH1 0x4 DUP1 CALLDATASIZE SUB DUP2 ADD SWAP1 PUSH2 0x4B4 SWAP2 SWAP1 PUSH2 0x47F4 JUMP JUMPDEST PUSH2 0x10AD JUMP JUMPDEST STOP JUMPDEST CALLVALUE DUP1 ISZERO PUSH2 0x4C7 JUMPI PUSH1 0x0 DUP1 REVERT JUMPDEST POP PUSH2 0x4E2 PUSH1 0x4 DUP1 CALLDATASIZE SUB DUP2 ADD SWAP1 PUSH2 0x4DD SWAP2 SWAP1 PUSH2 0x4898 JUMP JUMPDEST PUSH2 0x12A9 JUMP JUMPDEST PUSH1 0x40 MLOAD PUSH2 0x4EF SWAP2 SWAP1 PUSH2 0x4682 JUMP JUMPDEST PUSH1 0x40 MLOAD DUP1 SWAP2 SUB SWAP1 RETURN JUMPDEST CALLVALUE DUP1 ISZERO PUSH2 0x504 JUMPI PUSH1 0x0 DUP1 REVERT JUMPDEST POP PUSH2 0x50D PUSH2 0x13FF JUMP JUMPDEST PUSH1 0x40 MLOAD PUSH2 0x51A SWAP2 SWAP1 PUSH2 0x4682 JUMP JUMPDEST PUSH1 0x40 MLOAD DUP1 SWAP2 SUB SWAP1 RETURN JUMPDEST CALLVALUE DUP1 ISZERO PUSH2 0x52F JUMPI PUSH1 0x0 DUP1 REVERT JUMPDEST POP PUSH2 0x54A PUSH1 0x4 DUP1 CALLDATASIZE SUB DUP2 ADD SWAP1 PUSH2 0x545 SWAP2 SWAP1 PUSH2 0x4929 JUMP JUMPDEST PUSH2 0x1405 JUMP JUMPDEST STOP JUMPDEST PUSH2 0x566 PUSH1 0x4 DUP1 CALLDATASIZE SUB DUP2 ADD SWAP1 PUSH2 0x561 SWAP2 SWAP1 PUSH2 0x4AD6 JUMP JUMPDEST PUSH2 0x16AE JUMP JUMPDEST STOP JUMPDEST CALLVALUE DUP1 ISZERO PUSH2 0x574 JUMPI PUSH1 0x0 DUP1 REVERT JUMPDEST POP PUSH2 0x58F PUSH1 0x4 DUP1 CALLDATASIZE SUB DUP2 ADD SWAP1 PUSH2 0x58A SWAP2 SWAP1 PUSH2 0x47F4 JUMP JUMPDEST PUSH2 0x16CD JUMP JUMPDEST STOP JUMPDEST CALLVALUE DUP1 ISZERO PUSH2 0x59D JUMPI PUSH1 0x0 DUP1 REVERT JUMPDEST POP PUSH2 0x5A6 PUSH2 0x19B9 JUMP JUMPDEST PUSH1 0x40 MLOAD PUSH2 0x5B3 SWAP2 SWAP1 PUSH2 0x47D9 JUMP JUMPDEST PUSH1 0x40 MLOAD DUP1 SWAP2 SUB SWAP1 RETURN JUMPDEST CALLVALUE DUP1 ISZERO PUSH2 0x5C8 JUMPI PUSH1 0x0 DUP1 REVERT JUMPDEST POP PUSH2 0x5D1 PUSH2 0x19EC JUMP JUMPDEST PUSH1 0x40 MLOAD PUSH2 0x5DE SWAP2 SWAP1 PUSH2 0x464E JUMP JUMPDEST PUSH1 0x40 MLOAD DUP1 SWAP2 SUB SWAP1 RETURN JUMPDEST CALLVALUE DUP1 ISZERO PUSH2 0x5F3 JUMPI PUSH1 0x0 DUP1 REVERT JUMPDEST POP PUSH2 0x5FC PUSH2 0x1A11 JUMP JUMPDEST STOP JUMPDEST CALLVALUE DUP1 ISZERO PUSH2 0x60A JUMPI PUSH1 0x0 DUP1 REVERT JUMPDEST POP PUSH2 0x613 PUSH2 0x1AD4 JUMP JUMPDEST STOP JUMPDEST CALLVALUE DUP1 ISZERO PUSH2 0x621 JUMPI PUSH1 0x0 DUP1 REVERT JUMPDEST POP PUSH2 0x62A PUSH2 0x1B03 JUMP JUMPDEST PUSH1 0x40 MLOAD PUSH2 0x637 SWAP2 SWAP1 PUSH2 0x4682 JUMP JUMPDEST PUSH1 0x40 MLOAD DUP1 SWAP2 SUB SWAP1 RETURN JUMPDEST CALLVALUE DUP1 ISZERO PUSH2 0x64C JUMPI PUSH1 0x0 DUP1 REVERT JUMPDEST POP PUSH2 0x655 PUSH2 0x1B09 JUMP JUMPDEST PUSH1 0x40 MLOAD PUSH2 0x662 SWAP2 SWAP1 PUSH2 0x47D9 JUMP JUMPDEST PUSH1 0x40 MLOAD DUP1 SWAP2 SUB SWAP1 RETURN JUMPDEST CALLVALUE DUP1 ISZERO PUSH2 0x677 JUMPI PUSH1 0x0 DUP1 REVERT JUMPDEST POP PUSH2 0x692 PUSH1 0x4 DUP1 CALLDATASIZE SUB DUP2 ADD SWAP1 PUSH2 0x68D SWAP2 SWAP1 PUSH2 0x4B32 JUMP JUMPDEST PUSH2 0x1B2D JUMP JUMPDEST PUSH1 0x40 MLOAD PUSH2 0x69F SWAP2 SWAP1 PUSH2 0x4682 JUMP JUMPDEST PUSH1 0x40 MLOAD DUP1 SWAP2 SUB SWAP1 RETURN JUMPDEST CALLVALUE DUP1 ISZERO PUSH2 0x6B4 JUMPI PUSH1 0x0 DUP1 REVERT JUMPDEST POP PUSH2 0x6BD PUSH2 0x1C51 JUMP JUMPDEST STOP JUMPDEST CALLVALUE DUP1 ISZERO PUSH2 0x6CB JUMPI PUSH1 0x0 DUP1 REVERT JUMPDEST POP PUSH2 0x6E6 PUSH1 0x4 DUP1 CALLDATASIZE SUB DUP2 ADD SWAP1 PUSH2 0x6E1 SWAP2 SWAP1 PUSH2 0x4821 JUMP JUMPDEST PUSH2 0x1D15 JUMP JUMPDEST PUSH1 0x40 MLOAD PUSH2 0x6F3 SWAP2 SWAP1 PUSH2 0x464E JUMP JUMPDEST PUSH1 0x40 MLOAD DUP1 SWAP2 SUB SWAP1 RETURN JUMPDEST CALLVALUE DUP1 ISZERO PUSH2 0x708 JUMPI PUSH1 0x0 DUP1 REVERT JUMPDEST POP PUSH2 0x723 PUSH1 0x4 DUP1 CALLDATASIZE SUB DUP2 ADD SWAP1 PUSH2 0x71E SWAP2 SWAP1 PUSH2 0x4B32 JUMP JUMPDEST PUSH2 0x1D8E JUMP JUMPDEST STOP JUMPDEST CALLVALUE DUP1 ISZERO PUSH2 0x731 JUMPI PUSH1 0x0 DUP1 REVERT JUMPDEST POP PUSH2 0x73A PUSH2 0x2168 JUMP JUMPDEST PUSH1 0x40 MLOAD PUSH2 0x747 SWAP2 SWAP1 PUSH2 0x47D9 JUMP JUMPDEST PUSH1 0x40 MLOAD DUP1 SWAP2 SUB SWAP1 RETURN JUMPDEST CALLVALUE DUP1 ISZERO PUSH2 0x75C JUMPI PUSH1 0x0 DUP1 REVERT JUMPDEST POP PUSH2 0x777 PUSH1 0x4 DUP1 CALLDATASIZE SUB DUP2 ADD SWAP1 PUSH2 0x772 SWAP2 SWAP1 PUSH2 0x4727 JUMP JUMPDEST PUSH2 0x216F JUMP JUMPDEST PUSH1 0x40 MLOAD PUSH2 0x784 SWAP2 SWAP1 PUSH2 0x4682 JUMP JUMPDEST PUSH1 0x40 MLOAD DUP1 SWAP2 SUB SWAP1 RETURN JUMPDEST CALLVALUE DUP1 ISZERO PUSH2 0x799 JUMPI PUSH1 0x0 DUP1 REVERT JUMPDEST POP PUSH2 0x7A2 PUSH2 0x21CD JUMP JUMPDEST PUSH1 0x40 MLOAD PUSH2 0x7AF SWAP2 SWAP1 PUSH2 0x4BD1 JUMP JUMPDEST PUSH1 0x40 MLOAD DUP1 SWAP2 SUB SWAP1 RETURN JUMPDEST CALLVALUE DUP1 ISZERO PUSH2 0x7C4 JUMPI PUSH1 0x0 DUP1 REVERT JUMPDEST POP PUSH2 0x7CD PUSH2 0x21F3 JUMP JUMPDEST PUSH1 0x40 MLOAD PUSH2 0x7DA SWAP2 SWAP1 PUSH2 0x464E JUMP JUMPDEST PUSH1 0x40 MLOAD DUP1 SWAP2 SUB SWAP1 RETURN JUMPDEST CALLVALUE DUP1 ISZERO PUSH2 0x7EF JUMPI PUSH1 0x0 DUP1 REVERT JUMPDEST POP PUSH2 0x7F8 PUSH2 0x2206 JUMP JUMPDEST PUSH1 0x40 MLOAD PUSH2 0x805 SWAP2 SWAP1 PUSH2 0x4C6B JUMP JUMPDEST PUSH1 0x40 MLOAD DUP1 SWAP2 SUB SWAP1 RETURN JUMPDEST CALLVALUE DUP1 ISZERO PUSH2 0x81A JUMPI PUSH1 0x0 DUP1 REVERT JUMPDEST POP PUSH2 0x823 PUSH2 0x223F JUMP JUMPDEST PUSH1 0x40 MLOAD PUSH2 0x830 SWAP2 SWAP1 PUSH2 0x4682 JUMP JUMPDEST PUSH1 0x40 MLOAD DUP1 SWAP2 SUB SWAP1 RETURN JUMPDEST CALLVALUE DUP1 ISZERO PUSH2 0x845 JUMPI PUSH1 0x0 DUP1 REVERT JUMPDEST POP PUSH2 0x860 PUSH1 0x4 DUP1 CALLDATASIZE SUB DUP2 ADD SWAP1 PUSH2 0x85B SWAP2 SWAP1 PUSH2 0x4CB9 JUMP JUMPDEST PUSH2 0x224C JUMP JUMPDEST STOP JUMPDEST CALLVALUE DUP1 ISZERO PUSH2 0x86E JUMPI PUSH1 0x0 DUP1 REVERT JUMPDEST POP PUSH2 0x877 PUSH2 0x25C9 JUMP JUMPDEST PUSH1 0x40 MLOAD PUSH2 0x884 SWAP2 SWAP1 PUSH2 0x47D9 JUMP JUMPDEST PUSH1 0x40 MLOAD DUP1 SWAP2 SUB SWAP1 RETURN JUMPDEST CALLVALUE DUP1 ISZERO PUSH2 0x899 JUMPI PUSH1 0x0 DUP1 REVERT JUMPDEST POP PUSH2 0x8B4 PUSH1 0x4 DUP1 CALLDATASIZE SUB DUP2 ADD SWAP1 PUSH2 0x8AF SWAP2 SWAP1 PUSH2 0x47F4 JUMP JUMPDEST PUSH2 0x25ED JUMP JUMPDEST STOP JUMPDEST CALLVALUE DUP1 ISZERO PUSH2 0x8C2 JUMPI PUSH1 0x0 DUP1 REVERT JUMPDEST POP PUSH2 0x8CB PUSH2 0x2692 JUMP JUMPDEST PUSH1 0x40 MLOAD PUSH2 0x8D8 SWAP2 SWAP1 PUSH2 0x4682 JUMP JUMPDEST PUSH1 0x40 MLOAD DUP1 SWAP2 SUB SWAP1 RETURN JUMPDEST CALLVALUE DUP1 ISZERO PUSH2 0x8ED JUMPI PUSH1 0x0 DUP1 REVERT JUMPDEST POP PUSH2 0x8F6 PUSH2 0x2697 JUMP JUMPDEST STOP JUMPDEST CALLVALUE DUP1 ISZERO PUSH2 0x904 JUMPI PUSH1 0x0 DUP1 REVERT JUMPDEST POP PUSH2 0x91F PUSH1 0x4 DUP1 CALLDATASIZE SUB DUP2 ADD SWAP1 PUSH2 0x91A SWAP2 SWAP1 PUSH2 0x47F4 JUMP JUMPDEST PUSH2 0x275B JUMP JUMPDEST STOP JUMPDEST CALLVALUE DUP1 ISZERO PUSH2 0x92D JUMPI PUSH1 0x0 DUP1 REVERT JUMPDEST POP PUSH2 0x948 PUSH1 0x4 DUP1 CALLDATASIZE SUB DUP2 ADD SWAP1 PUSH2 0x943 SWAP2 SWAP1 PUSH2 0x4821 JUMP JUMPDEST PUSH2 0x2802 JUMP JUMPDEST STOP JUMPDEST CALLVALUE DUP1 ISZERO PUSH2 0x956 JUMPI PUSH1 0x0 DUP1 REVERT JUMPDEST POP PUSH2 0x971 PUSH1 0x4 DUP1 CALLDATASIZE SUB DUP2 ADD SWAP1 PUSH2 0x96C SWAP2 SWAP1 PUSH2 0x4D34 JUMP JUMPDEST PUSH2 0x2824 JUMP JUMPDEST STOP JUMPDEST CALLVALUE DUP1 ISZERO PUSH2 0x97F JUMPI PUSH1 0x0 DUP1 REVERT JUMPDEST POP PUSH2 0x988 PUSH2 0x2967 JUMP JUMPDEST STOP JUMPDEST CALLVALUE DUP1 ISZERO PUSH2 0x996 JUMPI PUSH1 0x0 DUP1 REVERT JUMPDEST POP PUSH2 0x9B1 PUSH1 0x4 DUP1 CALLDATASIZE SUB DUP2 ADD SWAP1 PUSH2 0x9AC SWAP2 SWAP1 PUSH2 0x4B32 JUMP JUMPDEST PUSH2 0x2A2A JUMP JUMPDEST STOP JUMPDEST CALLVALUE DUP1 ISZERO PUSH2 0x9BF JUMPI PUSH1 0x0 DUP1 REVERT JUMPDEST POP PUSH2 0x9DA PUSH1 0x4 DUP1 CALLDATASIZE SUB DUP2 ADD SWAP1 PUSH2 0x9D5 SWAP2 SWAP1 PUSH2 0x47F4 JUMP JUMPDEST PUSH2 0x2BDC JUMP JUMPDEST STOP JUMPDEST CALLVALUE DUP1 ISZERO PUSH2 0x9E8 JUMPI PUSH1 0x0 DUP1 REVERT JUMPDEST POP PUSH2 0xA03 PUSH1 0x4 DUP1 CALLDATASIZE SUB DUP2 ADD SWAP1 PUSH2 0x9FE SWAP2 SWAP1 PUSH2 0x4D87 JUMP JUMPDEST PUSH2 0x2C83 JUMP JUMPDEST STOP JUMPDEST PUSH2 0xA0D PUSH2 0x2D57 JUMP JUMPDEST STOP JUMPDEST CALLVALUE DUP1 ISZERO PUSH2 0xA1B JUMPI PUSH1 0x0 DUP1 REVERT JUMPDEST POP PUSH2 0xA36 PUSH1 0x4 DUP1 CALLDATASIZE SUB DUP2 ADD SWAP1 PUSH2 0xA31 SWAP2 SWAP1 PUSH2 0x4DB4 JUMP JUMPDEST PUSH2 0x2E74 JUMP JUMPDEST STOP JUMPDEST CALLVALUE DUP1 ISZERO PUSH2 0xA44 JUMPI PUSH1 0x0 DUP1 REVERT JUMPDEST POP PUSH2 0xA5F PUSH1 0x4 DUP1 CALLDATASIZE SUB DUP2 ADD SWAP1 PUSH2 0xA5A SWAP2 SWAP1 PUSH2 0x47F4 JUMP JUMPDEST PUSH2 0x3038 JUMP JUMPDEST PUSH1 0x40 MLOAD PUSH2 0xA72 SWAP8 SWAP7 SWAP6 SWAP5 SWAP4 SWAP3 SWAP2 SWAP1 PUSH2 0x4E16 JUMP JUMPDEST PUSH1 0x40 MLOAD DUP1 SWAP2 SUB SWAP1 RETURN JUMPDEST CALLVALUE DUP1 ISZERO PUSH2 0xA87 JUMPI PUSH1 0x0 DUP1 REVERT JUMPDEST POP PUSH2 0xAA2 PUSH1 0x4 DUP1 CALLDATASIZE SUB DUP2 ADD SWAP1 PUSH2 0xA9D SWAP2 SWAP1 PUSH2 0x4727 JUMP JUMPDEST PUSH2 0x30AA JUMP JUMPDEST PUSH1 0x40 MLOAD PUSH2 0xAB0 SWAP3 SWAP2 SWAP1 PUSH2 0x4E85 JUMP JUMPDEST PUSH1 0x40 MLOAD DUP1 SWAP2 SUB SWAP1 RETURN JUMPDEST PUSH1 0x0 PUSH32 0x7965DB0B00000000000000000000000000000000000000000000000000000000 PUSH28 0xFFFFFFFFFFFFFFFFFFFFFFFFFFFFFFFFFFFFFFFFFFFFFFFFFFFFFFFF NOT AND DUP3 PUSH28 0xFFFFFFFFFFFFFFFFFFFFFFFFFFFFFFFFFFFFFFFFFFFFFFFFFFFFFFFF NOT AND EQ DUP1 PUSH2 0xB2C JUMPI POP PUSH2 0xB2B DUP3 PUSH2 0x320B JUMP JUMPDEST JUMPDEST SWAP1 POP SWAP2 SWAP1 POP JUMP JUMPDEST PUSH1 0x4 SLOAD DUP2 JUMP JUMPDEST PUSH1 0x1 SLOAD DUP2 JUMP JUMPDEST PUSH1 0x0 DUP3 PUSH1 0x5 DUP1 SLOAD SWAP1 POP DUP2 LT PUSH2 0xB89 JUMPI PUSH1 0x40 MLOAD PUSH32 0x8C379A000000000000000000000000000000000000000000000000000000000 DUP2 MSTORE PUSH1 0x4 ADD PUSH2 0xB80 SWAP1 PUSH2 0x4EFA JUMP JUMPDEST PUSH1 0x40 MLOAD DUP1 SWAP2 SUB SWAP1 REVERT JUMPDEST PUSH1 0x6 PUSH1 0x0 DUP6 DUP2 MSTORE PUSH1 0x20 ADD SWAP1 DUP2 MSTORE PUSH1 0x20 ADD PUSH1 0x0 KECCAK256 PUSH1 0x0 DUP5 PUSH20 0xFFFFFFFFFFFFFFFFFFFFFFFFFFFFFFFFFFFFFFFF AND PUSH20 0xFFFFFFFFFFFFFFFFFFFFFFFFFFFFFFFFFFFFFFFF AND DUP2 MSTORE PUSH1 0x20 ADD SWAP1 DUP2 MSTORE PUSH1 0x20 ADD PUSH1 0x0 KECCAK256 PUSH1 0x0 ADD SLOAD SWAP2 POP POP SWAP3 SWAP2 POP POP JUMP JUMPDEST PUSH1 0x0 DUP1 PUSH2 0xBF1 PUSH2 0x3275 JUMP JUMPDEST SWAP1 POP DUP1 PUSH1 0x0 ADD PUSH1 0x0 DUP5 DUP2 MSTORE PUSH1 0x20 ADD SWAP1 DUP2 MSTORE PUSH1 0x20 ADD PUSH1 0x0 KECCAK256 PUSH1 0x1 ADD SLOAD SWAP2 POP POP SWAP2 SWAP1 POP JUMP JUMPDEST PUSH2 0xC1C PUSH2 0x329D JUMP JUMPDEST PUSH1 0x3 PUSH1 0x0 SWAP1 SLOAD SWAP1 PUSH2 0x100 EXP SWAP1 DIV PUSH1 0xFF AND ISZERO PUSH2 0xC6C JUMPI PUSH1 0x40 MLOAD PUSH32 0x8C379A000000000000000000000000000000000000000000000000000000000 DUP2 MSTORE PUSH1 0x4 ADD PUSH2 0xC63 SWAP1 PUSH2 0x4F66 JUMP JUMPDEST PUSH1 0x40 MLOAD DUP1 SWAP2 SUB SWAP1 REVERT JUMPDEST DUP1 PUSH1 0x5 DUP1 SLOAD SWAP1 POP DUP2 LT PUSH2 0xCB4 JUMPI PUSH1 0x40 MLOAD PUSH32 0x8C379A000000000000000000000000000000000000000000000000000000000 DUP2 MSTORE PUSH1 0x4 ADD PUSH2 0xCAB SWAP1 PUSH2 0x4EFA JUMP JUMPDEST PUSH1 0x40 MLOAD DUP1 SWAP2 SUB SWAP1 REVERT JUMPDEST PUSH1 0x0 PUSH1 0x5 DUP4 DUP2 SLOAD DUP2 LT PUSH2 0xCCA JUMPI PUSH2 0xCC9 PUSH2 0x4F86 JUMP JUMPDEST JUMPDEST SWAP1 PUSH1 0x0 MSTORE PUSH1 0x20 PUSH1 0x0 KECCAK256 SWAP1 PUSH1 0x7 MUL ADD SWAP1 POP PUSH1 0x0 PUSH1 0x6 PUSH1 0x0 DUP6 DUP2 MSTORE PUSH1 0x20 ADD SWAP1 DUP2 MSTORE PUSH1 0x20 ADD PUSH1 0x0 KECCAK256 PUSH1 0x0 CALLER PUSH20 0xFFFFFFFFFFFFFFFFFFFFFFFFFFFFFFFFFFFFFFFF AND PUSH20 0xFFFFFFFFFFFFFFFFFFFFFFFFFFFFFFFFFFFFFFFF AND DUP2 MSTORE PUSH1 0x20 ADD SWAP1 DUP2 MSTORE PUSH1 0x20 ADD PUSH1 0x0 KECCAK256 SWAP1 POP PUSH1 0x0 DUP1 PUSH1 0x0 JUMPDEST DUP4 PUSH1 0x3 ADD DUP1 SLOAD SWAP1 POP DUP2 LT ISZERO PUSH2 0xDC1 JUMPI NUMBER DUP5 PUSH1 0x3 ADD DUP3 DUP2 SLOAD DUP2 LT PUSH2 0xD5A JUMPI PUSH2 0xD59 PUSH2 0x4F86 JUMP JUMPDEST JUMPDEST SWAP1 PUSH1 0x0 MSTORE PUSH1 0x20 PUSH1 0x0 KECCAK256 SWAP1 PUSH1 0x2 MUL ADD PUSH1 0x1 ADD SLOAD GT PUSH2 0xDC1 JUMPI DUP4 PUSH1 0x3 ADD DUP2 DUP2 SLOAD DUP2 LT PUSH2 0xD87 JUMPI PUSH2 0xD86 PUSH2 0x4F86 JUMP JUMPDEST JUMPDEST SWAP1 PUSH1 0x0 MSTORE PUSH1 0x20 PUSH1 0x0 KECCAK256 SWAP1 PUSH1 0x2 MUL ADD PUSH1 0x0 ADD SLOAD DUP4 PUSH2 0xDA4 SWAP2 SWAP1 PUSH2 0x4FE4 JUMP JUMPDEST SWAP3 POP DUP2 DUP1 PUSH2 0xDB1 SWAP1 PUSH2 0x5018 JUMP JUMPDEST SWAP3 POP POP DUP1 DUP1 PUSH1 0x1 ADD SWAP2 POP POP PUSH2 0xD34 JUMP JUMPDEST POP PUSH1 0x0 JUMPDEST DUP2 DUP5 PUSH1 0x3 ADD DUP1 SLOAD SWAP1 POP PUSH2 0xDD8 SWAP2 SWAP1 PUSH2 0x5060 JUMP JUMPDEST DUP2 LT ISZERO PUSH2 0xE56 JUMPI DUP4 PUSH1 0x3 ADD DUP3 DUP3 PUSH2 0xDEF SWAP2 SWAP1 PUSH2 0x4FE4 JUMP JUMPDEST DUP2 SLOAD DUP2 LT PUSH2 0xE00 JUMPI PUSH2 0xDFF PUSH2 0x4F86 JUMP JUMPDEST JUMPDEST SWAP1 PUSH1 0x0 MSTORE PUSH1 0x20 PUSH1 0x0 KECCAK256 SWAP1 PUSH1 0x2 MUL ADD DUP5 PUSH1 0x3 ADD DUP3 DUP2 SLOAD DUP2 LT PUSH2 0xE24 JUMPI PUSH2 0xE23 PUSH2 0x4F86 JUMP JUMPDEST JUMPDEST SWAP1 PUSH1 0x0 MSTORE PUSH1 0x20 PUSH1 0x0 KECCAK256 SWAP1 PUSH1 0x2 MUL ADD PUSH1 0x0 DUP3 ADD SLOAD DUP2 PUSH1 0x0 ADD SSTORE PUSH1 0x1 DUP3 ADD SLOAD DUP2 PUSH1 0x1 ADD SSTORE SWAP1 POP POP DUP1 DUP1 PUSH1 0x1 ADD SWAP2 POP POP PUSH2 0xDC5 JUMP JUMPDEST POP PUSH1 0x0 JUMPDEST DUP2 DUP2 LT ISZERO PUSH2 0xEAC JUMPI DUP4 PUSH1 0x3 ADD DUP1 SLOAD DUP1 PUSH2 0xE76 JUMPI PUSH2 0xE75 PUSH2 0x5094 JUMP JUMPDEST JUMPDEST PUSH1 0x1 SWAP1 SUB DUP2 DUP2 SWAP1 PUSH1 0x0 MSTORE PUSH1 0x20 PUSH1 0x0 KECCAK256 SWAP1 PUSH1 0x2 MUL ADD PUSH1 0x0 DUP1 DUP3 ADD PUSH1 0x0 SWAP1 SSTORE PUSH1 0x1 DUP3 ADD PUSH1 0x0 SWAP1 SSTORE POP POP SWAP1 SSTORE DUP1 DUP1 PUSH1 0x1 ADD SWAP2 POP POP PUSH2 0xE5A JUMP JUMPDEST POP PUSH1 0x0 DUP3 GT ISZERO PUSH2 0xF6E JUMPI PUSH1 0x0 PUSH20 0xFFFFFFFFFFFFFFFFFFFFFFFFFFFFFFFFFFFFFFFF AND DUP5 PUSH1 0x0 ADD PUSH1 0x0 SWAP1 SLOAD SWAP1 PUSH2 0x100 EXP SWAP1 DIV PUSH20 0xFFFFFFFFFFFFFFFFFFFFFFFFFFFFFFFFFFFFFFFF AND PUSH20 0xFFFFFFFFFFFFFFFFFFFFFFFFFFFFFFFFFFFFFFFF AND SUB PUSH2 0xF1D JUMPI PUSH2 0xF18 CALLER DUP4 PUSH2 0x32DE JUMP JUMPDEST PUSH2 0xF6D JUMP JUMPDEST PUSH2 0xF6C CALLER DUP4 DUP7 PUSH1 0x0 ADD PUSH1 0x0 SWAP1 SLOAD SWAP1 PUSH2 0x100 EXP SWAP1 DIV PUSH20 0xFFFFFFFFFFFFFFFFFFFFFFFFFFFFFFFFFFFFFFFF AND PUSH20 0xFFFFFFFFFFFFFFFFFFFFFFFFFFFFFFFFFFFFFFFF AND PUSH2 0x33F0 SWAP1 SWAP3 SWAP2 SWAP1 PUSH4 0xFFFFFFFF AND JUMP JUMPDEST JUMPDEST JUMPDEST NUMBER DUP7 CALLER PUSH20 0xFFFFFFFFFFFFFFFFFFFFFFFFFFFFFFFFFFFFFFFF AND PUSH32 0x2F25270A4D87BEA75DB541CDFE559334A275B4A233520ED6C0A2429667CCA94 DUP6 PUSH1 0x40 MLOAD PUSH2 0xFB6 SWAP2 SWAP1 PUSH2 0x4682 JUMP JUMPDEST PUSH1 0x40 MLOAD DUP1 SWAP2 SUB SWAP1 LOG4 POP POP POP POP POP POP JUMP JUMPDEST PUSH2 0xFCF DUP3 PUSH2 0xBE6 JUMP JUMPDEST PUSH2 0xFD8 DUP2 PUSH2 0x346F JUMP JUMPDEST PUSH2 0xFE2 DUP4 DUP4 PUSH2 0x3483 JUMP JUMPDEST POP POP POP POP JUMP JUMPDEST PUSH1 0x3 PUSH1 0x0 SWAP1 SLOAD SWAP1 PUSH2 0x100 EXP SWAP1 DIV PUSH1 0xFF AND DUP2 JUMP JUMPDEST PUSH2 0x1003 PUSH2 0x3584 JUMP JUMPDEST PUSH20 0xFFFFFFFFFFFFFFFFFFFFFFFFFFFFFFFFFFFFFFFF AND DUP2 PUSH20 0xFFFFFFFFFFFFFFFFFFFFFFFFFFFFFFFFFFFFFFFF AND EQ PUSH2 0x1067 JUMPI PUSH1 0x40 MLOAD PUSH32 0x6697B23200000000000000000000000000000000000000000000000000000000 DUP2 MSTORE PUSH1 0x4 ADD PUSH1 0x40 MLOAD DUP1 SWAP2 SUB SWAP1 REVERT JUMPDEST PUSH2 0x1071 DUP3 DUP3 PUSH2 0x358C JUMP JUMPDEST POP POP POP JUMP JUMPDEST PUSH1 0x6 PUSH1 0x20 MSTORE DUP2 PUSH1 0x0 MSTORE PUSH1 0x40 PUSH1 0x0 KECCAK256 PUSH1 0x20 MSTORE DUP1 PUSH1 0x0 MSTORE PUSH1 0x40 PUSH1 0x0 KECCAK256 PUSH1 0x0 SWAP2 POP SWAP2 POP POP DUP1 PUSH1 0x0 ADD SLOAD SWAP1 DUP1 PUSH1 0x1 ADD SLOAD SWAP1 DUP1 PUSH1 0x2 ADD SLOAD SWAP1 POP DUP4 JUMP JUMPDEST PUSH2 0x10B5 PUSH2 0x329D JUMP JUMPDEST DUP1 PUSH1 0x5 DUP1 SLOAD SWAP1 POP DUP2 LT PUSH2 0x10FD JUMPI PUSH1 0x40 MLOAD PUSH32 0x8C379A000000000000000000000000000000000000000000000000000000000 DUP2 MSTORE PUSH1 0x4 ADD PUSH2 0x10F4 SWAP1 PUSH2 0x4EFA JUMP JUMPDEST PUSH1 0x40 MLOAD DUP1 SWAP2 SUB SWAP1 REVERT JUMPDEST PUSH1 0x3 PUSH1 0x1 SWAP1 SLOAD SWAP1 PUSH2 0x100 EXP SWAP1 DIV PUSH1 0xFF AND ISZERO PUSH2 0x114D JUMPI PUSH1 0x40 MLOAD PUSH32 0x8C379A000000000000000000000000000000000000000000000000000000000 DUP2 MSTORE PUSH1 0x4 ADD PUSH2 0x1144 SWAP1 PUSH2 0x510F JUMP JUMPDEST PUSH1 0x40 MLOAD DUP1 SWAP2 SUB SWAP1 REVERT JUMPDEST PUSH1 0x0 PUSH1 0x5 DUP4 DUP2 SLOAD DUP2 LT PUSH2 0x1163 JUMPI PUSH2 0x1162 PUSH2 0x4F86 JUMP JUMPDEST JUMPDEST SWAP1 PUSH1 0x0 MSTORE PUSH1 0x20 PUSH1 0x0 KECCAK256 SWAP1 PUSH1 0x7 MUL ADD SWAP1 POP PUSH1 0x0 PUSH1 0x6 PUSH1 0x0 DUP6 DUP2 MSTORE PUSH1 0x20 ADD SWAP1 DUP2 MSTORE PUSH1 0x20 ADD PUSH1 0x0 KECCAK256 PUSH1 0x0 CALLER PUSH20 0xFFFFFFFFFFFFFFFFFFFFFFFFFFFFFFFFFFFFFFFF AND PUSH20 0xFFFFFFFFFFFFFFFFFFFFFFFFFFFFFFFFFFFFFFFF AND DUP2 MSTORE PUSH1 0x20 ADD SWAP1 DUP2 MSTORE PUSH1 0x20 ADD PUSH1 0x0 KECCAK256 SWAP1 POP PUSH2 0x11D0 DUP5 PUSH2 0x16CD JUMP JUMPDEST PUSH1 0x0 DUP2 PUSH1 0x2 ADD SLOAD DUP3 PUSH1 0x1 ADD SLOAD DUP5 PUSH1 0x3 ADD SLOAD DUP5 PUSH1 0x0 ADD SLOAD PUSH2 0x11F0 SWAP2 SWAP1 PUSH2 0x512F JUMP JUMPDEST PUSH2 0x11FA SWAP2 SWAP1 PUSH2 0x5060 JUMP JUMPDEST PUSH2 0x1204 SWAP2 SWAP1 PUSH2 0x4FE4 JUMP JUMPDEST SWAP1 POP PUSH1 0x0 DUP2 GT ISZERO PUSH2 0x1224 JUMPI PUSH1 0x0 DUP3 PUSH1 0x2 ADD DUP2 SWAP1 SSTORE POP PUSH2 0x1223 CALLER DUP3 PUSH2 0x368E JUMP JUMPDEST JUMPDEST PUSH8 0xDE0B6B3A7640000 DUP4 PUSH1 0x3 ADD SLOAD DUP4 PUSH1 0x0 ADD SLOAD PUSH2 0x1241 SWAP2 SWAP1 PUSH2 0x512F JUMP JUMPDEST PUSH2 0x124B SWAP2 SWAP1 PUSH2 0x51A0 JUMP JUMPDEST DUP3 PUSH1 0x1 ADD DUP2 SWAP1 SSTORE POP DUP5 CALLER PUSH20 0xFFFFFFFFFFFFFFFFFFFFFFFFFFFFFFFFFFFFFFFF AND PUSH32 0x34FCBAC0073D7C3D388E51312FAF357774904998EEB8FCA628B9E6F65EE1CBF7 DUP4 PUSH1 0x40 MLOAD PUSH2 0x129A SWAP2 SWAP1 PUSH2 0x4682 JUMP JUMPDEST PUSH1 0x40 MLOAD DUP1 SWAP2 SUB SWAP1 LOG3 POP POP POP POP POP JUMP JUMPDEST PUSH1 0x0 DUP1 PUSH1 0x5 DUP6 DUP2 SLOAD DUP2 LT PUSH2 0x12C0 JUMPI PUSH2 0x12BF PUSH2 0x4F86 JUMP JUMPDEST JUMPDEST SWAP1 PUSH1 0x0 MSTORE PUSH1 0x20 PUSH1 0x0 KECCAK256 SWAP1 PUSH1 0x7 MUL ADD SWAP1 POP PUSH1 0x0 PUSH1 0x6 PUSH1 0x0 DUP8 DUP2 MSTORE PUSH1 0x20 ADD SWAP1 DUP2 MSTORE PUSH1 0x20 ADD PUSH1 0x0 KECCAK256 PUSH1 0x0 DUP7 PUSH20 0xFFFFFFFFFFFFFFFFFFFFFFFFFFFFFFFFFFFFFFFF AND PUSH20 0xFFFFFFFFFFFFFFFFFFFFFFFFFFFFFFFFFFFFFFFF AND DUP2 MSTORE PUSH1 0x20 ADD SWAP1 DUP2 MSTORE PUSH1 0x20 ADD PUSH1 0x0 KECCAK256 SWAP1 POP PUSH1 0x0 DUP3 PUSH1 0x3 ADD SLOAD SWAP1 POP PUSH1 0x0 DUP4 PUSH1 0x4 ADD SLOAD SWAP1 POP DUP4 PUSH1 0x2 ADD SLOAD DUP7 LT DUP1 ISZERO PUSH2 0x134A JUMPI POP PUSH1 0x0 DUP2 EQ ISZERO JUMPDEST ISZERO PUSH2 0x13B1 JUMPI PUSH1 0x0 PUSH2 0x135F DUP6 PUSH1 0x2 ADD SLOAD DUP9 PUSH2 0x1B2D JUMP JUMPDEST SWAP1 POP PUSH1 0x0 PUSH1 0x4 SLOAD DUP7 PUSH1 0x1 ADD SLOAD DUP4 PUSH2 0x1376 SWAP2 SWAP1 PUSH2 0x512F JUMP JUMPDEST PUSH2 0x1380 SWAP2 SWAP1 PUSH2 0x51A0 JUMP JUMPDEST SWAP1 POP DUP3 PUSH8 0xDE0B6B3A7640000 DUP3 PUSH2 0x1397 SWAP2 SWAP1 PUSH2 0x512F JUMP JUMPDEST PUSH2 0x13A1 SWAP2 SWAP1 PUSH2 0x51A0 JUMP JUMPDEST DUP5 PUSH2 0x13AC SWAP2 SWAP1 PUSH2 0x4FE4 JUMP JUMPDEST SWAP4 POP POP POP JUMPDEST DUP3 PUSH1 0x2 ADD SLOAD DUP4 PUSH1 0x1 ADD SLOAD PUSH8 0xDE0B6B3A7640000 DUP5 DUP7 PUSH1 0x0 ADD SLOAD PUSH2 0x13D4 SWAP2 SWAP1 PUSH2 0x512F JUMP JUMPDEST PUSH2 0x13DE SWAP2 SWAP1 PUSH2 0x51A0 JUMP JUMPDEST PUSH2 0x13E8 SWAP2 SWAP1 PUSH2 0x5060 JUMP JUMPDEST PUSH2 0x13F2 SWAP2 SWAP1 PUSH2 0x4FE4 JUMP JUMPDEST SWAP5 POP POP POP POP POP SWAP4 SWAP3 POP POP POP JUMP JUMPDEST PUSH1 0x0 SLOAD DUP2 JUMP JUMPDEST PUSH1 0x0 PUSH2 0x140F PUSH2 0x3882 JUMP JUMPDEST SWAP1 POP PUSH1 0x0 DUP2 PUSH1 0x0 ADD PUSH1 0x8 SWAP1 SLOAD SWAP1 PUSH2 0x100 EXP SWAP1 DIV PUSH1 0xFF AND ISZERO SWAP1 POP PUSH1 0x0 DUP3 PUSH1 0x0 ADD PUSH1 0x0 SWAP1 SLOAD SWAP1 PUSH2 0x100 EXP SWAP1 DIV PUSH8 0xFFFFFFFFFFFFFFFF AND SWAP1 POP PUSH1 0x0 DUP1 DUP3 PUSH8 0xFFFFFFFFFFFFFFFF AND EQ DUP1 ISZERO PUSH2 0x145D JUMPI POP DUP3 JUMPDEST SWAP1 POP PUSH1 0x0 PUSH1 0x1 DUP4 PUSH8 0xFFFFFFFFFFFFFFFF AND EQ DUP1 ISZERO PUSH2 0x1492 JUMPI POP PUSH1 0x0 ADDRESS PUSH20 0xFFFFFFFFFFFFFFFFFFFFFFFFFFFFFFFFFFFFFFFF AND EXTCODESIZE EQ JUMPDEST SWAP1 POP DUP2 ISZERO DUP1 ISZERO PUSH2 0x14A0 JUMPI POP DUP1 ISZERO JUMPDEST ISZERO PUSH2 0x14D7 JUMPI PUSH1 0x40 MLOAD PUSH32 0xF92EE8A900000000000000000000000000000000000000000000000000000000 DUP2 MSTORE PUSH1 0x4 ADD PUSH1 0x40 MLOAD DUP1 SWAP2 SUB SWAP1 REVERT JUMPDEST PUSH1 0x1 DUP6 PUSH1 0x0 ADD PUSH1 0x0 PUSH2 0x100 EXP DUP2 SLOAD DUP2 PUSH8 0xFFFFFFFFFFFFFFFF MUL NOT AND SWAP1 DUP4 PUSH8 0xFFFFFFFFFFFFFFFF AND MUL OR SWAP1 SSTORE POP DUP4 ISZERO PUSH2 0x1527 JUMPI PUSH1 0x1 DUP6 PUSH1 0x0 ADD PUSH1 0x8 PUSH2 0x100 EXP DUP2 SLOAD DUP2 PUSH1 0xFF MUL NOT AND SWAP1 DUP4 ISZERO ISZERO MUL OR SWAP1 SSTORE POP JUMPDEST DUP7 DUP9 GT ISZERO PUSH2 0x156A JUMPI PUSH1 0x40 MLOAD PUSH32 0x8C379A000000000000000000000000000000000000000000000000000000000 DUP2 MSTORE PUSH1 0x4 ADD PUSH2 0x1561 SWAP1 PUSH2 0x5243 JUMP JUMPDEST PUSH1 0x40 MLOAD DUP1 SWAP2 SUB SWAP1 REVERT JUMPDEST PUSH1 0x0 DUP7 GT PUSH2 0x15AD JUMPI PUSH1 0x40 MLOAD PUSH32 0x8C379A000000000000000000000000000000000000000000000000000000000 DUP2 MSTORE PUSH1 0x4 ADD PUSH2 0x15A4 SWAP1 PUSH2 0x52D5 JUMP JUMPDEST PUSH1 0x40 MLOAD DUP1 SWAP2 SUB SWAP1 REVERT JUMPDEST PUSH2 0x15B5 PUSH2 0x38AA JUMP JUMPDEST PUSH2 0x15BD PUSH2 0x38B4 JUMP JUMPDEST PUSH2 0x15C5 PUSH2 0x38BE JUMP JUMPDEST PUSH2 0x15D2 PUSH1 0x0 DUP1 SHL CALLER PUSH2 0x3483 JUMP JUMPDEST POP PUSH2 0x15FD PUSH32 0xF47FC0C09EBBFE308D89B8035681A1164B9882BCFD49EB89861067738A30F5AB CALLER PUSH2 0x3483 JUMP JUMPDEST POP PUSH2 0x1628 PUSH32 0x589D473BA17C0F47D494622893831497BAD25919B9AFB8E33E9521B8963FCCDE CALLER PUSH2 0x3483 JUMP JUMPDEST POP PUSH2 0x1632 DUP10 PUSH2 0x2C83 JUMP JUMPDEST DUP8 PUSH1 0x0 DUP2 SWAP1 SSTORE POP DUP7 PUSH1 0x1 DUP2 SWAP1 SSTORE POP DUP6 PUSH1 0x2 DUP2 SWAP1 SSTORE POP DUP4 ISZERO PUSH2 0x16A3 JUMPI PUSH1 0x0 DUP6 PUSH1 0x0 ADD PUSH1 0x8 PUSH2 0x100 EXP DUP2 SLOAD DUP2 PUSH1 0xFF MUL NOT AND SWAP1 DUP4 ISZERO ISZERO MUL OR SWAP1 SSTORE POP PUSH32 0xC7F505B2F371AE2175EE4913F4499E1F2633A7B5936321EED1CDAEB6115181D2 PUSH1 0x1 PUSH1 0x40 MLOAD PUSH2 0x169A SWAP2 SWAP1 PUSH2 0x5344 JUMP JUMPDEST PUSH1 0x40 MLOAD DUP1 SWAP2 SUB SWAP1 LOG1 JUMPDEST POP POP POP POP POP POP POP POP POP JUMP JUMPDEST PUSH2 0x16B6 PUSH2 0x38D0 JUMP JUMPDEST PUSH2 0x16BF DUP3 PUSH2 0x39B6 JUMP JUMPDEST PUSH2 0x16C9 DUP3 DUP3 PUSH2 0x39E4 JUMP JUMPDEST POP POP JUMP JUMPDEST DUP1 PUSH1 0x5 DUP1 SLOAD SWAP1 POP DUP2 LT PUSH2 0x1715 JUMPI PUSH1 0x40 MLOAD PUSH32 0x8C379A000000000000000000000000000000000000000000000000000000000 DUP2 MSTORE PUSH1 0x4 ADD PUSH2 0x170C SWAP1 PUSH2 0x4EFA JUMP JUMPDEST PUSH1 0x40 MLOAD DUP1 SWAP2 SUB SWAP1 REVERT JUMPDEST PUSH1 0x0 PUSH1 0x5 DUP4 DUP2 SLOAD DUP2 LT PUSH2 0x172B JUMPI PUSH2 0x172A PUSH2 0x4F86 JUMP JUMPDEST JUMPDEST SWAP1 PUSH1 0x0 MSTORE PUSH1 0x20 PUSH1 0x0 KECCAK256 SWAP1 PUSH1 0x7 MUL ADD SWAP1 POP DUP1 PUSH1 0x2 ADD SLOAD NUMBER GT PUSH2 0x174C JUMPI POP PUSH2 0x19B5 JUMP JUMPDEST PUSH1 0x0 DUP2 PUSH1 0x4 ADD SLOAD SWAP1 POP PUSH1 0x0 DUP2 SUB PUSH2 0x176D JUMPI NUMBER DUP3 PUSH1 0x2 ADD DUP2 SWAP1 SSTORE POP POP POP PUSH2 0x19B5 JUMP JUMPDEST PUSH1 0x0 DUP1 PUSH2 0x1794 DUP5 PUSH1 0x1 ADD SLOAD PUSH2 0x1786 DUP7 PUSH1 0x2 ADD SLOAD NUMBER PUSH2 0x1B2D JUMP JUMPDEST PUSH2 0x3B03 SWAP1 SWAP2 SWAP1 PUSH4 0xFFFFFFFF AND JUMP JUMPDEST SWAP2 POP SWAP2 POP DUP2 PUSH2 0x17D8 JUMPI PUSH1 0x40 MLOAD PUSH32 0x8C379A000000000000000000000000000000000000000000000000000000000 DUP2 MSTORE PUSH1 0x4 ADD PUSH2 0x17CF SWAP1 PUSH2 0x53AB JUMP JUMPDEST PUSH1 0x40 MLOAD DUP1 SWAP2 SUB SWAP1 REVERT JUMPDEST PUSH2 0x17ED PUSH1 0x4 SLOAD DUP3 PUSH2 0x3B56 SWAP1 SWAP2 SWAP1 PUSH4 0xFFFFFFFF AND JUMP JUMPDEST DUP1 SWAP3 POP DUP2 SWAP4 POP POP POP DUP2 PUSH2 0x1835 JUMPI PUSH1 0x40 MLOAD PUSH32 0x8C379A000000000000000000000000000000000000000000000000000000000 DUP2 MSTORE PUSH1 0x4 ADD PUSH2 0x182C SWAP1 PUSH2 0x53AB JUMP JUMPDEST PUSH1 0x40 MLOAD DUP1 SWAP2 SUB SWAP1 REVERT JUMPDEST PUSH1 0x0 DUP5 PUSH1 0x4 ADD SLOAD SWAP1 POP PUSH1 0x0 DUP2 GT ISZERO PUSH2 0x1969 JUMPI PUSH1 0x0 DUP1 PUSH2 0x185E PUSH1 0x1 DUP6 PUSH2 0x3B03 SWAP1 SWAP2 SWAP1 PUSH4 0xFFFFFFFF AND JUMP JUMPDEST SWAP2 POP SWAP2 POP DUP2 PUSH2 0x18A2 JUMPI PUSH1 0x40 MLOAD PUSH32 0x8C379A000000000000000000000000000000000000000000000000000000000 DUP2 MSTORE PUSH1 0x4 ADD PUSH2 0x1899 SWAP1 PUSH2 0x53AB JUMP JUMPDEST PUSH1 0x40 MLOAD DUP1 SWAP2 SUB SWAP1 REVERT JUMPDEST PUSH2 0x18B5 DUP4 DUP3 PUSH2 0x3B56 SWAP1 SWAP2 SWAP1 PUSH4 0xFFFFFFFF AND JUMP JUMPDEST DUP1 SWAP3 POP DUP2 SWAP4 POP POP POP DUP2 PUSH2 0x18FD JUMPI PUSH1 0x40 MLOAD PUSH32 0x8C379A000000000000000000000000000000000000000000000000000000000 DUP2 MSTORE PUSH1 0x4 ADD PUSH2 0x18F4 SWAP1 PUSH2 0x53AB JUMP JUMPDEST PUSH1 0x40 MLOAD DUP1 SWAP2 SUB SWAP1 REVERT JUMPDEST PUSH1 0x0 DUP1 PUSH2 0x1917 DUP4 DUP11 PUSH1 0x3 ADD SLOAD PUSH2 0x3B8C SWAP1 SWAP2 SWAP1 PUSH4 0xFFFFFFFF AND JUMP JUMPDEST SWAP2 POP SWAP2 POP DUP2 PUSH2 0x195B JUMPI PUSH1 0x40 MLOAD PUSH32 0x8C379A000000000000000000000000000000000000000000000000000000000 DUP2 MSTORE PUSH1 0x4 ADD PUSH2 0x1952 SWAP1 PUSH2 0x53AB JUMP JUMPDEST PUSH1 0x40 MLOAD DUP1 SWAP2 SUB SWAP1 REVERT JUMPDEST DUP1 DUP10 PUSH1 0x3 ADD DUP2 SWAP1 SSTORE POP POP POP POP POP JUMPDEST NUMBER DUP6 PUSH1 0x2 ADD DUP2 SWAP1 SSTORE POP DUP5 PUSH1 0x2 ADD SLOAD DUP8 PUSH32 0xF5D2D72D9B25D6853AFD7D0554A113B705234B6A68BB36B7F143662994632411 DUP5 PUSH1 0x40 MLOAD PUSH2 0x19A7 SWAP2 SWAP1 PUSH2 0x4682 JUMP JUMPDEST PUSH1 0x40 MLOAD DUP1 SWAP2 SUB SWAP1 LOG3 POP POP POP POP POP JUMPDEST POP POP JUMP JUMPDEST PUSH1 0x0 PUSH2 0x19C3 PUSH2 0x3BBB JUMP JUMPDEST PUSH32 0x360894A13BA1A3210667C828492DB98DCA3E2076CC3735A920A3CA505D382BBC PUSH1 0x0 SHL SWAP1 POP SWAP1 JUMP JUMPDEST PUSH1 0x0 DUP1 PUSH2 0x19F7 PUSH2 0x3C42 JUMP JUMPDEST SWAP1 POP DUP1 PUSH1 0x0 ADD PUSH1 0x0 SWAP1 SLOAD SWAP1 PUSH2 0x100 EXP SWAP1 DIV PUSH1 0xFF AND SWAP2 POP POP SWAP1 JUMP JUMPDEST PUSH32 0x589D473BA17C0F47D494622893831497BAD25919B9AFB8E33E9521B8963FCCDE PUSH2 0x1A3B DUP2 PUSH2 0x346F JUMP JUMPDEST PUSH1 0x3 PUSH1 0x0 SWAP1 SLOAD SWAP1 PUSH2 0x100 EXP SWAP1 DIV PUSH1 0xFF AND PUSH2 0x1A8A JUMPI PUSH1 0x40 MLOAD PUSH32 0x8C379A000000000000000000000000000000000000000000000000000000000 DUP2 MSTORE PUSH1 0x4 ADD PUSH2 0x1A81 SWAP1 PUSH2 0x543D JUMP JUMPDEST PUSH1 0x40 MLOAD DUP1 SWAP2 SUB SWAP1 REVERT JUMPDEST PUSH1 0x1 PUSH1 0x3 PUSH1 0x0 PUSH2 0x100 EXP DUP2 SLOAD DUP2 PUSH1 0xFF MUL NOT AND SWAP1 DUP4 ISZERO ISZERO MUL OR SWAP1 SSTORE POP PUSH32 0x2523DFDAFA00190F21A4CBD0C25179C8DD3CB34A6C17FEA952ECCA8FA8332C0E PUSH1 0x40 MLOAD PUSH1 0x40 MLOAD DUP1 SWAP2 SUB SWAP1 LOG1 POP JUMP JUMPDEST PUSH1 0x0 PUSH1 0x5 DUP1 SLOAD SWAP1 POP SWAP1 POP PUSH1 0x0 JUMPDEST DUP2 DUP2 LT ISZERO PUSH2 0x1AFF JUMPI PUSH2 0x1AF2 DUP2 PUSH2 0x16CD JUMP JUMPDEST DUP1 DUP1 PUSH1 0x1 ADD SWAP2 POP POP PUSH2 0x1AE1 JUMP JUMPDEST POP POP JUMP JUMPDEST PUSH1 0x2 SLOAD DUP2 JUMP JUMPDEST PUSH32 0x589D473BA17C0F47D494622893831497BAD25919B9AFB8E33E9521B8963FCCDE DUP2 JUMP JUMPDEST PUSH1 0x0 DUP2 DUP4 GT ISZERO PUSH2 0x1B72 JUMPI PUSH1 0x40 MLOAD PUSH32 0x8C379A000000000000000000000000000000000000000000000000000000000 DUP2 MSTORE PUSH1 0x4 ADD PUSH2 0x1B69 SWAP1 PUSH2 0x54A9 JUMP JUMPDEST PUSH1 0x40 MLOAD DUP1 SWAP2 SUB SWAP1 REVERT JUMPDEST PUSH1 0x0 SLOAD DUP4 LT ISZERO PUSH2 0x1B82 JUMPI PUSH1 0x0 SLOAD SWAP3 POP JUMPDEST PUSH1 0x1 SLOAD DUP3 GT ISZERO PUSH2 0x1B92 JUMPI PUSH1 0x1 SLOAD SWAP2 POP JUMPDEST PUSH1 0x0 DUP4 DUP4 PUSH2 0x1BA0 SWAP2 SWAP1 PUSH2 0x5060 JUMP JUMPDEST GT PUSH2 0x1BE0 JUMPI PUSH1 0x40 MLOAD PUSH32 0x8C379A000000000000000000000000000000000000000000000000000000000 DUP2 MSTORE PUSH1 0x4 ADD PUSH2 0x1BD7 SWAP1 PUSH2 0x54A9 JUMP JUMPDEST PUSH1 0x40 MLOAD DUP1 SWAP2 SUB SWAP1 REVERT JUMPDEST PUSH1 0x0 PUSH2 0x1C02 PUSH1 0x2 SLOAD DUP6 DUP6 PUSH2 0x1BF4 SWAP2 SWAP1 PUSH2 0x5060 JUMP JUMPDEST PUSH2 0x3B03 SWAP1 SWAP2 SWAP1 PUSH4 0xFFFFFFFF AND JUMP JUMPDEST DUP1 SWAP4 POP DUP2 SWAP3 POP POP POP DUP1 PUSH2 0x1C4A JUMPI PUSH1 0x40 MLOAD PUSH32 0x8C379A000000000000000000000000000000000000000000000000000000000 DUP2 MSTORE PUSH1 0x4 ADD PUSH2 0x1C41 SWAP1 PUSH2 0x5515 JUMP JUMPDEST PUSH1 0x40 MLOAD DUP1 SWAP2 SUB SWAP1 REVERT JUMPDEST POP SWAP3 SWAP2 POP POP JUMP JUMPDEST PUSH32 0x589D473BA17C0F47D494622893831497BAD25919B9AFB8E33E9521B8963FCCDE PUSH2 0x1C7B DUP2 PUSH2 0x346F JUMP JUMPDEST PUSH1 0x3 PUSH1 0x1 SWAP1 SLOAD SWAP1 PUSH2 0x100 EXP SWAP1 DIV PUSH1 0xFF AND ISZERO PUSH2 0x1CCB JUMPI PUSH1 0x40 MLOAD PUSH32 0x8C379A000000000000000000000000000000000000000000000000000000000 DUP2 MSTORE PUSH1 0x4 ADD PUSH2 0x1CC2 SWAP1 PUSH2 0x5581 JUMP JUMPDEST PUSH1 0x40 MLOAD DUP1 SWAP2 SUB SWAP1 REVERT JUMPDEST PUSH1 0x1 PUSH1 0x3 PUSH1 0x1 PUSH2 0x100 EXP DUP2 SLOAD DUP2 PUSH1 0xFF MUL NOT AND SWAP1 DUP4 ISZERO ISZERO MUL OR SWAP1 SSTORE POP PUSH32 0x443BF540E8151617CD5C39A681CC35A5A22BE078B6F0CF16E5BD822B4C4B61FF PUSH1 0x40 MLOAD PUSH1 0x40 MLOAD DUP1 SWAP2 SUB SWAP1 LOG1 POP JUMP JUMPDEST PUSH1 0x0 DUP1 PUSH2 0x1D20 PUSH2 0x3275 JUMP JUMPDEST SWAP1 POP DUP1 PUSH1 0x0 ADD PUSH1 0x0 DUP6 DUP2 MSTORE PUSH1 0x20 ADD SWAP1 DUP2 MSTORE PUSH1 0x20 ADD PUSH1 0x0 KECCAK256 PUSH1 0x0 ADD PUSH1 0x0 DUP5 PUSH20 0xFFFFFFFFFFFFFFFFFFFFFFFFFFFFFFFFFFFFFFFF AND PUSH20 0xFFFFFFFFFFFFFFFFFFFFFFFFFFFFFFFFFFFFFFFF AND DUP2 MSTORE PUSH1 0x20 ADD SWAP1 DUP2 MSTORE PUSH1 0x20 ADD PUSH1 0x0 KECCAK256 PUSH1 0x0 SWAP1 SLOAD SWAP1 PUSH2 0x100 EXP SWAP1 DIV PUSH1 0xFF AND SWAP2 POP POP SWAP3 SWAP2 POP POP JUMP JUMPDEST PUSH2 0x1D96 PUSH2 0x329D JUMP JUMPDEST PUSH1 0x3 PUSH1 0x0 SWAP1 SLOAD SWAP1 PUSH2 0x100 EXP SWAP1 DIV PUSH1 0xFF AND ISZERO PUSH2 0x1DE6 JUMPI PUSH1 0x40 MLOAD PUSH32 0x8C379A000000000000000000000000000000000000000000000000000000000 DUP2 MSTORE PUSH1 0x4 ADD PUSH2 0x1DDD SWAP1 PUSH2 0x4F66 JUMP JUMPDEST PUSH1 0x40 MLOAD DUP1 SWAP2 SUB SWAP1 REVERT JUMPDEST DUP2 PUSH1 0x5 DUP1 SLOAD SWAP1 POP DUP2 LT PUSH2 0x1E2E JUMPI PUSH1 0x40 MLOAD PUSH32 0x8C379A000000000000000000000000000000000000000000000000000000000 DUP2 MSTORE PUSH1 0x4 ADD PUSH2 0x1E25 SWAP1 PUSH2 0x4EFA JUMP JUMPDEST PUSH1 0x40 MLOAD DUP1 SWAP2 SUB SWAP1 REVERT JUMPDEST PUSH1 0x0 PUSH1 0x5 DUP5 DUP2 SLOAD DUP2 LT PUSH2 0x1E44 JUMPI PUSH2 0x1E43 PUSH2 0x4F86 JUMP JUMPDEST JUMPDEST SWAP1 PUSH1 0x0 MSTORE PUSH1 0x20 PUSH1 0x0 KECCAK256 SWAP1 PUSH1 0x7 MUL ADD SWAP1 POP PUSH1 0x0 PUSH1 0x6 PUSH1 0x0 DUP7 DUP2 MSTORE PUSH1 0x20 ADD SWAP1 DUP2 MSTORE PUSH1 0x20 ADD PUSH1 0x0 KECCAK256 PUSH1 0x0 CALLER PUSH20 0xFFFFFFFFFFFFFFFFFFFFFFFFFFFFFFFFFFFFFFFF AND PUSH20 0xFFFFFFFFFFFFFFFFFFFFFFFFFFFFFFFFFFFFFFFF AND DUP2 MSTORE PUSH1 0x20 ADD SWAP1 DUP2 MSTORE PUSH1 0x20 ADD PUSH1 0x0 KECCAK256 SWAP1 POP DUP4 DUP2 PUSH1 0x0 ADD SLOAD LT ISZERO PUSH2 0x1EEF JUMPI PUSH1 0x40 MLOAD PUSH32 0x8C379A000000000000000000000000000000000000000000000000000000000 DUP2 MSTORE PUSH1 0x4 ADD PUSH2 0x1EE6 SWAP1 PUSH2 0x55ED JUMP JUMPDEST PUSH1 0x40 MLOAD DUP1 SWAP2 SUB SWAP1 REVERT JUMPDEST PUSH2 0x1EF8 DUP6 PUSH2 0x16CD JUMP JUMPDEST PUSH1 0x0 DUP1 PUSH2 0x1F16 DUP5 PUSH1 0x3 ADD SLOAD DUP5 PUSH1 0x0 ADD SLOAD PUSH2 0x3B03 SWAP1 SWAP2 SWAP1 PUSH4 0xFFFFFFFF AND JUMP JUMPDEST SWAP2 POP SWAP2 POP DUP2 PUSH2 0x1F5A JUMPI PUSH1 0x40 MLOAD PUSH32 0x8C379A000000000000000000000000000000000000000000000000000000000 DUP2 MSTORE PUSH1 0x4 ADD PUSH2 0x1F51 SWAP1 PUSH2 0x53AB JUMP JUMPDEST PUSH1 0x40 MLOAD DUP1 SWAP2 SUB SWAP1 REVERT JUMPDEST PUSH2 0x1F6E PUSH1 0x1 DUP3 PUSH2 0x3B56 SWAP1 SWAP2 SWAP1 PUSH4 0xFFFFFFFF AND JUMP JUMPDEST DUP1 SWAP3 POP DUP2 SWAP4 POP POP POP DUP2 PUSH2 0x1FB6 JUMPI PUSH1 0x40 MLOAD PUSH32 0x8C379A000000000000000000000000000000000000000000000000000000000 DUP2 MSTORE PUSH1 0x4 ADD PUSH2 0x1FAD SWAP1 PUSH2 0x5659 JUMP JUMPDEST PUSH1 0x40 MLOAD DUP1 SWAP2 SUB SWAP1 REVERT JUMPDEST PUSH2 0x1FCD DUP4 PUSH1 0x1 ADD SLOAD DUP3 PUSH2 0x3C6A SWAP1 SWAP2 SWAP1 PUSH4 0xFFFFFFFF AND JUMP JUMPDEST DUP1 SWAP3 POP DUP2 SWAP4 POP POP POP DUP2 PUSH2 0x2015 JUMPI PUSH1 0x40 MLOAD PUSH32 0x8C379A000000000000000000000000000000000000000000000000000000000 DUP2 MSTORE PUSH1 0x4 ADD PUSH2 0x200C SWAP1 PUSH2 0x56C5 JUMP JUMPDEST PUSH1 0x40 MLOAD DUP1 SWAP2 SUB SWAP1 REVERT JUMPDEST PUSH1 0x0 DUP2 GT ISZERO PUSH2 0x203A JUMPI DUP1 DUP4 PUSH1 0x2 ADD PUSH1 0x0 DUP3 DUP3 SLOAD PUSH2 0x2032 SWAP2 SWAP1 PUSH2 0x4FE4 JUMP JUMPDEST SWAP3 POP POP DUP2 SWAP1 SSTORE POP JUMPDEST PUSH1 0x0 DUP7 GT ISZERO PUSH2 0x20C6 JUMPI DUP6 DUP4 PUSH1 0x0 ADD PUSH1 0x0 DUP3 DUP3 SLOAD PUSH2 0x2057 SWAP2 SWAP1 PUSH2 0x5060 JUMP JUMPDEST SWAP3 POP POP DUP2 SWAP1 SSTORE POP DUP3 PUSH1 0x3 ADD PUSH1 0x40 MLOAD DUP1 PUSH1 0x40 ADD PUSH1 0x40 MSTORE DUP1 DUP9 DUP2 MSTORE PUSH1 0x20 ADD DUP7 PUSH1 0x6 ADD SLOAD NUMBER PUSH2 0x2083 SWAP2 SWAP1 PUSH2 0x4FE4 JUMP JUMPDEST DUP2 MSTORE POP SWAP1 DUP1 PUSH1 0x1 DUP2 SLOAD ADD DUP1 DUP3 SSTORE DUP1 SWAP2 POP POP PUSH1 0x1 SWAP1 SUB SWAP1 PUSH1 0x0 MSTORE PUSH1 0x20 PUSH1 0x0 KECCAK256 SWAP1 PUSH1 0x2 MUL ADD PUSH1 0x0 SWAP1 SWAP2 SWAP1 SWAP2 SWAP1 SWAP2 POP PUSH1 0x0 DUP3 ADD MLOAD DUP2 PUSH1 0x0 ADD SSTORE PUSH1 0x20 DUP3 ADD MLOAD DUP2 PUSH1 0x1 ADD SSTORE POP POP JUMPDEST DUP6 DUP5 PUSH1 0x4 ADD PUSH1 0x0 DUP3 DUP3 SLOAD PUSH2 0x20DA SWAP2 SWAP1 PUSH2 0x5060 JUMP JUMPDEST SWAP3 POP POP DUP2 SWAP1 SSTORE POP PUSH8 0xDE0B6B3A7640000 DUP5 PUSH1 0x3 ADD SLOAD DUP5 PUSH1 0x0 ADD SLOAD PUSH2 0x20FE SWAP2 SWAP1 PUSH2 0x512F JUMP JUMPDEST PUSH2 0x2108 SWAP2 SWAP1 PUSH2 0x51A0 JUMP JUMPDEST DUP4 PUSH1 0x1 ADD DUP2 SWAP1 SSTORE POP DUP7 CALLER PUSH20 0xFFFFFFFFFFFFFFFFFFFFFFFFFFFFFFFFFFFFFFFF AND PUSH32 0xC80277265097707F6F12A4AC4C09D46C9926E2EEA2536F63616CB04D9FCAD7D6 DUP9 PUSH1 0x40 MLOAD PUSH2 0x2157 SWAP2 SWAP1 PUSH2 0x4682 JUMP JUMPDEST PUSH1 0x40 MLOAD DUP1 SWAP2 SUB SWAP1 LOG3 POP POP POP POP POP POP POP JUMP JUMPDEST PUSH1 0x0 DUP1 SHL DUP2 JUMP JUMPDEST PUSH1 0x0 DUP3 PUSH1 0x5 DUP1 SLOAD SWAP1 POP DUP2 LT PUSH2 0x21B9 JUMPI PUSH1 0x40 MLOAD PUSH32 0x8C379A000000000000000000000000000000000000000000000000000000000 DUP2 MSTORE PUSH1 0x4 ADD PUSH2 0x21B0 SWAP1 PUSH2 0x4EFA JUMP JUMPDEST PUSH1 0x40 MLOAD DUP1 SWAP2 SUB SWAP1 REVERT JUMPDEST PUSH2 0x21C4 DUP5 DUP5 NUMBER PUSH2 0x12A9 JUMP JUMPDEST SWAP2 POP POP SWAP3 SWAP2 POP POP JUMP JUMPDEST PUSH1 0x3 PUSH1 0x2 SWAP1 SLOAD SWAP1 PUSH2 0x100 EXP SWAP1 DIV PUSH20 0xFFFFFFFFFFFFFFFFFFFFFFFFFFFFFFFFFFFFFFFF AND DUP2 JUMP JUMPDEST PUSH1 0x3 PUSH1 0x1 SWAP1 SLOAD SWAP1 PUSH2 0x100 EXP SWAP1 DIV PUSH1 0xFF AND DUP2 JUMP JUMPDEST PUSH1 0x40 MLOAD DUP1 PUSH1 0x40 ADD PUSH1 0x40 MSTORE DUP1 PUSH1 0x5 DUP2 MSTORE PUSH1 0x20 ADD PUSH32 0x352E302E30000000000000000000000000000000000000000000000000000000 DUP2 MSTORE POP DUP2 JUMP JUMPDEST PUSH1 0x0 PUSH1 0x5 DUP1 SLOAD SWAP1 POP SWAP1 POP SWAP1 JUMP JUMPDEST PUSH32 0x589D473BA17C0F47D494622893831497BAD25919B9AFB8E33E9521B8963FCCDE PUSH2 0x2276 DUP2 PUSH2 0x346F JUMP JUMPDEST PUSH1 0x0 PUSH1 0x5 DUP1 SLOAD SWAP1 POP GT ISZERO PUSH2 0x233E JUMPI PUSH1 0x0 PUSH20 0xFFFFFFFFFFFFFFFFFFFFFFFFFFFFFFFFFFFFFFFF AND PUSH1 0x5 PUSH1 0x0 DUP2 SLOAD DUP2 LT PUSH2 0x22B1 JUMPI PUSH2 0x22B0 PUSH2 0x4F86 JUMP JUMPDEST JUMPDEST SWAP1 PUSH1 0x0 MSTORE PUSH1 0x20 PUSH1 0x0 KECCAK256 SWAP1 PUSH1 0x7 MUL ADD PUSH1 0x0 ADD PUSH1 0x0 SWAP1 SLOAD SWAP1 PUSH2 0x100 EXP SWAP1 DIV PUSH20 0xFFFFFFFFFFFFFFFFFFFFFFFFFFFFFFFFFFFFFFFF AND PUSH20 0xFFFFFFFFFFFFFFFFFFFFFFFFFFFFFFFFFFFFFFFF AND EQ PUSH2 0x2339 JUMPI PUSH1 0x40 MLOAD PUSH32 0x8C379A000000000000000000000000000000000000000000000000000000000 DUP2 MSTORE PUSH1 0x4 ADD PUSH2 0x2330 SWAP1 PUSH2 0x5731 JUMP JUMPDEST PUSH1 0x40 MLOAD DUP1 SWAP2 SUB SWAP1 REVERT JUMPDEST PUSH2 0x23AE JUMP JUMPDEST PUSH1 0x0 PUSH20 0xFFFFFFFFFFFFFFFFFFFFFFFFFFFFFFFFFFFFFFFF AND DUP7 PUSH20 0xFFFFFFFFFFFFFFFFFFFFFFFFFFFFFFFFFFFFFFFF AND EQ PUSH2 0x23AD JUMPI PUSH1 0x40 MLOAD PUSH32 0x8C379A000000000000000000000000000000000000000000000000000000000 DUP2 MSTORE PUSH1 0x4 ADD PUSH2 0x23A4 SWAP1 PUSH2 0x5731 JUMP JUMPDEST PUSH1 0x40 MLOAD DUP1 SWAP2 SUB SWAP1 REVERT JUMPDEST JUMPDEST PUSH1 0x0 DUP4 GT PUSH2 0x23F1 JUMPI PUSH1 0x40 MLOAD PUSH32 0x8C379A000000000000000000000000000000000000000000000000000000000 DUP2 MSTORE PUSH1 0x4 ADD PUSH2 0x23E8 SWAP1 PUSH2 0x579D JUMP JUMPDEST PUSH1 0x40 MLOAD DUP1 SWAP2 SUB SWAP1 REVERT JUMPDEST PUSH1 0x1 SLOAD NUMBER LT PUSH2 0x2435 JUMPI PUSH1 0x40 MLOAD PUSH32 0x8C379A000000000000000000000000000000000000000000000000000000000 DUP2 MSTORE PUSH1 0x4 ADD PUSH2 0x242C SWAP1 PUSH2 0x5809 JUMP JUMPDEST PUSH1 0x40 MLOAD DUP1 SWAP2 SUB SWAP1 REVERT JUMPDEST DUP2 ISZERO PUSH2 0x2444 JUMPI PUSH2 0x2443 PUSH2 0x1AD4 JUMP JUMPDEST JUMPDEST PUSH1 0x0 DUP1 SLOAD NUMBER GT PUSH2 0x2456 JUMPI PUSH1 0x0 SLOAD PUSH2 0x2458 JUMP JUMPDEST NUMBER JUMPDEST SWAP1 POP DUP6 PUSH1 0x4 PUSH1 0x0 DUP3 DUP3 SLOAD PUSH2 0x246C SWAP2 SWAP1 PUSH2 0x4FE4 JUMP JUMPDEST SWAP3 POP POP DUP2 SWAP1 SSTORE POP PUSH1 0x5 PUSH1 0x40 MLOAD DUP1 PUSH1 0xE0 ADD PUSH1 0x40 MSTORE DUP1 DUP10 PUSH20 0xFFFFFFFFFFFFFFFFFFFFFFFFFFFFFFFFFFFFFFFF AND DUP2 MSTORE PUSH1 0x20 ADD DUP9 DUP2 MSTORE PUSH1 0x20 ADD DUP4 DUP2 MSTORE PUSH1 0x20 ADD PUSH1 0x0 DUP2 MSTORE PUSH1 0x20 ADD PUSH1 0x0 DUP2 MSTORE PUSH1 0x20 ADD DUP8 DUP2 MSTORE PUSH1 0x20 ADD DUP7 DUP2 MSTORE POP SWAP1 DUP1 PUSH1 0x1 DUP2 SLOAD ADD DUP1 DUP3 SSTORE DUP1 SWAP2 POP POP PUSH1 0x1 SWAP1 SUB SWAP1 PUSH1 0x0 MSTORE PUSH1 0x20 PUSH1 0x0 KECCAK256 SWAP1 PUSH1 0x7 MUL ADD PUSH1 0x0 SWAP1 SWAP2 SWAP1 SWAP2 SWAP1 SWAP2 POP PUSH1 0x0 DUP3 ADD MLOAD DUP2 PUSH1 0x0 ADD PUSH1 0x0 PUSH2 0x100 EXP DUP2 SLOAD DUP2 PUSH20 0xFFFFFFFFFFFFFFFFFFFFFFFFFFFFFFFFFFFFFFFF MUL NOT AND SWAP1 DUP4 PUSH20 0xFFFFFFFFFFFFFFFFFFFFFFFFFFFFFFFFFFFFFFFF AND MUL OR SWAP1 SSTORE POP PUSH1 0x20 DUP3 ADD MLOAD DUP2 PUSH1 0x1 ADD SSTORE PUSH1 0x40 DUP3 ADD MLOAD DUP2 PUSH1 0x2 ADD SSTORE PUSH1 0x60 DUP3 ADD MLOAD DUP2 PUSH1 0x3 ADD SSTORE PUSH1 0x80 DUP3 ADD MLOAD DUP2 PUSH1 0x4 ADD SSTORE PUSH1 0xA0 DUP3 ADD MLOAD DUP2 PUSH1 0x5 ADD SSTORE PUSH1 0xC0 DUP3 ADD MLOAD DUP2 PUSH1 0x6 ADD SSTORE POP POP DUP1 DUP7 DUP9 PUSH20 0xFFFFFFFFFFFFFFFFFFFFFFFFFFFFFFFFFFFFFFFF AND PUSH32 0xFA296FCE13E7A0E622B3A892E66220C248337289483A3CFA4130CDE0CAA1346 DUP9 DUP9 PUSH1 0x40 MLOAD PUSH2 0x25B8 SWAP3 SWAP2 SWAP1 PUSH2 0x4E85 JUMP JUMPDEST PUSH1 0x40 MLOAD DUP1 SWAP2 SUB SWAP1 LOG4 POP POP POP POP POP POP POP JUMP JUMPDEST PUSH32 0xF47FC0C09EBBFE308D89B8035681A1164B9882BCFD49EB89861067738A30F5AB DUP2 JUMP JUMPDEST PUSH32 0x589D473BA17C0F47D494622893831497BAD25919B9AFB8E33E9521B8963FCCDE PUSH2 0x2617 DUP2 PUSH2 0x346F JUMP JUMPDEST PUSH1 0x0 DUP3 GT PUSH2 0x265A JUMPI PUSH1 0x40 MLOAD PUSH32 0x8C379A000000000000000000000000000000000000000000000000000000000 DUP2 MSTORE PUSH1 0x4 ADD PUSH2 0x2651 SWAP1 PUSH2 0x52D5 JUMP JUMPDEST PUSH1 0x40 MLOAD DUP1 SWAP2 SUB SWAP1 REVERT JUMPDEST DUP2 PUSH1 0x2 DUP2 SWAP1 SSTORE POP DUP2 PUSH32 0x4C70925B625536DD633F6BD2D615C67FDDC2E7C63C31164047A981A0DF3FEE54 PUSH1 0x40 MLOAD PUSH1 0x40 MLOAD DUP1 SWAP2 SUB SWAP1 LOG2 POP POP JUMP JUMPDEST PUSH1 0x0 DUP2 JUMP JUMPDEST PUSH32 0x589D473BA17C0F47D494622893831497BAD25919B9AFB8E33E9521B8963FCCDE PUSH2 0x26C1 DUP2 PUSH2 0x346F JUMP JUMPDEST PUSH1 0x3 PUSH1 0x0 SWAP1 SLOAD SWAP1 PUSH2 0x100 EXP SWAP1 DIV PUSH1 0xFF AND ISZERO PUSH2 0x2711 JUMPI PUSH1 0x40 MLOAD PUSH32 0x8C379A000000000000000000000000000000000000000000000000000000000 DUP2 MSTORE PUSH1 0x4 ADD PUSH2 0x2708 SWAP1 PUSH2 0x5875 JUMP JUMPDEST PUSH1 0x40 MLOAD DUP1 SWAP2 SUB SWAP1 REVERT JUMPDEST PUSH1 0x0 PUSH1 0x3 PUSH1 0x0 PUSH2 0x100 EXP DUP2 SLOAD DUP2 PUSH1 0xFF MUL NOT AND SWAP1 DUP4 ISZERO ISZERO MUL OR SWAP1 SSTORE POP PUSH32 0x27C975733BACECA09666FAE356A901E083676848AAF9710150079385DAAE743 PUSH1 0x40 MLOAD PUSH1 0x40 MLOAD DUP1 SWAP2 SUB SWAP1 LOG1 POP JUMP JUMPDEST PUSH32 0x589D473BA17C0F47D494622893831497BAD25919B9AFB8E33E9521B8963FCCDE PUSH2 0x2785 DUP2 PUSH2 0x346F JUMP JUMPDEST DUP2 PUSH1 0x0 SLOAD GT ISZERO PUSH2 0x27CA JUMPI PUSH1 0x40 MLOAD PUSH32 0x8C379A000000000000000000000000000000000000000000000000000000000 DUP2 MSTORE PUSH1 0x4 ADD PUSH2 0x27C1 SWAP1 PUSH2 0x5243 JUMP JUMPDEST PUSH1 0x40 MLOAD DUP1 SWAP2 SUB SWAP1 REVERT JUMPDEST DUP2 PUSH1 0x1 DUP2 SWAP1 SSTORE POP DUP2 PUSH32 0x1132C5BACCB51DA3D049FABC819697DC845FA224AD59D9B555507D6446B40850 PUSH1 0x40 MLOAD PUSH1 0x40 MLOAD DUP1 SWAP2 SUB SWAP1 LOG2 POP POP JUMP JUMPDEST PUSH2 0x280B DUP3 PUSH2 0xBE6 JUMP JUMPDEST PUSH2 0x2814 DUP2 PUSH2 0x346F JUMP JUMPDEST PUSH2 0x281E DUP4 DUP4 PUSH2 0x358C JUMP JUMPDEST POP POP POP POP JUMP JUMPDEST DUP3 PUSH1 0x5 DUP1 SLOAD SWAP1 POP DUP2 LT PUSH2 0x286C JUMPI PUSH1 0x40 MLOAD PUSH32 0x8C379A000000000000000000000000000000000000000000000000000000000 DUP2 MSTORE PUSH1 0x4 ADD PUSH2 0x2863 SWAP1 PUSH2 0x4EFA JUMP JUMPDEST PUSH1 0x40 MLOAD DUP1 SWAP2 SUB SWAP1 REVERT JUMPDEST PUSH32 0x589D473BA17C0F47D494622893831497BAD25919B9AFB8E33E9521B8963FCCDE PUSH2 0x2896 DUP2 PUSH2 0x346F JUMP JUMPDEST PUSH1 0x5 DUP1 SLOAD SWAP1 POP DUP6 LT PUSH2 0x28DD JUMPI PUSH1 0x40 MLOAD PUSH32 0x8C379A000000000000000000000000000000000000000000000000000000000 DUP2 MSTORE PUSH1 0x4 ADD PUSH2 0x28D4 SWAP1 PUSH2 0x58E1 JUMP JUMPDEST PUSH1 0x40 MLOAD DUP1 SWAP2 SUB SWAP1 REVERT JUMPDEST DUP4 PUSH1 0x5 DUP7 DUP2 SLOAD DUP2 LT PUSH2 0x28F2 JUMPI PUSH2 0x28F1 PUSH2 0x4F86 JUMP JUMPDEST JUMPDEST SWAP1 PUSH1 0x0 MSTORE PUSH1 0x20 PUSH1 0x0 KECCAK256 SWAP1 PUSH1 0x7 MUL ADD PUSH1 0x5 ADD DUP2 SWAP1 SSTORE POP DUP3 PUSH1 0x5 DUP7 DUP2 SLOAD DUP2 LT PUSH2 0x291C JUMPI PUSH2 0x291B PUSH2 0x4F86 JUMP JUMPDEST JUMPDEST SWAP1 PUSH1 0x0 MSTORE PUSH1 0x20 PUSH1 0x0 KECCAK256 SWAP1 PUSH1 0x7 MUL ADD PUSH1 0x6 ADD DUP2 SWAP1 SSTORE POP DUP3 DUP5 DUP7 PUSH32 0x30DFFDEDAA3E3B4849298233F7CD71D229956E875AB09270498C96B7CF9181FD PUSH1 0x40 MLOAD PUSH1 0x40 MLOAD DUP1 SWAP2 SUB SWAP1 LOG4 POP POP POP POP POP JUMP JUMPDEST PUSH32 0x589D473BA17C0F47D494622893831497BAD25919B9AFB8E33E9521B8963FCCDE PUSH2 0x2991 DUP2 PUSH2 0x346F JUMP JUMPDEST PUSH1 0x3 PUSH1 0x1 SWAP1 SLOAD SWAP1 PUSH2 0x100 EXP SWAP1 DIV PUSH1 0xFF AND PUSH2 0x29E0 JUMPI PUSH1 0x40 MLOAD PUSH32 0x8C379A000000000000000000000000000000000000000000000000000000000 DUP2 MSTORE PUSH1 0x4 ADD PUSH2 0x29D7 SWAP1 PUSH2 0x5581 JUMP JUMPDEST PUSH1 0x40 MLOAD DUP1 SWAP2 SUB SWAP1 REVERT JUMPDEST PUSH1 0x0 PUSH1 0x3 PUSH1 0x1 PUSH2 0x100 EXP DUP2 SLOAD DUP2 PUSH1 0xFF MUL NOT AND SWAP1 DUP4 ISZERO ISZERO MUL OR SWAP1 SSTORE POP PUSH32 0x7C8FAF23A72A53EB5C2C466DC81386A58B2A27D0CC3C7C580A3C12E372BA313 PUSH1 0x40 MLOAD PUSH1 0x40 MLOAD DUP1 SWAP2 SUB SWAP1 LOG1 POP JUMP JUMPDEST PUSH1 0x3 PUSH1 0x0 SWAP1 SLOAD SWAP1 PUSH2 0x100 EXP SWAP1 DIV PUSH1 0xFF AND ISZERO PUSH2 0x2A7A JUMPI PUSH1 0x40 MLOAD PUSH32 0x8C379A000000000000000000000000000000000000000000000000000000000 DUP2 MSTORE PUSH1 0x4 ADD PUSH2 0x2A71 SWAP1 PUSH2 0x4F66 JUMP JUMPDEST PUSH1 0x40 MLOAD DUP1 SWAP2 SUB SWAP1 REVERT JUMPDEST DUP2 PUSH1 0x5 DUP1 SLOAD SWAP1 POP DUP2 LT PUSH2 0x2AC2 JUMPI PUSH1 0x40 MLOAD PUSH32 0x8C379A000000000000000000000000000000000000000000000000000000000 DUP2 MSTORE PUSH1 0x4 ADD PUSH2 0x2AB9 SWAP1 PUSH2 0x4EFA JUMP JUMPDEST PUSH1 0x40 MLOAD DUP1 SWAP2 SUB SWAP1 REVERT JUMPDEST PUSH1 0x0 DUP4 SUB PUSH2 0x2B05 JUMPI PUSH1 0x40 MLOAD PUSH32 0x8C379A000000000000000000000000000000000000000000000000000000000 DUP2 MSTORE PUSH1 0x4 ADD PUSH2 0x2AFC SWAP1 PUSH2 0x594D JUMP JUMPDEST PUSH1 0x40 MLOAD DUP1 SWAP2 SUB SWAP1 REVERT JUMPDEST PUSH1 0x0 PUSH1 0x5 DUP5 DUP2 SLOAD DUP2 LT PUSH2 0x2B1B JUMPI PUSH2 0x2B1A PUSH2 0x4F86 JUMP JUMPDEST JUMPDEST SWAP1 PUSH1 0x0 MSTORE PUSH1 0x20 PUSH1 0x0 KECCAK256 SWAP1 PUSH1 0x7 MUL ADD SWAP1 POP DUP1 PUSH1 0x5 ADD SLOAD DUP4 GT PUSH2 0x2B71 JUMPI PUSH1 0x40 MLOAD PUSH32 0x8C379A000000000000000000000000000000000000000000000000000000000 DUP2 MSTORE PUSH1 0x4 ADD PUSH2 0x2B68 SWAP1 PUSH2 0x59B9 JUMP JUMPDEST PUSH1 0x40 MLOAD DUP1 SWAP2 SUB SWAP1 REVERT JUMPDEST PUSH1 0x0 DUP4 GT ISZERO PUSH2 0x2BCC JUMPI PUSH2 0x2BCB CALLER ADDRESS DUP6 DUP5 PUSH1 0x0 ADD PUSH1 0x0 SWAP1 SLOAD SWAP1 PUSH2 0x100 EXP SWAP1 DIV PUSH20 0xFFFFFFFFFFFFFFFFFFFFFFFFFFFFFFFFFFFFFFFF AND PUSH20 0xFFFFFFFFFFFFFFFFFFFFFFFFFFFFFFFFFFFFFFFF AND PUSH2 0x3C92 SWAP1 SWAP4 SWAP3 SWAP2 SWAP1 PUSH4 0xFFFFFFFF AND JUMP JUMPDEST JUMPDEST PUSH2 0x2BD6 DUP5 DUP5 PUSH2 0x3D14 JUMP JUMPDEST POP POP POP POP JUMP JUMPDEST PUSH32 0x589D473BA17C0F47D494622893831497BAD25919B9AFB8E33E9521B8963FCCDE PUSH2 0x2C06 DUP2 PUSH2 0x346F JUMP JUMPDEST PUSH1 0x1 SLOAD DUP3 GT ISZERO PUSH2 0x2C4B JUMPI PUSH1 0x40 MLOAD PUSH32 0x8C379A000000000000000000000000000000000000000000000000000000000 DUP2 MSTORE PUSH1 0x4 ADD PUSH2 0x2C42 SWAP1 PUSH2 0x5243 JUMP JUMPDEST PUSH1 0x40 MLOAD DUP1 SWAP2 SUB SWAP1 REVERT JUMPDEST DUP2 PUSH1 0x0 DUP2 SWAP1 SSTORE POP DUP2 PUSH32 0x63B90B79F11A0F132BCB2C4A4DDD44ABDA45C1308A83B2919318DF7F5F8B7BE4 PUSH1 0x40 MLOAD PUSH1 0x40 MLOAD DUP1 SWAP2 SUB SWAP1 LOG2 POP POP JUMP JUMPDEST PUSH32 0x589D473BA17C0F47D494622893831497BAD25919B9AFB8E33E9521B8963FCCDE PUSH2 0x2CAD DUP2 PUSH2 0x346F JUMP JUMPDEST DUP2 PUSH1 0x3 PUSH1 0x2 PUSH2 0x100 EXP DUP2 SLOAD DUP2 PUSH20 0xFFFFFFFFFFFFFFFFFFFFFFFFFFFFFFFFFFFFFFFF MUL NOT AND SWAP1 DUP4 PUSH20 0xFFFFFFFFFFFFFFFFFFFFFFFFFFFFFFFFFFFFFFFF AND MUL OR SWAP1 SSTORE POP PUSH1 0x3 PUSH1 0x2 SWAP1 SLOAD SWAP1 PUSH2 0x100 EXP SWAP1 DIV PUSH20 0xFFFFFFFFFFFFFFFFFFFFFFFFFFFFFFFFFFFFFFFF AND PUSH20 0xFFFFFFFFFFFFFFFFFFFFFFFFFFFFFFFFFFFFFFFF AND PUSH32 0x153AAE53B92218044BD5F43922617C6B253E50AC98A41B44C3ACB5625DED3488 PUSH1 0x40 MLOAD PUSH1 0x40 MLOAD DUP1 SWAP2 SUB SWAP1 LOG2 POP POP JUMP JUMPDEST PUSH2 0x2D5F PUSH2 0x329D JUMP JUMPDEST PUSH1 0x0 PUSH1 0x5 PUSH1 0x0 DUP2 SLOAD DUP2 LT PUSH2 0x2D76 JUMPI PUSH2 0x2D75 PUSH2 0x4F86 JUMP JUMPDEST JUMPDEST SWAP1 PUSH1 0x0 MSTORE PUSH1 0x20 PUSH1 0x0 KECCAK256 SWAP1 PUSH1 0x7 MUL ADD SWAP1 POP PUSH1 0x0 PUSH20 0xFFFFFFFFFFFFFFFFFFFFFFFFFFFFFFFFFFFFFFFF AND DUP2 PUSH1 0x0 ADD PUSH1 0x0 SWAP1 SLOAD SWAP1 PUSH2 0x100 EXP SWAP1 DIV PUSH20 0xFFFFFFFFFFFFFFFFFFFFFFFFFFFFFFFFFFFFFFFF AND PUSH20 0xFFFFFFFFFFFFFFFFFFFFFFFFFFFFFFFFFFFFFFFF AND EQ PUSH2 0x2E19 JUMPI PUSH1 0x40 MLOAD PUSH32 0x8C379A000000000000000000000000000000000000000000000000000000000 DUP2 MSTORE PUSH1 0x4 ADD PUSH2 0x2E10 SWAP1 PUSH2 0x5A25 JUMP JUMPDEST PUSH1 0x40 MLOAD DUP1 SWAP2 SUB SWAP1 REVERT JUMPDEST PUSH1 0x0 CALLVALUE SWAP1 POP DUP2 PUSH1 0x5 ADD SLOAD DUP2 LT ISZERO PUSH2 0x2E65 JUMPI PUSH1 0x40 MLOAD PUSH32 0x8C379A000000000000000000000000000000000000000000000000000000000 DUP2 MSTORE PUSH1 0x4 ADD PUSH2 0x2E5C SWAP1 PUSH2 0x59B9 JUMP JUMPDEST PUSH1 0x40 MLOAD DUP1 SWAP2 SUB SWAP1 REVERT JUMPDEST PUSH2 0x2E70 PUSH1 0x0 DUP3 PUSH2 0x3D14 JUMP JUMPDEST POP POP JUMP JUMPDEST PUSH32 0x589D473BA17C0F47D494622893831497BAD25919B9AFB8E33E9521B8963FCCDE PUSH2 0x2E9E DUP2 PUSH2 0x346F JUMP JUMPDEST PUSH1 0x5 DUP1 SLOAD SWAP1 POP DUP5 LT PUSH2 0x2EE5 JUMPI PUSH1 0x40 MLOAD PUSH32 0x8C379A000000000000000000000000000000000000000000000000000000000 DUP2 MSTORE PUSH1 0x4 ADD PUSH2 0x2EDC SWAP1 PUSH2 0x58E1 JUMP JUMPDEST PUSH1 0x40 MLOAD DUP1 SWAP2 SUB SWAP1 REVERT JUMPDEST PUSH1 0x0 DUP4 GT PUSH2 0x2F28 JUMPI PUSH1 0x40 MLOAD PUSH32 0x8C379A000000000000000000000000000000000000000000000000000000000 DUP2 MSTORE PUSH1 0x4 ADD PUSH2 0x2F1F SWAP1 PUSH2 0x5A91 JUMP JUMPDEST PUSH1 0x40 MLOAD DUP1 SWAP2 SUB SWAP1 REVERT JUMPDEST DUP2 ISZERO PUSH2 0x2F37 JUMPI PUSH2 0x2F36 PUSH2 0x1AD4 JUMP JUMPDEST JUMPDEST PUSH1 0x0 DUP1 PUSH2 0x2F4F DUP6 PUSH1 0x4 SLOAD PUSH2 0x3B8C SWAP1 SWAP2 SWAP1 PUSH4 0xFFFFFFFF AND JUMP JUMPDEST SWAP2 POP SWAP2 POP DUP2 PUSH2 0x2F93 JUMPI PUSH1 0x40 MLOAD PUSH32 0x8C379A000000000000000000000000000000000000000000000000000000000 DUP2 MSTORE PUSH1 0x4 ADD PUSH2 0x2F8A SWAP1 PUSH2 0x5AFD JUMP JUMPDEST PUSH1 0x40 MLOAD DUP1 SWAP2 SUB SWAP1 REVERT JUMPDEST PUSH1 0x5 DUP7 DUP2 SLOAD DUP2 LT PUSH2 0x2FA7 JUMPI PUSH2 0x2FA6 PUSH2 0x4F86 JUMP JUMPDEST JUMPDEST SWAP1 PUSH1 0x0 MSTORE PUSH1 0x20 PUSH1 0x0 KECCAK256 SWAP1 PUSH1 0x7 MUL ADD PUSH1 0x1 ADD SLOAD DUP2 PUSH2 0x2FC4 SWAP2 SWAP1 PUSH2 0x5060 JUMP JUMPDEST PUSH1 0x4 DUP2 SWAP1 SSTORE POP DUP5 PUSH1 0x5 DUP8 DUP2 SLOAD DUP2 LT PUSH2 0x2FDF JUMPI PUSH2 0x2FDE PUSH2 0x4F86 JUMP JUMPDEST JUMPDEST SWAP1 PUSH1 0x0 MSTORE PUSH1 0x20 PUSH1 0x0 KECCAK256 SWAP1 PUSH1 0x7 MUL ADD PUSH1 0x1 ADD DUP2 SWAP1 SSTORE POP DUP6 PUSH32 0x4B8FA3D6A87CB21D1BF4978BF60628AE358A28AC7F39DE1751A481C6DD957617 DUP7 PUSH1 0x4 SLOAD PUSH1 0x40 MLOAD PUSH2 0x3028 SWAP3 SWAP2 SWAP1 PUSH2 0x4E85 JUMP JUMPDEST PUSH1 0x40 MLOAD DUP1 SWAP2 SUB SWAP1 LOG2 POP POP POP POP POP POP JUMP JUMPDEST PUSH1 0x5 DUP2 DUP2 SLOAD DUP2 LT PUSH2 0x3048 JUMPI PUSH1 0x0 DUP1 REVERT JUMPDEST SWAP1 PUSH1 0x0 MSTORE PUSH1 0x20 PUSH1 0x0 KECCAK256 SWAP1 PUSH1 0x7 MUL ADD PUSH1 0x0 SWAP2 POP SWAP1 POP DUP1 PUSH1 0x0 ADD PUSH1 0x0 SWAP1 SLOAD SWAP1 PUSH2 0x100 EXP SWAP1 DIV PUSH20 0xFFFFFFFFFFFFFFFFFFFFFFFFFFFFFFFFFFFFFFFF AND SWAP1 DUP1 PUSH1 0x1 ADD SLOAD SWAP1 DUP1 PUSH1 0x2 ADD SLOAD SWAP1 DUP1 PUSH1 0x3 ADD SLOAD SWAP1 DUP1 PUSH1 0x4 ADD SLOAD SWAP1 DUP1 PUSH1 0x5 ADD SLOAD SWAP1 DUP1 PUSH1 0x6 ADD SLOAD SWAP1 POP DUP8 JUMP JUMPDEST PUSH1 0x0 DUP1 DUP4 PUSH1 0x5 DUP1 SLOAD SWAP1 POP DUP2 LT PUSH2 0x30F5 JUMPI PUSH1 0x40 MLOAD PUSH32 0x8C379A000000000000000000000000000000000000000000000000000000000 DUP2 MSTORE PUSH1 0x4 ADD PUSH2 0x30EC SWAP1 PUSH2 0x4EFA JUMP JUMPDEST PUSH1 0x40 MLOAD DUP1 SWAP2 SUB SWAP1 REVERT JUMPDEST PUSH1 0x0 PUSH1 0x6 PUSH1 0x0 DUP8 DUP2 MSTORE PUSH1 0x20 ADD SWAP1 DUP2 MSTORE PUSH1 0x20 ADD PUSH1 0x0 KECCAK256 PUSH1 0x0 DUP7 PUSH20 0xFFFFFFFFFFFFFFFFFFFFFFFFFFFFFFFFFFFFFFFF AND PUSH20 0xFFFFFFFFFFFFFFFFFFFFFFFFFFFFFFFFFFFFFFFF AND DUP2 MSTORE PUSH1 0x20 ADD SWAP1 DUP2 MSTORE PUSH1 0x20 ADD PUSH1 0x0 KECCAK256 SWAP1 POP PUSH1 0x0 JUMPDEST DUP2 PUSH1 0x3 ADD DUP1 SLOAD SWAP1 POP DUP2 LT ISZERO PUSH2 0x3201 JUMPI NUMBER DUP3 PUSH1 0x3 ADD DUP3 DUP2 SLOAD DUP2 LT PUSH2 0x3172 JUMPI PUSH2 0x3171 PUSH2 0x4F86 JUMP JUMPDEST JUMPDEST SWAP1 PUSH1 0x0 MSTORE PUSH1 0x20 PUSH1 0x0 KECCAK256 SWAP1 PUSH1 0x2 MUL ADD PUSH1 0x1 ADD SLOAD GT PUSH2 0x31BF JUMPI DUP2 PUSH1 0x3 ADD DUP2 DUP2 SLOAD DUP2 LT PUSH2 0x319F JUMPI PUSH2 0x319E PUSH2 0x4F86 JUMP JUMPDEST JUMPDEST SWAP1 PUSH1 0x0 MSTORE PUSH1 0x20 PUSH1 0x0 KECCAK256 SWAP1 PUSH1 0x2 MUL ADD PUSH1 0x0 ADD SLOAD DUP5 PUSH2 0x31BC SWAP2 SWAP1 PUSH2 0x4FE4 JUMP JUMPDEST SWAP4 POP JUMPDEST DUP2 PUSH1 0x3 ADD DUP2 DUP2 SLOAD DUP2 LT PUSH2 0x31D5 JUMPI PUSH2 0x31D4 PUSH2 0x4F86 JUMP JUMPDEST JUMPDEST SWAP1 PUSH1 0x0 MSTORE PUSH1 0x20 PUSH1 0x0 KECCAK256 SWAP1 PUSH1 0x2 MUL ADD PUSH1 0x0 ADD SLOAD DUP6 PUSH2 0x31F2 SWAP2 SWAP1 PUSH2 0x4FE4 JUMP JUMPDEST SWAP5 POP DUP1 DUP1 PUSH1 0x1 ADD SWAP2 POP POP PUSH2 0x314C JUMP JUMPDEST POP POP POP SWAP3 POP SWAP3 SWAP1 POP JUMP JUMPDEST PUSH1 0x0 PUSH32 0x1FFC9A700000000000000000000000000000000000000000000000000000000 PUSH28 0xFFFFFFFFFFFFFFFFFFFFFFFFFFFFFFFFFFFFFFFFFFFFFFFFFFFFFFFF NOT AND DUP3 PUSH28 0xFFFFFFFFFFFFFFFFFFFFFFFFFFFFFFFFFFFFFFFFFFFFFFFFFFFFFFFF NOT AND EQ SWAP1 POP SWAP2 SWAP1 POP JUMP JUMPDEST PUSH1 0x0 PUSH32 0x2DD7BC7DEC4DCEEDDA775E58DD541E08A116C6C53815C0BD028192F7B626800 SWAP1 POP SWAP1 JUMP JUMPDEST PUSH2 0x32A5 PUSH2 0x19EC JUMP JUMPDEST ISZERO PUSH2 0x32DC JUMPI PUSH1 0x40 MLOAD PUSH32 0xD93C066500000000000000000000000000000000000000000000000000000000 DUP2 MSTORE PUSH1 0x4 ADD PUSH1 0x40 MLOAD DUP1 SWAP2 SUB SWAP1 REVERT JUMPDEST JUMP JUMPDEST PUSH1 0x0 DUP1 DUP4 PUSH20 0xFFFFFFFFFFFFFFFFFFFFFFFFFFFFFFFFFFFFFFFF AND DUP4 PUSH1 0x40 MLOAD PUSH2 0x3305 SWAP1 PUSH2 0x5B4E JUMP JUMPDEST PUSH1 0x0 PUSH1 0x40 MLOAD DUP1 DUP4 SUB DUP2 DUP6 DUP8 GAS CALL SWAP3 POP POP POP RETURNDATASIZE DUP1 PUSH1 0x0 DUP2 EQ PUSH2 0x3342 JUMPI PUSH1 0x40 MLOAD SWAP2 POP PUSH1 0x1F NOT PUSH1 0x3F RETURNDATASIZE ADD AND DUP3 ADD PUSH1 0x40 MSTORE RETURNDATASIZE DUP3 MSTORE RETURNDATASIZE PUSH1 0x0 PUSH1 0x20 DUP5 ADD RETURNDATACOPY PUSH2 0x3347 JUMP JUMPDEST PUSH1 0x60 SWAP2 POP JUMPDEST POP SWAP2 POP SWAP2 POP DUP2 PUSH2 0x338C JUMPI PUSH1 0x40 MLOAD PUSH32 0x8C379A000000000000000000000000000000000000000000000000000000000 DUP2 MSTORE PUSH1 0x4 ADD PUSH2 0x3383 SWAP1 PUSH2 0x5BAF JUMP JUMPDEST PUSH1 0x40 MLOAD DUP1 SWAP2 SUB SWAP1 REVERT JUMPDEST PUSH1 0x0 DUP2 MLOAD GT ISZERO PUSH2 0x33EA JUMPI DUP1 DUP1 PUSH1 0x20 ADD SWAP1 MLOAD DUP2 ADD SWAP1 PUSH2 0x33AA SWAP2 SWAP1 PUSH2 0x5BE4 JUMP JUMPDEST PUSH2 0x33E9 JUMPI PUSH1 0x40 MLOAD PUSH32 0x8C379A000000000000000000000000000000000000000000000000000000000 DUP2 MSTORE PUSH1 0x4 ADD PUSH2 0x33E0 SWAP1 PUSH2 0x5C83 JUMP JUMPDEST PUSH1 0x40 MLOAD DUP1 SWAP2 SUB SWAP1 REVERT JUMPDEST JUMPDEST POP POP POP POP JUMP JUMPDEST PUSH2 0x346A DUP4 DUP5 PUSH20 0xFFFFFFFFFFFFFFFFFFFFFFFFFFFFFFFFFFFFFFFF AND PUSH4 0xA9059CBB DUP6 DUP6 PUSH1 0x40 MLOAD PUSH1 0x24 ADD PUSH2 0x3423 SWAP3 SWAP2 SWAP1 PUSH2 0x5CA3 JUMP JUMPDEST PUSH1 0x40 MLOAD PUSH1 0x20 DUP2 DUP4 SUB SUB DUP2 MSTORE SWAP1 PUSH1 0x40 MSTORE SWAP2 POP PUSH1 0xE0 SHL PUSH1 0x20 DUP3 ADD DUP1 MLOAD PUSH28 0xFFFFFFFFFFFFFFFFFFFFFFFFFFFFFFFFFFFFFFFFFFFFFFFFFFFFFFFF DUP4 DUP2 DUP4 AND OR DUP4 MSTORE POP POP POP POP PUSH2 0x40DD JUMP JUMPDEST POP POP POP JUMP JUMPDEST PUSH2 0x3480 DUP2 PUSH2 0x347B PUSH2 0x3584 JUMP JUMPDEST PUSH2 0x417F JUMP JUMPDEST POP JUMP JUMPDEST PUSH1 0x0 DUP1 PUSH2 0x348E PUSH2 0x3275 JUMP JUMPDEST SWAP1 POP PUSH2 0x349A DUP5 DUP5 PUSH2 0x1D15 JUMP JUMPDEST PUSH2 0x3578 JUMPI PUSH1 0x1 DUP2 PUSH1 0x0 ADD PUSH1 0x0 DUP7 DUP2 MSTORE PUSH1 0x20 ADD SWAP1 DUP2 MSTORE PUSH1 0x20 ADD PUSH1 0x0 KECCAK256 PUSH1 0x0 ADD PUSH1 0x0 DUP6 PUSH20 0xFFFFFFFFFFFFFFFFFFFFFFFFFFFFFFFFFFFFFFFF AND PUSH20 0xFFFFFFFFFFFFFFFFFFFFFFFFFFFFFFFFFFFFFFFF AND DUP2 MSTORE PUSH1 0x20 ADD SWAP1 DUP2 MSTORE PUSH1 0x20 ADD PUSH1 0x0 KECCAK256 PUSH1 0x0 PUSH2 0x100 EXP DUP2 SLOAD DUP2 PUSH1 0xFF MUL NOT AND SWAP1 DUP4 ISZERO ISZERO MUL OR SWAP1 SSTORE POP PUSH2 0x3514 PUSH2 0x3584 JUMP JUMPDEST PUSH20 0xFFFFFFFFFFFFFFFFFFFFFFFFFFFFFFFFFFFFFFFF AND DUP4 PUSH20 0xFFFFFFFFFFFFFFFFFFFFFFFFFFFFFFFFFFFFFFFF AND DUP6 PUSH32 0x2F8788117E7EFF1D82E926EC794901D17C78024A50270940304540A733656F0D PUSH1 0x40 MLOAD PUSH1 0x40 MLOAD DUP1 SWAP2 SUB SWAP1 LOG4 PUSH1 0x1 SWAP2 POP POP PUSH2 0x357E JUMP JUMPDEST PUSH1 0x0 SWAP2 POP POP JUMPDEST SWAP3 SWAP2 POP POP JUMP JUMPDEST PUSH1 0x0 CALLER SWAP1 POP SWAP1 JUMP JUMPDEST PUSH1 0x0 DUP1 PUSH2 0x3597 PUSH2 0x3275 JUMP JUMPDEST SWAP1 POP PUSH2 0x35A3 DUP5 DUP5 PUSH2 0x1D15 JUMP JUMPDEST ISZERO PUSH2 0x3682 JUMPI PUSH1 0x0 DUP2 PUSH1 0x0 ADD PUSH1 0x0 DUP7 DUP2 MSTORE PUSH1 0x20 ADD SWAP1 DUP2 MSTORE PUSH1 0x20 ADD PUSH1 0x0 KECCAK256 PUSH1 0x0 ADD PUSH1 0x0 DUP6 PUSH20 0xFFFFFFFFFFFFFFFFFFFFFFFFFFFFFFFFFFFFFFFF AND PUSH20 0xFFFFFFFFFFFFFFFFFFFFFFFFFFFFFFFFFFFFFFFF AND DUP2 MSTORE PUSH1 0x20 ADD SWAP1 DUP2 MSTORE PUSH1 0x20 ADD PUSH1 0x0 KECCAK256 PUSH1 0x0 PUSH2 0x100 EXP DUP2 SLOAD DUP2 PUSH1 0xFF MUL NOT AND SWAP1 DUP4 ISZERO ISZERO MUL OR SWAP1 SSTORE POP PUSH2 0x361E PUSH2 0x3584 JUMP JUMPDEST PUSH20 0xFFFFFFFFFFFFFFFFFFFFFFFFFFFFFFFFFFFFFFFF AND DUP4 PUSH20 0xFFFFFFFFFFFFFFFFFFFFFFFFFFFFFFFFFFFFFFFF AND DUP6 PUSH32 0xF6391F5C32D9C69D2A47EA670B442974B53935D1EDC7FD64EB21E047A839171B PUSH1 0x40 MLOAD PUSH1 0x40 MLOAD DUP1 SWAP2 SUB SWAP1 LOG4 PUSH1 0x1 SWAP2 POP POP PUSH2 0x3688 JUMP JUMPDEST PUSH1 0x0 SWAP2 POP POP JUMPDEST SWAP3 SWAP2 POP POP JUMP JUMPDEST PUSH1 0x0 PUSH1 0x3 PUSH1 0x2 SWAP1 SLOAD SWAP1 PUSH2 0x100 EXP SWAP1 DIV PUSH20 0xFFFFFFFFFFFFFFFFFFFFFFFFFFFFFFFFFFFFFFFF AND PUSH20 0xFFFFFFFFFFFFFFFFFFFFFFFFFFFFFFFFFFFFFFFF AND PUSH4 0x70A08231 ADDRESS PUSH1 0x40 MLOAD DUP3 PUSH4 0xFFFFFFFF AND PUSH1 0xE0 SHL DUP2 MSTORE PUSH1 0x4 ADD PUSH2 0x36EB SWAP2 SWAP1 PUSH2 0x5CCC JUMP JUMPDEST PUSH1 0x20 PUSH1 0x40 MLOAD DUP1 DUP4 SUB DUP2 DUP7 GAS STATICCALL ISZERO DUP1 ISZERO PUSH2 0x3708 JUMPI RETURNDATASIZE PUSH1 0x0 DUP1 RETURNDATACOPY RETURNDATASIZE PUSH1 0x0 REVERT JUMPDEST POP POP POP POP PUSH1 0x40 MLOAD RETURNDATASIZE PUSH1 0x1F NOT PUSH1 0x1F DUP3 ADD AND DUP3 ADD DUP1 PUSH1 0x40 MSTORE POP DUP2 ADD SWAP1 PUSH2 0x372C SWAP2 SWAP1 PUSH2 0x5CFC JUMP JUMPDEST SWAP1 POP DUP1 DUP3 GT PUSH2 0x37DB JUMPI PUSH1 0x3 PUSH1 0x2 SWAP1 SLOAD SWAP1 PUSH2 0x100 EXP SWAP1 DIV PUSH20 0xFFFFFFFFFFFFFFFFFFFFFFFFFFFFFFFFFFFFFFFF AND PUSH20 0xFFFFFFFFFFFFFFFFFFFFFFFFFFFFFFFFFFFFFFFF AND PUSH4 0xA9059CBB DUP5 DUP5 PUSH1 0x40 MLOAD DUP4 PUSH4 0xFFFFFFFF AND PUSH1 0xE0 SHL DUP2 MSTORE PUSH1 0x4 ADD PUSH2 0x3792 SWAP3 SWAP2 SWAP1 PUSH2 0x5CA3 JUMP JUMPDEST PUSH1 0x20 PUSH1 0x40 MLOAD DUP1 DUP4 SUB DUP2 PUSH1 0x0 DUP8 GAS CALL ISZERO DUP1 ISZERO PUSH2 0x37B1 JUMPI RETURNDATASIZE PUSH1 0x0 DUP1 RETURNDATACOPY RETURNDATASIZE PUSH1 0x0 REVERT JUMPDEST POP POP POP POP PUSH1 0x40 MLOAD RETURNDATASIZE PUSH1 0x1F NOT PUSH1 0x1F DUP3 ADD AND DUP3 ADD DUP1 PUSH1 0x40 MSTORE POP DUP2 ADD SWAP1 PUSH2 0x37D5 SWAP2 SWAP1 PUSH2 0x5BE4 JUMP JUMPDEST POP PUSH2 0x387D JUMP JUMPDEST PUSH1 0x3 PUSH1 0x2 SWAP1 SLOAD SWAP1 PUSH2 0x100 EXP SWAP1 DIV PUSH20 0xFFFFFFFFFFFFFFFFFFFFFFFFFFFFFFFFFFFFFFFF AND PUSH20 0xFFFFFFFFFFFFFFFFFFFFFFFFFFFFFFFFFFFFFFFF AND PUSH4 0xA9059CBB DUP5 DUP4 PUSH1 0x40 MLOAD DUP4 PUSH4 0xFFFFFFFF AND PUSH1 0xE0 SHL DUP2 MSTORE PUSH1 0x4 ADD PUSH2 0x3838 SWAP3 SWAP2 SWAP1 PUSH2 0x5CA3 JUMP JUMPDEST PUSH1 0x20 PUSH1 0x40 MLOAD DUP1 DUP4 SUB DUP2 PUSH1 0x0 DUP8 GAS CALL ISZERO DUP1 ISZERO PUSH2 0x3857 JUMPI RETURNDATASIZE PUSH1 0x0 DUP1 RETURNDATACOPY RETURNDATASIZE PUSH1 0x0 REVERT JUMPDEST POP POP POP POP PUSH1 0x40 MLOAD RETURNDATASIZE PUSH1 0x1F NOT PUSH1 0x1F DUP3 ADD AND DUP3 ADD DUP1 PUSH1 0x40 MSTORE POP DUP2 ADD SWAP1 PUSH2 0x387B SWAP2 SWAP1 PUSH2 0x5BE4 JUMP JUMPDEST POP JUMPDEST POP POP POP JUMP JUMPDEST PUSH1 0x0 PUSH32 0xF0C57E16840DF040F15088DC2F81FE391C3923BEC73E23A9662EFC9C229C6A00 SWAP1 POP SWAP1 JUMP JUMPDEST PUSH2 0x38B2 PUSH2 0x41D0 JUMP JUMPDEST JUMP JUMPDEST PUSH2 0x38BC PUSH2 0x41D0 JUMP JUMPDEST JUMP JUMPDEST PUSH2 0x38C6 PUSH2 0x41D0 JUMP JUMPDEST PUSH2 0x38CE PUSH2 0x4210 JUMP JUMPDEST JUMP JUMPDEST PUSH32 0x0 PUSH20 0xFFFFFFFFFFFFFFFFFFFFFFFFFFFFFFFFFFFFFFFF AND ADDRESS PUSH20 0xFFFFFFFFFFFFFFFFFFFFFFFFFFFFFFFFFFFFFFFF AND EQ DUP1 PUSH2 0x397D JUMPI POP PUSH32 0x0 PUSH20 0xFFFFFFFFFFFFFFFFFFFFFFFFFFFFFFFFFFFFFFFF AND PUSH2 0x3964 PUSH2 0x4244 JUMP JUMPDEST PUSH20 0xFFFFFFFFFFFFFFFFFFFFFFFFFFFFFFFFFFFFFFFF AND EQ ISZERO JUMPDEST ISZERO PUSH2 0x39B4 JUMPI PUSH1 0x40 MLOAD PUSH32 0xE07C8DBA00000000000000000000000000000000000000000000000000000000 DUP2 MSTORE PUSH1 0x4 ADD PUSH1 0x40 MLOAD DUP1 SWAP2 SUB SWAP1 REVERT JUMPDEST JUMP JUMPDEST PUSH32 0xF47FC0C09EBBFE308D89B8035681A1164B9882BCFD49EB89861067738A30F5AB PUSH2 0x39E0 DUP2 PUSH2 0x346F JUMP JUMPDEST POP POP JUMP JUMPDEST DUP2 PUSH20 0xFFFFFFFFFFFFFFFFFFFFFFFFFFFFFFFFFFFFFFFF AND PUSH4 0x52D1902D PUSH1 0x40 MLOAD DUP2 PUSH4 0xFFFFFFFF AND PUSH1 0xE0 SHL DUP2 MSTORE PUSH1 0x4 ADD PUSH1 0x20 PUSH1 0x40 MLOAD DUP1 DUP4 SUB DUP2 DUP7 GAS STATICCALL SWAP3 POP POP POP DUP1 ISZERO PUSH2 0x3A4C JUMPI POP PUSH1 0x40 MLOAD RETURNDATASIZE PUSH1 0x1F NOT PUSH1 0x1F DUP3 ADD AND DUP3 ADD DUP1 PUSH1 0x40 MSTORE POP DUP2 ADD SWAP1 PUSH2 0x3A49 SWAP2 SWAP1 PUSH2 0x5D3E JUMP JUMPDEST PUSH1 0x1 JUMPDEST PUSH2 0x3A8D JUMPI DUP2 PUSH1 0x40 MLOAD PUSH32 0x4C9C8CE300000000000000000000000000000000000000000000000000000000 DUP2 MSTORE PUSH1 0x4 ADD PUSH2 0x3A84 SWAP2 SWAP1 PUSH2 0x5CCC JUMP JUMPDEST PUSH1 0x40 MLOAD DUP1 SWAP2 SUB SWAP1 REVERT JUMPDEST PUSH32 0x360894A13BA1A3210667C828492DB98DCA3E2076CC3735A920A3CA505D382BBC PUSH1 0x0 SHL DUP2 EQ PUSH2 0x3AF4 JUMPI DUP1 PUSH1 0x40 MLOAD PUSH32 0xAA1D49A400000000000000000000000000000000000000000000000000000000 DUP2 MSTORE PUSH1 0x4 ADD PUSH2 0x3AEB SWAP2 SWAP1 PUSH2 0x47D9 JUMP JUMPDEST PUSH1 0x40 MLOAD DUP1 SWAP2 SUB SWAP1 REVERT JUMPDEST PUSH2 0x3AFE DUP4 DUP4 PUSH2 0x429B JUMP JUMPDEST POP POP POP JUMP JUMPDEST PUSH1 0x0 DUP1 PUSH1 0x0 DUP5 SUB PUSH2 0x3B1B JUMPI PUSH1 0x1 PUSH1 0x0 SWAP2 POP SWAP2 POP PUSH2 0x3B4F JUMP JUMPDEST PUSH1 0x0 DUP4 DUP6 MUL SWAP1 POP DUP4 DUP6 DUP3 DUP2 PUSH2 0x3B33 JUMPI PUSH2 0x3B32 PUSH2 0x5171 JUMP JUMPDEST JUMPDEST DIV EQ PUSH2 0x3B46 JUMPI PUSH1 0x0 DUP1 SWAP3 POP SWAP3 POP POP PUSH2 0x3B4F JUMP JUMPDEST PUSH1 0x1 DUP2 SWAP3 POP SWAP3 POP POP JUMPDEST SWAP3 POP SWAP3 SWAP1 POP JUMP JUMPDEST PUSH1 0x0 DUP1 PUSH1 0x0 DUP4 SUB PUSH2 0x3B6D JUMPI PUSH1 0x0 DUP1 SWAP2 POP SWAP2 POP PUSH2 0x3B85 JUMP JUMPDEST PUSH1 0x1 DUP4 DUP6 DUP2 PUSH2 0x3B7F JUMPI PUSH2 0x3B7E PUSH2 0x5171 JUMP JUMPDEST JUMPDEST DIV SWAP2 POP SWAP2 POP JUMPDEST SWAP3 POP SWAP3 SWAP1 POP JUMP JUMPDEST PUSH1 0x0 DUP1 PUSH1 0x0 DUP4 DUP6 ADD SWAP1 POP DUP5 DUP2 LT ISZERO PUSH2 0x3BAB JUMPI PUSH1 0x0 DUP1 SWAP3 POP SWAP3 POP POP PUSH2 0x3BB4 JUMP JUMPDEST PUSH1 0x1 DUP2 SWAP3 POP SWAP3 POP POP JUMPDEST SWAP3 POP SWAP3 SWAP1 POP JUMP JUMPDEST PUSH32 0x0 PUSH20 0xFFFFFFFFFFFFFFFFFFFFFFFFFFFFFFFFFFFFFFFF AND ADDRESS PUSH20 0xFFFFFFFFFFFFFFFFFFFFFFFFFFFFFFFFFFFFFFFF AND EQ PUSH2 0x3C40 JUMPI PUSH1 0x40 MLOAD PUSH32 0xE07C8DBA00000000000000000000000000000000000000000000000000000000 DUP2 MSTORE PUSH1 0x4 ADD PUSH1 0x40 MLOAD DUP1 SWAP2 SUB SWAP1 REVERT JUMPDEST JUMP JUMPDEST PUSH1 0x0 PUSH32 0xCD5ED15C6E187E77E9AEE88184C21F4F2182AB5827CB3B7E07FBEDCD63F03300 SWAP1 POP SWAP1 JUMP JUMPDEST PUSH1 0x0 DUP1 DUP4 DUP4 GT ISZERO PUSH2 0x3C81 JUMPI PUSH1 0x0 DUP1 SWAP2 POP SWAP2 POP PUSH2 0x3C8B JUMP JUMPDEST PUSH1 0x1 DUP4 DUP6 SUB SWAP2 POP SWAP2 POP JUMPDEST SWAP3 POP SWAP3 SWAP1 POP JUMP JUMPDEST PUSH2 0x3D0E DUP5 DUP6 PUSH20 0xFFFFFFFFFFFFFFFFFFFFFFFFFFFFFFFFFFFFFFFF AND PUSH4 0x23B872DD DUP7 DUP7 DUP7 PUSH1 0x40 MLOAD PUSH1 0x24 ADD PUSH2 0x3CC7 SWAP4 SWAP3 SWAP2 SWAP1 PUSH2 0x5D6B JUMP JUMPDEST PUSH1 0x40 MLOAD PUSH1 0x20 DUP2 DUP4 SUB SUB DUP2 MSTORE SWAP1 PUSH1 0x40 MSTORE SWAP2 POP PUSH1 0xE0 SHL PUSH1 0x20 DUP3 ADD DUP1 MLOAD PUSH28 0xFFFFFFFFFFFFFFFFFFFFFFFFFFFFFFFFFFFFFFFFFFFFFFFFFFFFFFFF DUP4 DUP2 DUP4 AND OR DUP4 MSTORE POP POP POP POP PUSH2 0x40DD JUMP JUMPDEST POP POP POP POP JUMP JUMPDEST PUSH1 0x0 PUSH1 0x5 DUP4 DUP2 SLOAD DUP2 LT PUSH2 0x3D2A JUMPI PUSH2 0x3D29 PUSH2 0x4F86 JUMP JUMPDEST JUMPDEST SWAP1 PUSH1 0x0 MSTORE PUSH1 0x20 PUSH1 0x0 KECCAK256 SWAP1 PUSH1 0x7 MUL ADD SWAP1 POP PUSH1 0x0 PUSH1 0x6 PUSH1 0x0 DUP6 DUP2 MSTORE PUSH1 0x20 ADD SWAP1 DUP2 MSTORE PUSH1 0x20 ADD PUSH1 0x0 KECCAK256 PUSH1 0x0 CALLER PUSH20 0xFFFFFFFFFFFFFFFFFFFFFFFFFFFFFFFFFFFFFFFF AND PUSH20 0xFFFFFFFFFFFFFFFFFFFFFFFFFFFFFFFFFFFFFFFF AND DUP2 MSTORE PUSH1 0x20 ADD SWAP1 DUP2 MSTORE PUSH1 0x20 ADD PUSH1 0x0 KECCAK256 SWAP1 POP PUSH2 0x3D97 DUP5 PUSH2 0x16CD JUMP JUMPDEST PUSH1 0x0 DUP2 PUSH1 0x0 ADD SLOAD GT ISZERO PUSH2 0x3F3F JUMPI PUSH1 0x0 DUP1 PUSH2 0x3DC2 DUP5 PUSH1 0x3 ADD SLOAD DUP5 PUSH1 0x0 ADD SLOAD PUSH2 0x3B03 SWAP1 SWAP2 SWAP1 PUSH4 0xFFFFFFFF AND JUMP JUMPDEST SWAP2 POP SWAP2 POP DUP2 PUSH2 0x3E06 JUMPI PUSH1 0x40 MLOAD PUSH32 0x8C379A000000000000000000000000000000000000000000000000000000000 DUP2 MSTORE PUSH1 0x4 ADD PUSH2 0x3DFD SWAP1 PUSH2 0x5DEE JUMP JUMPDEST PUSH1 0x40 MLOAD DUP1 SWAP2 SUB SWAP1 REVERT JUMPDEST PUSH2 0x3E21 PUSH8 0xDE0B6B3A7640000 DUP3 PUSH2 0x3B56 SWAP1 SWAP2 SWAP1 PUSH4 0xFFFFFFFF AND JUMP JUMPDEST DUP1 SWAP3 POP DUP2 SWAP4 POP POP POP DUP2 PUSH2 0x3E69 JUMPI PUSH1 0x40 MLOAD PUSH32 0x8C379A000000000000000000000000000000000000000000000000000000000 DUP2 MSTORE PUSH1 0x4 ADD PUSH2 0x3E60 SWAP1 PUSH2 0x5E80 JUMP JUMPDEST PUSH1 0x40 MLOAD DUP1 SWAP2 SUB SWAP1 REVERT JUMPDEST PUSH1 0x0 DUP1 PUSH2 0x3E83 DUP6 PUSH1 0x1 ADD SLOAD DUP5 PUSH2 0x3C6A SWAP1 SWAP2 SWAP1 PUSH4 0xFFFFFFFF AND JUMP JUMPDEST SWAP2 POP SWAP2 POP DUP2 PUSH2 0x3EC7 JUMPI PUSH1 0x40 MLOAD PUSH32 0x8C379A000000000000000000000000000000000000000000000000000000000 DUP2 MSTORE PUSH1 0x4 ADD PUSH2 0x3EBE SWAP1 PUSH2 0x5EEC JUMP JUMPDEST PUSH1 0x40 MLOAD DUP1 SWAP2 SUB SWAP1 REVERT JUMPDEST PUSH1 0x0 DUP2 GT ISZERO PUSH2 0x3F3A JUMPI PUSH1 0x0 DUP1 PUSH2 0x3EEA DUP4 DUP9 PUSH1 0x2 ADD SLOAD PUSH2 0x3B8C SWAP1 SWAP2 SWAP1 PUSH4 0xFFFFFFFF AND JUMP JUMPDEST SWAP2 POP SWAP2 POP DUP2 PUSH2 0x3F2E JUMPI PUSH1 0x40 MLOAD PUSH32 0x8C379A000000000000000000000000000000000000000000000000000000000 DUP2 MSTORE PUSH1 0x4 ADD PUSH2 0x3F25 SWAP1 PUSH2 0x5EEC JUMP JUMPDEST PUSH1 0x40 MLOAD DUP1 SWAP2 SUB SWAP1 REVERT JUMPDEST DUP1 DUP8 PUSH1 0x2 ADD DUP2 SWAP1 SSTORE POP POP POP JUMPDEST POP POP POP POP JUMPDEST PUSH1 0x0 DUP4 GT ISZERO PUSH2 0x3FB2 JUMPI PUSH1 0x0 DUP1 PUSH2 0x3F62 DUP4 PUSH1 0x0 ADD SLOAD DUP7 PUSH2 0x3B8C SWAP1 SWAP2 SWAP1 PUSH4 0xFFFFFFFF AND JUMP JUMPDEST SWAP2 POP SWAP2 POP DUP2 PUSH2 0x3FA6 JUMPI PUSH1 0x40 MLOAD PUSH32 0x8C379A000000000000000000000000000000000000000000000000000000000 DUP2 MSTORE PUSH1 0x4 ADD PUSH2 0x3F9D SWAP1 PUSH2 0x5F58 JUMP JUMPDEST PUSH1 0x40 MLOAD DUP1 SWAP2 SUB SWAP1 REVERT JUMPDEST DUP1 DUP4 PUSH1 0x0 ADD DUP2 SWAP1 SSTORE POP POP POP JUMPDEST PUSH1 0x0 DUP1 PUSH2 0x3FCC DUP6 DUP6 PUSH1 0x4 ADD SLOAD PUSH2 0x3B8C SWAP1 SWAP2 SWAP1 PUSH4 0xFFFFFFFF AND JUMP JUMPDEST SWAP2 POP SWAP2 POP DUP2 PUSH2 0x4010 JUMPI PUSH1 0x40 MLOAD PUSH32 0x8C379A000000000000000000000000000000000000000000000000000000000 DUP2 MSTORE PUSH1 0x4 ADD PUSH2 0x4007 SWAP1 PUSH2 0x5FC4 JUMP JUMPDEST PUSH1 0x40 MLOAD DUP1 SWAP2 SUB SWAP1 REVERT JUMPDEST DUP1 DUP5 PUSH1 0x4 ADD DUP2 SWAP1 SSTORE POP PUSH1 0x0 DUP1 PUSH2 0x4037 DUP7 PUSH1 0x3 ADD SLOAD DUP7 PUSH1 0x0 ADD SLOAD PUSH2 0x3B03 SWAP1 SWAP2 SWAP1 PUSH4 0xFFFFFFFF AND JUMP JUMPDEST SWAP2 POP SWAP2 POP DUP2 PUSH2 0x407B JUMPI PUSH1 0x40 MLOAD PUSH32 0x8C379A000000000000000000000000000000000000000000000000000000000 DUP2 MSTORE PUSH1 0x4 ADD PUSH2 0x4072 SWAP1 PUSH2 0x6056 JUMP JUMPDEST PUSH1 0x40 MLOAD DUP1 SWAP2 SUB SWAP1 REVERT JUMPDEST DUP1 DUP6 PUSH1 0x1 ADD DUP2 SWAP1 SSTORE POP DUP8 CALLER PUSH20 0xFFFFFFFFFFFFFFFFFFFFFFFFFFFFFFFFFFFFFFFF AND PUSH32 0x90890809C654F11D6E72A28FA60149770A0D11EC6C92319D6CEB2BB0A4EA1A15 DUP10 PUSH1 0x40 MLOAD PUSH2 0x40CB SWAP2 SWAP1 PUSH2 0x4682 JUMP JUMPDEST PUSH1 0x40 MLOAD DUP1 SWAP2 SUB SWAP1 LOG3 POP POP POP POP POP POP POP POP JUMP JUMPDEST PUSH1 0x0 DUP1 PUSH1 0x20 PUSH1 0x0 DUP5 MLOAD PUSH1 0x20 DUP7 ADD PUSH1 0x0 DUP9 GAS CALL DUP1 PUSH2 0x4100 JUMPI PUSH1 0x40 MLOAD RETURNDATASIZE PUSH1 0x0 DUP3 RETURNDATACOPY RETURNDATASIZE DUP2 REVERT JUMPDEST RETURNDATASIZE SWAP3 POP PUSH1 0x0 MLOAD SWAP2 POP POP PUSH1 0x0 DUP3 EQ PUSH2 0x411B JUMPI PUSH1 0x1 DUP2 EQ ISZERO PUSH2 0x4137 JUMP JUMPDEST PUSH1 0x0 DUP5 PUSH20 0xFFFFFFFFFFFFFFFFFFFFFFFFFFFFFFFFFFFFFFFF AND EXTCODESIZE EQ JUMPDEST ISZERO PUSH2 0x4179 JUMPI DUP4 PUSH1 0x40 MLOAD PUSH32 0x5274AFE700000000000000000000000000000000000000000000000000000000 DUP2 MSTORE PUSH1 0x4 ADD PUSH2 0x4170 SWAP2 SWAP1 PUSH2 0x5CCC JUMP JUMPDEST PUSH1 0x40 MLOAD DUP1 SWAP2 SUB SWAP1 REVERT JUMPDEST POP POP POP POP JUMP JUMPDEST PUSH2 0x4189 DUP3 DUP3 PUSH2 0x1D15 JUMP JUMPDEST PUSH2 0x41CC JUMPI DUP1 DUP3 PUSH1 0x40 MLOAD PUSH32 0xE2517D3F00000000000000000000000000000000000000000000000000000000 DUP2 MSTORE PUSH1 0x4 ADD PUSH2 0x41C3 SWAP3 SWAP2 SWAP1 PUSH2 0x6076 JUMP JUMPDEST PUSH1 0x40 MLOAD DUP1 SWAP2 SUB SWAP1 REVERT JUMPDEST POP POP JUMP JUMPDEST PUSH2 0x41D8 PUSH2 0x430E JUMP JUMPDEST PUSH2 0x420E JUMPI PUSH1 0x40 MLOAD PUSH32 0xD7E6BCF800000000000000000000000000000000000000000000000000000000 DUP2 MSTORE PUSH1 0x4 ADD PUSH1 0x40 MLOAD DUP1 SWAP2 SUB SWAP1 REVERT JUMPDEST JUMP JUMPDEST PUSH2 0x4218 PUSH2 0x41D0 JUMP JUMPDEST PUSH1 0x0 PUSH2 0x4222 PUSH2 0x3C42 JUMP JUMPDEST SWAP1 POP PUSH1 0x0 DUP2 PUSH1 0x0 ADD PUSH1 0x0 PUSH2 0x100 EXP DUP2 SLOAD DUP2 PUSH1 0xFF MUL NOT AND SWAP1 DUP4 ISZERO ISZERO MUL OR SWAP1 SSTORE POP POP JUMP JUMPDEST PUSH1 0x0 PUSH2 0x4272 PUSH32 0x360894A13BA1A3210667C828492DB98DCA3E2076CC3735A920A3CA505D382BBC PUSH1 0x0 SHL PUSH2 0x432E JUMP JUMPDEST PUSH1 0x0 ADD PUSH1 0x0 SWAP1 SLOAD SWAP1 PUSH2 0x100 EXP SWAP1 DIV PUSH20 0xFFFFFFFFFFFFFFFFFFFFFFFFFFFFFFFFFFFFFFFF AND SWAP1 POP SWAP1 JUMP JUMPDEST PUSH2 0x42A4 DUP3 PUSH2 0x4338 JUMP JUMPDEST DUP2 PUSH20 0xFFFFFFFFFFFFFFFFFFFFFFFFFFFFFFFFFFFFFFFF AND PUSH32 0xBC7CD75A20EE27FD9ADEBAB32041F755214DBC6BFFA90CC0225B39DA2E5C2D3B PUSH1 0x40 MLOAD PUSH1 0x40 MLOAD DUP1 SWAP2 SUB SWAP1 LOG2 PUSH1 0x0 DUP2 MLOAD GT ISZERO PUSH2 0x4301 JUMPI PUSH2 0x42FB DUP3 DUP3 PUSH2 0x4405 JUMP JUMPDEST POP PUSH2 0x430A JUMP JUMPDEST PUSH2 0x4309 PUSH2 0x4489 JUMP JUMPDEST JUMPDEST POP POP JUMP JUMPDEST PUSH1 0x0 PUSH2 0x4318 PUSH2 0x3882 JUMP JUMPDEST PUSH1 0x0 ADD PUSH1 0x8 SWAP1 SLOAD SWAP1 PUSH2 0x100 EXP SWAP1 DIV PUSH1 0xFF AND SWAP1 POP SWAP1 JUMP JUMPDEST PUSH1 0x0 DUP2 SWAP1 POP SWAP2 SWAP1 POP JUMP JUMPDEST PUSH1 0x0 DUP2 PUSH20 0xFFFFFFFFFFFFFFFFFFFFFFFFFFFFFFFFFFFFFFFF AND EXTCODESIZE SUB PUSH2 0x4394 JUMPI DUP1 PUSH1 0x40 MLOAD PUSH32 0x4C9C8CE300000000000000000000000000000000000000000000000000000000 DUP2 MSTORE PUSH1 0x4 ADD PUSH2 0x438B SWAP2 SWAP1 PUSH2 0x5CCC JUMP JUMPDEST PUSH1 0x40 MLOAD DUP1 SWAP2 SUB SWAP1 REVERT JUMPDEST DUP1 PUSH2 0x43C1 PUSH32 0x360894A13BA1A3210667C828492DB98DCA3E2076CC3735A920A3CA505D382BBC PUSH1 0x0 SHL PUSH2 0x432E JUMP JUMPDEST PUSH1 0x0 ADD PUSH1 0x0 PUSH2 0x100 EXP DUP2 SLOAD DUP2 PUSH20 0xFFFFFFFFFFFFFFFFFFFFFFFFFFFFFFFFFFFFFFFF MUL NOT AND SWAP1 DUP4 PUSH20 0xFFFFFFFFFFFFFFFFFFFFFFFFFFFFFFFFFFFFFFFF AND MUL OR SWAP1 SSTORE POP POP JUMP JUMPDEST PUSH1 0x60 PUSH1 0x0 DUP1 DUP5 PUSH20 0xFFFFFFFFFFFFFFFFFFFFFFFFFFFFFFFFFFFFFFFF AND DUP5 PUSH1 0x40 MLOAD PUSH2 0x442F SWAP2 SWAP1 PUSH2 0x60DB JUMP JUMPDEST PUSH1 0x0 PUSH1 0x40 MLOAD DUP1 DUP4 SUB DUP2 DUP6 GAS DELEGATECALL SWAP2 POP POP RETURNDATASIZE DUP1 PUSH1 0x0 DUP2 EQ PUSH2 0x446A JUMPI PUSH1 0x40 MLOAD SWAP2 POP PUSH1 0x1F NOT PUSH1 0x3F RETURNDATASIZE ADD AND DUP3 ADD PUSH1 0x40 MSTORE RETURNDATASIZE DUP3 MSTORE RETURNDATASIZE PUSH1 0x0 PUSH1 0x20 DUP5 ADD RETURNDATACOPY PUSH2 0x446F JUMP JUMPDEST PUSH1 0x60 SWAP2 POP JUMPDEST POP SWAP2 POP SWAP2 POP PUSH2 0x447F DUP6 DUP4 DUP4 PUSH2 0x44C6 JUMP JUMPDEST SWAP3 POP POP POP SWAP3 SWAP2 POP POP JUMP JUMPDEST PUSH1 0x0 CALLVALUE GT ISZERO PUSH2 0x44C4 JUMPI PUSH1 0x40 MLOAD PUSH32 0xB398979F00000000000000000000000000000000000000000000000000000000 DUP2 MSTORE PUSH1 0x4 ADD PUSH1 0x40 MLOAD DUP1 SWAP2 SUB SWAP1 REVERT JUMPDEST JUMP JUMPDEST PUSH1 0x60 DUP3 PUSH2 0x44DB JUMPI PUSH2 0x44D6 DUP3 PUSH2 0x4555 JUMP JUMPDEST PUSH2 0x454D JUMP JUMPDEST PUSH1 0x0 DUP3 MLOAD EQ DUP1 ISZERO PUSH2 0x4503 JUMPI POP PUSH1 0x0 DUP5 PUSH20 0xFFFFFFFFFFFFFFFFFFFFFFFFFFFFFFFFFFFFFFFF AND EXTCODESIZE EQ JUMPDEST ISZERO PUSH2 0x4545 JUMPI DUP4 PUSH1 0x40 MLOAD PUSH32 0x9996B31500000000000000000000000000000000000000000000000000000000 DUP2 MSTORE PUSH1 0x4 ADD PUSH2 0x453C SWAP2 SWAP1 PUSH2 0x5CCC JUMP JUMPDEST PUSH1 0x40 MLOAD DUP1 SWAP2 SUB SWAP1 REVERT JUMPDEST DUP2 SWAP1 POP PUSH2 0x454E JUMP JUMPDEST JUMPDEST SWAP4 SWAP3 POP POP POP JUMP JUMPDEST PUSH1 0x0 DUP2 MLOAD GT ISZERO PUSH2 0x4568 JUMPI DUP1 MLOAD DUP1 DUP3 PUSH1 0x20 ADD REVERT JUMPDEST PUSH1 0x40 MLOAD PUSH32 0xD6BDA27500000000000000000000000000000000000000000000000000000000 DUP2 MSTORE PUSH1 0x4 ADD PUSH1 0x40 MLOAD DUP1 SWAP2 SUB SWAP1 REVERT JUMPDEST PUSH1 0x0 PUSH1 0x40 MLOAD SWAP1 POP SWAP1 JUMP JUMPDEST PUSH1 0x0 DUP1 REVERT JUMPDEST PUSH1 0x0 DUP1 REVERT JUMPDEST PUSH1 0x0 PUSH32 0xFFFFFFFF00000000000000000000000000000000000000000000000000000000 DUP3 AND SWAP1 POP SWAP2 SWAP1 POP JUMP JUMPDEST PUSH2 0x45E3 DUP2 PUSH2 0x45AE JUMP JUMPDEST DUP2 EQ PUSH2 0x45EE JUMPI PUSH1 0x0 DUP1 REVERT JUMPDEST POP JUMP JUMPDEST PUSH1 0x0 DUP2 CALLDATALOAD SWAP1 POP PUSH2 0x4600 DUP2 PUSH2 0x45DA JUMP JUMPDEST SWAP3 SWAP2 POP POP JUMP JUMPDEST PUSH1 0x0 PUSH1 0x20 DUP3 DUP5 SUB SLT ISZERO PUSH2 0x461C JUMPI PUSH2 0x461B PUSH2 0x45A4 JUMP JUMPDEST JUMPDEST PUSH1 0x0 PUSH2 0x462A DUP5 DUP3 DUP6 ADD PUSH2 0x45F1 JUMP JUMPDEST SWAP2 POP POP SWAP3 SWAP2 POP POP JUMP JUMPDEST PUSH1 0x0 DUP2 ISZERO ISZERO SWAP1 POP SWAP2 SWAP1 POP JUMP JUMPDEST PUSH2 0x4648 DUP2 PUSH2 0x4633 JUMP JUMPDEST DUP3 MSTORE POP POP JUMP JUMPDEST PUSH1 0x0 PUSH1 0x20 DUP3 ADD SWAP1 POP PUSH2 0x4663 PUSH1 0x0 DUP4 ADD DUP5 PUSH2 0x463F JUMP JUMPDEST SWAP3 SWAP2 POP POP JUMP JUMPDEST PUSH1 0x0 DUP2 SWAP1 POP SWAP2 SWAP1 POP JUMP JUMPDEST PUSH2 0x467C DUP2 PUSH2 0x4669 JUMP JUMPDEST DUP3 MSTORE POP POP JUMP JUMPDEST PUSH1 0x0 PUSH1 0x20 DUP3 ADD SWAP1 POP PUSH2 0x4697 PUSH1 0x0 DUP4 ADD DUP5 PUSH2 0x4673 JUMP JUMPDEST SWAP3 SWAP2 POP POP JUMP JUMPDEST PUSH2 0x46A6 DUP2 PUSH2 0x4669 JUMP JUMPDEST DUP2 EQ PUSH2 0x46B1 JUMPI PUSH1 0x0 DUP1 REVERT JUMPDEST POP JUMP JUMPDEST PUSH1 0x0 DUP2 CALLDATALOAD SWAP1 POP PUSH2 0x46C3 DUP2 PUSH2 0x469D JUMP JUMPDEST SWAP3 SWAP2 POP POP JUMP JUMPDEST PUSH1 0x0 PUSH20 0xFFFFFFFFFFFFFFFFFFFFFFFFFFFFFFFFFFFFFFFF DUP3 AND SWAP1 POP SWAP2 SWAP1 POP JUMP JUMPDEST PUSH1 0x0 PUSH2 0x46F4 DUP3 PUSH2 0x46C9 JUMP JUMPDEST SWAP1 POP SWAP2 SWAP1 POP JUMP JUMPDEST PUSH2 0x4704 DUP2 PUSH2 0x46E9 JUMP JUMPDEST DUP2 EQ PUSH2 0x470F JUMPI PUSH1 0x0 DUP1 REVERT JUMPDEST POP JUMP JUMPDEST PUSH1 0x0 DUP2 CALLDATALOAD SWAP1 POP PUSH2 0x4721 DUP2 PUSH2 0x46FB JUMP JUMPDEST SWAP3 SWAP2 POP POP JUMP JUMPDEST PUSH1 0x0 DUP1 PUSH1 0x40 DUP4 DUP6 SUB SLT ISZERO PUSH2 0x473E JUMPI PUSH2 0x473D PUSH2 0x45A4 JUMP JUMPDEST JUMPDEST PUSH1 0x0 PUSH2 0x474C DUP6 DUP3 DUP7 ADD PUSH2 0x46B4 JUMP JUMPDEST SWAP3 POP POP PUSH1 0x20 PUSH2 0x475D DUP6 DUP3 DUP7 ADD PUSH2 0x4712 JUMP JUMPDEST SWAP2 POP POP SWAP3 POP SWAP3 SWAP1 POP JUMP JUMPDEST PUSH1 0x0 DUP2 SWAP1 POP SWAP2 SWAP1 POP JUMP JUMPDEST PUSH2 0x477A DUP2 PUSH2 0x4767 JUMP JUMPDEST DUP2 EQ PUSH2 0x4785 JUMPI PUSH1 0x0 DUP1 REVERT JUMPDEST POP JUMP JUMPDEST PUSH1 0x0 DUP2 CALLDATALOAD SWAP1 POP PUSH2 0x4797 DUP2 PUSH2 0x4771 JUMP JUMPDEST SWAP3 SWAP2 POP POP JUMP JUMPDEST PUSH1 0x0 PUSH1 0x20 DUP3 DUP5 SUB SLT ISZERO PUSH2 0x47B3 JUMPI PUSH2 0x47B2 PUSH2 0x45A4 JUMP JUMPDEST JUMPDEST PUSH1 0x0 PUSH2 0x47C1 DUP5 DUP3 DUP6 ADD PUSH2 0x4788 JUMP JUMPDEST SWAP2 POP POP SWAP3 SWAP2 POP POP JUMP JUMPDEST PUSH2 0x47D3 DUP2 PUSH2 0x4767 JUMP JUMPDEST DUP3 MSTORE POP POP JUMP JUMPDEST PUSH1 0x0 PUSH1 0x20 DUP3 ADD SWAP1 POP PUSH2 0x47EE PUSH1 0x0 DUP4 ADD DUP5 PUSH2 0x47CA JUMP JUMPDEST SWAP3 SWAP2 POP POP JUMP JUMPDEST PUSH1 0x0 PUSH1 0x20 DUP3 DUP5 SUB SLT ISZERO PUSH2 0x480A JUMPI PUSH2 0x4809 PUSH2 0x45A4 JUMP JUMPDEST JUMPDEST PUSH1 0x0 PUSH2 0x4818 DUP5 DUP3 DUP6 ADD PUSH2 0x46B4 JUMP JUMPDEST SWAP2 POP POP SWAP3 SWAP2 POP POP JUMP JUMPDEST PUSH1 0x0 DUP1 PUSH1 0x40 DUP4 DUP6 SUB SLT ISZERO PUSH2 0x4838 JUMPI PUSH2 0x4837 PUSH2 0x45A4 JUMP JUMPDEST JUMPDEST PUSH1 0x0 PUSH2 0x4846 DUP6 DUP3 DUP7 ADD PUSH2 0x4788 JUMP JUMPDEST SWAP3 POP POP PUSH1 0x20 PUSH2 0x4857 DUP6 DUP3 DUP7 ADD PUSH2 0x4712 JUMP JUMPDEST SWAP2 POP POP SWAP3 POP SWAP3 SWAP1 POP JUMP JUMPDEST PUSH1 0x0 PUSH1 0x60 DUP3 ADD SWAP1 POP PUSH2 0x4876 PUSH1 0x0 DUP4 ADD DUP7 PUSH2 0x4673 JUMP JUMPDEST PUSH2 0x4883 PUSH1 0x20 DUP4 ADD DUP6 PUSH2 0x4673 JUMP JUMPDEST PUSH2 0x4890 PUSH1 0x40 DUP4 ADD DUP5 PUSH2 0x4673 JUMP JUMPDEST SWAP5 SWAP4 POP POP POP POP JUMP JUMPDEST PUSH1 0x0 DUP1 PUSH1 0x0 PUSH1 0x60 DUP5 DUP7 SUB SLT ISZERO PUSH2 0x48B1 JUMPI PUSH2 0x48B0 PUSH2 0x45A4 JUMP JUMPDEST JUMPDEST PUSH1 0x0 PUSH2 0x48BF DUP7 DUP3 DUP8 ADD PUSH2 0x46B4 JUMP JUMPDEST SWAP4 POP POP PUSH1 0x20 PUSH2 0x48D0 DUP7 DUP3 DUP8 ADD PUSH2 0x4712 JUMP JUMPDEST SWAP3 POP POP PUSH1 0x40 PUSH2 0x48E1 DUP7 DUP3 DUP8 ADD PUSH2 0x46B4 JUMP JUMPDEST SWAP2 POP POP SWAP3 POP SWAP3 POP SWAP3 JUMP JUMPDEST PUSH1 0x0 PUSH2 0x48F6 DUP3 PUSH2 0x46E9 JUMP JUMPDEST SWAP1 POP SWAP2 SWAP1 POP JUMP JUMPDEST PUSH2 0x4906 DUP2 PUSH2 0x48EB JUMP JUMPDEST DUP2 EQ PUSH2 0x4911 JUMPI PUSH1 0x0 DUP1 REVERT JUMPDEST POP JUMP JUMPDEST PUSH1 0x0 DUP2 CALLDATALOAD SWAP1 POP PUSH2 0x4923 DUP2 PUSH2 0x48FD JUMP JUMPDEST SWAP3 SWAP2 POP POP JUMP JUMPDEST PUSH1 0x0 DUP1 PUSH1 0x0 DUP1 PUSH1 0x80 DUP6 DUP8 SUB SLT ISZERO PUSH2 0x4943 JUMPI PUSH2 0x4942 PUSH2 0x45A4 JUMP JUMPDEST JUMPDEST PUSH1 0x0 PUSH2 0x4951 DUP8 DUP3 DUP9 ADD PUSH2 0x4914 JUMP JUMPDEST SWAP5 POP POP PUSH1 0x20 PUSH2 0x4962 DUP8 DUP3 DUP9 ADD PUSH2 0x46B4 JUMP JUMPDEST SWAP4 POP POP PUSH1 0x40 PUSH2 0x4973 DUP8 DUP3 DUP9 ADD PUSH2 0x46B4 JUMP JUMPDEST SWAP3 POP POP PUSH1 0x60 PUSH2 0x4984 DUP8 DUP3 DUP9 ADD PUSH2 0x46B4 JUMP JUMPDEST SWAP2 POP POP SWAP3 SWAP6 SWAP2 SWAP5 POP SWAP3 POP JUMP JUMPDEST PUSH1 0x0 DUP1 REVERT JUMPDEST PUSH1 0x0 DUP1 REVERT JUMPDEST PUSH1 0x0 PUSH1 0x1F NOT PUSH1 0x1F DUP4 ADD AND SWAP1 POP SWAP2 SWAP1 POP JUMP JUMPDEST PUSH32 0x4E487B7100000000000000000000000000000000000000000000000000000000 PUSH1 0x0 MSTORE PUSH1 0x41 PUSH1 0x4 MSTORE PUSH1 0x24 PUSH1 0x0 REVERT JUMPDEST PUSH2 0x49E3 DUP3 PUSH2 0x499A JUMP JUMPDEST DUP2 ADD DUP2 DUP2 LT PUSH8 0xFFFFFFFFFFFFFFFF DUP3 GT OR ISZERO PUSH2 0x4A02 JUMPI PUSH2 0x4A01 PUSH2 0x49AB JUMP JUMPDEST JUMPDEST DUP1 PUSH1 0x40 MSTORE POP POP POP JUMP JUMPDEST PUSH1 0x0 PUSH2 0x4A15 PUSH2 0x459A JUMP JUMPDEST SWAP1 POP PUSH2 0x4A21 DUP3 DUP3 PUSH2 0x49DA JUMP JUMPDEST SWAP2 SWAP1 POP JUMP JUMPDEST PUSH1 0x0 PUSH8 0xFFFFFFFFFFFFFFFF DUP3 GT ISZERO PUSH2 0x4A41 JUMPI PUSH2 0x4A40 PUSH2 0x49AB JUMP JUMPDEST JUMPDEST PUSH2 0x4A4A DUP3 PUSH2 0x499A JUMP JUMPDEST SWAP1 POP PUSH1 0x20 DUP2 ADD SWAP1 POP SWAP2 SWAP1 POP JUMP JUMPDEST DUP3 DUP2 DUP4 CALLDATACOPY PUSH1 0x0 DUP4 DUP4 ADD MSTORE POP POP POP JUMP JUMPDEST PUSH1 0x0 PUSH2 0x4A79 PUSH2 0x4A74 DUP5 PUSH2 0x4A26 JUMP JUMPDEST PUSH2 0x4A0B JUMP JUMPDEST SWAP1 POP DUP3 DUP2 MSTORE PUSH1 0x20 DUP2 ADD DUP5 DUP5 DUP5 ADD GT ISZERO PUSH2 0x4A95 JUMPI PUSH2 0x4A94 PUSH2 0x4995 JUMP JUMPDEST JUMPDEST PUSH2 0x4AA0 DUP5 DUP3 DUP6 PUSH2 0x4A57 JUMP JUMPDEST POP SWAP4 SWAP3 POP POP POP JUMP JUMPDEST PUSH1 0x0 DUP3 PUSH1 0x1F DUP4 ADD SLT PUSH2 0x4ABD JUMPI PUSH2 0x4ABC PUSH2 0x4990 JUMP JUMPDEST JUMPDEST DUP2 CALLDATALOAD PUSH2 0x4ACD DUP5 DUP3 PUSH1 0x20 DUP7 ADD PUSH2 0x4A66 JUMP JUMPDEST SWAP2 POP POP SWAP3 SWAP2 POP POP JUMP JUMPDEST PUSH1 0x0 DUP1 PUSH1 0x40 DUP4 DUP6 SUB SLT ISZERO PUSH2 0x4AED JUMPI PUSH2 0x4AEC PUSH2 0x45A4 JUMP JUMPDEST JUMPDEST PUSH1 0x0 PUSH2 0x4AFB DUP6 DUP3 DUP7 ADD PUSH2 0x4712 JUMP JUMPDEST SWAP3 POP POP PUSH1 0x20 DUP4 ADD CALLDATALOAD PUSH8 0xFFFFFFFFFFFFFFFF DUP2 GT ISZERO PUSH2 0x4B1C JUMPI PUSH2 0x4B1B PUSH2 0x45A9 JUMP JUMPDEST JUMPDEST PUSH2 0x4B28 DUP6 DUP3 DUP7 ADD PUSH2 0x4AA8 JUMP JUMPDEST SWAP2 POP POP SWAP3 POP SWAP3 SWAP1 POP JUMP JUMPDEST PUSH1 0x0 DUP1 PUSH1 0x40 DUP4 DUP6 SUB SLT ISZERO PUSH2 0x4B49 JUMPI PUSH2 0x4B48 PUSH2 0x45A4 JUMP JUMPDEST JUMPDEST PUSH1 0x0 PUSH2 0x4B57 DUP6 DUP3 DUP7 ADD PUSH2 0x46B4 JUMP JUMPDEST SWAP3 POP POP PUSH1 0x20 PUSH2 0x4B68 DUP6 DUP3 DUP7 ADD PUSH2 0x46B4 JUMP JUMPDEST SWAP2 POP POP SWAP3 POP SWAP3 SWAP1 POP JUMP JUMPDEST PUSH1 0x0 DUP2 SWAP1 POP SWAP2 SWAP1 POP JUMP JUMPDEST PUSH1 0x0 PUSH2 0x4B97 PUSH2 0x4B92 PUSH2 0x4B8D DUP5 PUSH2 0x46C9 JUMP JUMPDEST PUSH2 0x4B72 JUMP JUMPDEST PUSH2 0x46C9 JUMP JUMPDEST SWAP1 POP SWAP2 SWAP1 POP JUMP JUMPDEST PUSH1 0x0 PUSH2 0x4BA9 DUP3 PUSH2 0x4B7C JUMP JUMPDEST SWAP1 POP SWAP2 SWAP1 POP JUMP JUMPDEST PUSH1 0x0 PUSH2 0x4BBB DUP3 PUSH2 0x4B9E JUMP JUMPDEST SWAP1 POP SWAP2 SWAP1 POP JUMP JUMPDEST PUSH2 0x4BCB DUP2 PUSH2 0x4BB0 JUMP JUMPDEST DUP3 MSTORE POP POP JUMP JUMPDEST PUSH1 0x0 PUSH1 0x20 DUP3 ADD SWAP1 POP PUSH2 0x4BE6 PUSH1 0x0 DUP4 ADD DUP5 PUSH2 0x4BC2 JUMP JUMPDEST SWAP3 SWAP2 POP POP JUMP JUMPDEST PUSH1 0x0 DUP2 MLOAD SWAP1 POP SWAP2 SWAP1 POP JUMP JUMPDEST PUSH1 0x0 DUP3 DUP3 MSTORE PUSH1 0x20 DUP3 ADD SWAP1 POP SWAP3 SWAP2 POP POP JUMP JUMPDEST PUSH1 0x0 JUMPDEST DUP4 DUP2 LT ISZERO PUSH2 0x4C26 JUMPI DUP1 DUP3 ADD MLOAD DUP2 DUP5 ADD MSTORE PUSH1 0x20 DUP2 ADD SWAP1 POP PUSH2 0x4C0B JUMP JUMPDEST PUSH1 0x0 DUP5 DUP5 ADD MSTORE POP POP POP POP JUMP JUMPDEST PUSH1 0x0 PUSH2 0x4C3D DUP3 PUSH2 0x4BEC JUMP JUMPDEST PUSH2 0x4C47 DUP2 DUP6 PUSH2 0x4BF7 JUMP JUMPDEST SWAP4 POP PUSH2 0x4C57 DUP2 DUP6 PUSH1 0x20 DUP7 ADD PUSH2 0x4C08 JUMP JUMPDEST PUSH2 0x4C60 DUP2 PUSH2 0x499A JUMP JUMPDEST DUP5 ADD SWAP2 POP POP SWAP3 SWAP2 POP POP JUMP JUMPDEST PUSH1 0x0 PUSH1 0x20 DUP3 ADD SWAP1 POP DUP2 DUP2 SUB PUSH1 0x0 DUP4 ADD MSTORE PUSH2 0x4C85 DUP2 DUP5 PUSH2 0x4C32 JUMP JUMPDEST SWAP1 POP SWAP3 SWAP2 POP POP JUMP JUMPDEST PUSH2 0x4C96 DUP2 PUSH2 0x4633 JUMP JUMPDEST DUP2 EQ PUSH2 0x4CA1 JUMPI PUSH1 0x0 DUP1 REVERT JUMPDEST POP JUMP JUMPDEST PUSH1 0x0 DUP2 CALLDATALOAD SWAP1 POP PUSH2 0x4CB3 DUP2 PUSH2 0x4C8D JUMP JUMPDEST SWAP3 SWAP2 POP POP JUMP JUMPDEST PUSH1 0x0 DUP1 PUSH1 0x0 DUP1 PUSH1 0x0 PUSH1 0xA0 DUP7 DUP9 SUB SLT ISZERO PUSH2 0x4CD5 JUMPI PUSH2 0x4CD4 PUSH2 0x45A4 JUMP JUMPDEST JUMPDEST PUSH1 0x0 PUSH2 0x4CE3 DUP9 DUP3 DUP10 ADD PUSH2 0x4712 JUMP JUMPDEST SWAP6 POP POP PUSH1 0x20 PUSH2 0x4CF4 DUP9 DUP3 DUP10 ADD PUSH2 0x46B4 JUMP JUMPDEST SWAP5 POP POP PUSH1 0x40 PUSH2 0x4D05 DUP9 DUP3 DUP10 ADD PUSH2 0x46B4 JUMP JUMPDEST SWAP4 POP POP PUSH1 0x60 PUSH2 0x4D16 DUP9 DUP3 DUP10 ADD PUSH2 0x46B4 JUMP JUMPDEST SWAP3 POP POP PUSH1 0x80 PUSH2 0x4D27 DUP9 DUP3 DUP10 ADD PUSH2 0x4CA4 JUMP JUMPDEST SWAP2 POP POP SWAP3 SWAP6 POP SWAP3 SWAP6 SWAP1 SWAP4 POP JUMP JUMPDEST PUSH1 0x0 DUP1 PUSH1 0x0 PUSH1 0x60 DUP5 DUP7 SUB SLT ISZERO PUSH2 0x4D4D JUMPI PUSH2 0x4D4C PUSH2 0x45A4 JUMP JUMPDEST JUMPDEST PUSH1 0x0 PUSH2 0x4D5B DUP7 DUP3 DUP8 ADD PUSH2 0x46B4 JUMP JUMPDEST SWAP4 POP POP PUSH1 0x20 PUSH2 0x4D6C DUP7 DUP3 DUP8 ADD PUSH2 0x46B4 JUMP JUMPDEST SWAP3 POP POP PUSH1 0x40 PUSH2 0x4D7D DUP7 DUP3 DUP8 ADD PUSH2 0x46B4 JUMP JUMPDEST SWAP2 POP POP SWAP3 POP SWAP3 POP SWAP3 JUMP JUMPDEST PUSH1 0x0 PUSH1 0x20 DUP3 DUP5 SUB SLT ISZERO PUSH2 0x4D9D JUMPI PUSH2 0x4D9C PUSH2 0x45A4 JUMP JUMPDEST JUMPDEST PUSH1 0x0 PUSH2 0x4DAB DUP5 DUP3 DUP6 ADD PUSH2 0x4914 JUMP JUMPDEST SWAP2 POP POP SWAP3 SWAP2 POP POP JUMP JUMPDEST PUSH1 0x0 DUP1 PUSH1 0x0 PUSH1 0x60 DUP5 DUP7 SUB SLT ISZERO PUSH2 0x4DCD JUMPI PUSH2 0x4DCC PUSH2 0x45A4 JUMP JUMPDEST JUMPDEST PUSH1 0x0 PUSH2 0x4DDB DUP7 DUP3 DUP8 ADD PUSH2 0x46B4 JUMP JUMPDEST SWAP4 POP POP PUSH1 0x20 PUSH2 0x4DEC DUP7 DUP3 DUP8 ADD PUSH2 0x46B4 JUMP JUMPDEST SWAP3 POP POP PUSH1 0x40 PUSH2 0x4DFD DUP7 DUP3 DUP8 ADD PUSH2 0x4CA4 JUMP JUMPDEST SWAP2 POP POP SWAP3 POP SWAP3 POP SWAP3 JUMP JUMPDEST PUSH2 0x4E10 DUP2 PUSH2 0x46E9 JUMP JUMPDEST DUP3 MSTORE POP POP JUMP JUMPDEST PUSH1 0x0 PUSH1 0xE0 DUP3 ADD SWAP1 POP PUSH2 0x4E2B PUSH1 0x0 DUP4 ADD DUP11 PUSH2 0x4E07 JUMP JUMPDEST PUSH2 0x4E38 PUSH1 0x20 DUP4 ADD DUP10 PUSH2 0x4673 JUMP JUMPDEST PUSH2 0x4E45 PUSH1 0x40 DUP4 ADD DUP9 PUSH2 0x4673 JUMP JUMPDEST PUSH2 0x4E52 PUSH1 0x60 DUP4 ADD DUP8 PUSH2 0x4673 JUMP JUMPDEST PUSH2 0x4E5F PUSH1 0x80 DUP4 ADD DUP7 PUSH2 0x4673 JUMP JUMPDEST PUSH2 0x4E6C PUSH1 0xA0 DUP4 ADD DUP6 PUSH2 0x4673 JUMP JUMPDEST PUSH2 0x4E79 PUSH1 0xC0 DUP4 ADD DUP5 PUSH2 0x4673 JUMP JUMPDEST SWAP9 SWAP8 POP POP POP POP POP POP POP POP JUMP JUMPDEST PUSH1 0x0 PUSH1 0x40 DUP3 ADD SWAP1 POP PUSH2 0x4E9A PUSH1 0x0 DUP4 ADD DUP6 PUSH2 0x4673 JUMP JUMPDEST PUSH2 0x4EA7 PUSH1 0x20 DUP4 ADD DUP5 PUSH2 0x4673 JUMP JUMPDEST SWAP4 SWAP3 POP POP POP JUMP JUMPDEST PUSH32 0x696E76616C696420706964000000000000000000000000000000000000000000 PUSH1 0x0 DUP3 ADD MSTORE POP JUMP JUMPDEST PUSH1 0x0 PUSH2 0x4EE4 PUSH1 0xB DUP4 PUSH2 0x4BF7 JUMP JUMPDEST SWAP2 POP PUSH2 0x4EEF DUP3 PUSH2 0x4EAE JUMP JUMPDEST PUSH1 0x20 DUP3 ADD SWAP1 POP SWAP2 SWAP1 POP JUMP JUMPDEST PUSH1 0x0 PUSH1 0x20 DUP3 ADD SWAP1 POP DUP2 DUP2 SUB PUSH1 0x0 DUP4 ADD MSTORE PUSH2 0x4F13 DUP2 PUSH2 0x4ED7 JUMP JUMPDEST SWAP1 POP SWAP2 SWAP1 POP JUMP JUMPDEST PUSH32 0x7769746864726177206973207061757365640000000000000000000000000000 PUSH1 0x0 DUP3 ADD MSTORE POP JUMP JUMPDEST PUSH1 0x0 PUSH2 0x4F50 PUSH1 0x12 DUP4 PUSH2 0x4BF7 JUMP JUMPDEST SWAP2 POP PUSH2 0x4F5B DUP3 PUSH2 0x4F1A JUMP JUMPDEST PUSH1 0x20 DUP3 ADD SWAP1 POP SWAP2 SWAP1 POP JUMP JUMPDEST PUSH1 0x0 PUSH1 0x20 DUP3 ADD SWAP1 POP DUP2 DUP2 SUB PUSH1 0x0 DUP4 ADD MSTORE PUSH2 0x4F7F DUP2 PUSH2 0x4F43 JUMP JUMPDEST SWAP1 POP SWAP2 SWAP1 POP JUMP JUMPDEST PUSH32 0x4E487B7100000000000000000000000000000000000000000000000000000000 PUSH1 0x0 MSTORE PUSH1 0x32 PUSH1 0x4 MSTORE PUSH1 0x24 PUSH1 0x0 REVERT JUMPDEST PUSH32 0x4E487B7100000000000000000000000000000000000000000000000000000000 PUSH1 0x0 MSTORE PUSH1 0x11 PUSH1 0x4 MSTORE PUSH1 0x24 PUSH1 0x0 REVERT JUMPDEST PUSH1 0x0 PUSH2 0x4FEF DUP3 PUSH2 0x4669 JUMP JUMPDEST SWAP2 POP PUSH2 0x4FFA DUP4 PUSH2 0x4669 JUMP JUMPDEST SWAP3 POP DUP3 DUP3 ADD SWAP1 POP DUP1 DUP3 GT ISZERO PUSH2 0x5012 JUMPI PUSH2 0x5011 PUSH2 0x4FB5 JUMP JUMPDEST JUMPDEST SWAP3 SWAP2 POP POP JUMP JUMPDEST PUSH1 0x0 PUSH2 0x5023 DUP3 PUSH2 0x4669 JUMP JUMPDEST SWAP2 POP PUSH32 0xFFFFFFFFFFFFFFFFFFFFFFFFFFFFFFFFFFFFFFFFFFFFFFFFFFFFFFFFFFFFFFFF DUP3 SUB PUSH2 0x5055 JUMPI PUSH2 0x5054 PUSH2 0x4FB5 JUMP JUMPDEST JUMPDEST PUSH1 0x1 DUP3 ADD SWAP1 POP SWAP2 SWAP1 POP JUMP JUMPDEST PUSH1 0x0 PUSH2 0x506B DUP3 PUSH2 0x4669 JUMP JUMPDEST SWAP2 POP PUSH2 0x5076 DUP4 PUSH2 0x4669 JUMP JUMPDEST SWAP3 POP DUP3 DUP3 SUB SWAP1 POP DUP2 DUP2 GT ISZERO PUSH2 0x508E JUMPI PUSH2 0x508D PUSH2 0x4FB5 JUMP JUMPDEST JUMPDEST SWAP3 SWAP2 POP POP JUMP JUMPDEST PUSH32 0x4E487B7100000000000000000000000000000000000000000000000000000000 PUSH1 0x0 MSTORE PUSH1 0x31 PUSH1 0x4 MSTORE PUSH1 0x24 PUSH1 0x0 REVERT JUMPDEST PUSH32 0x636C61696D206973207061757365640000000000000000000000000000000000 PUSH1 0x0 DUP3 ADD MSTORE POP JUMP JUMPDEST PUSH1 0x0 PUSH2 0x50F9 PUSH1 0xF DUP4 PUSH2 0x4BF7 JUMP JUMPDEST SWAP2 POP PUSH2 0x5104 DUP3 PUSH2 0x50C3 JUMP JUMPDEST PUSH1 0x20 DUP3 ADD SWAP1 POP SWAP2 SWAP1 POP JUMP JUMPDEST PUSH1 0x0 PUSH1 0x20 DUP3 ADD SWAP1 POP DUP2 DUP2 SUB PUSH1 0x0 DUP4 ADD MSTORE PUSH2 0x5128 DUP2 PUSH2 0x50EC JUMP JUMPDEST SWAP1 POP SWAP2 SWAP1 POP JUMP JUMPDEST PUSH1 0x0 PUSH2 0x513A DUP3 PUSH2 0x4669 JUMP JUMPDEST SWAP2 POP PUSH2 0x5145 DUP4 PUSH2 0x4669 JUMP JUMPDEST SWAP3 POP DUP3 DUP3 MUL PUSH2 0x5153 DUP2 PUSH2 0x4669 JUMP JUMPDEST SWAP2 POP DUP3 DUP3 DIV DUP5 EQ DUP4 ISZERO OR PUSH2 0x516A JUMPI PUSH2 0x5169 PUSH2 0x4FB5 JUMP JUMPDEST JUMPDEST POP SWAP3 SWAP2 POP POP JUMP JUMPDEST PUSH32 0x4E487B7100000000000000000000000000000000000000000000000000000000 PUSH1 0x0 MSTORE PUSH1 0x12 PUSH1 0x4 MSTORE PUSH1 0x24 PUSH1 0x0 REVERT JUMPDEST PUSH1 0x0 PUSH2 0x51AB DUP3 PUSH2 0x4669 JUMP JUMPDEST SWAP2 POP PUSH2 0x51B6 DUP4 PUSH2 0x4669 JUMP JUMPDEST SWAP3 POP DUP3 PUSH2 0x51C6 JUMPI PUSH2 0x51C5 PUSH2 0x5171 JUMP JUMPDEST JUMPDEST DUP3 DUP3 DIV SWAP1 POP SWAP3 SWAP2 POP POP JUMP JUMPDEST PUSH32 0x737461727420626C6F636B206D757374206265206C657373207468616E20656E PUSH1 0x0 DUP3 ADD MSTORE PUSH32 0x6420626C6F636B00000000000000000000000000000000000000000000000000 PUSH1 0x20 DUP3 ADD MSTORE POP JUMP JUMPDEST PUSH1 0x0 PUSH2 0x522D PUSH1 0x27 DUP4 PUSH2 0x4BF7 JUMP JUMPDEST SWAP2 POP PUSH2 0x5238 DUP3 PUSH2 0x51D1 JUMP JUMPDEST PUSH1 0x40 DUP3 ADD SWAP1 POP SWAP2 SWAP1 POP JUMP JUMPDEST PUSH1 0x0 PUSH1 0x20 DUP3 ADD SWAP1 POP DUP2 DUP2 SUB PUSH1 0x0 DUP4 ADD MSTORE PUSH2 0x525C DUP2 PUSH2 0x5220 JUMP JUMPDEST SWAP1 POP SWAP2 SWAP1 POP JUMP JUMPDEST PUSH32 0x7263632070657220626C6F636B206D7573742062652067726561746572207468 PUSH1 0x0 DUP3 ADD MSTORE PUSH32 0x616E203000000000000000000000000000000000000000000000000000000000 PUSH1 0x20 DUP3 ADD MSTORE POP JUMP JUMPDEST PUSH1 0x0 PUSH2 0x52BF PUSH1 0x24 DUP4 PUSH2 0x4BF7 JUMP JUMPDEST SWAP2 POP PUSH2 0x52CA DUP3 PUSH2 0x5263 JUMP JUMPDEST PUSH1 0x40 DUP3 ADD SWAP1 POP SWAP2 SWAP1 POP JUMP JUMPDEST PUSH1 0x0 PUSH1 0x20 DUP3 ADD SWAP1 POP DUP2 DUP2 SUB PUSH1 0x0 DUP4 ADD MSTORE PUSH2 0x52EE DUP2 PUSH2 0x52B2 JUMP JUMPDEST SWAP1 POP SWAP2 SWAP1 POP JUMP JUMPDEST PUSH1 0x0 DUP2 SWAP1 POP SWAP2 SWAP1 POP JUMP JUMPDEST PUSH1 0x0 PUSH8 0xFFFFFFFFFFFFFFFF DUP3 AND SWAP1 POP SWAP2 SWAP1 POP JUMP JUMPDEST PUSH1 0x0 PUSH2 0x532E PUSH2 0x5329 PUSH2 0x5324 DUP5 PUSH2 0x52F5 JUMP JUMPDEST PUSH2 0x4B72 JUMP JUMPDEST PUSH2 0x52FF JUMP JUMPDEST SWAP1 POP SWAP2 SWAP1 POP JUMP JUMPDEST PUSH2 0x533E DUP2 PUSH2 0x5313 JUMP JUMPDEST DUP3 MSTORE POP POP JUMP JUMPDEST PUSH1 0x0 PUSH1 0x20 DUP3 ADD SWAP1 POP PUSH2 0x5359 PUSH1 0x0 DUP4 ADD DUP5 PUSH2 0x5335 JUMP JUMPDEST SWAP3 SWAP2 POP POP JUMP JUMPDEST PUSH32 0x6F766572666C6F77000000000000000000000000000000000000000000000000 PUSH1 0x0 DUP3 ADD MSTORE POP JUMP JUMPDEST PUSH1 0x0 PUSH2 0x5395 PUSH1 0x8 DUP4 PUSH2 0x4BF7 JUMP JUMPDEST SWAP2 POP PUSH2 0x53A0 DUP3 PUSH2 0x535F JUMP JUMPDEST PUSH1 0x20 DUP3 ADD SWAP1 POP SWAP2 SWAP1 POP JUMP JUMPDEST PUSH1 0x0 PUSH1 0x20 DUP3 ADD SWAP1 POP DUP2 DUP2 SUB PUSH1 0x0 DUP4 ADD MSTORE PUSH2 0x53C4 DUP2 PUSH2 0x5388 JUMP JUMPDEST SWAP1 POP SWAP2 SWAP1 POP JUMP JUMPDEST PUSH32 0x77697468647261772068617320616C7265616479206265656E20756E70617573 PUSH1 0x0 DUP3 ADD MSTORE PUSH32 0x6564000000000000000000000000000000000000000000000000000000000000 PUSH1 0x20 DUP3 ADD MSTORE POP JUMP JUMPDEST PUSH1 0x0 PUSH2 0x5427 PUSH1 0x22 DUP4 PUSH2 0x4BF7 JUMP JUMPDEST SWAP2 POP PUSH2 0x5432 DUP3 PUSH2 0x53CB JUMP JUMPDEST PUSH1 0x40 DUP3 ADD SWAP1 POP SWAP2 SWAP1 POP JUMP JUMPDEST PUSH1 0x0 PUSH1 0x20 DUP3 ADD SWAP1 POP DUP2 DUP2 SUB PUSH1 0x0 DUP4 ADD MSTORE PUSH2 0x5456 DUP2 PUSH2 0x541A JUMP JUMPDEST SWAP1 POP SWAP2 SWAP1 POP JUMP JUMPDEST PUSH32 0x696E76616C69642072616E676500000000000000000000000000000000000000 PUSH1 0x0 DUP3 ADD MSTORE POP JUMP JUMPDEST PUSH1 0x0 PUSH2 0x5493 PUSH1 0xD DUP4 PUSH2 0x4BF7 JUMP JUMPDEST SWAP2 POP PUSH2 0x549E DUP3 PUSH2 0x545D JUMP JUMPDEST PUSH1 0x20 DUP3 ADD SWAP1 POP SWAP2 SWAP1 POP JUMP JUMPDEST PUSH1 0x0 PUSH1 0x20 DUP3 ADD SWAP1 POP DUP2 DUP2 SUB PUSH1 0x0 DUP4 ADD MSTORE PUSH2 0x54C2 DUP2 PUSH2 0x5486 JUMP JUMPDEST SWAP1 POP SWAP2 SWAP1 POP JUMP JUMPDEST PUSH32 0x6D756C7469706C696572206F766572666C6F7700000000000000000000000000 PUSH1 0x0 DUP3 ADD MSTORE POP JUMP JUMPDEST PUSH1 0x0 PUSH2 0x54FF PUSH1 0x13 DUP4 PUSH2 0x4BF7 JUMP JUMPDEST SWAP2 POP PUSH2 0x550A DUP3 PUSH2 0x54C9 JUMP JUMPDEST PUSH1 0x20 DUP3 ADD SWAP1 POP SWAP2 SWAP1 POP JUMP JUMPDEST PUSH1 0x0 PUSH1 0x20 DUP3 ADD SWAP1 POP DUP2 DUP2 SUB PUSH1 0x0 DUP4 ADD MSTORE PUSH2 0x552E DUP2 PUSH2 0x54F2 JUMP JUMPDEST SWAP1 POP SWAP2 SWAP1 POP JUMP JUMPDEST PUSH32 0x636C61696D2068617320616C7265616479206265656E20756E70617573656400 PUSH1 0x0 DUP3 ADD MSTORE POP JUMP JUMPDEST PUSH1 0x0 PUSH2 0x556B PUSH1 0x1F DUP4 PUSH2 0x4BF7 JUMP JUMPDEST SWAP2 POP PUSH2 0x5576 DUP3 PUSH2 0x5535 JUMP JUMPDEST PUSH1 0x20 DUP3 ADD SWAP1 POP SWAP2 SWAP1 POP JUMP JUMPDEST PUSH1 0x0 PUSH1 0x20 DUP3 ADD SWAP1 POP DUP2 DUP2 SUB PUSH1 0x0 DUP4 ADD MSTORE PUSH2 0x559A DUP2 PUSH2 0x555E JUMP JUMPDEST SWAP1 POP SWAP2 SWAP1 POP JUMP JUMPDEST PUSH32 0x4E6F7420656E6F756768207374616B696E6720746F6B656E2062616C616E6365 PUSH1 0x0 DUP3 ADD MSTORE POP JUMP JUMPDEST PUSH1 0x0 PUSH2 0x55D7 PUSH1 0x20 DUP4 PUSH2 0x4BF7 JUMP JUMPDEST SWAP2 POP PUSH2 0x55E2 DUP3 PUSH2 0x55A1 JUMP JUMPDEST PUSH1 0x20 DUP3 ADD SWAP1 POP SWAP2 SWAP1 POP JUMP JUMPDEST PUSH1 0x0 PUSH1 0x20 DUP3 ADD SWAP1 POP DUP2 DUP2 SUB PUSH1 0x0 DUP4 ADD MSTORE PUSH2 0x5606 DUP2 PUSH2 0x55CA JUMP JUMPDEST SWAP1 POP SWAP2 SWAP1 POP JUMP JUMPDEST PUSH32 0x6F766572666C6F77320000000000000000000000000000000000000000000000 PUSH1 0x0 DUP3 ADD MSTORE POP JUMP JUMPDEST PUSH1 0x0 PUSH2 0x5643 PUSH1 0x9 DUP4 PUSH2 0x4BF7 JUMP JUMPDEST SWAP2 POP PUSH2 0x564E DUP3 PUSH2 0x560D JUMP JUMPDEST PUSH1 0x20 DUP3 ADD SWAP1 POP SWAP2 SWAP1 POP JUMP JUMPDEST PUSH1 0x0 PUSH1 0x20 DUP3 ADD SWAP1 POP DUP2 DUP2 SUB PUSH1 0x0 DUP4 ADD MSTORE PUSH2 0x5672 DUP2 PUSH2 0x5636 JUMP JUMPDEST SWAP1 POP SWAP2 SWAP1 POP JUMP JUMPDEST PUSH32 0x6F766572666C6F77330000000000000000000000000000000000000000000000 PUSH1 0x0 DUP3 ADD MSTORE POP JUMP JUMPDEST PUSH1 0x0 PUSH2 0x56AF PUSH1 0x9 DUP4 PUSH2 0x4BF7 JUMP JUMPDEST SWAP2 POP PUSH2 0x56BA DUP3 PUSH2 0x5679 JUMP JUMPDEST PUSH1 0x20 DUP3 ADD SWAP1 POP SWAP2 SWAP1 POP JUMP JUMPDEST PUSH1 0x0 PUSH1 0x20 DUP3 ADD SWAP1 POP DUP2 DUP2 SUB PUSH1 0x0 DUP4 ADD MSTORE PUSH2 0x56DE DUP2 PUSH2 0x56A2 JUMP JUMPDEST SWAP1 POP SWAP2 SWAP1 POP JUMP JUMPDEST PUSH32 0x74686520666972737420706F6F6C206D7573742062652045544820706F6F6C00 PUSH1 0x0 DUP3 ADD MSTORE POP JUMP JUMPDEST PUSH1 0x0 PUSH2 0x571B PUSH1 0x1F DUP4 PUSH2 0x4BF7 JUMP JUMPDEST SWAP2 POP PUSH2 0x5726 DUP3 PUSH2 0x56E5 JUMP JUMPDEST PUSH1 0x20 DUP3 ADD SWAP1 POP SWAP2 SWAP1 POP JUMP JUMPDEST PUSH1 0x0 PUSH1 0x20 DUP3 ADD SWAP1 POP DUP2 DUP2 SUB PUSH1 0x0 DUP4 ADD MSTORE PUSH2 0x574A DUP2 PUSH2 0x570E JUMP JUMPDEST SWAP1 POP SWAP2 SWAP1 POP JUMP JUMPDEST PUSH32 0x696E76616C6964207769746864726177206C6F636B656420626C6F636B730000 PUSH1 0x0 DUP3 ADD MSTORE POP JUMP JUMPDEST PUSH1 0x0 PUSH2 0x5787 PUSH1 0x1E DUP4 PUSH2 0x4BF7 JUMP JUMPDEST SWAP2 POP PUSH2 0x5792 DUP3 PUSH2 0x5751 JUMP JUMPDEST PUSH1 0x20 DUP3 ADD SWAP1 POP SWAP2 SWAP1 POP JUMP JUMPDEST PUSH1 0x0 PUSH1 0x20 DUP3 ADD SWAP1 POP DUP2 DUP2 SUB PUSH1 0x0 DUP4 ADD MSTORE PUSH2 0x57B6 DUP2 PUSH2 0x577A JUMP JUMPDEST SWAP1 POP SWAP2 SWAP1 POP JUMP JUMPDEST PUSH32 0x616C726561647920656E64656400000000000000000000000000000000000000 PUSH1 0x0 DUP3 ADD MSTORE POP JUMP JUMPDEST PUSH1 0x0 PUSH2 0x57F3 PUSH1 0xD DUP4 PUSH2 0x4BF7 JUMP JUMPDEST SWAP2 POP PUSH2 0x57FE DUP3 PUSH2 0x57BD JUMP JUMPDEST PUSH1 0x20 DUP3 ADD SWAP1 POP SWAP2 SWAP1 POP JUMP JUMPDEST PUSH1 0x0 PUSH1 0x20 DUP3 ADD SWAP1 POP DUP2 DUP2 SUB PUSH1 0x0 DUP4 ADD MSTORE PUSH2 0x5822 DUP2 PUSH2 0x57E6 JUMP JUMPDEST SWAP1 POP SWAP2 SWAP1 POP JUMP JUMPDEST PUSH32 0x77697468647261772068617320616C7265616479206265656E20706175736564 PUSH1 0x0 DUP3 ADD MSTORE POP JUMP JUMPDEST PUSH1 0x0 PUSH2 0x585F PUSH1 0x20 DUP4 PUSH2 0x4BF7 JUMP JUMPDEST SWAP2 POP PUSH2 0x586A DUP3 PUSH2 0x5829 JUMP JUMPDEST PUSH1 0x20 DUP3 ADD SWAP1 POP SWAP2 SWAP1 POP JUMP JUMPDEST PUSH1 0x0 PUSH1 0x20 DUP3 ADD SWAP1 POP DUP2 DUP2 SUB PUSH1 0x0 DUP4 ADD MSTORE PUSH2 0x588E DUP2 PUSH2 0x5852 JUMP JUMPDEST SWAP1 POP SWAP2 SWAP1 POP JUMP JUMPDEST PUSH32 0x696E76616C696420706F6F6C2069640000000000000000000000000000000000 PUSH1 0x0 DUP3 ADD MSTORE POP JUMP JUMPDEST PUSH1 0x0 PUSH2 0x58CB PUSH1 0xF DUP4 PUSH2 0x4BF7 JUMP JUMPDEST SWAP2 POP PUSH2 0x58D6 DUP3 PUSH2 0x5895 JUMP JUMPDEST PUSH1 0x20 DUP3 ADD SWAP1 POP SWAP2 SWAP1 POP JUMP JUMPDEST PUSH1 0x0 PUSH1 0x20 DUP3 ADD SWAP1 POP DUP2 DUP2 SUB PUSH1 0x0 DUP4 ADD MSTORE PUSH2 0x58FA DUP2 PUSH2 0x58BE JUMP JUMPDEST SWAP1 POP SWAP2 SWAP1 POP JUMP JUMPDEST PUSH32 0x6465706F736974206E6F7420737570706F727420455448207374616B696E6700 PUSH1 0x0 DUP3 ADD MSTORE POP JUMP JUMPDEST PUSH1 0x0 PUSH2 0x5937 PUSH1 0x1F DUP4 PUSH2 0x4BF7 JUMP JUMPDEST SWAP2 POP PUSH2 0x5942 DUP3 PUSH2 0x5901 JUMP JUMPDEST PUSH1 0x20 DUP3 ADD SWAP1 POP SWAP2 SWAP1 POP JUMP JUMPDEST PUSH1 0x0 PUSH1 0x20 DUP3 ADD SWAP1 POP DUP2 DUP2 SUB PUSH1 0x0 DUP4 ADD MSTORE PUSH2 0x5966 DUP2 PUSH2 0x592A JUMP JUMPDEST SWAP1 POP SWAP2 SWAP1 POP JUMP JUMPDEST PUSH32 0x696E76616C6964206465706F73697420616D6F756E7400000000000000000000 PUSH1 0x0 DUP3 ADD MSTORE POP JUMP JUMPDEST PUSH1 0x0 PUSH2 0x59A3 PUSH1 0x16 DUP4 PUSH2 0x4BF7 JUMP JUMPDEST SWAP2 POP PUSH2 0x59AE DUP3 PUSH2 0x596D JUMP JUMPDEST PUSH1 0x20 DUP3 ADD SWAP1 POP SWAP2 SWAP1 POP JUMP JUMPDEST PUSH1 0x0 PUSH1 0x20 DUP3 ADD SWAP1 POP DUP2 DUP2 SUB PUSH1 0x0 DUP4 ADD MSTORE PUSH2 0x59D2 DUP2 PUSH2 0x5996 JUMP JUMPDEST SWAP1 POP SWAP2 SWAP1 POP JUMP JUMPDEST PUSH32 0x45544820706F6F6C206D75737420626520637265617465642066697273740000 PUSH1 0x0 DUP3 ADD MSTORE POP JUMP JUMPDEST PUSH1 0x0 PUSH2 0x5A0F PUSH1 0x1E DUP4 PUSH2 0x4BF7 JUMP JUMPDEST SWAP2 POP PUSH2 0x5A1A DUP3 PUSH2 0x59D9 JUMP JUMPDEST PUSH1 0x20 DUP3 ADD SWAP1 POP SWAP2 SWAP1 POP JUMP JUMPDEST PUSH1 0x0 PUSH1 0x20 DUP3 ADD SWAP1 POP DUP2 DUP2 SUB PUSH1 0x0 DUP4 ADD MSTORE PUSH2 0x5A3E DUP2 PUSH2 0x5A02 JUMP JUMPDEST SWAP1 POP SWAP2 SWAP1 POP JUMP JUMPDEST PUSH32 0x696E76616C696420706F6F6C2077656967687400000000000000000000000000 PUSH1 0x0 DUP3 ADD MSTORE POP JUMP JUMPDEST PUSH1 0x0 PUSH2 0x5A7B PUSH1 0x13 DUP4 PUSH2 0x4BF7 JUMP JUMPDEST SWAP2 POP PUSH2 0x5A86 DUP3 PUSH2 0x5A45 JUMP JUMPDEST PUSH1 0x20 DUP3 ADD SWAP1 POP SWAP2 SWAP1 POP JUMP JUMPDEST PUSH1 0x0 PUSH1 0x20 DUP3 ADD SWAP1 POP DUP2 DUP2 SUB PUSH1 0x0 DUP4 ADD MSTORE PUSH2 0x5AAA DUP2 PUSH2 0x5A6E JUMP JUMPDEST SWAP1 POP SWAP2 SWAP1 POP JUMP JUMPDEST PUSH32 0x746F74616C20706F6F6C20776569676874206F766572666C6F77000000000000 PUSH1 0x0 DUP3 ADD MSTORE POP JUMP JUMPDEST PUSH1 0x0 PUSH2 0x5AE7 PUSH1 0x1A DUP4 PUSH2 0x4BF7 JUMP JUMPDEST SWAP2 POP PUSH2 0x5AF2 DUP3 PUSH2 0x5AB1 JUMP JUMPDEST PUSH1 0x20 DUP3 ADD SWAP1 POP SWAP2 SWAP1 POP JUMP JUMPDEST PUSH1 0x0 PUSH1 0x20 DUP3 ADD SWAP1 POP DUP2 DUP2 SUB PUSH1 0x0 DUP4 ADD MSTORE PUSH2 0x5B16 DUP2 PUSH2 0x5ADA JUMP JUMPDEST SWAP1 POP SWAP2 SWAP1 POP JUMP JUMPDEST PUSH1 0x0 DUP2 SWAP1 POP SWAP3 SWAP2 POP POP JUMP JUMPDEST POP JUMP JUMPDEST PUSH1 0x0 PUSH2 0x5B38 PUSH1 0x0 DUP4 PUSH2 0x5B1D JUMP JUMPDEST SWAP2 POP PUSH2 0x5B43 DUP3 PUSH2 0x5B28 JUMP JUMPDEST PUSH1 0x0 DUP3 ADD SWAP1 POP SWAP2 SWAP1 POP JUMP JUMPDEST PUSH1 0x0 PUSH2 0x5B59 DUP3 PUSH2 0x5B2B JUMP JUMPDEST SWAP2 POP DUP2 SWAP1 POP SWAP2 SWAP1 POP JUMP JUMPDEST PUSH32 0x455448207472616E736665722063616C6C206661696C65640000000000000000 PUSH1 0x0 DUP3 ADD MSTORE POP JUMP JUMPDEST PUSH1 0x0 PUSH2 0x5B99 PUSH1 0x18 DUP4 PUSH2 0x4BF7 JUMP JUMPDEST SWAP2 POP PUSH2 0x5BA4 DUP3 PUSH2 0x5B63 JUMP JUMPDEST PUSH1 0x20 DUP3 ADD SWAP1 POP SWAP2 SWAP1 POP JUMP JUMPDEST PUSH1 0x0 PUSH1 0x20 DUP3 ADD SWAP1 POP DUP2 DUP2 SUB PUSH1 0x0 DUP4 ADD MSTORE PUSH2 0x5BC8 DUP2 PUSH2 0x5B8C JUMP JUMPDEST SWAP1 POP SWAP2 SWAP1 POP JUMP JUMPDEST PUSH1 0x0 DUP2 MLOAD SWAP1 POP PUSH2 0x5BDE DUP2 PUSH2 0x4C8D JUMP JUMPDEST SWAP3 SWAP2 POP POP JUMP JUMPDEST PUSH1 0x0 PUSH1 0x20 DUP3 DUP5 SUB SLT ISZERO PUSH2 0x5BFA JUMPI PUSH2 0x5BF9 PUSH2 0x45A4 JUMP JUMPDEST JUMPDEST PUSH1 0x0 PUSH2 0x5C08 DUP5 DUP3 DUP6 ADD PUSH2 0x5BCF JUMP JUMPDEST SWAP2 POP POP SWAP3 SWAP2 POP POP JUMP JUMPDEST PUSH32 0x455448207472616E73666572206F7065726174696F6E20646964206E6F742073 PUSH1 0x0 DUP3 ADD MSTORE PUSH32 0x7563636565640000000000000000000000000000000000000000000000000000 PUSH1 0x20 DUP3 ADD MSTORE POP JUMP JUMPDEST PUSH1 0x0 PUSH2 0x5C6D PUSH1 0x26 DUP4 PUSH2 0x4BF7 JUMP JUMPDEST SWAP2 POP PUSH2 0x5C78 DUP3 PUSH2 0x5C11 JUMP JUMPDEST PUSH1 0x40 DUP3 ADD SWAP1 POP SWAP2 SWAP1 POP JUMP JUMPDEST PUSH1 0x0 PUSH1 0x20 DUP3 ADD SWAP1 POP DUP2 DUP2 SUB PUSH1 0x0 DUP4 ADD MSTORE PUSH2 0x5C9C DUP2 PUSH2 0x5C60 JUMP JUMPDEST SWAP1 POP SWAP2 SWAP1 POP JUMP JUMPDEST PUSH1 0x0 PUSH1 0x40 DUP3 ADD SWAP1 POP PUSH2 0x5CB8 PUSH1 0x0 DUP4 ADD DUP6 PUSH2 0x4E07 JUMP JUMPDEST PUSH2 0x5CC5 PUSH1 0x20 DUP4 ADD DUP5 PUSH2 0x4673 JUMP JUMPDEST SWAP4 SWAP3 POP POP POP JUMP JUMPDEST PUSH1 0x0 PUSH1 0x20 DUP3 ADD SWAP1 POP PUSH2 0x5CE1 PUSH1 0x0 DUP4 ADD DUP5 PUSH2 0x4E07 JUMP JUMPDEST SWAP3 SWAP2 POP POP JUMP JUMPDEST PUSH1 0x0 DUP2 MLOAD SWAP1 POP PUSH2 0x5CF6 DUP2 PUSH2 0x469D JUMP JUMPDEST SWAP3 SWAP2 POP POP JUMP JUMPDEST PUSH1 0x0 PUSH1 0x20 DUP3 DUP5 SUB SLT ISZERO PUSH2 0x5D12 JUMPI PUSH2 0x5D11 PUSH2 0x45A4 JUMP JUMPDEST JUMPDEST PUSH1 0x0 PUSH2 0x5D20 DUP5 DUP3 DUP6 ADD PUSH2 0x5CE7 JUMP JUMPDEST SWAP2 POP POP SWAP3 SWAP2 POP POP JUMP JUMPDEST PUSH1 0x0 DUP2 MLOAD SWAP1 POP PUSH2 0x5D38 DUP2 PUSH2 0x4771 JUMP JUMPDEST SWAP3 SWAP2 POP POP JUMP JUMPDEST PUSH1 0x0 PUSH1 0x20 DUP3 DUP5 SUB SLT ISZERO PUSH2 0x5D54 JUMPI PUSH2 0x5D53 PUSH2 0x45A4 JUMP JUMPDEST JUMPDEST PUSH1 0x0 PUSH2 0x5D62 DUP5 DUP3 DUP6 ADD PUSH2 0x5D29 JUMP JUMPDEST SWAP2 POP POP SWAP3 SWAP2 POP POP JUMP JUMPDEST PUSH1 0x0 PUSH1 0x60 DUP3 ADD SWAP1 POP PUSH2 0x5D80 PUSH1 0x0 DUP4 ADD DUP7 PUSH2 0x4E07 JUMP JUMPDEST PUSH2 0x5D8D PUSH1 0x20 DUP4 ADD DUP6 PUSH2 0x4E07 JUMP JUMPDEST PUSH2 0x5D9A PUSH1 0x40 DUP4 ADD DUP5 PUSH2 0x4673 JUMP JUMPDEST SWAP5 SWAP4 POP POP POP POP JUMP JUMPDEST PUSH32 0x75736572207374616B6520616D6F756E74206F766572666C6F77000000000000 PUSH1 0x0 DUP3 ADD MSTORE POP JUMP JUMPDEST PUSH1 0x0 PUSH2 0x5DD8 PUSH1 0x1A DUP4 PUSH2 0x4BF7 JUMP JUMPDEST SWAP2 POP PUSH2 0x5DE3 DUP3 PUSH2 0x5DA2 JUMP JUMPDEST PUSH1 0x20 DUP3 ADD SWAP1 POP SWAP2 SWAP1 POP JUMP JUMPDEST PUSH1 0x0 PUSH1 0x20 DUP3 ADD SWAP1 POP DUP2 DUP2 SUB PUSH1 0x0 DUP4 ADD MSTORE PUSH2 0x5E07 DUP2 PUSH2 0x5DCB JUMP JUMPDEST SWAP1 POP SWAP2 SWAP1 POP JUMP JUMPDEST PUSH32 0x616363756D756C617465207265776172647320706572207374616B65206F7665 PUSH1 0x0 DUP3 ADD MSTORE PUSH32 0x72666C6F77000000000000000000000000000000000000000000000000000000 PUSH1 0x20 DUP3 ADD MSTORE POP JUMP JUMPDEST PUSH1 0x0 PUSH2 0x5E6A PUSH1 0x25 DUP4 PUSH2 0x4BF7 JUMP JUMPDEST SWAP2 POP PUSH2 0x5E75 DUP3 PUSH2 0x5E0E JUMP JUMPDEST PUSH1 0x40 DUP3 ADD SWAP1 POP SWAP2 SWAP1 POP JUMP JUMPDEST PUSH1 0x0 PUSH1 0x20 DUP3 ADD SWAP1 POP DUP2 DUP2 SUB PUSH1 0x0 DUP4 ADD MSTORE PUSH2 0x5E99 DUP2 PUSH2 0x5E5D JUMP JUMPDEST SWAP1 POP SWAP2 SWAP1 POP JUMP JUMPDEST PUSH32 0x70656E64696E672072657761726473206F766572666C6F770000000000000000 PUSH1 0x0 DUP3 ADD MSTORE POP JUMP JUMPDEST PUSH1 0x0 PUSH2 0x5ED6 PUSH1 0x18 DUP4 PUSH2 0x4BF7 JUMP JUMPDEST SWAP2 POP PUSH2 0x5EE1 DUP3 PUSH2 0x5EA0 JUMP JUMPDEST PUSH1 0x20 DUP3 ADD SWAP1 POP SWAP2 SWAP1 POP JUMP JUMPDEST PUSH1 0x0 PUSH1 0x20 DUP3 ADD SWAP1 POP DUP2 DUP2 SUB PUSH1 0x0 DUP4 ADD MSTORE PUSH2 0x5F05 DUP2 PUSH2 0x5EC9 JUMP JUMPDEST SWAP1 POP SWAP2 SWAP1 POP JUMP JUMPDEST PUSH32 0x616363756D756C617465207374616B6520616D6F756E74206F766572666C6F77 PUSH1 0x0 DUP3 ADD MSTORE POP JUMP JUMPDEST PUSH1 0x0 PUSH2 0x5F42 PUSH1 0x20 DUP4 PUSH2 0x4BF7 JUMP JUMPDEST SWAP2 POP PUSH2 0x5F4D DUP3 PUSH2 0x5F0C JUMP JUMPDEST PUSH1 0x20 DUP3 ADD SWAP1 POP SWAP2 SWAP1 POP JUMP JUMPDEST PUSH1 0x0 PUSH1 0x20 DUP3 ADD SWAP1 POP DUP2 DUP2 SUB PUSH1 0x0 DUP4 ADD MSTORE PUSH2 0x5F71 DUP2 PUSH2 0x5F35 JUMP JUMPDEST SWAP1 POP SWAP2 SWAP1 POP JUMP JUMPDEST PUSH32 0x7374616B6520746F6B656E20616D6F756E74206F766572666C6F770000000000 PUSH1 0x0 DUP3 ADD MSTORE POP JUMP JUMPDEST PUSH1 0x0 PUSH2 0x5FAE PUSH1 0x1B DUP4 PUSH2 0x4BF7 JUMP JUMPDEST SWAP2 POP PUSH2 0x5FB9 DUP3 PUSH2 0x5F78 JUMP JUMPDEST PUSH1 0x20 DUP3 ADD SWAP1 POP SWAP2 SWAP1 POP JUMP JUMPDEST PUSH1 0x0 PUSH1 0x20 DUP3 ADD SWAP1 POP DUP2 DUP2 SUB PUSH1 0x0 DUP4 ADD MSTORE PUSH2 0x5FDD DUP2 PUSH2 0x5FA1 JUMP JUMPDEST SWAP1 POP SWAP2 SWAP1 POP JUMP JUMPDEST PUSH32 0x75736572207374416D6F756E74206D756C206163635243435065725354206F76 PUSH1 0x0 DUP3 ADD MSTORE PUSH32 0x6572666C6F770000000000000000000000000000000000000000000000000000 PUSH1 0x20 DUP3 ADD MSTORE POP JUMP JUMPDEST PUSH1 0x0 PUSH2 0x6040 PUSH1 0x26 DUP4 PUSH2 0x4BF7 JUMP JUMPDEST SWAP2 POP PUSH2 0x604B DUP3 PUSH2 0x5FE4 JUMP JUMPDEST PUSH1 0x40 DUP3 ADD SWAP1 POP SWAP2 SWAP1 POP JUMP JUMPDEST PUSH1 0x0 PUSH1 0x20 DUP3 ADD SWAP1 POP DUP2 DUP2 SUB PUSH1 0x0 DUP4 ADD MSTORE PUSH2 0x606F DUP2 PUSH2 0x6033 JUMP JUMPDEST SWAP1 POP SWAP2 SWAP1 POP JUMP JUMPDEST PUSH1 0x0 PUSH1 0x40 DUP3 ADD SWAP1 POP PUSH2 0x608B PUSH1 0x0 DUP4 ADD DUP6 PUSH2 0x4E07 JUMP JUMPDEST PUSH2 0x6098 PUSH1 0x20 DUP4 ADD DUP5 PUSH2 0x47CA JUMP JUMPDEST SWAP4 SWAP3 POP POP POP JUMP JUMPDEST PUSH1 0x0 DUP2 MLOAD SWAP1 POP SWAP2 SWAP1 POP JUMP JUMPDEST PUSH1 0x0 PUSH2 0x60B5 DUP3 PUSH2 0x609F JUMP JUMPDEST PUSH2 0x60BF DUP2 DUP6 PUSH2 0x5B1D JUMP JUMPDEST SWAP4 POP PUSH2 0x60CF DUP2 DUP6 PUSH1 0x20 DUP7 ADD PUSH2 0x4C08 JUMP JUMPDEST DUP1 DUP5 ADD SWAP2 POP POP SWAP3 SWAP2 POP POP JUMP JUMPDEST PUSH1 0x0 PUSH2 0x60E7 DUP3 DUP5 PUSH2 0x60AA JUMP JUMPDEST SWAP2 POP DUP2 SWAP1 POP SWAP3 SWAP2 POP POP JUMP INVALID LOG2 PUSH5 0x6970667358 0x22 SLT KECCAK256 0xAA PUSH31 0x47DEC1B4B96BC062F83FF580314053C5009D267312ACE05B26E8884E040464 PUSH20 0x6F6C634300081600330000000000000000000000 "},"methodIdentifiers":{"ADMIN_ROLE()":"75b238fc","DEFAULT_ADMIN_ROLE()":"a217fddf","ETH_PID()":"bfc3ebba","RCC()":"a72d5bf4","UPGRADE_INTERFACE_VERSION()":"ad3cb1cc","UPGRADE_ROLE()":"b908afa8","addPool(address,uint256,uint256,uint256,bool)":"b6d9d919","claim(uint256)":"379607f5","claimPaused()":"ab5e124a","deposit(uint256,uint256)":"e2bbb158","depositETH()":"f6326fb3","endBlock()":"083c6323","getMultiplier(uint256,uint256)":"8dbb1e3a","getPendingRCC(uint256,address)":"a27d9279","getPoolLength()":"b3944d52","getRoleAdmin(bytes32)":"248a9ca3","grantRole(bytes32,address)":"2f2ff15d","hasRole(bytes32,address)":"91d14854","initialize(address,uint256,uint256,uint256)":"4ec81af1","massUpdatePools()":"630b5ba1","pauseClaim()":"8ff095f9","pauseWithdraw()":"6155e3de","paused()":"5c975abb","pendingRCCByBlockNumber(uint256,address,uint256)":"41721ab7","pool(uint256)":"fe313112","proxiableUUID()":"52d1902d","rccPerBlock()":"70ff0173","renounceRole(bytes32,address)":"36568abe","revokeRole(bytes32,address)":"d547741f","setEndBlock(uint256)":"c713aa94","setPoolWeight(uint256,uint256,bool)":"fad07ece","setRCC(address)":"f5485d32","setRCCPerBlock(uint256)":"bed66c08","setStartBlock(uint256)":"f35e4a6e","stakingBalance(uint256,address)":"11548234","startBlock()":"48cd4cb1","supportsInterface(bytes4)":"01ffc9a7","totalPoolWeight()":"02559004","unpPauseWithdraw()":"c397920e","unpauseClaim()":"de065caa","unstake(uint256,uint256)":"9e2c8a5b","updatePool(uint256)":"51eb05a6","updatePool(uint256,uint256,uint256)":"d86c0444","upgradeToAndCall(address,bytes)":"4f1ef286","user(uint256,address)":"37849b3c","withdraw(uint256)":"2e1a7d4d","withdrawAmount(uint256,address)":"ff423357","withdrawPaused()":"2f3ffb9f"}},"storageLayout":{"storage":[{"astId":5970,"contract":"contracts/RCCStake.sol:RCCStake","label":"startBlock","offset":0,"slot":"0","type":"t_uint256"},{"astId":5972,"contract":"contracts/RCCStake.sol:RCCStake","label":"endBlock","offset":0,"slot":"1","type":"t_uint256"},{"astId":5974,"contract":"contracts/RCCStake.sol:RCCStake","label":"rccPerBlock","offset":0,"slot":"2","type":"t_uint256"},{"astId":5976,"contract":"contracts/RCCStake.sol:RCCStake","label":"withdrawPaused","offset":0,"slot":"3","type":"t_bool"},{"astId":5978,"contract":"contracts/RCCStake.sol:RCCStake","label":"claimPaused","offset":1,"slot":"3","type":"t_bool"},{"astId":5981,"contract":"contracts/RCCStake.sol:RCCStake","label":"RCC","offset":2,"slot":"3","type":"t_contract(IERC20)1646"},{"astId":5983,"contract":"contracts/RCCStake.sol:RCCStake","label":"totalPoolWeight","offset":0,"slot":"4","type":"t_uint256"},{"astId":5987,"contract":"contracts/RCCStake.sol:RCCStake","label":"pool","offset":0,"slot":"5","type":"t_array(t_struct(Pool)5952_storage)dyn_storage"},{"astId":5994,"contract":"contracts/RCCStake.sol:RCCStake","label":"user","offset":0,"slot":"6","type":"t_mapping(t_uint256,t_mapping(t_address,t_struct(User)5968_storage))"}],"types":{"t_address":{"encoding":"inplace","label":"address","numberOfBytes":"20"},"t_array(t_struct(Pool)5952_storage)dyn_storage":{"base":"t_struct(Pool)5952_storage","encoding":"dynamic_array","label":"struct RCCStake.Pool[]","numberOfBytes":"32"},"t_array(t_struct(UnStakeRequest)5957_storage)dyn_storage":{"base":"t_struct(UnStakeRequest)5957_storage","encoding":"dynamic_array","label":"struct RCCStake.UnStakeRequest[]","numberOfBytes":"32"},"t_bool":{"encoding":"inplace","label":"bool","numberOfBytes":"1"},"t_contract(IERC20)1646":{"encoding":"inplace","label":"contract IERC20","numberOfBytes":"20"},"t_mapping(t_address,t_struct(User)5968_storage)":{"encoding":"mapping","key":"t_address","label":"mapping(address => struct RCCStake.User)","numberOfBytes":"32","value":"t_struct(User)5968_storage"},"t_mapping(t_uint256,t_mapping(t_address,t_struct(User)5968_storage))":{"encoding":"mapping","key":"t_uint256","label":"mapping(uint256 => mapping(address => struct RCCStake.User))","numberOfBytes":"32","value":"t_mapping(t_address,t_struct(User)5968_storage)"},"t_struct(Pool)5952_storage":{"encoding":"inplace","label":"struct RCCStake.Pool","members":[{"astId":5939,"contract":"contracts/RCCStake.sol:RCCStake","label":"stakeTokenAddress","offset":0,"slot":"0","type":"t_address"},{"astId":5941,"contract":"contracts/RCCStake.sol:RCCStake","label":"poolWeight","offset":0,"slot":"1","type":"t_uint256"},{"astId":5943,"contract":"contracts/RCCStake.sol:RCCStake","label":"lastRewardBlock","offset":0,"slot":"2","type":"t_uint256"},{"astId":5945,"contract":"contracts/RCCStake.sol:RCCStake","label":"accumulateRewardsPerStake","offset":0,"slot":"3","type":"t_uint256"},{"astId":5947,"contract":"contracts/RCCStake.sol:RCCStake","label":"stakeTokenAmount","offset":0,"slot":"4","type":"t_uint256"},{"astId":5949,"contract":"contracts/RCCStake.sol:RCCStake","label":"minDepositAmount","offset":0,"slot":"5","type":"t_uint256"},{"astId":5951,"contract":"contracts/RCCStake.sol:RCCStake","label":"unStakeLockedBlocks","offset":0,"slot":"6","type":"t_uint256"}],"numberOfBytes":"224"},"t_struct(UnStakeRequest)5957_storage":{"encoding":"inplace","label":"struct RCCStake.UnStakeRequest","members":[{"astId":5954,"contract":"contracts/RCCStake.sol:RCCStake","label":"amount","offset":0,"slot":"0","type":"t_uint256"},{"astId":5956,"contract":"contracts/RCCStake.sol:RCCStake","label":"unlockBlocksCounts","offset":0,"slot":"1","type":"t_uint256"}],"numberOfBytes":"64"},"t_struct(User)5968_storage":{"encoding":"inplace","label":"struct RCCStake.User","members":[{"astId":5959,"contract":"contracts/RCCStake.sol:RCCStake","label":"stakeAmount","offset":0,"slot":"0","type":"t_uint256"},{"astId":5961,"contract":"contracts/RCCStake.sol:RCCStake","label":"finishedRewards","offset":0,"slot":"1","type":"t_uint256"},{"astId":5963,"contract":"contracts/RCCStake.sol:RCCStake","label":"pendingRewards","offset":0,"slot":"2","type":"t_uint256"},{"astId":5967,"contract":"contracts/RCCStake.sol:RCCStake","label":"requests","offset":0,"slot":"3","type":"t_array(t_struct(UnStakeRequest)5957_storage)dyn_storage"}],"numberOfBytes":"128"},"t_uint256":{"encoding":"inplace","label":"uint256","numberOfBytes":"32"}}}}}}