{"contracts/RCCStake.sol":{"RCCStake":{"abi":[{"inputs":[],"name":"AccessControlBadConfirmation","type":"error"},{"inputs":[{"internalType":"address","name":"account","type":"address"},{"internalType":"bytes32","name":"neededRole","type":"bytes32"}],"name":"AccessControlUnauthorizedAccount","type":"error"},{"inputs":[{"internalType":"address","name":"target","type":"address"}],"name":"AddressEmptyCode","type":"error"},{"inputs":[{"internalType":"address","name":"implementation","type":"address"}],"name":"ERC1967InvalidImplementation","type":"error"},{"inputs":[],"name":"ERC1967NonPayable","type":"error"},{"inputs":[],"name":"EnforcedPause","type":"error"},{"inputs":[],"name":"ExpectedPause","type":"error"},{"inputs":[],"name":"FailedCall","type":"error"},{"inputs":[],"name":"InvalidInitialization","type":"error"},{"inputs":[],"name":"NotInitializing","type":"error"},{"inputs":[{"internalType":"address","name":"token","type":"address"}],"name":"SafeERC20FailedOperation","type":"error"},{"inputs":[],"name":"UUPSUnauthorizedCallContext","type":"error"},{"inputs":[{"internalType":"bytes32","name":"slot","type":"bytes32"}],"name":"UUPSUnsupportedProxiableUUID","type":"error"},{"anonymous":false,"inputs":[{"indexed":true,"internalType":"address","name":"stakeTokenAddress","type":"address"},{"indexed":true,"internalType":"uint256","name":"poolWeight","type":"uint256"},{"indexed":true,"internalType":"uint256","name":"lastRewardBlock","type":"uint256"},{"indexed":false,"internalType":"uint256","name":"minDepositAmount","type":"uint256"},{"indexed":false,"internalType":"uint256","name":"unStakeLockedBlocks","type":"uint256"}],"name":"AddPool","type":"event"},{"anonymous":false,"inputs":[{"indexed":true,"internalType":"address","name":"user","type":"address"},{"indexed":true,"internalType":"uint256","name":"poolId","type":"uint256"},{"indexed":false,"internalType":"uint256","name":"RccReward","type":"uint256"}],"name":"Claim","type":"event"},{"anonymous":false,"inputs":[{"indexed":true,"internalType":"address","name":"user","type":"address"},{"indexed":true,"internalType":"uint256","name":"poolId","type":"uint256"},{"indexed":false,"internalType":"uint256","name":"amount","type":"uint256"}],"name":"Deposit","type":"event"},{"anonymous":false,"inputs":[{"indexed":true,"internalType":"address","name":"user","type":"address"},{"indexed":true,"internalType":"address","name":"pid","type":"address"},{"indexed":false,"internalType":"uint256","name":"amount","type":"uint256"}],"name":"GetRewards","type":"event"},{"anonymous":false,"inputs":[{"indexed":false,"internalType":"uint64","name":"version","type":"uint64"}],"name":"Initialized","type":"event"},{"anonymous":false,"inputs":[{"indexed":false,"internalType":"address","name":"account","type":"address"}],"name":"Paused","type":"event"},{"anonymous":false,"inputs":[],"name":"PausedClaim","type":"event"},{"anonymous":false,"inputs":[],"name":"PausedWithdraw","type":"event"},{"anonymous":false,"inputs":[{"indexed":true,"internalType":"address","name":"user","type":"address"},{"indexed":true,"internalType":"uint256","name":"poolId","type":"uint256"},{"indexed":false,"internalType":"uint256","name":"amount","type":"uint256"}],"name":"RequestUnstake","type":"event"},{"anonymous":false,"inputs":[{"indexed":true,"internalType":"bytes32","name":"role","type":"bytes32"},{"indexed":true,"internalType":"bytes32","name":"previousAdminRole","type":"bytes32"},{"indexed":true,"internalType":"bytes32","name":"newAdminRole","type":"bytes32"}],"name":"RoleAdminChanged","type":"event"},{"anonymous":false,"inputs":[{"indexed":true,"internalType":"bytes32","name":"role","type":"bytes32"},{"indexed":true,"internalType":"address","name":"account","type":"address"},{"indexed":true,"internalType":"address","name":"sender","type":"address"}],"name":"RoleGranted","type":"event"},{"anonymous":false,"inputs":[{"indexed":true,"internalType":"bytes32","name":"role","type":"bytes32"},{"indexed":true,"internalType":"address","name":"account","type":"address"},{"indexed":true,"internalType":"address","name":"sender","type":"address"}],"name":"RoleRevoked","type":"event"},{"anonymous":false,"inputs":[{"indexed":true,"internalType":"uint256","name":"endBlock","type":"uint256"}],"name":"SetEndBlock","type":"event"},{"anonymous":false,"inputs":[{"indexed":true,"internalType":"uint256","name":"poolId","type":"uint256"},{"indexed":false,"internalType":"uint256","name":"poolWeight","type":"uint256"},{"indexed":false,"internalType":"uint256","name":"totalPoolWeight","type":"uint256"}],"name":"SetPoolWeight","type":"event"},{"anonymous":false,"inputs":[{"indexed":true,"internalType":"contract IERC20","name":"RCC","type":"address"}],"name":"SetRCC","type":"event"},{"anonymous":false,"inputs":[{"indexed":true,"internalType":"uint256","name":"rccPerBlock","type":"uint256"}],"name":"SetRCCPerBlock","type":"event"},{"anonymous":false,"inputs":[{"indexed":true,"internalType":"uint256","name":"startBlock","type":"uint256"}],"name":"SetStartBlock","type":"event"},{"anonymous":false,"inputs":[{"indexed":true,"internalType":"address","name":"user","type":"address"},{"indexed":true,"internalType":"address","name":"pid","type":"address"},{"indexed":false,"internalType":"uint256","name":"amount","type":"uint256"}],"name":"Stake","type":"event"},{"anonymous":false,"inputs":[{"indexed":true,"internalType":"address","name":"user","type":"address"},{"indexed":true,"internalType":"address","name":"pid","type":"address"},{"indexed":false,"internalType":"uint256","name":"amount","type":"uint256"}],"name":"UnStake","type":"event"},{"anonymous":false,"inputs":[{"indexed":false,"internalType":"address","name":"account","type":"address"}],"name":"Unpaused","type":"event"},{"anonymous":false,"inputs":[],"name":"UnpausedClaim","type":"event"},{"anonymous":false,"inputs":[],"name":"UnpausedWithdraw","type":"event"},{"anonymous":false,"inputs":[{"indexed":true,"internalType":"uint256","name":"poolId","type":"uint256"},{"indexed":true,"internalType":"uint256","name":"lastRewardBlock","type":"uint256"},{"indexed":false,"internalType":"uint256","name":"totalRCC","type":"uint256"}],"name":"UpdatePool","type":"event"},{"anonymous":false,"inputs":[{"indexed":true,"internalType":"uint256","name":"poolId","type":"uint256"},{"indexed":true,"internalType":"uint256","name":"minDepositAmount","type":"uint256"},{"indexed":true,"internalType":"uint256","name":"unStakeLockedBlocks","type":"uint256"}],"name":"UpdatePoolInfo","type":"event"},{"anonymous":false,"inputs":[{"indexed":true,"internalType":"address","name":"implementation","type":"address"}],"name":"Upgraded","type":"event"},{"anonymous":false,"inputs":[{"indexed":true,"internalType":"address","name":"user","type":"address"},{"indexed":true,"internalType":"uint256","name":"poolId","type":"uint256"},{"indexed":false,"internalType":"uint256","name":"amount","type":"uint256"},{"indexed":true,"internalType":"uint256","name":"blockNumber","type":"uint256"}],"name":"Withdraw","type":"event"},{"stateMutability":"payable","type":"fallback"},{"inputs":[],"name":"ADMIN_ROLE","outputs":[{"internalType":"bytes32","name":"","type":"bytes32"}],"stateMutability":"view","type":"function"},{"inputs":[],"name":"DEFAULT_ADMIN_ROLE","outputs":[{"internalType":"bytes32","name":"","type":"bytes32"}],"stateMutability":"view","type":"function"},{"inputs":[],"name":"ETH_PID","outputs":[{"internalType":"uint256","name":"","type":"uint256"}],"stateMutability":"view","type":"function"},{"inputs":[],"name":"RCC","outputs":[{"internalType":"contract IERC20","name":"","type":"address"}],"stateMutability":"view","type":"function"},{"inputs":[],"name":"UPGRADE_INTERFACE_VERSION","outputs":[{"internalType":"string","name":"","type":"string"}],"stateMutability":"view","type":"function"},{"inputs":[],"name":"UPGRADE_ROLE","outputs":[{"internalType":"bytes32","name":"","type":"bytes32"}],"stateMutability":"view","type":"function"},{"inputs":[{"internalType":"address","name":"_stakeTokenAddress","type":"address"},{"internalType":"uint256","name":"_poolWeight","type":"uint256"},{"internalType":"uint256","name":"_minDepositAmount","type":"uint256"},{"internalType":"uint256","name":"_unStakeLockedBlocks","type":"uint256"},{"internalType":"bool","name":"_withUpdate","type":"bool"}],"name":"addPool","outputs":[],"stateMutability":"nonpayable","type":"function"},{"inputs":[{"internalType":"uint256","name":"_pid","type":"uint256"}],"name":"claim","outputs":[],"stateMutability":"nonpayable","type":"function"},{"inputs":[],"name":"claimPaused","outputs":[{"internalType":"bool","name":"","type":"bool"}],"stateMutability":"view","type":"function"},{"inputs":[{"internalType":"uint256","name":"_pid","type":"uint256"},{"internalType":"uint256","name":"_amount","type":"uint256"}],"name":"deposit","outputs":[],"stateMutability":"nonpayable","type":"function"},{"inputs":[],"name":"depositETH","outputs":[],"stateMutability":"payable","type":"function"},{"inputs":[],"name":"endBlock","outputs":[{"internalType":"uint256","name":"","type":"uint256"}],"stateMutability":"view","type":"function"},{"inputs":[{"internalType":"uint256","name":"_from","type":"uint256"},{"internalType":"uint256","name":"_to","type":"uint256"}],"name":"getMultiplier","outputs":[{"internalType":"uint256","name":"multiplier","type":"uint256"}],"stateMutability":"view","type":"function"},{"inputs":[{"internalType":"uint256","name":"_poolId","type":"uint256"},{"internalType":"address","name":"_user","type":"address"}],"name":"getPendingRCC","outputs":[{"internalType":"uint256","name":"","type":"uint256"}],"stateMutability":"view","type":"function"},{"inputs":[],"name":"getPoolLength","outputs":[{"internalType":"uint256","name":"","type":"uint256"}],"stateMutability":"view","type":"function"},{"inputs":[{"internalType":"bytes32","name":"role","type":"bytes32"}],"name":"getRoleAdmin","outputs":[{"internalType":"bytes32","name":"","type":"bytes32"}],"stateMutability":"view","type":"function"},{"inputs":[{"internalType":"bytes32","name":"role","type":"bytes32"},{"internalType":"address","name":"account","type":"address"}],"name":"grantRole","outputs":[],"stateMutability":"nonpayable","type":"function"},{"inputs":[{"internalType":"bytes32","name":"role","type":"bytes32"},{"internalType":"address","name":"account","type":"address"}],"name":"hasRole","outputs":[{"internalType":"bool","name":"","type":"bool"}],"stateMutability":"view","type":"function"},{"inputs":[{"internalType":"contract IERC20","name":"_RCC","type":"address"},{"internalType":"uint256","name":"_startBlock","type":"uint256"},{"internalType":"uint256","name":"_endBlock","type":"uint256"},{"internalType":"uint256","name":"_rccPerBlock","type":"uint256"}],"name":"initialize","outputs":[],"stateMutability":"nonpayable","type":"function"},{"inputs":[],"name":"massUpdatePools","outputs":[],"stateMutability":"nonpayable","type":"function"},{"inputs":[],"name":"pauseClaim","outputs":[],"stateMutability":"nonpayable","type":"function"},{"inputs":[],"name":"pauseWithdraw","outputs":[],"stateMutability":"nonpayable","type":"function"},{"inputs":[],"name":"paused","outputs":[{"internalType":"bool","name":"","type":"bool"}],"stateMutability":"view","type":"function"},{"inputs":[{"internalType":"uint256","name":"_poolId","type":"uint256"},{"internalType":"address","name":"_user","type":"address"},{"internalType":"uint256","name":"_blockNumber","type":"uint256"}],"name":"pendingRCCByBlockNumber","outputs":[{"internalType":"uint256","name":"","type":"uint256"}],"stateMutability":"view","type":"function"},{"inputs":[{"internalType":"uint256","name":"","type":"uint256"}],"name":"pool","outputs":[{"internalType":"address","name":"stakeTokenAddress","type":"address"},{"internalType":"uint256","name":"poolWeight","type":"uint256"},{"internalType":"uint256","name":"lastRewardBlock","type":"uint256"},{"internalType":"uint256","name":"accumulateRewardsPerStake","type":"uint256"},{"internalType":"uint256","name":"stakeTokenAmount","type":"uint256"},{"internalType":"uint256","name":"minDepositAmount","type":"uint256"},{"internalType":"uint256","name":"unStakeLockedBlocks","type":"uint256"}],"stateMutability":"view","type":"function"},{"inputs":[],"name":"proxiableUUID","outputs":[{"internalType":"bytes32","name":"","type":"bytes32"}],"stateMutability":"view","type":"function"},{"inputs":[],"name":"rccPerBlock","outputs":[{"internalType":"uint256","name":"","type":"uint256"}],"stateMutability":"view","type":"function"},{"inputs":[{"internalType":"bytes32","name":"role","type":"bytes32"},{"internalType":"address","name":"callerConfirmation","type":"address"}],"name":"renounceRole","outputs":[],"stateMutability":"nonpayable","type":"function"},{"inputs":[{"internalType":"bytes32","name":"role","type":"bytes32"},{"internalType":"address","name":"account","type":"address"}],"name":"revokeRole","outputs":[],"stateMutability":"nonpayable","type":"function"},{"inputs":[{"internalType":"uint256","name":"_endBlock","type":"uint256"}],"name":"setEndBlock","outputs":[],"stateMutability":"nonpayable","type":"function"},{"inputs":[{"internalType":"uint256","name":"_poolId","type":"uint256"},{"internalType":"uint256","name":"_poolWeight","type":"uint256"},{"internalType":"bool","name":"_withUpdate","type":"bool"}],"name":"setPoolWeight","outputs":[],"stateMutability":"nonpayable","type":"function"},{"inputs":[{"internalType":"contract IERC20","name":"_RCC","type":"address"}],"name":"setRCC","outputs":[],"stateMutability":"nonpayable","type":"function"},{"inputs":[{"internalType":"uint256","name":"_rccPerBlock","type":"uint256"}],"name":"setRCCPerBlock","outputs":[],"stateMutability":"nonpayable","type":"function"},{"inputs":[{"internalType":"uint256","name":"_startBlock","type":"uint256"}],"name":"setStartBlock","outputs":[],"stateMutability":"nonpayable","type":"function"},{"inputs":[{"internalType":"uint256","name":"_pid","type":"uint256"},{"internalType":"address","name":"_user","type":"address"}],"name":"stakingBalance","outputs":[{"internalType":"uint256","name":"","type":"uint256"}],"stateMutability":"view","type":"function"},{"inputs":[],"name":"startBlock","outputs":[{"internalType":"uint256","name":"","type":"uint256"}],"stateMutability":"view","type":"function"},{"inputs":[{"internalType":"bytes4","name":"interfaceId","type":"bytes4"}],"name":"supportsInterface","outputs":[{"internalType":"bool","name":"","type":"bool"}],"stateMutability":"view","type":"function"},{"inputs":[],"name":"totalPoolWeight","outputs":[{"internalType":"uint256","name":"","type":"uint256"}],"stateMutability":"view","type":"function"},{"inputs":[],"name":"unpPauseWithdraw","outputs":[],"stateMutability":"nonpayable","type":"function"},{"inputs":[],"name":"unpauseClaim","outputs":[],"stateMutability":"nonpayable","type":"function"},{"inputs":[{"internalType":"uint256","name":"_pid","type":"uint256"},{"internalType":"uint256","name":"_amount","type":"uint256"}],"name":"unstake","outputs":[],"stateMutability":"nonpayable","type":"function"},{"inputs":[{"internalType":"uint256","name":"_pid","type":"uint256"}],"name":"updatePool","outputs":[],"stateMutability":"nonpayable","type":"function"},{"inputs":[{"internalType":"uint256","name":"_poolId","type":"uint256"},{"internalType":"uint256","name":"_minDepositAmount","type":"uint256"},{"internalType":"uint256","name":"_unStakeLockedBlocks","type":"uint256"}],"name":"updatePool","outputs":[],"stateMutability":"nonpayable","type":"function"},{"inputs":[{"internalType":"address","name":"newImplementation","type":"address"},{"internalType":"bytes","name":"data","type":"bytes"}],"name":"upgradeToAndCall","outputs":[],"stateMutability":"payable","type":"function"},{"inputs":[{"internalType":"uint256","name":"","type":"uint256"},{"internalType":"address","name":"","type":"address"}],"name":"user","outputs":[{"internalType":"uint256","name":"stakeAmount","type":"uint256"},{"internalType":"uint256","name":"finishedRewards","type":"uint256"},{"internalType":"uint256","name":"pendingRewards","type":"uint256"}],"stateMutability":"view","type":"function"},{"inputs":[{"internalType":"uint256","name":"_pid","type":"uint256"}],"name":"withdraw","outputs":[],"stateMutability":"nonpayable","type":"function"},{"inputs":[{"internalType":"uint256","name":"_poolId","type":"uint256"},{"internalType":"address","name":"_user","type":"address"}],"name":"withdrawAmount","outputs":[{"internalType":"uint256","name":"requestAmount","type":"uint256"},{"internalType":"uint256","name":"pendingWithdrawAmount","type":"uint256"}],"stateMutability":"view","type":"function"},{"inputs":[],"name":"withdrawPaused","outputs":[{"internalType":"bool","name":"","type":"bool"}],"stateMutability":"view","type":"function"},{"stateMutability":"payable","type":"receive"}],"evm":{"bytecode":{"linkReferences":{},"object":"60a06040523073ffffffffffffffffffffffffffffffffffffffff1660809073ffffffffffffffffffffffffffffffffffffffff1681525034801561004357600080fd5b506080516160da6200006e600039600081816138b80152818161390d0152613ba301526160da6000f3fe6080604052600436106102975760003560e01c806391d148541161015a578063c397920e116100c1578063f35e4a6e1161007a578063f35e4a6e146109b3578063f5485d32146109dc578063f6326fb314610a05578063fad07ece14610a0f578063fe31311214610a38578063ff42335714610a7b5761029e565b8063c397920e146108e1578063c713aa94146108f8578063d547741f14610921578063d86c04441461094a578063de065caa14610973578063e2bbb1581461098a5761029e565b8063ad3cb1cc11610113578063ad3cb1cc146107e3578063b3944d521461080e578063b6d9d91914610839578063b908afa814610862578063bed66c081461088d578063bfc3ebba146108b65761029e565b806391d14854146106bf5780639e2c8a5b146106fc578063a217fddf14610725578063a27d927914610750578063a72d5bf41461078d578063ab5e124a146107b85761029e565b806348cd4cb1116101fe5780636155e3de116101b75780636155e3de146105e7578063630b5ba1146105fe57806370ff01731461061557806375b238fc146106405780638dbb1e3a1461066b5780638ff095f9146106a85761029e565b806348cd4cb1146104f85780634ec81af1146105235780634f1ef2861461054c57806351eb05a61461056857806352d1902d146105915780635c975abb146105bc5761029e565b80632f2ff15d116102505780632f2ff15d146103d65780632f3ffb9f146103ff57806336568abe1461042a57806337849b3c14610453578063379607f51461049257806341721ab7146104bb5761029e565b806301ffc9a7146102a057806302559004146102dd578063083c6323146103085780631154823414610333578063248a9ca3146103705780632e1a7d4d146103ad5761029e565b3661029e57005b005b3480156102ac57600080fd5b506102c760048036038101906102c291906145b8565b610ab9565b6040516102d49190614600565b60405180910390f35b3480156102e957600080fd5b506102f2610b33565b6040516102ff9190614634565b60405180910390f35b34801561031457600080fd5b5061031d610b39565b60405161032a9190614634565b60405180910390f35b34801561033f57600080fd5b5061035a600480360381019061035591906146d9565b610b3f565b6040516103679190614634565b60405180910390f35b34801561037c57600080fd5b506103976004803603810190610392919061474f565b610be6565b6040516103a4919061478b565b60405180910390f35b3480156103b957600080fd5b506103d460048036038101906103cf91906147a6565b610c14565b005b3480156103e257600080fd5b506103fd60048036038101906103f891906147d3565b610fc6565b005b34801561040b57600080fd5b50610414610fe8565b6040516104219190614600565b60405180910390f35b34801561043657600080fd5b50610451600480360381019061044c91906147d3565b610ffb565b005b34801561045f57600080fd5b5061047a600480360381019061047591906146d9565b611076565b60405161048993929190614813565b60405180910390f35b34801561049e57600080fd5b506104b960048036038101906104b491906147a6565b6110ad565b005b3480156104c757600080fd5b506104e260048036038101906104dd919061484a565b6112a9565b6040516104ef9190614634565b60405180910390f35b34801561050457600080fd5b5061050d6113ff565b60405161051a9190614634565b60405180910390f35b34801561052f57600080fd5b5061054a600480360381019061054591906148db565b611405565b005b61056660048036038101906105619190614a88565b6116a6565b005b34801561057457600080fd5b5061058f600480360381019061058a91906147a6565b6116c5565b005b34801561059d57600080fd5b506105a66119b1565b6040516105b3919061478b565b60405180910390f35b3480156105c857600080fd5b506105d16119e4565b6040516105de9190614600565b60405180910390f35b3480156105f357600080fd5b506105fc611a09565b005b34801561060a57600080fd5b50610613611acc565b005b34801561062157600080fd5b5061062a611afb565b6040516106379190614634565b60405180910390f35b34801561064c57600080fd5b50610655611b01565b604051610662919061478b565b60405180910390f35b34801561067757600080fd5b50610692600480360381019061068d9190614ae4565b611b25565b60405161069f9190614634565b60405180910390f35b3480156106b457600080fd5b506106bd611c49565b005b3480156106cb57600080fd5b506106e660048036038101906106e191906147d3565b611d0d565b6040516106f39190614600565b60405180910390f35b34801561070857600080fd5b50610723600480360381019061071e9190614ae4565b611d86565b005b34801561073157600080fd5b5061073a612160565b604051610747919061478b565b60405180910390f35b34801561075c57600080fd5b50610777600480360381019061077291906146d9565b612167565b6040516107849190614634565b60405180910390f35b34801561079957600080fd5b506107a26121c5565b6040516107af9190614b83565b60405180910390f35b3480156107c457600080fd5b506107cd6121eb565b6040516107da9190614600565b60405180910390f35b3480156107ef57600080fd5b506107f86121fe565b6040516108059190614c1d565b60405180910390f35b34801561081a57600080fd5b50610823612237565b6040516108309190614634565b60405180910390f35b34801561084557600080fd5b50610860600480360381019061085b9190614c6b565b612244565b005b34801561086e57600080fd5b506108776125c1565b604051610884919061478b565b60405180910390f35b34801561089957600080fd5b506108b460048036038101906108af91906147a6565b6125e5565b005b3480156108c257600080fd5b506108cb61268a565b6040516108d89190614634565b60405180910390f35b3480156108ed57600080fd5b506108f661268f565b005b34801561090457600080fd5b5061091f600480360381019061091a91906147a6565b612753565b005b34801561092d57600080fd5b50610948600480360381019061094391906147d3565b6127fa565b005b34801561095657600080fd5b50610971600480360381019061096c9190614ce6565b61281c565b005b34801561097f57600080fd5b5061098861295f565b005b34801561099657600080fd5b506109b160048036038101906109ac9190614ae4565b612a22565b005b3480156109bf57600080fd5b506109da60048036038101906109d591906147a6565b612bd4565b005b3480156109e857600080fd5b50610a0360048036038101906109fe9190614d39565b612c7b565b005b610a0d612d4f565b005b348015610a1b57600080fd5b50610a366004803603810190610a319190614d66565b612e6c565b005b348015610a4457600080fd5b50610a5f6004803603810190610a5a91906147a6565b613030565b604051610a729796959493929190614dc8565b60405180910390f35b348015610a8757600080fd5b50610aa26004803603810190610a9d91906146d9565b6130a2565b604051610ab0929190614e37565b60405180910390f35b60007f7965db0b000000000000000000000000000000000000000000000000000000007bffffffffffffffffffffffffffffffffffffffffffffffffffffffff1916827bffffffffffffffffffffffffffffffffffffffffffffffffffffffff19161480610b2c5750610b2b82613203565b5b9050919050565b60045481565b60015481565b6000826005805490508110610b89576040517f08c379a0000000000000000000000000000000000000000000000000000000008152600401610b8090614eac565b60405180910390fd5b6006600085815260200190815260200160002060008473ffffffffffffffffffffffffffffffffffffffff1673ffffffffffffffffffffffffffffffffffffffff1681526020019081526020016000206000015491505092915050565b600080610bf161326d565b905080600001600084815260200190815260200160002060010154915050919050565b610c1c613295565b600360009054906101000a900460ff1615610c6c576040517f08c379a0000000000000000000000000000000000000000000000000000000008152600401610c6390614f18565b60405180910390fd5b806005805490508110610cb4576040517f08c379a0000000000000000000000000000000000000000000000000000000008152600401610cab90614eac565b60405180910390fd5b600060058381548110610cca57610cc9614f38565b5b9060005260206000209060070201905060006006600085815260200190815260200160002060003373ffffffffffffffffffffffffffffffffffffffff1673ffffffffffffffffffffffffffffffffffffffff168152602001908152602001600020905060008060005b8360030180549050811015610dc15743846003018281548110610d5a57610d59614f38565b5b90600052602060002090600202016001015411610dc157836003018181548110610d8757610d86614f38565b5b90600052602060002090600202016000015483610da49190614f96565b92508180610db190614fca565b9250508080600101915050610d34565b5060005b818460030180549050610dd89190615012565b811015610e5657836003018282610def9190614f96565b81548110610e0057610dff614f38565b5b9060005260206000209060020201846003018281548110610e2457610e23614f38565b5b906000526020600020906002020160008201548160000155600182015481600101559050508080600101915050610dc5565b5060005b81811015610eac5783600301805480610e7657610e75615046565b5b60019003818190600052602060002090600202016000808201600090556001820160009055505090558080600101915050610e5a565b506000821115610f6e57600073ffffffffffffffffffffffffffffffffffffffff168460000160009054906101000a900473ffffffffffffffffffffffffffffffffffffffff1673ffffffffffffffffffffffffffffffffffffffff1603610f1d57610f1833836132d6565b610f6d565b610f6c33838660000160009054906101000a900473ffffffffffffffffffffffffffffffffffffffff1673ffffffffffffffffffffffffffffffffffffffff166133e89092919063ffffffff16565b5b5b43863373ffffffffffffffffffffffffffffffffffffffff167f02f25270a4d87bea75db541cdfe559334a275b4a233520ed6c0a2429667cca9485604051610fb69190614634565b60405180910390a4505050505050565b610fcf82610be6565b610fd881613467565b610fe2838361347b565b50505050565b600360009054906101000a900460ff1681565b61100361357c565b73ffffffffffffffffffffffffffffffffffffffff168173ffffffffffffffffffffffffffffffffffffffff1614611067576040517f6697b23200000000000000000000000000000000000000000000000000000000815260040160405180910390fd5b6110718282613584565b505050565b6006602052816000526040600020602052806000526040600020600091509150508060000154908060010154908060020154905083565b6110b5613295565b8060058054905081106110fd576040517f08c379a00000000000000000000000000000000000000000000000000000000081526004016110f490614eac565b60405180910390fd5b600360019054906101000a900460ff161561114d576040517f08c379a0000000000000000000000000000000000000000000000000000000008152600401611144906150c1565b60405180910390fd5b60006005838154811061116357611162614f38565b5b9060005260206000209060070201905060006006600085815260200190815260200160002060003373ffffffffffffffffffffffffffffffffffffffff1673ffffffffffffffffffffffffffffffffffffffff16815260200190815260200160002090506111d0846116c5565b600081600201548260010154846003015484600001546111f091906150e1565b6111fa9190615012565b6112049190614f96565b9050600081111561122457600082600201819055506112233382613686565b5b670de0b6b3a76400008360030154836000015461124191906150e1565b61124b9190615152565b8260010181905550843373ffffffffffffffffffffffffffffffffffffffff167f34fcbac0073d7c3d388e51312faf357774904998eeb8fca628b9e6f65ee1cbf78360405161129a9190614634565b60405180910390a35050505050565b600080600585815481106112c0576112bf614f38565b5b9060005260206000209060070201905060006006600087815260200190815260200160002060008673ffffffffffffffffffffffffffffffffffffffff1673ffffffffffffffffffffffffffffffffffffffff168152602001908152602001600020905060008260030154905060008360040154905083600201548610801561134a575060008114155b156113b157600061135f856002015488611b25565b9050600060045486600101548361137691906150e1565b6113809190615152565b905082670de0b6b3a76400008261139791906150e1565b6113a19190615152565b846113ac9190614f96565b935050505b82600201548360010154670de0b6b3a76400008486600001546113d491906150e1565b6113de9190615152565b6113e89190615012565b6113f29190614f96565b9450505050509392505050565b60005481565b600061140f61387a565b905060008160000160089054906101000a900460ff1615905060008260000160009054906101000a900467ffffffffffffffff1690506000808267ffffffffffffffff1614801561145d5750825b9050600060018367ffffffffffffffff16148015611492575060003073ffffffffffffffffffffffffffffffffffffffff163b145b9050811580156114a0575080155b156114d7576040517ff92ee8a900000000000000000000000000000000000000000000000000000000815260040160405180910390fd5b60018560000160006101000a81548167ffffffffffffffff021916908367ffffffffffffffff16021790555083156115275760018560000160086101000a81548160ff0219169083151502179055505b8688111561156a576040517f08c379a0000000000000000000000000000000000000000000000000000000008152600401611561906151f5565b60405180910390fd5b600086116115ad576040517f08c379a00000000000000000000000000000000000000000000000000000000081526004016115a490615287565b60405180910390fd5b6115b56138a2565b6115bd6138ac565b6115ca6000801b3361347b565b506115f57ff47fc0c09ebbfe308d89b8035681a1164b9882bcfd49eb89861067738a30f5ab3361347b565b506116207f589d473ba17c0f47d494622893831497bad25919b9afb8e33e9521b8963fccde3361347b565b5061162a89612c7b565b876000819055508660018190555085600281905550831561169b5760008560000160086101000a81548160ff0219169083151502179055507fc7f505b2f371ae2175ee4913f4499e1f2633a7b5936321eed1cdaeb6115181d2600160405161169291906152f6565b60405180910390a15b505050505050505050565b6116ae6138b6565b6116b78261399c565b6116c182826139ca565b5050565b80600580549050811061170d576040517f08c379a000000000000000000000000000000000000000000000000000000000815260040161170490614eac565b60405180910390fd5b60006005838154811061172357611722614f38565b5b906000526020600020906007020190508060020154431161174457506119ad565b600081600401549050600081036117655743826002018190555050506119ad565b60008061178c846001015461177e866002015443611b25565b613ae990919063ffffffff16565b91509150816117d0576040517f08c379a00000000000000000000000000000000000000000000000000000000081526004016117c79061535d565b60405180910390fd5b6117e560045482613b3c90919063ffffffff16565b80925081935050508161182d576040517f08c379a00000000000000000000000000000000000000000000000000000000081526004016118249061535d565b60405180910390fd5b600084600401549050600081111561196157600080611856600185613ae990919063ffffffff16565b915091508161189a576040517f08c379a00000000000000000000000000000000000000000000000000000000081526004016118919061535d565b60405180910390fd5b6118ad8382613b3c90919063ffffffff16565b8092508193505050816118f5576040517f08c379a00000000000000000000000000000000000000000000000000000000081526004016118ec9061535d565b60405180910390fd5b60008061190f838a60030154613b7290919063ffffffff16565b9150915081611953576040517f08c379a000000000000000000000000000000000000000000000000000000000815260040161194a9061535d565b60405180910390fd5b808960030181905550505050505b4385600201819055508460020154877ff5d2d72d9b25d6853afd7d0554a113b705234b6a68bb36b7f1436629946324118460405161199f9190614634565b60405180910390a350505050505b5050565b60006119bb613ba1565b7f360894a13ba1a3210667c828492db98dca3e2076cc3735a920a3ca505d382bbc60001b905090565b6000806119ef613c28565b90508060000160009054906101000a900460ff1691505090565b7f589d473ba17c0f47d494622893831497bad25919b9afb8e33e9521b8963fccde611a3381613467565b600360009054906101000a900460ff16611a82576040517f08c379a0000000000000000000000000000000000000000000000000000000008152600401611a79906153ef565b60405180910390fd5b6001600360006101000a81548160ff0219169083151502179055507f2523dfdafa00190f21a4cbd0c25179c8dd3cb34a6c17fea952ecca8fa8332c0e60405160405180910390a150565b6000600580549050905060005b81811015611af757611aea816116c5565b8080600101915050611ad9565b5050565b60025481565b7f589d473ba17c0f47d494622893831497bad25919b9afb8e33e9521b8963fccde81565b600081831115611b6a576040517f08c379a0000000000000000000000000000000000000000000000000000000008152600401611b619061545b565b60405180910390fd5b600054831015611b7a5760005492505b600154821115611b8a5760015491505b60008383611b989190615012565b11611bd8576040517f08c379a0000000000000000000000000000000000000000000000000000000008152600401611bcf9061545b565b60405180910390fd5b6000611bfa6002548585611bec9190615012565b613ae990919063ffffffff16565b809350819250505080611c42576040517f08c379a0000000000000000000000000000000000000000000000000000000008152600401611c39906154c7565b60405180910390fd5b5092915050565b7f589d473ba17c0f47d494622893831497bad25919b9afb8e33e9521b8963fccde611c7381613467565b600360019054906101000a900460ff1615611cc3576040517f08c379a0000000000000000000000000000000000000000000000000000000008152600401611cba90615533565b60405180910390fd5b6001600360016101000a81548160ff0219169083151502179055507f443bf540e8151617cd5c39a681cc35a5a22be078b6f0cf16e5bd822b4c4b61ff60405160405180910390a150565b600080611d1861326d565b905080600001600085815260200190815260200160002060000160008473ffffffffffffffffffffffffffffffffffffffff1673ffffffffffffffffffffffffffffffffffffffff16815260200190815260200160002060009054906101000a900460ff1691505092915050565b611d8e613295565b600360009054906101000a900460ff1615611dde576040517f08c379a0000000000000000000000000000000000000000000000000000000008152600401611dd590614f18565b60405180910390fd5b816005805490508110611e26576040517f08c379a0000000000000000000000000000000000000000000000000000000008152600401611e1d90614eac565b60405180910390fd5b600060058481548110611e3c57611e3b614f38565b5b9060005260206000209060070201905060006006600086815260200190815260200160002060003373ffffffffffffffffffffffffffffffffffffffff1673ffffffffffffffffffffffffffffffffffffffff16815260200190815260200160002090508381600001541015611ee7576040517f08c379a0000000000000000000000000000000000000000000000000000000008152600401611ede9061559f565b60405180910390fd5b611ef0856116c5565b600080611f0e84600301548460000154613ae990919063ffffffff16565b9150915081611f52576040517f08c379a0000000000000000000000000000000000000000000000000000000008152600401611f499061535d565b60405180910390fd5b611f66600182613b3c90919063ffffffff16565b809250819350505081611fae576040517f08c379a0000000000000000000000000000000000000000000000000000000008152600401611fa59061560b565b60405180910390fd5b611fc5836001015482613c5090919063ffffffff16565b80925081935050508161200d576040517f08c379a000000000000000000000000000000000000000000000000000000000815260040161200490615677565b60405180910390fd5b6000811115612032578083600201600082825461202a9190614f96565b925050819055505b60008611156120be578583600001600082825461204f9190615012565b9250508190555082600301604051806040016040528088815260200186600601544361207b9190614f96565b8152509080600181540180825580915050600190039060005260206000209060020201600090919091909150600082015181600001556020820151816001015550505b858460040160008282546120d29190615012565b92505081905550670de0b6b3a7640000846003015484600001546120f691906150e1565b6121009190615152565b8360010181905550863373ffffffffffffffffffffffffffffffffffffffff167fc80277265097707f6f12a4ac4c09d46c9926e2eea2536f63616cb04d9fcad7d68860405161214f9190614634565b60405180910390a350505050505050565b6000801b81565b60008260058054905081106121b1576040517f08c379a00000000000000000000000000000000000000000000000000000000081526004016121a890614eac565b60405180910390fd5b6121bc8484436112a9565b91505092915050565b600360029054906101000a900473ffffffffffffffffffffffffffffffffffffffff1681565b600360019054906101000a900460ff1681565b6040518060400160405280600581526020017f352e302e3000000000000000000000000000000000000000000000000000000081525081565b6000600580549050905090565b7f589d473ba17c0f47d494622893831497bad25919b9afb8e33e9521b8963fccde61226e81613467565b6000600580549050111561233657600073ffffffffffffffffffffffffffffffffffffffff1660056000815481106122a9576122a8614f38565b5b906000526020600020906007020160000160009054906101000a900473ffffffffffffffffffffffffffffffffffffffff1673ffffffffffffffffffffffffffffffffffffffff1614612331576040517f08c379a0000000000000000000000000000000000000000000000000000000008152600401612328906156e3565b60405180910390fd5b6123a6565b600073ffffffffffffffffffffffffffffffffffffffff168673ffffffffffffffffffffffffffffffffffffffff16146123a5576040517f08c379a000000000000000000000000000000000000000000000000000000000815260040161239c906156e3565b60405180910390fd5b5b600083116123e9576040517f08c379a00000000000000000000000000000000000000000000000000000000081526004016123e09061574f565b60405180910390fd5b600154431061242d576040517f08c379a0000000000000000000000000000000000000000000000000000000008152600401612424906157bb565b60405180910390fd5b811561243c5761243b611acc565b5b60008054431161244e57600054612450565b435b905085600460008282546124649190614f96565b9250508190555060056040518060e001604052808973ffffffffffffffffffffffffffffffffffffffff168152602001888152602001838152602001600081526020016000815260200187815260200186815250908060018154018082558091505060019003906000526020600020906007020160009091909190915060008201518160000160006101000a81548173ffffffffffffffffffffffffffffffffffffffff021916908373ffffffffffffffffffffffffffffffffffffffff1602179055506020820151816001015560408201518160020155606082015181600301556080820151816004015560a0820151816005015560c08201518160060155505080868873ffffffffffffffffffffffffffffffffffffffff167f0fa296fce13e7a0e622b3a892e66220c248337289483a3cfa4130cde0caa134688886040516125b0929190614e37565b60405180910390a450505050505050565b7ff47fc0c09ebbfe308d89b8035681a1164b9882bcfd49eb89861067738a30f5ab81565b7f589d473ba17c0f47d494622893831497bad25919b9afb8e33e9521b8963fccde61260f81613467565b60008211612652576040517f08c379a000000000000000000000000000000000000000000000000000000000815260040161264990615287565b60405180910390fd5b81600281905550817f4c70925b625536dd633f6bd2d615c67fddc2e7c63c31164047a981a0df3fee5460405160405180910390a25050565b600081565b7f589d473ba17c0f47d494622893831497bad25919b9afb8e33e9521b8963fccde6126b981613467565b600360009054906101000a900460ff1615612709576040517f08c379a000000000000000000000000000000000000000000000000000000000815260040161270090615827565b60405180910390fd5b6000600360006101000a81548160ff0219169083151502179055507f027c975733baceca09666fae356a901e083676848aaf9710150079385daae74360405160405180910390a150565b7f589d473ba17c0f47d494622893831497bad25919b9afb8e33e9521b8963fccde61277d81613467565b8160005411156127c2576040517f08c379a00000000000000000000000000000000000000000000000000000000081526004016127b9906151f5565b60405180910390fd5b81600181905550817f1132c5baccb51da3d049fabc819697dc845fa224ad59d9b555507d6446b4085060405160405180910390a25050565b61280382610be6565b61280c81613467565b6128168383613584565b50505050565b826005805490508110612864576040517f08c379a000000000000000000000000000000000000000000000000000000000815260040161285b90614eac565b60405180910390fd5b7f589d473ba17c0f47d494622893831497bad25919b9afb8e33e9521b8963fccde61288e81613467565b60058054905085106128d5576040517f08c379a00000000000000000000000000000000000000000000000000000000081526004016128cc90615893565b60405180910390fd5b83600586815481106128ea576128e9614f38565b5b906000526020600020906007020160050181905550826005868154811061291457612913614f38565b5b9060005260206000209060070201600601819055508284867f30dffdedaa3e3b4849298233f7cd71d229956e875ab09270498c96b7cf9181fd60405160405180910390a45050505050565b7f589d473ba17c0f47d494622893831497bad25919b9afb8e33e9521b8963fccde61298981613467565b600360019054906101000a900460ff166129d8576040517f08c379a00000000000000000000000000000000000000000000000000000000081526004016129cf90615533565b60405180910390fd5b6000600360016101000a81548160ff0219169083151502179055507f07c8faf23a72a53eb5c2c466dc81386a58b2a27d0cc3c7c580a3c12e372ba31360405160405180910390a150565b600360009054906101000a900460ff1615612a72576040517f08c379a0000000000000000000000000000000000000000000000000000000008152600401612a6990614f18565b60405180910390fd5b816005805490508110612aba576040517f08c379a0000000000000000000000000000000000000000000000000000000008152600401612ab190614eac565b60405180910390fd5b60008303612afd576040517f08c379a0000000000000000000000000000000000000000000000000000000008152600401612af4906158ff565b60405180910390fd5b600060058481548110612b1357612b12614f38565b5b9060005260206000209060070201905080600501548311612b69576040517f08c379a0000000000000000000000000000000000000000000000000000000008152600401612b609061596b565b60405180910390fd5b6000831115612bc457612bc33330858460000160009054906101000a900473ffffffffffffffffffffffffffffffffffffffff1673ffffffffffffffffffffffffffffffffffffffff16613c78909392919063ffffffff16565b5b612bce8484613cfa565b50505050565b7f589d473ba17c0f47d494622893831497bad25919b9afb8e33e9521b8963fccde612bfe81613467565b600154821115612c43576040517f08c379a0000000000000000000000000000000000000000000000000000000008152600401612c3a906151f5565b60405180910390fd5b81600081905550817f63b90b79f11a0f132bcb2c4a4ddd44abda45c1308a83b2919318df7f5f8b7be460405160405180910390a25050565b7f589d473ba17c0f47d494622893831497bad25919b9afb8e33e9521b8963fccde612ca581613467565b81600360026101000a81548173ffffffffffffffffffffffffffffffffffffffff021916908373ffffffffffffffffffffffffffffffffffffffff160217905550600360029054906101000a900473ffffffffffffffffffffffffffffffffffffffff1673ffffffffffffffffffffffffffffffffffffffff167f153aae53b92218044bd5f43922617c6b253e50ac98a41b44c3acb5625ded348860405160405180910390a25050565b612d57613295565b60006005600081548110612d6e57612d6d614f38565b5b90600052602060002090600702019050600073ffffffffffffffffffffffffffffffffffffffff168160000160009054906101000a900473ffffffffffffffffffffffffffffffffffffffff1673ffffffffffffffffffffffffffffffffffffffff1614612e11576040517f08c379a0000000000000000000000000000000000000000000000000000000008152600401612e08906159d7565b60405180910390fd5b60003490508160050154811015612e5d576040517f08c379a0000000000000000000000000000000000000000000000000000000008152600401612e549061596b565b60405180910390fd5b612e68600082613cfa565b5050565b7f589d473ba17c0f47d494622893831497bad25919b9afb8e33e9521b8963fccde612e9681613467565b6005805490508410612edd576040517f08c379a0000000000000000000000000000000000000000000000000000000008152600401612ed490615893565b60405180910390fd5b60008311612f20576040517f08c379a0000000000000000000000000000000000000000000000000000000008152600401612f1790615a43565b60405180910390fd5b8115612f2f57612f2e611acc565b5b600080612f4785600454613b7290919063ffffffff16565b9150915081612f8b576040517f08c379a0000000000000000000000000000000000000000000000000000000008152600401612f8290615aaf565b60405180910390fd5b60058681548110612f9f57612f9e614f38565b5b90600052602060002090600702016001015481612fbc9190615012565b6004819055508460058781548110612fd757612fd6614f38565b5b906000526020600020906007020160010181905550857f4b8fa3d6a87cb21d1bf4978bf60628ae358a28ac7f39de1751a481c6dd95761786600454604051613020929190614e37565b60405180910390a2505050505050565b6005818154811061304057600080fd5b90600052602060002090600702016000915090508060000160009054906101000a900473ffffffffffffffffffffffffffffffffffffffff16908060010154908060020154908060030154908060040154908060050154908060060154905087565b6000808360058054905081106130ed576040517f08c379a00000000000000000000000000000000000000000000000000000000081526004016130e490614eac565b60405180910390fd5b60006006600087815260200190815260200160002060008673ffffffffffffffffffffffffffffffffffffffff1673ffffffffffffffffffffffffffffffffffffffff168152602001908152602001600020905060005b81600301805490508110156131f9574382600301828154811061316a57613169614f38565b5b906000526020600020906002020160010154116131b75781600301818154811061319757613196614f38565b5b906000526020600020906002020160000154846131b49190614f96565b93505b8160030181815481106131cd576131cc614f38565b5b906000526020600020906002020160000154856131ea9190614f96565b94508080600101915050613144565b5050509250929050565b60007f01ffc9a7000000000000000000000000000000000000000000000000000000007bffffffffffffffffffffffffffffffffffffffffffffffffffffffff1916827bffffffffffffffffffffffffffffffffffffffffffffffffffffffff1916149050919050565b60007f02dd7bc7dec4dceedda775e58dd541e08a116c6c53815c0bd028192f7b626800905090565b61329d6119e4565b156132d4576040517fd93c066500000000000000000000000000000000000000000000000000000000815260040160405180910390fd5b565b6000808373ffffffffffffffffffffffffffffffffffffffff16836040516132fd90615b00565b60006040518083038185875af1925050503d806000811461333a576040519150601f19603f3d011682016040523d82523d6000602084013e61333f565b606091505b509150915081613384576040517f08c379a000000000000000000000000000000000000000000000000000000000815260040161337b90615b61565b60405180910390fd5b6000815111156133e257808060200190518101906133a29190615b96565b6133e1576040517f08c379a00000000000000000000000000000000000000000000000000000000081526004016133d890615c35565b60405180910390fd5b5b50505050565b613462838473ffffffffffffffffffffffffffffffffffffffff1663a9059cbb858560405160240161341b929190615c55565b604051602081830303815290604052915060e01b6020820180517bffffffffffffffffffffffffffffffffffffffffffffffffffffffff83818316178352505050506140c3565b505050565b6134788161347361357c565b614165565b50565b60008061348661326d565b90506134928484611d0d565b61357057600181600001600086815260200190815260200160002060000160008573ffffffffffffffffffffffffffffffffffffffff1673ffffffffffffffffffffffffffffffffffffffff16815260200190815260200160002060006101000a81548160ff02191690831515021790555061350c61357c565b73ffffffffffffffffffffffffffffffffffffffff168373ffffffffffffffffffffffffffffffffffffffff16857f2f8788117e7eff1d82e926ec794901d17c78024a50270940304540a733656f0d60405160405180910390a46001915050613576565b60009150505b92915050565b600033905090565b60008061358f61326d565b905061359b8484611d0d565b1561367a57600081600001600086815260200190815260200160002060000160008573ffffffffffffffffffffffffffffffffffffffff1673ffffffffffffffffffffffffffffffffffffffff16815260200190815260200160002060006101000a81548160ff02191690831515021790555061361661357c565b73ffffffffffffffffffffffffffffffffffffffff168373ffffffffffffffffffffffffffffffffffffffff16857ff6391f5c32d9c69d2a47ea670b442974b53935d1edc7fd64eb21e047a839171b60405160405180910390a46001915050613680565b60009150505b92915050565b6000600360029054906101000a900473ffffffffffffffffffffffffffffffffffffffff1673ffffffffffffffffffffffffffffffffffffffff166370a08231306040518263ffffffff1660e01b81526004016136e39190615c7e565b602060405180830381865afa158015613700573d6000803e3d6000fd5b505050506040513d601f19601f820116820180604052508101906137249190615cae565b90508082116137d357600360029054906101000a900473ffffffffffffffffffffffffffffffffffffffff1673ffffffffffffffffffffffffffffffffffffffff1663a9059cbb84846040518363ffffffff1660e01b815260040161378a929190615c55565b6020604051808303816000875af11580156137a9573d6000803e3d6000fd5b505050506040513d601f19601f820116820180604052508101906137cd9190615b96565b50613875565b600360029054906101000a900473ffffffffffffffffffffffffffffffffffffffff1673ffffffffffffffffffffffffffffffffffffffff1663a9059cbb84836040518363ffffffff1660e01b8152600401613830929190615c55565b6020604051808303816000875af115801561384f573d6000803e3d6000fd5b505050506040513d601f19601f820116820180604052508101906138739190615b96565b505b505050565b60007ff0c57e16840df040f15088dc2f81fe391c3923bec73e23a9662efc9c229c6a00905090565b6138aa6141b6565b565b6138b46141b6565b565b7f000000000000000000000000000000000000000000000000000000000000000073ffffffffffffffffffffffffffffffffffffffff163073ffffffffffffffffffffffffffffffffffffffff16148061396357507f000000000000000000000000000000000000000000000000000000000000000073ffffffffffffffffffffffffffffffffffffffff1661394a6141f6565b73ffffffffffffffffffffffffffffffffffffffff1614155b1561399a576040517fe07c8dba00000000000000000000000000000000000000000000000000000000815260040160405180910390fd5b565b7ff47fc0c09ebbfe308d89b8035681a1164b9882bcfd49eb89861067738a30f5ab6139c681613467565b5050565b8173ffffffffffffffffffffffffffffffffffffffff166352d1902d6040518163ffffffff1660e01b8152600401602060405180830381865afa925050508015613a3257506040513d601f19601f82011682018060405250810190613a2f9190615cf0565b60015b613a7357816040517f4c9c8ce3000000000000000000000000000000000000000000000000000000008152600401613a6a9190615c7e565b60405180910390fd5b7f360894a13ba1a3210667c828492db98dca3e2076cc3735a920a3ca505d382bbc60001b8114613ada57806040517faa1d49a4000000000000000000000000000000000000000000000000000000008152600401613ad1919061478b565b60405180910390fd5b613ae4838361424d565b505050565b60008060008403613b01576001600091509150613b35565b6000838502905083858281613b1957613b18615123565b5b0414613b2c576000809250925050613b35565b60018192509250505b9250929050565b60008060008303613b535760008091509150613b6b565b6001838581613b6557613b64615123565b5b04915091505b9250929050565b6000806000838501905084811015613b91576000809250925050613b9a565b60018192509250505b9250929050565b7f000000000000000000000000000000000000000000000000000000000000000073ffffffffffffffffffffffffffffffffffffffff163073ffffffffffffffffffffffffffffffffffffffff1614613c26576040517fe07c8dba00000000000000000000000000000000000000000000000000000000815260040160405180910390fd5b565b60007fcd5ed15c6e187e77e9aee88184c21f4f2182ab5827cb3b7e07fbedcd63f03300905090565b60008083831115613c675760008091509150613c71565b6001838503915091505b9250929050565b613cf4848573ffffffffffffffffffffffffffffffffffffffff166323b872dd868686604051602401613cad93929190615d1d565b604051602081830303815290604052915060e01b6020820180517bffffffffffffffffffffffffffffffffffffffffffffffffffffffff83818316178352505050506140c3565b50505050565b600060058381548110613d1057613d0f614f38565b5b9060005260206000209060070201905060006006600085815260200190815260200160002060003373ffffffffffffffffffffffffffffffffffffffff1673ffffffffffffffffffffffffffffffffffffffff1681526020019081526020016000209050613d7d846116c5565b600081600001541115613f2557600080613da884600301548460000154613ae990919063ffffffff16565b9150915081613dec576040517f08c379a0000000000000000000000000000000000000000000000000000000008152600401613de390615da0565b60405180910390fd5b613e07670de0b6b3a764000082613b3c90919063ffffffff16565b809250819350505081613e4f576040517f08c379a0000000000000000000000000000000000000000000000000000000008152600401613e4690615e32565b60405180910390fd5b600080613e69856001015484613c5090919063ffffffff16565b9150915081613ead576040517f08c379a0000000000000000000000000000000000000000000000000000000008152600401613ea490615e9e565b60405180910390fd5b6000811115613f2057600080613ed0838860020154613b7290919063ffffffff16565b9150915081613f14576040517f08c379a0000000000000000000000000000000000000000000000000000000008152600401613f0b90615e9e565b60405180910390fd5b80876002018190555050505b505050505b6000831115613f9857600080613f48836000015486613b7290919063ffffffff16565b9150915081613f8c576040517f08c379a0000000000000000000000000000000000000000000000000000000008152600401613f8390615f0a565b60405180910390fd5b80836000018190555050505b600080613fb2858560040154613b7290919063ffffffff16565b9150915081613ff6576040517f08c379a0000000000000000000000000000000000000000000000000000000008152600401613fed90615f76565b60405180910390fd5b80846004018190555060008061401d86600301548660000154613ae990919063ffffffff16565b9150915081614061576040517f08c379a000000000000000000000000000000000000000000000000000000000815260040161405890616008565b60405180910390fd5b808560010181905550873373ffffffffffffffffffffffffffffffffffffffff167f90890809c654f11d6e72a28fa60149770a0d11ec6c92319d6ceb2bb0a4ea1a15896040516140b19190614634565b60405180910390a35050505050505050565b600080602060008451602086016000885af1806140e6576040513d6000823e3d81fd5b3d92506000519150506000821461410157600181141561411d565b60008473ffffffffffffffffffffffffffffffffffffffff163b145b1561415f57836040517f5274afe70000000000000000000000000000000000000000000000000000000081526004016141569190615c7e565b60405180910390fd5b50505050565b61416f8282611d0d565b6141b25780826040517fe2517d3f0000000000000000000000000000000000000000000000000000000081526004016141a9929190616028565b60405180910390fd5b5050565b6141be6142c0565b6141f4576040517fd7e6bcf800000000000000000000000000000000000000000000000000000000815260040160405180910390fd5b565b60006142247f360894a13ba1a3210667c828492db98dca3e2076cc3735a920a3ca505d382bbc60001b6142e0565b60000160009054906101000a900473ffffffffffffffffffffffffffffffffffffffff16905090565b614256826142ea565b8173ffffffffffffffffffffffffffffffffffffffff167fbc7cd75a20ee27fd9adebab32041f755214dbc6bffa90cc0225b39da2e5c2d3b60405160405180910390a26000815111156142b3576142ad82826143b7565b506142bc565b6142bb61443b565b5b5050565b60006142ca61387a565b60000160089054906101000a900460ff16905090565b6000819050919050565b60008173ffffffffffffffffffffffffffffffffffffffff163b0361434657806040517f4c9c8ce300000000000000000000000000000000000000000000000000000000815260040161433d9190615c7e565b60405180910390fd5b806143737f360894a13ba1a3210667c828492db98dca3e2076cc3735a920a3ca505d382bbc60001b6142e0565b60000160006101000a81548173ffffffffffffffffffffffffffffffffffffffff021916908373ffffffffffffffffffffffffffffffffffffffff16021790555050565b60606000808473ffffffffffffffffffffffffffffffffffffffff16846040516143e1919061608d565b600060405180830381855af49150503d806000811461441c576040519150601f19603f3d011682016040523d82523d6000602084013e614421565b606091505b5091509150614431858383614478565b9250505092915050565b6000341115614476576040517fb398979f00000000000000000000000000000000000000000000000000000000815260040160405180910390fd5b565b60608261448d5761448882614507565b6144ff565b600082511480156144b5575060008473ffffffffffffffffffffffffffffffffffffffff163b145b156144f757836040517f9996b3150000000000000000000000000000000000000000000000000000000081526004016144ee9190615c7e565b60405180910390fd5b819050614500565b5b9392505050565b60008151111561451a5780518082602001fd5b6040517fd6bda27500000000000000000000000000000000000000000000000000000000815260040160405180910390fd5b6000604051905090565b600080fd5b600080fd5b60007fffffffff0000000000000000000000000000000000000000000000000000000082169050919050565b61459581614560565b81146145a057600080fd5b50565b6000813590506145b28161458c565b92915050565b6000602082840312156145ce576145cd614556565b5b60006145dc848285016145a3565b91505092915050565b60008115159050919050565b6145fa816145e5565b82525050565b600060208201905061461560008301846145f1565b92915050565b6000819050919050565b61462e8161461b565b82525050565b60006020820190506146496000830184614625565b92915050565b6146588161461b565b811461466357600080fd5b50565b6000813590506146758161464f565b92915050565b600073ffffffffffffffffffffffffffffffffffffffff82169050919050565b60006146a68261467b565b9050919050565b6146b68161469b565b81146146c157600080fd5b50565b6000813590506146d3816146ad565b92915050565b600080604083850312156146f0576146ef614556565b5b60006146fe85828601614666565b925050602061470f858286016146c4565b9150509250929050565b6000819050919050565b61472c81614719565b811461473757600080fd5b50565b60008135905061474981614723565b92915050565b60006020828403121561476557614764614556565b5b60006147738482850161473a565b91505092915050565b61478581614719565b82525050565b60006020820190506147a0600083018461477c565b92915050565b6000602082840312156147bc576147bb614556565b5b60006147ca84828501614666565b91505092915050565b600080604083850312156147ea576147e9614556565b5b60006147f88582860161473a565b9250506020614809858286016146c4565b9150509250929050565b60006060820190506148286000830186614625565b6148356020830185614625565b6148426040830184614625565b949350505050565b60008060006060848603121561486357614862614556565b5b600061487186828701614666565b9350506020614882868287016146c4565b925050604061489386828701614666565b9150509250925092565b60006148a88261469b565b9050919050565b6148b88161489d565b81146148c357600080fd5b50565b6000813590506148d5816148af565b92915050565b600080600080608085870312156148f5576148f4614556565b5b6000614903878288016148c6565b945050602061491487828801614666565b935050604061492587828801614666565b925050606061493687828801614666565b91505092959194509250565b600080fd5b600080fd5b6000601f19601f8301169050919050565b7f4e487b7100000000000000000000000000000000000000000000000000000000600052604160045260246000fd5b6149958261494c565b810181811067ffffffffffffffff821117156149b4576149b361495d565b5b80604052505050565b60006149c761454c565b90506149d3828261498c565b919050565b600067ffffffffffffffff8211156149f3576149f261495d565b5b6149fc8261494c565b9050602081019050919050565b82818337600083830152505050565b6000614a2b614a26846149d8565b6149bd565b905082815260208101848484011115614a4757614a46614947565b5b614a52848285614a09565b509392505050565b600082601f830112614a6f57614a6e614942565b5b8135614a7f848260208601614a18565b91505092915050565b60008060408385031215614a9f57614a9e614556565b5b6000614aad858286016146c4565b925050602083013567ffffffffffffffff811115614ace57614acd61455b565b5b614ada85828601614a5a565b9150509250929050565b60008060408385031215614afb57614afa614556565b5b6000614b0985828601614666565b9250506020614b1a85828601614666565b9150509250929050565b6000819050919050565b6000614b49614b44614b3f8461467b565b614b24565b61467b565b9050919050565b6000614b5b82614b2e565b9050919050565b6000614b6d82614b50565b9050919050565b614b7d81614b62565b82525050565b6000602082019050614b986000830184614b74565b92915050565b600081519050919050565b600082825260208201905092915050565b60005b83811015614bd8578082015181840152602081019050614bbd565b60008484015250505050565b6000614bef82614b9e565b614bf98185614ba9565b9350614c09818560208601614bba565b614c128161494c565b840191505092915050565b60006020820190508181036000830152614c378184614be4565b905092915050565b614c48816145e5565b8114614c5357600080fd5b50565b600081359050614c6581614c3f565b92915050565b600080600080600060a08688031215614c8757614c86614556565b5b6000614c95888289016146c4565b9550506020614ca688828901614666565b9450506040614cb788828901614666565b9350506060614cc888828901614666565b9250506080614cd988828901614c56565b9150509295509295909350565b600080600060608486031215614cff57614cfe614556565b5b6000614d0d86828701614666565b9350506020614d1e86828701614666565b9250506040614d2f86828701614666565b9150509250925092565b600060208284031215614d4f57614d4e614556565b5b6000614d5d848285016148c6565b91505092915050565b600080600060608486031215614d7f57614d7e614556565b5b6000614d8d86828701614666565b9350506020614d9e86828701614666565b9250506040614daf86828701614c56565b9150509250925092565b614dc28161469b565b82525050565b600060e082019050614ddd600083018a614db9565b614dea6020830189614625565b614df76040830188614625565b614e046060830187614625565b614e116080830186614625565b614e1e60a0830185614625565b614e2b60c0830184614625565b98975050505050505050565b6000604082019050614e4c6000830185614625565b614e596020830184614625565b9392505050565b7f696e76616c696420706964000000000000000000000000000000000000000000600082015250565b6000614e96600b83614ba9565b9150614ea182614e60565b602082019050919050565b60006020820190508181036000830152614ec581614e89565b9050919050565b7f7769746864726177206973207061757365640000000000000000000000000000600082015250565b6000614f02601283614ba9565b9150614f0d82614ecc565b602082019050919050565b60006020820190508181036000830152614f3181614ef5565b9050919050565b7f4e487b7100000000000000000000000000000000000000000000000000000000600052603260045260246000fd5b7f4e487b7100000000000000000000000000000000000000000000000000000000600052601160045260246000fd5b6000614fa18261461b565b9150614fac8361461b565b9250828201905080821115614fc457614fc3614f67565b5b92915050565b6000614fd58261461b565b91507fffffffffffffffffffffffffffffffffffffffffffffffffffffffffffffffff820361500757615006614f67565b5b600182019050919050565b600061501d8261461b565b91506150288361461b565b92508282039050818111156150405761503f614f67565b5b92915050565b7f4e487b7100000000000000000000000000000000000000000000000000000000600052603160045260246000fd5b7f636c61696d206973207061757365640000000000000000000000000000000000600082015250565b60006150ab600f83614ba9565b91506150b682615075565b602082019050919050565b600060208201905081810360008301526150da8161509e565b9050919050565b60006150ec8261461b565b91506150f78361461b565b92508282026151058161461b565b9150828204841483151761511c5761511b614f67565b5b5092915050565b7f4e487b7100000000000000000000000000000000000000000000000000000000600052601260045260246000fd5b600061515d8261461b565b91506151688361461b565b92508261517857615177615123565b5b828204905092915050565b7f737461727420626c6f636b206d757374206265206c657373207468616e20656e60008201527f6420626c6f636b00000000000000000000000000000000000000000000000000602082015250565b60006151df602783614ba9565b91506151ea82615183565b604082019050919050565b6000602082019050818103600083015261520e816151d2565b9050919050565b7f7263632070657220626c6f636b206d757374206265206772656174657220746860008201527f616e203000000000000000000000000000000000000000000000000000000000602082015250565b6000615271602483614ba9565b915061527c82615215565b604082019050919050565b600060208201905081810360008301526152a081615264565b9050919050565b6000819050919050565b600067ffffffffffffffff82169050919050565b60006152e06152db6152d6846152a7565b614b24565b6152b1565b9050919050565b6152f0816152c5565b82525050565b600060208201905061530b60008301846152e7565b92915050565b7f6f766572666c6f77000000000000000000000000000000000000000000000000600082015250565b6000615347600883614ba9565b915061535282615311565b602082019050919050565b600060208201905081810360008301526153768161533a565b9050919050565b7f77697468647261772068617320616c7265616479206265656e20756e7061757360008201527f6564000000000000000000000000000000000000000000000000000000000000602082015250565b60006153d9602283614ba9565b91506153e48261537d565b604082019050919050565b60006020820190508181036000830152615408816153cc565b9050919050565b7f696e76616c69642072616e676500000000000000000000000000000000000000600082015250565b6000615445600d83614ba9565b91506154508261540f565b602082019050919050565b6000602082019050818103600083015261547481615438565b9050919050565b7f6d756c7469706c696572206f766572666c6f7700000000000000000000000000600082015250565b60006154b1601383614ba9565b91506154bc8261547b565b602082019050919050565b600060208201905081810360008301526154e0816154a4565b9050919050565b7f636c61696d2068617320616c7265616479206265656e20756e70617573656400600082015250565b600061551d601f83614ba9565b9150615528826154e7565b602082019050919050565b6000602082019050818103600083015261554c81615510565b9050919050565b7f4e6f7420656e6f756768207374616b696e6720746f6b656e2062616c616e6365600082015250565b6000615589602083614ba9565b915061559482615553565b602082019050919050565b600060208201905081810360008301526155b88161557c565b9050919050565b7f6f766572666c6f77320000000000000000000000000000000000000000000000600082015250565b60006155f5600983614ba9565b9150615600826155bf565b602082019050919050565b60006020820190508181036000830152615624816155e8565b9050919050565b7f6f766572666c6f77330000000000000000000000000000000000000000000000600082015250565b6000615661600983614ba9565b915061566c8261562b565b602082019050919050565b6000602082019050818103600083015261569081615654565b9050919050565b7f74686520666972737420706f6f6c206d7573742062652045544820706f6f6c00600082015250565b60006156cd601f83614ba9565b91506156d882615697565b602082019050919050565b600060208201905081810360008301526156fc816156c0565b9050919050565b7f696e76616c6964207769746864726177206c6f636b656420626c6f636b730000600082015250565b6000615739601e83614ba9565b915061574482615703565b602082019050919050565b600060208201905081810360008301526157688161572c565b9050919050565b7f616c726561647920656e64656400000000000000000000000000000000000000600082015250565b60006157a5600d83614ba9565b91506157b08261576f565b602082019050919050565b600060208201905081810360008301526157d481615798565b9050919050565b7f77697468647261772068617320616c7265616479206265656e20706175736564600082015250565b6000615811602083614ba9565b915061581c826157db565b602082019050919050565b6000602082019050818103600083015261584081615804565b9050919050565b7f696e76616c696420706f6f6c2069640000000000000000000000000000000000600082015250565b600061587d600f83614ba9565b915061588882615847565b602082019050919050565b600060208201905081810360008301526158ac81615870565b9050919050565b7f6465706f736974206e6f7420737570706f727420455448207374616b696e6700600082015250565b60006158e9601f83614ba9565b91506158f4826158b3565b602082019050919050565b60006020820190508181036000830152615918816158dc565b9050919050565b7f696e76616c6964206465706f73697420616d6f756e7400000000000000000000600082015250565b6000615955601683614ba9565b91506159608261591f565b602082019050919050565b6000602082019050818103600083015261598481615948565b9050919050565b7f45544820706f6f6c206d75737420626520637265617465642066697273740000600082015250565b60006159c1601e83614ba9565b91506159cc8261598b565b602082019050919050565b600060208201905081810360008301526159f0816159b4565b9050919050565b7f696e76616c696420706f6f6c2077656967687400000000000000000000000000600082015250565b6000615a2d601383614ba9565b9150615a38826159f7565b602082019050919050565b60006020820190508181036000830152615a5c81615a20565b9050919050565b7f746f74616c20706f6f6c20776569676874206f766572666c6f77000000000000600082015250565b6000615a99601a83614ba9565b9150615aa482615a63565b602082019050919050565b60006020820190508181036000830152615ac881615a8c565b9050919050565b600081905092915050565b50565b6000615aea600083615acf565b9150615af582615ada565b600082019050919050565b6000615b0b82615add565b9150819050919050565b7f455448207472616e736665722063616c6c206661696c65640000000000000000600082015250565b6000615b4b601883614ba9565b9150615b5682615b15565b602082019050919050565b60006020820190508181036000830152615b7a81615b3e565b9050919050565b600081519050615b9081614c3f565b92915050565b600060208284031215615bac57615bab614556565b5b6000615bba84828501615b81565b91505092915050565b7f455448207472616e73666572206f7065726174696f6e20646964206e6f74207360008201527f7563636565640000000000000000000000000000000000000000000000000000602082015250565b6000615c1f602683614ba9565b9150615c2a82615bc3565b604082019050919050565b60006020820190508181036000830152615c4e81615c12565b9050919050565b6000604082019050615c6a6000830185614db9565b615c776020830184614625565b9392505050565b6000602082019050615c936000830184614db9565b92915050565b600081519050615ca88161464f565b92915050565b600060208284031215615cc457615cc3614556565b5b6000615cd284828501615c99565b91505092915050565b600081519050615cea81614723565b92915050565b600060208284031215615d0657615d05614556565b5b6000615d1484828501615cdb565b91505092915050565b6000606082019050615d326000830186614db9565b615d3f6020830185614db9565b615d4c6040830184614625565b949350505050565b7f75736572207374616b6520616d6f756e74206f766572666c6f77000000000000600082015250565b6000615d8a601a83614ba9565b9150615d9582615d54565b602082019050919050565b60006020820190508181036000830152615db981615d7d565b9050919050565b7f616363756d756c617465207265776172647320706572207374616b65206f766560008201527f72666c6f77000000000000000000000000000000000000000000000000000000602082015250565b6000615e1c602583614ba9565b9150615e2782615dc0565b604082019050919050565b60006020820190508181036000830152615e4b81615e0f565b9050919050565b7f70656e64696e672072657761726473206f766572666c6f770000000000000000600082015250565b6000615e88601883614ba9565b9150615e9382615e52565b602082019050919050565b60006020820190508181036000830152615eb781615e7b565b9050919050565b7f616363756d756c617465207374616b6520616d6f756e74206f766572666c6f77600082015250565b6000615ef4602083614ba9565b9150615eff82615ebe565b602082019050919050565b60006020820190508181036000830152615f2381615ee7565b9050919050565b7f7374616b6520746f6b656e20616d6f756e74206f766572666c6f770000000000600082015250565b6000615f60601b83614ba9565b9150615f6b82615f2a565b602082019050919050565b60006020820190508181036000830152615f8f81615f53565b9050919050565b7f75736572207374416d6f756e74206d756c206163635243435065725354206f7660008201527f6572666c6f770000000000000000000000000000000000000000000000000000602082015250565b6000615ff2602683614ba9565b9150615ffd82615f96565b604082019050919050565b6000602082019050818103600083015261602181615fe5565b9050919050565b600060408201905061603d6000830185614db9565b61604a602083018461477c565b9392505050565b600081519050919050565b600061606782616051565b6160718185615acf565b9350616081818560208601614bba565b80840191505092915050565b6000616099828461605c565b91508190509291505056fea26469706673582212204aba0982914efb33c0ed0d0a49897bbb6004924d5712b25c0e202ba959b95be964736f6c63430008160033","opcodes":"PUSH1 0xA0 PUSH1 0x40 MSTORE ADDRESS PUSH20 0xFFFFFFFFFFFFFFFFFFFFFFFFFFFFFFFFFFFFFFFF AND PUSH1 0x80 SWAP1 PUSH20 0xFFFFFFFFFFFFFFFFFFFFFFFFFFFFFFFFFFFFFFFF AND DUP2 MSTORE POP CALLVALUE DUP1 ISZERO PUSH2 0x43 JUMPI PUSH1 0x0 DUP1 REVERT JUMPDEST POP PUSH1 0x80 MLOAD PUSH2 0x60DA PUSH3 0x6E PUSH1 0x0 CODECOPY PUSH1 0x0 DUP2 DUP2 PUSH2 0x38B8 ADD MSTORE DUP2 DUP2 PUSH2 0x390D ADD MSTORE PUSH2 0x3BA3 ADD MSTORE PUSH2 0x60DA PUSH1 0x0 RETURN INVALID PUSH1 0x80 PUSH1 0x40 MSTORE PUSH1 0x4 CALLDATASIZE LT PUSH2 0x297 JUMPI PUSH1 0x0 CALLDATALOAD PUSH1 0xE0 SHR DUP1 PUSH4 0x91D14854 GT PUSH2 0x15A JUMPI DUP1 PUSH4 0xC397920E GT PUSH2 0xC1 JUMPI DUP1 PUSH4 0xF35E4A6E GT PUSH2 0x7A JUMPI DUP1 PUSH4 0xF35E4A6E EQ PUSH2 0x9B3 JUMPI DUP1 PUSH4 0xF5485D32 EQ PUSH2 0x9DC JUMPI DUP1 PUSH4 0xF6326FB3 EQ PUSH2 0xA05 JUMPI DUP1 PUSH4 0xFAD07ECE EQ PUSH2 0xA0F JUMPI DUP1 PUSH4 0xFE313112 EQ PUSH2 0xA38 JUMPI DUP1 PUSH4 0xFF423357 EQ PUSH2 0xA7B JUMPI PUSH2 0x29E JUMP JUMPDEST DUP1 PUSH4 0xC397920E EQ PUSH2 0x8E1 JUMPI DUP1 PUSH4 0xC713AA94 EQ PUSH2 0x8F8 JUMPI DUP1 PUSH4 0xD547741F EQ PUSH2 0x921 JUMPI DUP1 PUSH4 0xD86C0444 EQ PUSH2 0x94A JUMPI DUP1 PUSH4 0xDE065CAA EQ PUSH2 0x973 JUMPI DUP1 PUSH4 0xE2BBB158 EQ PUSH2 0x98A JUMPI PUSH2 0x29E JUMP JUMPDEST DUP1 PUSH4 0xAD3CB1CC GT PUSH2 0x113 JUMPI DUP1 PUSH4 0xAD3CB1CC EQ PUSH2 0x7E3 JUMPI DUP1 PUSH4 0xB3944D52 EQ PUSH2 0x80E JUMPI DUP1 PUSH4 0xB6D9D919 EQ PUSH2 0x839 JUMPI DUP1 PUSH4 0xB908AFA8 EQ PUSH2 0x862 JUMPI DUP1 PUSH4 0xBED66C08 EQ PUSH2 0x88D JUMPI DUP1 PUSH4 0xBFC3EBBA EQ PUSH2 0x8B6 JUMPI PUSH2 0x29E JUMP JUMPDEST DUP1 PUSH4 0x91D14854 EQ PUSH2 0x6BF JUMPI DUP1 PUSH4 0x9E2C8A5B EQ PUSH2 0x6FC JUMPI DUP1 PUSH4 0xA217FDDF EQ PUSH2 0x725 JUMPI DUP1 PUSH4 0xA27D9279 EQ PUSH2 0x750 JUMPI DUP1 PUSH4 0xA72D5BF4 EQ PUSH2 0x78D JUMPI DUP1 PUSH4 0xAB5E124A EQ PUSH2 0x7B8 JUMPI PUSH2 0x29E JUMP JUMPDEST DUP1 PUSH4 0x48CD4CB1 GT PUSH2 0x1FE JUMPI DUP1 PUSH4 0x6155E3DE GT PUSH2 0x1B7 JUMPI DUP1 PUSH4 0x6155E3DE EQ PUSH2 0x5E7 JUMPI DUP1 PUSH4 0x630B5BA1 EQ PUSH2 0x5FE JUMPI DUP1 PUSH4 0x70FF0173 EQ PUSH2 0x615 JUMPI DUP1 PUSH4 0x75B238FC EQ PUSH2 0x640 JUMPI DUP1 PUSH4 0x8DBB1E3A EQ PUSH2 0x66B JUMPI DUP1 PUSH4 0x8FF095F9 EQ PUSH2 0x6A8 JUMPI PUSH2 0x29E JUMP JUMPDEST DUP1 PUSH4 0x48CD4CB1 EQ PUSH2 0x4F8 JUMPI DUP1 PUSH4 0x4EC81AF1 EQ PUSH2 0x523 JUMPI DUP1 PUSH4 0x4F1EF286 EQ PUSH2 0x54C JUMPI DUP1 PUSH4 0x51EB05A6 EQ PUSH2 0x568 JUMPI DUP1 PUSH4 0x52D1902D EQ PUSH2 0x591 JUMPI DUP1 PUSH4 0x5C975ABB EQ PUSH2 0x5BC JUMPI PUSH2 0x29E JUMP JUMPDEST DUP1 PUSH4 0x2F2FF15D GT PUSH2 0x250 JUMPI DUP1 PUSH4 0x2F2FF15D EQ PUSH2 0x3D6 JUMPI DUP1 PUSH4 0x2F3FFB9F EQ PUSH2 0x3FF JUMPI DUP1 PUSH4 0x36568ABE EQ PUSH2 0x42A JUMPI DUP1 PUSH4 0x37849B3C EQ PUSH2 0x453 JUMPI DUP1 PUSH4 0x379607F5 EQ PUSH2 0x492 JUMPI DUP1 PUSH4 0x41721AB7 EQ PUSH2 0x4BB JUMPI PUSH2 0x29E JUMP JUMPDEST DUP1 PUSH4 0x1FFC9A7 EQ PUSH2 0x2A0 JUMPI DUP1 PUSH4 0x2559004 EQ PUSH2 0x2DD JUMPI DUP1 PUSH4 0x83C6323 EQ PUSH2 0x308 JUMPI DUP1 PUSH4 0x11548234 EQ PUSH2 0x333 JUMPI DUP1 PUSH4 0x248A9CA3 EQ PUSH2 0x370 JUMPI DUP1 PUSH4 0x2E1A7D4D EQ PUSH2 0x3AD JUMPI PUSH2 0x29E JUMP JUMPDEST CALLDATASIZE PUSH2 0x29E JUMPI STOP JUMPDEST STOP JUMPDEST CALLVALUE DUP1 ISZERO PUSH2 0x2AC JUMPI PUSH1 0x0 DUP1 REVERT JUMPDEST POP PUSH2 0x2C7 PUSH1 0x4 DUP1 CALLDATASIZE SUB DUP2 ADD SWAP1 PUSH2 0x2C2 SWAP2 SWAP1 PUSH2 0x45B8 JUMP JUMPDEST PUSH2 0xAB9 JUMP JUMPDEST PUSH1 0x40 MLOAD PUSH2 0x2D4 SWAP2 SWAP1 PUSH2 0x4600 JUMP JUMPDEST PUSH1 0x40 MLOAD DUP1 SWAP2 SUB SWAP1 RETURN JUMPDEST CALLVALUE DUP1 ISZERO PUSH2 0x2E9 JUMPI PUSH1 0x0 DUP1 REVERT JUMPDEST POP PUSH2 0x2F2 PUSH2 0xB33 JUMP JUMPDEST PUSH1 0x40 MLOAD PUSH2 0x2FF SWAP2 SWAP1 PUSH2 0x4634 JUMP JUMPDEST PUSH1 0x40 MLOAD DUP1 SWAP2 SUB SWAP1 RETURN JUMPDEST CALLVALUE DUP1 ISZERO PUSH2 0x314 JUMPI PUSH1 0x0 DUP1 REVERT JUMPDEST POP PUSH2 0x31D PUSH2 0xB39 JUMP JUMPDEST PUSH1 0x40 MLOAD PUSH2 0x32A SWAP2 SWAP1 PUSH2 0x4634 JUMP JUMPDEST PUSH1 0x40 MLOAD DUP1 SWAP2 SUB SWAP1 RETURN JUMPDEST CALLVALUE DUP1 ISZERO PUSH2 0x33F JUMPI PUSH1 0x0 DUP1 REVERT JUMPDEST POP PUSH2 0x35A PUSH1 0x4 DUP1 CALLDATASIZE SUB DUP2 ADD SWAP1 PUSH2 0x355 SWAP2 SWAP1 PUSH2 0x46D9 JUMP JUMPDEST PUSH2 0xB3F JUMP JUMPDEST PUSH1 0x40 MLOAD PUSH2 0x367 SWAP2 SWAP1 PUSH2 0x4634 JUMP JUMPDEST PUSH1 0x40 MLOAD DUP1 SWAP2 SUB SWAP1 RETURN JUMPDEST CALLVALUE DUP1 ISZERO PUSH2 0x37C JUMPI PUSH1 0x0 DUP1 REVERT JUMPDEST POP PUSH2 0x397 PUSH1 0x4 DUP1 CALLDATASIZE SUB DUP2 ADD SWAP1 PUSH2 0x392 SWAP2 SWAP1 PUSH2 0x474F JUMP JUMPDEST PUSH2 0xBE6 JUMP JUMPDEST PUSH1 0x40 MLOAD PUSH2 0x3A4 SWAP2 SWAP1 PUSH2 0x478B JUMP JUMPDEST PUSH1 0x40 MLOAD DUP1 SWAP2 SUB SWAP1 RETURN JUMPDEST CALLVALUE DUP1 ISZERO PUSH2 0x3B9 JUMPI PUSH1 0x0 DUP1 REVERT JUMPDEST POP PUSH2 0x3D4 PUSH1 0x4 DUP1 CALLDATASIZE SUB DUP2 ADD SWAP1 PUSH2 0x3CF SWAP2 SWAP1 PUSH2 0x47A6 JUMP JUMPDEST PUSH2 0xC14 JUMP JUMPDEST STOP JUMPDEST CALLVALUE DUP1 ISZERO PUSH2 0x3E2 JUMPI PUSH1 0x0 DUP1 REVERT JUMPDEST POP PUSH2 0x3FD PUSH1 0x4 DUP1 CALLDATASIZE SUB DUP2 ADD SWAP1 PUSH2 0x3F8 SWAP2 SWAP1 PUSH2 0x47D3 JUMP JUMPDEST PUSH2 0xFC6 JUMP JUMPDEST STOP JUMPDEST CALLVALUE DUP1 ISZERO PUSH2 0x40B JUMPI PUSH1 0x0 DUP1 REVERT JUMPDEST POP PUSH2 0x414 PUSH2 0xFE8 JUMP JUMPDEST PUSH1 0x40 MLOAD PUSH2 0x421 SWAP2 SWAP1 PUSH2 0x4600 JUMP JUMPDEST PUSH1 0x40 MLOAD DUP1 SWAP2 SUB SWAP1 RETURN JUMPDEST CALLVALUE DUP1 ISZERO PUSH2 0x436 JUMPI PUSH1 0x0 DUP1 REVERT JUMPDEST POP PUSH2 0x451 PUSH1 0x4 DUP1 CALLDATASIZE SUB DUP2 ADD SWAP1 PUSH2 0x44C SWAP2 SWAP1 PUSH2 0x47D3 JUMP JUMPDEST PUSH2 0xFFB JUMP JUMPDEST STOP JUMPDEST CALLVALUE DUP1 ISZERO PUSH2 0x45F JUMPI PUSH1 0x0 DUP1 REVERT JUMPDEST POP PUSH2 0x47A PUSH1 0x4 DUP1 CALLDATASIZE SUB DUP2 ADD SWAP1 PUSH2 0x475 SWAP2 SWAP1 PUSH2 0x46D9 JUMP JUMPDEST PUSH2 0x1076 JUMP JUMPDEST PUSH1 0x40 MLOAD PUSH2 0x489 SWAP4 SWAP3 SWAP2 SWAP1 PUSH2 0x4813 JUMP JUMPDEST PUSH1 0x40 MLOAD DUP1 SWAP2 SUB SWAP1 RETURN JUMPDEST CALLVALUE DUP1 ISZERO PUSH2 0x49E JUMPI PUSH1 0x0 DUP1 REVERT JUMPDEST POP PUSH2 0x4B9 PUSH1 0x4 DUP1 CALLDATASIZE SUB DUP2 ADD SWAP1 PUSH2 0x4B4 SWAP2 SWAP1 PUSH2 0x47A6 JUMP JUMPDEST PUSH2 0x10AD JUMP JUMPDEST STOP JUMPDEST CALLVALUE DUP1 ISZERO PUSH2 0x4C7 JUMPI PUSH1 0x0 DUP1 REVERT JUMPDEST POP PUSH2 0x4E2 PUSH1 0x4 DUP1 CALLDATASIZE SUB DUP2 ADD SWAP1 PUSH2 0x4DD SWAP2 SWAP1 PUSH2 0x484A JUMP JUMPDEST PUSH2 0x12A9 JUMP JUMPDEST PUSH1 0x40 MLOAD PUSH2 0x4EF SWAP2 SWAP1 PUSH2 0x4634 JUMP JUMPDEST PUSH1 0x40 MLOAD DUP1 SWAP2 SUB SWAP1 RETURN JUMPDEST CALLVALUE DUP1 ISZERO PUSH2 0x504 JUMPI PUSH1 0x0 DUP1 REVERT JUMPDEST POP PUSH2 0x50D PUSH2 0x13FF JUMP JUMPDEST PUSH1 0x40 MLOAD PUSH2 0x51A SWAP2 SWAP1 PUSH2 0x4634 JUMP JUMPDEST PUSH1 0x40 MLOAD DUP1 SWAP2 SUB SWAP1 RETURN JUMPDEST CALLVALUE DUP1 ISZERO PUSH2 0x52F JUMPI PUSH1 0x0 DUP1 REVERT JUMPDEST POP PUSH2 0x54A PUSH1 0x4 DUP1 CALLDATASIZE SUB DUP2 ADD SWAP1 PUSH2 0x545 SWAP2 SWAP1 PUSH2 0x48DB JUMP JUMPDEST PUSH2 0x1405 JUMP JUMPDEST STOP JUMPDEST PUSH2 0x566 PUSH1 0x4 DUP1 CALLDATASIZE SUB DUP2 ADD SWAP1 PUSH2 0x561 SWAP2 SWAP1 PUSH2 0x4A88 JUMP JUMPDEST PUSH2 0x16A6 JUMP JUMPDEST STOP JUMPDEST CALLVALUE DUP1 ISZERO PUSH2 0x574 JUMPI PUSH1 0x0 DUP1 REVERT JUMPDEST POP PUSH2 0x58F PUSH1 0x4 DUP1 CALLDATASIZE SUB DUP2 ADD SWAP1 PUSH2 0x58A SWAP2 SWAP1 PUSH2 0x47A6 JUMP JUMPDEST PUSH2 0x16C5 JUMP JUMPDEST STOP JUMPDEST CALLVALUE DUP1 ISZERO PUSH2 0x59D JUMPI PUSH1 0x0 DUP1 REVERT JUMPDEST POP PUSH2 0x5A6 PUSH2 0x19B1 JUMP JUMPDEST PUSH1 0x40 MLOAD PUSH2 0x5B3 SWAP2 SWAP1 PUSH2 0x478B JUMP JUMPDEST PUSH1 0x40 MLOAD DUP1 SWAP2 SUB SWAP1 RETURN JUMPDEST CALLVALUE DUP1 ISZERO PUSH2 0x5C8 JUMPI PUSH1 0x0 DUP1 REVERT JUMPDEST POP PUSH2 0x5D1 PUSH2 0x19E4 JUMP JUMPDEST PUSH1 0x40 MLOAD PUSH2 0x5DE SWAP2 SWAP1 PUSH2 0x4600 JUMP JUMPDEST PUSH1 0x40 MLOAD DUP1 SWAP2 SUB SWAP1 RETURN JUMPDEST CALLVALUE DUP1 ISZERO PUSH2 0x5F3 JUMPI PUSH1 0x0 DUP1 REVERT JUMPDEST POP PUSH2 0x5FC PUSH2 0x1A09 JUMP JUMPDEST STOP JUMPDEST CALLVALUE DUP1 ISZERO PUSH2 0x60A JUMPI PUSH1 0x0 DUP1 REVERT JUMPDEST POP PUSH2 0x613 PUSH2 0x1ACC JUMP JUMPDEST STOP JUMPDEST CALLVALUE DUP1 ISZERO PUSH2 0x621 JUMPI PUSH1 0x0 DUP1 REVERT JUMPDEST POP PUSH2 0x62A PUSH2 0x1AFB JUMP JUMPDEST PUSH1 0x40 MLOAD PUSH2 0x637 SWAP2 SWAP1 PUSH2 0x4634 JUMP JUMPDEST PUSH1 0x40 MLOAD DUP1 SWAP2 SUB SWAP1 RETURN JUMPDEST CALLVALUE DUP1 ISZERO PUSH2 0x64C JUMPI PUSH1 0x0 DUP1 REVERT JUMPDEST POP PUSH2 0x655 PUSH2 0x1B01 JUMP JUMPDEST PUSH1 0x40 MLOAD PUSH2 0x662 SWAP2 SWAP1 PUSH2 0x478B JUMP JUMPDEST PUSH1 0x40 MLOAD DUP1 SWAP2 SUB SWAP1 RETURN JUMPDEST CALLVALUE DUP1 ISZERO PUSH2 0x677 JUMPI PUSH1 0x0 DUP1 REVERT JUMPDEST POP PUSH2 0x692 PUSH1 0x4 DUP1 CALLDATASIZE SUB DUP2 ADD SWAP1 PUSH2 0x68D SWAP2 SWAP1 PUSH2 0x4AE4 JUMP JUMPDEST PUSH2 0x1B25 JUMP JUMPDEST PUSH1 0x40 MLOAD PUSH2 0x69F SWAP2 SWAP1 PUSH2 0x4634 JUMP JUMPDEST PUSH1 0x40 MLOAD DUP1 SWAP2 SUB SWAP1 RETURN JUMPDEST CALLVALUE DUP1 ISZERO PUSH2 0x6B4 JUMPI PUSH1 0x0 DUP1 REVERT JUMPDEST POP PUSH2 0x6BD PUSH2 0x1C49 JUMP JUMPDEST STOP JUMPDEST CALLVALUE DUP1 ISZERO PUSH2 0x6CB JUMPI PUSH1 0x0 DUP1 REVERT JUMPDEST POP PUSH2 0x6E6 PUSH1 0x4 DUP1 CALLDATASIZE SUB DUP2 ADD SWAP1 PUSH2 0x6E1 SWAP2 SWAP1 PUSH2 0x47D3 JUMP JUMPDEST PUSH2 0x1D0D JUMP JUMPDEST PUSH1 0x40 MLOAD PUSH2 0x6F3 SWAP2 SWAP1 PUSH2 0x4600 JUMP JUMPDEST PUSH1 0x40 MLOAD DUP1 SWAP2 SUB SWAP1 RETURN JUMPDEST CALLVALUE DUP1 ISZERO PUSH2 0x708 JUMPI PUSH1 0x0 DUP1 REVERT JUMPDEST POP PUSH2 0x723 PUSH1 0x4 DUP1 CALLDATASIZE SUB DUP2 ADD SWAP1 PUSH2 0x71E SWAP2 SWAP1 PUSH2 0x4AE4 JUMP JUMPDEST PUSH2 0x1D86 JUMP JUMPDEST STOP JUMPDEST CALLVALUE DUP1 ISZERO PUSH2 0x731 JUMPI PUSH1 0x0 DUP1 REVERT JUMPDEST POP PUSH2 0x73A PUSH2 0x2160 JUMP JUMPDEST PUSH1 0x40 MLOAD PUSH2 0x747 SWAP2 SWAP1 PUSH2 0x478B JUMP JUMPDEST PUSH1 0x40 MLOAD DUP1 SWAP2 SUB SWAP1 RETURN JUMPDEST CALLVALUE DUP1 ISZERO PUSH2 0x75C JUMPI PUSH1 0x0 DUP1 REVERT JUMPDEST POP PUSH2 0x777 PUSH1 0x4 DUP1 CALLDATASIZE SUB DUP2 ADD SWAP1 PUSH2 0x772 SWAP2 SWAP1 PUSH2 0x46D9 JUMP JUMPDEST PUSH2 0x2167 JUMP JUMPDEST PUSH1 0x40 MLOAD PUSH2 0x784 SWAP2 SWAP1 PUSH2 0x4634 JUMP JUMPDEST PUSH1 0x40 MLOAD DUP1 SWAP2 SUB SWAP1 RETURN JUMPDEST CALLVALUE DUP1 ISZERO PUSH2 0x799 JUMPI PUSH1 0x0 DUP1 REVERT JUMPDEST POP PUSH2 0x7A2 PUSH2 0x21C5 JUMP JUMPDEST PUSH1 0x40 MLOAD PUSH2 0x7AF SWAP2 SWAP1 PUSH2 0x4B83 JUMP JUMPDEST PUSH1 0x40 MLOAD DUP1 SWAP2 SUB SWAP1 RETURN JUMPDEST CALLVALUE DUP1 ISZERO PUSH2 0x7C4 JUMPI PUSH1 0x0 DUP1 REVERT JUMPDEST POP PUSH2 0x7CD PUSH2 0x21EB JUMP JUMPDEST PUSH1 0x40 MLOAD PUSH2 0x7DA SWAP2 SWAP1 PUSH2 0x4600 JUMP JUMPDEST PUSH1 0x40 MLOAD DUP1 SWAP2 SUB SWAP1 RETURN JUMPDEST CALLVALUE DUP1 ISZERO PUSH2 0x7EF JUMPI PUSH1 0x0 DUP1 REVERT JUMPDEST POP PUSH2 0x7F8 PUSH2 0x21FE JUMP JUMPDEST PUSH1 0x40 MLOAD PUSH2 0x805 SWAP2 SWAP1 PUSH2 0x4C1D JUMP JUMPDEST PUSH1 0x40 MLOAD DUP1 SWAP2 SUB SWAP1 RETURN JUMPDEST CALLVALUE DUP1 ISZERO PUSH2 0x81A JUMPI PUSH1 0x0 DUP1 REVERT JUMPDEST POP PUSH2 0x823 PUSH2 0x2237 JUMP JUMPDEST PUSH1 0x40 MLOAD PUSH2 0x830 SWAP2 SWAP1 PUSH2 0x4634 JUMP JUMPDEST PUSH1 0x40 MLOAD DUP1 SWAP2 SUB SWAP1 RETURN JUMPDEST CALLVALUE DUP1 ISZERO PUSH2 0x845 JUMPI PUSH1 0x0 DUP1 REVERT JUMPDEST POP PUSH2 0x860 PUSH1 0x4 DUP1 CALLDATASIZE SUB DUP2 ADD SWAP1 PUSH2 0x85B SWAP2 SWAP1 PUSH2 0x4C6B JUMP JUMPDEST PUSH2 0x2244 JUMP JUMPDEST STOP JUMPDEST CALLVALUE DUP1 ISZERO PUSH2 0x86E JUMPI PUSH1 0x0 DUP1 REVERT JUMPDEST POP PUSH2 0x877 PUSH2 0x25C1 JUMP JUMPDEST PUSH1 0x40 MLOAD PUSH2 0x884 SWAP2 SWAP1 PUSH2 0x478B JUMP JUMPDEST PUSH1 0x40 MLOAD DUP1 SWAP2 SUB SWAP1 RETURN JUMPDEST CALLVALUE DUP1 ISZERO PUSH2 0x899 JUMPI PUSH1 0x0 DUP1 REVERT JUMPDEST POP PUSH2 0x8B4 PUSH1 0x4 DUP1 CALLDATASIZE SUB DUP2 ADD SWAP1 PUSH2 0x8AF SWAP2 SWAP1 PUSH2 0x47A6 JUMP JUMPDEST PUSH2 0x25E5 JUMP JUMPDEST STOP JUMPDEST CALLVALUE DUP1 ISZERO PUSH2 0x8C2 JUMPI PUSH1 0x0 DUP1 REVERT JUMPDEST POP PUSH2 0x8CB PUSH2 0x268A JUMP JUMPDEST PUSH1 0x40 MLOAD PUSH2 0x8D8 SWAP2 SWAP1 PUSH2 0x4634 JUMP JUMPDEST PUSH1 0x40 MLOAD DUP1 SWAP2 SUB SWAP1 RETURN JUMPDEST CALLVALUE DUP1 ISZERO PUSH2 0x8ED JUMPI PUSH1 0x0 DUP1 REVERT JUMPDEST POP PUSH2 0x8F6 PUSH2 0x268F JUMP JUMPDEST STOP JUMPDEST CALLVALUE DUP1 ISZERO PUSH2 0x904 JUMPI PUSH1 0x0 DUP1 REVERT JUMPDEST POP PUSH2 0x91F PUSH1 0x4 DUP1 CALLDATASIZE SUB DUP2 ADD SWAP1 PUSH2 0x91A SWAP2 SWAP1 PUSH2 0x47A6 JUMP JUMPDEST PUSH2 0x2753 JUMP JUMPDEST STOP JUMPDEST CALLVALUE DUP1 ISZERO PUSH2 0x92D JUMPI PUSH1 0x0 DUP1 REVERT JUMPDEST POP PUSH2 0x948 PUSH1 0x4 DUP1 CALLDATASIZE SUB DUP2 ADD SWAP1 PUSH2 0x943 SWAP2 SWAP1 PUSH2 0x47D3 JUMP JUMPDEST PUSH2 0x27FA JUMP JUMPDEST STOP JUMPDEST CALLVALUE DUP1 ISZERO PUSH2 0x956 JUMPI PUSH1 0x0 DUP1 REVERT JUMPDEST POP PUSH2 0x971 PUSH1 0x4 DUP1 CALLDATASIZE SUB DUP2 ADD SWAP1 PUSH2 0x96C SWAP2 SWAP1 PUSH2 0x4CE6 JUMP JUMPDEST PUSH2 0x281C JUMP JUMPDEST STOP JUMPDEST CALLVALUE DUP1 ISZERO PUSH2 0x97F JUMPI PUSH1 0x0 DUP1 REVERT JUMPDEST POP PUSH2 0x988 PUSH2 0x295F JUMP JUMPDEST STOP JUMPDEST CALLVALUE DUP1 ISZERO PUSH2 0x996 JUMPI PUSH1 0x0 DUP1 REVERT JUMPDEST POP PUSH2 0x9B1 PUSH1 0x4 DUP1 CALLDATASIZE SUB DUP2 ADD SWAP1 PUSH2 0x9AC SWAP2 SWAP1 PUSH2 0x4AE4 JUMP JUMPDEST PUSH2 0x2A22 JUMP JUMPDEST STOP JUMPDEST CALLVALUE DUP1 ISZERO PUSH2 0x9BF JUMPI PUSH1 0x0 DUP1 REVERT JUMPDEST POP PUSH2 0x9DA PUSH1 0x4 DUP1 CALLDATASIZE SUB DUP2 ADD SWAP1 PUSH2 0x9D5 SWAP2 SWAP1 PUSH2 0x47A6 JUMP JUMPDEST PUSH2 0x2BD4 JUMP JUMPDEST STOP JUMPDEST CALLVALUE DUP1 ISZERO PUSH2 0x9E8 JUMPI PUSH1 0x0 DUP1 REVERT JUMPDEST POP PUSH2 0xA03 PUSH1 0x4 DUP1 CALLDATASIZE SUB DUP2 ADD SWAP1 PUSH2 0x9FE SWAP2 SWAP1 PUSH2 0x4D39 JUMP JUMPDEST PUSH2 0x2C7B JUMP JUMPDEST STOP JUMPDEST PUSH2 0xA0D PUSH2 0x2D4F JUMP JUMPDEST STOP JUMPDEST CALLVALUE DUP1 ISZERO PUSH2 0xA1B JUMPI PUSH1 0x0 DUP1 REVERT JUMPDEST POP PUSH2 0xA36 PUSH1 0x4 DUP1 CALLDATASIZE SUB DUP2 ADD SWAP1 PUSH2 0xA31 SWAP2 SWAP1 PUSH2 0x4D66 JUMP JUMPDEST PUSH2 0x2E6C JUMP JUMPDEST STOP JUMPDEST CALLVALUE DUP1 ISZERO PUSH2 0xA44 JUMPI PUSH1 0x0 DUP1 REVERT JUMPDEST POP PUSH2 0xA5F PUSH1 0x4 DUP1 CALLDATASIZE SUB DUP2 ADD SWAP1 PUSH2 0xA5A SWAP2 SWAP1 PUSH2 0x47A6 JUMP JUMPDEST PUSH2 0x3030 JUMP JUMPDEST PUSH1 0x40 MLOAD PUSH2 0xA72 SWAP8 SWAP7 SWAP6 SWAP5 SWAP4 SWAP3 SWAP2 SWAP1 PUSH2 0x4DC8 JUMP JUMPDEST PUSH1 0x40 MLOAD DUP1 SWAP2 SUB SWAP1 RETURN JUMPDEST CALLVALUE DUP1 ISZERO PUSH2 0xA87 JUMPI PUSH1 0x0 DUP1 REVERT JUMPDEST POP PUSH2 0xAA2 PUSH1 0x4 DUP1 CALLDATASIZE SUB DUP2 ADD SWAP1 PUSH2 0xA9D SWAP2 SWAP1 PUSH2 0x46D9 JUMP JUMPDEST PUSH2 0x30A2 JUMP JUMPDEST PUSH1 0x40 MLOAD PUSH2 0xAB0 SWAP3 SWAP2 SWAP1 PUSH2 0x4E37 JUMP JUMPDEST PUSH1 0x40 MLOAD DUP1 SWAP2 SUB SWAP1 RETURN JUMPDEST PUSH1 0x0 PUSH32 0x7965DB0B00000000000000000000000000000000000000000000000000000000 PUSH28 0xFFFFFFFFFFFFFFFFFFFFFFFFFFFFFFFFFFFFFFFFFFFFFFFFFFFFFFFF NOT AND DUP3 PUSH28 0xFFFFFFFFFFFFFFFFFFFFFFFFFFFFFFFFFFFFFFFFFFFFFFFFFFFFFFFF NOT AND EQ DUP1 PUSH2 0xB2C JUMPI POP PUSH2 0xB2B DUP3 PUSH2 0x3203 JUMP JUMPDEST JUMPDEST SWAP1 POP SWAP2 SWAP1 POP JUMP JUMPDEST PUSH1 0x4 SLOAD DUP2 JUMP JUMPDEST PUSH1 0x1 SLOAD DUP2 JUMP JUMPDEST PUSH1 0x0 DUP3 PUSH1 0x5 DUP1 SLOAD SWAP1 POP DUP2 LT PUSH2 0xB89 JUMPI PUSH1 0x40 MLOAD PUSH32 0x8C379A000000000000000000000000000000000000000000000000000000000 DUP2 MSTORE PUSH1 0x4 ADD PUSH2 0xB80 SWAP1 PUSH2 0x4EAC JUMP JUMPDEST PUSH1 0x40 MLOAD DUP1 SWAP2 SUB SWAP1 REVERT JUMPDEST PUSH1 0x6 PUSH1 0x0 DUP6 DUP2 MSTORE PUSH1 0x20 ADD SWAP1 DUP2 MSTORE PUSH1 0x20 ADD PUSH1 0x0 KECCAK256 PUSH1 0x0 DUP5 PUSH20 0xFFFFFFFFFFFFFFFFFFFFFFFFFFFFFFFFFFFFFFFF AND PUSH20 0xFFFFFFFFFFFFFFFFFFFFFFFFFFFFFFFFFFFFFFFF AND DUP2 MSTORE PUSH1 0x20 ADD SWAP1 DUP2 MSTORE PUSH1 0x20 ADD PUSH1 0x0 KECCAK256 PUSH1 0x0 ADD SLOAD SWAP2 POP POP SWAP3 SWAP2 POP POP JUMP JUMPDEST PUSH1 0x0 DUP1 PUSH2 0xBF1 PUSH2 0x326D JUMP JUMPDEST SWAP1 POP DUP1 PUSH1 0x0 ADD PUSH1 0x0 DUP5 DUP2 MSTORE PUSH1 0x20 ADD SWAP1 DUP2 MSTORE PUSH1 0x20 ADD PUSH1 0x0 KECCAK256 PUSH1 0x1 ADD SLOAD SWAP2 POP POP SWAP2 SWAP1 POP JUMP JUMPDEST PUSH2 0xC1C PUSH2 0x3295 JUMP JUMPDEST PUSH1 0x3 PUSH1 0x0 SWAP1 SLOAD SWAP1 PUSH2 0x100 EXP SWAP1 DIV PUSH1 0xFF AND ISZERO PUSH2 0xC6C JUMPI PUSH1 0x40 MLOAD PUSH32 0x8C379A000000000000000000000000000000000000000000000000000000000 DUP2 MSTORE PUSH1 0x4 ADD PUSH2 0xC63 SWAP1 PUSH2 0x4F18 JUMP JUMPDEST PUSH1 0x40 MLOAD DUP1 SWAP2 SUB SWAP1 REVERT JUMPDEST DUP1 PUSH1 0x5 DUP1 SLOAD SWAP1 POP DUP2 LT PUSH2 0xCB4 JUMPI PUSH1 0x40 MLOAD PUSH32 0x8C379A000000000000000000000000000000000000000000000000000000000 DUP2 MSTORE PUSH1 0x4 ADD PUSH2 0xCAB SWAP1 PUSH2 0x4EAC JUMP JUMPDEST PUSH1 0x40 MLOAD DUP1 SWAP2 SUB SWAP1 REVERT JUMPDEST PUSH1 0x0 PUSH1 0x5 DUP4 DUP2 SLOAD DUP2 LT PUSH2 0xCCA JUMPI PUSH2 0xCC9 PUSH2 0x4F38 JUMP JUMPDEST JUMPDEST SWAP1 PUSH1 0x0 MSTORE PUSH1 0x20 PUSH1 0x0 KECCAK256 SWAP1 PUSH1 0x7 MUL ADD SWAP1 POP PUSH1 0x0 PUSH1 0x6 PUSH1 0x0 DUP6 DUP2 MSTORE PUSH1 0x20 ADD SWAP1 DUP2 MSTORE PUSH1 0x20 ADD PUSH1 0x0 KECCAK256 PUSH1 0x0 CALLER PUSH20 0xFFFFFFFFFFFFFFFFFFFFFFFFFFFFFFFFFFFFFFFF AND PUSH20 0xFFFFFFFFFFFFFFFFFFFFFFFFFFFFFFFFFFFFFFFF AND DUP2 MSTORE PUSH1 0x20 ADD SWAP1 DUP2 MSTORE PUSH1 0x20 ADD PUSH1 0x0 KECCAK256 SWAP1 POP PUSH1 0x0 DUP1 PUSH1 0x0 JUMPDEST DUP4 PUSH1 0x3 ADD DUP1 SLOAD SWAP1 POP DUP2 LT ISZERO PUSH2 0xDC1 JUMPI NUMBER DUP5 PUSH1 0x3 ADD DUP3 DUP2 SLOAD DUP2 LT PUSH2 0xD5A JUMPI PUSH2 0xD59 PUSH2 0x4F38 JUMP JUMPDEST JUMPDEST SWAP1 PUSH1 0x0 MSTORE PUSH1 0x20 PUSH1 0x0 KECCAK256 SWAP1 PUSH1 0x2 MUL ADD PUSH1 0x1 ADD SLOAD GT PUSH2 0xDC1 JUMPI DUP4 PUSH1 0x3 ADD DUP2 DUP2 SLOAD DUP2 LT PUSH2 0xD87 JUMPI PUSH2 0xD86 PUSH2 0x4F38 JUMP JUMPDEST JUMPDEST SWAP1 PUSH1 0x0 MSTORE PUSH1 0x20 PUSH1 0x0 KECCAK256 SWAP1 PUSH1 0x2 MUL ADD PUSH1 0x0 ADD SLOAD DUP4 PUSH2 0xDA4 SWAP2 SWAP1 PUSH2 0x4F96 JUMP JUMPDEST SWAP3 POP DUP2 DUP1 PUSH2 0xDB1 SWAP1 PUSH2 0x4FCA JUMP JUMPDEST SWAP3 POP POP DUP1 DUP1 PUSH1 0x1 ADD SWAP2 POP POP PUSH2 0xD34 JUMP JUMPDEST POP PUSH1 0x0 JUMPDEST DUP2 DUP5 PUSH1 0x3 ADD DUP1 SLOAD SWAP1 POP PUSH2 0xDD8 SWAP2 SWAP1 PUSH2 0x5012 JUMP JUMPDEST DUP2 LT ISZERO PUSH2 0xE56 JUMPI DUP4 PUSH1 0x3 ADD DUP3 DUP3 PUSH2 0xDEF SWAP2 SWAP1 PUSH2 0x4F96 JUMP JUMPDEST DUP2 SLOAD DUP2 LT PUSH2 0xE00 JUMPI PUSH2 0xDFF PUSH2 0x4F38 JUMP JUMPDEST JUMPDEST SWAP1 PUSH1 0x0 MSTORE PUSH1 0x20 PUSH1 0x0 KECCAK256 SWAP1 PUSH1 0x2 MUL ADD DUP5 PUSH1 0x3 ADD DUP3 DUP2 SLOAD DUP2 LT PUSH2 0xE24 JUMPI PUSH2 0xE23 PUSH2 0x4F38 JUMP JUMPDEST JUMPDEST SWAP1 PUSH1 0x0 MSTORE PUSH1 0x20 PUSH1 0x0 KECCAK256 SWAP1 PUSH1 0x2 MUL ADD PUSH1 0x0 DUP3 ADD SLOAD DUP2 PUSH1 0x0 ADD SSTORE PUSH1 0x1 DUP3 ADD SLOAD DUP2 PUSH1 0x1 ADD SSTORE SWAP1 POP POP DUP1 DUP1 PUSH1 0x1 ADD SWAP2 POP POP PUSH2 0xDC5 JUMP JUMPDEST POP PUSH1 0x0 JUMPDEST DUP2 DUP2 LT ISZERO PUSH2 0xEAC JUMPI DUP4 PUSH1 0x3 ADD DUP1 SLOAD DUP1 PUSH2 0xE76 JUMPI PUSH2 0xE75 PUSH2 0x5046 JUMP JUMPDEST JUMPDEST PUSH1 0x1 SWAP1 SUB DUP2 DUP2 SWAP1 PUSH1 0x0 MSTORE PUSH1 0x20 PUSH1 0x0 KECCAK256 SWAP1 PUSH1 0x2 MUL ADD PUSH1 0x0 DUP1 DUP3 ADD PUSH1 0x0 SWAP1 SSTORE PUSH1 0x1 DUP3 ADD PUSH1 0x0 SWAP1 SSTORE POP POP SWAP1 SSTORE DUP1 DUP1 PUSH1 0x1 ADD SWAP2 POP POP PUSH2 0xE5A JUMP JUMPDEST POP PUSH1 0x0 DUP3 GT ISZERO PUSH2 0xF6E JUMPI PUSH1 0x0 PUSH20 0xFFFFFFFFFFFFFFFFFFFFFFFFFFFFFFFFFFFFFFFF AND DUP5 PUSH1 0x0 ADD PUSH1 0x0 SWAP1 SLOAD SWAP1 PUSH2 0x100 EXP SWAP1 DIV PUSH20 0xFFFFFFFFFFFFFFFFFFFFFFFFFFFFFFFFFFFFFFFF AND PUSH20 0xFFFFFFFFFFFFFFFFFFFFFFFFFFFFFFFFFFFFFFFF AND SUB PUSH2 0xF1D JUMPI PUSH2 0xF18 CALLER DUP4 PUSH2 0x32D6 JUMP JUMPDEST PUSH2 0xF6D JUMP JUMPDEST PUSH2 0xF6C CALLER DUP4 DUP7 PUSH1 0x0 ADD PUSH1 0x0 SWAP1 SLOAD SWAP1 PUSH2 0x100 EXP SWAP1 DIV PUSH20 0xFFFFFFFFFFFFFFFFFFFFFFFFFFFFFFFFFFFFFFFF AND PUSH20 0xFFFFFFFFFFFFFFFFFFFFFFFFFFFFFFFFFFFFFFFF AND PUSH2 0x33E8 SWAP1 SWAP3 SWAP2 SWAP1 PUSH4 0xFFFFFFFF AND JUMP JUMPDEST JUMPDEST JUMPDEST NUMBER DUP7 CALLER PUSH20 0xFFFFFFFFFFFFFFFFFFFFFFFFFFFFFFFFFFFFFFFF AND PUSH32 0x2F25270A4D87BEA75DB541CDFE559334A275B4A233520ED6C0A2429667CCA94 DUP6 PUSH1 0x40 MLOAD PUSH2 0xFB6 SWAP2 SWAP1 PUSH2 0x4634 JUMP JUMPDEST PUSH1 0x40 MLOAD DUP1 SWAP2 SUB SWAP1 LOG4 POP POP POP POP POP POP JUMP JUMPDEST PUSH2 0xFCF DUP3 PUSH2 0xBE6 JUMP JUMPDEST PUSH2 0xFD8 DUP2 PUSH2 0x3467 JUMP JUMPDEST PUSH2 0xFE2 DUP4 DUP4 PUSH2 0x347B JUMP JUMPDEST POP POP POP POP JUMP JUMPDEST PUSH1 0x3 PUSH1 0x0 SWAP1 SLOAD SWAP1 PUSH2 0x100 EXP SWAP1 DIV PUSH1 0xFF AND DUP2 JUMP JUMPDEST PUSH2 0x1003 PUSH2 0x357C JUMP JUMPDEST PUSH20 0xFFFFFFFFFFFFFFFFFFFFFFFFFFFFFFFFFFFFFFFF AND DUP2 PUSH20 0xFFFFFFFFFFFFFFFFFFFFFFFFFFFFFFFFFFFFFFFF AND EQ PUSH2 0x1067 JUMPI PUSH1 0x40 MLOAD PUSH32 0x6697B23200000000000000000000000000000000000000000000000000000000 DUP2 MSTORE PUSH1 0x4 ADD PUSH1 0x40 MLOAD DUP1 SWAP2 SUB SWAP1 REVERT JUMPDEST PUSH2 0x1071 DUP3 DUP3 PUSH2 0x3584 JUMP JUMPDEST POP POP POP JUMP JUMPDEST PUSH1 0x6 PUSH1 0x20 MSTORE DUP2 PUSH1 0x0 MSTORE PUSH1 0x40 PUSH1 0x0 KECCAK256 PUSH1 0x20 MSTORE DUP1 PUSH1 0x0 MSTORE PUSH1 0x40 PUSH1 0x0 KECCAK256 PUSH1 0x0 SWAP2 POP SWAP2 POP POP DUP1 PUSH1 0x0 ADD SLOAD SWAP1 DUP1 PUSH1 0x1 ADD SLOAD SWAP1 DUP1 PUSH1 0x2 ADD SLOAD SWAP1 POP DUP4 JUMP JUMPDEST PUSH2 0x10B5 PUSH2 0x3295 JUMP JUMPDEST DUP1 PUSH1 0x5 DUP1 SLOAD SWAP1 POP DUP2 LT PUSH2 0x10FD JUMPI PUSH1 0x40 MLOAD PUSH32 0x8C379A000000000000000000000000000000000000000000000000000000000 DUP2 MSTORE PUSH1 0x4 ADD PUSH2 0x10F4 SWAP1 PUSH2 0x4EAC JUMP JUMPDEST PUSH1 0x40 MLOAD DUP1 SWAP2 SUB SWAP1 REVERT JUMPDEST PUSH1 0x3 PUSH1 0x1 SWAP1 SLOAD SWAP1 PUSH2 0x100 EXP SWAP1 DIV PUSH1 0xFF AND ISZERO PUSH2 0x114D JUMPI PUSH1 0x40 MLOAD PUSH32 0x8C379A000000000000000000000000000000000000000000000000000000000 DUP2 MSTORE PUSH1 0x4 ADD PUSH2 0x1144 SWAP1 PUSH2 0x50C1 JUMP JUMPDEST PUSH1 0x40 MLOAD DUP1 SWAP2 SUB SWAP1 REVERT JUMPDEST PUSH1 0x0 PUSH1 0x5 DUP4 DUP2 SLOAD DUP2 LT PUSH2 0x1163 JUMPI PUSH2 0x1162 PUSH2 0x4F38 JUMP JUMPDEST JUMPDEST SWAP1 PUSH1 0x0 MSTORE PUSH1 0x20 PUSH1 0x0 KECCAK256 SWAP1 PUSH1 0x7 MUL ADD SWAP1 POP PUSH1 0x0 PUSH1 0x6 PUSH1 0x0 DUP6 DUP2 MSTORE PUSH1 0x20 ADD SWAP1 DUP2 MSTORE PUSH1 0x20 ADD PUSH1 0x0 KECCAK256 PUSH1 0x0 CALLER PUSH20 0xFFFFFFFFFFFFFFFFFFFFFFFFFFFFFFFFFFFFFFFF AND PUSH20 0xFFFFFFFFFFFFFFFFFFFFFFFFFFFFFFFFFFFFFFFF AND DUP2 MSTORE PUSH1 0x20 ADD SWAP1 DUP2 MSTORE PUSH1 0x20 ADD PUSH1 0x0 KECCAK256 SWAP1 POP PUSH2 0x11D0 DUP5 PUSH2 0x16C5 JUMP JUMPDEST PUSH1 0x0 DUP2 PUSH1 0x2 ADD SLOAD DUP3 PUSH1 0x1 ADD SLOAD DUP5 PUSH1 0x3 ADD SLOAD DUP5 PUSH1 0x0 ADD SLOAD PUSH2 0x11F0 SWAP2 SWAP1 PUSH2 0x50E1 JUMP JUMPDEST PUSH2 0x11FA SWAP2 SWAP1 PUSH2 0x5012 JUMP JUMPDEST PUSH2 0x1204 SWAP2 SWAP1 PUSH2 0x4F96 JUMP JUMPDEST SWAP1 POP PUSH1 0x0 DUP2 GT ISZERO PUSH2 0x1224 JUMPI PUSH1 0x0 DUP3 PUSH1 0x2 ADD DUP2 SWAP1 SSTORE POP PUSH2 0x1223 CALLER DUP3 PUSH2 0x3686 JUMP JUMPDEST JUMPDEST PUSH8 0xDE0B6B3A7640000 DUP4 PUSH1 0x3 ADD SLOAD DUP4 PUSH1 0x0 ADD SLOAD PUSH2 0x1241 SWAP2 SWAP1 PUSH2 0x50E1 JUMP JUMPDEST PUSH2 0x124B SWAP2 SWAP1 PUSH2 0x5152 JUMP JUMPDEST DUP3 PUSH1 0x1 ADD DUP2 SWAP1 SSTORE POP DUP5 CALLER PUSH20 0xFFFFFFFFFFFFFFFFFFFFFFFFFFFFFFFFFFFFFFFF AND PUSH32 0x34FCBAC0073D7C3D388E51312FAF357774904998EEB8FCA628B9E6F65EE1CBF7 DUP4 PUSH1 0x40 MLOAD PUSH2 0x129A SWAP2 SWAP1 PUSH2 0x4634 JUMP JUMPDEST PUSH1 0x40 MLOAD DUP1 SWAP2 SUB SWAP1 LOG3 POP POP POP POP POP JUMP JUMPDEST PUSH1 0x0 DUP1 PUSH1 0x5 DUP6 DUP2 SLOAD DUP2 LT PUSH2 0x12C0 JUMPI PUSH2 0x12BF PUSH2 0x4F38 JUMP JUMPDEST JUMPDEST SWAP1 PUSH1 0x0 MSTORE PUSH1 0x20 PUSH1 0x0 KECCAK256 SWAP1 PUSH1 0x7 MUL ADD SWAP1 POP PUSH1 0x0 PUSH1 0x6 PUSH1 0x0 DUP8 DUP2 MSTORE PUSH1 0x20 ADD SWAP1 DUP2 MSTORE PUSH1 0x20 ADD PUSH1 0x0 KECCAK256 PUSH1 0x0 DUP7 PUSH20 0xFFFFFFFFFFFFFFFFFFFFFFFFFFFFFFFFFFFFFFFF AND PUSH20 0xFFFFFFFFFFFFFFFFFFFFFFFFFFFFFFFFFFFFFFFF AND DUP2 MSTORE PUSH1 0x20 ADD SWAP1 DUP2 MSTORE PUSH1 0x20 ADD PUSH1 0x0 KECCAK256 SWAP1 POP PUSH1 0x0 DUP3 PUSH1 0x3 ADD SLOAD SWAP1 POP PUSH1 0x0 DUP4 PUSH1 0x4 ADD SLOAD SWAP1 POP DUP4 PUSH1 0x2 ADD SLOAD DUP7 LT DUP1 ISZERO PUSH2 0x134A JUMPI POP PUSH1 0x0 DUP2 EQ ISZERO JUMPDEST ISZERO PUSH2 0x13B1 JUMPI PUSH1 0x0 PUSH2 0x135F DUP6 PUSH1 0x2 ADD SLOAD DUP9 PUSH2 0x1B25 JUMP JUMPDEST SWAP1 POP PUSH1 0x0 PUSH1 0x4 SLOAD DUP7 PUSH1 0x1 ADD SLOAD DUP4 PUSH2 0x1376 SWAP2 SWAP1 PUSH2 0x50E1 JUMP JUMPDEST PUSH2 0x1380 SWAP2 SWAP1 PUSH2 0x5152 JUMP JUMPDEST SWAP1 POP DUP3 PUSH8 0xDE0B6B3A7640000 DUP3 PUSH2 0x1397 SWAP2 SWAP1 PUSH2 0x50E1 JUMP JUMPDEST PUSH2 0x13A1 SWAP2 SWAP1 PUSH2 0x5152 JUMP JUMPDEST DUP5 PUSH2 0x13AC SWAP2 SWAP1 PUSH2 0x4F96 JUMP JUMPDEST SWAP4 POP POP POP JUMPDEST DUP3 PUSH1 0x2 ADD SLOAD DUP4 PUSH1 0x1 ADD SLOAD PUSH8 0xDE0B6B3A7640000 DUP5 DUP7 PUSH1 0x0 ADD SLOAD PUSH2 0x13D4 SWAP2 SWAP1 PUSH2 0x50E1 JUMP JUMPDEST PUSH2 0x13DE SWAP2 SWAP1 PUSH2 0x5152 JUMP JUMPDEST PUSH2 0x13E8 SWAP2 SWAP1 PUSH2 0x5012 JUMP JUMPDEST PUSH2 0x13F2 SWAP2 SWAP1 PUSH2 0x4F96 JUMP JUMPDEST SWAP5 POP POP POP POP POP SWAP4 SWAP3 POP POP POP JUMP JUMPDEST PUSH1 0x0 SLOAD DUP2 JUMP JUMPDEST PUSH1 0x0 PUSH2 0x140F PUSH2 0x387A JUMP JUMPDEST SWAP1 POP PUSH1 0x0 DUP2 PUSH1 0x0 ADD PUSH1 0x8 SWAP1 SLOAD SWAP1 PUSH2 0x100 EXP SWAP1 DIV PUSH1 0xFF AND ISZERO SWAP1 POP PUSH1 0x0 DUP3 PUSH1 0x0 ADD PUSH1 0x0 SWAP1 SLOAD SWAP1 PUSH2 0x100 EXP SWAP1 DIV PUSH8 0xFFFFFFFFFFFFFFFF AND SWAP1 POP PUSH1 0x0 DUP1 DUP3 PUSH8 0xFFFFFFFFFFFFFFFF AND EQ DUP1 ISZERO PUSH2 0x145D JUMPI POP DUP3 JUMPDEST SWAP1 POP PUSH1 0x0 PUSH1 0x1 DUP4 PUSH8 0xFFFFFFFFFFFFFFFF AND EQ DUP1 ISZERO PUSH2 0x1492 JUMPI POP PUSH1 0x0 ADDRESS PUSH20 0xFFFFFFFFFFFFFFFFFFFFFFFFFFFFFFFFFFFFFFFF AND EXTCODESIZE EQ JUMPDEST SWAP1 POP DUP2 ISZERO DUP1 ISZERO PUSH2 0x14A0 JUMPI POP DUP1 ISZERO JUMPDEST ISZERO PUSH2 0x14D7 JUMPI PUSH1 0x40 MLOAD PUSH32 0xF92EE8A900000000000000000000000000000000000000000000000000000000 DUP2 MSTORE PUSH1 0x4 ADD PUSH1 0x40 MLOAD DUP1 SWAP2 SUB SWAP1 REVERT JUMPDEST PUSH1 0x1 DUP6 PUSH1 0x0 ADD PUSH1 0x0 PUSH2 0x100 EXP DUP2 SLOAD DUP2 PUSH8 0xFFFFFFFFFFFFFFFF MUL NOT AND SWAP1 DUP4 PUSH8 0xFFFFFFFFFFFFFFFF AND MUL OR SWAP1 SSTORE POP DUP4 ISZERO PUSH2 0x1527 JUMPI PUSH1 0x1 DUP6 PUSH1 0x0 ADD PUSH1 0x8 PUSH2 0x100 EXP DUP2 SLOAD DUP2 PUSH1 0xFF MUL NOT AND SWAP1 DUP4 ISZERO ISZERO MUL OR SWAP1 SSTORE POP JUMPDEST DUP7 DUP9 GT ISZERO PUSH2 0x156A JUMPI PUSH1 0x40 MLOAD PUSH32 0x8C379A000000000000000000000000000000000000000000000000000000000 DUP2 MSTORE PUSH1 0x4 ADD PUSH2 0x1561 SWAP1 PUSH2 0x51F5 JUMP JUMPDEST PUSH1 0x40 MLOAD DUP1 SWAP2 SUB SWAP1 REVERT JUMPDEST PUSH1 0x0 DUP7 GT PUSH2 0x15AD JUMPI PUSH1 0x40 MLOAD PUSH32 0x8C379A000000000000000000000000000000000000000000000000000000000 DUP2 MSTORE PUSH1 0x4 ADD PUSH2 0x15A4 SWAP1 PUSH2 0x5287 JUMP JUMPDEST PUSH1 0x40 MLOAD DUP1 SWAP2 SUB SWAP1 REVERT JUMPDEST PUSH2 0x15B5 PUSH2 0x38A2 JUMP JUMPDEST PUSH2 0x15BD PUSH2 0x38AC JUMP JUMPDEST PUSH2 0x15CA PUSH1 0x0 DUP1 SHL CALLER PUSH2 0x347B JUMP JUMPDEST POP PUSH2 0x15F5 PUSH32 0xF47FC0C09EBBFE308D89B8035681A1164B9882BCFD49EB89861067738A30F5AB CALLER PUSH2 0x347B JUMP JUMPDEST POP PUSH2 0x1620 PUSH32 0x589D473BA17C0F47D494622893831497BAD25919B9AFB8E33E9521B8963FCCDE CALLER PUSH2 0x347B JUMP JUMPDEST POP PUSH2 0x162A DUP10 PUSH2 0x2C7B JUMP JUMPDEST DUP8 PUSH1 0x0 DUP2 SWAP1 SSTORE POP DUP7 PUSH1 0x1 DUP2 SWAP1 SSTORE POP DUP6 PUSH1 0x2 DUP2 SWAP1 SSTORE POP DUP4 ISZERO PUSH2 0x169B JUMPI PUSH1 0x0 DUP6 PUSH1 0x0 ADD PUSH1 0x8 PUSH2 0x100 EXP DUP2 SLOAD DUP2 PUSH1 0xFF MUL NOT AND SWAP1 DUP4 ISZERO ISZERO MUL OR SWAP1 SSTORE POP PUSH32 0xC7F505B2F371AE2175EE4913F4499E1F2633A7B5936321EED1CDAEB6115181D2 PUSH1 0x1 PUSH1 0x40 MLOAD PUSH2 0x1692 SWAP2 SWAP1 PUSH2 0x52F6 JUMP JUMPDEST PUSH1 0x40 MLOAD DUP1 SWAP2 SUB SWAP1 LOG1 JUMPDEST POP POP POP POP POP POP POP POP POP JUMP JUMPDEST PUSH2 0x16AE PUSH2 0x38B6 JUMP JUMPDEST PUSH2 0x16B7 DUP3 PUSH2 0x399C JUMP JUMPDEST PUSH2 0x16C1 DUP3 DUP3 PUSH2 0x39CA JUMP JUMPDEST POP POP JUMP JUMPDEST DUP1 PUSH1 0x5 DUP1 SLOAD SWAP1 POP DUP2 LT PUSH2 0x170D JUMPI PUSH1 0x40 MLOAD PUSH32 0x8C379A000000000000000000000000000000000000000000000000000000000 DUP2 MSTORE PUSH1 0x4 ADD PUSH2 0x1704 SWAP1 PUSH2 0x4EAC JUMP JUMPDEST PUSH1 0x40 MLOAD DUP1 SWAP2 SUB SWAP1 REVERT JUMPDEST PUSH1 0x0 PUSH1 0x5 DUP4 DUP2 SLOAD DUP2 LT PUSH2 0x1723 JUMPI PUSH2 0x1722 PUSH2 0x4F38 JUMP JUMPDEST JUMPDEST SWAP1 PUSH1 0x0 MSTORE PUSH1 0x20 PUSH1 0x0 KECCAK256 SWAP1 PUSH1 0x7 MUL ADD SWAP1 POP DUP1 PUSH1 0x2 ADD SLOAD NUMBER GT PUSH2 0x1744 JUMPI POP PUSH2 0x19AD JUMP JUMPDEST PUSH1 0x0 DUP2 PUSH1 0x4 ADD SLOAD SWAP1 POP PUSH1 0x0 DUP2 SUB PUSH2 0x1765 JUMPI NUMBER DUP3 PUSH1 0x2 ADD DUP2 SWAP1 SSTORE POP POP POP PUSH2 0x19AD JUMP JUMPDEST PUSH1 0x0 DUP1 PUSH2 0x178C DUP5 PUSH1 0x1 ADD SLOAD PUSH2 0x177E DUP7 PUSH1 0x2 ADD SLOAD NUMBER PUSH2 0x1B25 JUMP JUMPDEST PUSH2 0x3AE9 SWAP1 SWAP2 SWAP1 PUSH4 0xFFFFFFFF AND JUMP JUMPDEST SWAP2 POP SWAP2 POP DUP2 PUSH2 0x17D0 JUMPI PUSH1 0x40 MLOAD PUSH32 0x8C379A000000000000000000000000000000000000000000000000000000000 DUP2 MSTORE PUSH1 0x4 ADD PUSH2 0x17C7 SWAP1 PUSH2 0x535D JUMP JUMPDEST PUSH1 0x40 MLOAD DUP1 SWAP2 SUB SWAP1 REVERT JUMPDEST PUSH2 0x17E5 PUSH1 0x4 SLOAD DUP3 PUSH2 0x3B3C SWAP1 SWAP2 SWAP1 PUSH4 0xFFFFFFFF AND JUMP JUMPDEST DUP1 SWAP3 POP DUP2 SWAP4 POP POP POP DUP2 PUSH2 0x182D JUMPI PUSH1 0x40 MLOAD PUSH32 0x8C379A000000000000000000000000000000000000000000000000000000000 DUP2 MSTORE PUSH1 0x4 ADD PUSH2 0x1824 SWAP1 PUSH2 0x535D JUMP JUMPDEST PUSH1 0x40 MLOAD DUP1 SWAP2 SUB SWAP1 REVERT JUMPDEST PUSH1 0x0 DUP5 PUSH1 0x4 ADD SLOAD SWAP1 POP PUSH1 0x0 DUP2 GT ISZERO PUSH2 0x1961 JUMPI PUSH1 0x0 DUP1 PUSH2 0x1856 PUSH1 0x1 DUP6 PUSH2 0x3AE9 SWAP1 SWAP2 SWAP1 PUSH4 0xFFFFFFFF AND JUMP JUMPDEST SWAP2 POP SWAP2 POP DUP2 PUSH2 0x189A JUMPI PUSH1 0x40 MLOAD PUSH32 0x8C379A000000000000000000000000000000000000000000000000000000000 DUP2 MSTORE PUSH1 0x4 ADD PUSH2 0x1891 SWAP1 PUSH2 0x535D JUMP JUMPDEST PUSH1 0x40 MLOAD DUP1 SWAP2 SUB SWAP1 REVERT JUMPDEST PUSH2 0x18AD DUP4 DUP3 PUSH2 0x3B3C SWAP1 SWAP2 SWAP1 PUSH4 0xFFFFFFFF AND JUMP JUMPDEST DUP1 SWAP3 POP DUP2 SWAP4 POP POP POP DUP2 PUSH2 0x18F5 JUMPI PUSH1 0x40 MLOAD PUSH32 0x8C379A000000000000000000000000000000000000000000000000000000000 DUP2 MSTORE PUSH1 0x4 ADD PUSH2 0x18EC SWAP1 PUSH2 0x535D JUMP JUMPDEST PUSH1 0x40 MLOAD DUP1 SWAP2 SUB SWAP1 REVERT JUMPDEST PUSH1 0x0 DUP1 PUSH2 0x190F DUP4 DUP11 PUSH1 0x3 ADD SLOAD PUSH2 0x3B72 SWAP1 SWAP2 SWAP1 PUSH4 0xFFFFFFFF AND JUMP JUMPDEST SWAP2 POP SWAP2 POP DUP2 PUSH2 0x1953 JUMPI PUSH1 0x40 MLOAD PUSH32 0x8C379A000000000000000000000000000000000000000000000000000000000 DUP2 MSTORE PUSH1 0x4 ADD PUSH2 0x194A SWAP1 PUSH2 0x535D JUMP JUMPDEST PUSH1 0x40 MLOAD DUP1 SWAP2 SUB SWAP1 REVERT JUMPDEST DUP1 DUP10 PUSH1 0x3 ADD DUP2 SWAP1 SSTORE POP POP POP POP POP JUMPDEST NUMBER DUP6 PUSH1 0x2 ADD DUP2 SWAP1 SSTORE POP DUP5 PUSH1 0x2 ADD SLOAD DUP8 PUSH32 0xF5D2D72D9B25D6853AFD7D0554A113B705234B6A68BB36B7F143662994632411 DUP5 PUSH1 0x40 MLOAD PUSH2 0x199F SWAP2 SWAP1 PUSH2 0x4634 JUMP JUMPDEST PUSH1 0x40 MLOAD DUP1 SWAP2 SUB SWAP1 LOG3 POP POP POP POP POP JUMPDEST POP POP JUMP JUMPDEST PUSH1 0x0 PUSH2 0x19BB PUSH2 0x3BA1 JUMP JUMPDEST PUSH32 0x360894A13BA1A3210667C828492DB98DCA3E2076CC3735A920A3CA505D382BBC PUSH1 0x0 SHL SWAP1 POP SWAP1 JUMP JUMPDEST PUSH1 0x0 DUP1 PUSH2 0x19EF PUSH2 0x3C28 JUMP JUMPDEST SWAP1 POP DUP1 PUSH1 0x0 ADD PUSH1 0x0 SWAP1 SLOAD SWAP1 PUSH2 0x100 EXP SWAP1 DIV PUSH1 0xFF AND SWAP2 POP POP SWAP1 JUMP JUMPDEST PUSH32 0x589D473BA17C0F47D494622893831497BAD25919B9AFB8E33E9521B8963FCCDE PUSH2 0x1A33 DUP2 PUSH2 0x3467 JUMP JUMPDEST PUSH1 0x3 PUSH1 0x0 SWAP1 SLOAD SWAP1 PUSH2 0x100 EXP SWAP1 DIV PUSH1 0xFF AND PUSH2 0x1A82 JUMPI PUSH1 0x40 MLOAD PUSH32 0x8C379A000000000000000000000000000000000000000000000000000000000 DUP2 MSTORE PUSH1 0x4 ADD PUSH2 0x1A79 SWAP1 PUSH2 0x53EF JUMP JUMPDEST PUSH1 0x40 MLOAD DUP1 SWAP2 SUB SWAP1 REVERT JUMPDEST PUSH1 0x1 PUSH1 0x3 PUSH1 0x0 PUSH2 0x100 EXP DUP2 SLOAD DUP2 PUSH1 0xFF MUL NOT AND SWAP1 DUP4 ISZERO ISZERO MUL OR SWAP1 SSTORE POP PUSH32 0x2523DFDAFA00190F21A4CBD0C25179C8DD3CB34A6C17FEA952ECCA8FA8332C0E PUSH1 0x40 MLOAD PUSH1 0x40 MLOAD DUP1 SWAP2 SUB SWAP1 LOG1 POP JUMP JUMPDEST PUSH1 0x0 PUSH1 0x5 DUP1 SLOAD SWAP1 POP SWAP1 POP PUSH1 0x0 JUMPDEST DUP2 DUP2 LT ISZERO PUSH2 0x1AF7 JUMPI PUSH2 0x1AEA DUP2 PUSH2 0x16C5 JUMP JUMPDEST DUP1 DUP1 PUSH1 0x1 ADD SWAP2 POP POP PUSH2 0x1AD9 JUMP JUMPDEST POP POP JUMP JUMPDEST PUSH1 0x2 SLOAD DUP2 JUMP JUMPDEST PUSH32 0x589D473BA17C0F47D494622893831497BAD25919B9AFB8E33E9521B8963FCCDE DUP2 JUMP JUMPDEST PUSH1 0x0 DUP2 DUP4 GT ISZERO PUSH2 0x1B6A JUMPI PUSH1 0x40 MLOAD PUSH32 0x8C379A000000000000000000000000000000000000000000000000000000000 DUP2 MSTORE PUSH1 0x4 ADD PUSH2 0x1B61 SWAP1 PUSH2 0x545B JUMP JUMPDEST PUSH1 0x40 MLOAD DUP1 SWAP2 SUB SWAP1 REVERT JUMPDEST PUSH1 0x0 SLOAD DUP4 LT ISZERO PUSH2 0x1B7A JUMPI PUSH1 0x0 SLOAD SWAP3 POP JUMPDEST PUSH1 0x1 SLOAD DUP3 GT ISZERO PUSH2 0x1B8A JUMPI PUSH1 0x1 SLOAD SWAP2 POP JUMPDEST PUSH1 0x0 DUP4 DUP4 PUSH2 0x1B98 SWAP2 SWAP1 PUSH2 0x5012 JUMP JUMPDEST GT PUSH2 0x1BD8 JUMPI PUSH1 0x40 MLOAD PUSH32 0x8C379A000000000000000000000000000000000000000000000000000000000 DUP2 MSTORE PUSH1 0x4 ADD PUSH2 0x1BCF SWAP1 PUSH2 0x545B JUMP JUMPDEST PUSH1 0x40 MLOAD DUP1 SWAP2 SUB SWAP1 REVERT JUMPDEST PUSH1 0x0 PUSH2 0x1BFA PUSH1 0x2 SLOAD DUP6 DUP6 PUSH2 0x1BEC SWAP2 SWAP1 PUSH2 0x5012 JUMP JUMPDEST PUSH2 0x3AE9 SWAP1 SWAP2 SWAP1 PUSH4 0xFFFFFFFF AND JUMP JUMPDEST DUP1 SWAP4 POP DUP2 SWAP3 POP POP POP DUP1 PUSH2 0x1C42 JUMPI PUSH1 0x40 MLOAD PUSH32 0x8C379A000000000000000000000000000000000000000000000000000000000 DUP2 MSTORE PUSH1 0x4 ADD PUSH2 0x1C39 SWAP1 PUSH2 0x54C7 JUMP JUMPDEST PUSH1 0x40 MLOAD DUP1 SWAP2 SUB SWAP1 REVERT JUMPDEST POP SWAP3 SWAP2 POP POP JUMP JUMPDEST PUSH32 0x589D473BA17C0F47D494622893831497BAD25919B9AFB8E33E9521B8963FCCDE PUSH2 0x1C73 DUP2 PUSH2 0x3467 JUMP JUMPDEST PUSH1 0x3 PUSH1 0x1 SWAP1 SLOAD SWAP1 PUSH2 0x100 EXP SWAP1 DIV PUSH1 0xFF AND ISZERO PUSH2 0x1CC3 JUMPI PUSH1 0x40 MLOAD PUSH32 0x8C379A000000000000000000000000000000000000000000000000000000000 DUP2 MSTORE PUSH1 0x4 ADD PUSH2 0x1CBA SWAP1 PUSH2 0x5533 JUMP JUMPDEST PUSH1 0x40 MLOAD DUP1 SWAP2 SUB SWAP1 REVERT JUMPDEST PUSH1 0x1 PUSH1 0x3 PUSH1 0x1 PUSH2 0x100 EXP DUP2 SLOAD DUP2 PUSH1 0xFF MUL NOT AND SWAP1 DUP4 ISZERO ISZERO MUL OR SWAP1 SSTORE POP PUSH32 0x443BF540E8151617CD5C39A681CC35A5A22BE078B6F0CF16E5BD822B4C4B61FF PUSH1 0x40 MLOAD PUSH1 0x40 MLOAD DUP1 SWAP2 SUB SWAP1 LOG1 POP JUMP JUMPDEST PUSH1 0x0 DUP1 PUSH2 0x1D18 PUSH2 0x326D JUMP JUMPDEST SWAP1 POP DUP1 PUSH1 0x0 ADD PUSH1 0x0 DUP6 DUP2 MSTORE PUSH1 0x20 ADD SWAP1 DUP2 MSTORE PUSH1 0x20 ADD PUSH1 0x0 KECCAK256 PUSH1 0x0 ADD PUSH1 0x0 DUP5 PUSH20 0xFFFFFFFFFFFFFFFFFFFFFFFFFFFFFFFFFFFFFFFF AND PUSH20 0xFFFFFFFFFFFFFFFFFFFFFFFFFFFFFFFFFFFFFFFF AND DUP2 MSTORE PUSH1 0x20 ADD SWAP1 DUP2 MSTORE PUSH1 0x20 ADD PUSH1 0x0 KECCAK256 PUSH1 0x0 SWAP1 SLOAD SWAP1 PUSH2 0x100 EXP SWAP1 DIV PUSH1 0xFF AND SWAP2 POP POP SWAP3 SWAP2 POP POP JUMP JUMPDEST PUSH2 0x1D8E PUSH2 0x3295 JUMP JUMPDEST PUSH1 0x3 PUSH1 0x0 SWAP1 SLOAD SWAP1 PUSH2 0x100 EXP SWAP1 DIV PUSH1 0xFF AND ISZERO PUSH2 0x1DDE JUMPI PUSH1 0x40 MLOAD PUSH32 0x8C379A000000000000000000000000000000000000000000000000000000000 DUP2 MSTORE PUSH1 0x4 ADD PUSH2 0x1DD5 SWAP1 PUSH2 0x4F18 JUMP JUMPDEST PUSH1 0x40 MLOAD DUP1 SWAP2 SUB SWAP1 REVERT JUMPDEST DUP2 PUSH1 0x5 DUP1 SLOAD SWAP1 POP DUP2 LT PUSH2 0x1E26 JUMPI PUSH1 0x40 MLOAD PUSH32 0x8C379A000000000000000000000000000000000000000000000000000000000 DUP2 MSTORE PUSH1 0x4 ADD PUSH2 0x1E1D SWAP1 PUSH2 0x4EAC JUMP JUMPDEST PUSH1 0x40 MLOAD DUP1 SWAP2 SUB SWAP1 REVERT JUMPDEST PUSH1 0x0 PUSH1 0x5 DUP5 DUP2 SLOAD DUP2 LT PUSH2 0x1E3C JUMPI PUSH2 0x1E3B PUSH2 0x4F38 JUMP JUMPDEST JUMPDEST SWAP1 PUSH1 0x0 MSTORE PUSH1 0x20 PUSH1 0x0 KECCAK256 SWAP1 PUSH1 0x7 MUL ADD SWAP1 POP PUSH1 0x0 PUSH1 0x6 PUSH1 0x0 DUP7 DUP2 MSTORE PUSH1 0x20 ADD SWAP1 DUP2 MSTORE PUSH1 0x20 ADD PUSH1 0x0 KECCAK256 PUSH1 0x0 CALLER PUSH20 0xFFFFFFFFFFFFFFFFFFFFFFFFFFFFFFFFFFFFFFFF AND PUSH20 0xFFFFFFFFFFFFFFFFFFFFFFFFFFFFFFFFFFFFFFFF AND DUP2 MSTORE PUSH1 0x20 ADD SWAP1 DUP2 MSTORE PUSH1 0x20 ADD PUSH1 0x0 KECCAK256 SWAP1 POP DUP4 DUP2 PUSH1 0x0 ADD SLOAD LT ISZERO PUSH2 0x1EE7 JUMPI PUSH1 0x40 MLOAD PUSH32 0x8C379A000000000000000000000000000000000000000000000000000000000 DUP2 MSTORE PUSH1 0x4 ADD PUSH2 0x1EDE SWAP1 PUSH2 0x559F JUMP JUMPDEST PUSH1 0x40 MLOAD DUP1 SWAP2 SUB SWAP1 REVERT JUMPDEST PUSH2 0x1EF0 DUP6 PUSH2 0x16C5 JUMP JUMPDEST PUSH1 0x0 DUP1 PUSH2 0x1F0E DUP5 PUSH1 0x3 ADD SLOAD DUP5 PUSH1 0x0 ADD SLOAD PUSH2 0x3AE9 SWAP1 SWAP2 SWAP1 PUSH4 0xFFFFFFFF AND JUMP JUMPDEST SWAP2 POP SWAP2 POP DUP2 PUSH2 0x1F52 JUMPI PUSH1 0x40 MLOAD PUSH32 0x8C379A000000000000000000000000000000000000000000000000000000000 DUP2 MSTORE PUSH1 0x4 ADD PUSH2 0x1F49 SWAP1 PUSH2 0x535D JUMP JUMPDEST PUSH1 0x40 MLOAD DUP1 SWAP2 SUB SWAP1 REVERT JUMPDEST PUSH2 0x1F66 PUSH1 0x1 DUP3 PUSH2 0x3B3C SWAP1 SWAP2 SWAP1 PUSH4 0xFFFFFFFF AND JUMP JUMPDEST DUP1 SWAP3 POP DUP2 SWAP4 POP POP POP DUP2 PUSH2 0x1FAE JUMPI PUSH1 0x40 MLOAD PUSH32 0x8C379A000000000000000000000000000000000000000000000000000000000 DUP2 MSTORE PUSH1 0x4 ADD PUSH2 0x1FA5 SWAP1 PUSH2 0x560B JUMP JUMPDEST PUSH1 0x40 MLOAD DUP1 SWAP2 SUB SWAP1 REVERT JUMPDEST PUSH2 0x1FC5 DUP4 PUSH1 0x1 ADD SLOAD DUP3 PUSH2 0x3C50 SWAP1 SWAP2 SWAP1 PUSH4 0xFFFFFFFF AND JUMP JUMPDEST DUP1 SWAP3 POP DUP2 SWAP4 POP POP POP DUP2 PUSH2 0x200D JUMPI PUSH1 0x40 MLOAD PUSH32 0x8C379A000000000000000000000000000000000000000000000000000000000 DUP2 MSTORE PUSH1 0x4 ADD PUSH2 0x2004 SWAP1 PUSH2 0x5677 JUMP JUMPDEST PUSH1 0x40 MLOAD DUP1 SWAP2 SUB SWAP1 REVERT JUMPDEST PUSH1 0x0 DUP2 GT ISZERO PUSH2 0x2032 JUMPI DUP1 DUP4 PUSH1 0x2 ADD PUSH1 0x0 DUP3 DUP3 SLOAD PUSH2 0x202A SWAP2 SWAP1 PUSH2 0x4F96 JUMP JUMPDEST SWAP3 POP POP DUP2 SWAP1 SSTORE POP JUMPDEST PUSH1 0x0 DUP7 GT ISZERO PUSH2 0x20BE JUMPI DUP6 DUP4 PUSH1 0x0 ADD PUSH1 0x0 DUP3 DUP3 SLOAD PUSH2 0x204F SWAP2 SWAP1 PUSH2 0x5012 JUMP JUMPDEST SWAP3 POP POP DUP2 SWAP1 SSTORE POP DUP3 PUSH1 0x3 ADD PUSH1 0x40 MLOAD DUP1 PUSH1 0x40 ADD PUSH1 0x40 MSTORE DUP1 DUP9 DUP2 MSTORE PUSH1 0x20 ADD DUP7 PUSH1 0x6 ADD SLOAD NUMBER PUSH2 0x207B SWAP2 SWAP1 PUSH2 0x4F96 JUMP JUMPDEST DUP2 MSTORE POP SWAP1 DUP1 PUSH1 0x1 DUP2 SLOAD ADD DUP1 DUP3 SSTORE DUP1 SWAP2 POP POP PUSH1 0x1 SWAP1 SUB SWAP1 PUSH1 0x0 MSTORE PUSH1 0x20 PUSH1 0x0 KECCAK256 SWAP1 PUSH1 0x2 MUL ADD PUSH1 0x0 SWAP1 SWAP2 SWAP1 SWAP2 SWAP1 SWAP2 POP PUSH1 0x0 DUP3 ADD MLOAD DUP2 PUSH1 0x0 ADD SSTORE PUSH1 0x20 DUP3 ADD MLOAD DUP2 PUSH1 0x1 ADD SSTORE POP POP JUMPDEST DUP6 DUP5 PUSH1 0x4 ADD PUSH1 0x0 DUP3 DUP3 SLOAD PUSH2 0x20D2 SWAP2 SWAP1 PUSH2 0x5012 JUMP JUMPDEST SWAP3 POP POP DUP2 SWAP1 SSTORE POP PUSH8 0xDE0B6B3A7640000 DUP5 PUSH1 0x3 ADD SLOAD DUP5 PUSH1 0x0 ADD SLOAD PUSH2 0x20F6 SWAP2 SWAP1 PUSH2 0x50E1 JUMP JUMPDEST PUSH2 0x2100 SWAP2 SWAP1 PUSH2 0x5152 JUMP JUMPDEST DUP4 PUSH1 0x1 ADD DUP2 SWAP1 SSTORE POP DUP7 CALLER PUSH20 0xFFFFFFFFFFFFFFFFFFFFFFFFFFFFFFFFFFFFFFFF AND PUSH32 0xC80277265097707F6F12A4AC4C09D46C9926E2EEA2536F63616CB04D9FCAD7D6 DUP9 PUSH1 0x40 MLOAD PUSH2 0x214F SWAP2 SWAP1 PUSH2 0x4634 JUMP JUMPDEST PUSH1 0x40 MLOAD DUP1 SWAP2 SUB SWAP1 LOG3 POP POP POP POP POP POP POP JUMP JUMPDEST PUSH1 0x0 DUP1 SHL DUP2 JUMP JUMPDEST PUSH1 0x0 DUP3 PUSH1 0x5 DUP1 SLOAD SWAP1 POP DUP2 LT PUSH2 0x21B1 JUMPI PUSH1 0x40 MLOAD PUSH32 0x8C379A000000000000000000000000000000000000000000000000000000000 DUP2 MSTORE PUSH1 0x4 ADD PUSH2 0x21A8 SWAP1 PUSH2 0x4EAC JUMP JUMPDEST PUSH1 0x40 MLOAD DUP1 SWAP2 SUB SWAP1 REVERT JUMPDEST PUSH2 0x21BC DUP5 DUP5 NUMBER PUSH2 0x12A9 JUMP JUMPDEST SWAP2 POP POP SWAP3 SWAP2 POP POP JUMP JUMPDEST PUSH1 0x3 PUSH1 0x2 SWAP1 SLOAD SWAP1 PUSH2 0x100 EXP SWAP1 DIV PUSH20 0xFFFFFFFFFFFFFFFFFFFFFFFFFFFFFFFFFFFFFFFF AND DUP2 JUMP JUMPDEST PUSH1 0x3 PUSH1 0x1 SWAP1 SLOAD SWAP1 PUSH2 0x100 EXP SWAP1 DIV PUSH1 0xFF AND DUP2 JUMP JUMPDEST PUSH1 0x40 MLOAD DUP1 PUSH1 0x40 ADD PUSH1 0x40 MSTORE DUP1 PUSH1 0x5 DUP2 MSTORE PUSH1 0x20 ADD PUSH32 0x352E302E30000000000000000000000000000000000000000000000000000000 DUP2 MSTORE POP DUP2 JUMP JUMPDEST PUSH1 0x0 PUSH1 0x5 DUP1 SLOAD SWAP1 POP SWAP1 POP SWAP1 JUMP JUMPDEST PUSH32 0x589D473BA17C0F47D494622893831497BAD25919B9AFB8E33E9521B8963FCCDE PUSH2 0x226E DUP2 PUSH2 0x3467 JUMP JUMPDEST PUSH1 0x0 PUSH1 0x5 DUP1 SLOAD SWAP1 POP GT ISZERO PUSH2 0x2336 JUMPI PUSH1 0x0 PUSH20 0xFFFFFFFFFFFFFFFFFFFFFFFFFFFFFFFFFFFFFFFF AND PUSH1 0x5 PUSH1 0x0 DUP2 SLOAD DUP2 LT PUSH2 0x22A9 JUMPI PUSH2 0x22A8 PUSH2 0x4F38 JUMP JUMPDEST JUMPDEST SWAP1 PUSH1 0x0 MSTORE PUSH1 0x20 PUSH1 0x0 KECCAK256 SWAP1 PUSH1 0x7 MUL ADD PUSH1 0x0 ADD PUSH1 0x0 SWAP1 SLOAD SWAP1 PUSH2 0x100 EXP SWAP1 DIV PUSH20 0xFFFFFFFFFFFFFFFFFFFFFFFFFFFFFFFFFFFFFFFF AND PUSH20 0xFFFFFFFFFFFFFFFFFFFFFFFFFFFFFFFFFFFFFFFF AND EQ PUSH2 0x2331 JUMPI PUSH1 0x40 MLOAD PUSH32 0x8C379A000000000000000000000000000000000000000000000000000000000 DUP2 MSTORE PUSH1 0x4 ADD PUSH2 0x2328 SWAP1 PUSH2 0x56E3 JUMP JUMPDEST PUSH1 0x40 MLOAD DUP1 SWAP2 SUB SWAP1 REVERT JUMPDEST PUSH2 0x23A6 JUMP JUMPDEST PUSH1 0x0 PUSH20 0xFFFFFFFFFFFFFFFFFFFFFFFFFFFFFFFFFFFFFFFF AND DUP7 PUSH20 0xFFFFFFFFFFFFFFFFFFFFFFFFFFFFFFFFFFFFFFFF AND EQ PUSH2 0x23A5 JUMPI PUSH1 0x40 MLOAD PUSH32 0x8C379A000000000000000000000000000000000000000000000000000000000 DUP2 MSTORE PUSH1 0x4 ADD PUSH2 0x239C SWAP1 PUSH2 0x56E3 JUMP JUMPDEST PUSH1 0x40 MLOAD DUP1 SWAP2 SUB SWAP1 REVERT JUMPDEST JUMPDEST PUSH1 0x0 DUP4 GT PUSH2 0x23E9 JUMPI PUSH1 0x40 MLOAD PUSH32 0x8C379A000000000000000000000000000000000000000000000000000000000 DUP2 MSTORE PUSH1 0x4 ADD PUSH2 0x23E0 SWAP1 PUSH2 0x574F JUMP JUMPDEST PUSH1 0x40 MLOAD DUP1 SWAP2 SUB SWAP1 REVERT JUMPDEST PUSH1 0x1 SLOAD NUMBER LT PUSH2 0x242D JUMPI PUSH1 0x40 MLOAD PUSH32 0x8C379A000000000000000000000000000000000000000000000000000000000 DUP2 MSTORE PUSH1 0x4 ADD PUSH2 0x2424 SWAP1 PUSH2 0x57BB JUMP JUMPDEST PUSH1 0x40 MLOAD DUP1 SWAP2 SUB SWAP1 REVERT JUMPDEST DUP2 ISZERO PUSH2 0x243C JUMPI PUSH2 0x243B PUSH2 0x1ACC JUMP JUMPDEST JUMPDEST PUSH1 0x0 DUP1 SLOAD NUMBER GT PUSH2 0x244E JUMPI PUSH1 0x0 SLOAD PUSH2 0x2450 JUMP JUMPDEST NUMBER JUMPDEST SWAP1 POP DUP6 PUSH1 0x4 PUSH1 0x0 DUP3 DUP3 SLOAD PUSH2 0x2464 SWAP2 SWAP1 PUSH2 0x4F96 JUMP JUMPDEST SWAP3 POP POP DUP2 SWAP1 SSTORE POP PUSH1 0x5 PUSH1 0x40 MLOAD DUP1 PUSH1 0xE0 ADD PUSH1 0x40 MSTORE DUP1 DUP10 PUSH20 0xFFFFFFFFFFFFFFFFFFFFFFFFFFFFFFFFFFFFFFFF AND DUP2 MSTORE PUSH1 0x20 ADD DUP9 DUP2 MSTORE PUSH1 0x20 ADD DUP4 DUP2 MSTORE PUSH1 0x20 ADD PUSH1 0x0 DUP2 MSTORE PUSH1 0x20 ADD PUSH1 0x0 DUP2 MSTORE PUSH1 0x20 ADD DUP8 DUP2 MSTORE PUSH1 0x20 ADD DUP7 DUP2 MSTORE POP SWAP1 DUP1 PUSH1 0x1 DUP2 SLOAD ADD DUP1 DUP3 SSTORE DUP1 SWAP2 POP POP PUSH1 0x1 SWAP1 SUB SWAP1 PUSH1 0x0 MSTORE PUSH1 0x20 PUSH1 0x0 KECCAK256 SWAP1 PUSH1 0x7 MUL ADD PUSH1 0x0 SWAP1 SWAP2 SWAP1 SWAP2 SWAP1 SWAP2 POP PUSH1 0x0 DUP3 ADD MLOAD DUP2 PUSH1 0x0 ADD PUSH1 0x0 PUSH2 0x100 EXP DUP2 SLOAD DUP2 PUSH20 0xFFFFFFFFFFFFFFFFFFFFFFFFFFFFFFFFFFFFFFFF MUL NOT AND SWAP1 DUP4 PUSH20 0xFFFFFFFFFFFFFFFFFFFFFFFFFFFFFFFFFFFFFFFF AND MUL OR SWAP1 SSTORE POP PUSH1 0x20 DUP3 ADD MLOAD DUP2 PUSH1 0x1 ADD SSTORE PUSH1 0x40 DUP3 ADD MLOAD DUP2 PUSH1 0x2 ADD SSTORE PUSH1 0x60 DUP3 ADD MLOAD DUP2 PUSH1 0x3 ADD SSTORE PUSH1 0x80 DUP3 ADD MLOAD DUP2 PUSH1 0x4 ADD SSTORE PUSH1 0xA0 DUP3 ADD MLOAD DUP2 PUSH1 0x5 ADD SSTORE PUSH1 0xC0 DUP3 ADD MLOAD DUP2 PUSH1 0x6 ADD SSTORE POP POP DUP1 DUP7 DUP9 PUSH20 0xFFFFFFFFFFFFFFFFFFFFFFFFFFFFFFFFFFFFFFFF AND PUSH32 0xFA296FCE13E7A0E622B3A892E66220C248337289483A3CFA4130CDE0CAA1346 DUP9 DUP9 PUSH1 0x40 MLOAD PUSH2 0x25B0 SWAP3 SWAP2 SWAP1 PUSH2 0x4E37 JUMP JUMPDEST PUSH1 0x40 MLOAD DUP1 SWAP2 SUB SWAP1 LOG4 POP POP POP POP POP POP POP JUMP JUMPDEST PUSH32 0xF47FC0C09EBBFE308D89B8035681A1164B9882BCFD49EB89861067738A30F5AB DUP2 JUMP JUMPDEST PUSH32 0x589D473BA17C0F47D494622893831497BAD25919B9AFB8E33E9521B8963FCCDE PUSH2 0x260F DUP2 PUSH2 0x3467 JUMP JUMPDEST PUSH1 0x0 DUP3 GT PUSH2 0x2652 JUMPI PUSH1 0x40 MLOAD PUSH32 0x8C379A000000000000000000000000000000000000000000000000000000000 DUP2 MSTORE PUSH1 0x4 ADD PUSH2 0x2649 SWAP1 PUSH2 0x5287 JUMP JUMPDEST PUSH1 0x40 MLOAD DUP1 SWAP2 SUB SWAP1 REVERT JUMPDEST DUP2 PUSH1 0x2 DUP2 SWAP1 SSTORE POP DUP2 PUSH32 0x4C70925B625536DD633F6BD2D615C67FDDC2E7C63C31164047A981A0DF3FEE54 PUSH1 0x40 MLOAD PUSH1 0x40 MLOAD DUP1 SWAP2 SUB SWAP1 LOG2 POP POP JUMP JUMPDEST PUSH1 0x0 DUP2 JUMP JUMPDEST PUSH32 0x589D473BA17C0F47D494622893831497BAD25919B9AFB8E33E9521B8963FCCDE PUSH2 0x26B9 DUP2 PUSH2 0x3467 JUMP JUMPDEST PUSH1 0x3 PUSH1 0x0 SWAP1 SLOAD SWAP1 PUSH2 0x100 EXP SWAP1 DIV PUSH1 0xFF AND ISZERO PUSH2 0x2709 JUMPI PUSH1 0x40 MLOAD PUSH32 0x8C379A000000000000000000000000000000000000000000000000000000000 DUP2 MSTORE PUSH1 0x4 ADD PUSH2 0x2700 SWAP1 PUSH2 0x5827 JUMP JUMPDEST PUSH1 0x40 MLOAD DUP1 SWAP2 SUB SWAP1 REVERT JUMPDEST PUSH1 0x0 PUSH1 0x3 PUSH1 0x0 PUSH2 0x100 EXP DUP2 SLOAD DUP2 PUSH1 0xFF MUL NOT AND SWAP1 DUP4 ISZERO ISZERO MUL OR SWAP1 SSTORE POP PUSH32 0x27C975733BACECA09666FAE356A901E083676848AAF9710150079385DAAE743 PUSH1 0x40 MLOAD PUSH1 0x40 MLOAD DUP1 SWAP2 SUB SWAP1 LOG1 POP JUMP JUMPDEST PUSH32 0x589D473BA17C0F47D494622893831497BAD25919B9AFB8E33E9521B8963FCCDE PUSH2 0x277D DUP2 PUSH2 0x3467 JUMP JUMPDEST DUP2 PUSH1 0x0 SLOAD GT ISZERO PUSH2 0x27C2 JUMPI PUSH1 0x40 MLOAD PUSH32 0x8C379A000000000000000000000000000000000000000000000000000000000 DUP2 MSTORE PUSH1 0x4 ADD PUSH2 0x27B9 SWAP1 PUSH2 0x51F5 JUMP JUMPDEST PUSH1 0x40 MLOAD DUP1 SWAP2 SUB SWAP1 REVERT JUMPDEST DUP2 PUSH1 0x1 DUP2 SWAP1 SSTORE POP DUP2 PUSH32 0x1132C5BACCB51DA3D049FABC819697DC845FA224AD59D9B555507D6446B40850 PUSH1 0x40 MLOAD PUSH1 0x40 MLOAD DUP1 SWAP2 SUB SWAP1 LOG2 POP POP JUMP JUMPDEST PUSH2 0x2803 DUP3 PUSH2 0xBE6 JUMP JUMPDEST PUSH2 0x280C DUP2 PUSH2 0x3467 JUMP JUMPDEST PUSH2 0x2816 DUP4 DUP4 PUSH2 0x3584 JUMP JUMPDEST POP POP POP POP JUMP JUMPDEST DUP3 PUSH1 0x5 DUP1 SLOAD SWAP1 POP DUP2 LT PUSH2 0x2864 JUMPI PUSH1 0x40 MLOAD PUSH32 0x8C379A000000000000000000000000000000000000000000000000000000000 DUP2 MSTORE PUSH1 0x4 ADD PUSH2 0x285B SWAP1 PUSH2 0x4EAC JUMP JUMPDEST PUSH1 0x40 MLOAD DUP1 SWAP2 SUB SWAP1 REVERT JUMPDEST PUSH32 0x589D473BA17C0F47D494622893831497BAD25919B9AFB8E33E9521B8963FCCDE PUSH2 0x288E DUP2 PUSH2 0x3467 JUMP JUMPDEST PUSH1 0x5 DUP1 SLOAD SWAP1 POP DUP6 LT PUSH2 0x28D5 JUMPI PUSH1 0x40 MLOAD PUSH32 0x8C379A000000000000000000000000000000000000000000000000000000000 DUP2 MSTORE PUSH1 0x4 ADD PUSH2 0x28CC SWAP1 PUSH2 0x5893 JUMP JUMPDEST PUSH1 0x40 MLOAD DUP1 SWAP2 SUB SWAP1 REVERT JUMPDEST DUP4 PUSH1 0x5 DUP7 DUP2 SLOAD DUP2 LT PUSH2 0x28EA JUMPI PUSH2 0x28E9 PUSH2 0x4F38 JUMP JUMPDEST JUMPDEST SWAP1 PUSH1 0x0 MSTORE PUSH1 0x20 PUSH1 0x0 KECCAK256 SWAP1 PUSH1 0x7 MUL ADD PUSH1 0x5 ADD DUP2 SWAP1 SSTORE POP DUP3 PUSH1 0x5 DUP7 DUP2 SLOAD DUP2 LT PUSH2 0x2914 JUMPI PUSH2 0x2913 PUSH2 0x4F38 JUMP JUMPDEST JUMPDEST SWAP1 PUSH1 0x0 MSTORE PUSH1 0x20 PUSH1 0x0 KECCAK256 SWAP1 PUSH1 0x7 MUL ADD PUSH1 0x6 ADD DUP2 SWAP1 SSTORE POP DUP3 DUP5 DUP7 PUSH32 0x30DFFDEDAA3E3B4849298233F7CD71D229956E875AB09270498C96B7CF9181FD PUSH1 0x40 MLOAD PUSH1 0x40 MLOAD DUP1 SWAP2 SUB SWAP1 LOG4 POP POP POP POP POP JUMP JUMPDEST PUSH32 0x589D473BA17C0F47D494622893831497BAD25919B9AFB8E33E9521B8963FCCDE PUSH2 0x2989 DUP2 PUSH2 0x3467 JUMP JUMPDEST PUSH1 0x3 PUSH1 0x1 SWAP1 SLOAD SWAP1 PUSH2 0x100 EXP SWAP1 DIV PUSH1 0xFF AND PUSH2 0x29D8 JUMPI PUSH1 0x40 MLOAD PUSH32 0x8C379A000000000000000000000000000000000000000000000000000000000 DUP2 MSTORE PUSH1 0x4 ADD PUSH2 0x29CF SWAP1 PUSH2 0x5533 JUMP JUMPDEST PUSH1 0x40 MLOAD DUP1 SWAP2 SUB SWAP1 REVERT JUMPDEST PUSH1 0x0 PUSH1 0x3 PUSH1 0x1 PUSH2 0x100 EXP DUP2 SLOAD DUP2 PUSH1 0xFF MUL NOT AND SWAP1 DUP4 ISZERO ISZERO MUL OR SWAP1 SSTORE POP PUSH32 0x7C8FAF23A72A53EB5C2C466DC81386A58B2A27D0CC3C7C580A3C12E372BA313 PUSH1 0x40 MLOAD PUSH1 0x40 MLOAD DUP1 SWAP2 SUB SWAP1 LOG1 POP JUMP JUMPDEST PUSH1 0x3 PUSH1 0x0 SWAP1 SLOAD SWAP1 PUSH2 0x100 EXP SWAP1 DIV PUSH1 0xFF AND ISZERO PUSH2 0x2A72 JUMPI PUSH1 0x40 MLOAD PUSH32 0x8C379A000000000000000000000000000000000000000000000000000000000 DUP2 MSTORE PUSH1 0x4 ADD PUSH2 0x2A69 SWAP1 PUSH2 0x4F18 JUMP JUMPDEST PUSH1 0x40 MLOAD DUP1 SWAP2 SUB SWAP1 REVERT JUMPDEST DUP2 PUSH1 0x5 DUP1 SLOAD SWAP1 POP DUP2 LT PUSH2 0x2ABA JUMPI PUSH1 0x40 MLOAD PUSH32 0x8C379A000000000000000000000000000000000000000000000000000000000 DUP2 MSTORE PUSH1 0x4 ADD PUSH2 0x2AB1 SWAP1 PUSH2 0x4EAC JUMP JUMPDEST PUSH1 0x40 MLOAD DUP1 SWAP2 SUB SWAP1 REVERT JUMPDEST PUSH1 0x0 DUP4 SUB PUSH2 0x2AFD JUMPI PUSH1 0x40 MLOAD PUSH32 0x8C379A000000000000000000000000000000000000000000000000000000000 DUP2 MSTORE PUSH1 0x4 ADD PUSH2 0x2AF4 SWAP1 PUSH2 0x58FF JUMP JUMPDEST PUSH1 0x40 MLOAD DUP1 SWAP2 SUB SWAP1 REVERT JUMPDEST PUSH1 0x0 PUSH1 0x5 DUP5 DUP2 SLOAD DUP2 LT PUSH2 0x2B13 JUMPI PUSH2 0x2B12 PUSH2 0x4F38 JUMP JUMPDEST JUMPDEST SWAP1 PUSH1 0x0 MSTORE PUSH1 0x20 PUSH1 0x0 KECCAK256 SWAP1 PUSH1 0x7 MUL ADD SWAP1 POP DUP1 PUSH1 0x5 ADD SLOAD DUP4 GT PUSH2 0x2B69 JUMPI PUSH1 0x40 MLOAD PUSH32 0x8C379A000000000000000000000000000000000000000000000000000000000 DUP2 MSTORE PUSH1 0x4 ADD PUSH2 0x2B60 SWAP1 PUSH2 0x596B JUMP JUMPDEST PUSH1 0x40 MLOAD DUP1 SWAP2 SUB SWAP1 REVERT JUMPDEST PUSH1 0x0 DUP4 GT ISZERO PUSH2 0x2BC4 JUMPI PUSH2 0x2BC3 CALLER ADDRESS DUP6 DUP5 PUSH1 0x0 ADD PUSH1 0x0 SWAP1 SLOAD SWAP1 PUSH2 0x100 EXP SWAP1 DIV PUSH20 0xFFFFFFFFFFFFFFFFFFFFFFFFFFFFFFFFFFFFFFFF AND PUSH20 0xFFFFFFFFFFFFFFFFFFFFFFFFFFFFFFFFFFFFFFFF AND PUSH2 0x3C78 SWAP1 SWAP4 SWAP3 SWAP2 SWAP1 PUSH4 0xFFFFFFFF AND JUMP JUMPDEST JUMPDEST PUSH2 0x2BCE DUP5 DUP5 PUSH2 0x3CFA JUMP JUMPDEST POP POP POP POP JUMP JUMPDEST PUSH32 0x589D473BA17C0F47D494622893831497BAD25919B9AFB8E33E9521B8963FCCDE PUSH2 0x2BFE DUP2 PUSH2 0x3467 JUMP JUMPDEST PUSH1 0x1 SLOAD DUP3 GT ISZERO PUSH2 0x2C43 JUMPI PUSH1 0x40 MLOAD PUSH32 0x8C379A000000000000000000000000000000000000000000000000000000000 DUP2 MSTORE PUSH1 0x4 ADD PUSH2 0x2C3A SWAP1 PUSH2 0x51F5 JUMP JUMPDEST PUSH1 0x40 MLOAD DUP1 SWAP2 SUB SWAP1 REVERT JUMPDEST DUP2 PUSH1 0x0 DUP2 SWAP1 SSTORE POP DUP2 PUSH32 0x63B90B79F11A0F132BCB2C4A4DDD44ABDA45C1308A83B2919318DF7F5F8B7BE4 PUSH1 0x40 MLOAD PUSH1 0x40 MLOAD DUP1 SWAP2 SUB SWAP1 LOG2 POP POP JUMP JUMPDEST PUSH32 0x589D473BA17C0F47D494622893831497BAD25919B9AFB8E33E9521B8963FCCDE PUSH2 0x2CA5 DUP2 PUSH2 0x3467 JUMP JUMPDEST DUP2 PUSH1 0x3 PUSH1 0x2 PUSH2 0x100 EXP DUP2 SLOAD DUP2 PUSH20 0xFFFFFFFFFFFFFFFFFFFFFFFFFFFFFFFFFFFFFFFF MUL NOT AND SWAP1 DUP4 PUSH20 0xFFFFFFFFFFFFFFFFFFFFFFFFFFFFFFFFFFFFFFFF AND MUL OR SWAP1 SSTORE POP PUSH1 0x3 PUSH1 0x2 SWAP1 SLOAD SWAP1 PUSH2 0x100 EXP SWAP1 DIV PUSH20 0xFFFFFFFFFFFFFFFFFFFFFFFFFFFFFFFFFFFFFFFF AND PUSH20 0xFFFFFFFFFFFFFFFFFFFFFFFFFFFFFFFFFFFFFFFF AND PUSH32 0x153AAE53B92218044BD5F43922617C6B253E50AC98A41B44C3ACB5625DED3488 PUSH1 0x40 MLOAD PUSH1 0x40 MLOAD DUP1 SWAP2 SUB SWAP1 LOG2 POP POP JUMP JUMPDEST PUSH2 0x2D57 PUSH2 0x3295 JUMP JUMPDEST PUSH1 0x0 PUSH1 0x5 PUSH1 0x0 DUP2 SLOAD DUP2 LT PUSH2 0x2D6E JUMPI PUSH2 0x2D6D PUSH2 0x4F38 JUMP JUMPDEST JUMPDEST SWAP1 PUSH1 0x0 MSTORE PUSH1 0x20 PUSH1 0x0 KECCAK256 SWAP1 PUSH1 0x7 MUL ADD SWAP1 POP PUSH1 0x0 PUSH20 0xFFFFFFFFFFFFFFFFFFFFFFFFFFFFFFFFFFFFFFFF AND DUP2 PUSH1 0x0 ADD PUSH1 0x0 SWAP1 SLOAD SWAP1 PUSH2 0x100 EXP SWAP1 DIV PUSH20 0xFFFFFFFFFFFFFFFFFFFFFFFFFFFFFFFFFFFFFFFF AND PUSH20 0xFFFFFFFFFFFFFFFFFFFFFFFFFFFFFFFFFFFFFFFF AND EQ PUSH2 0x2E11 JUMPI PUSH1 0x40 MLOAD PUSH32 0x8C379A000000000000000000000000000000000000000000000000000000000 DUP2 MSTORE PUSH1 0x4 ADD PUSH2 0x2E08 SWAP1 PUSH2 0x59D7 JUMP JUMPDEST PUSH1 0x40 MLOAD DUP1 SWAP2 SUB SWAP1 REVERT JUMPDEST PUSH1 0x0 CALLVALUE SWAP1 POP DUP2 PUSH1 0x5 ADD SLOAD DUP2 LT ISZERO PUSH2 0x2E5D JUMPI PUSH1 0x40 MLOAD PUSH32 0x8C379A000000000000000000000000000000000000000000000000000000000 DUP2 MSTORE PUSH1 0x4 ADD PUSH2 0x2E54 SWAP1 PUSH2 0x596B JUMP JUMPDEST PUSH1 0x40 MLOAD DUP1 SWAP2 SUB SWAP1 REVERT JUMPDEST PUSH2 0x2E68 PUSH1 0x0 DUP3 PUSH2 0x3CFA JUMP JUMPDEST POP POP JUMP JUMPDEST PUSH32 0x589D473BA17C0F47D494622893831497BAD25919B9AFB8E33E9521B8963FCCDE PUSH2 0x2E96 DUP2 PUSH2 0x3467 JUMP JUMPDEST PUSH1 0x5 DUP1 SLOAD SWAP1 POP DUP5 LT PUSH2 0x2EDD JUMPI PUSH1 0x40 MLOAD PUSH32 0x8C379A000000000000000000000000000000000000000000000000000000000 DUP2 MSTORE PUSH1 0x4 ADD PUSH2 0x2ED4 SWAP1 PUSH2 0x5893 JUMP JUMPDEST PUSH1 0x40 MLOAD DUP1 SWAP2 SUB SWAP1 REVERT JUMPDEST PUSH1 0x0 DUP4 GT PUSH2 0x2F20 JUMPI PUSH1 0x40 MLOAD PUSH32 0x8C379A000000000000000000000000000000000000000000000000000000000 DUP2 MSTORE PUSH1 0x4 ADD PUSH2 0x2F17 SWAP1 PUSH2 0x5A43 JUMP JUMPDEST PUSH1 0x40 MLOAD DUP1 SWAP2 SUB SWAP1 REVERT JUMPDEST DUP2 ISZERO PUSH2 0x2F2F JUMPI PUSH2 0x2F2E PUSH2 0x1ACC JUMP JUMPDEST JUMPDEST PUSH1 0x0 DUP1 PUSH2 0x2F47 DUP6 PUSH1 0x4 SLOAD PUSH2 0x3B72 SWAP1 SWAP2 SWAP1 PUSH4 0xFFFFFFFF AND JUMP JUMPDEST SWAP2 POP SWAP2 POP DUP2 PUSH2 0x2F8B JUMPI PUSH1 0x40 MLOAD PUSH32 0x8C379A000000000000000000000000000000000000000000000000000000000 DUP2 MSTORE PUSH1 0x4 ADD PUSH2 0x2F82 SWAP1 PUSH2 0x5AAF JUMP JUMPDEST PUSH1 0x40 MLOAD DUP1 SWAP2 SUB SWAP1 REVERT JUMPDEST PUSH1 0x5 DUP7 DUP2 SLOAD DUP2 LT PUSH2 0x2F9F JUMPI PUSH2 0x2F9E PUSH2 0x4F38 JUMP JUMPDEST JUMPDEST SWAP1 PUSH1 0x0 MSTORE PUSH1 0x20 PUSH1 0x0 KECCAK256 SWAP1 PUSH1 0x7 MUL ADD PUSH1 0x1 ADD SLOAD DUP2 PUSH2 0x2FBC SWAP2 SWAP1 PUSH2 0x5012 JUMP JUMPDEST PUSH1 0x4 DUP2 SWAP1 SSTORE POP DUP5 PUSH1 0x5 DUP8 DUP2 SLOAD DUP2 LT PUSH2 0x2FD7 JUMPI PUSH2 0x2FD6 PUSH2 0x4F38 JUMP JUMPDEST JUMPDEST SWAP1 PUSH1 0x0 MSTORE PUSH1 0x20 PUSH1 0x0 KECCAK256 SWAP1 PUSH1 0x7 MUL ADD PUSH1 0x1 ADD DUP2 SWAP1 SSTORE POP DUP6 PUSH32 0x4B8FA3D6A87CB21D1BF4978BF60628AE358A28AC7F39DE1751A481C6DD957617 DUP7 PUSH1 0x4 SLOAD PUSH1 0x40 MLOAD PUSH2 0x3020 SWAP3 SWAP2 SWAP1 PUSH2 0x4E37 JUMP JUMPDEST PUSH1 0x40 MLOAD DUP1 SWAP2 SUB SWAP1 LOG2 POP POP POP POP POP POP JUMP JUMPDEST PUSH1 0x5 DUP2 DUP2 SLOAD DUP2 LT PUSH2 0x3040 JUMPI PUSH1 0x0 DUP1 REVERT JUMPDEST SWAP1 PUSH1 0x0 MSTORE PUSH1 0x20 PUSH1 0x0 KECCAK256 SWAP1 PUSH1 0x7 MUL ADD PUSH1 0x0 SWAP2 POP SWAP1 POP DUP1 PUSH1 0x0 ADD PUSH1 0x0 SWAP1 SLOAD SWAP1 PUSH2 0x100 EXP SWAP1 DIV PUSH20 0xFFFFFFFFFFFFFFFFFFFFFFFFFFFFFFFFFFFFFFFF AND SWAP1 DUP1 PUSH1 0x1 ADD SLOAD SWAP1 DUP1 PUSH1 0x2 ADD SLOAD SWAP1 DUP1 PUSH1 0x3 ADD SLOAD SWAP1 DUP1 PUSH1 0x4 ADD SLOAD SWAP1 DUP1 PUSH1 0x5 ADD SLOAD SWAP1 DUP1 PUSH1 0x6 ADD SLOAD SWAP1 POP DUP8 JUMP JUMPDEST PUSH1 0x0 DUP1 DUP4 PUSH1 0x5 DUP1 SLOAD SWAP1 POP DUP2 LT PUSH2 0x30ED JUMPI PUSH1 0x40 MLOAD PUSH32 0x8C379A000000000000000000000000000000000000000000000000000000000 DUP2 MSTORE PUSH1 0x4 ADD PUSH2 0x30E4 SWAP1 PUSH2 0x4EAC JUMP JUMPDEST PUSH1 0x40 MLOAD DUP1 SWAP2 SUB SWAP1 REVERT JUMPDEST PUSH1 0x0 PUSH1 0x6 PUSH1 0x0 DUP8 DUP2 MSTORE PUSH1 0x20 ADD SWAP1 DUP2 MSTORE PUSH1 0x20 ADD PUSH1 0x0 KECCAK256 PUSH1 0x0 DUP7 PUSH20 0xFFFFFFFFFFFFFFFFFFFFFFFFFFFFFFFFFFFFFFFF AND PUSH20 0xFFFFFFFFFFFFFFFFFFFFFFFFFFFFFFFFFFFFFFFF AND DUP2 MSTORE PUSH1 0x20 ADD SWAP1 DUP2 MSTORE PUSH1 0x20 ADD PUSH1 0x0 KECCAK256 SWAP1 POP PUSH1 0x0 JUMPDEST DUP2 PUSH1 0x3 ADD DUP1 SLOAD SWAP1 POP DUP2 LT ISZERO PUSH2 0x31F9 JUMPI NUMBER DUP3 PUSH1 0x3 ADD DUP3 DUP2 SLOAD DUP2 LT PUSH2 0x316A JUMPI PUSH2 0x3169 PUSH2 0x4F38 JUMP JUMPDEST JUMPDEST SWAP1 PUSH1 0x0 MSTORE PUSH1 0x20 PUSH1 0x0 KECCAK256 SWAP1 PUSH1 0x2 MUL ADD PUSH1 0x1 ADD SLOAD GT PUSH2 0x31B7 JUMPI DUP2 PUSH1 0x3 ADD DUP2 DUP2 SLOAD DUP2 LT PUSH2 0x3197 JUMPI PUSH2 0x3196 PUSH2 0x4F38 JUMP JUMPDEST JUMPDEST SWAP1 PUSH1 0x0 MSTORE PUSH1 0x20 PUSH1 0x0 KECCAK256 SWAP1 PUSH1 0x2 MUL ADD PUSH1 0x0 ADD SLOAD DUP5 PUSH2 0x31B4 SWAP2 SWAP1 PUSH2 0x4F96 JUMP JUMPDEST SWAP4 POP JUMPDEST DUP2 PUSH1 0x3 ADD DUP2 DUP2 SLOAD DUP2 LT PUSH2 0x31CD JUMPI PUSH2 0x31CC PUSH2 0x4F38 JUMP JUMPDEST JUMPDEST SWAP1 PUSH1 0x0 MSTORE PUSH1 0x20 PUSH1 0x0 KECCAK256 SWAP1 PUSH1 0x2 MUL ADD PUSH1 0x0 ADD SLOAD DUP6 PUSH2 0x31EA SWAP2 SWAP1 PUSH2 0x4F96 JUMP JUMPDEST SWAP5 POP DUP1 DUP1 PUSH1 0x1 ADD SWAP2 POP POP PUSH2 0x3144 JUMP JUMPDEST POP POP POP SWAP3 POP SWAP3 SWAP1 POP JUMP JUMPDEST PUSH1 0x0 PUSH32 0x1FFC9A700000000000000000000000000000000000000000000000000000000 PUSH28 0xFFFFFFFFFFFFFFFFFFFFFFFFFFFFFFFFFFFFFFFFFFFFFFFFFFFFFFFF NOT AND DUP3 PUSH28 0xFFFFFFFFFFFFFFFFFFFFFFFFFFFFFFFFFFFFFFFFFFFFFFFFFFFFFFFF NOT AND EQ SWAP1 POP SWAP2 SWAP1 POP JUMP JUMPDEST PUSH1 0x0 PUSH32 0x2DD7BC7DEC4DCEEDDA775E58DD541E08A116C6C53815C0BD028192F7B626800 SWAP1 POP SWAP1 JUMP JUMPDEST PUSH2 0x329D PUSH2 0x19E4 JUMP JUMPDEST ISZERO PUSH2 0x32D4 JUMPI PUSH1 0x40 MLOAD PUSH32 0xD93C066500000000000000000000000000000000000000000000000000000000 DUP2 MSTORE PUSH1 0x4 ADD PUSH1 0x40 MLOAD DUP1 SWAP2 SUB SWAP1 REVERT JUMPDEST JUMP JUMPDEST PUSH1 0x0 DUP1 DUP4 PUSH20 0xFFFFFFFFFFFFFFFFFFFFFFFFFFFFFFFFFFFFFFFF AND DUP4 PUSH1 0x40 MLOAD PUSH2 0x32FD SWAP1 PUSH2 0x5B00 JUMP JUMPDEST PUSH1 0x0 PUSH1 0x40 MLOAD DUP1 DUP4 SUB DUP2 DUP6 DUP8 GAS CALL SWAP3 POP POP POP RETURNDATASIZE DUP1 PUSH1 0x0 DUP2 EQ PUSH2 0x333A JUMPI PUSH1 0x40 MLOAD SWAP2 POP PUSH1 0x1F NOT PUSH1 0x3F RETURNDATASIZE ADD AND DUP3 ADD PUSH1 0x40 MSTORE RETURNDATASIZE DUP3 MSTORE RETURNDATASIZE PUSH1 0x0 PUSH1 0x20 DUP5 ADD RETURNDATACOPY PUSH2 0x333F JUMP JUMPDEST PUSH1 0x60 SWAP2 POP JUMPDEST POP SWAP2 POP SWAP2 POP DUP2 PUSH2 0x3384 JUMPI PUSH1 0x40 MLOAD PUSH32 0x8C379A000000000000000000000000000000000000000000000000000000000 DUP2 MSTORE PUSH1 0x4 ADD PUSH2 0x337B SWAP1 PUSH2 0x5B61 JUMP JUMPDEST PUSH1 0x40 MLOAD DUP1 SWAP2 SUB SWAP1 REVERT JUMPDEST PUSH1 0x0 DUP2 MLOAD GT ISZERO PUSH2 0x33E2 JUMPI DUP1 DUP1 PUSH1 0x20 ADD SWAP1 MLOAD DUP2 ADD SWAP1 PUSH2 0x33A2 SWAP2 SWAP1 PUSH2 0x5B96 JUMP JUMPDEST PUSH2 0x33E1 JUMPI PUSH1 0x40 MLOAD PUSH32 0x8C379A000000000000000000000000000000000000000000000000000000000 DUP2 MSTORE PUSH1 0x4 ADD PUSH2 0x33D8 SWAP1 PUSH2 0x5C35 JUMP JUMPDEST PUSH1 0x40 MLOAD DUP1 SWAP2 SUB SWAP1 REVERT JUMPDEST JUMPDEST POP POP POP POP JUMP JUMPDEST PUSH2 0x3462 DUP4 DUP5 PUSH20 0xFFFFFFFFFFFFFFFFFFFFFFFFFFFFFFFFFFFFFFFF AND PUSH4 0xA9059CBB DUP6 DUP6 PUSH1 0x40 MLOAD PUSH1 0x24 ADD PUSH2 0x341B SWAP3 SWAP2 SWAP1 PUSH2 0x5C55 JUMP JUMPDEST PUSH1 0x40 MLOAD PUSH1 0x20 DUP2 DUP4 SUB SUB DUP2 MSTORE SWAP1 PUSH1 0x40 MSTORE SWAP2 POP PUSH1 0xE0 SHL PUSH1 0x20 DUP3 ADD DUP1 MLOAD PUSH28 0xFFFFFFFFFFFFFFFFFFFFFFFFFFFFFFFFFFFFFFFFFFFFFFFFFFFFFFFF DUP4 DUP2 DUP4 AND OR DUP4 MSTORE POP POP POP POP PUSH2 0x40C3 JUMP JUMPDEST POP POP POP JUMP JUMPDEST PUSH2 0x3478 DUP2 PUSH2 0x3473 PUSH2 0x357C JUMP JUMPDEST PUSH2 0x4165 JUMP JUMPDEST POP JUMP JUMPDEST PUSH1 0x0 DUP1 PUSH2 0x3486 PUSH2 0x326D JUMP JUMPDEST SWAP1 POP PUSH2 0x3492 DUP5 DUP5 PUSH2 0x1D0D JUMP JUMPDEST PUSH2 0x3570 JUMPI PUSH1 0x1 DUP2 PUSH1 0x0 ADD PUSH1 0x0 DUP7 DUP2 MSTORE PUSH1 0x20 ADD SWAP1 DUP2 MSTORE PUSH1 0x20 ADD PUSH1 0x0 KECCAK256 PUSH1 0x0 ADD PUSH1 0x0 DUP6 PUSH20 0xFFFFFFFFFFFFFFFFFFFFFFFFFFFFFFFFFFFFFFFF AND PUSH20 0xFFFFFFFFFFFFFFFFFFFFFFFFFFFFFFFFFFFFFFFF AND DUP2 MSTORE PUSH1 0x20 ADD SWAP1 DUP2 MSTORE PUSH1 0x20 ADD PUSH1 0x0 KECCAK256 PUSH1 0x0 PUSH2 0x100 EXP DUP2 SLOAD DUP2 PUSH1 0xFF MUL NOT AND SWAP1 DUP4 ISZERO ISZERO MUL OR SWAP1 SSTORE POP PUSH2 0x350C PUSH2 0x357C JUMP JUMPDEST PUSH20 0xFFFFFFFFFFFFFFFFFFFFFFFFFFFFFFFFFFFFFFFF AND DUP4 PUSH20 0xFFFFFFFFFFFFFFFFFFFFFFFFFFFFFFFFFFFFFFFF AND DUP6 PUSH32 0x2F8788117E7EFF1D82E926EC794901D17C78024A50270940304540A733656F0D PUSH1 0x40 MLOAD PUSH1 0x40 MLOAD DUP1 SWAP2 SUB SWAP1 LOG4 PUSH1 0x1 SWAP2 POP POP PUSH2 0x3576 JUMP JUMPDEST PUSH1 0x0 SWAP2 POP POP JUMPDEST SWAP3 SWAP2 POP POP JUMP JUMPDEST PUSH1 0x0 CALLER SWAP1 POP SWAP1 JUMP JUMPDEST PUSH1 0x0 DUP1 PUSH2 0x358F PUSH2 0x326D JUMP JUMPDEST SWAP1 POP PUSH2 0x359B DUP5 DUP5 PUSH2 0x1D0D JUMP JUMPDEST ISZERO PUSH2 0x367A JUMPI PUSH1 0x0 DUP2 PUSH1 0x0 ADD PUSH1 0x0 DUP7 DUP2 MSTORE PUSH1 0x20 ADD SWAP1 DUP2 MSTORE PUSH1 0x20 ADD PUSH1 0x0 KECCAK256 PUSH1 0x0 ADD PUSH1 0x0 DUP6 PUSH20 0xFFFFFFFFFFFFFFFFFFFFFFFFFFFFFFFFFFFFFFFF AND PUSH20 0xFFFFFFFFFFFFFFFFFFFFFFFFFFFFFFFFFFFFFFFF AND DUP2 MSTORE PUSH1 0x20 ADD SWAP1 DUP2 MSTORE PUSH1 0x20 ADD PUSH1 0x0 KECCAK256 PUSH1 0x0 PUSH2 0x100 EXP DUP2 SLOAD DUP2 PUSH1 0xFF MUL NOT AND SWAP1 DUP4 ISZERO ISZERO MUL OR SWAP1 SSTORE POP PUSH2 0x3616 PUSH2 0x357C JUMP JUMPDEST PUSH20 0xFFFFFFFFFFFFFFFFFFFFFFFFFFFFFFFFFFFFFFFF AND DUP4 PUSH20 0xFFFFFFFFFFFFFFFFFFFFFFFFFFFFFFFFFFFFFFFF AND DUP6 PUSH32 0xF6391F5C32D9C69D2A47EA670B442974B53935D1EDC7FD64EB21E047A839171B PUSH1 0x40 MLOAD PUSH1 0x40 MLOAD DUP1 SWAP2 SUB SWAP1 LOG4 PUSH1 0x1 SWAP2 POP POP PUSH2 0x3680 JUMP JUMPDEST PUSH1 0x0 SWAP2 POP POP JUMPDEST SWAP3 SWAP2 POP POP JUMP JUMPDEST PUSH1 0x0 PUSH1 0x3 PUSH1 0x2 SWAP1 SLOAD SWAP1 PUSH2 0x100 EXP SWAP1 DIV PUSH20 0xFFFFFFFFFFFFFFFFFFFFFFFFFFFFFFFFFFFFFFFF AND PUSH20 0xFFFFFFFFFFFFFFFFFFFFFFFFFFFFFFFFFFFFFFFF AND PUSH4 0x70A08231 ADDRESS PUSH1 0x40 MLOAD DUP3 PUSH4 0xFFFFFFFF AND PUSH1 0xE0 SHL DUP2 MSTORE PUSH1 0x4 ADD PUSH2 0x36E3 SWAP2 SWAP1 PUSH2 0x5C7E JUMP JUMPDEST PUSH1 0x20 PUSH1 0x40 MLOAD DUP1 DUP4 SUB DUP2 DUP7 GAS STATICCALL ISZERO DUP1 ISZERO PUSH2 0x3700 JUMPI RETURNDATASIZE PUSH1 0x0 DUP1 RETURNDATACOPY RETURNDATASIZE PUSH1 0x0 REVERT JUMPDEST POP POP POP POP PUSH1 0x40 MLOAD RETURNDATASIZE PUSH1 0x1F NOT PUSH1 0x1F DUP3 ADD AND DUP3 ADD DUP1 PUSH1 0x40 MSTORE POP DUP2 ADD SWAP1 PUSH2 0x3724 SWAP2 SWAP1 PUSH2 0x5CAE JUMP JUMPDEST SWAP1 POP DUP1 DUP3 GT PUSH2 0x37D3 JUMPI PUSH1 0x3 PUSH1 0x2 SWAP1 SLOAD SWAP1 PUSH2 0x100 EXP SWAP1 DIV PUSH20 0xFFFFFFFFFFFFFFFFFFFFFFFFFFFFFFFFFFFFFFFF AND PUSH20 0xFFFFFFFFFFFFFFFFFFFFFFFFFFFFFFFFFFFFFFFF AND PUSH4 0xA9059CBB DUP5 DUP5 PUSH1 0x40 MLOAD DUP4 PUSH4 0xFFFFFFFF AND PUSH1 0xE0 SHL DUP2 MSTORE PUSH1 0x4 ADD PUSH2 0x378A SWAP3 SWAP2 SWAP1 PUSH2 0x5C55 JUMP JUMPDEST PUSH1 0x20 PUSH1 0x40 MLOAD DUP1 DUP4 SUB DUP2 PUSH1 0x0 DUP8 GAS CALL ISZERO DUP1 ISZERO PUSH2 0x37A9 JUMPI RETURNDATASIZE PUSH1 0x0 DUP1 RETURNDATACOPY RETURNDATASIZE PUSH1 0x0 REVERT JUMPDEST POP POP POP POP PUSH1 0x40 MLOAD RETURNDATASIZE PUSH1 0x1F NOT PUSH1 0x1F DUP3 ADD AND DUP3 ADD DUP1 PUSH1 0x40 MSTORE POP DUP2 ADD SWAP1 PUSH2 0x37CD SWAP2 SWAP1 PUSH2 0x5B96 JUMP JUMPDEST POP PUSH2 0x3875 JUMP JUMPDEST PUSH1 0x3 PUSH1 0x2 SWAP1 SLOAD SWAP1 PUSH2 0x100 EXP SWAP1 DIV PUSH20 0xFFFFFFFFFFFFFFFFFFFFFFFFFFFFFFFFFFFFFFFF AND PUSH20 0xFFFFFFFFFFFFFFFFFFFFFFFFFFFFFFFFFFFFFFFF AND PUSH4 0xA9059CBB DUP5 DUP4 PUSH1 0x40 MLOAD DUP4 PUSH4 0xFFFFFFFF AND PUSH1 0xE0 SHL DUP2 MSTORE PUSH1 0x4 ADD PUSH2 0x3830 SWAP3 SWAP2 SWAP1 PUSH2 0x5C55 JUMP JUMPDEST PUSH1 0x20 PUSH1 0x40 MLOAD DUP1 DUP4 SUB DUP2 PUSH1 0x0 DUP8 GAS CALL ISZERO DUP1 ISZERO PUSH2 0x384F JUMPI RETURNDATASIZE PUSH1 0x0 DUP1 RETURNDATACOPY RETURNDATASIZE PUSH1 0x0 REVERT JUMPDEST POP POP POP POP PUSH1 0x40 MLOAD RETURNDATASIZE PUSH1 0x1F NOT PUSH1 0x1F DUP3 ADD AND DUP3 ADD DUP1 PUSH1 0x40 MSTORE POP DUP2 ADD SWAP1 PUSH2 0x3873 SWAP2 SWAP1 PUSH2 0x5B96 JUMP JUMPDEST POP JUMPDEST POP POP POP JUMP JUMPDEST PUSH1 0x0 PUSH32 0xF0C57E16840DF040F15088DC2F81FE391C3923BEC73E23A9662EFC9C229C6A00 SWAP1 POP SWAP1 JUMP JUMPDEST PUSH2 0x38AA PUSH2 0x41B6 JUMP JUMPDEST JUMP JUMPDEST PUSH2 0x38B4 PUSH2 0x41B6 JUMP JUMPDEST JUMP JUMPDEST PUSH32 0x0 PUSH20 0xFFFFFFFFFFFFFFFFFFFFFFFFFFFFFFFFFFFFFFFF AND ADDRESS PUSH20 0xFFFFFFFFFFFFFFFFFFFFFFFFFFFFFFFFFFFFFFFF AND EQ DUP1 PUSH2 0x3963 JUMPI POP PUSH32 0x0 PUSH20 0xFFFFFFFFFFFFFFFFFFFFFFFFFFFFFFFFFFFFFFFF AND PUSH2 0x394A PUSH2 0x41F6 JUMP JUMPDEST PUSH20 0xFFFFFFFFFFFFFFFFFFFFFFFFFFFFFFFFFFFFFFFF AND EQ ISZERO JUMPDEST ISZERO PUSH2 0x399A JUMPI PUSH1 0x40 MLOAD PUSH32 0xE07C8DBA00000000000000000000000000000000000000000000000000000000 DUP2 MSTORE PUSH1 0x4 ADD PUSH1 0x40 MLOAD DUP1 SWAP2 SUB SWAP1 REVERT JUMPDEST JUMP JUMPDEST PUSH32 0xF47FC0C09EBBFE308D89B8035681A1164B9882BCFD49EB89861067738A30F5AB PUSH2 0x39C6 DUP2 PUSH2 0x3467 JUMP JUMPDEST POP POP JUMP JUMPDEST DUP2 PUSH20 0xFFFFFFFFFFFFFFFFFFFFFFFFFFFFFFFFFFFFFFFF AND PUSH4 0x52D1902D PUSH1 0x40 MLOAD DUP2 PUSH4 0xFFFFFFFF AND PUSH1 0xE0 SHL DUP2 MSTORE PUSH1 0x4 ADD PUSH1 0x20 PUSH1 0x40 MLOAD DUP1 DUP4 SUB DUP2 DUP7 GAS STATICCALL SWAP3 POP POP POP DUP1 ISZERO PUSH2 0x3A32 JUMPI POP PUSH1 0x40 MLOAD RETURNDATASIZE PUSH1 0x1F NOT PUSH1 0x1F DUP3 ADD AND DUP3 ADD DUP1 PUSH1 0x40 MSTORE POP DUP2 ADD SWAP1 PUSH2 0x3A2F SWAP2 SWAP1 PUSH2 0x5CF0 JUMP JUMPDEST PUSH1 0x1 JUMPDEST PUSH2 0x3A73 JUMPI DUP2 PUSH1 0x40 MLOAD PUSH32 0x4C9C8CE300000000000000000000000000000000000000000000000000000000 DUP2 MSTORE PUSH1 0x4 ADD PUSH2 0x3A6A SWAP2 SWAP1 PUSH2 0x5C7E JUMP JUMPDEST PUSH1 0x40 MLOAD DUP1 SWAP2 SUB SWAP1 REVERT JUMPDEST PUSH32 0x360894A13BA1A3210667C828492DB98DCA3E2076CC3735A920A3CA505D382BBC PUSH1 0x0 SHL DUP2 EQ PUSH2 0x3ADA JUMPI DUP1 PUSH1 0x40 MLOAD PUSH32 0xAA1D49A400000000000000000000000000000000000000000000000000000000 DUP2 MSTORE PUSH1 0x4 ADD PUSH2 0x3AD1 SWAP2 SWAP1 PUSH2 0x478B JUMP JUMPDEST PUSH1 0x40 MLOAD DUP1 SWAP2 SUB SWAP1 REVERT JUMPDEST PUSH2 0x3AE4 DUP4 DUP4 PUSH2 0x424D JUMP JUMPDEST POP POP POP JUMP JUMPDEST PUSH1 0x0 DUP1 PUSH1 0x0 DUP5 SUB PUSH2 0x3B01 JUMPI PUSH1 0x1 PUSH1 0x0 SWAP2 POP SWAP2 POP PUSH2 0x3B35 JUMP JUMPDEST PUSH1 0x0 DUP4 DUP6 MUL SWAP1 POP DUP4 DUP6 DUP3 DUP2 PUSH2 0x3B19 JUMPI PUSH2 0x3B18 PUSH2 0x5123 JUMP JUMPDEST JUMPDEST DIV EQ PUSH2 0x3B2C JUMPI PUSH1 0x0 DUP1 SWAP3 POP SWAP3 POP POP PUSH2 0x3B35 JUMP JUMPDEST PUSH1 0x1 DUP2 SWAP3 POP SWAP3 POP POP JUMPDEST SWAP3 POP SWAP3 SWAP1 POP JUMP JUMPDEST PUSH1 0x0 DUP1 PUSH1 0x0 DUP4 SUB PUSH2 0x3B53 JUMPI PUSH1 0x0 DUP1 SWAP2 POP SWAP2 POP PUSH2 0x3B6B JUMP JUMPDEST PUSH1 0x1 DUP4 DUP6 DUP2 PUSH2 0x3B65 JUMPI PUSH2 0x3B64 PUSH2 0x5123 JUMP JUMPDEST JUMPDEST DIV SWAP2 POP SWAP2 POP JUMPDEST SWAP3 POP SWAP3 SWAP1 POP JUMP JUMPDEST PUSH1 0x0 DUP1 PUSH1 0x0 DUP4 DUP6 ADD SWAP1 POP DUP5 DUP2 LT ISZERO PUSH2 0x3B91 JUMPI PUSH1 0x0 DUP1 SWAP3 POP SWAP3 POP POP PUSH2 0x3B9A JUMP JUMPDEST PUSH1 0x1 DUP2 SWAP3 POP SWAP3 POP POP JUMPDEST SWAP3 POP SWAP3 SWAP1 POP JUMP JUMPDEST PUSH32 0x0 PUSH20 0xFFFFFFFFFFFFFFFFFFFFFFFFFFFFFFFFFFFFFFFF AND ADDRESS PUSH20 0xFFFFFFFFFFFFFFFFFFFFFFFFFFFFFFFFFFFFFFFF AND EQ PUSH2 0x3C26 JUMPI PUSH1 0x40 MLOAD PUSH32 0xE07C8DBA00000000000000000000000000000000000000000000000000000000 DUP2 MSTORE PUSH1 0x4 ADD PUSH1 0x40 MLOAD DUP1 SWAP2 SUB SWAP1 REVERT JUMPDEST JUMP JUMPDEST PUSH1 0x0 PUSH32 0xCD5ED15C6E187E77E9AEE88184C21F4F2182AB5827CB3B7E07FBEDCD63F03300 SWAP1 POP SWAP1 JUMP JUMPDEST PUSH1 0x0 DUP1 DUP4 DUP4 GT ISZERO PUSH2 0x3C67 JUMPI PUSH1 0x0 DUP1 SWAP2 POP SWAP2 POP PUSH2 0x3C71 JUMP JUMPDEST PUSH1 0x1 DUP4 DUP6 SUB SWAP2 POP SWAP2 POP JUMPDEST SWAP3 POP SWAP3 SWAP1 POP JUMP JUMPDEST PUSH2 0x3CF4 DUP5 DUP6 PUSH20 0xFFFFFFFFFFFFFFFFFFFFFFFFFFFFFFFFFFFFFFFF AND PUSH4 0x23B872DD DUP7 DUP7 DUP7 PUSH1 0x40 MLOAD PUSH1 0x24 ADD PUSH2 0x3CAD SWAP4 SWAP3 SWAP2 SWAP1 PUSH2 0x5D1D JUMP JUMPDEST PUSH1 0x40 MLOAD PUSH1 0x20 DUP2 DUP4 SUB SUB DUP2 MSTORE SWAP1 PUSH1 0x40 MSTORE SWAP2 POP PUSH1 0xE0 SHL PUSH1 0x20 DUP3 ADD DUP1 MLOAD PUSH28 0xFFFFFFFFFFFFFFFFFFFFFFFFFFFFFFFFFFFFFFFFFFFFFFFFFFFFFFFF DUP4 DUP2 DUP4 AND OR DUP4 MSTORE POP POP POP POP PUSH2 0x40C3 JUMP JUMPDEST POP POP POP POP JUMP JUMPDEST PUSH1 0x0 PUSH1 0x5 DUP4 DUP2 SLOAD DUP2 LT PUSH2 0x3D10 JUMPI PUSH2 0x3D0F PUSH2 0x4F38 JUMP JUMPDEST JUMPDEST SWAP1 PUSH1 0x0 MSTORE PUSH1 0x20 PUSH1 0x0 KECCAK256 SWAP1 PUSH1 0x7 MUL ADD SWAP1 POP PUSH1 0x0 PUSH1 0x6 PUSH1 0x0 DUP6 DUP2 MSTORE PUSH1 0x20 ADD SWAP1 DUP2 MSTORE PUSH1 0x20 ADD PUSH1 0x0 KECCAK256 PUSH1 0x0 CALLER PUSH20 0xFFFFFFFFFFFFFFFFFFFFFFFFFFFFFFFFFFFFFFFF AND PUSH20 0xFFFFFFFFFFFFFFFFFFFFFFFFFFFFFFFFFFFFFFFF AND DUP2 MSTORE PUSH1 0x20 ADD SWAP1 DUP2 MSTORE PUSH1 0x20 ADD PUSH1 0x0 KECCAK256 SWAP1 POP PUSH2 0x3D7D DUP5 PUSH2 0x16C5 JUMP JUMPDEST PUSH1 0x0 DUP2 PUSH1 0x0 ADD SLOAD GT ISZERO PUSH2 0x3F25 JUMPI PUSH1 0x0 DUP1 PUSH2 0x3DA8 DUP5 PUSH1 0x3 ADD SLOAD DUP5 PUSH1 0x0 ADD SLOAD PUSH2 0x3AE9 SWAP1 SWAP2 SWAP1 PUSH4 0xFFFFFFFF AND JUMP JUMPDEST SWAP2 POP SWAP2 POP DUP2 PUSH2 0x3DEC JUMPI PUSH1 0x40 MLOAD PUSH32 0x8C379A000000000000000000000000000000000000000000000000000000000 DUP2 MSTORE PUSH1 0x4 ADD PUSH2 0x3DE3 SWAP1 PUSH2 0x5DA0 JUMP JUMPDEST PUSH1 0x40 MLOAD DUP1 SWAP2 SUB SWAP1 REVERT JUMPDEST PUSH2 0x3E07 PUSH8 0xDE0B6B3A7640000 DUP3 PUSH2 0x3B3C SWAP1 SWAP2 SWAP1 PUSH4 0xFFFFFFFF AND JUMP JUMPDEST DUP1 SWAP3 POP DUP2 SWAP4 POP POP POP DUP2 PUSH2 0x3E4F JUMPI PUSH1 0x40 MLOAD PUSH32 0x8C379A000000000000000000000000000000000000000000000000000000000 DUP2 MSTORE PUSH1 0x4 ADD PUSH2 0x3E46 SWAP1 PUSH2 0x5E32 JUMP JUMPDEST PUSH1 0x40 MLOAD DUP1 SWAP2 SUB SWAP1 REVERT JUMPDEST PUSH1 0x0 DUP1 PUSH2 0x3E69 DUP6 PUSH1 0x1 ADD SLOAD DUP5 PUSH2 0x3C50 SWAP1 SWAP2 SWAP1 PUSH4 0xFFFFFFFF AND JUMP JUMPDEST SWAP2 POP SWAP2 POP DUP2 PUSH2 0x3EAD JUMPI PUSH1 0x40 MLOAD PUSH32 0x8C379A000000000000000000000000000000000000000000000000000000000 DUP2 MSTORE PUSH1 0x4 ADD PUSH2 0x3EA4 SWAP1 PUSH2 0x5E9E JUMP JUMPDEST PUSH1 0x40 MLOAD DUP1 SWAP2 SUB SWAP1 REVERT JUMPDEST PUSH1 0x0 DUP2 GT ISZERO PUSH2 0x3F20 JUMPI PUSH1 0x0 DUP1 PUSH2 0x3ED0 DUP4 DUP9 PUSH1 0x2 ADD SLOAD PUSH2 0x3B72 SWAP1 SWAP2 SWAP1 PUSH4 0xFFFFFFFF AND JUMP JUMPDEST SWAP2 POP SWAP2 POP DUP2 PUSH2 0x3F14 JUMPI PUSH1 0x40 MLOAD PUSH32 0x8C379A000000000000000000000000000000000000000000000000000000000 DUP2 MSTORE PUSH1 0x4 ADD PUSH2 0x3F0B SWAP1 PUSH2 0x5E9E JUMP JUMPDEST PUSH1 0x40 MLOAD DUP1 SWAP2 SUB SWAP1 REVERT JUMPDEST DUP1 DUP8 PUSH1 0x2 ADD DUP2 SWAP1 SSTORE POP POP POP JUMPDEST POP POP POP POP JUMPDEST PUSH1 0x0 DUP4 GT ISZERO PUSH2 0x3F98 JUMPI PUSH1 0x0 DUP1 PUSH2 0x3F48 DUP4 PUSH1 0x0 ADD SLOAD DUP7 PUSH2 0x3B72 SWAP1 SWAP2 SWAP1 PUSH4 0xFFFFFFFF AND JUMP JUMPDEST SWAP2 POP SWAP2 POP DUP2 PUSH2 0x3F8C JUMPI PUSH1 0x40 MLOAD PUSH32 0x8C379A000000000000000000000000000000000000000000000000000000000 DUP2 MSTORE PUSH1 0x4 ADD PUSH2 0x3F83 SWAP1 PUSH2 0x5F0A JUMP JUMPDEST PUSH1 0x40 MLOAD DUP1 SWAP2 SUB SWAP1 REVERT JUMPDEST DUP1 DUP4 PUSH1 0x0 ADD DUP2 SWAP1 SSTORE POP POP POP JUMPDEST PUSH1 0x0 DUP1 PUSH2 0x3FB2 DUP6 DUP6 PUSH1 0x4 ADD SLOAD PUSH2 0x3B72 SWAP1 SWAP2 SWAP1 PUSH4 0xFFFFFFFF AND JUMP JUMPDEST SWAP2 POP SWAP2 POP DUP2 PUSH2 0x3FF6 JUMPI PUSH1 0x40 MLOAD PUSH32 0x8C379A000000000000000000000000000000000000000000000000000000000 DUP2 MSTORE PUSH1 0x4 ADD PUSH2 0x3FED SWAP1 PUSH2 0x5F76 JUMP JUMPDEST PUSH1 0x40 MLOAD DUP1 SWAP2 SUB SWAP1 REVERT JUMPDEST DUP1 DUP5 PUSH1 0x4 ADD DUP2 SWAP1 SSTORE POP PUSH1 0x0 DUP1 PUSH2 0x401D DUP7 PUSH1 0x3 ADD SLOAD DUP7 PUSH1 0x0 ADD SLOAD PUSH2 0x3AE9 SWAP1 SWAP2 SWAP1 PUSH4 0xFFFFFFFF AND JUMP JUMPDEST SWAP2 POP SWAP2 POP DUP2 PUSH2 0x4061 JUMPI PUSH1 0x40 MLOAD PUSH32 0x8C379A000000000000000000000000000000000000000000000000000000000 DUP2 MSTORE PUSH1 0x4 ADD PUSH2 0x4058 SWAP1 PUSH2 0x6008 JUMP JUMPDEST PUSH1 0x40 MLOAD DUP1 SWAP2 SUB SWAP1 REVERT JUMPDEST DUP1 DUP6 PUSH1 0x1 ADD DUP2 SWAP1 SSTORE POP DUP8 CALLER PUSH20 0xFFFFFFFFFFFFFFFFFFFFFFFFFFFFFFFFFFFFFFFF AND PUSH32 0x90890809C654F11D6E72A28FA60149770A0D11EC6C92319D6CEB2BB0A4EA1A15 DUP10 PUSH1 0x40 MLOAD PUSH2 0x40B1 SWAP2 SWAP1 PUSH2 0x4634 JUMP JUMPDEST PUSH1 0x40 MLOAD DUP1 SWAP2 SUB SWAP1 LOG3 POP POP POP POP POP POP POP POP JUMP JUMPDEST PUSH1 0x0 DUP1 PUSH1 0x20 PUSH1 0x0 DUP5 MLOAD PUSH1 0x20 DUP7 ADD PUSH1 0x0 DUP9 GAS CALL DUP1 PUSH2 0x40E6 JUMPI PUSH1 0x40 MLOAD RETURNDATASIZE PUSH1 0x0 DUP3 RETURNDATACOPY RETURNDATASIZE DUP2 REVERT JUMPDEST RETURNDATASIZE SWAP3 POP PUSH1 0x0 MLOAD SWAP2 POP POP PUSH1 0x0 DUP3 EQ PUSH2 0x4101 JUMPI PUSH1 0x1 DUP2 EQ ISZERO PUSH2 0x411D JUMP JUMPDEST PUSH1 0x0 DUP5 PUSH20 0xFFFFFFFFFFFFFFFFFFFFFFFFFFFFFFFFFFFFFFFF AND EXTCODESIZE EQ JUMPDEST ISZERO PUSH2 0x415F JUMPI DUP4 PUSH1 0x40 MLOAD PUSH32 0x5274AFE700000000000000000000000000000000000000000000000000000000 DUP2 MSTORE PUSH1 0x4 ADD PUSH2 0x4156 SWAP2 SWAP1 PUSH2 0x5C7E JUMP JUMPDEST PUSH1 0x40 MLOAD DUP1 SWAP2 SUB SWAP1 REVERT JUMPDEST POP POP POP POP JUMP JUMPDEST PUSH2 0x416F DUP3 DUP3 PUSH2 0x1D0D JUMP JUMPDEST PUSH2 0x41B2 JUMPI DUP1 DUP3 PUSH1 0x40 MLOAD PUSH32 0xE2517D3F00000000000000000000000000000000000000000000000000000000 DUP2 MSTORE PUSH1 0x4 ADD PUSH2 0x41A9 SWAP3 SWAP2 SWAP1 PUSH2 0x6028 JUMP JUMPDEST PUSH1 0x40 MLOAD DUP1 SWAP2 SUB SWAP1 REVERT JUMPDEST POP POP JUMP JUMPDEST PUSH2 0x41BE PUSH2 0x42C0 JUMP JUMPDEST PUSH2 0x41F4 JUMPI PUSH1 0x40 MLOAD PUSH32 0xD7E6BCF800000000000000000000000000000000000000000000000000000000 DUP2 MSTORE PUSH1 0x4 ADD PUSH1 0x40 MLOAD DUP1 SWAP2 SUB SWAP1 REVERT JUMPDEST JUMP JUMPDEST PUSH1 0x0 PUSH2 0x4224 PUSH32 0x360894A13BA1A3210667C828492DB98DCA3E2076CC3735A920A3CA505D382BBC PUSH1 0x0 SHL PUSH2 0x42E0 JUMP JUMPDEST PUSH1 0x0 ADD PUSH1 0x0 SWAP1 SLOAD SWAP1 PUSH2 0x100 EXP SWAP1 DIV PUSH20 0xFFFFFFFFFFFFFFFFFFFFFFFFFFFFFFFFFFFFFFFF AND SWAP1 POP SWAP1 JUMP JUMPDEST PUSH2 0x4256 DUP3 PUSH2 0x42EA JUMP JUMPDEST DUP2 PUSH20 0xFFFFFFFFFFFFFFFFFFFFFFFFFFFFFFFFFFFFFFFF AND PUSH32 0xBC7CD75A20EE27FD9ADEBAB32041F755214DBC6BFFA90CC0225B39DA2E5C2D3B PUSH1 0x40 MLOAD PUSH1 0x40 MLOAD DUP1 SWAP2 SUB SWAP1 LOG2 PUSH1 0x0 DUP2 MLOAD GT ISZERO PUSH2 0x42B3 JUMPI PUSH2 0x42AD DUP3 DUP3 PUSH2 0x43B7 JUMP JUMPDEST POP PUSH2 0x42BC JUMP JUMPDEST PUSH2 0x42BB PUSH2 0x443B JUMP JUMPDEST JUMPDEST POP POP JUMP JUMPDEST PUSH1 0x0 PUSH2 0x42CA PUSH2 0x387A JUMP JUMPDEST PUSH1 0x0 ADD PUSH1 0x8 SWAP1 SLOAD SWAP1 PUSH2 0x100 EXP SWAP1 DIV PUSH1 0xFF AND SWAP1 POP SWAP1 JUMP JUMPDEST PUSH1 0x0 DUP2 SWAP1 POP SWAP2 SWAP1 POP JUMP JUMPDEST PUSH1 0x0 DUP2 PUSH20 0xFFFFFFFFFFFFFFFFFFFFFFFFFFFFFFFFFFFFFFFF AND EXTCODESIZE SUB PUSH2 0x4346 JUMPI DUP1 PUSH1 0x40 MLOAD PUSH32 0x4C9C8CE300000000000000000000000000000000000000000000000000000000 DUP2 MSTORE PUSH1 0x4 ADD PUSH2 0x433D SWAP2 SWAP1 PUSH2 0x5C7E JUMP JUMPDEST PUSH1 0x40 MLOAD DUP1 SWAP2 SUB SWAP1 REVERT JUMPDEST DUP1 PUSH2 0x4373 PUSH32 0x360894A13BA1A3210667C828492DB98DCA3E2076CC3735A920A3CA505D382BBC PUSH1 0x0 SHL PUSH2 0x42E0 JUMP JUMPDEST PUSH1 0x0 ADD PUSH1 0x0 PUSH2 0x100 EXP DUP2 SLOAD DUP2 PUSH20 0xFFFFFFFFFFFFFFFFFFFFFFFFFFFFFFFFFFFFFFFF MUL NOT AND SWAP1 DUP4 PUSH20 0xFFFFFFFFFFFFFFFFFFFFFFFFFFFFFFFFFFFFFFFF AND MUL OR SWAP1 SSTORE POP POP JUMP JUMPDEST PUSH1 0x60 PUSH1 0x0 DUP1 DUP5 PUSH20 0xFFFFFFFFFFFFFFFFFFFFFFFFFFFFFFFFFFFFFFFF AND DUP5 PUSH1 0x40 MLOAD PUSH2 0x43E1 SWAP2 SWAP1 PUSH2 0x608D JUMP JUMPDEST PUSH1 0x0 PUSH1 0x40 MLOAD DUP1 DUP4 SUB DUP2 DUP6 GAS DELEGATECALL SWAP2 POP POP RETURNDATASIZE DUP1 PUSH1 0x0 DUP2 EQ PUSH2 0x441C JUMPI PUSH1 0x40 MLOAD SWAP2 POP PUSH1 0x1F NOT PUSH1 0x3F RETURNDATASIZE ADD AND DUP3 ADD PUSH1 0x40 MSTORE RETURNDATASIZE DUP3 MSTORE RETURNDATASIZE PUSH1 0x0 PUSH1 0x20 DUP5 ADD RETURNDATACOPY PUSH2 0x4421 JUMP JUMPDEST PUSH1 0x60 SWAP2 POP JUMPDEST POP SWAP2 POP SWAP2 POP PUSH2 0x4431 DUP6 DUP4 DUP4 PUSH2 0x4478 JUMP JUMPDEST SWAP3 POP POP POP SWAP3 SWAP2 POP POP JUMP JUMPDEST PUSH1 0x0 CALLVALUE GT ISZERO PUSH2 0x4476 JUMPI PUSH1 0x40 MLOAD PUSH32 0xB398979F00000000000000000000000000000000000000000000000000000000 DUP2 MSTORE PUSH1 0x4 ADD PUSH1 0x40 MLOAD DUP1 SWAP2 SUB SWAP1 REVERT JUMPDEST JUMP JUMPDEST PUSH1 0x60 DUP3 PUSH2 0x448D JUMPI PUSH2 0x4488 DUP3 PUSH2 0x4507 JUMP JUMPDEST PUSH2 0x44FF JUMP JUMPDEST PUSH1 0x0 DUP3 MLOAD EQ DUP1 ISZERO PUSH2 0x44B5 JUMPI POP PUSH1 0x0 DUP5 PUSH20 0xFFFFFFFFFFFFFFFFFFFFFFFFFFFFFFFFFFFFFFFF AND EXTCODESIZE EQ JUMPDEST ISZERO PUSH2 0x44F7 JUMPI DUP4 PUSH1 0x40 MLOAD PUSH32 0x9996B31500000000000000000000000000000000000000000000000000000000 DUP2 MSTORE PUSH1 0x4 ADD PUSH2 0x44EE SWAP2 SWAP1 PUSH2 0x5C7E JUMP JUMPDEST PUSH1 0x40 MLOAD DUP1 SWAP2 SUB SWAP1 REVERT JUMPDEST DUP2 SWAP1 POP PUSH2 0x4500 JUMP JUMPDEST JUMPDEST SWAP4 SWAP3 POP POP POP JUMP JUMPDEST PUSH1 0x0 DUP2 MLOAD GT ISZERO PUSH2 0x451A JUMPI DUP1 MLOAD DUP1 DUP3 PUSH1 0x20 ADD REVERT JUMPDEST PUSH1 0x40 MLOAD PUSH32 0xD6BDA27500000000000000000000000000000000000000000000000000000000 DUP2 MSTORE PUSH1 0x4 ADD PUSH1 0x40 MLOAD DUP1 SWAP2 SUB SWAP1 REVERT JUMPDEST PUSH1 0x0 PUSH1 0x40 MLOAD SWAP1 POP SWAP1 JUMP JUMPDEST PUSH1 0x0 DUP1 REVERT JUMPDEST PUSH1 0x0 DUP1 REVERT JUMPDEST PUSH1 0x0 PUSH32 0xFFFFFFFF00000000000000000000000000000000000000000000000000000000 DUP3 AND SWAP1 POP SWAP2 SWAP1 POP JUMP JUMPDEST PUSH2 0x4595 DUP2 PUSH2 0x4560 JUMP JUMPDEST DUP2 EQ PUSH2 0x45A0 JUMPI PUSH1 0x0 DUP1 REVERT JUMPDEST POP JUMP JUMPDEST PUSH1 0x0 DUP2 CALLDATALOAD SWAP1 POP PUSH2 0x45B2 DUP2 PUSH2 0x458C JUMP JUMPDEST SWAP3 SWAP2 POP POP JUMP JUMPDEST PUSH1 0x0 PUSH1 0x20 DUP3 DUP5 SUB SLT ISZERO PUSH2 0x45CE JUMPI PUSH2 0x45CD PUSH2 0x4556 JUMP JUMPDEST JUMPDEST PUSH1 0x0 PUSH2 0x45DC DUP5 DUP3 DUP6 ADD PUSH2 0x45A3 JUMP JUMPDEST SWAP2 POP POP SWAP3 SWAP2 POP POP JUMP JUMPDEST PUSH1 0x0 DUP2 ISZERO ISZERO SWAP1 POP SWAP2 SWAP1 POP JUMP JUMPDEST PUSH2 0x45FA DUP2 PUSH2 0x45E5 JUMP JUMPDEST DUP3 MSTORE POP POP JUMP JUMPDEST PUSH1 0x0 PUSH1 0x20 DUP3 ADD SWAP1 POP PUSH2 0x4615 PUSH1 0x0 DUP4 ADD DUP5 PUSH2 0x45F1 JUMP JUMPDEST SWAP3 SWAP2 POP POP JUMP JUMPDEST PUSH1 0x0 DUP2 SWAP1 POP SWAP2 SWAP1 POP JUMP JUMPDEST PUSH2 0x462E DUP2 PUSH2 0x461B JUMP JUMPDEST DUP3 MSTORE POP POP JUMP JUMPDEST PUSH1 0x0 PUSH1 0x20 DUP3 ADD SWAP1 POP PUSH2 0x4649 PUSH1 0x0 DUP4 ADD DUP5 PUSH2 0x4625 JUMP JUMPDEST SWAP3 SWAP2 POP POP JUMP JUMPDEST PUSH2 0x4658 DUP2 PUSH2 0x461B JUMP JUMPDEST DUP2 EQ PUSH2 0x4663 JUMPI PUSH1 0x0 DUP1 REVERT JUMPDEST POP JUMP JUMPDEST PUSH1 0x0 DUP2 CALLDATALOAD SWAP1 POP PUSH2 0x4675 DUP2 PUSH2 0x464F JUMP JUMPDEST SWAP3 SWAP2 POP POP JUMP JUMPDEST PUSH1 0x0 PUSH20 0xFFFFFFFFFFFFFFFFFFFFFFFFFFFFFFFFFFFFFFFF DUP3 AND SWAP1 POP SWAP2 SWAP1 POP JUMP JUMPDEST PUSH1 0x0 PUSH2 0x46A6 DUP3 PUSH2 0x467B JUMP JUMPDEST SWAP1 POP SWAP2 SWAP1 POP JUMP JUMPDEST PUSH2 0x46B6 DUP2 PUSH2 0x469B JUMP JUMPDEST DUP2 EQ PUSH2 0x46C1 JUMPI PUSH1 0x0 DUP1 REVERT JUMPDEST POP JUMP JUMPDEST PUSH1 0x0 DUP2 CALLDATALOAD SWAP1 POP PUSH2 0x46D3 DUP2 PUSH2 0x46AD JUMP JUMPDEST SWAP3 SWAP2 POP POP JUMP JUMPDEST PUSH1 0x0 DUP1 PUSH1 0x40 DUP4 DUP6 SUB SLT ISZERO PUSH2 0x46F0 JUMPI PUSH2 0x46EF PUSH2 0x4556 JUMP JUMPDEST JUMPDEST PUSH1 0x0 PUSH2 0x46FE DUP6 DUP3 DUP7 ADD PUSH2 0x4666 JUMP JUMPDEST SWAP3 POP POP PUSH1 0x20 PUSH2 0x470F DUP6 DUP3 DUP7 ADD PUSH2 0x46C4 JUMP JUMPDEST SWAP2 POP POP SWAP3 POP SWAP3 SWAP1 POP JUMP JUMPDEST PUSH1 0x0 DUP2 SWAP1 POP SWAP2 SWAP1 POP JUMP JUMPDEST PUSH2 0x472C DUP2 PUSH2 0x4719 JUMP JUMPDEST DUP2 EQ PUSH2 0x4737 JUMPI PUSH1 0x0 DUP1 REVERT JUMPDEST POP JUMP JUMPDEST PUSH1 0x0 DUP2 CALLDATALOAD SWAP1 POP PUSH2 0x4749 DUP2 PUSH2 0x4723 JUMP JUMPDEST SWAP3 SWAP2 POP POP JUMP JUMPDEST PUSH1 0x0 PUSH1 0x20 DUP3 DUP5 SUB SLT ISZERO PUSH2 0x4765 JUMPI PUSH2 0x4764 PUSH2 0x4556 JUMP JUMPDEST JUMPDEST PUSH1 0x0 PUSH2 0x4773 DUP5 DUP3 DUP6 ADD PUSH2 0x473A JUMP JUMPDEST SWAP2 POP POP SWAP3 SWAP2 POP POP JUMP JUMPDEST PUSH2 0x4785 DUP2 PUSH2 0x4719 JUMP JUMPDEST DUP3 MSTORE POP POP JUMP JUMPDEST PUSH1 0x0 PUSH1 0x20 DUP3 ADD SWAP1 POP PUSH2 0x47A0 PUSH1 0x0 DUP4 ADD DUP5 PUSH2 0x477C JUMP JUMPDEST SWAP3 SWAP2 POP POP JUMP JUMPDEST PUSH1 0x0 PUSH1 0x20 DUP3 DUP5 SUB SLT ISZERO PUSH2 0x47BC JUMPI PUSH2 0x47BB PUSH2 0x4556 JUMP JUMPDEST JUMPDEST PUSH1 0x0 PUSH2 0x47CA DUP5 DUP3 DUP6 ADD PUSH2 0x4666 JUMP JUMPDEST SWAP2 POP POP SWAP3 SWAP2 POP POP JUMP JUMPDEST PUSH1 0x0 DUP1 PUSH1 0x40 DUP4 DUP6 SUB SLT ISZERO PUSH2 0x47EA JUMPI PUSH2 0x47E9 PUSH2 0x4556 JUMP JUMPDEST JUMPDEST PUSH1 0x0 PUSH2 0x47F8 DUP6 DUP3 DUP7 ADD PUSH2 0x473A JUMP JUMPDEST SWAP3 POP POP PUSH1 0x20 PUSH2 0x4809 DUP6 DUP3 DUP7 ADD PUSH2 0x46C4 JUMP JUMPDEST SWAP2 POP POP SWAP3 POP SWAP3 SWAP1 POP JUMP JUMPDEST PUSH1 0x0 PUSH1 0x60 DUP3 ADD SWAP1 POP PUSH2 0x4828 PUSH1 0x0 DUP4 ADD DUP7 PUSH2 0x4625 JUMP JUMPDEST PUSH2 0x4835 PUSH1 0x20 DUP4 ADD DUP6 PUSH2 0x4625 JUMP JUMPDEST PUSH2 0x4842 PUSH1 0x40 DUP4 ADD DUP5 PUSH2 0x4625 JUMP JUMPDEST SWAP5 SWAP4 POP POP POP POP JUMP JUMPDEST PUSH1 0x0 DUP1 PUSH1 0x0 PUSH1 0x60 DUP5 DUP7 SUB SLT ISZERO PUSH2 0x4863 JUMPI PUSH2 0x4862 PUSH2 0x4556 JUMP JUMPDEST JUMPDEST PUSH1 0x0 PUSH2 0x4871 DUP7 DUP3 DUP8 ADD PUSH2 0x4666 JUMP JUMPDEST SWAP4 POP POP PUSH1 0x20 PUSH2 0x4882 DUP7 DUP3 DUP8 ADD PUSH2 0x46C4 JUMP JUMPDEST SWAP3 POP POP PUSH1 0x40 PUSH2 0x4893 DUP7 DUP3 DUP8 ADD PUSH2 0x4666 JUMP JUMPDEST SWAP2 POP POP SWAP3 POP SWAP3 POP SWAP3 JUMP JUMPDEST PUSH1 0x0 PUSH2 0x48A8 DUP3 PUSH2 0x469B JUMP JUMPDEST SWAP1 POP SWAP2 SWAP1 POP JUMP JUMPDEST PUSH2 0x48B8 DUP2 PUSH2 0x489D JUMP JUMPDEST DUP2 EQ PUSH2 0x48C3 JUMPI PUSH1 0x0 DUP1 REVERT JUMPDEST POP JUMP JUMPDEST PUSH1 0x0 DUP2 CALLDATALOAD SWAP1 POP PUSH2 0x48D5 DUP2 PUSH2 0x48AF JUMP JUMPDEST SWAP3 SWAP2 POP POP JUMP JUMPDEST PUSH1 0x0 DUP1 PUSH1 0x0 DUP1 PUSH1 0x80 DUP6 DUP8 SUB SLT ISZERO PUSH2 0x48F5 JUMPI PUSH2 0x48F4 PUSH2 0x4556 JUMP JUMPDEST JUMPDEST PUSH1 0x0 PUSH2 0x4903 DUP8 DUP3 DUP9 ADD PUSH2 0x48C6 JUMP JUMPDEST SWAP5 POP POP PUSH1 0x20 PUSH2 0x4914 DUP8 DUP3 DUP9 ADD PUSH2 0x4666 JUMP JUMPDEST SWAP4 POP POP PUSH1 0x40 PUSH2 0x4925 DUP8 DUP3 DUP9 ADD PUSH2 0x4666 JUMP JUMPDEST SWAP3 POP POP PUSH1 0x60 PUSH2 0x4936 DUP8 DUP3 DUP9 ADD PUSH2 0x4666 JUMP JUMPDEST SWAP2 POP POP SWAP3 SWAP6 SWAP2 SWAP5 POP SWAP3 POP JUMP JUMPDEST PUSH1 0x0 DUP1 REVERT JUMPDEST PUSH1 0x0 DUP1 REVERT JUMPDEST PUSH1 0x0 PUSH1 0x1F NOT PUSH1 0x1F DUP4 ADD AND SWAP1 POP SWAP2 SWAP1 POP JUMP JUMPDEST PUSH32 0x4E487B7100000000000000000000000000000000000000000000000000000000 PUSH1 0x0 MSTORE PUSH1 0x41 PUSH1 0x4 MSTORE PUSH1 0x24 PUSH1 0x0 REVERT JUMPDEST PUSH2 0x4995 DUP3 PUSH2 0x494C JUMP JUMPDEST DUP2 ADD DUP2 DUP2 LT PUSH8 0xFFFFFFFFFFFFFFFF DUP3 GT OR ISZERO PUSH2 0x49B4 JUMPI PUSH2 0x49B3 PUSH2 0x495D JUMP JUMPDEST JUMPDEST DUP1 PUSH1 0x40 MSTORE POP POP POP JUMP JUMPDEST PUSH1 0x0 PUSH2 0x49C7 PUSH2 0x454C JUMP JUMPDEST SWAP1 POP PUSH2 0x49D3 DUP3 DUP3 PUSH2 0x498C JUMP JUMPDEST SWAP2 SWAP1 POP JUMP JUMPDEST PUSH1 0x0 PUSH8 0xFFFFFFFFFFFFFFFF DUP3 GT ISZERO PUSH2 0x49F3 JUMPI PUSH2 0x49F2 PUSH2 0x495D JUMP JUMPDEST JUMPDEST PUSH2 0x49FC DUP3 PUSH2 0x494C JUMP JUMPDEST SWAP1 POP PUSH1 0x20 DUP2 ADD SWAP1 POP SWAP2 SWAP1 POP JUMP JUMPDEST DUP3 DUP2 DUP4 CALLDATACOPY PUSH1 0x0 DUP4 DUP4 ADD MSTORE POP POP POP JUMP JUMPDEST PUSH1 0x0 PUSH2 0x4A2B PUSH2 0x4A26 DUP5 PUSH2 0x49D8 JUMP JUMPDEST PUSH2 0x49BD JUMP JUMPDEST SWAP1 POP DUP3 DUP2 MSTORE PUSH1 0x20 DUP2 ADD DUP5 DUP5 DUP5 ADD GT ISZERO PUSH2 0x4A47 JUMPI PUSH2 0x4A46 PUSH2 0x4947 JUMP JUMPDEST JUMPDEST PUSH2 0x4A52 DUP5 DUP3 DUP6 PUSH2 0x4A09 JUMP JUMPDEST POP SWAP4 SWAP3 POP POP POP JUMP JUMPDEST PUSH1 0x0 DUP3 PUSH1 0x1F DUP4 ADD SLT PUSH2 0x4A6F JUMPI PUSH2 0x4A6E PUSH2 0x4942 JUMP JUMPDEST JUMPDEST DUP2 CALLDATALOAD PUSH2 0x4A7F DUP5 DUP3 PUSH1 0x20 DUP7 ADD PUSH2 0x4A18 JUMP JUMPDEST SWAP2 POP POP SWAP3 SWAP2 POP POP JUMP JUMPDEST PUSH1 0x0 DUP1 PUSH1 0x40 DUP4 DUP6 SUB SLT ISZERO PUSH2 0x4A9F JUMPI PUSH2 0x4A9E PUSH2 0x4556 JUMP JUMPDEST JUMPDEST PUSH1 0x0 PUSH2 0x4AAD DUP6 DUP3 DUP7 ADD PUSH2 0x46C4 JUMP JUMPDEST SWAP3 POP POP PUSH1 0x20 DUP4 ADD CALLDATALOAD PUSH8 0xFFFFFFFFFFFFFFFF DUP2 GT ISZERO PUSH2 0x4ACE JUMPI PUSH2 0x4ACD PUSH2 0x455B JUMP JUMPDEST JUMPDEST PUSH2 0x4ADA DUP6 DUP3 DUP7 ADD PUSH2 0x4A5A JUMP JUMPDEST SWAP2 POP POP SWAP3 POP SWAP3 SWAP1 POP JUMP JUMPDEST PUSH1 0x0 DUP1 PUSH1 0x40 DUP4 DUP6 SUB SLT ISZERO PUSH2 0x4AFB JUMPI PUSH2 0x4AFA PUSH2 0x4556 JUMP JUMPDEST JUMPDEST PUSH1 0x0 PUSH2 0x4B09 DUP6 DUP3 DUP7 ADD PUSH2 0x4666 JUMP JUMPDEST SWAP3 POP POP PUSH1 0x20 PUSH2 0x4B1A DUP6 DUP3 DUP7 ADD PUSH2 0x4666 JUMP JUMPDEST SWAP2 POP POP SWAP3 POP SWAP3 SWAP1 POP JUMP JUMPDEST PUSH1 0x0 DUP2 SWAP1 POP SWAP2 SWAP1 POP JUMP JUMPDEST PUSH1 0x0 PUSH2 0x4B49 PUSH2 0x4B44 PUSH2 0x4B3F DUP5 PUSH2 0x467B JUMP JUMPDEST PUSH2 0x4B24 JUMP JUMPDEST PUSH2 0x467B JUMP JUMPDEST SWAP1 POP SWAP2 SWAP1 POP JUMP JUMPDEST PUSH1 0x0 PUSH2 0x4B5B DUP3 PUSH2 0x4B2E JUMP JUMPDEST SWAP1 POP SWAP2 SWAP1 POP JUMP JUMPDEST PUSH1 0x0 PUSH2 0x4B6D DUP3 PUSH2 0x4B50 JUMP JUMPDEST SWAP1 POP SWAP2 SWAP1 POP JUMP JUMPDEST PUSH2 0x4B7D DUP2 PUSH2 0x4B62 JUMP JUMPDEST DUP3 MSTORE POP POP JUMP JUMPDEST PUSH1 0x0 PUSH1 0x20 DUP3 ADD SWAP1 POP PUSH2 0x4B98 PUSH1 0x0 DUP4 ADD DUP5 PUSH2 0x4B74 JUMP JUMPDEST SWAP3 SWAP2 POP POP JUMP JUMPDEST PUSH1 0x0 DUP2 MLOAD SWAP1 POP SWAP2 SWAP1 POP JUMP JUMPDEST PUSH1 0x0 DUP3 DUP3 MSTORE PUSH1 0x20 DUP3 ADD SWAP1 POP SWAP3 SWAP2 POP POP JUMP JUMPDEST PUSH1 0x0 JUMPDEST DUP4 DUP2 LT ISZERO PUSH2 0x4BD8 JUMPI DUP1 DUP3 ADD MLOAD DUP2 DUP5 ADD MSTORE PUSH1 0x20 DUP2 ADD SWAP1 POP PUSH2 0x4BBD JUMP JUMPDEST PUSH1 0x0 DUP5 DUP5 ADD MSTORE POP POP POP POP JUMP JUMPDEST PUSH1 0x0 PUSH2 0x4BEF DUP3 PUSH2 0x4B9E JUMP JUMPDEST PUSH2 0x4BF9 DUP2 DUP6 PUSH2 0x4BA9 JUMP JUMPDEST SWAP4 POP PUSH2 0x4C09 DUP2 DUP6 PUSH1 0x20 DUP7 ADD PUSH2 0x4BBA JUMP JUMPDEST PUSH2 0x4C12 DUP2 PUSH2 0x494C JUMP JUMPDEST DUP5 ADD SWAP2 POP POP SWAP3 SWAP2 POP POP JUMP JUMPDEST PUSH1 0x0 PUSH1 0x20 DUP3 ADD SWAP1 POP DUP2 DUP2 SUB PUSH1 0x0 DUP4 ADD MSTORE PUSH2 0x4C37 DUP2 DUP5 PUSH2 0x4BE4 JUMP JUMPDEST SWAP1 POP SWAP3 SWAP2 POP POP JUMP JUMPDEST PUSH2 0x4C48 DUP2 PUSH2 0x45E5 JUMP JUMPDEST DUP2 EQ PUSH2 0x4C53 JUMPI PUSH1 0x0 DUP1 REVERT JUMPDEST POP JUMP JUMPDEST PUSH1 0x0 DUP2 CALLDATALOAD SWAP1 POP PUSH2 0x4C65 DUP2 PUSH2 0x4C3F JUMP JUMPDEST SWAP3 SWAP2 POP POP JUMP JUMPDEST PUSH1 0x0 DUP1 PUSH1 0x0 DUP1 PUSH1 0x0 PUSH1 0xA0 DUP7 DUP9 SUB SLT ISZERO PUSH2 0x4C87 JUMPI PUSH2 0x4C86 PUSH2 0x4556 JUMP JUMPDEST JUMPDEST PUSH1 0x0 PUSH2 0x4C95 DUP9 DUP3 DUP10 ADD PUSH2 0x46C4 JUMP JUMPDEST SWAP6 POP POP PUSH1 0x20 PUSH2 0x4CA6 DUP9 DUP3 DUP10 ADD PUSH2 0x4666 JUMP JUMPDEST SWAP5 POP POP PUSH1 0x40 PUSH2 0x4CB7 DUP9 DUP3 DUP10 ADD PUSH2 0x4666 JUMP JUMPDEST SWAP4 POP POP PUSH1 0x60 PUSH2 0x4CC8 DUP9 DUP3 DUP10 ADD PUSH2 0x4666 JUMP JUMPDEST SWAP3 POP POP PUSH1 0x80 PUSH2 0x4CD9 DUP9 DUP3 DUP10 ADD PUSH2 0x4C56 JUMP JUMPDEST SWAP2 POP POP SWAP3 SWAP6 POP SWAP3 SWAP6 SWAP1 SWAP4 POP JUMP JUMPDEST PUSH1 0x0 DUP1 PUSH1 0x0 PUSH1 0x60 DUP5 DUP7 SUB SLT ISZERO PUSH2 0x4CFF JUMPI PUSH2 0x4CFE PUSH2 0x4556 JUMP JUMPDEST JUMPDEST PUSH1 0x0 PUSH2 0x4D0D DUP7 DUP3 DUP8 ADD PUSH2 0x4666 JUMP JUMPDEST SWAP4 POP POP PUSH1 0x20 PUSH2 0x4D1E DUP7 DUP3 DUP8 ADD PUSH2 0x4666 JUMP JUMPDEST SWAP3 POP POP PUSH1 0x40 PUSH2 0x4D2F DUP7 DUP3 DUP8 ADD PUSH2 0x4666 JUMP JUMPDEST SWAP2 POP POP SWAP3 POP SWAP3 POP SWAP3 JUMP JUMPDEST PUSH1 0x0 PUSH1 0x20 DUP3 DUP5 SUB SLT ISZERO PUSH2 0x4D4F JUMPI PUSH2 0x4D4E PUSH2 0x4556 JUMP JUMPDEST JUMPDEST PUSH1 0x0 PUSH2 0x4D5D DUP5 DUP3 DUP6 ADD PUSH2 0x48C6 JUMP JUMPDEST SWAP2 POP POP SWAP3 SWAP2 POP POP JUMP JUMPDEST PUSH1 0x0 DUP1 PUSH1 0x0 PUSH1 0x60 DUP5 DUP7 SUB SLT ISZERO PUSH2 0x4D7F JUMPI PUSH2 0x4D7E PUSH2 0x4556 JUMP JUMPDEST JUMPDEST PUSH1 0x0 PUSH2 0x4D8D DUP7 DUP3 DUP8 ADD PUSH2 0x4666 JUMP JUMPDEST SWAP4 POP POP PUSH1 0x20 PUSH2 0x4D9E DUP7 DUP3 DUP8 ADD PUSH2 0x4666 JUMP JUMPDEST SWAP3 POP POP PUSH1 0x40 PUSH2 0x4DAF DUP7 DUP3 DUP8 ADD PUSH2 0x4C56 JUMP JUMPDEST SWAP2 POP POP SWAP3 POP SWAP3 POP SWAP3 JUMP JUMPDEST PUSH2 0x4DC2 DUP2 PUSH2 0x469B JUMP JUMPDEST DUP3 MSTORE POP POP JUMP JUMPDEST PUSH1 0x0 PUSH1 0xE0 DUP3 ADD SWAP1 POP PUSH2 0x4DDD PUSH1 0x0 DUP4 ADD DUP11 PUSH2 0x4DB9 JUMP JUMPDEST PUSH2 0x4DEA PUSH1 0x20 DUP4 ADD DUP10 PUSH2 0x4625 JUMP JUMPDEST PUSH2 0x4DF7 PUSH1 0x40 DUP4 ADD DUP9 PUSH2 0x4625 JUMP JUMPDEST PUSH2 0x4E04 PUSH1 0x60 DUP4 ADD DUP8 PUSH2 0x4625 JUMP JUMPDEST PUSH2 0x4E11 PUSH1 0x80 DUP4 ADD DUP7 PUSH2 0x4625 JUMP JUMPDEST PUSH2 0x4E1E PUSH1 0xA0 DUP4 ADD DUP6 PUSH2 0x4625 JUMP JUMPDEST PUSH2 0x4E2B PUSH1 0xC0 DUP4 ADD DUP5 PUSH2 0x4625 JUMP JUMPDEST SWAP9 SWAP8 POP POP POP POP POP POP POP POP JUMP JUMPDEST PUSH1 0x0 PUSH1 0x40 DUP3 ADD SWAP1 POP PUSH2 0x4E4C PUSH1 0x0 DUP4 ADD DUP6 PUSH2 0x4625 JUMP JUMPDEST PUSH2 0x4E59 PUSH1 0x20 DUP4 ADD DUP5 PUSH2 0x4625 JUMP JUMPDEST SWAP4 SWAP3 POP POP POP JUMP JUMPDEST PUSH32 0x696E76616C696420706964000000000000000000000000000000000000000000 PUSH1 0x0 DUP3 ADD MSTORE POP JUMP JUMPDEST PUSH1 0x0 PUSH2 0x4E96 PUSH1 0xB DUP4 PUSH2 0x4BA9 JUMP JUMPDEST SWAP2 POP PUSH2 0x4EA1 DUP3 PUSH2 0x4E60 JUMP JUMPDEST PUSH1 0x20 DUP3 ADD SWAP1 POP SWAP2 SWAP1 POP JUMP JUMPDEST PUSH1 0x0 PUSH1 0x20 DUP3 ADD SWAP1 POP DUP2 DUP2 SUB PUSH1 0x0 DUP4 ADD MSTORE PUSH2 0x4EC5 DUP2 PUSH2 0x4E89 JUMP JUMPDEST SWAP1 POP SWAP2 SWAP1 POP JUMP JUMPDEST PUSH32 0x7769746864726177206973207061757365640000000000000000000000000000 PUSH1 0x0 DUP3 ADD MSTORE POP JUMP JUMPDEST PUSH1 0x0 PUSH2 0x4F02 PUSH1 0x12 DUP4 PUSH2 0x4BA9 JUMP JUMPDEST SWAP2 POP PUSH2 0x4F0D DUP3 PUSH2 0x4ECC JUMP JUMPDEST PUSH1 0x20 DUP3 ADD SWAP1 POP SWAP2 SWAP1 POP JUMP JUMPDEST PUSH1 0x0 PUSH1 0x20 DUP3 ADD SWAP1 POP DUP2 DUP2 SUB PUSH1 0x0 DUP4 ADD MSTORE PUSH2 0x4F31 DUP2 PUSH2 0x4EF5 JUMP JUMPDEST SWAP1 POP SWAP2 SWAP1 POP JUMP JUMPDEST PUSH32 0x4E487B7100000000000000000000000000000000000000000000000000000000 PUSH1 0x0 MSTORE PUSH1 0x32 PUSH1 0x4 MSTORE PUSH1 0x24 PUSH1 0x0 REVERT JUMPDEST PUSH32 0x4E487B7100000000000000000000000000000000000000000000000000000000 PUSH1 0x0 MSTORE PUSH1 0x11 PUSH1 0x4 MSTORE PUSH1 0x24 PUSH1 0x0 REVERT JUMPDEST PUSH1 0x0 PUSH2 0x4FA1 DUP3 PUSH2 0x461B JUMP JUMPDEST SWAP2 POP PUSH2 0x4FAC DUP4 PUSH2 0x461B JUMP JUMPDEST SWAP3 POP DUP3 DUP3 ADD SWAP1 POP DUP1 DUP3 GT ISZERO PUSH2 0x4FC4 JUMPI PUSH2 0x4FC3 PUSH2 0x4F67 JUMP JUMPDEST JUMPDEST SWAP3 SWAP2 POP POP JUMP JUMPDEST PUSH1 0x0 PUSH2 0x4FD5 DUP3 PUSH2 0x461B JUMP JUMPDEST SWAP2 POP PUSH32 0xFFFFFFFFFFFFFFFFFFFFFFFFFFFFFFFFFFFFFFFFFFFFFFFFFFFFFFFFFFFFFFFF DUP3 SUB PUSH2 0x5007 JUMPI PUSH2 0x5006 PUSH2 0x4F67 JUMP JUMPDEST JUMPDEST PUSH1 0x1 DUP3 ADD SWAP1 POP SWAP2 SWAP1 POP JUMP JUMPDEST PUSH1 0x0 PUSH2 0x501D DUP3 PUSH2 0x461B JUMP JUMPDEST SWAP2 POP PUSH2 0x5028 DUP4 PUSH2 0x461B JUMP JUMPDEST SWAP3 POP DUP3 DUP3 SUB SWAP1 POP DUP2 DUP2 GT ISZERO PUSH2 0x5040 JUMPI PUSH2 0x503F PUSH2 0x4F67 JUMP JUMPDEST JUMPDEST SWAP3 SWAP2 POP POP JUMP JUMPDEST PUSH32 0x4E487B7100000000000000000000000000000000000000000000000000000000 PUSH1 0x0 MSTORE PUSH1 0x31 PUSH1 0x4 MSTORE PUSH1 0x24 PUSH1 0x0 REVERT JUMPDEST PUSH32 0x636C61696D206973207061757365640000000000000000000000000000000000 PUSH1 0x0 DUP3 ADD MSTORE POP JUMP JUMPDEST PUSH1 0x0 PUSH2 0x50AB PUSH1 0xF DUP4 PUSH2 0x4BA9 JUMP JUMPDEST SWAP2 POP PUSH2 0x50B6 DUP3 PUSH2 0x5075 JUMP JUMPDEST PUSH1 0x20 DUP3 ADD SWAP1 POP SWAP2 SWAP1 POP JUMP JUMPDEST PUSH1 0x0 PUSH1 0x20 DUP3 ADD SWAP1 POP DUP2 DUP2 SUB PUSH1 0x0 DUP4 ADD MSTORE PUSH2 0x50DA DUP2 PUSH2 0x509E JUMP JUMPDEST SWAP1 POP SWAP2 SWAP1 POP JUMP JUMPDEST PUSH1 0x0 PUSH2 0x50EC DUP3 PUSH2 0x461B JUMP JUMPDEST SWAP2 POP PUSH2 0x50F7 DUP4 PUSH2 0x461B JUMP JUMPDEST SWAP3 POP DUP3 DUP3 MUL PUSH2 0x5105 DUP2 PUSH2 0x461B JUMP JUMPDEST SWAP2 POP DUP3 DUP3 DIV DUP5 EQ DUP4 ISZERO OR PUSH2 0x511C JUMPI PUSH2 0x511B PUSH2 0x4F67 JUMP JUMPDEST JUMPDEST POP SWAP3 SWAP2 POP POP JUMP JUMPDEST PUSH32 0x4E487B7100000000000000000000000000000000000000000000000000000000 PUSH1 0x0 MSTORE PUSH1 0x12 PUSH1 0x4 MSTORE PUSH1 0x24 PUSH1 0x0 REVERT JUMPDEST PUSH1 0x0 PUSH2 0x515D DUP3 PUSH2 0x461B JUMP JUMPDEST SWAP2 POP PUSH2 0x5168 DUP4 PUSH2 0x461B JUMP JUMPDEST SWAP3 POP DUP3 PUSH2 0x5178 JUMPI PUSH2 0x5177 PUSH2 0x5123 JUMP JUMPDEST JUMPDEST DUP3 DUP3 DIV SWAP1 POP SWAP3 SWAP2 POP POP JUMP JUMPDEST PUSH32 0x737461727420626C6F636B206D757374206265206C657373207468616E20656E PUSH1 0x0 DUP3 ADD MSTORE PUSH32 0x6420626C6F636B00000000000000000000000000000000000000000000000000 PUSH1 0x20 DUP3 ADD MSTORE POP JUMP JUMPDEST PUSH1 0x0 PUSH2 0x51DF PUSH1 0x27 DUP4 PUSH2 0x4BA9 JUMP JUMPDEST SWAP2 POP PUSH2 0x51EA DUP3 PUSH2 0x5183 JUMP JUMPDEST PUSH1 0x40 DUP3 ADD SWAP1 POP SWAP2 SWAP1 POP JUMP JUMPDEST PUSH1 0x0 PUSH1 0x20 DUP3 ADD SWAP1 POP DUP2 DUP2 SUB PUSH1 0x0 DUP4 ADD MSTORE PUSH2 0x520E DUP2 PUSH2 0x51D2 JUMP JUMPDEST SWAP1 POP SWAP2 SWAP1 POP JUMP JUMPDEST PUSH32 0x7263632070657220626C6F636B206D7573742062652067726561746572207468 PUSH1 0x0 DUP3 ADD MSTORE PUSH32 0x616E203000000000000000000000000000000000000000000000000000000000 PUSH1 0x20 DUP3 ADD MSTORE POP JUMP JUMPDEST PUSH1 0x0 PUSH2 0x5271 PUSH1 0x24 DUP4 PUSH2 0x4BA9 JUMP JUMPDEST SWAP2 POP PUSH2 0x527C DUP3 PUSH2 0x5215 JUMP JUMPDEST PUSH1 0x40 DUP3 ADD SWAP1 POP SWAP2 SWAP1 POP JUMP JUMPDEST PUSH1 0x0 PUSH1 0x20 DUP3 ADD SWAP1 POP DUP2 DUP2 SUB PUSH1 0x0 DUP4 ADD MSTORE PUSH2 0x52A0 DUP2 PUSH2 0x5264 JUMP JUMPDEST SWAP1 POP SWAP2 SWAP1 POP JUMP JUMPDEST PUSH1 0x0 DUP2 SWAP1 POP SWAP2 SWAP1 POP JUMP JUMPDEST PUSH1 0x0 PUSH8 0xFFFFFFFFFFFFFFFF DUP3 AND SWAP1 POP SWAP2 SWAP1 POP JUMP JUMPDEST PUSH1 0x0 PUSH2 0x52E0 PUSH2 0x52DB PUSH2 0x52D6 DUP5 PUSH2 0x52A7 JUMP JUMPDEST PUSH2 0x4B24 JUMP JUMPDEST PUSH2 0x52B1 JUMP JUMPDEST SWAP1 POP SWAP2 SWAP1 POP JUMP JUMPDEST PUSH2 0x52F0 DUP2 PUSH2 0x52C5 JUMP JUMPDEST DUP3 MSTORE POP POP JUMP JUMPDEST PUSH1 0x0 PUSH1 0x20 DUP3 ADD SWAP1 POP PUSH2 0x530B PUSH1 0x0 DUP4 ADD DUP5 PUSH2 0x52E7 JUMP JUMPDEST SWAP3 SWAP2 POP POP JUMP JUMPDEST PUSH32 0x6F766572666C6F77000000000000000000000000000000000000000000000000 PUSH1 0x0 DUP3 ADD MSTORE POP JUMP JUMPDEST PUSH1 0x0 PUSH2 0x5347 PUSH1 0x8 DUP4 PUSH2 0x4BA9 JUMP JUMPDEST SWAP2 POP PUSH2 0x5352 DUP3 PUSH2 0x5311 JUMP JUMPDEST PUSH1 0x20 DUP3 ADD SWAP1 POP SWAP2 SWAP1 POP JUMP JUMPDEST PUSH1 0x0 PUSH1 0x20 DUP3 ADD SWAP1 POP DUP2 DUP2 SUB PUSH1 0x0 DUP4 ADD MSTORE PUSH2 0x5376 DUP2 PUSH2 0x533A JUMP JUMPDEST SWAP1 POP SWAP2 SWAP1 POP JUMP JUMPDEST PUSH32 0x77697468647261772068617320616C7265616479206265656E20756E70617573 PUSH1 0x0 DUP3 ADD MSTORE PUSH32 0x6564000000000000000000000000000000000000000000000000000000000000 PUSH1 0x20 DUP3 ADD MSTORE POP JUMP JUMPDEST PUSH1 0x0 PUSH2 0x53D9 PUSH1 0x22 DUP4 PUSH2 0x4BA9 JUMP JUMPDEST SWAP2 POP PUSH2 0x53E4 DUP3 PUSH2 0x537D JUMP JUMPDEST PUSH1 0x40 DUP3 ADD SWAP1 POP SWAP2 SWAP1 POP JUMP JUMPDEST PUSH1 0x0 PUSH1 0x20 DUP3 ADD SWAP1 POP DUP2 DUP2 SUB PUSH1 0x0 DUP4 ADD MSTORE PUSH2 0x5408 DUP2 PUSH2 0x53CC JUMP JUMPDEST SWAP1 POP SWAP2 SWAP1 POP JUMP JUMPDEST PUSH32 0x696E76616C69642072616E676500000000000000000000000000000000000000 PUSH1 0x0 DUP3 ADD MSTORE POP JUMP JUMPDEST PUSH1 0x0 PUSH2 0x5445 PUSH1 0xD DUP4 PUSH2 0x4BA9 JUMP JUMPDEST SWAP2 POP PUSH2 0x5450 DUP3 PUSH2 0x540F JUMP JUMPDEST PUSH1 0x20 DUP3 ADD SWAP1 POP SWAP2 SWAP1 POP JUMP JUMPDEST PUSH1 0x0 PUSH1 0x20 DUP3 ADD SWAP1 POP DUP2 DUP2 SUB PUSH1 0x0 DUP4 ADD MSTORE PUSH2 0x5474 DUP2 PUSH2 0x5438 JUMP JUMPDEST SWAP1 POP SWAP2 SWAP1 POP JUMP JUMPDEST PUSH32 0x6D756C7469706C696572206F766572666C6F7700000000000000000000000000 PUSH1 0x0 DUP3 ADD MSTORE POP JUMP JUMPDEST PUSH1 0x0 PUSH2 0x54B1 PUSH1 0x13 DUP4 PUSH2 0x4BA9 JUMP JUMPDEST SWAP2 POP PUSH2 0x54BC DUP3 PUSH2 0x547B JUMP JUMPDEST PUSH1 0x20 DUP3 ADD SWAP1 POP SWAP2 SWAP1 POP JUMP JUMPDEST PUSH1 0x0 PUSH1 0x20 DUP3 ADD SWAP1 POP DUP2 DUP2 SUB PUSH1 0x0 DUP4 ADD MSTORE PUSH2 0x54E0 DUP2 PUSH2 0x54A4 JUMP JUMPDEST SWAP1 POP SWAP2 SWAP1 POP JUMP JUMPDEST PUSH32 0x636C61696D2068617320616C7265616479206265656E20756E70617573656400 PUSH1 0x0 DUP3 ADD MSTORE POP JUMP JUMPDEST PUSH1 0x0 PUSH2 0x551D PUSH1 0x1F DUP4 PUSH2 0x4BA9 JUMP JUMPDEST SWAP2 POP PUSH2 0x5528 DUP3 PUSH2 0x54E7 JUMP JUMPDEST PUSH1 0x20 DUP3 ADD SWAP1 POP SWAP2 SWAP1 POP JUMP JUMPDEST PUSH1 0x0 PUSH1 0x20 DUP3 ADD SWAP1 POP DUP2 DUP2 SUB PUSH1 0x0 DUP4 ADD MSTORE PUSH2 0x554C DUP2 PUSH2 0x5510 JUMP JUMPDEST SWAP1 POP SWAP2 SWAP1 POP JUMP JUMPDEST PUSH32 0x4E6F7420656E6F756768207374616B696E6720746F6B656E2062616C616E6365 PUSH1 0x0 DUP3 ADD MSTORE POP JUMP JUMPDEST PUSH1 0x0 PUSH2 0x5589 PUSH1 0x20 DUP4 PUSH2 0x4BA9 JUMP JUMPDEST SWAP2 POP PUSH2 0x5594 DUP3 PUSH2 0x5553 JUMP JUMPDEST PUSH1 0x20 DUP3 ADD SWAP1 POP SWAP2 SWAP1 POP JUMP JUMPDEST PUSH1 0x0 PUSH1 0x20 DUP3 ADD SWAP1 POP DUP2 DUP2 SUB PUSH1 0x0 DUP4 ADD MSTORE PUSH2 0x55B8 DUP2 PUSH2 0x557C JUMP JUMPDEST SWAP1 POP SWAP2 SWAP1 POP JUMP JUMPDEST PUSH32 0x6F766572666C6F77320000000000000000000000000000000000000000000000 PUSH1 0x0 DUP3 ADD MSTORE POP JUMP JUMPDEST PUSH1 0x0 PUSH2 0x55F5 PUSH1 0x9 DUP4 PUSH2 0x4BA9 JUMP JUMPDEST SWAP2 POP PUSH2 0x5600 DUP3 PUSH2 0x55BF JUMP JUMPDEST PUSH1 0x20 DUP3 ADD SWAP1 POP SWAP2 SWAP1 POP JUMP JUMPDEST PUSH1 0x0 PUSH1 0x20 DUP3 ADD SWAP1 POP DUP2 DUP2 SUB PUSH1 0x0 DUP4 ADD MSTORE PUSH2 0x5624 DUP2 PUSH2 0x55E8 JUMP JUMPDEST SWAP1 POP SWAP2 SWAP1 POP JUMP JUMPDEST PUSH32 0x6F766572666C6F77330000000000000000000000000000000000000000000000 PUSH1 0x0 DUP3 ADD MSTORE POP JUMP JUMPDEST PUSH1 0x0 PUSH2 0x5661 PUSH1 0x9 DUP4 PUSH2 0x4BA9 JUMP JUMPDEST SWAP2 POP PUSH2 0x566C DUP3 PUSH2 0x562B JUMP JUMPDEST PUSH1 0x20 DUP3 ADD SWAP1 POP SWAP2 SWAP1 POP JUMP JUMPDEST PUSH1 0x0 PUSH1 0x20 DUP3 ADD SWAP1 POP DUP2 DUP2 SUB PUSH1 0x0 DUP4 ADD MSTORE PUSH2 0x5690 DUP2 PUSH2 0x5654 JUMP JUMPDEST SWAP1 POP SWAP2 SWAP1 POP JUMP JUMPDEST PUSH32 0x74686520666972737420706F6F6C206D7573742062652045544820706F6F6C00 PUSH1 0x0 DUP3 ADD MSTORE POP JUMP JUMPDEST PUSH1 0x0 PUSH2 0x56CD PUSH1 0x1F DUP4 PUSH2 0x4BA9 JUMP JUMPDEST SWAP2 POP PUSH2 0x56D8 DUP3 PUSH2 0x5697 JUMP JUMPDEST PUSH1 0x20 DUP3 ADD SWAP1 POP SWAP2 SWAP1 POP JUMP JUMPDEST PUSH1 0x0 PUSH1 0x20 DUP3 ADD SWAP1 POP DUP2 DUP2 SUB PUSH1 0x0 DUP4 ADD MSTORE PUSH2 0x56FC DUP2 PUSH2 0x56C0 JUMP JUMPDEST SWAP1 POP SWAP2 SWAP1 POP JUMP JUMPDEST PUSH32 0x696E76616C6964207769746864726177206C6F636B656420626C6F636B730000 PUSH1 0x0 DUP3 ADD MSTORE POP JUMP JUMPDEST PUSH1 0x0 PUSH2 0x5739 PUSH1 0x1E DUP4 PUSH2 0x4BA9 JUMP JUMPDEST SWAP2 POP PUSH2 0x5744 DUP3 PUSH2 0x5703 JUMP JUMPDEST PUSH1 0x20 DUP3 ADD SWAP1 POP SWAP2 SWAP1 POP JUMP JUMPDEST PUSH1 0x0 PUSH1 0x20 DUP3 ADD SWAP1 POP DUP2 DUP2 SUB PUSH1 0x0 DUP4 ADD MSTORE PUSH2 0x5768 DUP2 PUSH2 0x572C JUMP JUMPDEST SWAP1 POP SWAP2 SWAP1 POP JUMP JUMPDEST PUSH32 0x616C726561647920656E64656400000000000000000000000000000000000000 PUSH1 0x0 DUP3 ADD MSTORE POP JUMP JUMPDEST PUSH1 0x0 PUSH2 0x57A5 PUSH1 0xD DUP4 PUSH2 0x4BA9 JUMP JUMPDEST SWAP2 POP PUSH2 0x57B0 DUP3 PUSH2 0x576F JUMP JUMPDEST PUSH1 0x20 DUP3 ADD SWAP1 POP SWAP2 SWAP1 POP JUMP JUMPDEST PUSH1 0x0 PUSH1 0x20 DUP3 ADD SWAP1 POP DUP2 DUP2 SUB PUSH1 0x0 DUP4 ADD MSTORE PUSH2 0x57D4 DUP2 PUSH2 0x5798 JUMP JUMPDEST SWAP1 POP SWAP2 SWAP1 POP JUMP JUMPDEST PUSH32 0x77697468647261772068617320616C7265616479206265656E20706175736564 PUSH1 0x0 DUP3 ADD MSTORE POP JUMP JUMPDEST PUSH1 0x0 PUSH2 0x5811 PUSH1 0x20 DUP4 PUSH2 0x4BA9 JUMP JUMPDEST SWAP2 POP PUSH2 0x581C DUP3 PUSH2 0x57DB JUMP JUMPDEST PUSH1 0x20 DUP3 ADD SWAP1 POP SWAP2 SWAP1 POP JUMP JUMPDEST PUSH1 0x0 PUSH1 0x20 DUP3 ADD SWAP1 POP DUP2 DUP2 SUB PUSH1 0x0 DUP4 ADD MSTORE PUSH2 0x5840 DUP2 PUSH2 0x5804 JUMP JUMPDEST SWAP1 POP SWAP2 SWAP1 POP JUMP JUMPDEST PUSH32 0x696E76616C696420706F6F6C2069640000000000000000000000000000000000 PUSH1 0x0 DUP3 ADD MSTORE POP JUMP JUMPDEST PUSH1 0x0 PUSH2 0x587D PUSH1 0xF DUP4 PUSH2 0x4BA9 JUMP JUMPDEST SWAP2 POP PUSH2 0x5888 DUP3 PUSH2 0x5847 JUMP JUMPDEST PUSH1 0x20 DUP3 ADD SWAP1 POP SWAP2 SWAP1 POP JUMP JUMPDEST PUSH1 0x0 PUSH1 0x20 DUP3 ADD SWAP1 POP DUP2 DUP2 SUB PUSH1 0x0 DUP4 ADD MSTORE PUSH2 0x58AC DUP2 PUSH2 0x5870 JUMP JUMPDEST SWAP1 POP SWAP2 SWAP1 POP JUMP JUMPDEST PUSH32 0x6465706F736974206E6F7420737570706F727420455448207374616B696E6700 PUSH1 0x0 DUP3 ADD MSTORE POP JUMP JUMPDEST PUSH1 0x0 PUSH2 0x58E9 PUSH1 0x1F DUP4 PUSH2 0x4BA9 JUMP JUMPDEST SWAP2 POP PUSH2 0x58F4 DUP3 PUSH2 0x58B3 JUMP JUMPDEST PUSH1 0x20 DUP3 ADD SWAP1 POP SWAP2 SWAP1 POP JUMP JUMPDEST PUSH1 0x0 PUSH1 0x20 DUP3 ADD SWAP1 POP DUP2 DUP2 SUB PUSH1 0x0 DUP4 ADD MSTORE PUSH2 0x5918 DUP2 PUSH2 0x58DC JUMP JUMPDEST SWAP1 POP SWAP2 SWAP1 POP JUMP JUMPDEST PUSH32 0x696E76616C6964206465706F73697420616D6F756E7400000000000000000000 PUSH1 0x0 DUP3 ADD MSTORE POP JUMP JUMPDEST PUSH1 0x0 PUSH2 0x5955 PUSH1 0x16 DUP4 PUSH2 0x4BA9 JUMP JUMPDEST SWAP2 POP PUSH2 0x5960 DUP3 PUSH2 0x591F JUMP JUMPDEST PUSH1 0x20 DUP3 ADD SWAP1 POP SWAP2 SWAP1 POP JUMP JUMPDEST PUSH1 0x0 PUSH1 0x20 DUP3 ADD SWAP1 POP DUP2 DUP2 SUB PUSH1 0x0 DUP4 ADD MSTORE PUSH2 0x5984 DUP2 PUSH2 0x5948 JUMP JUMPDEST SWAP1 POP SWAP2 SWAP1 POP JUMP JUMPDEST PUSH32 0x45544820706F6F6C206D75737420626520637265617465642066697273740000 PUSH1 0x0 DUP3 ADD MSTORE POP JUMP JUMPDEST PUSH1 0x0 PUSH2 0x59C1 PUSH1 0x1E DUP4 PUSH2 0x4BA9 JUMP JUMPDEST SWAP2 POP PUSH2 0x59CC DUP3 PUSH2 0x598B JUMP JUMPDEST PUSH1 0x20 DUP3 ADD SWAP1 POP SWAP2 SWAP1 POP JUMP JUMPDEST PUSH1 0x0 PUSH1 0x20 DUP3 ADD SWAP1 POP DUP2 DUP2 SUB PUSH1 0x0 DUP4 ADD MSTORE PUSH2 0x59F0 DUP2 PUSH2 0x59B4 JUMP JUMPDEST SWAP1 POP SWAP2 SWAP1 POP JUMP JUMPDEST PUSH32 0x696E76616C696420706F6F6C2077656967687400000000000000000000000000 PUSH1 0x0 DUP3 ADD MSTORE POP JUMP JUMPDEST PUSH1 0x0 PUSH2 0x5A2D PUSH1 0x13 DUP4 PUSH2 0x4BA9 JUMP JUMPDEST SWAP2 POP PUSH2 0x5A38 DUP3 PUSH2 0x59F7 JUMP JUMPDEST PUSH1 0x20 DUP3 ADD SWAP1 POP SWAP2 SWAP1 POP JUMP JUMPDEST PUSH1 0x0 PUSH1 0x20 DUP3 ADD SWAP1 POP DUP2 DUP2 SUB PUSH1 0x0 DUP4 ADD MSTORE PUSH2 0x5A5C DUP2 PUSH2 0x5A20 JUMP JUMPDEST SWAP1 POP SWAP2 SWAP1 POP JUMP JUMPDEST PUSH32 0x746F74616C20706F6F6C20776569676874206F766572666C6F77000000000000 PUSH1 0x0 DUP3 ADD MSTORE POP JUMP JUMPDEST PUSH1 0x0 PUSH2 0x5A99 PUSH1 0x1A DUP4 PUSH2 0x4BA9 JUMP JUMPDEST SWAP2 POP PUSH2 0x5AA4 DUP3 PUSH2 0x5A63 JUMP JUMPDEST PUSH1 0x20 DUP3 ADD SWAP1 POP SWAP2 SWAP1 POP JUMP JUMPDEST PUSH1 0x0 PUSH1 0x20 DUP3 ADD SWAP1 POP DUP2 DUP2 SUB PUSH1 0x0 DUP4 ADD MSTORE PUSH2 0x5AC8 DUP2 PUSH2 0x5A8C JUMP JUMPDEST SWAP1 POP SWAP2 SWAP1 POP JUMP JUMPDEST PUSH1 0x0 DUP2 SWAP1 POP SWAP3 SWAP2 POP POP JUMP JUMPDEST POP JUMP JUMPDEST PUSH1 0x0 PUSH2 0x5AEA PUSH1 0x0 DUP4 PUSH2 0x5ACF JUMP JUMPDEST SWAP2 POP PUSH2 0x5AF5 DUP3 PUSH2 0x5ADA JUMP JUMPDEST PUSH1 0x0 DUP3 ADD SWAP1 POP SWAP2 SWAP1 POP JUMP JUMPDEST PUSH1 0x0 PUSH2 0x5B0B DUP3 PUSH2 0x5ADD JUMP JUMPDEST SWAP2 POP DUP2 SWAP1 POP SWAP2 SWAP1 POP JUMP JUMPDEST PUSH32 0x455448207472616E736665722063616C6C206661696C65640000000000000000 PUSH1 0x0 DUP3 ADD MSTORE POP JUMP JUMPDEST PUSH1 0x0 PUSH2 0x5B4B PUSH1 0x18 DUP4 PUSH2 0x4BA9 JUMP JUMPDEST SWAP2 POP PUSH2 0x5B56 DUP3 PUSH2 0x5B15 JUMP JUMPDEST PUSH1 0x20 DUP3 ADD SWAP1 POP SWAP2 SWAP1 POP JUMP JUMPDEST PUSH1 0x0 PUSH1 0x20 DUP3 ADD SWAP1 POP DUP2 DUP2 SUB PUSH1 0x0 DUP4 ADD MSTORE PUSH2 0x5B7A DUP2 PUSH2 0x5B3E JUMP JUMPDEST SWAP1 POP SWAP2 SWAP1 POP JUMP JUMPDEST PUSH1 0x0 DUP2 MLOAD SWAP1 POP PUSH2 0x5B90 DUP2 PUSH2 0x4C3F JUMP JUMPDEST SWAP3 SWAP2 POP POP JUMP JUMPDEST PUSH1 0x0 PUSH1 0x20 DUP3 DUP5 SUB SLT ISZERO PUSH2 0x5BAC JUMPI PUSH2 0x5BAB PUSH2 0x4556 JUMP JUMPDEST JUMPDEST PUSH1 0x0 PUSH2 0x5BBA DUP5 DUP3 DUP6 ADD PUSH2 0x5B81 JUMP JUMPDEST SWAP2 POP POP SWAP3 SWAP2 POP POP JUMP JUMPDEST PUSH32 0x455448207472616E73666572206F7065726174696F6E20646964206E6F742073 PUSH1 0x0 DUP3 ADD MSTORE PUSH32 0x7563636565640000000000000000000000000000000000000000000000000000 PUSH1 0x20 DUP3 ADD MSTORE POP JUMP JUMPDEST PUSH1 0x0 PUSH2 0x5C1F PUSH1 0x26 DUP4 PUSH2 0x4BA9 JUMP JUMPDEST SWAP2 POP PUSH2 0x5C2A DUP3 PUSH2 0x5BC3 JUMP JUMPDEST PUSH1 0x40 DUP3 ADD SWAP1 POP SWAP2 SWAP1 POP JUMP JUMPDEST PUSH1 0x0 PUSH1 0x20 DUP3 ADD SWAP1 POP DUP2 DUP2 SUB PUSH1 0x0 DUP4 ADD MSTORE PUSH2 0x5C4E DUP2 PUSH2 0x5C12 JUMP JUMPDEST SWAP1 POP SWAP2 SWAP1 POP JUMP JUMPDEST PUSH1 0x0 PUSH1 0x40 DUP3 ADD SWAP1 POP PUSH2 0x5C6A PUSH1 0x0 DUP4 ADD DUP6 PUSH2 0x4DB9 JUMP JUMPDEST PUSH2 0x5C77 PUSH1 0x20 DUP4 ADD DUP5 PUSH2 0x4625 JUMP JUMPDEST SWAP4 SWAP3 POP POP POP JUMP JUMPDEST PUSH1 0x0 PUSH1 0x20 DUP3 ADD SWAP1 POP PUSH2 0x5C93 PUSH1 0x0 DUP4 ADD DUP5 PUSH2 0x4DB9 JUMP JUMPDEST SWAP3 SWAP2 POP POP JUMP JUMPDEST PUSH1 0x0 DUP2 MLOAD SWAP1 POP PUSH2 0x5CA8 DUP2 PUSH2 0x464F JUMP JUMPDEST SWAP3 SWAP2 POP POP JUMP JUMPDEST PUSH1 0x0 PUSH1 0x20 DUP3 DUP5 SUB SLT ISZERO PUSH2 0x5CC4 JUMPI PUSH2 0x5CC3 PUSH2 0x4556 JUMP JUMPDEST JUMPDEST PUSH1 0x0 PUSH2 0x5CD2 DUP5 DUP3 DUP6 ADD PUSH2 0x5C99 JUMP JUMPDEST SWAP2 POP POP SWAP3 SWAP2 POP POP JUMP JUMPDEST PUSH1 0x0 DUP2 MLOAD SWAP1 POP PUSH2 0x5CEA DUP2 PUSH2 0x4723 JUMP JUMPDEST SWAP3 SWAP2 POP POP JUMP JUMPDEST PUSH1 0x0 PUSH1 0x20 DUP3 DUP5 SUB SLT ISZERO PUSH2 0x5D06 JUMPI PUSH2 0x5D05 PUSH2 0x4556 JUMP JUMPDEST JUMPDEST PUSH1 0x0 PUSH2 0x5D14 DUP5 DUP3 DUP6 ADD PUSH2 0x5CDB JUMP JUMPDEST SWAP2 POP POP SWAP3 SWAP2 POP POP JUMP JUMPDEST PUSH1 0x0 PUSH1 0x60 DUP3 ADD SWAP1 POP PUSH2 0x5D32 PUSH1 0x0 DUP4 ADD DUP7 PUSH2 0x4DB9 JUMP JUMPDEST PUSH2 0x5D3F PUSH1 0x20 DUP4 ADD DUP6 PUSH2 0x4DB9 JUMP JUMPDEST PUSH2 0x5D4C PUSH1 0x40 DUP4 ADD DUP5 PUSH2 0x4625 JUMP JUMPDEST SWAP5 SWAP4 POP POP POP POP JUMP JUMPDEST PUSH32 0x75736572207374616B6520616D6F756E74206F766572666C6F77000000000000 PUSH1 0x0 DUP3 ADD MSTORE POP JUMP JUMPDEST PUSH1 0x0 PUSH2 0x5D8A PUSH1 0x1A DUP4 PUSH2 0x4BA9 JUMP JUMPDEST SWAP2 POP PUSH2 0x5D95 DUP3 PUSH2 0x5D54 JUMP JUMPDEST PUSH1 0x20 DUP3 ADD SWAP1 POP SWAP2 SWAP1 POP JUMP JUMPDEST PUSH1 0x0 PUSH1 0x20 DUP3 ADD SWAP1 POP DUP2 DUP2 SUB PUSH1 0x0 DUP4 ADD MSTORE PUSH2 0x5DB9 DUP2 PUSH2 0x5D7D JUMP JUMPDEST SWAP1 POP SWAP2 SWAP1 POP JUMP JUMPDEST PUSH32 0x616363756D756C617465207265776172647320706572207374616B65206F7665 PUSH1 0x0 DUP3 ADD MSTORE PUSH32 0x72666C6F77000000000000000000000000000000000000000000000000000000 PUSH1 0x20 DUP3 ADD MSTORE POP JUMP JUMPDEST PUSH1 0x0 PUSH2 0x5E1C PUSH1 0x25 DUP4 PUSH2 0x4BA9 JUMP JUMPDEST SWAP2 POP PUSH2 0x5E27 DUP3 PUSH2 0x5DC0 JUMP JUMPDEST PUSH1 0x40 DUP3 ADD SWAP1 POP SWAP2 SWAP1 POP JUMP JUMPDEST PUSH1 0x0 PUSH1 0x20 DUP3 ADD SWAP1 POP DUP2 DUP2 SUB PUSH1 0x0 DUP4 ADD MSTORE PUSH2 0x5E4B DUP2 PUSH2 0x5E0F JUMP JUMPDEST SWAP1 POP SWAP2 SWAP1 POP JUMP JUMPDEST PUSH32 0x70656E64696E672072657761726473206F766572666C6F770000000000000000 PUSH1 0x0 DUP3 ADD MSTORE POP JUMP JUMPDEST PUSH1 0x0 PUSH2 0x5E88 PUSH1 0x18 DUP4 PUSH2 0x4BA9 JUMP JUMPDEST SWAP2 POP PUSH2 0x5E93 DUP3 PUSH2 0x5E52 JUMP JUMPDEST PUSH1 0x20 DUP3 ADD SWAP1 POP SWAP2 SWAP1 POP JUMP JUMPDEST PUSH1 0x0 PUSH1 0x20 DUP3 ADD SWAP1 POP DUP2 DUP2 SUB PUSH1 0x0 DUP4 ADD MSTORE PUSH2 0x5EB7 DUP2 PUSH2 0x5E7B JUMP JUMPDEST SWAP1 POP SWAP2 SWAP1 POP JUMP JUMPDEST PUSH32 0x616363756D756C617465207374616B6520616D6F756E74206F766572666C6F77 PUSH1 0x0 DUP3 ADD MSTORE POP JUMP JUMPDEST PUSH1 0x0 PUSH2 0x5EF4 PUSH1 0x20 DUP4 PUSH2 0x4BA9 JUMP JUMPDEST SWAP2 POP PUSH2 0x5EFF DUP3 PUSH2 0x5EBE JUMP JUMPDEST PUSH1 0x20 DUP3 ADD SWAP1 POP SWAP2 SWAP1 POP JUMP JUMPDEST PUSH1 0x0 PUSH1 0x20 DUP3 ADD SWAP1 POP DUP2 DUP2 SUB PUSH1 0x0 DUP4 ADD MSTORE PUSH2 0x5F23 DUP2 PUSH2 0x5EE7 JUMP JUMPDEST SWAP1 POP SWAP2 SWAP1 POP JUMP JUMPDEST PUSH32 0x7374616B6520746F6B656E20616D6F756E74206F766572666C6F770000000000 PUSH1 0x0 DUP3 ADD MSTORE POP JUMP JUMPDEST PUSH1 0x0 PUSH2 0x5F60 PUSH1 0x1B DUP4 PUSH2 0x4BA9 JUMP JUMPDEST SWAP2 POP PUSH2 0x5F6B DUP3 PUSH2 0x5F2A JUMP JUMPDEST PUSH1 0x20 DUP3 ADD SWAP1 POP SWAP2 SWAP1 POP JUMP JUMPDEST PUSH1 0x0 PUSH1 0x20 DUP3 ADD SWAP1 POP DUP2 DUP2 SUB PUSH1 0x0 DUP4 ADD MSTORE PUSH2 0x5F8F DUP2 PUSH2 0x5F53 JUMP JUMPDEST SWAP1 POP SWAP2 SWAP1 POP JUMP JUMPDEST PUSH32 0x75736572207374416D6F756E74206D756C206163635243435065725354206F76 PUSH1 0x0 DUP3 ADD MSTORE PUSH32 0x6572666C6F770000000000000000000000000000000000000000000000000000 PUSH1 0x20 DUP3 ADD MSTORE POP JUMP JUMPDEST PUSH1 0x0 PUSH2 0x5FF2 PUSH1 0x26 DUP4 PUSH2 0x4BA9 JUMP JUMPDEST SWAP2 POP PUSH2 0x5FFD DUP3 PUSH2 0x5F96 JUMP JUMPDEST PUSH1 0x40 DUP3 ADD SWAP1 POP SWAP2 SWAP1 POP JUMP JUMPDEST PUSH1 0x0 PUSH1 0x20 DUP3 ADD SWAP1 POP DUP2 DUP2 SUB PUSH1 0x0 DUP4 ADD MSTORE PUSH2 0x6021 DUP2 PUSH2 0x5FE5 JUMP JUMPDEST SWAP1 POP SWAP2 SWAP1 POP JUMP JUMPDEST PUSH1 0x0 PUSH1 0x40 DUP3 ADD SWAP1 POP PUSH2 0x603D PUSH1 0x0 DUP4 ADD DUP6 PUSH2 0x4DB9 JUMP JUMPDEST PUSH2 0x604A PUSH1 0x20 DUP4 ADD DUP5 PUSH2 0x477C JUMP JUMPDEST SWAP4 SWAP3 POP POP POP JUMP JUMPDEST PUSH1 0x0 DUP2 MLOAD SWAP1 POP SWAP2 SWAP1 POP JUMP JUMPDEST PUSH1 0x0 PUSH2 0x6067 DUP3 PUSH2 0x6051 JUMP JUMPDEST PUSH2 0x6071 DUP2 DUP6 PUSH2 0x5ACF JUMP JUMPDEST SWAP4 POP PUSH2 0x6081 DUP2 DUP6 PUSH1 0x20 DUP7 ADD PUSH2 0x4BBA JUMP JUMPDEST DUP1 DUP5 ADD SWAP2 POP POP SWAP3 SWAP2 POP POP JUMP JUMPDEST PUSH1 0x0 PUSH2 0x6099 DUP3 DUP5 PUSH2 0x605C JUMP JUMPDEST SWAP2 POP DUP2 SWAP1 POP SWAP3 SWAP2 POP POP JUMP INVALID LOG2 PUSH5 0x6970667358 0x22 SLT KECCAK256 0x4A 0xBA MULMOD DUP3 SWAP2 0x4E 0xFB CALLER 0xC0 0xED 0xD EXP 0x49 DUP10 PUSH28 0xBB6004924D5712B25C0E202BA959B95BE964736F6C63430008160033 "},"methodIdentifiers":{"ADMIN_ROLE()":"75b238fc","DEFAULT_ADMIN_ROLE()":"a217fddf","ETH_PID()":"bfc3ebba","RCC()":"a72d5bf4","UPGRADE_INTERFACE_VERSION()":"ad3cb1cc","UPGRADE_ROLE()":"b908afa8","addPool(address,uint256,uint256,uint256,bool)":"b6d9d919","claim(uint256)":"379607f5","claimPaused()":"ab5e124a","deposit(uint256,uint256)":"e2bbb158","depositETH()":"f6326fb3","endBlock()":"083c6323","getMultiplier(uint256,uint256)":"8dbb1e3a","getPendingRCC(uint256,address)":"a27d9279","getPoolLength()":"b3944d52","getRoleAdmin(bytes32)":"248a9ca3","grantRole(bytes32,address)":"2f2ff15d","hasRole(bytes32,address)":"91d14854","initialize(address,uint256,uint256,uint256)":"4ec81af1","massUpdatePools()":"630b5ba1","pauseClaim()":"8ff095f9","pauseWithdraw()":"6155e3de","paused()":"5c975abb","pendingRCCByBlockNumber(uint256,address,uint256)":"41721ab7","pool(uint256)":"fe313112","proxiableUUID()":"52d1902d","rccPerBlock()":"70ff0173","renounceRole(bytes32,address)":"36568abe","revokeRole(bytes32,address)":"d547741f","setEndBlock(uint256)":"c713aa94","setPoolWeight(uint256,uint256,bool)":"fad07ece","setRCC(address)":"f5485d32","setRCCPerBlock(uint256)":"bed66c08","setStartBlock(uint256)":"f35e4a6e","stakingBalance(uint256,address)":"11548234","startBlock()":"48cd4cb1","supportsInterface(bytes4)":"01ffc9a7","totalPoolWeight()":"02559004","unpPauseWithdraw()":"c397920e","unpauseClaim()":"de065caa","unstake(uint256,uint256)":"9e2c8a5b","updatePool(uint256)":"51eb05a6","updatePool(uint256,uint256,uint256)":"d86c0444","upgradeToAndCall(address,bytes)":"4f1ef286","user(uint256,address)":"37849b3c","withdraw(uint256)":"2e1a7d4d","withdrawAmount(uint256,address)":"ff423357","withdrawPaused()":"2f3ffb9f"}},"storageLayout":{"storage":[{"astId":6678,"contract":"contracts/RCCStake.sol:RCCStake","label":"startBlock","offset":0,"slot":"0","type":"t_uint256"},{"astId":6680,"contract":"contracts/RCCStake.sol:RCCStake","label":"endBlock","offset":0,"slot":"1","type":"t_uint256"},{"astId":6682,"contract":"contracts/RCCStake.sol:RCCStake","label":"rccPerBlock","offset":0,"slot":"2","type":"t_uint256"},{"astId":6684,"contract":"contracts/RCCStake.sol:RCCStake","label":"withdrawPaused","offset":0,"slot":"3","type":"t_bool"},{"astId":6686,"contract":"contracts/RCCStake.sol:RCCStake","label":"claimPaused","offset":1,"slot":"3","type":"t_bool"},{"astId":6689,"contract":"contracts/RCCStake.sol:RCCStake","label":"RCC","offset":2,"slot":"3","type":"t_contract(IERC20)2298"},{"astId":6691,"contract":"contracts/RCCStake.sol:RCCStake","label":"totalPoolWeight","offset":0,"slot":"4","type":"t_uint256"},{"astId":6695,"contract":"contracts/RCCStake.sol:RCCStake","label":"pool","offset":0,"slot":"5","type":"t_array(t_struct(Pool)6660_storage)dyn_storage"},{"astId":6702,"contract":"contracts/RCCStake.sol:RCCStake","label":"user","offset":0,"slot":"6","type":"t_mapping(t_uint256,t_mapping(t_address,t_struct(User)6676_storage))"}],"types":{"t_address":{"encoding":"inplace","label":"address","numberOfBytes":"20"},"t_array(t_struct(Pool)6660_storage)dyn_storage":{"base":"t_struct(Pool)6660_storage","encoding":"dynamic_array","label":"struct RCCStake.Pool[]","numberOfBytes":"32"},"t_array(t_struct(UnStakeRequest)6665_storage)dyn_storage":{"base":"t_struct(UnStakeRequest)6665_storage","encoding":"dynamic_array","label":"struct RCCStake.UnStakeRequest[]","numberOfBytes":"32"},"t_bool":{"encoding":"inplace","label":"bool","numberOfBytes":"1"},"t_contract(IERC20)2298":{"encoding":"inplace","label":"contract IERC20","numberOfBytes":"20"},"t_mapping(t_address,t_struct(User)6676_storage)":{"encoding":"mapping","key":"t_address","label":"mapping(address => struct RCCStake.User)","numberOfBytes":"32","value":"t_struct(User)6676_storage"},"t_mapping(t_uint256,t_mapping(t_address,t_struct(User)6676_storage))":{"encoding":"mapping","key":"t_uint256","label":"mapping(uint256 => mapping(address => struct RCCStake.User))","numberOfBytes":"32","value":"t_mapping(t_address,t_struct(User)6676_storage)"},"t_struct(Pool)6660_storage":{"encoding":"inplace","label":"struct RCCStake.Pool","members":[{"astId":6647,"contract":"contracts/RCCStake.sol:RCCStake","label":"stakeTokenAddress","offset":0,"slot":"0","type":"t_address"},{"astId":6649,"contract":"contracts/RCCStake.sol:RCCStake","label":"poolWeight","offset":0,"slot":"1","type":"t_uint256"},{"astId":6651,"contract":"contracts/RCCStake.sol:RCCStake","label":"lastRewardBlock","offset":0,"slot":"2","type":"t_uint256"},{"astId":6653,"contract":"contracts/RCCStake.sol:RCCStake","label":"accumulateRewardsPerStake","offset":0,"slot":"3","type":"t_uint256"},{"astId":6655,"contract":"contracts/RCCStake.sol:RCCStake","label":"stakeTokenAmount","offset":0,"slot":"4","type":"t_uint256"},{"astId":6657,"contract":"contracts/RCCStake.sol:RCCStake","label":"minDepositAmount","offset":0,"slot":"5","type":"t_uint256"},{"astId":6659,"contract":"contracts/RCCStake.sol:RCCStake","label":"unStakeLockedBlocks","offset":0,"slot":"6","type":"t_uint256"}],"numberOfBytes":"224"},"t_struct(UnStakeRequest)6665_storage":{"encoding":"inplace","label":"struct RCCStake.UnStakeRequest","members":[{"astId":6662,"contract":"contracts/RCCStake.sol:RCCStake","label":"amount","offset":0,"slot":"0","type":"t_uint256"},{"astId":6664,"contract":"contracts/RCCStake.sol:RCCStake","label":"unlockBlocksCounts","offset":0,"slot":"1","type":"t_uint256"}],"numberOfBytes":"64"},"t_struct(User)6676_storage":{"encoding":"inplace","label":"struct RCCStake.User","members":[{"astId":6667,"contract":"contracts/RCCStake.sol:RCCStake","label":"stakeAmount","offset":0,"slot":"0","type":"t_uint256"},{"astId":6669,"contract":"contracts/RCCStake.sol:RCCStake","label":"finishedRewards","offset":0,"slot":"1","type":"t_uint256"},{"astId":6671,"contract":"contracts/RCCStake.sol:RCCStake","label":"pendingRewards","offset":0,"slot":"2","type":"t_uint256"},{"astId":6675,"contract":"contracts/RCCStake.sol:RCCStake","label":"requests","offset":0,"slot":"3","type":"t_array(t_struct(UnStakeRequest)6665_storage)dyn_storage"}],"numberOfBytes":"128"},"t_uint256":{"encoding":"inplace","label":"uint256","numberOfBytes":"32"}}}}}}