{"abi":[{"type":"function","name":"ADMIN_ROLE","inputs":[],"outputs":[{"name":"","type":"bytes32","internalType":"bytes32"}],"stateMutability":"view"},{"type":"function","name":"DEFAULT_ADMIN_ROLE","inputs":[],"outputs":[{"name":"","type":"bytes32","internalType":"bytes32"}],"stateMutability":"view"},{"type":"function","name":"ETH_PID","inputs":[],"outputs":[{"name":"","type":"uint256","internalType":"uint256"}],"stateMutability":"view"},{"type":"function","name":"RCC","inputs":[],"outputs":[{"name":"","type":"address","internalType":"contract IERC20"}],"stateMutability":"view"},{"type":"function","name":"UPGRADE_INTERFACE_VERSION","inputs":[],"outputs":[{"name":"","type":"string","internalType":"string"}],"stateMutability":"view"},{"type":"function","name":"UPGRADE_ROLE","inputs":[],"outputs":[{"name":"","type":"bytes32","internalType":"bytes32"}],"stateMutability":"view"},{"type":"function","name":"addPool","inputs":[{"name":"_stTokenAddress","type":"address","internalType":"address"},{"name":"_poolWeight","type":"uint256","internalType":"uint256"},{"name":"_minDepositAmount","type":"uint256","internalType":"uint256"},{"name":"_unstakeLockedBlocks","type":"uint256","internalType":"uint256"},{"name":"_withUpdate","type":"bool","internalType":"bool"}],"outputs":[],"stateMutability":"nonpayable"},{"type":"function","name":"claim","inputs":[{"name":"_pid","type":"uint256","internalType":"uint256"}],"outputs":[],"stateMutability":"nonpayable"},{"type":"function","name":"claimPaused","inputs":[],"outputs":[{"name":"","type":"bool","internalType":"bool"}],"stateMutability":"view"},{"type":"function","name":"deposit","inputs":[{"name":"_pid","type":"uint256","internalType":"uint256"},{"name":"_amount","type":"uint256","internalType":"uint256"}],"outputs":[],"stateMutability":"nonpayable"},{"type":"function","name":"depositETH","inputs":[],"outputs":[],"stateMutability":"payable"},{"type":"function","name":"endBlock","inputs":[],"outputs":[{"name":"","type":"uint256","internalType":"uint256"}],"stateMutability":"view"},{"type":"function","name":"getMultiplier","inputs":[{"name":"_from","type":"uint256","internalType":"uint256"},{"name":"_to","type":"uint256","internalType":"uint256"}],"outputs":[{"name":"multiplier","type":"uint256","internalType":"uint256"}],"stateMutability":"view"},{"type":"function","name":"getRoleAdmin","inputs":[{"name":"role","type":"bytes32","internalType":"bytes32"}],"outputs":[{"name":"","type":"bytes32","internalType":"bytes32"}],"stateMutability":"view"},{"type":"function","name":"grantRole","inputs":[{"name":"role","type":"bytes32","internalType":"bytes32"},{"name":"account","type":"address","internalType":"address"}],"outputs":[],"stateMutability":"nonpayable"},{"type":"function","name":"hasRole","inputs":[{"name":"role","type":"bytes32","internalType":"bytes32"},{"name":"account","type":"address","internalType":"address"}],"outputs":[{"name":"","type":"bool","internalType":"bool"}],"stateMutability":"view"},{"type":"function","name":"initialize","inputs":[{"name":"_RCC","type":"address","internalType":"contract IERC20"},{"name":"_startBlock","type":"uint256","internalType":"uint256"},{"name":"_endBlock","type":"uint256","internalType":"uint256"},{"name":"_rccPerBlock","type":"uint256","internalType":"uint256"}],"outputs":[],"stateMutability":"nonpayable"},{"type":"function","name":"massUpdatePools","inputs":[],"outputs":[],"stateMutability":"nonpayable"},{"type":"function","name":"pauseClaim","inputs":[],"outputs":[],"stateMutability":"nonpayable"},{"type":"function","name":"pauseWithdraw","inputs":[],"outputs":[],"stateMutability":"nonpayable"},{"type":"function","name":"paused","inputs":[],"outputs":[{"name":"","type":"bool","internalType":"bool"}],"stateMutability":"view"},{"type":"function","name":"pendingRCC","inputs":[{"name":"_pid","type":"uint256","internalType":"uint256"},{"name":"_user","type":"address","internalType":"address"}],"outputs":[{"name":"","type":"uint256","internalType":"uint256"}],"stateMutability":"view"},{"type":"function","name":"pendingRCCByBlockNumber","inputs":[{"name":"_pid","type":"uint256","internalType":"uint256"},{"name":"_user","type":"address","internalType":"address"},{"name":"_blockNumber","type":"uint256","internalType":"uint256"}],"outputs":[{"name":"","type":"uint256","internalType":"uint256"}],"stateMutability":"view"},{"type":"function","name":"pool","inputs":[{"name":"","type":"uint256","internalType":"uint256"}],"outputs":[{"name":"stTokenAddress","type":"address","internalType":"address"},{"name":"poolWeight","type":"uint256","internalType":"uint256"},{"name":"lastRewardBlock","type":"uint256","internalType":"uint256"},{"name":"accRCCPerST","type":"uint256","internalType":"uint256"},{"name":"stTokenAmount","type":"uint256","internalType":"uint256"},{"name":"minDepositAmount","type":"uint256","internalType":"uint256"},{"name":"unstakeLockedBlocks","type":"uint256","internalType":"uint256"}],"stateMutability":"view"},{"type":"function","name":"poolLength","inputs":[],"outputs":[{"name":"","type":"uint256","internalType":"uint256"}],"stateMutability":"view"},{"type":"function","name":"proxiableUUID","inputs":[],"outputs":[{"name":"","type":"bytes32","internalType":"bytes32"}],"stateMutability":"view"},{"type":"function","name":"rccPerBlock","inputs":[],"outputs":[{"name":"","type":"uint256","internalType":"uint256"}],"stateMutability":"view"},{"type":"function","name":"renounceRole","inputs":[{"name":"role","type":"bytes32","internalType":"bytes32"},{"name":"callerConfirmation","type":"address","internalType":"address"}],"outputs":[],"stateMutability":"nonpayable"},{"type":"function","name":"revokeRole","inputs":[{"name":"role","type":"bytes32","internalType":"bytes32"},{"name":"account","type":"address","internalType":"address"}],"outputs":[],"stateMutability":"nonpayable"},{"type":"function","name":"setEndBlock","inputs":[{"name":"_endBlock","type":"uint256","internalType":"uint256"}],"outputs":[],"stateMutability":"nonpayable"},{"type":"function","name":"setPoolWeight","inputs":[{"name":"_pid","type":"uint256","internalType":"uint256"},{"name":"_poolWeight","type":"uint256","internalType":"uint256"},{"name":"_withUpdate","type":"bool","internalType":"bool"}],"outputs":[],"stateMutability":"nonpayable"},{"type":"function","name":"setRCC","inputs":[{"name":"_RCC","type":"address","internalType":"contract IERC20"}],"outputs":[],"stateMutability":"nonpayable"},{"type":"function","name":"setRCCPerBlock","inputs":[{"name":"_rccPerBlock","type":"uint256","internalType":"uint256"}],"outputs":[],"stateMutability":"nonpayable"},{"type":"function","name":"setStartBlock","inputs":[{"name":"_startBlock","type":"uint256","internalType":"uint256"}],"outputs":[],"stateMutability":"nonpayable"},{"type":"function","name":"stakingBalance","inputs":[{"name":"_pid","type":"uint256","internalType":"uint256"},{"name":"_user","type":"address","internalType":"address"}],"outputs":[{"name":"","type":"uint256","internalType":"uint256"}],"stateMutability":"view"},{"type":"function","name":"startBlock","inputs":[],"outputs":[{"name":"","type":"uint256","internalType":"uint256"}],"stateMutability":"view"},{"type":"function","name":"supportsInterface","inputs":[{"name":"interfaceId","type":"bytes4","internalType":"bytes4"}],"outputs":[{"name":"","type":"bool","internalType":"bool"}],"stateMutability":"view"},{"type":"function","name":"totalPoolWeight","inputs":[],"outputs":[{"name":"","type":"uint256","internalType":"uint256"}],"stateMutability":"view"},{"type":"function","name":"unpauseClaim","inputs":[],"outputs":[],"stateMutability":"nonpayable"},{"type":"function","name":"unpauseWithdraw","inputs":[],"outputs":[],"stateMutability":"nonpayable"},{"type":"function","name":"unstake","inputs":[{"name":"_pid","type":"uint256","internalType":"uint256"},{"name":"_amount","type":"uint256","internalType":"uint256"}],"outputs":[],"stateMutability":"nonpayable"},{"type":"function","name":"updatePool","inputs":[{"name":"_pid","type":"uint256","internalType":"uint256"}],"outputs":[],"stateMutability":"nonpayable"},{"type":"function","name":"updatePool","inputs":[{"name":"_pid","type":"uint256","internalType":"uint256"},{"name":"_minDepositAmount","type":"uint256","internalType":"uint256"},{"name":"_unstakeLockedBlocks","type":"uint256","internalType":"uint256"}],"outputs":[],"stateMutability":"nonpayable"},{"type":"function","name":"upgradeToAndCall","inputs":[{"name":"newImplementation","type":"address","internalType":"address"},{"name":"data","type":"bytes","internalType":"bytes"}],"outputs":[],"stateMutability":"payable"},{"type":"function","name":"user","inputs":[{"name":"","type":"uint256","internalType":"uint256"},{"name":"","type":"address","internalType":"address"}],"outputs":[{"name":"stAmount","type":"uint256","internalType":"uint256"},{"name":"finishedRCC","type":"uint256","internalType":"uint256"},{"name":"pendingRCC","type":"uint256","internalType":"uint256"}],"stateMutability":"view"},{"type":"function","name":"withdraw","inputs":[{"name":"_pid","type":"uint256","internalType":"uint256"}],"outputs":[],"stateMutability":"nonpayable"},{"type":"function","name":"withdrawAmount","inputs":[{"name":"_pid","type":"uint256","internalType":"uint256"},{"name":"_user","type":"address","internalType":"address"}],"outputs":[{"name":"requestAmount","type":"uint256","internalType":"uint256"},{"name":"pendingWithdrawAmount","type":"uint256","internalType":"uint256"}],"stateMutability":"view"},{"type":"function","name":"withdrawPaused","inputs":[],"outputs":[{"name":"","type":"bool","internalType":"bool"}],"stateMutability":"view"},{"type":"event","name":"AddPool","inputs":[{"name":"stTokenAddress","type":"address","indexed":true,"internalType":"address"},{"name":"poolWeight","type":"uint256","indexed":true,"internalType":"uint256"},{"name":"lastRewardBlock","type":"uint256","indexed":true,"internalType":"uint256"},{"name":"minDepositAmount","type":"uint256","indexed":false,"internalType":"uint256"},{"name":"unstakeLockedBlocks","type":"uint256","indexed":false,"internalType":"uint256"}],"anonymous":false},{"type":"event","name":"Claim","inputs":[{"name":"user","type":"address","indexed":true,"internalType":"address"},{"name":"poolId","type":"uint256","indexed":true,"internalType":"uint256"},{"name":"rccReward","type":"uint256","indexed":false,"internalType":"uint256"}],"anonymous":false},{"type":"event","name":"Deposit","inputs":[{"name":"user","type":"address","indexed":true,"internalType":"address"},{"name":"poolId","type":"uint256","indexed":true,"internalType":"uint256"},{"name":"amount","type":"uint256","indexed":false,"internalType":"uint256"}],"anonymous":false},{"type":"event","name":"Initialized","inputs":[{"name":"version","type":"uint64","indexed":false,"internalType":"uint64"}],"anonymous":false},{"type":"event","name":"PauseClaim","inputs":[],"anonymous":false},{"type":"event","name":"PauseWithdraw","inputs":[],"anonymous":false},{"type":"event","name":"Paused","inputs":[{"name":"account","type":"address","indexed":false,"internalType":"address"}],"anonymous":false},{"type":"event","name":"RequestUnstake","inputs":[{"name":"user","type":"address","indexed":true,"internalType":"address"},{"name":"poolId","type":"uint256","indexed":true,"internalType":"uint256"},{"name":"amount","type":"uint256","indexed":false,"internalType":"uint256"}],"anonymous":false},{"type":"event","name":"RoleAdminChanged","inputs":[{"name":"role","type":"bytes32","indexed":true,"internalType":"bytes32"},{"name":"previousAdminRole","type":"bytes32","indexed":true,"internalType":"bytes32"},{"name":"newAdminRole","type":"bytes32","indexed":true,"internalType":"bytes32"}],"anonymous":false},{"type":"event","name":"RoleGranted","inputs":[{"name":"role","type":"bytes32","indexed":true,"internalType":"bytes32"},{"name":"account","type":"address","indexed":true,"internalType":"address"},{"name":"sender","type":"address","indexed":true,"internalType":"address"}],"anonymous":false},{"type":"event","name":"RoleRevoked","inputs":[{"name":"role","type":"bytes32","indexed":true,"internalType":"bytes32"},{"name":"account","type":"address","indexed":true,"internalType":"address"},{"name":"sender","type":"address","indexed":true,"internalType":"address"}],"anonymous":false},{"type":"event","name":"SetEndBlock","inputs":[{"name":"endBlock","type":"uint256","indexed":true,"internalType":"uint256"}],"anonymous":false},{"type":"event","name":"SetPoolWeight","inputs":[{"name":"poolId","type":"uint256","indexed":true,"internalType":"uint256"},{"name":"poolWeight","type":"uint256","indexed":true,"internalType":"uint256"},{"name":"totalPoolWeight","type":"uint256","indexed":false,"internalType":"uint256"}],"anonymous":false},{"type":"event","name":"SetRCC","inputs":[{"name":"RCC","type":"address","indexed":true,"internalType":"contract IERC20"}],"anonymous":false},{"type":"event","name":"SetRCCPerBlock","inputs":[{"name":"rccPerBlock","type":"uint256","indexed":true,"internalType":"uint256"}],"anonymous":false},{"type":"event","name":"SetStartBlock","inputs":[{"name":"startBlock","type":"uint256","indexed":true,"internalType":"uint256"}],"anonymous":false},{"type":"event","name":"UnpauseClaim","inputs":[],"anonymous":false},{"type":"event","name":"UnpauseWithdraw","inputs":[],"anonymous":false},{"type":"event","name":"Unpaused","inputs":[{"name":"account","type":"address","indexed":false,"internalType":"address"}],"anonymous":false},{"type":"event","name":"UpdatePool","inputs":[{"name":"poolId","type":"uint256","indexed":true,"internalType":"uint256"},{"name":"lastRewardBlock","type":"uint256","indexed":true,"internalType":"uint256"},{"name":"totalRCC","type":"uint256","indexed":false,"internalType":"uint256"}],"anonymous":false},{"type":"event","name":"UpdatePoolInfo","inputs":[{"name":"poolId","type":"uint256","indexed":true,"internalType":"uint256"},{"name":"minDepositAmount","type":"uint256","indexed":true,"internalType":"uint256"},{"name":"unstakeLockedBlocks","type":"uint256","indexed":true,"internalType":"uint256"}],"anonymous":false},{"type":"event","name":"Upgraded","inputs":[{"name":"implementation","type":"address","indexed":true,"internalType":"address"}],"anonymous":false},{"type":"event","name":"Withdraw","inputs":[{"name":"user","type":"address","indexed":true,"internalType":"address"},{"name":"poolId","type":"uint256","indexed":true,"internalType":"uint256"},{"name":"amount","type":"uint256","indexed":false,"internalType":"uint256"},{"name":"blockNumber","type":"uint256","indexed":true,"internalType":"uint256"}],"anonymous":false},{"type":"error","name":"AccessControlBadConfirmation","inputs":[]},{"type":"error","name":"AccessControlUnauthorizedAccount","inputs":[{"name":"account","type":"address","internalType":"address"},{"name":"neededRole","type":"bytes32","internalType":"bytes32"}]},{"type":"error","name":"AddressEmptyCode","inputs":[{"name":"target","type":"address","internalType":"address"}]},{"type":"error","name":"ERC1967InvalidImplementation","inputs":[{"name":"implementation","type":"address","internalType":"address"}]},{"type":"error","name":"ERC1967NonPayable","inputs":[]},{"type":"error","name":"EnforcedPause","inputs":[]},{"type":"error","name":"ExpectedPause","inputs":[]},{"type":"error","name":"FailedCall","inputs":[]},{"type":"error","name":"InvalidInitialization","inputs":[]},{"type":"error","name":"NotInitializing","inputs":[]},{"type":"error","name":"SafeERC20FailedOperation","inputs":[{"name":"token","type":"address","internalType":"address"}]},{"type":"error","name":"UUPSUnauthorizedCallContext","inputs":[]},{"type":"error","name":"UUPSUnsupportedProxiableUUID","inputs":[{"name":"slot","type":"bytes32","internalType":"bytes32"}]}],"bytecode":{"object":"0x60a0806040523460295730608052612e95908161002e823960805181818161147b01526115740152f35b5f80fdfe6080806040526004361015610012575f80fd5b5f3560e01c90816301ffc9a714612171575080630255900414612154578063081e3eda14612137578063083c63231461211a57806311548234146120c8578063248a9ca3146120915780632e1a7d4d14611dc15780632f2ff15d14611d775780632f3ffb9f14611d5557806336568abe14611d1157806337849b3c14611cb6578063379607f514611a085780633b82783e146119d357806341721ab7146119a957806348cd4cb11461198d5780634ec81af1146117675780634f1ef286146114f857806351eb05a6146114cf57806352d1902d146114695780635bb6d007146113c85780635c975abb146113875780636155e3de146112f0578063630b5ba1146112d857806370ff0173146112bb57806375b238fc146112815780638dbb1e3a146112605780638ff095f9146111c357806391d148541461116e5780639e2c8a5b14610f80578063a217fddf14610bb1578063a72d5bf414610f54578063ab5e124a14610f2f578063ad3cb1cc14610ed1578063b6d9d91914610c8a578063b908afa814610c50578063bed66c0814610bcb578063bfc3ebba14610bb1578063c713aa9414610b5e578063d547741f14610b0d578063d86c044414610a9a578063de065caa14610a00578063e2bbb158146107f2578063f35e4a6e1461079f578063f5485d3214610728578063f6326fb31461045d578063fad07ece1461036e578063fe313112146102f25763ff4233571461022c575f80fd5b346102ee5760403660031901126102ee576004356102486121c4565b6102556005548310612260565b5f905f925f52600660205260405f209060018060a01b03165f5260205260405f209160035f93019283545b808210610297576040848482519182526020820152f35b90926102a384866122db565b5060014391015411156102d1575b6102c96001916102c186886122db565b5054906122f4565b930190610280565b916102c96102e56001926102c187896122db565b939150506102b1565b5f80fd5b346102ee5760203660031901126102ee576004356005548110156102ee5761031b60e091612244565b5060018060a01b0381541690600181015490600281015460038201546004830154916006600585015494015494604051968752602087015260408601526060850152608084015260a083015260c0820152f35b346102ee5760603660031901126102ee5760243560043560443580151581036102ee57610399612818565b6103a66005548310612260565b821561042257610415575b6103d4826103cf60045460016103c686612244565b50015490612301565b6122f4565b6004558160016103e383612244565b5001557f4b8fa3d6a87cb21d1bf4978bf60628ae358a28ac7f39de1751a481c6dd9576176020600454604051908152a3005b61041d612554565b6103b1565b60405162461bcd60e51b81526020600482015260136024820152721a5b9d985b1a59081c1bdbdb081dd95a59da1d606a1b6044820152606490fd5b5f3660031901126102ee57610470612797565b600554156107145760055f8190527f036b6384b5eca791c62761152d0c79bb0604c104a5fb6f4eb0703f3154bb3db080546104c49291906104ba906001600160a01b0316156126a0565b015434101561274b565b6104cd5f612244565b50335f9081527f54cdd369e4e8a8515e52ca72ec816c2101831ad1f18bf44102ed171459c9b4f86020526040902060055490919061050c901515612260565b6105155f612484565b815480610632575b346105db575b5060048101610533348254612c7a565b91901561059657670de0b6b3a7640000926105619261055a92556003855491015490612c3f565b9190612c8b565b0490600101555f6040513481527f90890809c654f11d6e72a28fa60149770a0d11ec6c92319d6ceb2bb0a4ea1a1560203392a3005b60405162461bcd60e51b815260206004820152601b60248201527f706f6f6c207374546f6b656e416d6f756e74206f766572666c6f7700000000006044820152606490fd5b6105e6903490612c7a565b90156105f457825582610523565b60405162461bcd60e51b815260206004820152601660248201527575736572207374416d6f756e74206f766572666c6f7760501b6044820152606490fd5b670de0b6b3a764000061064c61055a600385015484612c3f565b04600184015461065b91612d69565b90156106cf578061066d575b5061051d565b61067c60028501918254612c7a565b91901561068a575583610667565b60405162461bcd60e51b815260206004820152601860248201527f757365722070656e64696e67524343206f766572666c6f7700000000000000006044820152606490fd5b60405162461bcd60e51b815260206004820152601e60248201527f6163635354207375622066696e6973686564524343206f766572666c6f7700006044820152606490fd5b634e487b7160e01b5f52603260045260245ffd5b346102ee5760203660031901126102ee576107416121da565b610749612818565b6003805462010000600160b01b031916601092831b62010000600160b01b03161790819055901c6001600160a01b03167f153aae53b92218044bd5f43922617c6b253e50ac98a41b44c3acb5625ded34885f80a2005b346102ee5760203660031901126102ee576004356107bb612818565b6107c96001548211156126ec565b805f557f63b90b79f11a0f132bcb2c4a4ddd44abda45c1308a83b2919318df7f5f8b7be45f80a2005b346102ee576108003661222e565b610808612797565b6108156005548310612260565b81156109bb5761082482612244565b506108346005820154831161274b565b8115159081610971575b5061084883612244565b50835f52600660205260405f2060018060a01b0333165f5260205260405f20916108756005548610612260565b61087e85612484565b8383549182610911575b6108f9575b50506004810161089e848254612c7a565b91901561059657670de0b6b3a7640000926108c59261055a92556003855491015490612c3f565b0490600101556040519081527f90890809c654f11d6e72a28fa60149770a0d11ec6c92319d6ceb2bb0a4ea1a1560203392a3005b61090291612c7a565b90156105f4578255848361088d565b9050670de0b6b3a764000061092d61055a600386015485612c3f565b04600185015461093c91612d69565b9190156106cf57818692610951575b50610888565b915061096260028601928354612c7a565b901561068a578692558761094b565b546040516323b872dd60e01b6020820152336024820152306044820152606480820185905281526109b5916001600160a01b03166109b06084836121f0565b612ce6565b8361083e565b60405162461bcd60e51b815260206004820152601f60248201527f6465706f736974206e6f7420737570706f727420455448207374616b696e67006044820152606490fd5b346102ee575f3660031901126102ee57610a18612818565b60035460ff8160081c1615610a555761ff0019166003557fe72cb12952f056e3e7496019725f20a13108ca420f67f1ee9c9cdab73fb8ce855f80a1005b60405162461bcd60e51b815260206004820152601f60248201527f636c61696d20686173206265656e20616c726561647920756e706175736564006044820152606490fd5b346102ee5760603660031901126102ee57604435602435600435610abc612818565b610ac96005548210612260565b816005610ad583612244565b500155826006610ae483612244565b5001557f30dffdedaa3e3b4849298233f7cd71d229956e875ab09270498c96b7cf9181fd5f80a4005b346102ee5760403660031901126102ee57610b5c600435610b2c6121c4565b90610b57610b52825f525f516020612e205f395f51905f52602052600160405f20015490565b612887565b612b6c565b005b346102ee5760203660031901126102ee57600435610b7a612818565b610b87815f5411156126ec565b806001557f1132c5baccb51da3d049fabc819697dc845fa224ad59d9b555507d6446b408505f80a2005b346102ee575f3660031901126102ee5760206040515f8152f35b346102ee5760203660031901126102ee57600435610be7612818565b8015610c1757806002557f4c70925b625536dd633f6bd2d615c67fddc2e7c63c31164047a981a0df3fee545f80a2005b60405162461bcd60e51b815260206004820152601160248201527034b73b30b634b2103830b930b6b2ba32b960791b6044820152606490fd5b346102ee575f3660031901126102ee5760206040517fcab03bc4dbcc648cd59d6bbe9f848d1e9092f914016aa290ee92e18700d1e6f98152f35b346102ee5760a03660031901126102ee57610ca36121da565b6024356044356064359260843580151581036102ee57610cc1612818565b60055415610eb957610cdd6001600160a01b03831615156126a0565b8415610e7457600154431015610e3f57610e32575b5f548043115f14610e2c575043935b610d0d846004546122f4565b6004556040519160e0830183811067ffffffffffffffff821117610e185760405260018060a01b0316928383526020830191858352604084019387855260608101905f8252608081015f815260a0820185815260c0830191858352600554600160401b811015610e1857806001610d879201600555612244565b959095610e05577f0fa296fce13e7a0e622b3a892e66220c248337289483a3cfa4130cde0caa13469960409960069660018060a01b039051166bffffffffffffffffffffffff60a01b8954161788555160018801555160028701555160038601555160048501555160058401555191015582519182526020820152a4005b634e487b7160e01b5f525f60045260245ffd5b634e487b7160e01b5f52604160045260245ffd5b93610d01565b610e3a612554565b610cf2565b60405162461bcd60e51b815260206004820152600d60248201526c105b1c9958591e48195b991959609a1b6044820152606490fd5b60405162461bcd60e51b815260206004820152601e60248201527f696e76616c6964207769746864726177206c6f636b656420626c6f636b7300006044820152606490fd5b610ecc6001600160a01b038316156126a0565b610cdd565b346102ee575f3660031901126102ee576040805190610ef081836121f0565b600582526020820191640352e302e360dc1b83528151928391602083525180918160208501528484015e5f828201840152601f01601f19168101030190f35b346102ee575f3660031901126102ee57602060ff60035460081c166040519015158152f35b346102ee575f3660031901126102ee5760035460405160109190911c6001600160a01b03168152602090f35b346102ee57610f8e3661222e565b610f96612797565b6005548210610fa481612260565b610fb360ff600354161561229a565b610fbc83612244565b50835f52600660205260405f2060018060a01b0333165f5260205260405f20918383541061112a57610fed90612260565b610ff684612484565b815491600382019184670de0b6b3a764000061101385548761230e565b04946110256001850196875490612301565b80611113575b508161108d575b50509161105c916004670de0b6b3a76400009401611051878254612301565b90555490549061230e565b0490556040519081527fc80277265097707f6f12a4ac4c09d46c9926e2eea2536f63616cb04d9fcad7d660203392a3005b9061109a91949294612301565b825560038201916110af6006850154436122f4565b604051936040850185811067ffffffffffffffff821117610e1857604052878552602085019182528054600160401b811015610e18576110f4916001820181556122db565b959095610e055793518555516001909401939093559190846004611032565b611122600286019182546122f4565b90558861102b565b606460405162461bcd60e51b815260206004820152602060248201527f4e6f7420656e6f756768207374616b696e6720746f6b656e2062616c616e63656044820152fd5b346102ee5760403660031901126102ee576111876121c4565b6004355f525f516020612e205f395f51905f5260205260405f209060018060a01b03165f52602052602060ff60405f2054166040519015158152f35b346102ee575f3660031901126102ee576111db612818565b60035460ff8160081c1661121b5761ff001916610100176003557f6d73d6b34c378ab3bf6630206d60b7882801b91d03ee20d016ff0d5054db81e15f80a1005b60405162461bcd60e51b815260206004820152601d60248201527f636c61696d20686173206265656e20616c7265616479207061757365640000006044820152606490fd5b346102ee5760206112796112733661222e565b90612583565b604051908152f35b346102ee575f3660031901126102ee5760206040517f589d473ba17c0f47d494622893831497bad25919b9afb8e33e9521b8963fccde8152f35b346102ee575f3660031901126102ee576020600254604051908152f35b346102ee575f3660031901126102ee57610b5c612554565b346102ee575f3660031901126102ee57611308612818565b60035460ff81166113435760ff19166001176003557f8099f593a6aaecd68b6494933cd71f703376ac3975be83692e1b7d800abf68375f80a1005b606460405162461bcd60e51b815260206004820152602060248201527f776974686472617720686173206265656e20616c7265616479207061757365646044820152fd5b346102ee575f3660031901126102ee57602060ff7fcd5ed15c6e187e77e9aee88184c21f4f2182ab5827cb3b7e07fbedcd63f0330054166040519015158152f35b346102ee575f3660031901126102ee576113e0612818565b60035460ff8116156114195760ff19166003557f1c84bcaead48b692cc46b9b12e9a068951a59c99a2e2bf10b00b60b403cf12e25f80a1005b60405162461bcd60e51b815260206004820152602260248201527f776974686472617720686173206265656e20616c726561647920756e70617573604482015261195960f21b6064820152608490fd5b346102ee575f3660031901126102ee577f00000000000000000000000000000000000000000000000000000000000000006001600160a01b031630036114c05760206040515f516020612e005f395f51905f528152f35b63703e46dd60e11b5f5260045ffd5b346102ee5760203660031901126102ee57610b5c6004356114f36005548210612260565b612484565b60403660031901126102ee5761150c6121da565b6024359067ffffffffffffffff82116102ee57366023830112156102ee5781600401359061153982612212565b9161154760405193846121f0565b808352602083019336602483830101116102ee57815f926024602093018737840101526001600160a01b037f000000000000000000000000000000000000000000000000000000000000000016308114908115611745575b506114c057335f9081527f51ff8df60edaa40cfc24d457ff5b0e39322fe5108aba96bab2b7d4c8da7530a9602052604090205460ff161561170e576040516352d1902d60e01b81526001600160a01b0382169390602081600481885afa5f91816116da575b5061161c5784634c9c8ce360e01b5f5260045260245ffd5b805f516020612e005f395f51905f528692036116c85750823b156116b6575f516020612e005f395f51905f5280546001600160a01b031916821790557fbc7cd75a20ee27fd9adebab32041f755214dbc6bffa90cc0225b39da2e5c2d3b5f80a282511561169d575f8091610b5c945190845af46116976127d1565b91612d81565b505050346116a757005b63b398979f60e01b5f5260045ffd5b634c9c8ce360e01b5f5260045260245ffd5b632a87526960e21b5f5260045260245ffd5b9091506020813d602011611706575b816116f6602093836121f0565b810103126102ee57519086611604565b3d91506116e9565b63e2517d3f60e01b5f52336004527fcab03bc4dbcc648cd59d6bbe9f848d1e9092f914016aa290ee92e18700d1e6f960245260445ffd5b5f516020612e005f395f51905f52546001600160a01b0316141590508461159f565b346102ee5760803660031901126102ee576117806121da565b60243590604435606435905f516020612e405f395f51905f52549260ff8460401c16159367ffffffffffffffff811680159081611985575b600114908161197b575b159081611972575b506119635767ffffffffffffffff1981166001175f516020612e405f395f51905f525584611937575b50818511158061192e575b156118f45761180b612d3e565b611813612d3e565b61181c336128cd565b5061182633612969565b5061183033612a22565b50611839612818565b6003805462010000600160b01b031916601092831b62010000600160b01b0316179081905560405195911c6001600160a01b03167f153aae53b92218044bd5f43922617c6b253e50ac98a41b44c3acb5625ded34885f80a25f5560015560025561189f57005b60207fc7f505b2f371ae2175ee4913f4499e1f2633a7b5936321eed1cdaeb6115181d29168ff0000000000000000195f516020612e405f395f51905f5254165f516020612e405f395f51905f525560018152a1005b60405162461bcd60e51b8152602060048201526012602482015271696e76616c696420706172616d657465727360701b6044820152606490fd5b508215156117fe565b68ffffffffffffffffff191668010000000000000001175f516020612e405f395f51905f5255856117f3565b63f92ee8a960e01b5f5260045ffd5b905015876117ca565b303b1591506117c2565b8691506117b8565b346102ee575f3660031901126102ee5760205f54604051908152f35b346102ee5760603660031901126102ee5760206112796119c76121c4565b6044359060043561233f565b346102ee5760403660031901126102ee5760206112796004356119f46121c4565b611a016005548310612260565b439161233f565b346102ee5760203660031901126102ee57600435611a24612797565b6005548110611a3281612260565b60ff60035460081c16611c7f57611a4882612244565b505f838152600660209081526040808320338452909152902091611a6b90612260565b611a7483612484565b670de0b6b3a7640000611a8f6003845493019283549061230e565b0490611aa16001840192835490612301565b92611ab260028201948554906122f4565b9384611b02575b50670de0b6b3a764000091611ad1915490549061230e565b0490556040519081527f34fcbac0073d7c3d388e51312faf357774904998eeb8fca628b9e6f65ee1cbf760203392a3005b5f90556003546040516370a0823160e01b8152306004820152929060101c6001600160a01b0316602084602481845afa938415611bd7575f94611c4b575b5083861115611be2575060035460405163a9059cbb60e01b81523360048201526024810194909452602090849060101c6001600160a01b0316815f816044810103925af1918215611bd757670de0b6b3a764000093611ad193611ba8575b505b915091611ab9565b611bc99060203d602011611bd0575b611bc181836121f0565b810190612800565b5087611b9e565b503d611bb7565b6040513d5f823e3d90fd5b60405163a9059cbb60e01b8152336004820152602481018790529350602090849060449082905f905af1918215611bd757670de0b6b3a764000093611ad193611c2c575b50611ba0565b611c449060203d602011611bd057611bc181836121f0565b5087611c26565b9093506020813d602011611c77575b81611c67602093836121f0565b810103126102ee57519287611b40565b3d9150611c5a565b60405162461bcd60e51b815260206004820152600f60248201526e18db185a5b481a5cc81c185d5cd959608a1b6044820152606490fd5b346102ee5760403660031901126102ee57611ccf6121c4565b6004355f52600660205260405f209060018060a01b03165f52602052606060405f20805490600260018201549101549060405192835260208301526040820152f35b346102ee5760403660031901126102ee57611d2a6121c4565b336001600160a01b03821603611d4657610b5c90600435612b6c565b63334bd91960e11b5f5260045ffd5b346102ee575f3660031901126102ee57602060ff600354166040519015158152f35b346102ee5760403660031901126102ee57610b5c600435611d966121c4565b90611dbc610b52825f525f516020612e205f395f51905f52602052600160405f20015490565b612adb565b346102ee5760203660031901126102ee57600435611ddd612797565b611dea6005548210612260565b611df960ff600354161561229a565b611e0281612244565b505f828152600660209081526040808320338452909152812060030180549093829182905b808210612039575b50505f5b611e3e848754612301565b811015611e8d57611e58611e5285836122f4565b876122db565b5090611e6481886122db565b610e0557826001938203611e7b575b505001611e33565b80548255830154908301558780611e73565b508385845f5b818110611ff65750505082611ed4575b5060405191825243917f02f25270a4d87bea75db541cdfe559334a275b4a233520ed6c0a2429667cca9460203392a4005b546001600160a01b031680611fc257505f80808085335af1611ef46127d1565b9015611f7d5780519081611f0c575b50505b82611ea3565b602080611f1d938301019101612800565b15611f29578280611f03565b60405162461bcd60e51b815260206004820152602660248201527f455448207472616e73666572206f7065726174696f6e20646964206e6f7420736044820152651d58d8d9595960d21b6064820152608490fd5b60405162461bcd60e51b815260206004820152601860248201527f455448207472616e736665722063616c6c206661696c656400000000000000006044820152606490fd5b60405163a9059cbb60e01b602082015233602482015260448082018590528152611ff1916109b06064836121f0565b611f06565b82548015612025575f19019061200c82856122db565b929092610e05575f600184828296550155845501611e93565b634e487b7160e01b5f52603160045260245ffd5b90939261204685886122db565b506001439101541161208a57612060906102c186896122db565b925f198114612076576001809101940190611e27565b634e487b7160e01b5f52601160045260245ffd5b9293611e2f565b346102ee5760203660031901126102ee5760206112796004355f525f516020612e205f395f51905f52602052600160405f20015490565b346102ee5760403660031901126102ee576004356120e46121c4565b906120f26005548210612260565b5f52600660205260405f209060018060a01b03165f52602052602060405f2054604051908152f35b346102ee575f3660031901126102ee576020600154604051908152f35b346102ee575f3660031901126102ee576020600554604051908152f35b346102ee575f3660031901126102ee576020600454604051908152f35b346102ee5760203660031901126102ee576004359063ffffffff60e01b82168092036102ee57602091637965db0b60e01b81149081156121b3575b5015158152f35b6301ffc9a760e01b149050836121ac565b602435906001600160a01b03821682036102ee57565b600435906001600160a01b03821682036102ee57565b90601f8019910116810190811067ffffffffffffffff821117610e1857604052565b67ffffffffffffffff8111610e1857601f01601f191660200190565b60409060031901126102ee576004359060243590565b6005548110156107145760055f52600760205f20910201905f90565b1561226757565b60405162461bcd60e51b815260206004820152600b60248201526a1a5b9d985b1a59081c1a5960aa1b6044820152606490fd5b156122a157565b60405162461bcd60e51b81526020600482015260126024820152711dda5d1a191c985dc81a5cc81c185d5cd95960721b6044820152606490fd5b8054821015610714575f5260205f209060011b01905f90565b9190820180921161207657565b9190820391821161207657565b8181029291811591840414171561207657565b811561232b570490565b634e487b7160e01b5f52601260045260245ffd5b919061234e6005548410612260565b61235783612244565b50925f52600660205260405f209060018060a01b03165f5260205260405f2090600383015492600481015491600282015480821180612444575b6123ce575b5050505060026123c2670de0b6b3a76400006123b66123cb95855461230e565b04600184015490612301565b910154906122f4565b90565b9160016123e16123ea936123f395612583565b9101549061230e565b60045490612321565b90670de0b6b3a7640000820291808304670de0b6b3a7640000149015171561207657670de0b6b3a76400006123b661243d6123cb966124376123c295600297612321565b906122f4565b9550612396565b50831515612391565b1561245457565b60405162461bcd60e51b81526020600482015260086024820152676f766572666c6f7760c01b6044820152606490fd5b61248d81612244565b5090600282018054928343111561254e576124d06124c76124c06124b56124d7974390612583565b600185015490612c3f565b919061244d565b60045490612c5d565b949061244d565b600481015480612515575b50504390556040519182527ff5d2d72d9b25d6853afd7d0554a113b705234b6a68bb36b7f14366299463241160204393a3565b61253f6003612546936124d0612536946125316124c08b612c08565b612c5d565b01918254612c7a565b929061244d565b555f806124e2565b50505050565b6005545f5b818110612564575050565b6001906125746005548210612260565b61257d81612484565b01612559565b9080821161266b575f54808310612663575b5060015480821161265b575b50808211612603576125bf916125b691612301565b60025490612c3f565b9190156125c857565b60405162461bcd60e51b81526020600482015260136024820152726d756c7469706c696572206f766572666c6f7760681b6044820152606490fd5b60405162461bcd60e51b815260206004820152602a60248201527f656e6420626c6f636b206d7573742062652067726561746572207468616e20736044820152697461727420626c6f636b60b01b6064820152608490fd5b90505f6125a1565b91505f612595565b60405162461bcd60e51b815260206004820152600d60248201526c696e76616c696420626c6f636b60981b6044820152606490fd5b156126a757565b60405162461bcd60e51b815260206004820152601d60248201527f696e76616c6964207374616b696e6720746f6b656e20616464726573730000006044820152606490fd5b156126f357565b60405162461bcd60e51b815260206004820152602a60248201527f737461727420626c6f636b206d75737420626520736d616c6c6572207468616e60448201526920656e6420626c6f636b60b01b6064820152608490fd5b1561275257565b60405162461bcd60e51b815260206004820152601b60248201527f6465706f73697420616d6f756e7420697320746f6f20736d616c6c00000000006044820152606490fd5b60ff7fcd5ed15c6e187e77e9aee88184c21f4f2182ab5827cb3b7e07fbedcd63f0330054166127c257565b63d93c066560e01b5f5260045ffd5b3d156127fb573d906127e282612212565b916127f060405193846121f0565b82523d5f602084013e565b606090565b908160209103126102ee575180151581036102ee5790565b335f9081527f815c33bd98d444bcaa7dfb99335d415d1e5d00cd15dfa75058f74fb29033f5e9602052604090205460ff161561285057565b63e2517d3f60e01b5f52336004527f589d473ba17c0f47d494622893831497bad25919b9afb8e33e9521b8963fccde60245260445ffd5b5f8181525f516020612e205f395f51905f526020908152604080832033845290915290205460ff16156128b75750565b63e2517d3f60e01b5f523360045260245260445ffd5b6001600160a01b0381165f9081527fb7db2dd08fcb62d0c9e08c51941cae53c267786a0b75803fb7960902fc8ef97d602052604090205460ff16612964576001600160a01b03165f8181527fb7db2dd08fcb62d0c9e08c51941cae53c267786a0b75803fb7960902fc8ef97d60205260408120805460ff191660011790553391905f516020612de05f395f51905f528180a4600190565b505f90565b6001600160a01b0381165f9081527f51ff8df60edaa40cfc24d457ff5b0e39322fe5108aba96bab2b7d4c8da7530a9602052604090205460ff16612964576001600160a01b03165f8181527f51ff8df60edaa40cfc24d457ff5b0e39322fe5108aba96bab2b7d4c8da7530a960205260408120805460ff191660011790553391907fcab03bc4dbcc648cd59d6bbe9f848d1e9092f914016aa290ee92e18700d1e6f9905f516020612de05f395f51905f529080a4600190565b6001600160a01b0381165f9081527f815c33bd98d444bcaa7dfb99335d415d1e5d00cd15dfa75058f74fb29033f5e9602052604090205460ff16612964576001600160a01b03165f8181527f815c33bd98d444bcaa7dfb99335d415d1e5d00cd15dfa75058f74fb29033f5e960205260408120805460ff191660011790553391907f589d473ba17c0f47d494622893831497bad25919b9afb8e33e9521b8963fccde905f516020612de05f395f51905f529080a4600190565b5f8181525f516020612e205f395f51905f52602090815260408083206001600160a01b038616845290915290205460ff16612b66575f8181525f516020612e205f395f51905f52602090815260408083206001600160a01b0395909516808452949091528120805460ff19166001179055339291905f516020612de05f395f51905f529080a4600190565b50505f90565b5f8181525f516020612e205f395f51905f52602090815260408083206001600160a01b038616845290915290205460ff1615612b66575f8181525f516020612e205f395f51905f52602090815260408083206001600160a01b0395909516808452949091528120805460ff19169055339291907ff6391f5c32d9c69d2a47ea670b442974b53935d1edc7fd64eb21e047a839171b9080a4600190565b908115612c3757670de0b6b3a7640000612c258184029384612321565b03612c305760019190565b5f91508190565b600191505f90565b91908215612c5457612c258184029384612321565b50600191505f90565b908015612c7257612c6d91612321565b600191565b50505f905f90565b91908201918210612c305760019190565b15612c9257565b60405162461bcd60e51b815260206004820152602660248201527f75736572207374416d6f756e74206d756c206163635243435065725354206f766044820152656572666c6f7760d01b6064820152608490fd5b905f602091828151910182855af115611bd7575f513d612d3557506001600160a01b0381163b155b612d155750565b635274afe760e01b5f9081526001600160a01b0391909116600452602490fd5b60011415612d0e565b60ff5f516020612e405f395f51905f525460401c1615612d5a57565b631afcd79f60e31b5f5260045ffd5b9190828111612d79576001920390565b505f91508190565b90612da55750805115612d9657805190602001fd5b63d6bda27560e01b5f5260045ffd5b81511580612dd6575b612db6575090565b639996b31560e01b5f9081526001600160a01b0391909116600452602490fd5b50803b15612dae56fe2f8788117e7eff1d82e926ec794901d17c78024a50270940304540a733656f0d360894a13ba1a3210667c828492db98dca3e2076cc3735a920a3ca505d382bbc02dd7bc7dec4dceedda775e58dd541e08a116c6c53815c0bd028192f7b626800f0c57e16840df040f15088dc2f81fe391c3923bec73e23a9662efc9c229c6a00a264697066735822122014ca56859a211b66d8588bdcfce60bc0c0ae020a9ffede244114e9137ac5b54964736f6c634300081c0033","linkReferences":{}},"methodIdentifiers":{"ADMIN_ROLE()":"75b238fc","DEFAULT_ADMIN_ROLE()":"a217fddf","ETH_PID()":"bfc3ebba","RCC()":"a72d5bf4","UPGRADE_INTERFACE_VERSION()":"ad3cb1cc","UPGRADE_ROLE()":"b908afa8","addPool(address,uint256,uint256,uint256,bool)":"b6d9d919","claim(uint256)":"379607f5","claimPaused()":"ab5e124a","deposit(uint256,uint256)":"e2bbb158","depositETH()":"f6326fb3","endBlock()":"083c6323","getMultiplier(uint256,uint256)":"8dbb1e3a","getRoleAdmin(bytes32)":"248a9ca3","grantRole(bytes32,address)":"2f2ff15d","hasRole(bytes32,address)":"91d14854","initialize(address,uint256,uint256,uint256)":"4ec81af1","massUpdatePools()":"630b5ba1","pauseClaim()":"8ff095f9","pauseWithdraw()":"6155e3de","paused()":"5c975abb","pendingRCC(uint256,address)":"3b82783e","pendingRCCByBlockNumber(uint256,address,uint256)":"41721ab7","pool(uint256)":"fe313112","poolLength()":"081e3eda","proxiableUUID()":"52d1902d","rccPerBlock()":"70ff0173","renounceRole(bytes32,address)":"36568abe","revokeRole(bytes32,address)":"d547741f","setEndBlock(uint256)":"c713aa94","setPoolWeight(uint256,uint256,bool)":"fad07ece","setRCC(address)":"f5485d32","setRCCPerBlock(uint256)":"bed66c08","setStartBlock(uint256)":"f35e4a6e","stakingBalance(uint256,address)":"11548234","startBlock()":"48cd4cb1","supportsInterface(bytes4)":"01ffc9a7","totalPoolWeight()":"02559004","unpauseClaim()":"de065caa","unpauseWithdraw()":"5bb6d007","unstake(uint256,uint256)":"9e2c8a5b","updatePool(uint256)":"51eb05a6","updatePool(uint256,uint256,uint256)":"d86c0444","upgradeToAndCall(address,bytes)":"4f1ef286","user(uint256,address)":"37849b3c","withdraw(uint256)":"2e1a7d4d","withdrawAmount(uint256,address)":"ff423357","withdrawPaused()":"2f3ffb9f"},"id":0}