{
  "_format": "hh-sol-artifact-1",
  "contractName": "RCCStake",
  "sourceName": "contracts/RCCStake.sol",
  "abi": [
    {
      "inputs": [],
      "name": "AccessControlBadConfirmation",
      "type": "error"
    },
    {
      "inputs": [
        {
          "internalType": "address",
          "name": "account",
          "type": "address"
        },
        {
          "internalType": "bytes32",
          "name": "neededRole",
          "type": "bytes32"
        }
      ],
      "name": "AccessControlUnauthorizedAccount",
      "type": "error"
    },
    {
      "inputs": [
        {
          "internalType": "address",
          "name": "target",
          "type": "address"
        }
      ],
      "name": "AddressEmptyCode",
      "type": "error"
    },
    {
      "inputs": [
        {
          "internalType": "address",
          "name": "implementation",
          "type": "address"
        }
      ],
      "name": "ERC1967InvalidImplementation",
      "type": "error"
    },
    {
      "inputs": [],
      "name": "ERC1967NonPayable",
      "type": "error"
    },
    {
      "inputs": [],
      "name": "EnforcedPause",
      "type": "error"
    },
    {
      "inputs": [],
      "name": "ExpectedPause",
      "type": "error"
    },
    {
      "inputs": [],
      "name": "FailedCall",
      "type": "error"
    },
    {
      "inputs": [],
      "name": "InvalidInitialization",
      "type": "error"
    },
    {
      "inputs": [],
      "name": "NotInitializing",
      "type": "error"
    },
    {
      "inputs": [
        {
          "internalType": "address",
          "name": "token",
          "type": "address"
        }
      ],
      "name": "SafeERC20FailedOperation",
      "type": "error"
    },
    {
      "inputs": [],
      "name": "UUPSUnauthorizedCallContext",
      "type": "error"
    },
    {
      "inputs": [
        {
          "internalType": "bytes32",
          "name": "slot",
          "type": "bytes32"
        }
      ],
      "name": "UUPSUnsupportedProxiableUUID",
      "type": "error"
    },
    {
      "anonymous": false,
      "inputs": [
        {
          "indexed": true,
          "internalType": "address",
          "name": "stakeTokenAddress",
          "type": "address"
        },
        {
          "indexed": true,
          "internalType": "uint256",
          "name": "poolWeight",
          "type": "uint256"
        },
        {
          "indexed": true,
          "internalType": "uint256",
          "name": "lastRewardBlock",
          "type": "uint256"
        },
        {
          "indexed": false,
          "internalType": "uint256",
          "name": "minDepositAmount",
          "type": "uint256"
        },
        {
          "indexed": false,
          "internalType": "uint256",
          "name": "unStakeLockedBlocks",
          "type": "uint256"
        }
      ],
      "name": "AddPool",
      "type": "event"
    },
    {
      "anonymous": false,
      "inputs": [
        {
          "indexed": true,
          "internalType": "address",
          "name": "user",
          "type": "address"
        },
        {
          "indexed": true,
          "internalType": "uint256",
          "name": "poolId",
          "type": "uint256"
        },
        {
          "indexed": false,
          "internalType": "uint256",
          "name": "RccReward",
          "type": "uint256"
        }
      ],
      "name": "Claim",
      "type": "event"
    },
    {
      "anonymous": false,
      "inputs": [
        {
          "indexed": true,
          "internalType": "address",
          "name": "user",
          "type": "address"
        },
        {
          "indexed": true,
          "internalType": "uint256",
          "name": "poolId",
          "type": "uint256"
        },
        {
          "indexed": false,
          "internalType": "uint256",
          "name": "amount",
          "type": "uint256"
        }
      ],
      "name": "Deposit",
      "type": "event"
    },
    {
      "anonymous": false,
      "inputs": [
        {
          "indexed": true,
          "internalType": "address",
          "name": "user",
          "type": "address"
        },
        {
          "indexed": true,
          "internalType": "address",
          "name": "pid",
          "type": "address"
        },
        {
          "indexed": false,
          "internalType": "uint256",
          "name": "amount",
          "type": "uint256"
        }
      ],
      "name": "GetRewards",
      "type": "event"
    },
    {
      "anonymous": false,
      "inputs": [
        {
          "indexed": false,
          "internalType": "uint64",
          "name": "version",
          "type": "uint64"
        }
      ],
      "name": "Initialized",
      "type": "event"
    },
    {
      "anonymous": false,
      "inputs": [
        {
          "indexed": false,
          "internalType": "address",
          "name": "account",
          "type": "address"
        }
      ],
      "name": "Paused",
      "type": "event"
    },
    {
      "anonymous": false,
      "inputs": [],
      "name": "PausedClaim",
      "type": "event"
    },
    {
      "anonymous": false,
      "inputs": [],
      "name": "PausedWithdraw",
      "type": "event"
    },
    {
      "anonymous": false,
      "inputs": [
        {
          "indexed": true,
          "internalType": "address",
          "name": "user",
          "type": "address"
        },
        {
          "indexed": true,
          "internalType": "uint256",
          "name": "poolId",
          "type": "uint256"
        },
        {
          "indexed": false,
          "internalType": "uint256",
          "name": "amount",
          "type": "uint256"
        }
      ],
      "name": "RequestUnstake",
      "type": "event"
    },
    {
      "anonymous": false,
      "inputs": [
        {
          "indexed": true,
          "internalType": "bytes32",
          "name": "role",
          "type": "bytes32"
        },
        {
          "indexed": true,
          "internalType": "bytes32",
          "name": "previousAdminRole",
          "type": "bytes32"
        },
        {
          "indexed": true,
          "internalType": "bytes32",
          "name": "newAdminRole",
          "type": "bytes32"
        }
      ],
      "name": "RoleAdminChanged",
      "type": "event"
    },
    {
      "anonymous": false,
      "inputs": [
        {
          "indexed": true,
          "internalType": "bytes32",
          "name": "role",
          "type": "bytes32"
        },
        {
          "indexed": true,
          "internalType": "address",
          "name": "account",
          "type": "address"
        },
        {
          "indexed": true,
          "internalType": "address",
          "name": "sender",
          "type": "address"
        }
      ],
      "name": "RoleGranted",
      "type": "event"
    },
    {
      "anonymous": false,
      "inputs": [
        {
          "indexed": true,
          "internalType": "bytes32",
          "name": "role",
          "type": "bytes32"
        },
        {
          "indexed": true,
          "internalType": "address",
          "name": "account",
          "type": "address"
        },
        {
          "indexed": true,
          "internalType": "address",
          "name": "sender",
          "type": "address"
        }
      ],
      "name": "RoleRevoked",
      "type": "event"
    },
    {
      "anonymous": false,
      "inputs": [
        {
          "indexed": true,
          "internalType": "uint256",
          "name": "endBlock",
          "type": "uint256"
        }
      ],
      "name": "SetEndBlock",
      "type": "event"
    },
    {
      "anonymous": false,
      "inputs": [
        {
          "indexed": true,
          "internalType": "uint256",
          "name": "poolId",
          "type": "uint256"
        },
        {
          "indexed": false,
          "internalType": "uint256",
          "name": "poolWeight",
          "type": "uint256"
        },
        {
          "indexed": false,
          "internalType": "uint256",
          "name": "totalPoolWeight",
          "type": "uint256"
        }
      ],
      "name": "SetPoolWeight",
      "type": "event"
    },
    {
      "anonymous": false,
      "inputs": [
        {
          "indexed": true,
          "internalType": "contract IERC20",
          "name": "RCC",
          "type": "address"
        }
      ],
      "name": "SetRCC",
      "type": "event"
    },
    {
      "anonymous": false,
      "inputs": [
        {
          "indexed": true,
          "internalType": "uint256",
          "name": "rccPerBlock",
          "type": "uint256"
        }
      ],
      "name": "SetRCCPerBlock",
      "type": "event"
    },
    {
      "anonymous": false,
      "inputs": [
        {
          "indexed": true,
          "internalType": "uint256",
          "name": "startBlock",
          "type": "uint256"
        }
      ],
      "name": "SetStartBlock",
      "type": "event"
    },
    {
      "anonymous": false,
      "inputs": [
        {
          "indexed": true,
          "internalType": "address",
          "name": "user",
          "type": "address"
        },
        {
          "indexed": true,
          "internalType": "address",
          "name": "pid",
          "type": "address"
        },
        {
          "indexed": false,
          "internalType": "uint256",
          "name": "amount",
          "type": "uint256"
        }
      ],
      "name": "Stake",
      "type": "event"
    },
    {
      "anonymous": false,
      "inputs": [
        {
          "indexed": true,
          "internalType": "address",
          "name": "user",
          "type": "address"
        },
        {
          "indexed": true,
          "internalType": "address",
          "name": "pid",
          "type": "address"
        },
        {
          "indexed": false,
          "internalType": "uint256",
          "name": "amount",
          "type": "uint256"
        }
      ],
      "name": "UnStake",
      "type": "event"
    },
    {
      "anonymous": false,
      "inputs": [
        {
          "indexed": false,
          "internalType": "address",
          "name": "account",
          "type": "address"
        }
      ],
      "name": "Unpaused",
      "type": "event"
    },
    {
      "anonymous": false,
      "inputs": [],
      "name": "UnpausedClaim",
      "type": "event"
    },
    {
      "anonymous": false,
      "inputs": [],
      "name": "UnpausedWithdraw",
      "type": "event"
    },
    {
      "anonymous": false,
      "inputs": [
        {
          "indexed": true,
          "internalType": "uint256",
          "name": "poolId",
          "type": "uint256"
        },
        {
          "indexed": true,
          "internalType": "uint256",
          "name": "lastRewardBlock",
          "type": "uint256"
        },
        {
          "indexed": false,
          "internalType": "uint256",
          "name": "totalRCC",
          "type": "uint256"
        }
      ],
      "name": "UpdatePool",
      "type": "event"
    },
    {
      "anonymous": false,
      "inputs": [
        {
          "indexed": true,
          "internalType": "uint256",
          "name": "poolId",
          "type": "uint256"
        },
        {
          "indexed": true,
          "internalType": "uint256",
          "name": "minDepositAmount",
          "type": "uint256"
        },
        {
          "indexed": true,
          "internalType": "uint256",
          "name": "unStakeLockedBlocks",
          "type": "uint256"
        }
      ],
      "name": "UpdatePoolInfo",
      "type": "event"
    },
    {
      "anonymous": false,
      "inputs": [
        {
          "indexed": true,
          "internalType": "address",
          "name": "implementation",
          "type": "address"
        }
      ],
      "name": "Upgraded",
      "type": "event"
    },
    {
      "anonymous": false,
      "inputs": [
        {
          "indexed": true,
          "internalType": "address",
          "name": "user",
          "type": "address"
        },
        {
          "indexed": true,
          "internalType": "uint256",
          "name": "poolId",
          "type": "uint256"
        },
        {
          "indexed": false,
          "internalType": "uint256",
          "name": "amount",
          "type": "uint256"
        },
        {
          "indexed": true,
          "internalType": "uint256",
          "name": "blockNumber",
          "type": "uint256"
        }
      ],
      "name": "Withdraw",
      "type": "event"
    },
    {
      "stateMutability": "payable",
      "type": "fallback"
    },
    {
      "inputs": [],
      "name": "ADMIN_ROLE",
      "outputs": [
        {
          "internalType": "bytes32",
          "name": "",
          "type": "bytes32"
        }
      ],
      "stateMutability": "view",
      "type": "function"
    },
    {
      "inputs": [],
      "name": "DEFAULT_ADMIN_ROLE",
      "outputs": [
        {
          "internalType": "bytes32",
          "name": "",
          "type": "bytes32"
        }
      ],
      "stateMutability": "view",
      "type": "function"
    },
    {
      "inputs": [],
      "name": "ETH_PID",
      "outputs": [
        {
          "internalType": "uint256",
          "name": "",
          "type": "uint256"
        }
      ],
      "stateMutability": "view",
      "type": "function"
    },
    {
      "inputs": [],
      "name": "RCC",
      "outputs": [
        {
          "internalType": "contract IERC20",
          "name": "",
          "type": "address"
        }
      ],
      "stateMutability": "view",
      "type": "function"
    },
    {
      "inputs": [],
      "name": "UPGRADE_INTERFACE_VERSION",
      "outputs": [
        {
          "internalType": "string",
          "name": "",
          "type": "string"
        }
      ],
      "stateMutability": "view",
      "type": "function"
    },
    {
      "inputs": [],
      "name": "UPGRADE_ROLE",
      "outputs": [
        {
          "internalType": "bytes32",
          "name": "",
          "type": "bytes32"
        }
      ],
      "stateMutability": "view",
      "type": "function"
    },
    {
      "inputs": [
        {
          "internalType": "address",
          "name": "_stakeTokenAddress",
          "type": "address"
        },
        {
          "internalType": "uint256",
          "name": "_poolWeight",
          "type": "uint256"
        },
        {
          "internalType": "uint256",
          "name": "_minDepositAmount",
          "type": "uint256"
        },
        {
          "internalType": "uint256",
          "name": "_unStakeLockedBlocks",
          "type": "uint256"
        },
        {
          "internalType": "bool",
          "name": "_withUpdate",
          "type": "bool"
        }
      ],
      "name": "addPool",
      "outputs": [],
      "stateMutability": "nonpayable",
      "type": "function"
    },
    {
      "inputs": [
        {
          "internalType": "uint256",
          "name": "_pid",
          "type": "uint256"
        }
      ],
      "name": "claim",
      "outputs": [],
      "stateMutability": "nonpayable",
      "type": "function"
    },
    {
      "inputs": [],
      "name": "claimPaused",
      "outputs": [
        {
          "internalType": "bool",
          "name": "",
          "type": "bool"
        }
      ],
      "stateMutability": "view",
      "type": "function"
    },
    {
      "inputs": [
        {
          "internalType": "uint256",
          "name": "_pid",
          "type": "uint256"
        },
        {
          "internalType": "uint256",
          "name": "_amount",
          "type": "uint256"
        }
      ],
      "name": "deposit",
      "outputs": [],
      "stateMutability": "nonpayable",
      "type": "function"
    },
    {
      "inputs": [],
      "name": "depositETH",
      "outputs": [],
      "stateMutability": "payable",
      "type": "function"
    },
    {
      "inputs": [],
      "name": "endBlock",
      "outputs": [
        {
          "internalType": "uint256",
          "name": "",
          "type": "uint256"
        }
      ],
      "stateMutability": "view",
      "type": "function"
    },
    {
      "inputs": [
        {
          "internalType": "uint256",
          "name": "_from",
          "type": "uint256"
        },
        {
          "internalType": "uint256",
          "name": "_to",
          "type": "uint256"
        }
      ],
      "name": "getMultiplier",
      "outputs": [
        {
          "internalType": "uint256",
          "name": "multiplier",
          "type": "uint256"
        }
      ],
      "stateMutability": "view",
      "type": "function"
    },
    {
      "inputs": [
        {
          "internalType": "uint256",
          "name": "_poolId",
          "type": "uint256"
        },
        {
          "internalType": "address",
          "name": "_user",
          "type": "address"
        }
      ],
      "name": "getPendingRCC",
      "outputs": [
        {
          "internalType": "uint256",
          "name": "",
          "type": "uint256"
        }
      ],
      "stateMutability": "view",
      "type": "function"
    },
    {
      "inputs": [],
      "name": "getPoolLength",
      "outputs": [
        {
          "internalType": "uint256",
          "name": "",
          "type": "uint256"
        }
      ],
      "stateMutability": "view",
      "type": "function"
    },
    {
      "inputs": [
        {
          "internalType": "bytes32",
          "name": "role",
          "type": "bytes32"
        }
      ],
      "name": "getRoleAdmin",
      "outputs": [
        {
          "internalType": "bytes32",
          "name": "",
          "type": "bytes32"
        }
      ],
      "stateMutability": "view",
      "type": "function"
    },
    {
      "inputs": [
        {
          "internalType": "bytes32",
          "name": "role",
          "type": "bytes32"
        },
        {
          "internalType": "address",
          "name": "account",
          "type": "address"
        }
      ],
      "name": "grantRole",
      "outputs": [],
      "stateMutability": "nonpayable",
      "type": "function"
    },
    {
      "inputs": [
        {
          "internalType": "bytes32",
          "name": "role",
          "type": "bytes32"
        },
        {
          "internalType": "address",
          "name": "account",
          "type": "address"
        }
      ],
      "name": "hasRole",
      "outputs": [
        {
          "internalType": "bool",
          "name": "",
          "type": "bool"
        }
      ],
      "stateMutability": "view",
      "type": "function"
    },
    {
      "inputs": [
        {
          "internalType": "contract IERC20",
          "name": "_RCC",
          "type": "address"
        },
        {
          "internalType": "uint256",
          "name": "_startBlock",
          "type": "uint256"
        },
        {
          "internalType": "uint256",
          "name": "_endBlock",
          "type": "uint256"
        },
        {
          "internalType": "uint256",
          "name": "_rccPerBlock",
          "type": "uint256"
        }
      ],
      "name": "initialize",
      "outputs": [],
      "stateMutability": "nonpayable",
      "type": "function"
    },
    {
      "inputs": [],
      "name": "massUpdatePools",
      "outputs": [],
      "stateMutability": "nonpayable",
      "type": "function"
    },
    {
      "inputs": [],
      "name": "pauseWithdraw",
      "outputs": [],
      "stateMutability": "nonpayable",
      "type": "function"
    },
    {
      "inputs": [],
      "name": "paused",
      "outputs": [
        {
          "internalType": "bool",
          "name": "",
          "type": "bool"
        }
      ],
      "stateMutability": "view",
      "type": "function"
    },
    {
      "inputs": [
        {
          "internalType": "uint256",
          "name": "_poolId",
          "type": "uint256"
        },
        {
          "internalType": "address",
          "name": "_user",
          "type": "address"
        },
        {
          "internalType": "uint256",
          "name": "_blockNumber",
          "type": "uint256"
        }
      ],
      "name": "pendingRCCByBlockNumber",
      "outputs": [
        {
          "internalType": "uint256",
          "name": "",
          "type": "uint256"
        }
      ],
      "stateMutability": "view",
      "type": "function"
    },
    {
      "inputs": [
        {
          "internalType": "uint256",
          "name": "",
          "type": "uint256"
        }
      ],
      "name": "pool",
      "outputs": [
        {
          "internalType": "address",
          "name": "stakeTokenAddress",
          "type": "address"
        },
        {
          "internalType": "uint256",
          "name": "poolWeight",
          "type": "uint256"
        },
        {
          "internalType": "uint256",
          "name": "lastRewardBlock",
          "type": "uint256"
        },
        {
          "internalType": "uint256",
          "name": "accumulateRewardsPerStake",
          "type": "uint256"
        },
        {
          "internalType": "uint256",
          "name": "stakeTokenAmount",
          "type": "uint256"
        },
        {
          "internalType": "uint256",
          "name": "minDepositAmount",
          "type": "uint256"
        },
        {
          "internalType": "uint256",
          "name": "unStakeLockedBlocks",
          "type": "uint256"
        }
      ],
      "stateMutability": "view",
      "type": "function"
    },
    {
      "inputs": [],
      "name": "proxiableUUID",
      "outputs": [
        {
          "internalType": "bytes32",
          "name": "",
          "type": "bytes32"
        }
      ],
      "stateMutability": "view",
      "type": "function"
    },
    {
      "inputs": [],
      "name": "rccPerBlock",
      "outputs": [
        {
          "internalType": "uint256",
          "name": "",
          "type": "uint256"
        }
      ],
      "stateMutability": "view",
      "type": "function"
    },
    {
      "inputs": [
        {
          "internalType": "bytes32",
          "name": "role",
          "type": "bytes32"
        },
        {
          "internalType": "address",
          "name": "callerConfirmation",
          "type": "address"
        }
      ],
      "name": "renounceRole",
      "outputs": [],
      "stateMutability": "nonpayable",
      "type": "function"
    },
    {
      "inputs": [
        {
          "internalType": "bytes32",
          "name": "role",
          "type": "bytes32"
        },
        {
          "internalType": "address",
          "name": "account",
          "type": "address"
        }
      ],
      "name": "revokeRole",
      "outputs": [],
      "stateMutability": "nonpayable",
      "type": "function"
    },
    {
      "inputs": [
        {
          "internalType": "uint256",
          "name": "_endBlock",
          "type": "uint256"
        }
      ],
      "name": "setEndBlock",
      "outputs": [],
      "stateMutability": "nonpayable",
      "type": "function"
    },
    {
      "inputs": [
        {
          "internalType": "uint256",
          "name": "_poolId",
          "type": "uint256"
        },
        {
          "internalType": "uint256",
          "name": "_poolWeight",
          "type": "uint256"
        },
        {
          "internalType": "bool",
          "name": "_withUpdate",
          "type": "bool"
        }
      ],
      "name": "setPoolWeight",
      "outputs": [],
      "stateMutability": "nonpayable",
      "type": "function"
    },
    {
      "inputs": [
        {
          "internalType": "contract IERC20",
          "name": "_RCC",
          "type": "address"
        }
      ],
      "name": "setRCC",
      "outputs": [],
      "stateMutability": "nonpayable",
      "type": "function"
    },
    {
      "inputs": [
        {
          "internalType": "uint256",
          "name": "_rccPerBlock",
          "type": "uint256"
        }
      ],
      "name": "setRCCPerBlock",
      "outputs": [],
      "stateMutability": "nonpayable",
      "type": "function"
    },
    {
      "inputs": [
        {
          "internalType": "uint256",
          "name": "_startBlock",
          "type": "uint256"
        }
      ],
      "name": "setStartBlock",
      "outputs": [],
      "stateMutability": "nonpayable",
      "type": "function"
    },
    {
      "inputs": [
        {
          "internalType": "uint256",
          "name": "_pid",
          "type": "uint256"
        },
        {
          "internalType": "address",
          "name": "_user",
          "type": "address"
        }
      ],
      "name": "stakingBalance",
      "outputs": [
        {
          "internalType": "uint256",
          "name": "",
          "type": "uint256"
        }
      ],
      "stateMutability": "view",
      "type": "function"
    },
    {
      "inputs": [],
      "name": "startBlock",
      "outputs": [
        {
          "internalType": "uint256",
          "name": "",
          "type": "uint256"
        }
      ],
      "stateMutability": "view",
      "type": "function"
    },
    {
      "inputs": [
        {
          "internalType": "bytes4",
          "name": "interfaceId",
          "type": "bytes4"
        }
      ],
      "name": "supportsInterface",
      "outputs": [
        {
          "internalType": "bool",
          "name": "",
          "type": "bool"
        }
      ],
      "stateMutability": "view",
      "type": "function"
    },
    {
      "inputs": [],
      "name": "toggleClaimPause",
      "outputs": [],
      "stateMutability": "nonpayable",
      "type": "function"
    },
    {
      "inputs": [],
      "name": "toggleWithdrawPause",
      "outputs": [],
      "stateMutability": "nonpayable",
      "type": "function"
    },
    {
      "inputs": [],
      "name": "totalPoolWeight",
      "outputs": [
        {
          "internalType": "uint256",
          "name": "",
          "type": "uint256"
        }
      ],
      "stateMutability": "view",
      "type": "function"
    },
    {
      "inputs": [
        {
          "internalType": "uint256",
          "name": "_pid",
          "type": "uint256"
        },
        {
          "internalType": "uint256",
          "name": "_amount",
          "type": "uint256"
        }
      ],
      "name": "unstake",
      "outputs": [],
      "stateMutability": "nonpayable",
      "type": "function"
    },
    {
      "inputs": [
        {
          "internalType": "uint256",
          "name": "_pid",
          "type": "uint256"
        }
      ],
      "name": "updatePool",
      "outputs": [],
      "stateMutability": "nonpayable",
      "type": "function"
    },
    {
      "inputs": [
        {
          "internalType": "uint256",
          "name": "_poolId",
          "type": "uint256"
        },
        {
          "internalType": "uint256",
          "name": "_minDepositAmount",
          "type": "uint256"
        },
        {
          "internalType": "uint256",
          "name": "_unStakeLockedBlocks",
          "type": "uint256"
        }
      ],
      "name": "updatePool",
      "outputs": [],
      "stateMutability": "nonpayable",
      "type": "function"
    },
    {
      "inputs": [
        {
          "internalType": "address",
          "name": "newImplementation",
          "type": "address"
        },
        {
          "internalType": "bytes",
          "name": "data",
          "type": "bytes"
        }
      ],
      "name": "upgradeToAndCall",
      "outputs": [],
      "stateMutability": "payable",
      "type": "function"
    },
    {
      "inputs": [
        {
          "internalType": "uint256",
          "name": "",
          "type": "uint256"
        },
        {
          "internalType": "address",
          "name": "",
          "type": "address"
        }
      ],
      "name": "user",
      "outputs": [
        {
          "internalType": "uint256",
          "name": "stakeAmount",
          "type": "uint256"
        },
        {
          "internalType": "uint256",
          "name": "finishedRewards",
          "type": "uint256"
        },
        {
          "internalType": "uint256",
          "name": "pendingRewards",
          "type": "uint256"
        }
      ],
      "stateMutability": "view",
      "type": "function"
    },
    {
      "inputs": [
        {
          "internalType": "uint256",
          "name": "_pid",
          "type": "uint256"
        }
      ],
      "name": "withdraw",
      "outputs": [],
      "stateMutability": "nonpayable",
      "type": "function"
    },
    {
      "inputs": [
        {
          "internalType": "uint256",
          "name": "_poolId",
          "type": "uint256"
        },
        {
          "internalType": "address",
          "name": "_user",
          "type": "address"
        }
      ],
      "name": "withdrawAmount",
      "outputs": [
        {
          "internalType": "uint256",
          "name": "requestAmount",
          "type": "uint256"
        },
        {
          "internalType": "uint256",
          "name": "pendingWithdrawAmount",
          "type": "uint256"
        }
      ],
      "stateMutability": "view",
      "type": "function"
    },
    {
      "inputs": [],
      "name": "withdrawPaused",
      "outputs": [
        {
          "internalType": "bool",
          "name": "",
          "type": "bool"
        }
      ],
      "stateMutability": "view",
      "type": "function"
    },
    {
      "stateMutability": "payable",
      "type": "receive"
    }
  ],
  "bytecode": "0x60a06040523073ffffffffffffffffffffffffffffffffffffffff1660809073ffffffffffffffffffffffffffffffffffffffff1681525034801561004357600080fd5b506080516160bb6200006e600039600081816137f90152818161384e0152613ae401526160bb6000f3fe60806040526004361061028c5760003560e01c80638dbb1e3a1161015a578063bed66c08116100c1578063f35e4a6e1161007a578063f35e4a6e14610991578063f5485d32146109ba578063f6326fb3146109e3578063fad07ece146109ed578063fe31311214610a16578063ff42335714610a5957610293565b8063bed66c0814610899578063bfc3ebba146108c2578063c713aa94146108ed578063d547741f14610916578063d86c04441461093f578063e2bbb1581461096857610293565b8063ab5e124a11610113578063ab5e124a146107ad578063ad3cb1cc146107d8578063ae35a8d514610803578063b3944d521461081a578063b6d9d91914610845578063b908afa81461086e57610293565b80638dbb1e3a1461067757806391d14854146106b45780639e2c8a5b146106f1578063a217fddf1461071a578063a27d927914610745578063a72d5bf41461078257610293565b806341721ab7116101fe5780635c975abb116101b75780635c975abb146105b15780636155e3de146105dc578063630b5ba1146105f357806370ff01731461060a57806375b238fc1461063557806380cce73f1461066057610293565b806341721ab7146104b057806348cd4cb1146104ed5780634ec81af1146105185780634f1ef2861461054157806351eb05a61461055d57806352d1902d1461058657610293565b80632e1a7d4d116102505780632e1a7d4d146103a25780632f2ff15d146103cb5780632f3ffb9f146103f457806336568abe1461041f57806337849b3c14610448578063379607f51461048757610293565b806301ffc9a71461029557806302559004146102d2578063083c6323146102fd5780631154823414610328578063248a9ca31461036557610293565b3661029357005b005b3480156102a157600080fd5b506102bc60048036038101906102b7919061452d565b610a97565b6040516102c99190614575565b60405180910390f35b3480156102de57600080fd5b506102e7610b11565b6040516102f491906145a9565b60405180910390f35b34801561030957600080fd5b50610312610b17565b60405161031f91906145a9565b60405180910390f35b34801561033457600080fd5b5061034f600480360381019061034a919061464e565b610b1d565b60405161035c91906145a9565b60405180910390f35b34801561037157600080fd5b5061038c600480360381019061038791906146c4565b610bc4565b6040516103999190614700565b60405180910390f35b3480156103ae57600080fd5b506103c960048036038101906103c4919061471b565b610bf2565b005b3480156103d757600080fd5b506103f260048036038101906103ed9190614748565b610fa4565b005b34801561040057600080fd5b50610409610fc6565b6040516104169190614575565b60405180910390f35b34801561042b57600080fd5b5061044660048036038101906104419190614748565b610fd9565b005b34801561045457600080fd5b5061046f600480360381019061046a919061464e565b611054565b60405161047e93929190614788565b60405180910390f35b34801561049357600080fd5b506104ae60048036038101906104a9919061471b565b61108b565b005b3480156104bc57600080fd5b506104d760048036038101906104d291906147bf565b611287565b6040516104e491906145a9565b60405180910390f35b3480156104f957600080fd5b506105026113dd565b60405161050f91906145a9565b60405180910390f35b34801561052457600080fd5b5061053f600480360381019061053a9190614850565b6113e3565b005b61055b600480360381019061055691906149fd565b61168c565b005b34801561056957600080fd5b50610584600480360381019061057f919061471b565b6116ab565b005b34801561059257600080fd5b5061059b611997565b6040516105a89190614700565b60405180910390f35b3480156105bd57600080fd5b506105c66119ca565b6040516105d39190614575565b60405180910390f35b3480156105e857600080fd5b506105f16119ef565b005b3480156105ff57600080fd5b50610608611ab2565b005b34801561061657600080fd5b5061061f611ae1565b60405161062c91906145a9565b60405180910390f35b34801561064157600080fd5b5061064a611ae7565b6040516106579190614700565b60405180910390f35b34801561066c57600080fd5b50610675611b0b565b005b34801561068357600080fd5b5061069e60048036038101906106999190614a59565b611bd5565b6040516106ab91906145a9565b60405180910390f35b3480156106c057600080fd5b506106db60048036038101906106d69190614748565b611cf9565b6040516106e89190614575565b60405180910390f35b3480156106fd57600080fd5b5061071860048036038101906107139190614a59565b611d72565b005b34801561072657600080fd5b5061072f61214c565b60405161073c9190614700565b60405180910390f35b34801561075157600080fd5b5061076c6004803603810190610767919061464e565b612153565b60405161077991906145a9565b60405180910390f35b34801561078e57600080fd5b506107976121b1565b6040516107a49190614af8565b60405180910390f35b3480156107b957600080fd5b506107c26121d7565b6040516107cf9190614575565b60405180910390f35b3480156107e457600080fd5b506107ed6121ea565b6040516107fa9190614b92565b60405180910390f35b34801561080f57600080fd5b50610818612223565b005b34801561082657600080fd5b5061082f6122ed565b60405161083c91906145a9565b60405180910390f35b34801561085157600080fd5b5061086c60048036038101906108679190614be0565b6122fa565b005b34801561087a57600080fd5b50610883612677565b6040516108909190614700565b60405180910390f35b3480156108a557600080fd5b506108c060048036038101906108bb919061471b565b61269b565b005b3480156108ce57600080fd5b506108d7612740565b6040516108e491906145a9565b60405180910390f35b3480156108f957600080fd5b50610914600480360381019061090f919061471b565b612745565b005b34801561092257600080fd5b5061093d60048036038101906109389190614748565b6127ec565b005b34801561094b57600080fd5b5061096660048036038101906109619190614c5b565b61280e565b005b34801561097457600080fd5b5061098f600480360381019061098a9190614a59565b612951565b005b34801561099d57600080fd5b506109b860048036038101906109b3919061471b565b612b03565b005b3480156109c657600080fd5b506109e160048036038101906109dc9190614cae565b612baa565b005b6109eb612c7e565b005b3480156109f957600080fd5b50610a146004803603810190610a0f9190614cdb565b612d9b565b005b348015610a2257600080fd5b50610a3d6004803603810190610a38919061471b565b612f5f565b604051610a509796959493929190614d3d565b60405180910390f35b348015610a6557600080fd5b50610a806004803603810190610a7b919061464e565b612fd1565b604051610a8e929190614dac565b60405180910390f35b60007f7965db0b000000000000000000000000000000000000000000000000000000007bffffffffffffffffffffffffffffffffffffffffffffffffffffffff1916827bffffffffffffffffffffffffffffffffffffffffffffffffffffffff19161480610b0a5750610b0982613132565b5b9050919050565b60045481565b60015481565b6000826005805490508110610b67576040517f08c379a0000000000000000000000000000000000000000000000000000000008152600401610b5e90614e21565b60405180910390fd5b6006600085815260200190815260200160002060008473ffffffffffffffffffffffffffffffffffffffff1673ffffffffffffffffffffffffffffffffffffffff1681526020019081526020016000206000015491505092915050565b600080610bcf61319c565b905080600001600084815260200190815260200160002060010154915050919050565b610bfa6131c4565b600360009054906101000a900460ff1615610c4a576040517f08c379a0000000000000000000000000000000000000000000000000000000008152600401610c4190614e8d565b60405180910390fd5b806005805490508110610c92576040517f08c379a0000000000000000000000000000000000000000000000000000000008152600401610c8990614e21565b60405180910390fd5b600060058381548110610ca857610ca7614ead565b5b9060005260206000209060070201905060006006600085815260200190815260200160002060003373ffffffffffffffffffffffffffffffffffffffff1673ffffffffffffffffffffffffffffffffffffffff168152602001908152602001600020905060008060005b8360030180549050811015610d9f5743846003018281548110610d3857610d37614ead565b5b90600052602060002090600202016001015411610d9f57836003018181548110610d6557610d64614ead565b5b90600052602060002090600202016000015483610d829190614f0b565b92508180610d8f90614f3f565b9250508080600101915050610d12565b5060005b818460030180549050610db69190614f87565b811015610e3457836003018282610dcd9190614f0b565b81548110610dde57610ddd614ead565b5b9060005260206000209060020201846003018281548110610e0257610e01614ead565b5b906000526020600020906002020160008201548160000155600182015481600101559050508080600101915050610da3565b5060005b81811015610e8a5783600301805480610e5457610e53614fbb565b5b60019003818190600052602060002090600202016000808201600090556001820160009055505090558080600101915050610e38565b506000821115610f4c57600073ffffffffffffffffffffffffffffffffffffffff168460000160009054906101000a900473ffffffffffffffffffffffffffffffffffffffff1673ffffffffffffffffffffffffffffffffffffffff1603610efb57610ef63383613205565b610f4b565b610f4a33838660000160009054906101000a900473ffffffffffffffffffffffffffffffffffffffff1673ffffffffffffffffffffffffffffffffffffffff166133179092919063ffffffff16565b5b5b43863373ffffffffffffffffffffffffffffffffffffffff167f02f25270a4d87bea75db541cdfe559334a275b4a233520ed6c0a2429667cca9485604051610f9491906145a9565b60405180910390a4505050505050565b610fad82610bc4565b610fb681613396565b610fc083836133aa565b50505050565b600360009054906101000a900460ff1681565b610fe16134ab565b73ffffffffffffffffffffffffffffffffffffffff168173ffffffffffffffffffffffffffffffffffffffff1614611045576040517f6697b23200000000000000000000000000000000000000000000000000000000815260040160405180910390fd5b61104f82826134b3565b505050565b6006602052816000526040600020602052806000526040600020600091509150508060000154908060010154908060020154905083565b6110936131c4565b8060058054905081106110db576040517f08c379a00000000000000000000000000000000000000000000000000000000081526004016110d290614e21565b60405180910390fd5b600360019054906101000a900460ff161561112b576040517f08c379a000000000000000000000000000000000000000000000000000000000815260040161112290615036565b60405180910390fd5b60006005838154811061114157611140614ead565b5b9060005260206000209060070201905060006006600085815260200190815260200160002060003373ffffffffffffffffffffffffffffffffffffffff1673ffffffffffffffffffffffffffffffffffffffff16815260200190815260200160002090506111ae846116ab565b600081600201548260010154846003015484600001546111ce9190615056565b6111d89190614f87565b6111e29190614f0b565b90506000811115611202576000826002018190555061120133826135b5565b5b670de0b6b3a76400008360030154836000015461121f9190615056565b61122991906150c7565b8260010181905550843373ffffffffffffffffffffffffffffffffffffffff167f34fcbac0073d7c3d388e51312faf357774904998eeb8fca628b9e6f65ee1cbf78360405161127891906145a9565b60405180910390a35050505050565b6000806005858154811061129e5761129d614ead565b5b9060005260206000209060070201905060006006600087815260200190815260200160002060008673ffffffffffffffffffffffffffffffffffffffff1673ffffffffffffffffffffffffffffffffffffffff1681526020019081526020016000209050600082600301549050600083600401549050836002015486108015611328575060008114155b1561138f57600061133d856002015488611bd5565b905060006004548660010154836113549190615056565b61135e91906150c7565b905082670de0b6b3a7640000826113759190615056565b61137f91906150c7565b8461138a9190614f0b565b935050505b82600201548360010154670de0b6b3a76400008486600001546113b29190615056565b6113bc91906150c7565b6113c69190614f87565b6113d09190614f0b565b9450505050509392505050565b60005481565b60006113ed6137a9565b905060008160000160089054906101000a900460ff1615905060008260000160009054906101000a900467ffffffffffffffff1690506000808267ffffffffffffffff1614801561143b5750825b9050600060018367ffffffffffffffff16148015611470575060003073ffffffffffffffffffffffffffffffffffffffff163b145b90508115801561147e575080155b156114b5576040517ff92ee8a900000000000000000000000000000000000000000000000000000000815260040160405180910390fd5b60018560000160006101000a81548167ffffffffffffffff021916908367ffffffffffffffff16021790555083156115055760018560000160086101000a81548160ff0219169083151502179055505b86881115611548576040517f08c379a000000000000000000000000000000000000000000000000000000000815260040161153f9061516a565b60405180910390fd5b6000861161158b576040517f08c379a0000000000000000000000000000000000000000000000000000000008152600401611582906151fc565b60405180910390fd5b6115936137d1565b61159b6137db565b6115a36137e5565b6115b06000801b336133aa565b506115db7ff47fc0c09ebbfe308d89b8035681a1164b9882bcfd49eb89861067738a30f5ab336133aa565b506116067f589d473ba17c0f47d494622893831497bad25919b9afb8e33e9521b8963fccde336133aa565b5061161089612baa565b87600081905550866001819055508560028190555083156116815760008560000160086101000a81548160ff0219169083151502179055507fc7f505b2f371ae2175ee4913f4499e1f2633a7b5936321eed1cdaeb6115181d26001604051611678919061526b565b60405180910390a15b505050505050505050565b6116946137f7565b61169d826138dd565b6116a7828261390b565b5050565b8060058054905081106116f3576040517f08c379a00000000000000000000000000000000000000000000000000000000081526004016116ea90614e21565b60405180910390fd5b60006005838154811061170957611708614ead565b5b906000526020600020906007020190508060020154431161172a5750611993565b6000816004015490506000810361174b574382600201819055505050611993565b6000806117728460010154611764866002015443611bd5565b613a2a90919063ffffffff16565b91509150816117b6576040517f08c379a00000000000000000000000000000000000000000000000000000000081526004016117ad906152d2565b60405180910390fd5b6117cb60045482613a7d90919063ffffffff16565b809250819350505081611813576040517f08c379a000000000000000000000000000000000000000000000000000000000815260040161180a906152d2565b60405180910390fd5b60008460040154905060008111156119475760008061183c600185613a2a90919063ffffffff16565b9150915081611880576040517f08c379a0000000000000000000000000000000000000000000000000000000008152600401611877906152d2565b60405180910390fd5b6118938382613a7d90919063ffffffff16565b8092508193505050816118db576040517f08c379a00000000000000000000000000000000000000000000000000000000081526004016118d2906152d2565b60405180910390fd5b6000806118f5838a60030154613ab390919063ffffffff16565b9150915081611939576040517f08c379a0000000000000000000000000000000000000000000000000000000008152600401611930906152d2565b60405180910390fd5b808960030181905550505050505b4385600201819055508460020154877ff5d2d72d9b25d6853afd7d0554a113b705234b6a68bb36b7f1436629946324118460405161198591906145a9565b60405180910390a350505050505b5050565b60006119a1613ae2565b7f360894a13ba1a3210667c828492db98dca3e2076cc3735a920a3ca505d382bbc60001b905090565b6000806119d5613b69565b90508060000160009054906101000a900460ff1691505090565b7f589d473ba17c0f47d494622893831497bad25919b9afb8e33e9521b8963fccde611a1981613396565b600360009054906101000a900460ff16611a68576040517f08c379a0000000000000000000000000000000000000000000000000000000008152600401611a5f90615364565b60405180910390fd5b6001600360006101000a81548160ff0219169083151502179055507f2523dfdafa00190f21a4cbd0c25179c8dd3cb34a6c17fea952ecca8fa8332c0e60405160405180910390a150565b6000600580549050905060005b81811015611add57611ad0816116ab565b8080600101915050611abf565b5050565b60025481565b7f589d473ba17c0f47d494622893831497bad25919b9afb8e33e9521b8963fccde81565b7f589d473ba17c0f47d494622893831497bad25919b9afb8e33e9521b8963fccde611b3581613396565b600360009054906101000a900460ff1615600360006101000a81548160ff021916908315150217905550600360009054906101000a900460ff1615611ba5577f2523dfdafa00190f21a4cbd0c25179c8dd3cb34a6c17fea952ecca8fa8332c0e60405160405180910390a1611bd2565b7f027c975733baceca09666fae356a901e083676848aaf9710150079385daae74360405160405180910390a15b50565b600081831115611c1a576040517f08c379a0000000000000000000000000000000000000000000000000000000008152600401611c11906153d0565b60405180910390fd5b600054831015611c2a5760005492505b600154821115611c3a5760015491505b60008383611c489190614f87565b11611c88576040517f08c379a0000000000000000000000000000000000000000000000000000000008152600401611c7f906153d0565b60405180910390fd5b6000611caa6002548585611c9c9190614f87565b613a2a90919063ffffffff16565b809350819250505080611cf2576040517f08c379a0000000000000000000000000000000000000000000000000000000008152600401611ce99061543c565b60405180910390fd5b5092915050565b600080611d0461319c565b905080600001600085815260200190815260200160002060000160008473ffffffffffffffffffffffffffffffffffffffff1673ffffffffffffffffffffffffffffffffffffffff16815260200190815260200160002060009054906101000a900460ff1691505092915050565b611d7a6131c4565b600360009054906101000a900460ff1615611dca576040517f08c379a0000000000000000000000000000000000000000000000000000000008152600401611dc190614e8d565b60405180910390fd5b816005805490508110611e12576040517f08c379a0000000000000000000000000000000000000000000000000000000008152600401611e0990614e21565b60405180910390fd5b600060058481548110611e2857611e27614ead565b5b9060005260206000209060070201905060006006600086815260200190815260200160002060003373ffffffffffffffffffffffffffffffffffffffff1673ffffffffffffffffffffffffffffffffffffffff16815260200190815260200160002090508381600001541015611ed3576040517f08c379a0000000000000000000000000000000000000000000000000000000008152600401611eca906154a8565b60405180910390fd5b611edc856116ab565b600080611efa84600301548460000154613a2a90919063ffffffff16565b9150915081611f3e576040517f08c379a0000000000000000000000000000000000000000000000000000000008152600401611f35906152d2565b60405180910390fd5b611f52600182613a7d90919063ffffffff16565b809250819350505081611f9a576040517f08c379a0000000000000000000000000000000000000000000000000000000008152600401611f9190615514565b60405180910390fd5b611fb1836001015482613b9190919063ffffffff16565b809250819350505081611ff9576040517f08c379a0000000000000000000000000000000000000000000000000000000008152600401611ff090615580565b60405180910390fd5b600081111561201e57808360020160008282546120169190614f0b565b925050819055505b60008611156120aa578583600001600082825461203b9190614f87565b925050819055508260030160405180604001604052808881526020018660060154436120679190614f0b565b8152509080600181540180825580915050600190039060005260206000209060020201600090919091909150600082015181600001556020820151816001015550505b858460040160008282546120be9190614f87565b92505081905550670de0b6b3a7640000846003015484600001546120e29190615056565b6120ec91906150c7565b8360010181905550863373ffffffffffffffffffffffffffffffffffffffff167fc80277265097707f6f12a4ac4c09d46c9926e2eea2536f63616cb04d9fcad7d68860405161213b91906145a9565b60405180910390a350505050505050565b6000801b81565b600082600580549050811061219d576040517f08c379a000000000000000000000000000000000000000000000000000000000815260040161219490614e21565b60405180910390fd5b6121a8848443611287565b91505092915050565b600360029054906101000a900473ffffffffffffffffffffffffffffffffffffffff1681565b600360019054906101000a900460ff1681565b6040518060400160405280600581526020017f352e302e3000000000000000000000000000000000000000000000000000000081525081565b7f589d473ba17c0f47d494622893831497bad25919b9afb8e33e9521b8963fccde61224d81613396565b600360019054906101000a900460ff1615600360016101000a81548160ff021916908315150217905550600360019054906101000a900460ff16156122bd577f443bf540e8151617cd5c39a681cc35a5a22be078b6f0cf16e5bd822b4c4b61ff60405160405180910390a16122ea565b7f07c8faf23a72a53eb5c2c466dc81386a58b2a27d0cc3c7c580a3c12e372ba31360405160405180910390a15b50565b6000600580549050905090565b7f589d473ba17c0f47d494622893831497bad25919b9afb8e33e9521b8963fccde61232481613396565b600060058054905011156123ec57600073ffffffffffffffffffffffffffffffffffffffff16600560008154811061235f5761235e614ead565b5b906000526020600020906007020160000160009054906101000a900473ffffffffffffffffffffffffffffffffffffffff1673ffffffffffffffffffffffffffffffffffffffff16146123e7576040517f08c379a00000000000000000000000000000000000000000000000000000000081526004016123de906155ec565b60405180910390fd5b61245c565b600073ffffffffffffffffffffffffffffffffffffffff168673ffffffffffffffffffffffffffffffffffffffff161461245b576040517f08c379a0000000000000000000000000000000000000000000000000000000008152600401612452906155ec565b60405180910390fd5b5b6000831161249f576040517f08c379a000000000000000000000000000000000000000000000000000000000815260040161249690615658565b60405180910390fd5b60015443106124e3576040517f08c379a00000000000000000000000000000000000000000000000000000000081526004016124da906156c4565b60405180910390fd5b81156124f2576124f1611ab2565b5b60008054431161250457600054612506565b435b9050856004600082825461251a9190614f0b565b9250508190555060056040518060e001604052808973ffffffffffffffffffffffffffffffffffffffff168152602001888152602001838152602001600081526020016000815260200187815260200186815250908060018154018082558091505060019003906000526020600020906007020160009091909190915060008201518160000160006101000a81548173ffffffffffffffffffffffffffffffffffffffff021916908373ffffffffffffffffffffffffffffffffffffffff1602179055506020820151816001015560408201518160020155606082015181600301556080820151816004015560a0820151816005015560c08201518160060155505080868873ffffffffffffffffffffffffffffffffffffffff167f0fa296fce13e7a0e622b3a892e66220c248337289483a3cfa4130cde0caa13468888604051612666929190614dac565b60405180910390a450505050505050565b7ff47fc0c09ebbfe308d89b8035681a1164b9882bcfd49eb89861067738a30f5ab81565b7f589d473ba17c0f47d494622893831497bad25919b9afb8e33e9521b8963fccde6126c581613396565b60008211612708576040517f08c379a00000000000000000000000000000000000000000000000000000000081526004016126ff90615730565b60405180910390fd5b81600281905550817f4c70925b625536dd633f6bd2d615c67fddc2e7c63c31164047a981a0df3fee5460405160405180910390a25050565b600081565b7f589d473ba17c0f47d494622893831497bad25919b9afb8e33e9521b8963fccde61276f81613396565b8160005411156127b4576040517f08c379a00000000000000000000000000000000000000000000000000000000081526004016127ab9061579c565b60405180910390fd5b81600181905550817f1132c5baccb51da3d049fabc819697dc845fa224ad59d9b555507d6446b4085060405160405180910390a25050565b6127f582610bc4565b6127fe81613396565b61280883836134b3565b50505050565b826005805490508110612856576040517f08c379a000000000000000000000000000000000000000000000000000000000815260040161284d90614e21565b60405180910390fd5b7f589d473ba17c0f47d494622893831497bad25919b9afb8e33e9521b8963fccde61288081613396565b60058054905085106128c7576040517f08c379a00000000000000000000000000000000000000000000000000000000081526004016128be90615808565b60405180910390fd5b83600586815481106128dc576128db614ead565b5b906000526020600020906007020160050181905550826005868154811061290657612905614ead565b5b9060005260206000209060070201600601819055508284867f30dffdedaa3e3b4849298233f7cd71d229956e875ab09270498c96b7cf9181fd60405160405180910390a45050505050565b600360009054906101000a900460ff16156129a1576040517f08c379a000000000000000000000000000000000000000000000000000000000815260040161299890614e8d565b60405180910390fd5b8160058054905081106129e9576040517f08c379a00000000000000000000000000000000000000000000000000000000081526004016129e090614e21565b60405180910390fd5b60008303612a2c576040517f08c379a0000000000000000000000000000000000000000000000000000000008152600401612a2390615874565b60405180910390fd5b600060058481548110612a4257612a41614ead565b5b9060005260206000209060070201905080600501548311612a98576040517f08c379a0000000000000000000000000000000000000000000000000000000008152600401612a8f906158e0565b60405180910390fd5b6000831115612af357612af23330858460000160009054906101000a900473ffffffffffffffffffffffffffffffffffffffff1673ffffffffffffffffffffffffffffffffffffffff16613bb9909392919063ffffffff16565b5b612afd8484613c3b565b50505050565b7f589d473ba17c0f47d494622893831497bad25919b9afb8e33e9521b8963fccde612b2d81613396565b600154821115612b72576040517f08c379a0000000000000000000000000000000000000000000000000000000008152600401612b699061594c565b60405180910390fd5b81600081905550817f63b90b79f11a0f132bcb2c4a4ddd44abda45c1308a83b2919318df7f5f8b7be460405160405180910390a25050565b7f589d473ba17c0f47d494622893831497bad25919b9afb8e33e9521b8963fccde612bd481613396565b81600360026101000a81548173ffffffffffffffffffffffffffffffffffffffff021916908373ffffffffffffffffffffffffffffffffffffffff160217905550600360029054906101000a900473ffffffffffffffffffffffffffffffffffffffff1673ffffffffffffffffffffffffffffffffffffffff167f153aae53b92218044bd5f43922617c6b253e50ac98a41b44c3acb5625ded348860405160405180910390a25050565b612c866131c4565b60006005600081548110612c9d57612c9c614ead565b5b90600052602060002090600702019050600073ffffffffffffffffffffffffffffffffffffffff168160000160009054906101000a900473ffffffffffffffffffffffffffffffffffffffff1673ffffffffffffffffffffffffffffffffffffffff1614612d40576040517f08c379a0000000000000000000000000000000000000000000000000000000008152600401612d37906159b8565b60405180910390fd5b60003490508160050154811015612d8c576040517f08c379a0000000000000000000000000000000000000000000000000000000008152600401612d83906158e0565b60405180910390fd5b612d97600082613c3b565b5050565b7f589d473ba17c0f47d494622893831497bad25919b9afb8e33e9521b8963fccde612dc581613396565b6005805490508410612e0c576040517f08c379a0000000000000000000000000000000000000000000000000000000008152600401612e0390615808565b60405180910390fd5b60008311612e4f576040517f08c379a0000000000000000000000000000000000000000000000000000000008152600401612e4690615a24565b60405180910390fd5b8115612e5e57612e5d611ab2565b5b600080612e7685600454613ab390919063ffffffff16565b9150915081612eba576040517f08c379a0000000000000000000000000000000000000000000000000000000008152600401612eb190615a90565b60405180910390fd5b60058681548110612ece57612ecd614ead565b5b90600052602060002090600702016001015481612eeb9190614f87565b6004819055508460058781548110612f0657612f05614ead565b5b906000526020600020906007020160010181905550857f4b8fa3d6a87cb21d1bf4978bf60628ae358a28ac7f39de1751a481c6dd95761786600454604051612f4f929190614dac565b60405180910390a2505050505050565b60058181548110612f6f57600080fd5b90600052602060002090600702016000915090508060000160009054906101000a900473ffffffffffffffffffffffffffffffffffffffff16908060010154908060020154908060030154908060040154908060050154908060060154905087565b60008083600580549050811061301c576040517f08c379a000000000000000000000000000000000000000000000000000000000815260040161301390614e21565b60405180910390fd5b60006006600087815260200190815260200160002060008673ffffffffffffffffffffffffffffffffffffffff1673ffffffffffffffffffffffffffffffffffffffff168152602001908152602001600020905060005b8160030180549050811015613128574382600301828154811061309957613098614ead565b5b906000526020600020906002020160010154116130e6578160030181815481106130c6576130c5614ead565b5b906000526020600020906002020160000154846130e39190614f0b565b93505b8160030181815481106130fc576130fb614ead565b5b906000526020600020906002020160000154856131199190614f0b565b94508080600101915050613073565b5050509250929050565b60007f01ffc9a7000000000000000000000000000000000000000000000000000000007bffffffffffffffffffffffffffffffffffffffffffffffffffffffff1916827bffffffffffffffffffffffffffffffffffffffffffffffffffffffff1916149050919050565b60007f02dd7bc7dec4dceedda775e58dd541e08a116c6c53815c0bd028192f7b626800905090565b6131cc6119ca565b15613203576040517fd93c066500000000000000000000000000000000000000000000000000000000815260040160405180910390fd5b565b6000808373ffffffffffffffffffffffffffffffffffffffff168360405161322c90615ae1565b60006040518083038185875af1925050503d8060008114613269576040519150601f19603f3d011682016040523d82523d6000602084013e61326e565b606091505b5091509150816132b3576040517f08c379a00000000000000000000000000000000000000000000000000000000081526004016132aa90615b42565b60405180910390fd5b60008151111561331157808060200190518101906132d19190615b77565b613310576040517f08c379a000000000000000000000000000000000000000000000000000000000815260040161330790615c16565b60405180910390fd5b5b50505050565b613391838473ffffffffffffffffffffffffffffffffffffffff1663a9059cbb858560405160240161334a929190615c36565b604051602081830303815290604052915060e01b6020820180517bffffffffffffffffffffffffffffffffffffffffffffffffffffffff8381831617835250505050614004565b505050565b6133a7816133a26134ab565b6140a6565b50565b6000806133b561319c565b90506133c18484611cf9565b61349f57600181600001600086815260200190815260200160002060000160008573ffffffffffffffffffffffffffffffffffffffff1673ffffffffffffffffffffffffffffffffffffffff16815260200190815260200160002060006101000a81548160ff02191690831515021790555061343b6134ab565b73ffffffffffffffffffffffffffffffffffffffff168373ffffffffffffffffffffffffffffffffffffffff16857f2f8788117e7eff1d82e926ec794901d17c78024a50270940304540a733656f0d60405160405180910390a460019150506134a5565b60009150505b92915050565b600033905090565b6000806134be61319c565b90506134ca8484611cf9565b156135a957600081600001600086815260200190815260200160002060000160008573ffffffffffffffffffffffffffffffffffffffff1673ffffffffffffffffffffffffffffffffffffffff16815260200190815260200160002060006101000a81548160ff0219169083151502179055506135456134ab565b73ffffffffffffffffffffffffffffffffffffffff168373ffffffffffffffffffffffffffffffffffffffff16857ff6391f5c32d9c69d2a47ea670b442974b53935d1edc7fd64eb21e047a839171b60405160405180910390a460019150506135af565b60009150505b92915050565b6000600360029054906101000a900473ffffffffffffffffffffffffffffffffffffffff1673ffffffffffffffffffffffffffffffffffffffff166370a08231306040518263ffffffff1660e01b81526004016136129190615c5f565b602060405180830381865afa15801561362f573d6000803e3d6000fd5b505050506040513d601f19601f820116820180604052508101906136539190615c8f565b905080821161370257600360029054906101000a900473ffffffffffffffffffffffffffffffffffffffff1673ffffffffffffffffffffffffffffffffffffffff1663a9059cbb84846040518363ffffffff1660e01b81526004016136b9929190615c36565b6020604051808303816000875af11580156136d8573d6000803e3d6000fd5b505050506040513d601f19601f820116820180604052508101906136fc9190615b77565b506137a4565b600360029054906101000a900473ffffffffffffffffffffffffffffffffffffffff1673ffffffffffffffffffffffffffffffffffffffff1663a9059cbb84836040518363ffffffff1660e01b815260040161375f929190615c36565b6020604051808303816000875af115801561377e573d6000803e3d6000fd5b505050506040513d601f19601f820116820180604052508101906137a29190615b77565b505b505050565b60007ff0c57e16840df040f15088dc2f81fe391c3923bec73e23a9662efc9c229c6a00905090565b6137d96140f7565b565b6137e36140f7565b565b6137ed6140f7565b6137f5614137565b565b7f000000000000000000000000000000000000000000000000000000000000000073ffffffffffffffffffffffffffffffffffffffff163073ffffffffffffffffffffffffffffffffffffffff1614806138a457507f000000000000000000000000000000000000000000000000000000000000000073ffffffffffffffffffffffffffffffffffffffff1661388b61416b565b73ffffffffffffffffffffffffffffffffffffffff1614155b156138db576040517fe07c8dba00000000000000000000000000000000000000000000000000000000815260040160405180910390fd5b565b7ff47fc0c09ebbfe308d89b8035681a1164b9882bcfd49eb89861067738a30f5ab61390781613396565b5050565b8173ffffffffffffffffffffffffffffffffffffffff166352d1902d6040518163ffffffff1660e01b8152600401602060405180830381865afa92505050801561397357506040513d601f19601f820116820180604052508101906139709190615cd1565b60015b6139b457816040517f4c9c8ce30000000000000000000000000000000000000000000000000000000081526004016139ab9190615c5f565b60405180910390fd5b7f360894a13ba1a3210667c828492db98dca3e2076cc3735a920a3ca505d382bbc60001b8114613a1b57806040517faa1d49a4000000000000000000000000000000000000000000000000000000008152600401613a129190614700565b60405180910390fd5b613a2583836141c2565b505050565b60008060008403613a42576001600091509150613a76565b6000838502905083858281613a5a57613a59615098565b5b0414613a6d576000809250925050613a76565b60018192509250505b9250929050565b60008060008303613a945760008091509150613aac565b6001838581613aa657613aa5615098565b5b04915091505b9250929050565b6000806000838501905084811015613ad2576000809250925050613adb565b60018192509250505b9250929050565b7f000000000000000000000000000000000000000000000000000000000000000073ffffffffffffffffffffffffffffffffffffffff163073ffffffffffffffffffffffffffffffffffffffff1614613b67576040517fe07c8dba00000000000000000000000000000000000000000000000000000000815260040160405180910390fd5b565b60007fcd5ed15c6e187e77e9aee88184c21f4f2182ab5827cb3b7e07fbedcd63f03300905090565b60008083831115613ba85760008091509150613bb2565b6001838503915091505b9250929050565b613c35848573ffffffffffffffffffffffffffffffffffffffff166323b872dd868686604051602401613bee93929190615cfe565b604051602081830303815290604052915060e01b6020820180517bffffffffffffffffffffffffffffffffffffffffffffffffffffffff8381831617835250505050614004565b50505050565b600060058381548110613c5157613c50614ead565b5b9060005260206000209060070201905060006006600085815260200190815260200160002060003373ffffffffffffffffffffffffffffffffffffffff1673ffffffffffffffffffffffffffffffffffffffff1681526020019081526020016000209050613cbe846116ab565b600081600001541115613e6657600080613ce984600301548460000154613a2a90919063ffffffff16565b9150915081613d2d576040517f08c379a0000000000000000000000000000000000000000000000000000000008152600401613d2490615d81565b60405180910390fd5b613d48670de0b6b3a764000082613a7d90919063ffffffff16565b809250819350505081613d90576040517f08c379a0000000000000000000000000000000000000000000000000000000008152600401613d8790615e13565b60405180910390fd5b600080613daa856001015484613b9190919063ffffffff16565b9150915081613dee576040517f08c379a0000000000000000000000000000000000000000000000000000000008152600401613de590615e7f565b60405180910390fd5b6000811115613e6157600080613e11838860020154613ab390919063ffffffff16565b9150915081613e55576040517f08c379a0000000000000000000000000000000000000000000000000000000008152600401613e4c90615e7f565b60405180910390fd5b80876002018190555050505b505050505b6000831115613ed957600080613e89836000015486613ab390919063ffffffff16565b9150915081613ecd576040517f08c379a0000000000000000000000000000000000000000000000000000000008152600401613ec490615eeb565b60405180910390fd5b80836000018190555050505b600080613ef3858560040154613ab390919063ffffffff16565b9150915081613f37576040517f08c379a0000000000000000000000000000000000000000000000000000000008152600401613f2e90615f57565b60405180910390fd5b808460040181905550600080613f5e86600301548660000154613a2a90919063ffffffff16565b9150915081613fa2576040517f08c379a0000000000000000000000000000000000000000000000000000000008152600401613f9990615fe9565b60405180910390fd5b808560010181905550873373ffffffffffffffffffffffffffffffffffffffff167f90890809c654f11d6e72a28fa60149770a0d11ec6c92319d6ceb2bb0a4ea1a1589604051613ff291906145a9565b60405180910390a35050505050505050565b600080602060008451602086016000885af180614027576040513d6000823e3d81fd5b3d92506000519150506000821461404257600181141561405e565b60008473ffffffffffffffffffffffffffffffffffffffff163b145b156140a057836040517f5274afe70000000000000000000000000000000000000000000000000000000081526004016140979190615c5f565b60405180910390fd5b50505050565b6140b08282611cf9565b6140f35780826040517fe2517d3f0000000000000000000000000000000000000000000000000000000081526004016140ea929190616009565b60405180910390fd5b5050565b6140ff614235565b614135576040517fd7e6bcf800000000000000000000000000000000000000000000000000000000815260040160405180910390fd5b565b61413f6140f7565b6000614149613b69565b905060008160000160006101000a81548160ff02191690831515021790555050565b60006141997f360894a13ba1a3210667c828492db98dca3e2076cc3735a920a3ca505d382bbc60001b614255565b60000160009054906101000a900473ffffffffffffffffffffffffffffffffffffffff16905090565b6141cb8261425f565b8173ffffffffffffffffffffffffffffffffffffffff167fbc7cd75a20ee27fd9adebab32041f755214dbc6bffa90cc0225b39da2e5c2d3b60405160405180910390a260008151111561422857614222828261432c565b50614231565b6142306143b0565b5b5050565b600061423f6137a9565b60000160089054906101000a900460ff16905090565b6000819050919050565b60008173ffffffffffffffffffffffffffffffffffffffff163b036142bb57806040517f4c9c8ce30000000000000000000000000000000000000000000000000000000081526004016142b29190615c5f565b60405180910390fd5b806142e87f360894a13ba1a3210667c828492db98dca3e2076cc3735a920a3ca505d382bbc60001b614255565b60000160006101000a81548173ffffffffffffffffffffffffffffffffffffffff021916908373ffffffffffffffffffffffffffffffffffffffff16021790555050565b60606000808473ffffffffffffffffffffffffffffffffffffffff1684604051614356919061606e565b600060405180830381855af49150503d8060008114614391576040519150601f19603f3d011682016040523d82523d6000602084013e614396565b606091505b50915091506143a68583836143ed565b9250505092915050565b60003411156143eb576040517fb398979f00000000000000000000000000000000000000000000000000000000815260040160405180910390fd5b565b606082614402576143fd8261447c565b614474565b6000825114801561442a575060008473ffffffffffffffffffffffffffffffffffffffff163b145b1561446c57836040517f9996b3150000000000000000000000000000000000000000000000000000000081526004016144639190615c5f565b60405180910390fd5b819050614475565b5b9392505050565b60008151111561448f5780518082602001fd5b6040517fd6bda27500000000000000000000000000000000000000000000000000000000815260040160405180910390fd5b6000604051905090565b600080fd5b600080fd5b60007fffffffff0000000000000000000000000000000000000000000000000000000082169050919050565b61450a816144d5565b811461451557600080fd5b50565b60008135905061452781614501565b92915050565b600060208284031215614543576145426144cb565b5b600061455184828501614518565b91505092915050565b60008115159050919050565b61456f8161455a565b82525050565b600060208201905061458a6000830184614566565b92915050565b6000819050919050565b6145a381614590565b82525050565b60006020820190506145be600083018461459a565b92915050565b6145cd81614590565b81146145d857600080fd5b50565b6000813590506145ea816145c4565b92915050565b600073ffffffffffffffffffffffffffffffffffffffff82169050919050565b600061461b826145f0565b9050919050565b61462b81614610565b811461463657600080fd5b50565b60008135905061464881614622565b92915050565b60008060408385031215614665576146646144cb565b5b6000614673858286016145db565b925050602061468485828601614639565b9150509250929050565b6000819050919050565b6146a18161468e565b81146146ac57600080fd5b50565b6000813590506146be81614698565b92915050565b6000602082840312156146da576146d96144cb565b5b60006146e8848285016146af565b91505092915050565b6146fa8161468e565b82525050565b600060208201905061471560008301846146f1565b92915050565b600060208284031215614731576147306144cb565b5b600061473f848285016145db565b91505092915050565b6000806040838503121561475f5761475e6144cb565b5b600061476d858286016146af565b925050602061477e85828601614639565b9150509250929050565b600060608201905061479d600083018661459a565b6147aa602083018561459a565b6147b7604083018461459a565b949350505050565b6000806000606084860312156147d8576147d76144cb565b5b60006147e6868287016145db565b93505060206147f786828701614639565b9250506040614808868287016145db565b9150509250925092565b600061481d82614610565b9050919050565b61482d81614812565b811461483857600080fd5b50565b60008135905061484a81614824565b92915050565b6000806000806080858703121561486a576148696144cb565b5b60006148788782880161483b565b9450506020614889878288016145db565b935050604061489a878288016145db565b92505060606148ab878288016145db565b91505092959194509250565b600080fd5b600080fd5b6000601f19601f8301169050919050565b7f4e487b7100000000000000000000000000000000000000000000000000000000600052604160045260246000fd5b61490a826148c1565b810181811067ffffffffffffffff82111715614929576149286148d2565b5b80604052505050565b600061493c6144c1565b90506149488282614901565b919050565b600067ffffffffffffffff821115614968576149676148d2565b5b614971826148c1565b9050602081019050919050565b82818337600083830152505050565b60006149a061499b8461494d565b614932565b9050828152602081018484840111156149bc576149bb6148bc565b5b6149c784828561497e565b509392505050565b600082601f8301126149e4576149e36148b7565b5b81356149f484826020860161498d565b91505092915050565b60008060408385031215614a1457614a136144cb565b5b6000614a2285828601614639565b925050602083013567ffffffffffffffff811115614a4357614a426144d0565b5b614a4f858286016149cf565b9150509250929050565b60008060408385031215614a7057614a6f6144cb565b5b6000614a7e858286016145db565b9250506020614a8f858286016145db565b9150509250929050565b6000819050919050565b6000614abe614ab9614ab4846145f0565b614a99565b6145f0565b9050919050565b6000614ad082614aa3565b9050919050565b6000614ae282614ac5565b9050919050565b614af281614ad7565b82525050565b6000602082019050614b0d6000830184614ae9565b92915050565b600081519050919050565b600082825260208201905092915050565b60005b83811015614b4d578082015181840152602081019050614b32565b60008484015250505050565b6000614b6482614b13565b614b6e8185614b1e565b9350614b7e818560208601614b2f565b614b87816148c1565b840191505092915050565b60006020820190508181036000830152614bac8184614b59565b905092915050565b614bbd8161455a565b8114614bc857600080fd5b50565b600081359050614bda81614bb4565b92915050565b600080600080600060a08688031215614bfc57614bfb6144cb565b5b6000614c0a88828901614639565b9550506020614c1b888289016145db565b9450506040614c2c888289016145db565b9350506060614c3d888289016145db565b9250506080614c4e88828901614bcb565b9150509295509295909350565b600080600060608486031215614c7457614c736144cb565b5b6000614c82868287016145db565b9350506020614c93868287016145db565b9250506040614ca4868287016145db565b9150509250925092565b600060208284031215614cc457614cc36144cb565b5b6000614cd28482850161483b565b91505092915050565b600080600060608486031215614cf457614cf36144cb565b5b6000614d02868287016145db565b9350506020614d13868287016145db565b9250506040614d2486828701614bcb565b9150509250925092565b614d3781614610565b82525050565b600060e082019050614d52600083018a614d2e565b614d5f602083018961459a565b614d6c604083018861459a565b614d79606083018761459a565b614d86608083018661459a565b614d9360a083018561459a565b614da060c083018461459a565b98975050505050505050565b6000604082019050614dc1600083018561459a565b614dce602083018461459a565b9392505050565b7f696e76616c696420706964000000000000000000000000000000000000000000600082015250565b6000614e0b600b83614b1e565b9150614e1682614dd5565b602082019050919050565b60006020820190508181036000830152614e3a81614dfe565b9050919050565b7f7769746864726177206973207061757365640000000000000000000000000000600082015250565b6000614e77601283614b1e565b9150614e8282614e41565b602082019050919050565b60006020820190508181036000830152614ea681614e6a565b9050919050565b7f4e487b7100000000000000000000000000000000000000000000000000000000600052603260045260246000fd5b7f4e487b7100000000000000000000000000000000000000000000000000000000600052601160045260246000fd5b6000614f1682614590565b9150614f2183614590565b9250828201905080821115614f3957614f38614edc565b5b92915050565b6000614f4a82614590565b91507fffffffffffffffffffffffffffffffffffffffffffffffffffffffffffffffff8203614f7c57614f7b614edc565b5b600182019050919050565b6000614f9282614590565b9150614f9d83614590565b9250828203905081811115614fb557614fb4614edc565b5b92915050565b7f4e487b7100000000000000000000000000000000000000000000000000000000600052603160045260246000fd5b7f636c61696d206973207061757365640000000000000000000000000000000000600082015250565b6000615020600f83614b1e565b915061502b82614fea565b602082019050919050565b6000602082019050818103600083015261504f81615013565b9050919050565b600061506182614590565b915061506c83614590565b925082820261507a81614590565b9150828204841483151761509157615090614edc565b5b5092915050565b7f4e487b7100000000000000000000000000000000000000000000000000000000600052601260045260246000fd5b60006150d282614590565b91506150dd83614590565b9250826150ed576150ec615098565b5b828204905092915050565b7f737461727420626c6f636b206d757374206265206c657373207468616e20656e60008201527f6420626c6f636b00000000000000000000000000000000000000000000000000602082015250565b6000615154602783614b1e565b915061515f826150f8565b604082019050919050565b6000602082019050818103600083015261518381615147565b9050919050565b7f7263632070657220626c6f636b206d757374206265206772656174657220746860008201527f616e203000000000000000000000000000000000000000000000000000000000602082015250565b60006151e6602483614b1e565b91506151f18261518a565b604082019050919050565b60006020820190508181036000830152615215816151d9565b9050919050565b6000819050919050565b600067ffffffffffffffff82169050919050565b600061525561525061524b8461521c565b614a99565b615226565b9050919050565b6152658161523a565b82525050565b6000602082019050615280600083018461525c565b92915050565b7f6f766572666c6f77000000000000000000000000000000000000000000000000600082015250565b60006152bc600883614b1e565b91506152c782615286565b602082019050919050565b600060208201905081810360008301526152eb816152af565b9050919050565b7f77697468647261772068617320616c7265616479206265656e20756e7061757360008201527f6564000000000000000000000000000000000000000000000000000000000000602082015250565b600061534e602283614b1e565b9150615359826152f2565b604082019050919050565b6000602082019050818103600083015261537d81615341565b9050919050565b7f696e76616c69642072616e676500000000000000000000000000000000000000600082015250565b60006153ba600d83614b1e565b91506153c582615384565b602082019050919050565b600060208201905081810360008301526153e9816153ad565b9050919050565b7f6d756c7469706c696572206f766572666c6f7700000000000000000000000000600082015250565b6000615426601383614b1e565b9150615431826153f0565b602082019050919050565b6000602082019050818103600083015261545581615419565b9050919050565b7f4e6f7420656e6f756768207374616b696e6720746f6b656e2062616c616e6365600082015250565b6000615492602083614b1e565b915061549d8261545c565b602082019050919050565b600060208201905081810360008301526154c181615485565b9050919050565b7f6f766572666c6f77320000000000000000000000000000000000000000000000600082015250565b60006154fe600983614b1e565b9150615509826154c8565b602082019050919050565b6000602082019050818103600083015261552d816154f1565b9050919050565b7f6f766572666c6f77330000000000000000000000000000000000000000000000600082015250565b600061556a600983614b1e565b915061557582615534565b602082019050919050565b600060208201905081810360008301526155998161555d565b9050919050565b7f74686520666972737420706f6f6c206d7573742062652045544820706f6f6c00600082015250565b60006155d6601f83614b1e565b91506155e1826155a0565b602082019050919050565b60006020820190508181036000830152615605816155c9565b9050919050565b7f696e76616c6964207769746864726177206c6f636b656420626c6f636b730000600082015250565b6000615642601e83614b1e565b915061564d8261560c565b602082019050919050565b6000602082019050818103600083015261567181615635565b9050919050565b7f616c726561647920656e64656400000000000000000000000000000000000000600082015250565b60006156ae600d83614b1e565b91506156b982615678565b602082019050919050565b600060208201905081810360008301526156dd816156a1565b9050919050565b7f496e76616c6964205243432070657220626c6f636b0000000000000000000000600082015250565b600061571a601583614b1e565b9150615725826156e4565b602082019050919050565b600060208201905081810360008301526157498161570d565b9050919050565b7f496e76616c696420656e6420626c6f636b000000000000000000000000000000600082015250565b6000615786601183614b1e565b915061579182615750565b602082019050919050565b600060208201905081810360008301526157b581615779565b9050919050565b7f696e76616c696420706f6f6c2069640000000000000000000000000000000000600082015250565b60006157f2600f83614b1e565b91506157fd826157bc565b602082019050919050565b60006020820190508181036000830152615821816157e5565b9050919050565b7f6465706f736974206e6f7420737570706f727420455448207374616b696e6700600082015250565b600061585e601f83614b1e565b915061586982615828565b602082019050919050565b6000602082019050818103600083015261588d81615851565b9050919050565b7f696e76616c6964206465706f73697420616d6f756e7400000000000000000000600082015250565b60006158ca601683614b1e565b91506158d582615894565b602082019050919050565b600060208201905081810360008301526158f9816158bd565b9050919050565b7f496e76616c696420737461727420626c6f636b00000000000000000000000000600082015250565b6000615936601383614b1e565b915061594182615900565b602082019050919050565b6000602082019050818103600083015261596581615929565b9050919050565b7f45544820706f6f6c206d75737420626520637265617465642066697273740000600082015250565b60006159a2601e83614b1e565b91506159ad8261596c565b602082019050919050565b600060208201905081810360008301526159d181615995565b9050919050565b7f696e76616c696420706f6f6c2077656967687400000000000000000000000000600082015250565b6000615a0e601383614b1e565b9150615a19826159d8565b602082019050919050565b60006020820190508181036000830152615a3d81615a01565b9050919050565b7f746f74616c20706f6f6c20776569676874206f766572666c6f77000000000000600082015250565b6000615a7a601a83614b1e565b9150615a8582615a44565b602082019050919050565b60006020820190508181036000830152615aa981615a6d565b9050919050565b600081905092915050565b50565b6000615acb600083615ab0565b9150615ad682615abb565b600082019050919050565b6000615aec82615abe565b9150819050919050565b7f455448207472616e736665722063616c6c206661696c65640000000000000000600082015250565b6000615b2c601883614b1e565b9150615b3782615af6565b602082019050919050565b60006020820190508181036000830152615b5b81615b1f565b9050919050565b600081519050615b7181614bb4565b92915050565b600060208284031215615b8d57615b8c6144cb565b5b6000615b9b84828501615b62565b91505092915050565b7f455448207472616e73666572206f7065726174696f6e20646964206e6f74207360008201527f7563636565640000000000000000000000000000000000000000000000000000602082015250565b6000615c00602683614b1e565b9150615c0b82615ba4565b604082019050919050565b60006020820190508181036000830152615c2f81615bf3565b9050919050565b6000604082019050615c4b6000830185614d2e565b615c58602083018461459a565b9392505050565b6000602082019050615c746000830184614d2e565b92915050565b600081519050615c89816145c4565b92915050565b600060208284031215615ca557615ca46144cb565b5b6000615cb384828501615c7a565b91505092915050565b600081519050615ccb81614698565b92915050565b600060208284031215615ce757615ce66144cb565b5b6000615cf584828501615cbc565b91505092915050565b6000606082019050615d136000830186614d2e565b615d206020830185614d2e565b615d2d604083018461459a565b949350505050565b7f75736572207374616b6520616d6f756e74206f766572666c6f77000000000000600082015250565b6000615d6b601a83614b1e565b9150615d7682615d35565b602082019050919050565b60006020820190508181036000830152615d9a81615d5e565b9050919050565b7f616363756d756c617465207265776172647320706572207374616b65206f766560008201527f72666c6f77000000000000000000000000000000000000000000000000000000602082015250565b6000615dfd602583614b1e565b9150615e0882615da1565b604082019050919050565b60006020820190508181036000830152615e2c81615df0565b9050919050565b7f70656e64696e672072657761726473206f766572666c6f770000000000000000600082015250565b6000615e69601883614b1e565b9150615e7482615e33565b602082019050919050565b60006020820190508181036000830152615e9881615e5c565b9050919050565b7f616363756d756c617465207374616b6520616d6f756e74206f766572666c6f77600082015250565b6000615ed5602083614b1e565b9150615ee082615e9f565b602082019050919050565b60006020820190508181036000830152615f0481615ec8565b9050919050565b7f7374616b6520746f6b656e20616d6f756e74206f766572666c6f770000000000600082015250565b6000615f41601b83614b1e565b9150615f4c82615f0b565b602082019050919050565b60006020820190508181036000830152615f7081615f34565b9050919050565b7f75736572207374416d6f756e74206d756c206163635243435065725354206f7660008201527f6572666c6f770000000000000000000000000000000000000000000000000000602082015250565b6000615fd3602683614b1e565b9150615fde82615f77565b604082019050919050565b6000602082019050818103600083015261600281615fc6565b9050919050565b600060408201905061601e6000830185614d2e565b61602b60208301846146f1565b9392505050565b600081519050919050565b600061604882616032565b6160528185615ab0565b9350616062818560208601614b2f565b80840191505092915050565b600061607a828461603d565b91508190509291505056fea2646970667358221220c63ad37feabf25bf7677e5147cde98ccebf984dbef48c448f5e00c3fd2935c3864736f6c63430008160033",
  "linkReferences": {},
  "deployedLinkReferences": {}
}